:020000040000FA
:100000000000000090EF02F0AAEF02F0800E016EF7
:10001000FE0EBDD8010EBBD8750E0A6E300EE0D0B4
:10002000016A018E126E1252D8A41206FE0EAFD8CB
:10003000025202E0022C02D0800E0ED00250020AC0
:1000400002E1C00E09D00250030A02E1940E04D06E
:100050000250040A02E1D40E026E1250022497D01C
:10006000016A018E126EFE0E92D8125090D0046A70
:100070000D6E0E6A00960450D8B40086050E036E0D
:10008000270E0C6E100E0CD8030E0C6EE80E08D85E
:100090000C6A640E05D80C6A0A0E02D80D5007D0FF
:1000A0000B6E0E500A6E0D50096EA4D80950096EE1
:1000B000034E0096045002E0035C07E20950D8A406
:1000C000009600B602D0300F62D01200A66AA68E4B
:1000D0000900F55002E002D8FBD71200106E899E8D
:1000E000899C929E929CF00E9216105000B21ED0E7
:1000F0003A0E0A6E980E74D8330E0F6E29D8130E6E
:100100000A6E880E6DD824D8640E69D821D8640E82
:1001100066D8220E0F6E1CD8280E07D80C0E05D8F4
:10012000060E03D80082105001D000800F6E00A090
:1001300009D0899C03080AE309D8070E0A6ED00E7D
:100140004FD812000080FE0814E0898C0F3A00A0FE
:100150000090898EF00E80160F500F0B8012000059
:1001600000D0899E0F3A000000D000B0F1D7320EC7
:1001700036D810501200A66AA68E0900F55002E08B
:1001800002D8FBD712009EA8FED7AD6E120001BEAA
:10019000A5D701B4F8D7A86EA66AA684550EA76E97
:1001A000AA0EA76EA682A6B2FED7A694A94AAA2A2C
:1001B000A68E1200A96EA66AA680A850A94AAA2AED
:1001C000A68E12000C6A0B6EFF0E0B260C2200D0BE
:1001D000D8A01200030E0A6EE60E02D8F5D70A6AFE
:1001E000FD0F096E01D00906000000D0E86A0A5A26
:1001F000FAE212000E6A0D6A100EF36E0A340D3622
:100200000E360B500D5C0C500E5805E30B500D5E76
:100210000C500E5AD88009360A36F32EEFD7095003
:100220001200A66AA68E0900F55002E0EE6EFBD71A
:10023000120053746172747570206F6B0000505F10
:1002400042656570732832290000456E642053743E
:1002500061727475700049525249535953204D418F
:10026000494E202020202020202000004F505449BB
:100270004F4E5320202020202020202020202020EE
:1002800000004D61696E204D656E75005365747593
:1002900070204D656E7500005574696C6974792025
:1002A0004D656E7500005554494C49545900505FD6
:1002B0004265657073280000202020202020202027
:1002C0002020202020202020202020200000202866
:1002D00053545542292020202020200053455455B6
:1002E00050202020202020202020202020202020DE
:1002F0000000496E707574203100496E707574206D
:100300003200496E707574203300494E50555420A8
:100310003200494E505554203300494E5055542018
:1003200031202020202020202020202020200000FC
:10033000456E61626C65202020200000456E616280
:100340006C65640044697361626C656400005365A8
:100350006E736F72202020200000507265737375D9
:10036000726500005363616C65346D61202000008C
:100370005363616C6532306D6120000048696768C5
:1003800020425020202000004869676820544250D5
:1003900020200000504C50425020202020200000FF
:1003A000534C504250202020202000004C6F7720DA
:1003B0005442502020200000526C79204869676820
:1003C00020200000526C7920504C5020202000004A
:1003D000526C7920534C502020200000526C792020
:1003E0004C6F772020200000446973706C61792085
:1003F00020200000464C4F57205343414C453400C9
:10040000464C4F57204544495400434C4F434B20E2
:10041000202020202020202020202020202000001C
:1004200054696D656F7574202020000050756C73E1
:1004300065202020202000002020202020202020B7
:1004400020200000454449543A205945532F4E4F2F
:1004500020202020202020002059657320205B4E82
:100460006F5D2020202020202020202000005B59CC
:1004700065735D20204E6F2020202020202020202A
:1004800020200000454449543A204D4F4445202047
:1004900020202020202020005B4E6F5D2020507502
:1004A0006C736520204C6174636820202000204E0E
:1004B0006F20205B50756C73655D204C61746368C0
:1004C00020202000204E6F20202050756C73652066
:1004D0005B4C617463685D202000454449543A20B8
:1004E000574F52442056414C55452020200020565D
:1004F000616C75653A205B005D2020202020202063
:100500002000454449543A204455524154494F4EE5
:10051000202020202000202020202020202020001B
:10052000006A100EAF6E240EAC6E900EAB6E000122
:100530000F0EC16E070EB46E700ED36E9B8C0F0E35
:10054000C16EF19EC40ED56E060ED66EF294F28A7E
:10055000F28EE9D0000113C0FCF114C0FDF1F4CF1C
:10056000FEF1F3CFFFF1F2A4D5D0060ED66EF294D1
:10057000192A000E1A221B221C222A2A0A0E2A5C81
:10058000D8A0BDD07A6A81B27A2A7B6A81B47B2AEC
:100590007C6A81BC7C2A7A502B5C10E02E2A020EE9
:1005A0002E5C0BE37AC02BF02E6A19C01DF01AC026
:1005B0001EF01BC01FF01CC020F001D02E6A7B5023
:1005C0002C5C10E02F2A020E2F5C0BE37BC02CF07A
:1005D0002F6A19C01DF01AC01EF01BC01FF01CC0EE
:1005E00020F001D02F6A7C502D5C10E0302A020EE2
:1005F000305C0BE37CC02DF0306A19C01DF01AC0CE
:100600001EF01BC01FF01CC020F001D0306A2B5020
:10061000020DF3CF13F0F4CF14F02C5013247D6EA1
:100620003150040DF3CF13F0F4CF14F07D501324A8
:100630007E6E010E7E5C09E0070E7E5C06E00E0E0B
:100640007E5C03E0080E7E5C02E132060DD0020EF5
:100650007E5C09E00B0E7E5C06E00D0E7E5C03E026
:10066000040E7E5C01E1322A7D5225E132BE0ED0BD
:10067000020E325C0BE3354A362A19C01DF01AC04F
:100680001EF01BC01FF01CC020F014D03250800A96
:100690007E0810E3355202E1365203E03506000EC3
:1006A000365A000119C01DF01AC01EF01BC01FF001
:1006B0001CC020F0326A7DC031F02D520DE1FF0EDA
:1006C000345C04E307E1F60E335C04E20A0E3326E1
:1006D000000E3422000112D0345203E1C80E335C04
:1006E0000AE3010E226E19C01DF01AC01EF01BC0D5
:1006F0001FF01CC020F00001346A336A2A6A2352BA
:1007000002E1245206E082842306000E245A0001EE
:1007100001D08294FCC113F0FDC114F0FEC1F4FFBE
:10072000FFC1F3FF11005CD826D8D4EC05F05ED8E9
:100730009AD8188218901894226A206A1F6A1E6A32
:100740001D6A406A030E485C02E3010E486E6CD8D5
:10075000020EF76E320EF66EBBEC00F00D0EC3EC1F
:1007600000F0C80EE2EC00F0406AFAD831D980C03F
:1007700039F0FAD7FFD7100E926E460E936E946A38
:10078000896A8A6A8B6A899C899E320EE2EC00F043
:10079000809C030E876F12DA050EE2EC00F0030E68
:1007A000876F0CDA960EEFEC00F0030E876F06DA17
:1007B000960EEFEC00F0020E876F00DA960EEFEC6B
:1007C00000F0280E886F00DA080E886FFDD9010E40
:1007D000886FFAD9060E886FF7D90C0E886FF4D19E
:1007E000100E926E460E936E946A12002B6A81B2BE
:1007F0002B2A2C6A81B42C2A2D6A81BC2D2A2B50DD
:10080000020DF3CF13F0F4CF14F02C501324316EFB
:100810002E6A2F6A306A2A6A326A366A356A386AFC
:10082000376A346A336A12007F6A060E7F5C12E20E
:10083000020EF76E3E0EF66EBBEC00F00D0EC3EC32
:1008400000F0020E976FAFEC07F0640EE2EC00F0E0
:100850007F2AEBE3020EF76E4A0EF66EBBEC00F059
:100860000D0EC3EF00F04CEC08F0010E8B6F2C0E58
:100870008A6FCCD98DC042F08CC041F0010E8B6FD5
:100880002E0E8A6FC3D98DC044F08CC043F0010E88
:100890008B6F300E8A6FBAD98DC046F08CC045F090
:1008A000010E946FDAD9020E946FD7D9030E946FAC
:1008B000D4D99CEC07F08B6BC80E8A6FA7D98DC07A
:1008C0003BF08CC03AF03B5203E10A0E3A5C02E383
:1008D000000E01D0010E176E010E3B5C000104E317
:1008E00005E12D0E3A5C02E2000E01D0010E171256
:1008F00000010BE03B6A1E0E3A6E8F6BC80E8E6FC6
:100900003BC091F03AC090F08CD98B6BCA0E8A6FC5
:100910007DD98DC03DF08CC03CF03D5203E10A0E04
:100920003C5C02E3000E01D0010E176E070E3D5C29
:10093000000104E305E1D10E3C5C02E2000E01D0AF
:10094000010E171200010BE03D6A320E3C6E8F6BF8
:10095000CA0E8E6F3DC091F03CC090F062D912007B
:10096000189001EE36F0020EF76E560EF66E11EC90
:1009700001F0EF6A02EC08F0020E9C6FF5EC07F054
:10098000030E9C6FF5EC07F0040E9C6FF5EC07F07E
:100990001882C1EC08F0C2EC08F0010EA45D06E17B
:1009A000020E976FAFEC07F012D010D0020EA45DCC
:1009B00006E1030E976FAFEC07F009D007D0030EE6
:1009C000A45D04E1030E976FAFEC07F0E2D71200CD
:1009D000040E836F816B826B1890188218A2A0D0CE
:1009E000010E976FAFEC07F001EE36F0020EF76ED6
:1009F0006C0EF66E11EC01F0EF6A02EC08F0020EDC
:100A00009C6FF5EC07F0030E9C6FF5EC07F0040EFD
:100A10009C6FF5EC07F0020E815D02E2826B16D04E
:100A2000FF0E8325056E066AFF0E062206520CE1B4
:100A30000550815D09E3030E835D04E3030E835DCE
:100A4000826F01D0826B02D08105826F020E856FAA
:100A5000050E855DD8B063D082518525136E146A6A
:100A60001436020E135C866F8651815D03E1010E20
:100A7000846F01D0846B865310E185C09DF001EE38
:100A800057F0020EF76E820EF66E11EC01F0EF6A6F
:100A900084C09EF018EC08F03FD0010E865D10E196
:100AA00085C09DF001EE57F0020EF76E8C0EF66ECB
:100AB00011EC01F0EF6A84C09EF018EC08F02CD025
:100AC000020E865D10E185C09DF001EE57F0020E2A
:100AD000F76E980EF66E11EC01F0EF6A84C09EF08E
:100AE00018EC08F019D0030E865D12E185C09DF068
:100AF00001EE57F0420EEE6E610EEE6E630EEE6E7C
:100B00006B0EEE6EEF6A84C09EF018EC08F004D015
:100B100085C09CF0F5EC07F0852BD8A099D71892EA
:100B200095EC08F0215215E0010E215C0EE1FF0E5C
:100B30008325056E066AFF0E0622065203E1055064
:100B4000815D02E20001812B03D0815301E0810726
:100B50001882C1EC08F0C2EC08F0010EA45D22E19D
:100B6000020E976FFCD9815304E1010E806F1BD0F8
:100B700018D0010E815D03E100EC09F012D0020EE5
:100B8000815D0CE101EE78F0020EF76EA60EF66EB6
:100B900011EC01F0EF6AC6EC08F003D0010E806F93
:100BA00002D018821BD71200996B050E986F0DDAD0
:100BB00006EC00F0996B020E986F07D287C0ACF07C
:100BC00002EC0AF01AEF0AF0809C88390F0B896F4B
:100BD00089C087F0F3DF0F0E8815896F89C087F011
:100BE000EDDF010E885D010ED8A4000E176E020E17
:100BF000885D010ED8A4000E171204E0020EE2EC8C
:100C000000F003D0320EEFEC00F012008BC0AAFF10
:100C10008AC0A9FFDBEC00F08C6FDBEC00F08D6F7D
:100C200012008FC0AAFF8EC0A9FFDBEC00F0926F0C
:100C3000DBEC00F0936F9151935D03E19051925D75
:100C40000BE08FC0AAFF8EC0A9FF00019051CBEC32
:100C500000F09151CBEC00F0120094C0ADF024EC08
:100C60000AF0AFC096F0AEC095F0010E945DD8A426
:100C700075D096C0AAFF95C0A9FFDBEC00F0476EC7
:100C8000010E9525A96E000E9621AA6EDBEC00F0F0
:100C9000486E020E9525A96E000E9621AA6EDBEC19
:100CA00000F0496E040E95258A6F000E96218B6F19
:100CB000ADDF8DC04BF08CC04AF0060E95258A6FD3
:100CC000000E96218B6FA2DF8DC04DF08CC04CF0D2
:100CD000080E95258A6F000E96218B6F97DF8DC0C9
:100CE0004FF08CC04EF00A0E95258A6F000E9621AB
:100CF0008B6F8CDF8DC051F08CC050F00C0E9525A1
:100D00008A6F000E96218B6F81DF8DC053F08CC0EF
:100D100052F00E0E9525A96E000E9621AA6EDBEC00
:100D200000F0546E0F0E9525A96E000E9621AA6E46
:100D3000DBEC00F0556E100E9525A96E000E962185
:100D4000AA6EDBEC00F0566E110E9525A96E000E12
:100D50009621AA6EDBEC00F0576EEDD0020E945D8A
:100D6000D8A475D096C0AAFF95C0A9FFDBEC00F00F
:100D7000586E010E9525A96E000E9621AA6EDBEC29
:100D800000F0596E020E9525A96E000E9621AA6EEE
:100D9000DBEC00F05A6E040E95258A6F000E96214A
:100DA0008B6F34DF8DC05CF08CC05BF0060E952538
:100DB0008A6F000E96218B6F29DF8DC05EF08CC08C
:100DC0005DF0080E95258A6F000E96218B6F1EDF51
:100DD0008DC060F08CC05FF00A0E95258A6F000E02
:100DE00096218B6F13DF8DC062F08CC061F00C0E0A
:100DF00095258A6F000E96218B6F08DF8DC064F0F9
:100E00008CC063F00E0E9525A96E000E9621AA6E79
:100E1000DBEC00F0656E0F0E9525A96E000E962195
:100E2000AA6EDBEC00F0666E100E9525A96E000E22
:100E30009621AA6EDBEC00F0676E110E9525A96E67
:100E4000000E9621AA6EDBEC00F0686E74D096C09E
:100E5000AAFF95C0A9FFDBEC00F0696E010E952595
:100E6000A96E000E9621AA6EDBEC00F06A6E020EEF
:100E70009525A96E000E9621AA6EDBEC00F06B6E34
:100E8000040E95258A6F000E96218B6FBFDE8DC0F4
:100E90006DF08CC06CF0060E95258A6F000E9621C1
:100EA0008B6FB4DE8DC06FF08CC06EF0080E952590
:100EB0008A6F000E96218B6FA9DE8DC071F08CC0F9
:100EC00070F00A0E95258A6F000E96218B6F9EDEBC
:100ED0008DC073F08CC072F00C0E95258A6F000ED9
:100EE00096218B6F93DE8DC075F08CC074F00E0E62
:100EF0009525A96E000E9621AA6EDBEC00F0766EA9
:100F00000F0E9525A96E000E9621AA6EDBEC00F05F
:100F1000776E100E9525A96E000E9621AA6EDBEC59
:100F200000F0786E110E9525A96E000E9621AA6E1E
:100F3000DBEC00F0796E120049B002D0286A02D0D2
:100F4000010E286E49B202D0296A02D0010E296E24
:100F500053C026F052C025F056C027F01200020EF2
:100F6000F76EAE0EF66EBBEC00F0040E016E030ED3
:100F7000046E975138EC00F0290EC3EC00F00D0E12
:100F8000C3EC00F0975304E1246A0A0E236E1CD0D0
:100F9000010E975D04E1246A140E236E15D0020E33
:100FA000975D04E1246A320E236E0ED0030E975D26
:100FB00004E1246AC80E236E07D0040E975D04E195
:100FC000030E246EE80E236E12009B6B010E9A6FC7
:100FD0009A51985D9B51995907E3010EE2EC00F09C
:100FE0009A2B000E9B23F4E31200800E016E9CC02E
:100FF00002F0010E12EC00F0020EF76EB80EF66E63
:1010000066EF00F0800E016E30EC00F0020EF76E1D
:10101000B80EF66E66EC00F0800E016E30EC00F05B
:1010200001EE36F0EE5003E06EEC00F0FBD712005C
:10103000800E016E9DC002F0010E12EC00F0020E57
:10104000F76EB80EF66E66EC00F0010E9E5D15E1CF
:10105000800E016E9DC002F0010E12EC00F05B0EDE
:101060006EEC00F001EE57F0EE5003E06EEC00F095
:10107000FBD75D0E6EEC00F00ED0800E016E9DC0B1
:1010800002F0020E12EC00F001EE57F0EE5003E019
:101090006EEC00F0FBD71200AA6AA96ADBEC00F044
:1010A0009F6F010E9F5D40E0B06B010EB16FB26BA0
:1010B000B36BB46B020EB56FD9D9B7C0A1F0B6C08F
:1010C000A0F0010E8F6F2C0E8E6FA1C091F0A0C00A
:1010D00090F011EC06F0010E8F6F2E0E8E6FA1C0F6
:1010E00091F0A0C090F011EC06F0010E8F6F300E61
:1010F0008E6FA1C091F0A0C090F011EC06F08F6B44
:10110000C80E8E6F916B1E0E906F11EC06F08F6BF8
:10111000CA0E8E6F916B320E906F11EC06F0AA6AB8
:10112000A96A010ECBEC00F01200F29E36C0A3F0CB
:1011300035C0A2F0F28EA251375CA35138580BE2B1
:10114000010E216E19C01DF01AC01EF01BC01FF049
:101150001CC020F011D03750A25D3850A3590BE2CB
:10116000FF0E216E19C01DF01AC01EF01BC01FF02B
:101170001CC020F001D0216AA3C038F0A2C037F013
:101180001200120022C0A4F0226A1200189001EE90
:1011900036F011EE78F0200EE75204E0E6CFEEFFD5
:1011A000E82EFAD7020EF76ECE0EF66E11EC01F0B5
:1011B000EF6A28DF020E9C6F18DF030E9C6F15DFAD
:1011C000040E9C6F12DFDDDFDDDF010EA45D05E1A3
:1011D000020E976FC4DE13D011D0020EA45D05E19C
:1011E000030E976FBCDE0BD009D0030EA45D06E1A1
:1011F000030E976FB4DE020E406E01D0E4D71200EA
:10120000050EA86FA66BA76B1890188218A2ADD018
:10121000010E976FA4DE01EE36F0020EF76EDC0EC3
:10122000F66E11EC01F0EF6AEDDE020E9C6FDDDE72
:10123000030E9C6FDADE040E9C6FD7DE020EA65DF5
:1012400002E2A76B16D0FF0EA825056E066AFF0EF8
:10125000062206520CE10550A65D09E3030EA85DC7
:1012600004E3030EA85DA76F01D0A76B02D0A6050B
:10127000A76F020EAA6F050EAA5DD8B075D0FE0E3C
:10128000AA25136E146AFF0E1422A7511324AB6F04
:10129000AB51A65D03E1010EA96F01D0A96BAB5361
:1012A0000FE1AAC09DF001EE57F0020EF76EF20EAC
:1012B000F66E11EC01F0EF6AA9C09EF0B9DE51D0D4
:1012C000010EAB5D0FE1AAC09DF001EE57F0020EDA
:1012D000F76EFA0EF66E11EC01F0EF6AA9C09EF0FF
:1012E000A7DE3FD0020EAB5D0FE1AAC09DF001EE7C
:1012F00057F0030EF76E020EF66E11EC01F0EF6A76
:10130000A9C09EF095DE2DD0030EAB5D13E1AAC0FF
:101310009DF001EE57F0430EEE6E6C0EEE6E6F0E0A
:10132000EE6E630EEE6E6B0EEE6EEF6AA9C09EF06F
:101330007FDE17D0040EAB5D11E1AAC09DF001EE77
:1013400057F0420EEE6E610EEE6E630EEE6E6B0E99
:10135000EE6EEF6AA9C09EF06BDE03D0AAC09CF0CF
:1013600044DEAA2BD8A087D71892DFDE215215E0E1
:10137000010E215C0EE1FF0EA825056E066AFF0E28
:101380000622065203E10550A65D02E20001A62BEB
:1013900003D0A65301E0A6071882F3DEF3DE010EA8
:1013A000A45D2EE1020E976FAFEC07F0A65302E1A9
:1013B000B7D825D0010EA65D0BE101EE78F0030E43
:1013C000F76E0A0EF66E11EC01F0EF6ADFDE17D051
:1013D000020EA65D0BE101EE78F0030EF76E120E21
:1013E000F66E11EC01F0EF6AD1DE09D0030EA65DB6
:1013F00003E179EC11F003D0010EA56F02D0188241
:1014000005D71200AC3102E3898001D08990AC513C
:10141000E8A202D0898201D08992AC51E8A402D01E
:10142000898401D08994AC51E8A602D0898601D084
:1014300089961200898E020EE82EFED70000000069
:10144000899E280EEFEF00F0010EAD5D04E1AF6B59
:101450000A0EAE6F0AD0020EAD5D04E1AF6B1C0E3A
:10146000AE6F03D0AF6B2E0EAE6F1200B96BB86BC0
:10147000040EB05D02E3030EB06F020EB15D02E335
:10148000010EB16F040EB25D02E3030EB26F040EE3
:10149000B35D02E3030EB36F040EB45D02E3030E0B
:1014A000B46F040EB55D02E3030EB56FB051B827FB
:1014B000000EB923B151040DF3CF13F0F4CF14F0A3
:1014C0001350B8271450B923B251080DF3CF13F0BD
:1014D000F4CF14F01350B8271450B923B351200D92
:1014E000F3CF13F0F4CF14F01350B8271450B923EE
:1014F000B451800DF3CF13F0F4CF14F01350B8278C
:101500001450B923B5C014F0136AD8901436135090
:10151000B8271450B923B9C0B7F0B8C0B6F012005C
:10152000BB6BBC6BC26BC3691882010E485C03E1E4
:101530000C0EBD6F08D0020E485C03E10A0EBD6FB1
:1015400002D0030EBD6FBD05C16F18A215EF0FF0DD
:10155000010EC25D04E1976BAFEC07F004D0010E01
:10156000976FAFEC07F001EE36F0030EF76E1A0E30
:10157000F66E11EC01F0EF6A02EC08F0020E9C6FBF
:10158000F5EC07F0030E9C6FF5EC07F0040E9C6F72
:10159000F5EC07F0020EBB5D02E2BC6B16D0FF0E4D
:1015A000BD25056E066AFF0E062206520CE10550A7
:1015B000BB5D09E3030EBD5D04E3030EBD5DBC6FBF
:1015C00001D0BC6B02D0BB05BC6F020EBF6F050E15
:1015D000BF5DD8B014EF0FF0BC51BF25136E146A75
:1015E0001436020E135CC06FC051C15DD8A00CEF61
:1015F0000FF0C051BB5D03E1010EBE6F01D0BE6BA9
:10160000010E485CD8A442D0C05302E1C66B3DD065
:10161000010EC05D03E1010EC66F37D0020EC05D42
:1016200003E1020EC66F31D0030EC05D03E1030E6D
:10163000C66F2BD0040EC05D03E1040EC66F25D02B
:10164000050EC05D03E1050EC66F1FD0060EC05D1E
:1016500003E1060EC66F19D0070EC05D03E1070E49
:10166000C66F13D0080EC05D03E1080EC66F0DD023
:10167000090EC05D03E1090EC66F07D00A0EC05DFA
:1016800003E10A0EC66F01D0C66944D0020E485C61
:1016900036E1C05302E1C66B31D0010EC05D03E1FB
:1016A000010EC66F2BD0020EC05D03E1020EC66FA5
:1016B00025D0030EC05D03E1030EC66F1FD0040EDC
:1016C000C05D03E1040EC66F19D0050EC05D03E1D5
:1016D000060EC66F13D0060EC05D03E1070EC66F7F
:1016E0000DD0070EC05D03E1090EC66F07D0080ECE
:1016F000C05D03E10A0EC66F01D0C6690BD0C053AE
:1017000002E1C66B07D0010EC05D03E1010EC66F9A
:1017100001D0C669C62913E1BFC0DDF001EE99F022
:10172000420EEE6E610EEE6E630EEE6E6B0EEE6EA0
:10173000EF6ABEC0DEF0AEEC12F00BEF0FF0C65356
:10174000D8A472D0800E016EBFC002F0010E12EC60
:1017500000F0030EF76E300EF66E66EC00F0010E30
:10176000C25D010ED8A4000E176E010EC353D8A49B
:10177000000E1716010EBE5D010ED8A4000E17163E
:1017800029E0010EC45D13E1BFC0E1F00B0EE26F72
:1017900001EEBAF0030EF76E3C0EF66E11EC01F09E
:1017A000EF6A010EE36FE46FEBEC12F012D0BFC0F2
:1017B000E1F00B0EE26F01EEBAF0030EF76E440E8D
:1017C000F66E11EC01F0EF6A010EE36FE46FEBECE3
:1017D00012F028D0010E475C13E1BFC0E1F00B0E00
:1017E000E26F01EEBAF0030EF76E3C0EF66E11ECEE
:1017F00001F0EF6ABEC0E3F0E46BEBEC12F012D044
:10180000BFC0E1F00B0EE26F01EEBAF0030EF76E0F
:10181000440EF66E11EC01F0EF6ABEC0E3F0E46B2B
:10182000EBEC12F00BEF0FF0010EC65DD8A4A8D0C0
:10183000800E016EBFC002F0010E12EC00F0030E2C
:10184000F76E4E0EF66E66EC00F0010EC25D010EF4
:10185000D8A4000E176E010EC35D010ED8A4000EB1
:101860001716010EBE5D010ED8A4000E1716D8B4CF
:1018700043D0010EC55D13E1BFC0E1F00B0EE26F76
:1018800001EEBAF0030EF76E5A0EF66E11EC01F08F
:10189000EF6A010EE36FE46FEBEC12F02CD0020E56
:1018A000C55D15E1BFC0E1F00B0EE26F01EEBAF0CD
:1018B000540EEE6E650EEE6E6D0EEE6E700EEE6EEA
:1018C000EF6A010EE36FE46FEBEC12F014D0BFC0CF
:1018D000E1F00B0EE26F01EEBAF0460EEE6E6C0E0A
:1018E000EE6E6F0EEE6E770EEE6EEF6A010EE36F28
:1018F000E46FEBEC12F042D0010E485C13E1BFC084
:10190000E1F00B0EE26F01EEBAF0030EF76E5A0E25
:10191000F66E11EC01F0EF6ABEC0E3F0E46BEBECA5
:1019200012F02CD0020E485C15E1BFC0E1F00B0EA6
:10193000E26F01EEBAF0540EEE6E650EEE6E6D0EB5
:10194000EE6E700EEE6EEF6ABEC0E3F0E46BEBEC91
:1019500012F014D0BFC0E1F00B0EE26F01EEBAF04E
:10196000460EEE6E6C0EEE6E6F0EEE6E770EEE6E37
:10197000EF6ABEC0E3F0E46BEBEC12F00BEF0FF09C
:10198000020EC65DD8A44AD0800E016EBFC002F020
:10199000010E12EC00F0030EF76E640EF66E66ECAC
:1019A00000F0010EC25D010ED8A4000E176E020EEB
:1019B000C35D010ED8A4000E1716010EBE5D010E08
:1019C000D8A4000E171610E0BFC0FBF00B0EFC6F82
:1019D000C8C0FEF0C7C0FDF0010EFF6F0101006F2F
:1019E0000001CAEC13F019D04BC0F4F04AC0F3F078
:1019F000C0EC13F0F6C0CEF0F5C0CDF0BFC0FBF0E8
:101A00000B0EFC6FCEC0FEF0CDC0FDF0BEC0FFF0EF
:101A10000101006B0001CAEC13F0FDD1030EC65D9D
:101A20001AE1800E016EBFC002F0010E12EC00F050
:101A3000030EF76E700EF66E66EC00F0BFC0E7F0B6
:101A40000B0EE86F4DC0EAF04CC0E9F0BEC0EBF001
:101A50004DEC13F0E0D1040EC65D2BE1010E485CA5
:101A60000EE1800E016EBFC002F0010E12EC00F01C
:101A7000030EF76E7C0EF66E66EC00F00DD0800E55
:101A8000016EBFC002F0010E12EC00F0030EF76E03
:101A9000880EF66E66EC00F0BFC0EDF00B0EEE6F38
:101AA0004FC0F0F04EC0EFF0BEC0F1F089EC13F083
:101AB000B2D1050EC65D1AE1800E016EBFC002F004
:101AC000010E12EC00F0030EF76E940EF66E66EC4B
:101AD00000F0BFC0EDF00B0EEE6F51C0F0F050C043
:101AE000EFF0BEC0F1F089EC13F095D1060EC65DA3
:101AF0002BE1010E485C0EE1800E016EBFC002F0CA
:101B0000010E12EC00F0030EF76EA00EF66E66ECFE
:101B100000F00DD0800E016EBFC002F0010E12EC7D
:101B200000F0030EF76EAC0EF66E66EC00F0BFC070
:101B3000EDF00B0EEE6F53C0F0F052C0EFF0BEC0F0
:101B4000F1F089EC13F067D1070EC65DD8A45AD026
:101B5000800E016EBFC002F0010E12EC00F0030E09
:101B6000F76EB80EF66E66EC00F0545214E1BFC08A
:101B70000AF101010B0E0B6F01EEDBF04E0EEE6E63
:101B80006F0EEE6EEF6ABEC00CF1010E0D6F00011C
:101B90008BEC14F036D0010E545C1AE1BFC00AF190
:101BA00001010B0E0B6F01EEDBF0500EEE6E750EA9
:101BB000EE6E6C0EEE6E730EEE6E650EEE6EEF6AEE
:101BC000BEC00CF1010E0D6F00018BEC14F019D0AA
:101BD000BFC00AF101010B0E0B6F01EEDBF04C0EE2
:101BE000EE6E610EEE6E740EEE6E630EEE6E680EAD
:101BF000EE6EEF6ABEC00CF1010E0D6F00018BECB2
:101C000014F009D1080EC65DD8A45AD0800E016E1A
:101C1000BFC002F0010E12EC00F0030EF76EC40E0E
:101C2000F66E66EC00F0555214E1BFC00AF10101F6
:101C30000B0E0B6F01EEDBF04E0EEE6E6F0EEE6EC6
:101C4000EF6ABEC00CF1010E0D6F00018BEC14F0B9
:101C500036D0010E555C1AE1BFC00AF101010B0E2E
:101C60000B6F01EEDBF0500EEE6E750EEE6E6C0E2D
:101C7000EE6E730EEE6E650EEE6EEF6ABEC00CF188
:101C8000010E0D6F00018BEC14F019D0BFC00AF1EA
:101C900001010B0E0B6F01EEDBF04C0EEE6E610ED0
:101CA000EE6E740EEE6E630EEE6E680EEE6EEF6A02
:101CB000BEC00CF1010E0D6F00018BEC14F0ABD027
:101CC000090EC65DD8A46BD0010E485C0EE1800EF3
:101CD000016EBFC002F0010E12EC00F0030EF76EB1
:101CE000D00EF66E66EC00F00DD0800E016EBFC017
:101CF00002F0010E12EC00F0030EF76EDC0EF66E31
:101D000066EC00F0565214E1BFC00AF101010B0E5F
:101D10000B6F01EEDBF04E0EEE6E6F0EEE6EEF6AA5
:101D2000BEC00CF1010E0D6F00018BEC14F036D02B
:101D3000010E565C1AE1BFC00AF101010B0E0B6FD8
:101D400001EEDBF0500EEE6E750EEE6E6C0EEE6E6A
:101D5000730EEE6E650EEE6EEF6ABEC00CF1010EF4
:101D60000D6F00018BEC14F019D0BFC00AF1010116
:101D70000B0E0B6F01EEDBF04C0EEE6E610EEE6E95
:101D8000740EEE6E630EEE6E680EEE6EEF6ABEC0FF
:101D90000CF1010E0D6F00018BEC14F03CD00A0E1B
:101DA000C65D39E1800E016EBFC002F0010E12EC7B
:101DB00000F0030EF76EE80EF66E66EC00F0010E12
:101DC000575C16E1BFC00AF101010B0E0B6F01EE6B
:101DD000DBF0590EEE6E650EEE6E730EEE6EEF6A70
:101DE000BEC00CF1010E0D6F00018BEC14F013D08E
:101DF000BFC00AF101010B0E0B6F01EEDBF04E0EBE
:101E0000EE6E6F0EEE6EEF6ABEC00CF1010E0D6F3E
:101E100000018BEC14F004D0BFC09CF0F5EC07F08F
:101E2000BF2BD8A0E7EF0AF0189295EC08F0010E4E
:101E3000C25DD8A470D0010EC353D8A4000E176E93
:101E4000010EBB53D8A4000E171609E0215207E07B
:101E5000C45303E1010EC46F01D0C46B1882010E9C
:101E6000C35D010ED8A4000E176E010EBB5D010EFE
:101E7000D8A4000E171621E0010E215C0FE1010E1F
:101E8000C55D03E1020EC56F07D0020EC55D02E11C
:101E9000C56B02D0010EC56F18820FD021280DE14D
:101EA000010EC55D02E1C56B07D0C55303E1020E0B
:101EB000C56F02D0010EC56F1882020EC35D010E00
:101EC000D8A4000E176E020EBB5D010ED8A4000E42
:101ED000171620E0010E215C0DE1CB51C75DCC51FE
:101EE000C859C851CC19D8B0800A03E6C74BC82BD3
:101EF000188210D021280EE1C751C95DC851CA59B6
:101F0000C851CA19D8B0800A05E6010EC75F000E95
:101F1000C85B18820ED021520CE0010E215C05E155
:101F2000C151BB5D01E2BB2B03D0BB5301E0BB073A
:101F30001882C1EC08F0C2EC08F0010EA45DD8A430
:101F4000D5D1010EC25DD8A447D0C35305E1C4C0AA
:101F500047F0B3EC14F031D0010EC35D05E1C5C00C
:101F600048F0B3EC14F029D0020EC35D26E1C9514C
:101F7000C75DCA51C859C851CA19D8B0800A04E609
:101F8000CAC0C8F0C9C0C7F0C751CB5DC851CC5951
:101F9000C851CC19D8B0800A04E6CCC0C8F0CBC078
:101FA000C7F0C8C0F8F0C7C0F7F0C5EC13F0FAC02E
:101FB0004BF0F9C04AF0B3EC14F0010E976FAFECA0
:101FC00007F03C0EE2EC00F0010E976FAFEC07F06B
:101FD000C26BC36918828AD1010E485CD8A442D072
:101FE000BB5302E1C66B3DD0010EBB5D03E1010EA8
:101FF000C66F37D0020EBB5D03E1020EC66F31D053
:10200000030EBB5D03E1030EC66F2BD0040EBB5D58
:1020100003E1040EC66F25D0050EBB5D03E1050E7E
:10202000C66F1FD0060EBB5D03E1060EC66F19D04A
:10203000070EBB5D03E1070EC66F13D0080EBB5D34
:1020400003E1080EC66F0DD0090EBB5D03E1090E5A
:10205000C66F07D00A0EBB5D03E10A0EC66F01D042
:10206000C66944D0020E485C36E1BB5302E1C66B40
:1020700031D0010EBB5D03E1010EC66F2BD0020E05
:10208000BB5D03E1020EC66F25D0030EBB5D03E10D
:10209000030EC66F1FD0040EBB5D03E1040EC66FB6
:1020A00019D0050EBB5D03E1060EC66F13D0060EF8
:1020B000BB5D03E1070EC66F0DD0070EBB5D03E1EC
:1020C000090EC66F07D0080EBB5D03E10A0EC66F8E
:1020D00001D0C6690BD0BB5302E1C66B07D0010E1D
:1020E000BB5D03E1010EC66F01D0C669C65312E1A4
:1020F000010E976FAFEC07F03C0EE2EC00F0010E22
:10210000976FAFEC07F0010EC26FC36B47C0C4F00E
:102110001882ECD0010EC65D12E1010E976FAFEC94
:1021200007F03C0EE2EC00F0010E976FAFEC07F009
:10213000010EC26FC36F48C0C5F01882D7D0020E1F
:10214000C65DD8A453D0485210E1030E976FAFEC90
:1021500007F001EE78F0030EF76EF40EF66E11EC58
:1021600001F0EF6AC6EC08F040D0010E976FAFECBB
:1021700007F03C0EE2EC00F0010E976FAFEC07F0B9
:10218000010EC26F020EC36F4BC0F4F04AC0F3F0F1
:10219000C0EC13F0F6C0C8F0F5C0C7F048C005F1B8
:1021A0000101076BC90E066F096BCB0E086F0001AA
:1021B00067EC14F0C951C75DCA51C859C851CA1952
:1021C000D8B0800A04E6CAC0C8F0C9C0C7F0C75179
:1021D000CB5DC851CC59C851CC19D8B0800A04E69F
:1021E000CCC0C8F0CBC0C7F0188280D0C62908E1A7
:1021F000020E976FAFEC07F0010EBA6F79D076D070
:10220000010E485C0AE1020E976FAFEC07F0C6C002
:102210000FF1C4EC14F0188269D0020E485CD8A407
:1022200055D0030EC65D0BE1020E976FAFEC07F0C1
:102230000101030E0F6F0001C4EC14F045D0040E31
:10224000C65D0BE1020E976FAFEC07F00101040EC3
:102250000F6F0001C4EC14F037D0060EC65D0BE121
:10226000020E976FAFEC07F00101060E0F6F000131
:10227000C4EC14F029D0070EC65D0BE1020E976F77
:10228000AFEC07F00101070E0F6F0001C4EC14F072
:102290001BD0090EC65D0BE1020E976FAFEC07F085
:1022A0000101090E0F6F0001C4EC14F00DD00A0EED
:1022B000C65D0AE1020E976FAFEC07F001010A0E4E
:1022C0000F6F0001C4EC14F0188210D0020E976F4B
:1022D000AFEC07F001EE78F0040EF76E000EF66E2C
:1022E00011EC01F0EF6AC6EC08F0188295EF0AF0E5
:1022F0001200030ED16FD06BD36BD469188218A271
:1023000076D001EE36F0040EF76E0A0EF66E11EC82
:1023100001F0EF6A02EC08F0020E9C6FF5EC07F09A
:10232000030E9C6FF5EC07F0040E9C6FF5EC07F0C4
:10233000D05303E1010ED26F01D0D26B800E016E3B
:10234000C00E30EC00F0040EF76E200EF66E66EC58
:1023500000F0020EED6F0B0EEE6F3BC0F0F03AC0D6
:10236000EFF0D2C0F1F0D5D9010ED05D03E1010E3E
:10237000D26F01D0D26B800E016E940E30EC00F063
:10238000040EF76E2C0EF66E66EC00F0030EE76F8F
:102390000B0EE86F3DC0EAF03CC0E9F0D2C0EBF0B4
:1023A0007CD9020ED05D12E1040E9D6F01EE57F054
:1023B000420EEE6E610EEE6E630EEE6E6B0EEE6E04
:1023C000EF6A010E9E6F18EC08F010D0040E9D6F9E
:1023D00001EE57F0420EEE6E610EEE6E630EEE6E83
:1023E0006B0EEE6EEF6A9E6B18EC08F0189295EC8F
:1023F00008F02152D8B44BD0D35317E1010E215C21
:102400000FE1FF0ED125056E066AFF0E0622065269
:1024100003E10550D05D03E20001D02B188204D007
:10242000D05302E0D007188232D0D45317E1010E06
:10243000215C09E1010E3B5C2C0ED8B43A5C02E24F
:102440003A4A3B2A09D03B5203E10B0E3A5C03E3C4
:102450003A06000E3B5A0001188219D0010ED45DD5
:1024600016E1010E215C09E1070E3D5CD00ED8B4E7
:102470003C5C02E23C4A3D2A09D03D5203E10B0E8E
:102480003C5C03E33C06000E3D5A00011882C1EC9F
:1024900008F0C2EC08F0010EA45D39E1020E976F5E
:1024A000AFEC07F0D35317E1020ED05D04E1010E4B
:1024B000CF6F2ED00FD0010ED36FD0C0D4F0D05339
:1024C00005E13BC0D6F03AC0D5F004D03DC0D6F00F
:1024D0003CC0D5F01CD0D4530CE1D86B3A0ED76F6A
:1024E000DA6B0A0ED96F010EDC6F2C0EDB6F23D86E
:1024F0000BD0D86B3C0ED76FDA6B0A0ED96F070E74
:10250000DC6FD00EDB6F17D804D8D36BD469F7D645
:1025100012008F6BC80E8E6F3BC091F03AC090F0E6
:1025200011EC06F08F6BCA0E8E6F3DC091F03CC06F
:1025300090F011EF06F0D951D75DDA51D85904E285
:10254000DAC0D8F0D9C0D7F0D751DB5DD851DC590B
:1025500004E2DCC0D8F0DBC0D7F01200DDC09CF094
:10256000F5EC07F001EE99F0000EEE5202E0E83EC5
:10257000FCD7DF6F140EDF5D02E3130EDF6FDF5158
:102580001408E06F800E016EDDC002F0E05112EC25
:1025900000F001EE99F0EE5003E06EEC00F0FBD796
:1025A000010EDE5D17E1020EE05D0AE3800E016EB2
:1025B000DDC002F0E00512EC00F05B0E6EEC00F006
:1025C000800E016EDDC002F0140E12EC00F05D0E04
:1025D0006EEC00F0120001EEBAF0000EEE5202E0D6
:1025E000E83EFCD7E56F090EE55D02E3080EE56FF6
:1025F000146AE2C013F0134A142A166A080E156E04
:10260000E551155E000E165A13501524E66FE1C011
:102610001DF1E2C01EF1B3EC17F0010EE35D2EE1F7
:10262000010EE45D16E1800E016EE1C002F0E605E8
:1026300012EC00F0280E6EEC00F0800E016EE1C08E
:1026400002F0090EE22512EC00F0290E6EEC00F00B
:1026500015D0800E016EE1C002F0E60512EC00F02C
:102660005B0E6EEC00F0800E016EE1C002F0090E10
:10267000E22512EC00F05D0E6EEC00F0800E016EB3
:10268000E1C002F0E65112EC00F001EEBAF0EE50BB
:1026900003E06EEC00F0FBD71200146AE8C013F000
:1026A000134A142A166A080E156E050E155E000EE2
:1026B000165A13501524EC6FE7C01DF1E8C01EF147
:1026C000B3EC17F0010EEB5D15E1800E016EE7C073
:1026D00002F0EC0512EC00F05B0E6EEC00F0800EE8
:1026E000016EE7C002F0090EE82512EC00F05D0E65
:1026F0006EEC00F0800E016EE7C002F0EC5112ECBF
:1027000000F0050E046EEAC00EF0E9C00DF03AEFDD
:1027100000F0146AEEC013F0134A142A166A080E69
:10272000156E050E155E000E165A13501524F26F25
:10273000EDC01DF1EEC01EF1B3EC17F0010EF15D1E
:1027400015E1800E016EEDC002F0F20512EC00F012
:102750005B0E6EEC00F0800E016EEDC002F0090E13
:10276000EE2512EC00F05D0E6EEC00F0EDC015F100
:10277000F2C016F1F0C018F1EFC017F173EF17F0C7
:10278000F4C0F6F0F3C0F5F01200F8C0FAF0F7C0AC
:10279000F9F01200FE51E8AE05D00101050E016FFF
:1027A000000103D00101040E016F090E0101015D5A
:1027B000000103E30101080E016F0001146AFCC06F
:1027C00013F0134A142A166A080E156E01010151FE
:1027D000155E000E165A13501524026FFBC01DF132
:1027E000FCC01EF10001B3EC17F0010EFF5D34E1F7
:1027F000010E0101005D000118E1800E016EFBC0B9
:1028000002F00101020512EC00F0280E6EEC00F05F
:10281000800E016EFBC002F0090E0001FC2512ECD7
:1028200000F0290E6EEC00F017D0800E016EFBC098
:1028300002F00101020512EC00F05B0E6EEC00F0FC
:10284000800E016EFBC002F0090E0001FC2512ECA7
:1028500000F05D0E6EEC00F0FE51E8AE26D0800E6A
:10286000016EFBC002F00101025112EC00F02D0ECE
:102870006EEC00F00001FD5100080101036F000E35
:102880000001FE550101046F800E016EFBC002F0D5
:10289000022912EC00F0040E046E04C10EF003C114
:1028A0000DF03AEC00F0000110D0800E016EFBC07C
:1028B00002F00101025112EC00F0040E046EFEC0A1
:1028C0000EF0FDC00DF03AEC00F000011200010E18
:1028D0000101055D000109E10101076B066B010EB5
:1028E000096FF40E086F000115D0020E0101055D9D
:1028F00000010AE10101FF0E076FCE0E066F096BA2
:10290000960E086F000105D00101076B066B096B7D
:10291000086B0001120001010E6B010E0C5D010E2F
:10292000D8A4000E176E010E0D5D010ED8A4000E86
:102930001716000103E00101010E0E6F00010AC12C
:10294000E1F00BC1E2F001EEBAF011EEDBF0200E87
:10295000E75204E0E6CFEEFFE82EFAD7EF6A0EC1A9
:10296000E3F0E46B38D653EC17F00101010E116F60
:102970000001C6D80101020E116F0001C1D801018A
:10298000030E116F0001BCD00101106B0F53000149
:1029900009E10101470E1F6F0001C3EC17F020C1D0
:1029A00010F1A7D0010E01010F5D000109E1010145
:1029B000480E226F000126EC18F023C110F199D0C7
:1029C000020E01010F5D000111E10101266B4A0EAB
:1029D000256F286B276B2A6929692C6B010E2B6FD9
:1029E0000001A5EC18F02DC110F183D0030E0101F8
:1029F0000F5D000111E10101266B4C0E256F286B64
:102A0000276B2A6929692C6B010E2B6F0001A5EC3D
:102A100018F02DC110F16DD0040E01010F5D000101
:102A20000DE1010E485C09E10101316B4E0E306F82
:102A300000013CEC19F032C110F15BD0050E010130
:102A40000F5D00010DE1010E485C09E10101316BF0
:102A5000500E306F00013CEC19F032C110F149D03A
:102A6000060E01010F5D00010DE1010E485C09E158
:102A70000101316B520E306F00013CEC19F032C194
:102A800010F137D0070E01010F5D000109E10101CE
:102A9000540E226F000126EC18F023C110F129D04A
:102AA000080E01010F5D000109E10101550E226FC1
:102AB000000126EC18F023C110F11BD0090E010112
:102AC0000F5D000109E10101560E226F000126ECA5
:102AD00018F023C110F10DD00A0E01010F5D0001A5
:102AE00008E10101570E1F6F0001C3EC17F020C170
:102AF00010F1010E0101105D000101E134DF12004F
:102B000011C1ADF024EC0AF0AFC013F1AEC012F168
:102B1000010E0101115D0001D8A495D013C1AAFFD7
:102B200012C1A9FF4750CBEC00F0010E01011225A4
:102B3000A96E000E1321AA6E4850CBEC00F0020ED5
:102B400001011225A96E000E1321AA6E4950CBEC8B
:102B500000F0040E0101122500018E6F000E01012C
:102B6000132100018F6F4BC091F04AC090F011EC1F
:102B700006F0060E0101122500018E6F000E010104
:102B8000132100018F6F4DC091F04CC090F011ECFB
:102B900006F0080E0101122500018E6F000E0101E2
:102BA000132100018F6F4FC091F04EC090F011ECD7
:102BB00006F00A0E0101122500018E6F000E0101C0
:102BC000132100018F6F51C091F050C090F011ECB3
:102BD00006F00C0E0101122500018E6F000E01019E
:102BE000132100018F6F53C091F052C090F011EC8F
:102BF00006F00E0E01011225A96E000E1321AA6E19
:102C00005450CBEC00F00F0E01011225A96E000EFE
:102C10001321AA6E5550CBEC00F0100E01011225C5
:102C2000A96E000E1321AA6E5650CBEC00F0110EC7
:102C300001011225A96E000E1321AA6E5750CBEC8C
:102C400000F000012FD1020E0101115D0001D8A496
:102C500095D013C1AAFF12C1A9FF5850CBEC00F0C8
:102C6000010E01011225A96E000E1321AA6E595002
:102C7000CBEC00F0020E01011225A96E000E13210B
:102C8000AA6E5A50CBEC00F0040E0101122500018F
:102C90008E6F000E0101132100018F6F5CC091F057
:102CA0005BC090F011EC06F0060E01011225000148
:102CB0008E6F000E0101132100018F6F5EC091F035
:102CC0005DC090F011EC06F0080E01011225000124
:102CD0008E6F000E0101132100018F6F60C091F013
:102CE0005FC090F011EC06F00A0E01011225000100
:102CF0008E6F000E0101132100018F6F62C091F0F1
:102D000061C090F011EC06F00C0E010112250001DB
:102D10008E6F000E0101132100018F6F64C091F0CE
:102D200063C090F011EC06F00E0E01011225A96EA1
:102D3000000E1321AA6E6550CBEC00F00F0E0101BE
:102D40001225A96E000E1321AA6E6650CBEC00F07E
:102D5000100E01011225A96E000E1321AA6E6750F4
:102D6000CBEC00F0110E01011225A96E000E13210B
:102D7000AA6E6850CBEC00F0000193D013C1AAFFFB
:102D800012C1A9FF6950CBEC00F0010E0101122520
:102D9000A96E000E1321AA6E6A50CBEC00F0020E51
:102DA00001011225A96E000E1321AA6E6B50CBEC07
:102DB00000F0040E0101122500018E6F000E0101CA
:102DC000132100018F6F6DC091F06CC090F011EC79
:102DD00006F0060E0101122500018E6F000E0101A2
:102DE000132100018F6F6FC091F06EC090F011EC55
:102DF00006F0080E0101122500018E6F000E010180
:102E0000132100018F6F71C091F070C090F011EC30
:102E100006F00A0E0101122500018E6F000E01015D
:102E2000132100018F6F73C091F072C090F011EC0C
:102E300006F00C0E0101122500018E6F000E01013B
:102E4000132100018F6F75C091F074C090F011ECE8
:102E500006F00E0E01011225A96E000E1321AA6EB6
:102E60007650CBEC00F00F0E01011225A96E000E7A
:102E70001321AA6E7750CBEC00F0100E0101122541
:102E8000A96E000E1321AA6E7850CBEC00F0110E43
:102E900001011225A96E000E1321AA6E7950CBEC08
:102EA00000F0000112000101146B010E285C00010A
:102EB00004E101011481000102D00101149100011B
:102EC000010E295C04E101011483000102D001011B
:102ED0001493000114C149F026C053F025C052F0EC
:102EE00027C056F0120018C10AF017C109F00C6A89
:102EF0003C0E0B6EFAEC00F00101196F0AC01AF1DA
:102F000018C10AF017C109F00C6A3C0E0B6EFAECFE
:102F100000F00EC01CF10DC01BF1800E016E15C13A
:102F200002F00101165112EC00F0020E046E1AC1FB
:102F30000EF019C10DF03AEC00F03A0E6EEC00F014
:102F4000800E016E15C102F0030E0101162512EC70
:102F500000F0020E046E1CC10EF01BC10DF03AEC25
:102F600000F000011200800E016E1DC102F001018F
:102F70001E5112EC00F0040EF76E380EF66E66EC81
:102F800000F0000112001FC121F1188218A238D0F0
:102F9000010E976FAFEC07F001EE36F0040EF76EFE
:102FA000440EF66E11EC01F0EF6A02EC08F0020E2E
:102FB0009C6FF5EC07F0030E9C6FF5EC07F0040E28
:102FC0009C6FF5EC07F0010E0101215D00010CE1A1
:102FD000800E016E940E30EC00F0040EF76E580E69
:102FE000F66E66EC00F00BD0800E016E940E30ECA5
:102FF00000F0040EF76E6E0EF66E66EC00F018929E
:1030000095EC08F021520EE0010E0101215D000156
:1030100004E10101216B000103D00101010E216FC8
:1030200000011882C1EC08F0C2EC08F0010EA45DAA
:103030000BE1020E976FAFEC07F021C11FF1010108
:10304000010E206F000101D0A1D7120022C124F18E
:10305000188218A24DD0010E976FAFEC07F001EE69
:1030600036F0040EF76E840EF66E11EC01F0EF6A86
:1030700002EC08F0020E9C6FF5EC07F0030E9C6F5B
:10308000F5EC07F0040E9C6FF5EC07F001012453FA
:1030900000010CE1800E016E940E30EC00F0040E85
:1030A000F76E980EF66E66EC00F021D0010E01016D
:1030B000245D00010CE1800E016E940E30EC00F0F6
:1030C000040EF76EAE0EF66E66EC00F010D0020E37
:1030D0000101245D00010BE1800E016E940E30ECC5
:1030E00000F0040EF76EC40EF66E66EC00F0189257
:1030F00095EC08F0010E215C0AE1020E0101245D4D
:10310000000102E20101242B000118820AD02128CB
:1031100008E101012453000102E00101240700013C
:103120001882C1EC08F0C2EC08F0010EA45D0BE1BE
:10313000020E976FAFEC07F024C122F10101010EDE
:10314000236F000101D085D7120026C12FF125C1C0
:103150002EF1188218A235D0010E976FAFEC07F050
:1031600001EE36F0040EF76EDA0EF66E11EC01F099
:10317000EF6A02EC08F0020E9C6FF5EC07F0030E0C
:103180009C6FF5EC07F0040E9C6FF5EC07F0800ED9
:10319000016E940E30EC00F0040EF76EEE0EF66E3B
:1031A00066EC00F0050E046E2FC10EF02EC10DF07E
:1031B0003AEC00F0040EF76EF80EF66E66EC00F0D6
:1031C000189295EC08F0010E215C15E101012B51DC
:1031D0002E25056E2C512F21066E0550295D0650B7
:1031E0002A59000105E301012B512E272C512F23D1
:1031F000000118822BD0212829E101012B5127251C
:10320000056E2C512821066E000E076A0722086AF7
:103210000852000116E1075014E1065001012F5D2C
:1032200000010FE305E1055001012E5D000109E3F6
:1032300001012B512E5D2E6F2C512F592F6F000144
:1032400004D028C12FF127C12EF11882C1EC08F05B
:10325000C2EC08F0010EA45D0DE1020E976FAFEC19
:1032600007F02FC126F12EC125F10101010E2D6FAE
:10327000000101D06FD7120031C10AF030C109F04E
:103280000C6A3C0E0B6EFAEC00F00101336F31C199
:103290000AF030C109F00C6A3C0E0B6EFAEC00F03B
:1032A0000DC034F10101356B1882000118A274D0F1
:1032B000010E976FAFEC07F001EE36F0050EF76EDA
:1032C000020EF66E11EC01F0EF6A02EC08F0020E4D
:1032D0009C6FF5EC07F0030E9C6FF5EC07F0040E05
:1032E0009C6FF5EC07F00101355300012BE1800ED6
:1032F000016E940E30EC00F0200E6EEC00F05B0ED0
:103300006EEC00F0020E046E0101335138EC00F057
:103310005D0E6EEC00F0200E6EEC00F03A0E6EECDE
:1033200000F0200E6EEC00F0020E046E010134512C
:1033300038EC00F0050EF76E160EF66E66EC00F037
:10334000000128D0800E016E940E30EC00F0200EAB
:103350006EEC00F06EEC00F0020E046E01013351D1
:1033600038EC00F0200E6EEC00F03A0E6EEC00F03F
:10337000200E6EEC00F05B0E6EEC00F0020E046EA0
:103380000101345138EC00F0040EF76EF80EF66EC1
:1033900066EC00F00001189295EC08F0010E215C3B
:1033A00017E101013553000109E1630E0101335DAD
:1033B000000102E20101332B000108D03B0E0101A4
:1033C000345D000102E20101342B0001188216D0A5
:1033D000212814E101013553000108E101013353B3
:1033E000000102E001013307000107D0010134535D
:1033F000000102E00101340700011882C1EC08F06D
:10340000C2EC08F0010EA45D1FE1020E976FAFEC55
:1034100007F001013553000106E10101010E356F8E
:103420001882000111D0010133513C0DF3CF13F08C
:10343000F4CF14F034511324306F000E1420316F88
:0C344000010E326F000101D030D71200E5
:020000040030CA
:03000100081F1EB7
:020005008181F7
:060008000FC00FE00F40E5
:00000001FF
