:020000040000FA
:10000000000000005FEF09F07AEF09F0800E016E4A
:10001000FE0EE1D8010EDFD8750E0E6E300E04D143
:10002000016A018E1A6E1A52D8A41A06FE0ED3D88F
:10003000025202E0022C02D0800E0ED00250020AC0
:1000400002E1C00E09D00250030A02E1940E04D06E
:100050000250040A02E1D40E026E1A500224BBD0F0
:10006000016A018E1A6EFE0EB6D81A50B4D0046A18
:10007000136E146A00960450D8B40086040E036E02
:10008000143805D8145003D8133801D813500F0B67
:10009000F60FD8B0070F0A0F22D030D803D0046A69
:1000A000136E146A00960450D8B40086050E036ED1
:1000B000270E126E100E0CD8030E126EE80E08D822
:1000C000126A640E05D8126A0A0E02D8135007D0BD
:1000D000116E14500E6E13500D6EB3D80D500D6E80
:1000E000034E0096045002E0035C07E20D50D8A4D2
:1000F000009600B602D0300F6ED0120014AE12007F
:1001000013501410D8B41200131E141E134A142ACC
:100110002D0E61D0A66AA68E0900F55002E002D825
:10012000FBD71200186E899E899C929E929CF00EBD
:100130009216185000B21ED03A0E0E6E980E74D859
:10014000330E176E29D8130E0E6E880E6DD824D874
:10015000640E69D821D8640E66D8220E176E1CD89A
:10016000280E07D80C0E05D8060E03D800821850AA
:1001700001D00080176E00A009D0899C03080AE313
:1001800009D8070E0E6ED00E4FD812000080FE0860
:1001900014E0898C173A00A00090898EF00E80162A
:1001A00017500F0B8012000000D0899E173A0000F4
:1001B00000D000B0F1D7320E36D818501200A66A1F
:1001C000A68E0900F55002E002D8FBD712009EA8C7
:1001D000FED7AD6E120001BEA5D701B4F8D7A86E48
:1001E000A66AA684550EA76EAA0EA76EA682A6B210
:1001F000FED7A694A94AAA2AA68E1200A96EA66ABC
:10020000A680A850A94AAA2AA68E1200126A116EC8
:10021000FF0E1126122200D0D8A01200030E0E6E7F
:10022000E60E02D8F5D70E6AFD0F0D6E01D00D0651
:10023000000000D0E86A0E5AFAE212000E6A126A52
:10024000116E146A136A100EF36E0E3413361436E0
:100250001150135C1250145805E31150135E1250E4
:10026000145AD8800D360E36F32EEFD70D501200EB
:1002700010C022F00FC021F00EC020F00DC01FF002
:1002800021501302F3CF0FF0F4CF10F020501402DE
:10029000F3500F26F45010221F501502F3500F2672
:1002A000F450102222501302F35010262150140251
:1002B000F350102620501502F35010261F5016023E
:1002C000F35010261F501302F3CF0DF0F4CF0EF0B1
:1002D00020501302F3500E26F4500F22000E10226D
:1002E0001F501402F3500E26F4500F22000E10225D
:1002F0001200A66AA68E0900F55002E0EE6EFBD74A
:10030000120044454255473A20436C656172696E5C
:100310006720627574746F6E2073746174652061F8
:100320006674657220737461727475700000537422
:10033000617274757020636865636B202D20425F65
:100340004B65794576656E743D0049525249535963
:1003500053205374617274757020436F6D706C65B7
:100360007465000044454255473A20466163746F06
:1003700072792064656661756C7473202D207472C7
:100380006967676572696E67207061747465726E03
:100390002032000044454255473A204D696772615A
:1003A00074696F6E202D2074726967676572696E5B
:1003B00067207061747465726E2034004445425544
:1003C000473A20526573746F7265202D20747269EC
:1003D00067676572696E67207061747465726E20FC
:1003E000350044454255473A204E6F726D616C208E
:1003F00073746172747570202D20747269676765FB
:1004000072696E6720666C657869626C65207061E0
:10041000747465726E0044454255473A204D656ECE
:10042000752074696D656F75742070617474657280
:100430006E0044454255473A204C6F6E67207072FB
:10044000657373207061747465726E004445425523
:10045000473A20556E6B6E6F776E207061747465CD
:10046000726E202D2073696C656E74004445425590
:10047000473A20425F426565705061747465726EE0
:100480002073657420746F3A20003D3D3D20454542
:1004900050524F4D20434F4E4649472044554D50F2
:1004A000203D3D3D000053595354454D20434F4E90
:1004B0004649473A00002020575F55495F54696D0F
:1004C000656F757453203D200000207365636F6E67
:1004D000647300002020575F55495F50756C736549
:1004E0004D7320203D2000002020425F45455F469F
:1004F0006C616773202020203D202400494E505518
:1005000054203120434F4E4649473A002020425F55
:1005100049315F456E61626C656420203D200000BA
:100520002020425F49315F53656E736F7254202003
:100530003D2000002020425F49315F466C6F774DBF
:100540006F6465203D2000002020575F49315F53D4
:1005500063616C65342020203D2000002020575F1F
:1005600049315F5363616C65323020203D200000CB
:100570002020575F49315F42505F486967682020FB
:100580003D2000002020575F49315F42505F504CB2
:10059000502020203D2000002020575F49315F423D
:1005A000505F534C502020203D2000002020425F0F
:1005B00049315F526C794869676820203D2000000E
:1005C0002020425F49315F526C79504C50202020EE
:1005D0003D2000002020425F49315F526C79534C2E
:1005E000502020203D2000002020425F49315F4400
:1005F0006973706C617920203D200000494E505590
:1006000054203220434F4E4649473A002020425F53
:1006100049325F456E61626C656420203D200000B8
:100620002020425F49325F53656E736F7254202001
:100630003D2000002020425F49325F466C6F774DBD
:100640006F6465203D2000002020575F49325F53D2
:1006500063616C65342020203D2000002020575F1E
:1006600049325F5363616C65323020203D200000C9
:100670002020575F49325F42505F486967682020F9
:100680003D2000002020575F49325F42505F504CB0
:10069000502020203D2000002020575F49325F423B
:1006A000505F534C502020203D2000002020425F0E
:1006B00049325F526C794869676820203D2000000C
:1006C0002020425F49325F526C79504C50202020EC
:1006D0003D2000002020425F49325F526C79534C2C
:1006E000502020203D2000002020425F49325F44FE
:1006F0006973706C617920203D200000494E50558F
:1007000054203320434F4E4649473A002020425F51
:1007100049335F456E61626C656420203D200000B6
:100720002020425F49335F53656E736F72542020FF
:100730003D2000002020425F49335F466C6F774DBB
:100740006F6465203D2000002020575F49335F53D0
:1007500063616C65342020203D2000002020575F1D
:1007600049335F5363616C65323020203D200000C7
:100770002020575F49335F42505F486967682020F7
:100780003D2000002020575F49335F42505F504CAE
:10079000502020203D2000002020575F49335F4239
:1007A000505F534C502020203D2000002020425F0D
:1007B00049335F526C794869676820203D2000000A
:1007C0002020425F49335F526C79504C50202020EA
:1007D0003D2000002020425F49335F526C79534C2A
:1007E000502020203D2000002020425F49335F44FC
:1007F0006973706C617920203D2000003D3D3D20F3
:10080000454E4420434F4E4649472044554D5020C5
:100810003D3D3D004F5054494F4E53202020202055
:10082000202020202020202000004D61696E204DD6
:10083000656E75005365747570204D656E750000AA
:100840005574696C697479204D656E750000444576
:100850004255473A204265666F726520565F536580
:100860007475704D656E75202D20425F53657475EB
:100870007053656C3D0044454255473A20416674CB
:10088000657220565F53657475704D656E75202DC9
:1008900020425F536574757053656C3D000055547C
:1008A000494C4954590049525249535953204D41DA
:1008B000494E202020202020202000002020202021
:1008C0002020202020202020202020202020202028
:1008D000000044454255473A2056657279206C6FB6
:1008E0006E672070726573732064657465637465E8
:1008F00064202D2065786974696E67206D656E755A
:10090000000044454255473A20505F4765744B65A7
:10091000794576742072657475726E696E673A20D7
:100920000000534554555020202020202020202016
:1009300020202020202000005B496E70757420313B
:100940005D2020200000496E707574203120202029
:100950002000507265737375726500005B496E709C
:10096000757420325D2020200000496E707574205F
:100970003220202020005B496E70757420335D208A
:1009800020200000496E7075742033202020200044
:100990002028535455422920202020202000575F32
:1009A00055495F54696D656F75745300575F5549BC
:1009B0005F50756C73654D730000425F45455F463F
:1009C0006C6167730000505F53617665496E4366E2
:1009D000673A20536176696E6720496E707574209E
:1009E00000002020425F49315F53656E736F72547F
:1009F000203D2000454550524F4D20534156453A29
:100A000020496E707574200020436F6E66696775AB
:100A1000726174696F6E0000425F49315F456E61BB
:100A2000626C65640000425F49315F53656E736FAD
:100A300072540000425F49315F466C6F774D6F64BE
:100A40006500575F49315F5363616C653400575FE0
:100A500049315F5363616C6532300000575F493143
:100A60005F42505F486967680000575F49315F42E5
:100A7000505F504C5000575F49315F42505F534CBC
:100A80005000425F49315F526C79486967680000E5
:100A9000425F49315F526C79504C5000425F49319E
:100AA0005F526C79534C5000425F49315F44697327
:100AB000706C61790000425F49325F456E61626C23
:100AC00065640000425F49325F53656E736F725414
:100AD0000000425F49325F466C6F774D6F6465007E
:100AE000575F49325F5363616C653400575F493229
:100AF0005F5363616C6532300000575F49325F427B
:100B0000505F486967680000575F49325F42505F35
:100B1000504C5000575F49325F42505F534C500079
:100B2000425F49325F526C79486967680000425FF2
:100B300049325F526C79504C5000425F49325F52EB
:100B40006C79534C5000425F49325F446973706C5A
:100B500061790000425F49335F456E61626C656494
:100B60000000425F49335F53656E736F725400003B
:100B7000425F49335F466C6F774D6F646500575F26
:100B800049335F5363616C653400575F49335F538A
:100B900063616C6532300000575F49335F42505FDC
:100BA000486967680000575F49335F42505F504CA7
:100BB0005000575F49335F42505F534C5000425FD3
:100BC00049335F526C79486967680000425F493376
:100BD0005F526C79504C5000425F49335F526C79E0
:100BE000534C5000425F49335F446973706C6179C4
:100BF000000020626C6F636B2066696E616C697ABD
:100C00006564207375636365737366756C6C7900D6
:100C1000454550524F4D204552524F523A20496E51
:100C200070757420000020626C6F636B2066696EC3
:100C3000616C697A6174696F6E206661696C656464
:100C4000000020636F6E66696775726174696F6E0C
:100C50002073617665206661696C65640000434CB1
:100C60004F434B2020202020202020202020202007
:100C70002020000054696D656F75742020200000ED
:100C800050756C736520202020200000444542559B
:100C9000473A20505F45455F5772697465426C6BF7
:100CA00020656E747279202D20426C6F636B4164F5
:100CB00064723D0044454255473A20577269746951
:100CC0006E67206D616769632062797465004445D1
:100CD0004255473A204D61676963207772697465B0
:100CE000206661696C65642C207374617475733D52
:100CF000000044454255473A2057726974696E674F
:100D00002076657273696F6E206279746500444560
:100D10004255473A2056657273696F6E2077726943
:100D20007465206661696C65642C207374617475E8
:100D3000733D000044454255473A2043616C63755A
:100D40006C6174696E6720636865636B73756D00B1
:100D500044454255473A2043616C63756C61746544
:100D60006420636865636B73756D3D00444542554F
:100D7000473A20436865636B73756D2077726974B9
:100D800065206661696C65642C2073746174757389
:100D90003D0044454255473A20426C6F636B2066E4
:100DA000696E616C697A6174696F6E2073756363D3
:100DB00065737366756C000044454255473A205090
:100DC0005F45455F436F7079426C6B202D205372F5
:100DD000633D000044454255473A20436F707920F7
:100DE0006661696C656420617420627974652000B5
:100DF000207374617475733D000044454255473A51
:100E000020426C6F636B20636F707920636F6D702D
:100E10006C65746564207375636365737366756C64
:100E20006C790000454550524F4D20534156453A8C
:100E3000200044454255473A20565F496E7075740C
:100E40004D656E7520656E747279202D20496E7027
:100E50007574200044454255473A204C6F616465E3
:100E60006420575F5363616C65343D0020575F53C6
:100E700063616C6532303D00466C6F772073656E40
:100E8000736F72202D20547970653A0020556E6979
:100E900074733A00494E5055542000002020202001
:100EA00020202020202020200000456E61626C65FB
:100EB000202020200000456E61626C65640044695A
:100EC0007361626C6564000053656E736F722020FD
:100ED000202000005363616C652034206D610000A8
:100EE0005363616C6532306D61200000486967684A
:100EF000204250202020000048696768205442505A
:100F000020200000504C5042502020202020000083
:100F1000534C504250202020202000004C6F77205E
:100F20005442502020200000526C792048696768A4
:100F300020200000526C7920504C502020200000CE
:100F4000526C7920534C502020200000526C7920A4
:100F50004C6F772020200000446973706C61792009
:100F600020200000547970652020202020200000DF
:100F7000416E616C6F6700004469676974616C0061
:100F8000556E69747320202020200000416374692D
:100F90007665202020200000416374204C6F77008C
:100FA000416374204869676800004C462042502025
:100FB0002020202000004C462052656C61792020C2
:100FC00000004E6F7420557365640000444542551F
:100FD000473A20465F454E41424C452073656C655B
:100FE00063746564202D2063616C6C696E672050AA
:100FF0005F45646974456E61626C65496E6C696ECB
:10100000650044454255473A20505F456469744540
:101010006E61626C65496E6C696E6520726574758F
:10102000726E6564200044454255473A2056616C13
:101030007565206368616E676564202D2075706436
:101040006174696E6720676C6F62616C7300444500
:101050004255473A204E6F206368616E6765206491
:1010600065746563746564004265666F72652065CA
:101070006469743A20425F53656E736F72543D0029
:10108000456469746F722072657475726E65643A36
:1010900020425F4E657756616C75653D0000557066
:1010A000646174656420425F53656E736F7254208F
:1010B000746F3A2000005570646174656420425F6B
:1010C00049315F53656E736F725420746F3A20001C
:1010D00043616C6C656420505F53617665496E4373
:1010E000666728004E6F206368616E6765206465DF
:1010F000746563746564000044454255473A204274
:1011000065666F72652065646974202D20575F5392
:1011100063616C65343D000020495F576F726B3D21
:10112000000044454255473A204564697420726581
:101130007475726E6564202D20495F576F726B3D28
:10114000000044454255473A204166746572206369
:101150006F6E76657273696F6E202D20575F5363D3
:10116000616C65343D0044454255473A20536176F1
:10117000696E6720746F20575F49315F5363616CFC
:101180006534202D206F6C643D0044454255473A3C
:101190002043616C6C696E6720505F5361766549CE
:1011A0006E436667280044454255473A20505F53D6
:1011B000617665496E4366672072657475726E6507
:1011C00064207374617475733D0044454255473A19
:1011D000204E6F206368616E6765202D20736B69F8
:1011E0007070696E67207361766500002020202092
:1011F0002020202020200000456E61626C65206563
:101200006469746F722072657475726E696E673A84
:10121000200053656E736F7220656469746F72206D
:1012200072657475726E696E673A20004445425566
:10123000473A20505F4564697453335374616E6458
:1012400020656E747279202D20495F56616C3D00D7
:1012500044454255473A2045787472616374656429
:10126000202D205369676E3D000020313030733DE2
:10127000000020756E6974733D0044454255473A3D
:10128000204C6F6E67207072657373202D2072651D
:1012900073746F72696E6720495F4F726967566138
:1012A0006C3D000044454255473A20436F6D6D69DF
:1012B0007474696E6720495F56616C3D0000006A76
:1012C000100EAF6E240EAC6E900EAB6E00010F0EC2
:1012D000C16E070EB46E700ED36E9B8C0F0EC16E76
:1012E000F19EC40ED56E060ED66EF294F28AF28E80
:1012F0008DEF0BF000011BC012F31CC013F3F4CFF1
:1013000014F3F3CF15F323C016F3F2A4FBD1060EAA
:10131000D66EF294262A000E272228222922415234
:1013200024E14850471004E152C031F051C030F080
:10133000FF0E485C04E305E1F60E475C02E2474A13
:10134000482A0001070E485C080ED8B4475C02E248
:10135000000E01D0010E236E010E4D52D8A4000ED6
:10136000231602E0010E4D6E13D0485203E1C80E61
:10137000475C0AE3010E2F6E26C02AF027C02BF02F
:1013800028C02CF029C02DF00001486A476A4D6A38
:10139000305202E1315203E03006000E315A0001B2
:1013A000325202E1829401D1010E325C0AE13052E4
:1013B00002E1315203E08284000102D08294326A59
:1013C000F4D0020E325C2CE133520EE1305202E1D5
:1013D000315203E08284000106D08294010E336E04
:1013E000316A640E306E1BD0010E335C0BE18294C7
:1013F0003150301006E1020E336E52C031F051C050
:1014000030F00DD0020E335C0AE1305202E131526D
:1014100003E08284000103D08294326A336AC5D02B
:10142000030E325C0AE1305202E1315203E0828461
:10143000000102D08294326AB8D0040E325C2BE1F3
:10144000335206E0020E335C03E0040E335C13E11A
:10145000305202E1315203E0828400010BD08294C9
:10146000332A050E335C04E2316A960E306E02D0E8
:10147000326A336A0FD0010E335C03E0030E335C33
:1014800009E182943150301005E1332A52C031F025
:1014900051C030F08AD0050E325C31E1335209E0A0
:1014A000020E335C06E0040E335C03E0060E335C90
:1014B00013E1305202E1315203E0828400010BD08B
:1014C0008294332A070E335C04E2316A640E306E74
:1014D00002D0326A336A12D0010E335C06E0030E8A
:1014E000335C03E0050E335C09E182943150301027
:1014F00005E1332A52C031F051C030F056D0060E0B
:10150000325C26E1335217E1305202E1315203E0FE
:10151000828400010FD08294342A3550345C04E375
:10152000326A336A346A06D0010E336E39C031F044
:1015300038C030F00CD0010E335C09E18294315098
:10154000301005E1336A37C031F036C030F02DD0AD
:10155000080E325C2AE133520EE1305202E1315280
:1015600003E08284000106D08294010E336E316A5A
:10157000640E306E1AD0010E335C0AE18294315051
:10158000301005E1020E336E316A320E306E0DD02E
:10159000020E335C0AE1305202E1315203E08284F0
:1015A000000103D08294326A336A3E2A0A0E3E5CFE
:1015B000D8A0A8D08B6B81B28B2B8C6B81B48C2B79
:1015C0008D6B81BC8D2B8B513F5C10E0422A020E4B
:1015D000425C0BE38BC03FF0426A26C02AF027C072
:1015E0002BF028C02CF029C02DF001D0426A8C517C
:1015F000405C10E0432A020E435C0BE38CC040F0D9
:10160000436A26C02AF027C02BF028C02CF029C03E
:101610002DF001D0436A8D51415C10E0442A020E46
:10162000445C0BE38DC041F0446A26C02AF027C019
:101630002BF028C02CF029C02DF001D0446A3F5077
:10164000020DF3CF1BF0F4CF1CF040501B248E6F23
:101650004550040DF3CF1BF0F4CF1CF08E511B242A
:101660008F6F010E8F5D02E1460622D0070E8F5D5F
:1016700002E146061DD00E0E8F5D02E1460618D02F
:10168000080E8F5D02E1460613D0020E8F5D02E167
:10169000462A0ED00B0E8F5D02E1462A09D00D0EB0
:1016A0008F5D02E1462A04D0040E8F5D01E1462AD7
:1016B0008E5325E146BE0ED0020E465C0BE3494A2E
:1016C0004A2A26C02AF027C02BF028C02CF029C0B7
:1016D0002DF014D04650800A7E0810E3495202E1F2
:1016E0004A5203E04906000E4A5A000126C02AF079
:1016F00027C02BF028C02CF029C02DF0466A8EC0E0
:1017000045F03E6A12C31BF013C31CF014C3F4FF70
:1017100015C3F3FF16C323F01100ADD8B2D861D8BA
:101720009ED874D99AD980D9906BC9D8030EF76E18
:10173000020EF66EDFEC00F00D0EE7EC00F0F29E0C
:10174000486A476A4D6A2F6AF28E2F6A030EF76E57
:101750002E0EF66EDFEC00F0040E016E2F504FECF3
:1017600000F00D0EE7EC00F04E6A24942F6A2D6A0B
:101770002C6A2B6A2A6A24822490030E545C01E3AB
:10178000546A030E6A5C02E3010E6A6E030E7B5C10
:1017900002E3020E7B6E030EF76E4A0EF66EDFEC6E
:1017A00000F00D0EE7EC00F0C80E06EC01F024A0EE
:1017B00003D017D854D8249024945CEC11F049EC51
:1017C00010F092C04EF0020E4E5C09E1249426C047
:1017D0002AF027C02BF028C02CF029C02DF0E7D725
:1017E000FFD7100E926E460E936E946A896A8A6ACB
:1017F0008B6A899C899E320E06EC01F0809C030E58
:101800009B6FBDEC11F0050E06EC01F0030E9B6F13
:10181000BDEC11F0960E13EC01F0030E9B6FBDECC6
:1018200011F0960E13EC01F0020E9B6FBDEC11F05F
:10183000960E13EC01F0280E9C6FC3EC11F0080E0D
:101840009C6FC3EC11F0010E9C6FC3EC11F0060EFF
:101850009C6FC3EC11F00C0E9C6FC3EF11F0A76BE3
:10186000050EA66F2FEC12F006EC00F0A76B020E2F
:10187000A66F2FEF12F0100E926E460E936E946AC2
:1018800012003F6A81B23F2A406A81B4402A416A0D
:1018900081BC412A3F50020DF3CF1BF0F4CF1CF066
:1018A00040501B24456E426A436A446A3E6A466A57
:1018B0004A6A496A4C6A4B6A486A476A12009053FE
:1018C000D8A455D03BC09EF09F6BE5EC11F0A0531F
:1018D0000EE0030EF76E640EF66EDFEC00F00D0EF8
:1018E000E7EC00F0020E9A6F7EEC11F03FD03BC0A7
:1018F0009EF0030E9F6FE5EC11F0A0530EE0030E77
:10190000F76E940EF66EDFEC00F00D0EE7EC00F0D3
:10191000040E9A6F7EEC11F029D03BC09EF0020EAF
:101920009F6FE5EC11F0A0530EE0030EF76EBC0EB6
:10193000F66EDFEC00F00D0EE7EC00F0050E9A6F8E
:101940007EEC11F013D0030EF76EE20EF66EDFECB4
:1019500000F00D0EE7EC00F0050EA16FA36B4B0E2F
:10196000A26FA56B640EA46F1CEC12F036D0010EB2
:10197000905D10E1040EF76E160EF66EDFEC00F0CF
:101980000D0EE7EC00F0080E326E336A316A640E19
:10199000306E23D0020E905D14E1040EF76E320E0D
:1019A000F66EDFEC00F00D0EE7EC00F0010EA16F1B
:1019B000030EA36FE80EA26FA56BA46B1CEC12F0D4
:1019C0000CD0040EF76E4C0EF66EDFEC00F00D0E30
:1019D000E7EC00F09A6B7EEC11F0040EF76E6C0EE3
:1019E000F66EDFEC00F0040E016E32504FEC00F0AA
:1019F0000D0EE7EC00F0325204E00A0E06EC01F0A6
:101A0000FAD7010E126EF40E07EF01F0EFEC12F0B0
:101A1000010EB56F61EC13F0020EB56F61EC13F0BF
:101A2000030EB56F61EF13F0010E5514916F9153D2
:101A300002E1676A02D0010E676E020E5514916FC3
:101A4000915302E1686A02D0010E686E5FC065F0D2
:101A50005EC064F062C066F01200040EF76E8A0E7B
:101A6000F66EDFEC00F00D0EE7EC00F0040EF76E02
:101A7000A60EF66EDFEC00F00D0EE7EC00F0040EA3
:101A8000F76EB60EF66EDFEC00F0040E016E046A1F
:101A900050C014F04FC013F052EC00F0040EF76E7B
:101AA000CA0EF66EDFEC00F00D0EE7EC00F0040E4F
:101AB000F76ED40EF66EDFEC00F0040E016E046AD1
:101AC00052C014F051C013F052EC00F0200EE7ECBD
:101AD00000F06D0EE7EC00F0730EE7EC00F00D0E79
:101AE000E7EC00F0040EF76EE80EF66EDFEC00F0A7
:101AF000040E016E020E046E3B5038EC00F00D0E29
:101B0000E7EC00F0040EF76EFC0EF66EDFEC00F072
:101B10000D0EE7EC00F0050EF76E0C0EF66EDFEC26
:101B200000F0040E016E53504FEC00F00D0EE7EC88
:101B300000F0050EF76E200EF66EDFEC00F0040EDE
:101B4000016E54504FEC00F00D0EE7EC00F0050E66
:101B5000F76E340EF66EDFEC00F0040E016E555099
:101B60004FEC00F00D0EE7EC00F0050EF76E480E9E
:101B7000F66EDFEC00F0040E016E046A57C014F03C
:101B800056C013F04DEC00F00D0EE7EC00F0050E22
:101B9000F76E5C0EF66EDFEC00F0040E016E046A68
:101BA00059C014F058C013F04DEC00F00D0EE7ECE6
:101BB00000F0050EF76E700EF66EDFEC00F0040E0E
:101BC000016E046A5BC014F05AC013F052EC00F0CE
:101BD000200EE7EC00F0730EE7EC00F0650EE7EC8A
:101BE00000F0630EE7EC00F00D0EE7EC00F0050EE0
:101BF000F76E840EF66EDFEC00F0040E016E046AE0
:101C00005DC014F05CC013F052EC00F0200EE7EC65
:101C100000F0730EE7EC00F0650EE7EC00F0630EE9
:101C2000E7EC00F00D0EE7EC00F0050EF76E980EF5
:101C3000F66EDFEC00F0040E016E046A5FC014F073
:101C40005EC013F052EC00F0200EE7EC00F0730ED3
:101C5000E7EC00F0650EE7EC00F0630EE7EC00F057
:101C60000D0EE7EC00F0050EF76EAC0EF66EDFEC35
:101C700000F0040E016E60504FEC00F00D0EE7EC2A
:101C800000F0050EF76EC00EF66EDFEC00F0040EED
:101C9000016E61504FEC00F00D0EE7EC00F0050E08
:101CA000F76ED40EF66EDFEC00F0040E016E62509B
:101CB0004FEC00F00D0EE7EC00F0050EF76EE80EAD
:101CC000F66EDFEC00F0040E016E63504FEC00F096
:101CD0000D0EE7EC00F0050EF76EFC0EF66EDFEC75
:101CE00000F00D0EE7EC00F0060EF76E0C0EF66E2F
:101CF000DFEC00F0040E016E69504FEC00F00D0EA9
:101D0000E7EC00F0060EF76E200EF66EDFEC00F04A
:101D1000040E016E6A504FEC00F00D0EE7EC00F07F
:101D2000060EF76E340EF66EDFEC00F0040E016E58
:101D30006B504FEC00F00D0EE7EC00F0060EF76E66
:101D4000480EF66EDFEC00F0040E016E046A6DC002
:101D500014F06CC013F04DEC00F00D0EE7EC00F049
:101D6000060EF76E5C0EF66EDFEC00F0040E016EF0
:101D7000046A6FC014F06EC013F04DEC00F00D0E4D
:101D8000E7EC00F0060EF76E700EF66EDFEC00F07A
:101D9000040E016E046A71C014F070C013F052ECAE
:101DA00000F0200EE7EC00F0730EE7EC00F0650E9B
:101DB000E7EC00F0630EE7EC00F00D0EE7EC00F04E
:101DC000060EF76E840EF66EDFEC00F0040E016E68
:101DD000046A73C014F072C013F052EC00F0200ECD
:101DE000E7EC00F0730EE7EC00F0650EE7EC00F0B6
:101DF000630EE7EC00F00D0EE7EC00F0060EF76E58
:101E0000980EF66EDFEC00F0040E016E046A75C0E9
:101E100014F074C013F052EC00F0200EE7EC00F068
:101E2000730EE7EC00F0650EE7EC00F0630EE7ECF4
:101E300000F00D0EE7EC00F0060EF76EAC0EF66E3D
:101E4000DFEC00F0040E016E76504FEC00F00D0E4A
:101E5000E7EC00F0060EF76EC00EF66EDFEC00F059
:101E6000040E016E77504FEC00F00D0EE7EC00F021
:101E7000060EF76ED40EF66EDFEC00F0040E016E67
:101E800078504FEC00F00D0EE7EC00F0060EF76E08
:101E9000E80EF66EDFEC00F0040E016E79504FECA8
:101EA00000F00D0EE7EC00F0060EF76EFC0EF66E7D
:101EB000DFEC00F00D0EE7EC00F0070EF76E0C0EF5
:101EC000F66EDFEC00F0040E016E7A504FEC00F07D
:101ED0000D0EE7EC00F0070EF76E200EF66EDFEC4D
:101EE00000F0040E016E7B504FEC00F00D0EE7EC9D
:101EF00000F0070EF76E340EF66EDFEC00F0040E05
:101F0000016E7C504FEC00F00D0EE7EC00F0070E78
:101F1000F76E480EF66EDFEC00F0040E016E046AF8
:101F20007EC014F07DC013F04DEC00F00D0EE7EC18
:101F300000F0070EF76E5C0EF66EDFEC00F0040E9C
:101F4000016E046A80C014F07FC013F04DEC00F005
:101F50000D0EE7EC00F0070EF76E700EF66EDFEC7C
:101F600000F0040E016E046A82C014F081C013F008
:101F700052EC00F0200EE7EC00F0730EE7EC00F0FE
:101F8000650EE7EC00F0630EE7EC00F00D0EE7ECF9
:101F900000F0070EF76E840EF66EDFEC00F0040E14
:101FA000016E046A84C014F083C013F052EC00F098
:101FB000200EE7EC00F0730EE7EC00F0650EE7ECA6
:101FC00000F0630EE7EC00F00D0EE7EC00F0070EFA
:101FD000F76E980EF66EDFEC00F0040E016E046AE8
:101FE00086C014F085C013F052EC00F0200EE7EC30
:101FF00000F0730EE7EC00F0650EE7EC00F0630E06
:10200000E7EC00F00D0EE7EC00F0070EF76EAC0EFB
:10201000F66EDFEC00F0040E016E87514FEC00F01D
:102020000D0EE7EC00F0070EF76EC00EF66EDFEC5B
:1020300000F0040E016E88514FEC00F00D0EE7EC3D
:1020400000F0070EF76ED40EF66EDFEC00F0040E13
:10205000016E89514FEC00F00D0EE7EC00F0070E19
:10206000F76EE80EF66EDFEC00F0040E016E8A519A
:102070004FEC00F00D0EE7EC00F0070EF76EFC0ED3
:10208000F66EDFEC00F00D0EE7EC00F00D0EE7EF62
:1020900000F0040E956F936B946B2490248224A21D
:1020A00096D0010E9A6F2AD902EE0AF0080EF76E4A
:1020B000140EF66E79EC01F0EF6AEED9020EAA6FFB
:1020C000DED9030EAA6FDBD9040EAA6FD8D9020E8F
:1020D000935D02E2946B16D0FF0E9525056E066A9D
:1020E000FF0E062206520CE10550935D09E3030E34
:1020F000955D04E3030E955D946F01D0946B02D05F
:102100009305946F020E976F050E975DD8B05ED061
:10211000945197251B6E1C6A1C36020E1B5C986F2F
:102120009851935D03E1010E966F01D0966B985321
:102130000FE197C0ABF002EE2BF0080EF76E2A0EFF
:10214000F66E79EC01F0EF6A96C0ACF0BBD93BD0EB
:10215000010E985D0FE197C0ABF002EE2BF0080E78
:10216000F76E340EF66E79EC01F0EF6A96C0ACF0C3
:10217000A9D929D0020E985D0FE197C0ABF002EE0D
:102180002BF0080EF76E400EF66E79EC01F0EF6A58
:1021900096C0ACF097D917D0030E985D11E197C0A7
:1021A000ABF002EE2BF0420EEE6E610EEE6E630EA1
:1021B000EE6E6B0EEE6EEF6A96C0ACF083D903D074
:1021C00097C0AAF05CD9972BD8A09ED72492C4D9E7
:1021D0002E5215E0010E2E5C0EE1FF0E9525056EC8
:1021E000066AFF0E0622065203E10550935D02E2E5
:1021F0000001932B03D0935301E09307248296D9D7
:10220000010EAD5D03E1020E926F1200D1D9D1D95A
:10221000010EB05DD8A44ED0020E9A6F6FD89353C2
:1022200004E1010E926F120045D0010E935D28E18A
:10223000080EF76E4E0EF66EDFEC00F0040E016E27
:1022400093514FEC00F00D0EE7EC00F01BEC15F095
:10225000BAC099F0080EF76E760EF66EDFEC00F05D
:10226000040E016E93514FEC00F00D0EE7EC00F000
:10227000020E995D03E1020E926F120024821AD0C1
:10228000020E935D0DE102EE4CF0080EF76E9E0E0D
:10229000F66E79EC01F0EF6A38EC17F024820AD080
:1022A000030E935D04E1010E926F120003D0010E44
:1022B000926F1200F4D612002490248224A214D02B
:1022C00002EE0AF0080EF76EA60EF66E79EC01F03B
:1022D000EF6AE2D8020EAA6FD2D8030EAA6FCFD847
:1022E000040EAA6FCCD8249263D963D9010EB05DD5
:1022F00003E1020E9A6F02D0E1D712009AC032F0C9
:10230000336A346A9A5303E1316A306A35D0010E78
:102310009A5D05E152C031F051C030F02DD0020E6F
:102320009A5D05E152C031F051C030F025D0030E66
:102330009A5D0BE15250060DF3CF31F05150060D6E
:10234000F3CF30F0F450312617D0040E9A5D05E13A
:1023500052C031F051C030F00FD0050E9A5D05E14A
:1023600052C031F051C030F007D0060E9A5D04E142
:1023700037C031F036C030F012009BC0C1F067ECBE
:1023800017F082EF17F0809C9C390F0B9D6F9DC05A
:102390009BF0F3DF0F0E9C159D6F9DC09BF0EDDF52
:1023A000010E9C5D010ED8A4000E236E020E9C5DF2
:1023B000010ED8A4000E231204E0020E06EC01F078
:1023C00003D0320E13EC01F012009F5304E1010E12
:1023D0009E15A06F30D0010E9F5D04E1020E9E1588
:1023E000A06F29D0020E9F5D04E1040E9E15A06F20
:1023F00022D0030E9F5D04E1080E9E15A06F1BD036
:10240000040E9F5D04E1100E9E15A06F14D0050E02
:102410009F5D04E1200E9E15A06F0DD0060E9F5DFE
:1024200004E1400E9E15A06F06D0070E9F5D03E1EC
:10243000800E9E15A06F1200060E326E336A346A4B
:10244000A1C035F0A3C037F0A2C036F0A5C039F066
:10245000A4C038F0A3C031F0A2C030F01200A96BC4
:10246000010EA86FA851A65DA951A75907E3010E57
:1024700006EC01F0A82B000EA923F4E31200800E55
:10248000016EAAC002F0010E12EC00F0080EF76E09
:10249000BC0EF66E8AEF00F0800E016E30EC00F09C
:1024A000080EF76EBC0EF66E8AEC00F0800E016E20
:1024B00030EC00F002EE0AF0EE5003E092EC00F097
:1024C000FBD71200800E016EABC002F0010E12ECC1
:1024D00000F0080EF76EBC0EF66E8AEC00F0010EEE
:1024E000AC5D15E1800E016EABC002F0010E12EC86
:1024F00000F05B0E92EC00F002EE2BF0EE5003E0E9
:1025000092EC00F0FBD75D0E92EC00F00ED0800E46
:10251000016EABC002F0020E12EC00F002EE2BF0E6
:10252000EE5003E092EC00F0FBD71200010E4D5C80
:1025300011E14D6A010E906F5FEC0CF0080EF76E22
:10254000D20EF66EDFEC00F00D0EE7EC00F0010E9F
:10255000AD6F01D0AD6B1200F29E4AC0AFF049C022
:10256000AEF0F28EAE514B5CAF514C580BE2010E07
:102570002E6E26C02AF027C02BF028C02CF029C0D0
:102580002DF011D04B50AE5D4C50AF590BE2FF0E09
:102590002E6E26C02AF027C02BF028C02CF029C0B0
:1025A0002DF001D02E6AAFC04CF0AEC04BF012003F
:1025B0001200F29E2FC0B0F02F520EE0090EF76EFF
:1025C000020EF66EDFEC00F0040E016E2F504FECA1
:1025D00000F00D0EE7EC00F02F6AF28E1200B36BE4
:1025E000B26BB3C0CBF0B2C0CAF0CDEC17F0CCC028
:1025F000B4F0B4533AE1020EB225C46F000EB32119
:10260000C56FB3EC17F0C7C050F0C6C04FF0040E52
:10261000B225C46F000EB321C56FB3EC17F0C7C06D
:1026200052F0C6C051F0080EB225A96E000EB321BB
:10263000AA6EFFEC00F03B6ED26B4F0ED16FD46BE5
:102640000A0ED36F010ED66F2C0ED56F06EC18F064
:10265000D26B510ED16FD46B0A0ED36F070ED66FAB
:10266000D00ED56F06EC18F027D079EC1DF0E053B2
:1026700008E13B0EC26F020EC36F8CEC17F0B46B17
:102680001BD0DBEC1DF0EB5308E13B0EC26F030ED9
:10269000C36F8CEC17F0B46B0FD0506A3C0E4F6ECA
:1026A000526A320E516E3B6A3B0EC26FC36B8CECAA
:1026B00017F019EC18F0B46BB4C03AF0B4C0B1F034
:1026C00012001C6A200E1B6E1E6AB5C01DF01D068E
:1026D000000E1E5A1E50200DF3CF1EF01D50200D6F
:1026E000F3CF1DF0F4501E261D501B24B76F1E5053
:1026F0001C20B86FB8C0CBF0B7C0CAF0CDEC17F053
:10270000CCC0B9F0B953D8A480D1010EB55DD8A41E
:102710007CD0020EB725A96E000EB821AA6EFFEC80
:1027200000F0536E030EB725A96E000EB821AA6EF5
:10273000FFEC00F0546E040EB725A96E000EB82110
:10274000AA6EFFEC00F0556E050EB725C46F000EA3
:10275000B821C56FB3EC17F0C7C057F0C6C056F02C
:10276000070EB725C46F000EB821C56FB3EC17F084
:10277000C7C059F0C6C058F0090EB725C46F000E87
:10278000B821C56FB3EC17F0C7C05BF0C6C05AF0F4
:102790000B0EB725C46F000EB821C56FB3EC17F050
:1027A000C7C05DF0C6C05CF00D0EB725C46F000E4B
:1027B000B821C56FB3EC17F0C7C05FF0C6C05EF0BC
:1027C0000F0EB725A96E000EB821AA6EFFEC00F01F
:1027D000606E100EB725A96E000EB821AA6EFFEC30
:1027E00000F0616E110EB725A96E000EB821AA6E19
:1027F000FFEC00F0626E120EB725A96E000EB82134
:10280000AA6EFFEC00F0636EFFD0020EB55DD8A497
:102810007CD0020EB725A96E000EB821AA6EFFEC7F
:1028200000F0696E030EB725A96E000EB821AA6EDE
:10283000FFEC00F06A6E040EB725A96E000EB821F9
:10284000AA6EFFEC00F06B6E050EB725C46F000E8C
:10285000B821C56FB3EC17F0C7C06DF0C6C06CF0FF
:10286000070EB725C46F000EB821C56FB3EC17F083
:10287000C7C06FF0C6C06EF0090EB725C46F000E5A
:10288000B821C56FB3EC17F0C7C071F0C6C070F0C7
:102890000B0EB725C46F000EB821C56FB3EC17F04F
:1028A000C7C073F0C6C072F00D0EB725C46F000E1E
:1028B000B821C56FB3EC17F0C7C075F0C6C074F08F
:1028C0000F0EB725A96E000EB821AA6EFFEC00F01E
:1028D000766E100EB725A96E000EB821AA6EFFEC19
:1028E00000F0776E110EB725A96E000EB821AA6E02
:1028F000FFEC00F0786E120EB725A96E000EB8211D
:10290000AA6EFFEC00F0796E7FD0030EB55DD8A4FF
:102910007BD0020EB725A96E000EB821AA6EFFEC7F
:1029200000F07A6E030EB725A96E000EB821AA6ECC
:10293000FFEC00F07B6E040EB725A96E000EB821E7
:10294000AA6EFFEC00F07C6E050EB725C46F000E7A
:10295000B821C56FB3EC17F0C7C07EF0C6C07DF0DC
:10296000070EB725C46F000EB821C56FB3EC17F082
:10297000C7C080F0C6C07FF0090EB725C46F000E37
:10298000B821C56FB3EC17F0C7C082F0C6C081F0A4
:102990000B0EB725C46F000EB821C56FB3EC17F04E
:1029A000C7C084F0C6C083F00D0EB725C46F000EFB
:1029B000B821C56FB3EC17F0C7C086F0C6C085F06C
:1029C0000F0EB725A96E000EB821AA6EFFEC00F01D
:1029D000876F100EB725A96E000EB821AA6EFFEC06
:1029E00000F0886F110EB725A96E000EB821AA6EEF
:1029F000FFEC00F0896F120EB725A96E000EB8210A
:102A0000AA6EFFEC00F08A6F11D0B5C0E4F09BEC29
:102A10001DF0E55302E1B96B09D0B5C0EDF068ECEB
:102A20001EF0B5C0DBF08EEC18F0B96BB9C03AF00F
:102A3000B9C0B6F01200050EBD6FBB6BBC6B249025
:102A4000248224A2C6D1010E9A6F7EEC11F002EE10
:102A50000AF0090EF76E220EF66E79EC01F0EF6ABD
:102A60004CEC12F0020EAA6F3FEC12F0030EAA6FAC
:102A70003FEC12F0040EAA6F3FEC12F0020EBB5DA9
:102A800002E2BC6B16D0FF0EBD25056E066AFF0E76
:102A9000062206520CE10550BB5D09E3030EBD5D45
:102AA00004E3030EBD5DBC6F01D0BC6B02D0BB055F
:102AB000BC6F020EBF6F050EBF5DD8B089D1FE0E90
:102AC000BF251B6E1C6AFF0E1C22BC511B24C06F4D
:102AD000C051BB5D03E1010EBE6F01D0BE6BC053A0
:102AE000D8A469D0800E016EBFC002F0010E12ECB6
:102AF00000F0080EF76EBC0EF66E8AEC00F0010EC8
:102B0000BE5D0EE1800E016EBFC002F0010E12EC40
:102B100000F0090EF76E380EF66E8AEC00F00DD05C
:102B2000800E016EBFC002F0020E12EC00F0090E22
:102B3000F76E460EF66E8AEC00F054520EE1800EEF
:102B4000016EBFC002F00D0E12EC00F0090EF76E20
:102B5000520EF66E8AEC00F02DD0010E545C14E19A
:102B6000800E016EBFC002F0110E12EC00F0540E88
:102B700092EC00F0650E92EC00F06D0E92EC00F01D
:102B8000700E92EC00F016D0020E545C13E1800E31
:102B9000016EBFC002F0110E12EC00F0460E92EC76
:102BA00000F06C0E92EC00F06F0E92EC00F0770EDD
:102BB00092EC00F00AD1010EC05DD8A469D0800E5D
:102BC000016EBFC002F0010E12EC00F0080EF76EAD
:102BD000BC0EF66E8AEC00F0010EBE5D0EE1800EBA
:102BE000016EBFC002F0010E12EC00F0090EF76E8C
:102BF0005C0EF66E8AEC00F00DD0800E016EBFC048
:102C000002F0020E12EC00F0090EF76E6A0EF66E7C
:102C10008AEC00F06A520EE1800E016EBFC002F035
:102C20000D0E12EC00F0090EF76E520EF66E8AECE5
:102C300000F02DD0010E6A5C14E1800E016EBFC061
:102C400002F0110E12EC00F0540E92EC00F0650E42
:102C500092EC00F06D0E92EC00F0700E92EC00F031
:102C600016D0020E6A5C13E1800E016EBFC002F046
:102C7000110E12EC00F0460E92EC00F06C0E92EC8D
:102C800000F06F0E92EC00F0770E92EC00F09DD009
:102C9000020EC05DD8A469D0800E016EBFC002F0E4
:102CA000010E12EC00F0080EF76EBC0EF66E8AEC08
:102CB00000F0010EBE5D0EE1800E016EBFC002F09D
:102CC000010E12EC00F0090EF76E760EF66E8AEC2D
:102CD00000F00DD0800E016EBFC002F0020E12ECAB
:102CE00000F0090EF76E840EF66E8AEC00F07B524F
:102CF0000EE1800E016EBFC002F00D0E12EC00F06E
:102D0000090EF76E520EF66E8AEC00F02DD0010E11
:102D10007B5C14E1800E016EBFC002F0110E12EC5C
:102D200000F0540E92EC00F0650E92EC00F06D0E87
:102D300092EC00F0700E92EC00F016D0020E7B5C6C
:102D400013E1800E016EBFC002F0110E12EC00F014
:102D5000460E92EC00F06C0E92EC00F06F0E92ECCE
:102D600000F0770E92EC00F030D0030EC05D14E15D
:102D7000BFC0ABF002EE2BF0430EEE6E6C0EEE6EAB
:102D80006F0EEE6E630EEE6E6B0EEE6EEF6ABEC0F1
:102D9000ACF062EC12F019D0040EC05D12E1BFC0BD
:102DA000ABF002EE2BF0420EEE6E610EEE6E630E95
:102DB000EE6E6B0EEE6EEF6ABEC0ACF062EC12F01F
:102DC00004D0BFC0AAF03FEC12F0BF2BD8A073D63E
:102DD0002492ACEC12F02E5215E0010E2E5C0EE1A6
:102DE000FF0EBD25056E066AFF0E0622065203E1A0
:102DF0000550BB5D02E20001BB2B03D0BB5301E0D9
:102E0000BB07248296EC12F0010EAD5D03E1020EC9
:102E1000BA6F1200D8EC12F0D9EC12F0010EB05DCE
:102E200025E1020E9A6F7EEC11F0BB5304E1B4EC85
:102E30001EF024821BD0010EBB5D04E1BDEC1EF030
:102E4000248214D0020EBB5D04E1C6EC1EF0248285
:102E50000DD0030EBB5D04E1CFEC1EF0248206D042
:102E6000040EBB5D03E1010EBA6F1200EAD5120039
:102E7000249002EE0AF012EE4CF0200EE75204E02D
:102E8000E6CFEEFFE82EFAD7090EF76E900EF66E3B
:102E900079EC01F0EF6A4CEC12F0020EAA6F3FECF5
:102EA00012F0030EAA6F3FEC12F0040EAA6F3FEC73
:102EB00012F0D8EC12F0D9EC12F0010EB05D05E181
:102EC000020E9A6F7EEC11F001D0F3D71200C131DF
:102ED00002E3898001D08990C1C0E8FFE8A202D056
:102EE000898201D08992C1C0E8FFE8A402D0898418
:102EF00001D08994C1C0E8FFE8A602D0898601D03C
:102F000089961200898E020EE82EFED7000000007E
:102F1000899E280E13EF01F0C35302E1C28122D033
:102F2000010EC35D02E1C2831DD0020EC35D02E14A
:102F3000C28518D0030EC35D02E1C28713D0040E10
:102F4000C35D02E1C2890ED0050EC35D02E1C28BF2
:102F500009D0060EC35D02E1C28D04D0070EC35D29
:102F600001E1C28F1200C5C0AAFFC4C0A9FFFFECD7
:102F700000F0C86F010EC425A96E000EC521AA6E0F
:102F8000FFEC00F0C96FC9C01CF01B6AC8511B24BC
:102F9000C66F000E1C20C76F1200CBC0AAFFCAC0AC
:102FA000A9FFFFEC00F0CF6FA50ECF5D03E0010E8F
:102FB000CC6F1200010ECA25A96E000ECB21AA6E9D
:102FC000FFEC00F0D06F010ED05D03E0020ECC6F7D
:102FD00012001F0ECA25A96E000ECB21AA6EFFECAF
:102FE00000F0CD6FCBC00AF1CAC009F101011F0E7C
:102FF0000B6F000130EC20F00CC1CEF0CD51CE5D56
:1030000003E0030ECC6F1200CC6B1200D351D15DE4
:10301000D451D25904E2D4C0D2F0D3C0D1F0D151AE
:10302000D55DD251D65904E2D6C0D2F0D5C0D1F088
:103030001200D96BD86B02EEAFF0090EF76E9E0E40
:10304000F66E79EC01F0EF6A50C02DF14FC02CF113
:1030500051EC22F0020ED825FF6F000ED92101019C
:10306000006F50C002F14FC001F100010BEC20F0E5
:1030700003C1DAF0DA5303E0DAC0D7F0120002EE4F
:10308000AFF0090EF76EAC0EF66E79EC01F0EF6A58
:1030900052C02DF151C02CF151EC22F0040ED82574
:1030A000FF6F000ED9210101006F52C002F151C023
:1030B00001F100010BEC20F003C1DAF0DA5303E078
:1030C000DAC0D7F0120002EE8EF0090EF76EBA0EDB
:1030D000F66E79EC01F0EF6A3BC02BF130EC22F098
:1030E000080ED825F96F000ED921FA6F3BC0FBF00E
:1030F000E8EC1FF0FCC0DAF0DA5303E0DAC0D7F0F6
:103100001200D9C011F1D8C010F151EC20F012C159
:10311000DAF0DAC03AF0DAC0D7F012001C6A200EFA
:103120001B6E1E6ADBC01DF01D06000E1E5A1E50CF
:10313000200DF3CF1EF01D50200DF3CF1DF0F450E5
:103140001E261D501B24DD6F1E501C20DE6F090E35
:10315000F76EC60EF66EDFEC00F0040E016EDB516A
:103160004FEC00F00D0EE7EC00F0090EF76EE20EEA
:10317000F66EDFEC00F0040E016E54504FEC00F0E0
:103180000D0EE7EC00F0090EF76EF40EF66EDFECB4
:1031900000F0040E016EDB514FEC00F00A0EF76EEA
:1031A000080EF66EDFEC00F00D0EE7EC00F0010EFD
:1031B000DB5DD8A46ED102EE8EF00A0EF76E180E0B
:1031C000F66E79EC01F0EF6A53C02BF130EC22F08F
:1031D000020EDD25F96F000EDE21FA6F53C0FBF001
:1031E000E8EC1FF0FCC0DFF0DF5319E102EE8EF0D7
:1031F0000A0EF76E260EF66E79EC01F0EF6A54C0F7
:103200002BF130EC22F0030EDD25F96F000EDE21EC
:10321000FA6F54C0FBF0E8EC1FF0FCC0DFF0DF53A6
:1032200019E102EE8EF00A0EF76E340EF66E79ECAE
:1032300001F0EF6A55C02BF130EC22F0040EDD25D1
:10324000F96F000EDE21FA6F55C0FBF0E8EC1FF0BD
:10325000FCC0DFF0DF5325E102EE6DF00A0EF76EE1
:10326000420EF66E79EC01F0EF6A57C006F156C0D7
:1032700005F12BEC20F008C12AF107C129F10EEC71
:1032800022F0050EDD25FF6F000EDE210101006F2B
:1032900057C002F156C001F100010BEC20F003C150
:1032A000DFF0DF5325E102EE6DF00A0EF76E4E0EF1
:1032B000F66E79EC01F0EF6A59C006F158C005F1DD
:1032C0002BEC20F008C12AF107C129F10EEC22F005
:1032D000070EDD25FF6F000EDE210101006F59C0D2
:1032E00002F158C001F100010BEC20F003C1DFF046
:1032F000DF531FE102EEAFF00A0EF76E5C0EF66EC2
:1033000079EC01F0EF6A5BC02DF15AC02CF151EC61
:1033100022F0090EDD25FF6F000EDE210101006F96
:103320005BC002F15AC001F100010BEC20F003C1B7
:10333000DFF0DF531FE102EEAFF00A0EF76E6A0E08
:10334000F66E79EC01F0EF6A5DC02DF15CC02CF1F6
:1033500051EC22F00B0EDD25FF6F000EDE21010186
:10336000006F5DC002F15CC001F100010BEC20F0C8
:1033700003C1DFF0DF531FE102EEAFF00A0EF76E7C
:10338000760EF66E79EC01F0EF6A5FC02DF15EC04B
:103390002CF151EC22F00D0EDD25FF6F000EDE2129
:1033A0000101006F5FC002F15EC001F100010BEC92
:1033B00020F003C1DFF0DF5319E102EE8EF00A0EB8
:1033C000F76E820EF66E79EC01F0EF6A60C02BF1B9
:1033D00030EC22F00F0EDD25F96F000EDE21FA6FC2
:1033E00060C0FBF0E8EC1FF0FCC0DFF0DF5319E138
:1033F00002EE8EF00A0EF76E900EF66E79EC01F08A
:10340000EF6A61C02BF130EC22F0100EDD25F96F70
:10341000000EDE21FA6F61C0FBF0E8EC1FF0FCC08B
:10342000DFF0DF5319E102EE8EF00A0EF76E9C0E0C
:10343000F66E79EC01F0EF6A62C02BF130EC22F00D
:10344000110EDD25F96F000EDE21FA6F62C0FBF070
:10345000E8EC1FF0FCC0DFF0DF5319E102EE8EF064
:103460000A0EF76EA80EF66E79EC01F0EF6A63C0F3
:103470002BF130EC22F0120EDD25F96F000EDE216B
:10348000FA6F63C0FBF0E8EC1FF0FCC0DFF02AEF3E
:103490001DF0020EDB5DD8A46DD102EE8EF00A0E97
:1034A000F76EB60EF66E79EC01F0EF6A69C02BF19B
:1034B00030EC22F0020EDD25F96F000EDE21FA6FEE
:1034C00069C0FBF0E8EC1FF0FCC0DFF0DF5319E14E
:1034D00002EE8EF00A0EF76EC40EF66E79EC01F075
:1034E000EF6A6AC02BF130EC22F0030EDD25F96F94
:1034F000000EDE21FA6F6AC0FBF0E8EC1FF0FCC0A2
:10350000DFF0DF5319E102EE8EF00A0EF76ED20EF5
:10351000F66E79EC01F0EF6A6BC02BF130EC22F023
:10352000040EDD25F96F000EDE21FA6F6BC0FBF093
:10353000E8EC1FF0FCC0DFF0DF5325E102EE6DF098
:103540000A0EF76EE00EF66E79EC01F0EF6A6DC0D0
:1035500006F16CC005F12BEC20F008C12AF107C17F
:1035600029F10EEC22F0050EDD25FF6F000EDE21A5
:103570000101006F6DC002F16CC001F100010BECA4
:1035800020F003C1DFF0DF5325E102EE6DF00A0EFB
:10359000F76EEC0EF66E79EC01F0EF6A6FC006F193
:1035A0006EC005F12BEC20F008C12AF107C129F10A
:1035B0000EEC22F0070EDD25FF6F000EDE2101016B
:1035C000006F6FC002F16EC001F100010BEC20F042
:1035D00003C1DFF0DF531FE102EEAFF00A0EF76E1A
:1035E000FA0EF66E79EC01F0EF6A71C02DF170C041
:1035F0002CF151EC22F0090EDD25FF6F000EDE21CB
:103600000101006F71C002F170C001F100010BEC0B
:1036100020F003C1DFF0DF531FE102EEAFF00B0E2D
:10362000F76E080EF66E79EC01F0EF6A73C02DF1BB
:1036300072C02CF151EC22F00B0EDD25FF6F000E55
:10364000DE210101006F73C002F172C001F10001BF
:103650000BEC20F003C1DFF0DF531FE102EEAFF00F
:103660000B0EF76E140EF66E79EC01F0EF6A75C072
:103670002DF174C02CF151EC22F00D0EDD25FF6F01
:10368000000EDE210101006F75C002F174C001F16E
:1036900000010BEC20F003C1DFF0DF5319E102EE73
:1036A0008EF00B0EF76E200EF66E79EC01F0EF6ADD
:1036B00076C02BF130EC22F00F0EDD25F96F000EF5
:1036C000DE21FA6F76C0FBF0E8EC1FF0FCC0DFF003
:1036D000DF5319E102EE8EF00B0EF76E2E0EF66E32
:1036E00079EC01F0EF6A77C02BF130EC22F0100E8C
:1036F000DD25F96F000EDE21FA6F77C0FBF0E8ECF4
:103700001FF0FCC0DFF0DF5319E102EE8EF00B0E6C
:10371000F76E3A0EF66E79EC01F0EF6A78C02BF195
:1037200030EC22F0110EDD25F96F000EDE21FA6F6C
:1037300078C0FBF0E8EC1FF0FCC0DFF0DF5319E1CC
:1037400002EE8EF00B0EF76E460EF66E79EC01F07F
:10375000EF6A79C02BF130EC22F0120EDD25F96F03
:10376000000EDE21FA6F79C0FBF0E8EC1FF0FCC020
:10377000DFF070D1030EDB5DD8A46CD102EE8EF0C9
:103780000B0EF76E540EF66E79EC01F0EF6A7AC00C
:103790002BF130EC22F0020EDD25F96F000EDE2158
:1037A000FA6F7AC0FBF0E8EC1FF0FCC0DFF0DF53EB
:1037B00019E102EE8EF00B0EF76E620EF66E79ECEA
:1037C00001F0EF6A7BC02BF130EC22F0030EDD2517
:1037D000F96F000EDE21FA6F7BC0FBF0E8EC1FF002
:1037E000FCC0DFF0DF5319E102EE8EF00B0EF76E36
:1037F000700EF66E79EC01F0EF6A7CC02BF130ECC4
:1038000022F0040EDD25F96F000EDE21FA6F7CC078
:10381000FBF0E8EC1FF0FCC0DFF0DF5325E102EE27
:103820006DF00B0EF76E7E0EF66E79EC01F0EF6A1E
:103830007EC006F17DC005F12BEC20F008C12AF115
:1038400007C129F10EEC22F0050EDD25FF6F000EF9
:10385000DE210101006F7EC002F17DC001F1000197
:103860000BEC20F003C1DFF0DF5325E102EE6DF039
:103870000B0EF76E8A0EF66E79EC01F0EF6A80C0DF
:1038800006F17FC005F12BEC20F008C12AF107C139
:1038900029F10EEC22F0070EDD25FF6F000EDE2170
:1038A0000101006F80C002F17FC001F100010BEC4B
:1038B00020F003C1DFF0DF531FE102EEAFF00B0E8B
:1038C000F76E980EF66E79EC01F0EF6A82C02DF17A
:1038D00081C02CF151EC22F0090EDD25FF6F000EA6
:1038E000DE210101006F82C002F181C001F10001FF
:1038F0000BEC20F003C1DFF0DF531FE102EEAFF06D
:103900000B0EF76EA60EF66E79EC01F0EF6A84C02E
:103910002DF183C02CF151EC22F00B0EDD25FF6F51
:10392000000EDE210101006F84C002F183C001F1AD
:1039300000010BEC20F003C1DFF0DF531FE102EECA
:10394000AFF00B0EF76EB20EF66E79EC01F0EF6A87
:1039500086C02DF185C02CF151EC22F00D0EDD2535
:10396000FF6F000EDE210101006F86C002F185C0ED
:1039700001F100010BEC20F003C1DFF0DF5319E18E
:1039800002EE8EF00B0EF76EBE0EF66E79EC01F0C5
:10399000EF6A87C02BF130EC22F00F0EDD25F96FB6
:1039A000000EDE21FA6F87C0FBF0E8EC1FF0FCC0D0
:1039B000DFF0DF5319E102EE8EF00B0EF76ECC0E46
:1039C000F66E79EC01F0EF6A88C02BF130EC22F052
:1039D000100EDD25F96F000EDE21FA6F88C0FBF0B6
:1039E000E8EC1FF0FCC0DFF0DF5319E102EE8EF0CF
:1039F0000B0EF76ED80EF66E79EC01F0EF6A89C007
:103A00002BF130EC22F0110EDD25F96F000EDE21D6
:103A1000FA6F89C0FBF0E8EC1FF0FCC0DFF0DF5369
:103A200019E102EE8EF00B0EF76EE40EF66E79ECF5
:103A300001F0EF6A8AC02BF130EC22F0120EDD2586
:103A4000F96F000EDE21FA6F8AC0FBF0E8EC1FF080
:103A5000FCC0DFF0DF5334E1DEC011F1DDC010F156
:103A600051EC20F012C1DFF0DF5315E1090EF76EC3
:103A7000F40EF66EDFEC00F0040E016EDB514FEC3D
:103A800000F00B0EF76EF20EF66EDFEC00F00D0E8E
:103A9000E7EC00F014D00C0EF76E100EF66EDFECB3
:103AA00000F0040E016EDB514FEC00F00C0EF76ECF
:103AB000260EF66EDFEC00F00D0EE7EC00F014D0F1
:103AC0000C0EF76E100EF66EDFEC00F0040E016EB9
:103AD000DB514FEC00F00C0EF76E420EF66EDFEC91
:103AE00000F00D0EE7EC00F0DFC03AF0DFC0DCF0D4
:103AF0001200E26B800EE16FE2C0CBF0E1C0CAF0D1
:103B0000CDEC17F0CCC0E3F0E35312E1E2C016F1C4
:103B1000E1C015F10101186B176B000110EC21F0E9
:103B200019C1E3F0E35304E1EFEC12F0B1C0E3F0AC
:103B3000E3C0E0F012001C6A200E1B6E1E6AE4C097
:103B40001DF01D06000E1E5A1E50200DF3CF1EF054
:103B50001D50200DF3CF1DF0F4501E261D501B24C8
:103B6000E86F1E501C20E96F800EE825E66F000EFE
:103B7000E921E76FE7C0CBF0E6C0CAF0CDEC17F063
:103B8000CCC0EAF0EA5314E1E7C016F1E6C015F143
:103B9000E9C018F1E8C017F110EC21F019C1EAF002
:103BA000EA5306E1E4C0B5F061EC13F0B6C0EAF008
:103BB000EAC0E5F01200C56BFA0EC46FB3EC17F063
:103BC000C7C050F0C6C04FF0505205E10A0E4F5C1E
:103BD00002E2000E01D0010E236E010E505C06E3DE
:103BE00003E12D0E4F5C02E3000E01D0010E2316FF
:103BF0000001D8B46AD0C56BFC0EC46FB3EC17F0EB
:103C0000C7C052F0C6C051F0D26B510ED16FD46B09
:103C10000A0ED36F070ED66FD00ED56F06EC18F0D4
:103C2000AA6AC80EA96EFFEC00F0536EAA6AC90E0C
:103C3000A96EFFEC00F0546EAA6ACA0EA96EFFECE2
:103C400000F0556EC56BCC0EC46FB3EC17F0C7C057
:103C500057F0C6C056F0C56BCE0EC46FB3EC17F06C
:103C6000C7C059F0C6C058F05B6A5A6A5D6A5C6AA0
:103C70005F6A5E6A020E606E616E626E010E636E56
:103C8000020EED6F25D8030EED6F22D819EC18F057
:103C9000D7C0ECF0EC5306E1010EDB6F8EEC18F0B0
:103CA000DCC0ECF0EC5306E1020EDB6F8EEC18F09A
:103CB000DCC0ECF0EC5306E1030EDB6F8EEC18F089
:103CC000DCC0ECF0ECC0EBF002D0010EEB6F1200A8
:103CD000010EED5D16E1010E536E546A556A576A86
:103CE000566A596E6A0E586E5B6A5A6A5D6A5C6AF9
:103CF0005F6A5E6A020E606E616E626E010E636ED6
:103D000032D0020EED5D17E1010E696E6A6E6B6ACC
:103D10006D68CE0E6C6E6F6A640E6E6E716A706A3C
:103D2000736A726A756A746A020E766E776A786A66
:103D3000010E796E18D0030EED5D15E17A6A020E60
:103D40007B6E7C6A7E6A7D6A806B640E7F6E826B9E
:103D5000816B846B836B866B856B876B020E886FC0
:103D6000896F010E8A6F12000101010E2E6F000192
:103D700073EC22F02FC1EEF012000101020E2E6F43
:103D8000000173EC22F02FC1EFF012000101030ECD
:103D90002E6F000173EC22F02FC1F0F01200030E21
:103DA000F36FF26BF56BF669248224A27CD002EEED
:103DB0000AF00C0EF76E5E0EF66E79EC01F0EF6A0B
:103DC0004CEC12F0020EAA6F3FEC12F0030EAA6F39
:103DD0003FEC12F0040EAA6F3FEC12F0F25303E135
:103DE000010EF46F01D0F46B800E016EC00E30EC4A
:103DF00000F00C0EF76E740EF66E8AEC00F0010106
:103E0000020E236F0B0E246F50C026F14FC025F118
:103E1000F4C027F10001D0EC21F0010EF25D03E1C6
:103E2000010EF46F01D0F46B800E016E940E30EC35
:103E300000F00C0EF76E800EF66E8AEC00F00101B9
:103E4000030E1D6F0B0E1E6F52C020F151C01FF1EB
:103E5000F4C021F100018AEC21F0020EF25D12E1C2
:103E6000040EAB6F02EE2BF0420EEE6E610EEE6EA4
:103E7000630EEE6E6B0EEE6EEF6A010EAC6F62ECCF
:103E800012F010D0040EAB6F02EE2BF0420EEE6E6D
:103E9000610EEE6E630EEE6E6B0EEE6EEF6AAC6B45
:103EA00062EC12F02492ACEC12F02E52D8B44BD04B
:103EB000F55317E1010E2E5C0FE1FF0EF325056EA1
:103EC000066AFF0E0622065203E10550F25D03E288
:103ED0000001F22B248204D0F25302E0F207248284
:103EE00032D0F65317E1010E2E5C09E1010E505C51
:103EF0002C0ED8B44F5C02E24F4A502A09D05052DF
:103F000003E10B0E4F5C03E34F06000E505A000115
:103F1000248219D0010EF65D16E1010E2E5C09E136
:103F2000070E525CD00ED8B4515C02E2514A522ABC
:103F300009D0525203E10B0E515C03E35106000E0F
:103F4000525A00012482D8EC12F0D9EC12F0010E82
:103F5000B05D3CE1020E9A6F7EEC11F0F55317E173
:103F6000020EF25D04E1010EF16F12000FD0010E9E
:103F7000F56FF2C0F6F0F25305E150C0F8F04FC013
:103F8000F7F004D052C0F8F051C0F7F01FD0F6534C
:103F90000DE1D26B4F0ED16FD46B0A0ED36F010EB1
:103FA000D66F2C0ED56F06EC18F00CD0D26B510EDC
:103FB000D16FD46B0A0ED36F070ED66FD00ED56FAC
:103FC00006EC18F019EC18F0F56BF669EED6120055
:103FD000010EFE6F040EFE5D1BE2FAC0AAFFF9C0DF
:103FE000A9FFFB51EFEC00F00A0E06EC01F0FAC05D
:103FF000AAFFF9C0A9FFFFEC00F0FD6FFD51FB5DCA
:1040000002E1FC6B1200050E06EC01F0FE2BE2E370
:10401000050EFC6F120000C1FAF0FFC0F9F001C1FB
:10402000FBF0D6DFFCC004F101010453000103E002
:1040300004C103F11200010EFF25F96F000E01010A
:1040400000210001FA6F02C1FBF0C2DFFCC004F1E5
:1040500004C103F1120006C108F105C107F1120005
:1040600001010D6B0B05256E0E6B01010E51255CD8
:10407000000111E301010E510925A96E000E0A216C
:10408000AA6EFFEC00F001010F6F0F510D27010127
:104090000E2B0001EAE301010D5100080C6F000135
:1040A00012000C0EF76E8C0EF66EDFEC00F0040EB4
:1040B000016E046A11C114F010C113F052EC00F04B
:1040C0000D0EE7EC00F00C0EF76EB40EF66EDFECA2
:1040D00000F00D0EE7EC00F011C1FAF010C1F9F09C
:1040E000A50EFB6F75DFFCC014F101011453000134
:1040F00013E00C0EF76ECE0EF66EDFEC00F0040E41
:10410000016E010114514FEC00F00D0EE7EC00F0D0
:1041100014C112F1000112000C0EF76EF20EF66ED1
:10412000DFEC00F00D0EE7EC00F0010E01011025B0
:104130000001F96F000E010111210001FA6F010E5B
:10414000FB6F46DFFCC014F101011453000113E0C2
:104150000D0EF76E0E0EF66EDFEC00F0040E016E23
:10416000010114514FEC00F00D0EE7EC00F014C10A
:1041700012F1000112000D0EF76E340EF66EDFEC38
:1041800000F00D0EE7EC00F011C10AF110C109F1C9
:1041900001011F0E0B6F000163DF0CC113F10D0E47
:1041A000F76E500EF66EDFEC00F0040E016E020E9C
:1041B000046E0101135138EC00F00D0EE7EC00F035
:1041C0001F0E010110250001F96F000E01011121E0
:1041D0000001FA6F13C1FBF0FBDEFCC014F101011A
:1041E0001453000111E00D0EF76E6C0EF66EDFEC4D
:1041F00000F0040E016E010114514FEC00F00D0EA1
:10420000E7EC00F0000109D00D0EF76E920EF66E8D
:10421000DFEC00F00D0EE7EC00F014C112F112001B
:104220000D0EF76EB80EF66EDFEC00F0040E016EA8
:10423000046A16C114F015C113F052EC00F0200E00
:10424000E7EC00F0440EE7EC00F0730EE7EC00F052
:10425000740EE7EC00F03D0EE7EC00F0046A18C1C4
:1042600014F017C113F052EC00F00D0EE7EC00F063
:1042700001011A6B200E01011A5D00013EE20101ED
:104280001A511525A96E000E1621AA6EFFEC00F03A
:1042900001011B6F1A5117250001F96F000E010172
:1042A00018210001FA6F1BC1FBF092DEFCC01CF16B
:1042B00001011C5300011DE00D0EF76ED40EF66EC9
:1042C000DFEC00F0040E016E01011A514FEC00F01A
:1042D0000D0EF76EF00EF66EDFEC00F001011C51D2
:1042E0004FEC00F00D0EE7EC00F01CC119F10001DD
:1042F000120001011A2B0001BDE30D0EF76EFA0E3C
:10430000F66EDFEC00F00D0EE7EC00F00101196B2A
:10431000000112001C6A1EC11BF01B4A1C2A1E6AE7
:10432000080E1D6E050E1D5E000E1E5A1B501D242C
:104330000101226F1DC167F11EC168F10001F3EC9C
:1043400030F0010E0101215D000117E1800E016EC8
:104350001DC102F00101220512EC00F05B0E92EC8F
:1043600000F0800E016E1DC102F0090E01011E2534
:1043700012EC00F05D0E92EC00F00001800E016E78
:104380001DC102F00101225112EC00F0050E046E75
:1043900020C114F01FC113F052EC00F00001120014
:1043A0001C6A24C11BF01B4A1C2A1E6A080E1D6EC3
:1043B000050E1D5E000E1E5A1B501D240101286FA4
:1043C00023C167F124C168F10001F3EC30F0010E64
:1043D0000101275D000117E1800E016E23C102F08B
:1043E0000101280512EC00F05B0E92EC00F0800E4B
:1043F000016E23C102F0090E0101242512EC00F028
:104400005D0E92EC00F0000123C178F128C179F132
:1044100026C17BF125C17AF125EF32F00E0EF76E41
:10442000240EF66EDFEC00F002EE6DF0EE5003E0CD
:10443000E7EC00F0FBD7200EE7EC00F03D0EE7ECD8
:1044400000F0200EE7EC00F0040E016E046A2AC1B1
:1044500014F029C113F04DEC00F00D0EE7EF00F061
:104460000E0EF76E240EF66EDFEC00F002EE8EF00C
:10447000EE5003E0E7EC00F0FBD7200EE7EC00F095
:104480003D0EE7EC00F0200EE7EC00F0040E016EAC
:1044900001012B514FEC00F00D0EE7EC00F0000194
:1044A00012000E0EF76E240EF66EDFEC00F002EE38
:1044B000AFF0EE5003E0E7EC00F0FBD7200EE7ECA6
:1044C00000F03D0EE7EC00F0200EE7EC00F0040EEB
:1044D000016E046A2DC114F02CC113F052EC00F0EF
:1044E0000D0EE7EF00F00E0EF76E320EF66EDFECFB
:1044F00000F0040E016E01012E514FEC00F00D0E84
:10450000E7EC00F0010E01012E5D000121E153C036
:1045100030F154C031F157C033F156C032F159C0B7
:1045200035F158C034F15BC037F15AC036F15DC087
:1045300039F15CC038F15FC03BF15EC03AF160C058
:104540003CF161C03DF162C03EF163C03FF14BD030
:10455000020E01012E5D000121E169C030F16AC047
:1045600031F16DC033F16CC032F16FC035F16EC006
:1045700034F171C037F170C036F173C039F172C0D7
:1045800038F175C03BF174C03AF176C03CF177C0A8
:104590003DF178C03EF179C03FF125D0030E010115
:1045A0002E5D000120E17AC030F17BC031F17EC088
:1045B00033F17DC032F180C035F17FC034F182C06B
:1045C00037F181C036F184C039F183C038F186C03B
:1045D0003BF185C03AF187C03CF188C03DF189C00C
:1045E0003EF18AC03FF10E0EF76E540EF66EDFEC10
:1045F00000F0040E016E046A33C114F032C113F0EE
:1046000052EC00F00E0EF76E6C0EF66EDFEC00F062
:10461000046A35C114F034C113F052EC00F00D0EF1
:10462000E7EC00F0020E0101315D0001D8A457D083
:10463000010E01012E5D000110E10101416B55B039
:10464000412B426B55B2422B436B5FC045F15EC0BC
:1046500044F162C046F1000129D0020E01012E5D35
:10466000000110E10101416B6BB0412B426B6BB259
:10467000422B436B75C045F174C044F178C046F1DC
:10468000000114D0030E01012E5D00010EE10101B5
:10469000416B7CB0412B426B7CB2422B436B86C09A
:1046A00045F185C044F189C046F100010E0EF76E58
:1046B000780EF66EDFEC00F0040E016E0101415140
:1046C0004FEC00F00E0EF76E8C0EF66EDFEC00F085
:1046D000010142514FEC00F00D0EE7EC00F001013A
:1046E000476B486B248201013153000105E1010150
:1046F0000C0E496F000116D0010E0101315D000161
:1047000005E101010A0E496F00010CD0010141537E
:10471000000105E101010A0E496F000103D001010A
:10472000070E496F010149054D6F000124A208EFF2
:104730002AF0010E9A6F7EEC11F0800E016E30ECC3
:1047400000F0080EF76EBC0EF66E8AEC00F0800EDC
:10475000016E30EC00F00E0EF76E940EF66E8AECE1
:1047600000F0010E046E01012E5150EC00F00E0E0F
:10477000F76E9C0EF66E8AEC00F00001020EAA6F36
:104780003FEC12F0030EAA6F3FEC12F0040EAA6F7A
:104790003FEC12F0020E0101475D000104E201014D
:1047A000486B000121D0FF0E01014925056E066A04
:1047B000FF0E06220652000114E105500101475D7B
:1047C00000010FE3030E0101495D000106E3030E42
:1047D0000101495D486F000102D00101486B0001F1
:1047E00003D001014705486F0101020E4B6F050E12
:1047F00001014B5D0001D8B007EF2AF0FE0E010168
:104800004B251B6E1C6AFF0E1C2248511B244C6F4B
:104810004C514D5D0001D8A0FDEF29F001014C5134
:10482000475D000105E10101010E4A6F000102D060
:1048300001014A6B010131530001D8A470D001017C
:104840004C53000104E101014E6B000167D0010EE1
:1048500001014C5D000105E10101010E4E6F0001F7
:104860005DD0020E01014C5D000105E10101020E67
:104870004E6F000153D0030E01014C5D000105E1B4
:104880000101030E4E6F000149D0040E01014C5D81
:10489000000105E10101040E4E6F00013FD0050E3D
:1048A00001014C5D000105E10101050E4E6F0001A3
:1048B00035D0060E01014C5D000105E10101060E37
:1048C0004E6F00012BD0070E01014C5D000105E188
:1048D0000101070E4E6F000121D0080E01014C5D51
:1048E000000105E10101080E4E6F000117D0090E0D
:1048F00001014C5D000105E10101090E4E6F00014F
:104900000DD00A0E01014C5D000105E101010A0E06
:104910004E6F000102D001014E69000101D1010E6C
:104920000101315D0001D8A45CD001014C530001AC
:1049300004E101014E6B000153D0010E01014C5DF9
:10494000000105E10101010E4E6F000149D0020E88
:1049500001014C5D000105E10101020E4E6F0001F5
:104960003FD0030E01014C5D000105E10101030E82
:104970004E6F000135D0040E01014C5D000105E1D0
:104980000101040E4E6F00012BD0050E01014C5D9C
:10499000000105E10101060E4E6F000121D0060E57
:1049A00001014C5D000105E10101070E4E6F0001A0
:1049B00017D0070E01014C5D000105E10101090E50
:1049C0004E6F00010DD0080E01014C5D000105E1A4
:1049D00001010A0E4E6F000102D001014E69000173
:1049E0009FD001014C53000104E101014E6B000115
:1049F00097D0010E01014C5D000105E10101010E9E
:104A00004E6F00018DD0020E01014C5D000105E1E9
:104A100001010B0E4E6F000183D0030E01014C5DAE
:104A200000010EE101014153000105E101010C0EFD
:104A30004E6F000103D001010D0E4E6F000170D0CA
:104A4000040E01014C5D00010EE101014153000122
:104A500005E10101020E4E6F000103D001010E0EAF
:104A60004E6F00015DD0050E01014C5D00010EE1AD
:104A700001014153000105E10101030E4E6F0001E8
:104A800003D001010F0E4E6F00014AD0060E010146
:104A90004C5D00010EE101014153000105E10101FE
:104AA0000E0E4E6F000103D001010A0E4E6F000181
:104AB00037D0070E01014C5D00010DE101014153AA
:104AC000000105E101010F0E4E6F000102D001014E
:104AD0004E69000125D0080E01014C5D00010DE179
:104AE00001014153000105E101010A0E4E6F000171
:104AF00002D001014E69000113D0090E01014C5D85
:104B000000010CE101014153000104E101014E6982
:104B1000000102D001014E69000102D001014E697D
:104B200001014E29000113E14BC163F102EED0F007
:104B3000420EEE6E610EEE6E630EEE6E6B0EEE6E5C
:104B4000EF6A4AC164F1ACEC30F0FCEF29F00101EE
:104B50004E5300013FE1800E016E4BC102F0010E89
:104B600012EC00F00E0EF76EAA0EF66E8AEC00F054
:104B7000010E0101305D000116E14BC169F1010137
:104B80000B0E6A6F02EEF1F00E0EF76EB60EF66EB9
:104B900079EC01F0EF6A4AC16BF101016C6B000125
:104BA00003EC31F015D04BC169F101010B0E6A6FB6
:104BB00002EEF1F00E0EF76EBE0EF66E79EC01F01D
:104BC000EF6A4AC16BF101016C6B000103EC31F03B
:104BD000FCEF29F0010E01014E5D0001D8A45BD06D
:104BE000800E016E4BC102F0010E12EC00F00E0EB1
:104BF000F76EC80EF66E8AEC00F001013153000129
:104C000016E14BC169F101010B0E6A6F02EEF1F082
:104C1000090EF76E520EF66E79EC01F0EF6A4AC19A
:104C20006BF101016C6B000103EC31F032D0010E2D
:104C30000101315D000117E14BC169F101010B0E6A
:104C40006A6F02EEF1F0540EEE6E650EEE6E6D0EB2
:104C5000EE6E700EEE6EEF6A4AC16BF16C6B000186
:104C600003EC31F016D04BC169F101010B0E6A6FF4
:104C700002EEF1F0460EEE6E6C0EEE6E6F0EEE6E04
:104C8000770EEE6EEF6A4AC16BF16C6B000103ECBC
:104C900031F0FCEF29F0020E01014E5D000128E128
:104CA000800E016E4BC102F0010E12EC00F00E0EF0
:104CB000F76ED40EF66E8AEC00F033C106F132C105
:104CC00005F12BEC20F008C152F107C151F14BC1A5
:104CD0006FF101010B0E706F52C172F151C171F190
:104CE0004AC173F1746B000176EC31F0FCEF29F0EE
:104CF000030E01014E5D000128E1800E016E4BC1E3
:104D000002F0010E12EC00F00E0EF76EE00EF66EE1
:104D10008AEC00F035C106F134C105F12BEC20F02E
:104D200008C154F107C153F14BC16FF101010B0EE2
:104D3000706F54C172F153C171F14AC173F1746B58
:104D4000000176EC31F0FCEF29F0040E01014E5D1C
:104D500000012FE10101315300010EE1800E016ECF
:104D60004BC102F0010E12EC00F00E0EF76EEC0ECD
:104D7000F66E8AEC00F00DD0800E016E4BC102F091
:104D8000010E12EC00F00E0EF76EF80EF66E8AECC5
:104D900000F04BC123F101010B0E246F37C126F146
:104DA00036C125F14AC127F10001D0EC21F0FCEF1A
:104DB00029F0050E01014E5D00011DE1800E016E1E
:104DC0004BC102F0010E12EC00F00F0EF76E040E54
:104DD000F66E8AEC00F04BC123F101010B0E246F3B
:104DE00039C126F138C125F14AC127F10001D0ECC3
:104DF00021F0FCEF29F0060E01014E5D00012FE1CC
:104E00000101315300010EE1800E016E4BC102F031
:104E1000010E12EC00F00F0EF76E100EF66E8AEC1B
:104E200000F00DD0800E016E4BC102F0010E12ECAD
:104E300000F00F0EF76E1C0EF66E8AEC00F04BC100
:104E400023F101010B0E246F3BC126F13AC125F17C
:104E50004AC127F10001D0EC21F0FCEF29F0070E48
:104E600001014E5D0001D8A461D0800E016E4BC1DE
:104E700002F0010E12EC00F00F0EF76E280EF66E27
:104E80008AEC00F001013C53000113E14BC169F1D0
:104E900001010B0E6A6F02EEF1F04E0EEE6E6F0E18
:104EA000EE6EEF6A4AC16BF16C6B000103EC31F0FE
:104EB0003BD0010E01013C5D000119E14BC169F1DC
:104EC00001010B0E6A6F02EEF1F0500EEE6E750EE0
:104ED000EE6E6C0EEE6E730EEE6E650EEE6EEF6A9B
:104EE0004AC16BF16C6B000103EC31F01DD0020E76
:104EF00001013C5D000118E14BC169F101010B0E9C
:104F00006A6F02EEF1F04C0EEE6E610EEE6E740EF4
:104F1000EE6E630EEE6E680EEE6EEF6A4AC16BF1D6
:104F20006C6B000103EC31F0FCEF29F0080E01017D
:104F30004E5D0001D8A460D0800E016E4BC102F01E
:104F4000010E12EC00F00F0EF76E340EF66E8AECC6
:104F500000F001013D53000113E14BC169F1010172
:104F60000B0E6A6F02EEF1F04E0EEE6E6F0EEE6EED
:104F7000EF6A4AC16BF16C6B000103EC31F03BD07E
:104F8000010E01013D5D000119E14BC169F1010113
:104F90000B0E6A6F02EEF1F0500EEE6E750EEE6EB5
:104FA0006C0EEE6E730EEE6E650EEE6EEF6A4AC11B
:104FB0006BF16C6B000103EC31F01DD0020E0101AE
:104FC0003D5D000118E14BC169F101010B0E6A6FF3
:104FD00002EEF1F04C0EEE6E610EEE6E740EEE6EA1
:104FE000630EEE6E680EEE6EEF6A4AC16BF16C6B8B
:104FF000000103EC31F000D2090E01014E5D000109
:10500000D8A472D00101315300010EE1800E016E6F
:105010004BC102F0010E12EC00F00F0EF76E400EC5
:10502000F66E8AEC00F00DD0800E016E4BC102F0DE
:10503000010E12EC00F00F0EF76E4C0EF66E8AECBD
:1050400000F001013E53000113E14BC169F1010180
:105050000B0E6A6F02EEF1F04E0EEE6E6F0EEE6EFC
:10506000EF6A4AC16BF16C6B000103EC31F03BD08D
:10507000010E01013E5D000119E14BC169F1010121
:105080000B0E6A6F02EEF1F0500EEE6E750EEE6EC4
:105090006C0EEE6E730EEE6E650EEE6EEF6A4AC12A
:1050A0006BF16C6B000103EC31F01DD0020E0101BD
:1050B0003E5D000118E14BC169F101010B0E6A6F01
:1050C00002EEF1F04C0EEE6E610EEE6E740EEE6EB0
:1050D000630EEE6E680EEE6EEF6A4AC16BF16C6B9A
:1050E000000103EC31F088D10A0E01014E5D000190
:1050F0003AE1800E016E4BC102F0010E12EC00F09D
:105100000F0EF76E580EF66E8AEC00F0010E0101DC
:105110003F5D000115E14BC169F101010B0E6A6FA2
:1051200002EEF1F0590EEE6E650EEE6E730EEE6E3F
:10513000EF6A4AC16BF16C6B000103EC31F012D0E5
:105140004BC169F101010B0E6A6F02EEF1F04E0ED8
:10515000EE6E6F0EEE6EEF6A4AC16BF16C6B000182
:1051600003EC31F049D10B0E01014E5D00013DE130
:10517000800E016E4BC102F0010E12EC00F00F0E1A
:10518000F76E640EF66E8AEC00F0010141530001E7
:1051900016E14BC169F101010B0E6A6F02EEF1F0ED
:1051A0000F0EF76E700EF66E79EC01F0EF6A4AC1E1
:1051B0006BF101016C6B000103EC31F015D04BC1B8
:1051C00069F101010B0E6A6F02EEF1F00F0EF76E3E
:1051D000780EF66E79EC01F0EF6A4AC16BF10101CD
:1051E0006C6B000103EC31F007D10C0E01014E5D38
:1051F000000137E1800E016E4BC102F0010E12EC8E
:1052000000F00F0EF76E800EF66E8AEC00F00101D2
:105210004253000111E14BC169F101010B0E6A6FAC
:1052200002EEF1F0250EEE6EEF6A4AC16BF16C6B87
:10523000000103EC31F014D04BC169F101010B0EF8
:105240006A6F02EEF1F04C0EEE6E700EEE6E530EC3
:10525000EE6EEF6A4AC16BF16C6B000103EC31F04A
:10526000CBD00D0E01014E5D00013DE1800E016EBF
:105270004BC102F0010E12EC00F00F0EF76E8C0E17
:10528000F66E8AEC00F001014353000116E14BC1B8
:1052900069F101010B0E6A6F02EEF1F00F0EF76E6D
:1052A000980EF66E79EC01F0EF6A4AC16BF10101DC
:1052B0006C6B000103EC31F015D04BC169F10101B9
:1052C0000B0E6A6F02EEF1F00F0EF76EA00EF66E87
:1052D00079EC01F0EF6A4AC16BF101016C6B0001DE
:1052E00003EC31F089D00E0E01014E5D00011CE18E
:1052F000800E016E4BC102F0010E12EC00F00F0E99
:10530000F76EAA0EF66E8AEC00F04BC123F1010194
:105310000B0E246F45C126F144C125F14AC127F186
:105320000001D0EC21F068D00F0E01014E5D0001AC
:10533000D8A462D0800E016E4BC102F0010E12ECB7
:1053400000F00F0EF76EB60EF66E8AEC00F001015B
:105350004653000116E14BC169F101010B0E6A6F62
:1053600002EEF1F00F0EF76EC20EF66E79EC01F060
:10537000EF6A4AC16BF101016C6B000103EC31F083
:105380003BD0010E0101465D000119E14BC169F1FD
:1053900001010B0E6A6F02EEF1F0500EEE6E750E0B
:1053A000EE6E6C0EEE6E730EEE6E650EEE6EEF6AC6
:1053B0004AC16BF16C6B000103EC31F01DD0020EA1
:1053C0000101465D000118E14BC169F101010B0EBD
:1053D0006A6F02EEF1F04C0EEE6E610EEE6E740E20
:1053E000EE6E630EEE6E680EEE6EEF6A4AC16BF102
:1053F0006C6B000103EC31F004D04BC1AAF03FEC20
:1054000012F001014B2B0001D8A0F7EF23F02492FA
:10541000ACEC12F02E5214E0010E2E5C09E10101F9
:105420004D51475D000102E20101472B000107D009
:1054300001014753000102E00101470700012482F6
:1054400096EC12F0010EAD5D05E10101020E2F6F29
:1054500000011200D8EC12F0D9EC12F0010EB05D90
:10546000D8A4A4EF30F001014851475D1B6E1C6ABF
:10547000D8A01C06020E1B244F6F31530001D8A484
:1054800070D001014753000104E101014E6B00019E
:1054900067D0010E0101475D000105E10101010E28
:1054A0004E6F00015DD0020E0101475D000105E174
:1054B0000101020E4E6F000153D0030E0101475D42
:1054C000000105E10101030E4E6F000149D0040EF9
:1054D0000101475D000105E10101040E4E6F00016D
:1054E0003FD0050E0101475D000105E10101050EF8
:1054F0004E6F000135D0060E0101475D000105E148
:105500000101060E4E6F00012BD0070E0101475D11
:10551000000105E10101070E4E6F000121D0080EC8
:105520000101475D000105E10101080E4E6F000118
:1055300017D0090E0101475D000105E10101090EC7
:105540004E6F00010DD00A0E0101475D000105E11B
:1055500001010A0E4E6F000102D001014E690001E7
:1055600001D1010E0101315D0001D8A45CD001011F
:105570004753000104E101014E6B000153D0010EBD
:105580000101475D000105E10101010E4E6F0001BF
:1055900049D0020E0101475D000105E10101020E43
:1055A0004E6F00013FD0030E0101475D000105E190
:1055B0000101030E4E6F000135D0040E0101475D5D
:1055C000000105E10101040E4E6F00012BD0050E14
:1055D0000101475D000105E10101060E4E6F00016A
:1055E00021D0060E0101475D000105E10101070E12
:1055F0004E6F000117D0070E0101475D000105E164
:105600000101090E4E6F00010DD0080E0101475D2A
:10561000000105E101010A0E4E6F000102D00101F7
:105620004E6900019FD001014753000104E10101CF
:105630004E6B000197D0010E0101475D000105E1AD
:105640000101010E4E6F00018DD0020E0101475D78
:10565000000105E101010B0E4E6F000183D0030E26
:105660000101475D00010EE101014153000105E127
:1056700001010C0E4E6F000103D001010D0E4E6FA3
:10568000000170D0040E0101475D00010EE101012F
:105690004153000105E10101020E4E6F000103D0EC
:1056A00001010E0E4E6F00015DD0050E0101475D38
:1056B00000010EE101014153000105E10101030E6A
:1056C0004E6F000103D001010F0E4E6F00014AD052
:1056D000060E0101475D00010EE101014153000189
:1056E00005E101010E0E4E6F000103D001010A0E0B
:1056F0004E6F000137D0070E0101475D00010DE13B
:1057000001014153000105E101010F0E4E6F00013F
:1057100002D001014E69000125D0080E0101475D4C
:1057200000010DE101014153000105E101010A0EF3
:105730004E6F000102D001014E69000113D0090E25
:105740000101475D00010CE101014153000104E149
:1057500001014E69000102D001014E69000102D031
:1057600001014E6901014E2900010BE1020E9A6F01
:105770007EEC11F00101010E2F6F00011200A4EF69
:1057800030F001014E530001D8A458D00F0EF76E2F
:10579000CC0EF66EDFEC00F00D0EE7EC00F030C141
:1057A00090F14FC191F1C5EC33F092C140F1100E70
:1057B000F76E020EF66EDFEC00F0040E016E0101D2
:1057C00040514FEC00F00D0EE7EC00F001014051AC
:1057D000305D000127E040C130F1100EF76E260E5B
:1057E000F66EDFEC00F00D0EE7EC00F0010E0101AB
:1057F0002E5D000103E130C153F00FD0020E010114
:105800002E5D000103E130C169F007D0030E0101F4
:105810002E5D000102E130C17AF02EC1DBF08EEC8A
:1058200018F009D0100EF76E4E0EF66EDFEC00F099
:105830000D0EE7EC00F02482A4EF30F0010E010120
:105840004E5D0001D8A4B4D0100EF76E680EF66E4F
:10585000DFEC00F0040E016E010131514FEC00F05D
:105860000D0EE7EC00F031C1AFF14FC1B0F1000116
:105870009CEC37F0B1C140F1100EF76E800EF66E61
:10588000DFEC00F0040E016E010140514FEC00F01E
:105890000D0EE7EC00F001014051315D0001D8B47C
:1058A0007BD040C131F1100EF76E9E0EF66EDFEC2C
:1058B00000F0040E016E010131514FEC00F00D0EAD
:1058C000E7EC00F0020E0101315D000128E1010E5C
:1058D00001012E5D000109E10101416B55B0412B31
:1058E000426B55B2422B00011AD0020E01012E5D0F
:1058F000000109E10101416B6BB0412B426B6BB2BE
:10590000422B00010CD0030E01012E5D000107E1C6
:105910000101416B7CB0412B426B7CB2422B010EEA
:1059200001012E5D000111E131C154F0100EF76E3E
:10593000B60EF66EDFEC00F0040E016E54504FEC24
:1059400000F00D0EE7EC00F00FD0020E01012E5D0D
:10595000000103E131C16AF007D0030E01012E5DA1
:10596000000102E131C17BF02EC1DBF08EEC18F0BA
:10597000100EF76ED00EF66EDFEC00F0040E016E26
:1059800001012E514FEC00F0290EE7EC00F00D0E56
:10599000E7EC00F0000109D0100EF76EE40EF66E91
:1059A000DFEC00F00D0EE7EC00F02482A4EF30F005
:1059B000020E01014E5D0001D8A4ECD033C106F106
:1059C00032C105F12BEC20F008C156F107C155F1A9
:1059D00056C158F155C157F1100EF76EF80EF66E1C
:1059E000DFEC00F0040E016E046A33C114F032C122
:1059F00013F052EC00F0110EF76E180EF66EDFEC9D
:105A000000F0046A56C114F055C113F04DEC00F0DB
:105A10000D0EE7EC00F056C1D9F155C1D8F14FC1D8
:105A2000DAF1B5EC3CF0DCC156F1DBC155F1110EF9
:105A3000F76E220EF66EDFEC00F0040E016E046AC3
:105A400056C114F055C113F04DEC00F00D0EE7EC0B
:105A500000F001015851565D05E15751555D0001B7
:105A6000D8B48CD056C160F155C15FF10001A7ECEC
:105A700030F062C133F161C132F1110EF76E420EA6
:105A8000F66EDFEC00F0040E016E046A33C114F010
:105A900032C113F052EC00F00D0EE7EC00F0010EF5
:105AA00001012E5D00012DE1110EF76E660EF66EFE
:105AB000DFEC00F0040E016E046A57C014F056C00B
:105AC00013F052EC00F0200EE7EC00F06E0EE7EC65
:105AD00000F0650EE7EC00F0770EE7EC00F03D0E0D
