:020000040000FA
:10000000000000008CEF02F09FEF02F0800E016E06
:10001000FE0EB1D8010EAFD8750E0A6E300ED2D0DA
:10002000016A018E126E1252D8A41206FE0EA3D8D7
:10003000025202E0022C02D0800E0ED00250020AC0
:1000400002E1C00E09D00250030A02E1940E04D06E
:100050000250040A02E1D40E026E125002248BD028
:10006000016A018E126EFE0E86D8125084D0046A88
:100070000D6E0E6A00960450D8B40086050E036E0D
:10008000270E0C6E100E0CD8030E0C6EE80E08D85E
:100090000C6A640E05D80C6A0A0E02D80D5007D0FF
:1000A0000B6E0E500A6E0D50096E96D80950096EEF
:1000B000034E0096045002E0035C07E20950D8A406
:1000C000009600B602D0300F56D01200A66AA68E57
:1000D0000900F55002E002D8FBD71200106E899E8D
:1000E000899C929E929CF00E9216105000B21ED0E7
:1000F0003A0E0A6E980E66D8330E0F6E29D8130E7C
:100100000A6E880E5FD824D8640E5BD821D8640E9E
:1001100058D8220E0F6E1CD8280E07D80C0E05D802
:10012000060E03D80082105001D000800F6E00A090
:1001300009D0899C03080AE309D8070E0A6ED00E7D
:1001400041D812000080FE0814E0898C0F3A00A00C
:100150000090898EF00E80160F500F0B8012000059
:1001600000D0899E0F3A000000D000B0F1D7320EC7
:1001700028D81050120001BEB1D7A86EA66AA68476
:10018000550EA76EAA0EA76EA682A6B2FED7A6949B
:10019000A94AAA2AA68E1200A96EA66AA680A8500D
:1001A000A94AAA2AA68E12000C6A0B6EFF0E0B2615
:1001B0000C2200D0D8A01200030E0A6EE60E02D860
:1001C000F5D70A6AFD0F096E01D00906000000D0BC
:1001D000E86A0A5AFAE212000E6A0D6A100EF36E0D
:1001E0000A340D360E360B500D5C0C500E5805E3DC
:1001F0000B500D5E0C500E5AD88009360A36F32E7D
:10020000EFD709501200A66AA68E0900F55002E049
:10021000EE6EFBD7120049525249535953204D41BB
:10022000494E202020202020202000004F505449FB
:100230004F4E53202020202020202020202020202E
:1002400000004D61696E204D656E750053657475D3
:1002500070204D656E7500005574696C6974792065
:100260004D656E75000020202020202020202020B9
:100270002020202020202020202000005554494C00
:100280004954592028535455422920202020202009
:1002900000005345545550202020202020202020AD
:1002A0002020202020200000496E7075742031002D
:1002B000496E707574203200496E70757420330079
:1002C000494E505554203200494E50555420330069
:1002D0002028535455422920202020202000494E18
:1002E0005055542031202020202020202020202064
:1002F00020200000456E61626C65000053656E73DE
:100300006F72205479706500456469742050617281
:10031000616D7300464C4F57204544495400544585
:100320004D50204544495400454E41424C452049DA
:100330004E505554204649525354000045444954A8
:100340003A205945532F4E4F00005B5965735D208D
:10035000204E6F2020202020202020202020000060
:100360002059657320205B4E6F5D202020202020C7
:1003700020202020000053454E534F522054595006
:10038000452020202020202020200000507265736E
:1003900073757265000054656D7065726174757275
:1003A0006500493120505245535355524520202075
:1003B00020202020202000005B5363616C652034E6
:1003C0006D612020205B00005363616C6520346DFB
:1003D000612020205B005B5363616C652032306DCF
:1003E0006120205B00005363616C652032306D61D9
:1003F00020205B0048696768204250202020202090
:100400005B6D6D3A73735D00504C5042502020205C
:10041000202020205B6D6D3A73735D00534C504279
:1004200050202020202020205B6D6D3A73735D00EA
:10043000526C792048696768202020205B4C2F503F
:100440002F4E6F5D0000526C7920504C42202020CE
:1004500020205B4C2F502F4E6F5D0000526C792096
:10046000534C5020202020205B4C2F502F4E6F5D8E
:100470000000446973706C617920202020205B5952
:1004800065732F4E6F5D0000454449543A204F5527
:1004900054505554204D4F4445005B4E6F5D202015
:1004A00050756C736520204C617463682020202097
:1004B0000000204E6F20205B50756C73655D204CF2
:1004C00061746368202020200000204E6F202020CF
:1004D00050756C7365205B4C617463685D2020000F
:1004E000454449543A20574F52442056414C5545B3
:1004F00000002056616C75653A205B005D2020206D
:100500002020202020200000454449543A20445512
:10051000524154494F4E0000006A00010F0EC16E57
:10052000070EB46EF294F28AF28ED58EC40ED56E9A
:10053000060ED66EF294F28AF28EF2940DD000017D
:10054000F2A409D0F294060ED66EF294162A000E8A
:10055000172218221922110061D967D915D81582DE
:10056000159015941596256A1E6A1D6A1C6A1B6AE9
:100570001A6A030E3A5C02E3010E3A6E5BD87FD82A
:100580004A5200E1FBD7FFD7AA6A0A0EA96E05DE20
:10059000396EAA6A0B0EA96E00DE3A6EAA6A0C0EBC
:1005A000A96ECDEC00F03B6EAA6A0E0EA96ECDECE2
:1005B00000F03C6ECDEC00F03D6EAA6A100EA96E04
:1005C000CDEC00F03E6ECDEC00F03F6EAA6A120E4C
:1005D000A96ECDEC00F0406ECDEC00F0416EAA6A41
:1005E000140EA96ECDEC00F0426ECDEC00F0436E1F
:1005F000AA6A160EA96ECDEC00F0446ECDEC00F0A8
:10060000456EAA6A180EA96ECDEC00F0466EAA6A75
:10061000190EA96ECDEC00F0476EAA6A1A0EA96EEB
:10062000CDEC00F0486EAA6A1B0EA96ECDEC00F06E
:10063000496E1200159000EE86F0020EF76E160E4F
:10064000F66E03EC01F0EF6A1AD9020E526E0AD967
:10065000030E526E07D9040E526E04D91582B2D918
:1006600019DA5C2C02D00AD007D0020E5C6201D0ED
:1006700003D0030E5C6200D0F2D700D01200030E4C
:100680004D6E4B6A4C6A1590158215A285D000EE0E
:1006900086F0020EF76E2C0EF66E03EC01F0EF6A98
:1006A000EED8020E526EDED8030E526EDBD8040E68
:1006B000526ED8D84C504B6002D04BC04CF0066AFA
:1006C000020E4C24056ED8B0062A065206E14B50A5
:1006D000056003D0020E4B5C4C6E4C52D8A45BD02C
:1006E0004B520FE1020E536E00EEA7F0020EF76EB2
:1006F000420EF66E03EC01F0EF6A010E546ED5D88F
:100700000DD0020E536E00EEA7F0020EF76E420EF1
:10071000F66E03EC01F0EF6A546AC7D84B520FE152
:10072000030E536E00EEA7F0020EF76E4C0EF66E3F
:1007300003EC01F0EF6A010E546EB7D80DD0030E32
:10074000536E00EEA7F0020EF76E4C0EF66E03EC41
:1007500001F0EF6A546AA9D84B520FE1040E536EB0
:1007600000EEA7F0020EF76E580EF66E03EC01F0E5
:10077000EF6A010E546E99D80DD0040E536E00EE40
:10078000A7F0020EF76E580EF66E03EC01F0EF6A5A
:10079000546A8BD800D01592BBD8202C0ED0FF0EF7
:1007A0004D24056E066AFF0E0622065203E105502F
:1007B0004B6002D04B2A158206D0203C04D04B520D
:1007C00002E04B061582FED865D95C2C14D04B5242
:1007D00004E1010E4A6E21D00CD04B2C06D0BCD9BE
:1007E0005F5202E14A6A19D004D0020E4B6201D076
:1007F0008AD915820BD0020E5C6203D04A6A0DD0F2
:1008000005D0030E5C6202D04A6A07D048D95D5217
:1008100002E04A6A02D039D700D01200100E926E60
:10082000460E936E946A00D012004F6A320E4E6EDE
:1008300008D806EC00F04F6A0A0E4E6E02D800D0BF
:100840001200516A010E506E50504E5C51504F587C
:1008500007E3010ED4EC00F0502A000E5122F4E31D
:1008600000D01200800E016E52C002F0010E12EC98
:1008700000F0020EF76E660EF66E66EF00F0800E68
:10088000016E30EC00F0020EF76E660EF66E66EC4E
:1008900000F0800E016E30EC00F000EE86F0EE50BD
:1008A00003E06EEC00F0FBD71200800E016E53C027
:1008B00002F0010E12EC00F0020EF76E660EF66EFC
:1008C00066EC00F0542C15D0800E016E53C002F07F
:1008D000010E12EC00F05B0E6EEC00F000EEA7F0E3
:1008E000EE5003E06EEC00F0FBD75D0E6EEC00F016
:1008F0000ED0800E016E53C002F0020E12EC00F01A
:1009000000EEA7F0EE5003E06EEC00F0FBD7120013
:10091000556A81B2552A566A81B4562A555202E167
:10092000556A02D0010E556E565202E1566A02D047
:10093000010E566ED8905534136E146A1436565004
:100940001310576E206A1E520AE1572C02D0010E76
:10095000206E020E576202D0FF0E206E25D01E2C94
:100960000AD0030E576202D0010E206E575202E1E8
:10097000FF0E206E19D0030E1E620AD0020E5762BF
:1009800002D0010E206E572C02D0FF0E206E0CD02C
:10099000020E1E6209D0575202E1010E206E030EB4
:1009A000576202D0FF0E206E57C01EF0205208E0A2
:1009B00016C01AF017C01BF018C01CF019C01DF0AB
:1009C00000D0120081BC02D0158801D0159815A85E
:1009D0000CD015B608D016C021F017C022F018C0F0
:1009E00023F019C024F0158653D015A650D02150FD
:1009F000165C586E22501758596E235018585A6E6C
:100A0000245019585B6E000E5B5C10E30BE1000E86
:100A10005A5C0CE307E1070E595C08E303E1080E9A
:100A2000585C04E3030E256E000127D0000E5B5CCA
:100A300010E30BE1000E5A5C0CE307E1030E595C76
:100A400008E303E1840E585C04E3020E256E000106
:100A500014D0000E5B5C10E30BE1000E5A5C0CE35B
:100A600007E1000E595C08E303E1C80E585C04E39B
:100A7000010E256E000101D0256A255208E016C03E
:100A80001AF017C01BF018C01CF019C01DF0159605
:100A900000D0120025C05CF0256A00D01200FADFF9
:100AA0005CC05EF0020E5E6204D01584010E5D6EC5
:100AB00029D0030E5E6204D01584010E5D6E22D033
:100AC0001A50165C056E1B501758066E1C501858AD
:100AD000076E1D501958086E000E085C11E30BE1FB
:100AE000000E075C0DE307E1750E065C09E303E108
:100AF000300E055C05E31584010E5D6E000102D029
:100B00005D6A00D01200159000EE86F0020EF76EBE
:100B10007C0EF66E03EC01F0EF6AB1DE020E526E4F
:100B2000A1DE030E526E9EDE040E526E9BDE4ADF85
:100B3000B1DF5C2C02D00FD009D0020E5C6202D073
:100B40000AD004D0030E5C6201D005D0A8DF5D524C
:100B500002E1EDD700D01200030E626E606A616A96
:100B60001590158215A285D000EE86F0020EF76E64
:100B7000920EF66E03EC01F0EF6A81DE020E526E09
:100B800071DE030E526E6EDE040E526E6BDE61502D
:100B9000606002D060C061F0066A020E6124056EDA
:100BA000D8B0062A065206E16050056003D0020E56
:100BB000605C616E6152D8A45BD060520FE1020E9E
:100BC000536E00EEA7F0020EF76EA80EF66E03EC61
:100BD00001F0EF6A010E546E68DE0DD0020E536E06
:100BE00000EEA7F0020EF76EA80EF66E03EC01F011
:100BF000EF6A546A5ADE602C0FD0030E536E00EE7B
:100C0000A7F0020EF76EB00EF66E03EC01F0EF6A7D
:100C1000010E546E4ADE0DD0030E536E00EEA7F0A7
:100C2000020EF76EB00EF66E03EC01F0EF6A546A36
:100C30003CDE020E60620FD0040E536E00EEA7F091
:100C4000020EF76EB80EF66E03EC01F0EF6A010EBD
:100C5000546E2BDE0DD0040E536E00EEA7F0020E84
:100C6000F76EB80EF66E03EC01F0EF6A546A1DDE03
:100C700015924EDE202C0ED0FF0E6224056E066A01
:100C8000FF0E0622065203E10550606002D0602A82
:100C9000158206D0203C04D0605202E06006158226
:100CA00091DEF8DE5C2C24D0605206E16AD86352F3
:100CB00002E15F6A2FD01AD0602C0BD000EEC8F092
:100CC000020EF76EC00EF66E03EC01F0EF6A23D849
:100CD0000DD0020E60620AD000EEC8F0020EF76E70
:100CE000C80EF66E03EC01F0EF6A15D815820BD032
:100CF000020E5C6203D05F6A0DD005D0030E5C6209
:100D000002D05F6A07D0CBDE5D5202E05F6A02D09C
:100D100029D700D01200159000EE86F010EEC8F032
:100D2000200EE75204E0E6CFEEFFE82EFAD7020EDF
:100D3000F76ED00EF66E03EC01F0EF6A3FEC04F0B4
:100D4000020E526E32EC04F0030E526E32EC04F0DE
:100D5000040E526E32EC04F035DE9CDE5C2C02D0C8
:100D60000FD009D0020E5C6202D00AD004D0030E6C
:100D70005C6201D005D093DE5D5202E1EDD700D078
:100D80001200646A1590158215A279D000EE86F0E3
:100D9000020EF76EDE0EF66E03EC01F0EF6A3FEC2A
:100DA00004F0020E526E32EC04F0030E526E32EC7E
:100DB00004F0040E526E32EC04F0645210E1020EA4
:100DC000536E00EEA7F0020EF76EF40EF66E03EC13
:100DD00001F0EF6A010E546E55EC04F00ED0020ED5
:100DE000536E00EEA7F0020EF76EF40EF66E03ECF3
:100DF00001F0EF6A546A55EC04F0642C10D0030E35
:100E0000536E00EEA7F0020EF76EFC0EF66E03ECCA
:100E100001F0EF6A010E546E55EC04F00ED0030E93
:100E2000536E00EEA7F0020EF76EFC0EF66E03ECAA
:100E300001F0EF6A546A55EC04F0020E646210D0BF
:100E4000040E536E00EEA7F0030EF76E080EF66E5A
:100E500003EC01F0EF6A010E546E55EC04F00ED075
:100E6000040E536E00EEA7F0030EF76E080EF66E3A
:100E700003EC01F0EF6A546A55EC04F0159288EC2B
:100E800004F0202C06D0020E646002D0642A158281
:100E900006D0203C04D0645202E064061582E2ECE5
:100EA00004F0F8DD5C2C47D0645209E1390E656E20
:100EB00056D8010E665CD8B4A7EF0CF03AD0642C7B
:100EC00006D0AED8685202E1636A48D032D0020E32
:100ED00064622FD0392C23D03A2C06D055D96A52CF
:100EE00002E1636A3BD01AD03A520BE100EEC8F03F
:100EF000030EF76E140EF66E03EC01F0EF6A0BDFD3
:100F00000DD0020E3A620AD000EEC8F0030EF76E62
:100F10001E0EF66E03EC01F0EF6AFDDE0AD000EE65
:100F2000C8F0030EF76E280EF66E03EC01F0EF6AC0
:100F3000F2DE15820BD0020E5C6203D0636A0ED023
:100F400005D0030E5C6202D0636A08D04FEC05F056
:100F50005D5202E0636A02D017D700D0120065C06C
:100F600067F0158215A231D000EE86F0030EF76E01
:100F70003C0EF66E03EC01F0EF6A3FEC04F0020E5B
:100F8000526E32EC04F0030E526E32EC04F0040E9A
:100F9000526E32EC04F0672C0CD0800E016E940E71
:100FA00030EC00F0030EF76E4A0EF66E66EC00F0C1
:100FB0000BD0800E016E940E30EC00F0030EF76E35
:100FC000600EF66E66EC00F0159288EC04F020528C
:100FD00007E0672C02D0676A02D0010E676E1582A7
:100FE000E2EC04F04AEC05F05C2C06D067C065F03A
:100FF000010E666E14D00BD0020E5C6203D0666ADE
:101000000ED005D0030E5C6202D0666A08D04FECA9
:1010100005F05D5202E0666A02D0A4D700D012004B
:101020003AC069F01590158215A27DD000EE86F0C9
:10103000030EF76E760EF66E03EC01F0EF6A3FECEE
:1010400004F0020E526E32EC04F0030E526E32ECDB
:1010500004F0040E526E32EC04F0695212E1020EFA
:10106000536E00EEA7F0460EEE6E6C0EEE6E6F0E37
:10107000EE6E770EEE6EEF6A010E546E55EC04F0D4
:1010800010D0020E536E00EEA7F0460EEE6E6C0E00
:10109000EE6E6F0EEE6E770EEE6EEF6A546A55ECE2
:1010A00004F0692C10D0030E536E00EEA7F0030E6F
:1010B000F76E8C0EF66E03EC01F0EF6A010E546EC3
:1010C00055EC04F00ED0030E536E00EEA7F0030EA5
:1010D000F76E8C0EF66E03EC01F0EF6A546A55EC75
:1010E00004F0020E696210D0040E536E00EEA7F0F9
:1010F000030EF76E960EF66E03EC01F0EF6A010E2A
:10110000546E55EC04F00ED0040E536E00EEA7F0B2
:10111000030EF76E960EF66E03EC01F0EF6A546A5A
:1011200055EC04F0159288EC04F0202C06D0020E49
:10113000696002D0692A158206D0203C04D0695229
:1011400002E069061582E2EC04F04AEC05F05C2C42
:1011500008D069C03AF0A7EC0CF0010E686E13D00D
:101160000BD0020E5C6203D0686A0DD005D0030E6E
:101170005C6202D0686A07D04FEC05F05D5202E075
:10118000686A01D051D712006B6A080E6C6E159018
:10119000158215A2FBEF0BF000EE86F0030EF76E42
:1011A000A20EF66E03EC01F0EF6A3FEC04F0020EC3
:1011B000526E32EC04F0030E526E32EC04F0040E68
:1011C000526E32EC04F0020E6B6002D06D6A21D0D8
:1011D000020E6B6203D0010E6D6E1BD0030E6B62AC
:1011E00003D0020E6D6E15D0040E6B6203D0030E99
:1011F0006D6E0FD0050E6B6203D0040E6D6E09D0BC
:10120000060E6B6203D0050E6D6E03D0020E6B5C92
:101210006D6E6D52D8A47DD06B5216E1800E016EBA
:10122000C00E30EC00F0030EF76EB80EF66E66ECF2
:1012300000F0046A3DC00EF03CC00DF03AEC00F046
:101240005D0E6EEC00F015D0800E016EC10E30EC1C
:1012500000F0030EF76EC80EF66E66EC00F0046A3E
:101260003DC00EF03CC00DF03AEC00F05D0E6EECAF
:1012700000F06B2C16D0800E016E940E30EC00F056
:10128000030EF76ED60EF66E66EC00F0046A3FC0F1
:101290000EF03EC00DF03AEC00F05D0E6EEC00F08A
:1012A00015D0800E016E950E30EC00F0030EF76E37
:1012B000E60EF66E66EC00F0046A3FC00EF03EC02B
:1012C0000DF03AEC00F05D0E6EEC00F0020E6B6279
:1012D00010D0040E536E00EEA7F0030EF76EF40E5E
:1012E000F66E03EC01F0EF6A010E546E55EC04F05B
:1012F0000ED0040E536E00EEA7F0030EF76EF40E40
:10130000F66E03EC01F0EF6A546A55EC04F0FAEF64
:101310000BF06D2C70D06B2C16D0800E016EC00EB1
:1013200030EC00F0030EF76ED60EF66E66EC00F0B1
:10133000046A3FC00EF03EC00DF03AEC00F05D0EC6
:101340006EEC00F015D0800E016EC10E30EC00F096
:10135000030EF76EE60EF66E66EC00F0046A3FC010
:101360000EF03EC00DF03AEC00F05D0E6EEC00F0B9
:10137000020E6B6210D0030E536E00EEA7F0030E48
:10138000F76EF40EF66E03EC01F0EF6A010E546E88
:1013900055EC04F00ED0030E536E00EEA7F0030ED2
:1013A000F76EF40EF66E03EC01F0EF6A546A55EC3A
:1013B00004F0030E6B6210D0040E536E00EEA7F023
:1013C000040EF76E080EF66E03EC01F0EF6A010EE4
:1013D000546E55EC04F00ED0040E536E00EEA7F0E0
:1013E000040EF76E080EF66E03EC01F0EF6A546A15
:1013F00055EC04F0FFD1020E6D6264D0020E6B62F8
:1014000010D0020E536E00EEA7F0030EF76EF40E2E
:10141000F66E03EC01F0EF6A010E546E55EC04F029
:101420000ED0020E536E00EEA7F0030EF76EF40E10
:10143000F66E03EC01F0EF6A546A55EC04F0030E0B
:101440006B6210D0030E536E00EEA7F0040EF76E21
:10145000080EF66E03EC01F0EF6A010E546E55ECC7
:1014600004F00ED0030E536E00EEA7F0040EF76EDC
:10147000080EF66E03EC01F0EF6A546A55EC04F0C6
:10148000040E6B6210D0040E536E00EEA7F0040E33
:10149000F76E1C0EF66E03EC01F0EF6A010E546E4F
:1014A00055EC04F00ED0040E536E00EEA7F0040EBF
:1014B000F76E1C0EF66E03EC01F0EF6A546A55EC01
:1014C00004F098D1030E6D6264D0030E6B6210D0ED
:1014D000020E536E00EEA7F0040EF76E080EF66EC5
:1014E00003EC01F0EF6A010E546E55EC04F00ED0DF
:1014F000020E536E00EEA7F0040EF76E080EF66EA5
:1015000003EC01F0EF6A546A55EC04F0040E6B62D0
:1015100010D0030E536E00EEA7F0040EF76E1C0EF3
:10152000F66E03EC01F0EF6A010E546E55EC04F018
:101530000ED0030E536E00EEA7F0040EF76E1C0ED5
:10154000F66E03EC01F0EF6A546A55EC04F0050EF8
:101550006B6210D0040E536E00EEA7F0040EF76E0F
:10156000300EF66E03EC01F0EF6A010E546E55EC8E
:1015700004F00ED0040E536E00EEA7F0040EF76ECA
:10158000300EF66E03EC01F0EF6A546A55EC04F08D
:1015900031D1040E6D6264D0040E6B6210D0020E65
:1015A000536E00EEA7F0040EF76E1C0EF66E03EC01
:1015B00001F0EF6A010E546E55EC04F00ED0020EED
:1015C000536E00EEA7F0040EF76E1C0EF66E03ECE1
:1015D00001F0EF6A546A55EC04F0050E6B6210D00E
:1015E000030E536E00EEA7F0040EF76E300EF66E8B
:1015F00003EC01F0EF6A010E546E55EC04F00ED0CE
:10160000030E536E00EEA7F0040EF76E300EF66E6A
:1016100003EC01F0EF6A546A55EC04F0060E6B62BD
:1016200010D0040E536E00EEA7F0040EF76E460EB7
:10163000F66E03EC01F0EF6A010E546E55EC04F007
:101640000ED0040E536E00EEA7F0040EF76E460E99
:10165000F66E03EC01F0EF6A546A55EC04F0CAD060
:10166000050E6D6264D0050E6B6210D0020E536ED3
:1016700000EEA7F0040EF76E300EF66E03EC01F0EC
:10168000EF6A010E546E55EC04F00ED0020E536E4C
:1016900000EEA7F0040EF76E300EF66E03EC01F0CC
:1016A000EF6A546A55EC04F0060E6B6210D0030E1C
:1016B000536E00EEA7F0040EF76E460EF66E03ECC6
:1016C00001F0EF6A010E546E55EC04F00ED0030EDB
:1016D000536E00EEA7F0040EF76E460EF66E03ECA6
:1016E00001F0EF6A546A55EC04F0070E6B6210D0FB
:1016F000040E536E00EEA7F0040EF76E5C0EF66E4D
:1017000003EC01F0EF6A010E546E55EC04F00ED0BC
:10171000040E536E00EEA7F0040EF76E5C0EF66E2C
:1017200003EC01F0EF6A546A55EC04F063D0060E46
:101730006B6210D0020E536E00EEA7F0040EF76E2F
:10174000460EF66E03EC01F0EF6A010E546E55EC96
:1017500004F00ED0020E536E00EEA7F0040EF76EEA
:10176000460EF66E03EC01F0EF6A546A55EC04F095
:10177000070E6B6210D0030E536E00EEA7F0040E3E
:10178000F76E5C0EF66E03EC01F0EF6A010E546E1C
:1017900055EC04F00ED0030E536E00EEA7F0040ECD
:1017A000F76E5C0EF66E03EC01F0EF6A546A55ECCE
:1017B00004F0080E6B6210D0040E536E00EEA7F01A
:1017C000040EF76E720EF66E03EC01F0EF6A010E76
:1017D000546E55EC04F00ED0040E536E00EEA7F0DC
:1017E000040EF76E720EF66E03EC01F0EF6A546AA7
:1017F00055EC04F0159288EC04F0202C0ED0FF0E6E
:101800006C24056E066AFF0E0622065203E105509F
:101810006B6002D06B2A158206D0203C04D06B523C
:1018200002E06B061582E2EC04F04AEC05F05C2C59
:1018300079D06B5211E1726A3C0E716E746A736AF0
:1018400076687568786A010E776E4FD9792C03D067
:1018500099EC0EF07CD864D06B2C11D0726A3E0EDD
:10186000716E746A736A76687568786A010E776E4D
:101870003CD9792C03D099EC0EF069D851D0020EE6
:101880006B620AD07D6A400E7C6EC2D97E2C03D07A
:101890009BEC0EF05CD844D0030E6B620AD07D6ADC
:1018A000420E7C6EB5D97E2C03D09BEC0EF04FD847
:1018B00037D0040E6B6209D07D6A440E7C6EA8D9C5
:1018C0007E2C02D038DA43D82BD0050E6B6208D0BC
:1018D000460E6E6E93D86F2C02D02DDA38D820D0F9
:1018E000060E6B6208D0470E6E6E88D86F2C02D041
:1018F00022DA2DD815D0070E6B6208D0480E6E6E16
:101900007DD86F2C02D017DA22D80AD0080E6B626D
:1019100007D0490E656EAFEC07F0662C01D017D8E2
:1019200015820BD0020E5C6203D06A6A0FD005D01C
:10193000030E5C6202D06A6A09D04FEC05F05D527A
:1019400002E06A6A03D0C9EF08F000D01200AA6A68
:101950000A0EA96E3950BDEC00F0AA6A0B0EA96EF2
:101960003A50BDEC00F0AA6A0C0EA96E3B50BDECDB
:1019700000F0AA6A0E0EA96E3C50BDEC00F03D507E
:10198000BDEC00F0AA6A100EA96E3E50BDEC00F04E
:101990003F50BDEC00F0AA6A120EA96E4050BDEC9B
:1019A00000F04150BDEC00F0AA6A140EA96E42503E
:1019B000BDEC00F04350BDEC00F0AA6A160EA96E13
:1019C0004450BDEC00F04550BDEC00F0AA6A180E82
:1019D000A96E4650BDEC00F0AA6A190EA96E4750D8
:1019E000BDEC00F0AA6A1A0EA96E4850BDEC00F0DA
:1019F000AA6A1B0EA96E4950BDEF00F06EC070F0D0
:101A0000158215A242D000EE86F0040EF76E880E05
:101A1000F66E03EC01F0EF6A3FEC04F0020E526E3A
:101A200032EC04F0030E526E32EC04F0040E526EEF
:101A300032EC04F070520CE1800E016E940E30EC2A
:101A400000F0040EF76E9A0EF66E66EC00F01CD0F5
:101A5000702C0CD0800E016E940E30EC00F0040E51
:101A6000F76EB20EF66E66EC00F00ED0020E7062EB
:101A70000BD0800E016E940E30EC00F0040EF76E69
:101A8000CA0EF66E66EC00F0159288EC04F0202C7D
:101A900006D0020E706001D0702A158206D0203C5C
:101AA00004D0705201E070061582E2EC04F04AECBA
:101AB00005F05C2C06D070C06EF0010E6F6E14D075
:101AC0000BD0020E5C6203D06F6A0ED005D0030EFD
:101AD0005C6202D06F6A08D04FEC05F05D5202E004
:101AE0006F6A02D08ED700D0120072C07BF071C036
:101AF0007AF0158215A231D000EE86F0040EF76E52
:101B0000E00EF66E03EC01F0EF6A3FEC04F0020E1B
:101B1000526E32EC04F0030E526E32EC04F0040EFE
:101B2000526E32EC04F0800E016E940E30EC00F038
:101B3000040EF76EF20EF66E66EC00F0050E046E03
:101B40007BC00EF07AC00DF03AEC00F0040EF76E98
:101B5000FC0EF66E66EC00F0159288EC04F0202C7A
:101B600011D077507A24056E78507B20066E055090
:101B7000755C0650765804E377507A2678507B22BD
:101B8000158224D0203C22D077507324056E7850E3
:101B90007420066E000E076A0722086A085211E1D7
:101BA00007500FE106507B5C0CE303E105507A5CC3
:101BB00008E377507A5C7A6E78507B587B6E000130
:101BC00004D074C07BF073C07AF01582E2EC04F0AC
:101BD0004AEC05F05C2C08D07BC072F07AC071F042
:101BE000010E796E14D00BD0020E5C6203D0796ABC
:101BF0000ED005D0030E5C6202D0796A08D04FEC9B
:101C000005F05D5202E0796A02D074D700D012006C
:101C10007DC00AF07CC009F00C6A3C0E0B6EECEC47
:101C200000F07F6E7DC00AF07CC009F00C6A3C0EAB
:101C30000B6EECEC00F00DC080F0816B158215A2EC
:101C40002ED000EE86F0050EF76E080EF66E03EC51
:101C500001F0EF6A3FEC04F0020E526E32EC04F039
:101C6000030E526E32EC04F0040E526E32EC04F0AD
:101C7000815314E1800E016E940E30EC00F0200EC2
:101C80006EEC00F05B0E6EEC00F0020E37EC00F034
:101C90007F506EEC00F05D0E6EEC00F0159288EC5B
:101CA00004F0202C0DD0815305E1630E7F6001D03C
:101CB0007F2A04D03B0E806101D0802B15820CD08E
:101CC000203C0AD0815304E17F5201E07F0603D01B
:101CD000805301E080071582E2EC04F04AEC05F045
:101CE0005C2C13D0815304E1010E816F15820CD05E
:101CF0007FC082F080C083F020D885C07DF084C092
:101D00007CF0010E7E6E14D00BD0020E5C6203D00C
:101D10007E6A0ED005D0030E5C6202D07E6A08D0C7
:101D20004FEC05F05D5202E07E6A02D088D700D009
:101D3000120000D0120000D0120082513C0DF3CFEF
:101D400013F0F4CF14F083511324846F000E142089
:061D5000856F00D01200B7
:020000040030CA
:0E000000FFF2E2EEFFFDBBFFFFFFFFFFFFFF81
:00000001FF
