:020000040000FA
:10000000000000003AEF09F055EF09F0800E016E94
:10001000FE0EE1D8010EDFD8750E0E6E300E04D143
:10002000016A018E1A6E1A52D8A41A06FE0ED3D88F
:10003000025202E0022C02D0800E0ED00250020AC0
:1000400002E1C00E09D00250030A02E1940E04D06E
:100050000250040A02E1D40E026E1A500224BBD0F0
:10006000016A018E1A6EFE0EB6D81A50B4D0046A18
:10007000136E146A00960450D8B40086040E036E02
:10008000143805D8145003D8133801D813500F0B67
:10009000F60FD8B0070F0A0F22D030D803D0046A69
:1000A000136E146A00960450D8B40086050E036ED1
:1000B000270E126E100E0CD8030E126EE80E08D822
:1000C000126A640E05D8126A0A0E02D8135007D0BD
:1000D000116E14500E6E13500D6EB3D80D500D6E80
:1000E000034E0096045002E0035C07E20D50D8A4D2
:1000F000009600B602D0300F6ED0120014AE12007F
:1001000013501410D8B41200131E141E134A142ACC
:100110002D0E61D0A66AA68E0900F55002E002D825
:10012000FBD71200186E899E899C929E929CF00EBD
:100130009216185000B21ED03A0E0E6E980E74D859
:10014000330E176E29D8130E0E6E880E6DD824D874
:10015000640E69D821D8640E66D8220E176E1CD89A
:10016000280E07D80C0E05D8060E03D800821850AA
:1001700001D00080176E00A009D0899C03080AE313
:1001800009D8070E0E6ED00E4FD812000080FE0860
:1001900014E0898C173A00A00090898EF00E80162A
:1001A00017500F0B8012000000D0899E173A0000F4
:1001B00000D000B0F1D7320E36D818501200A66A1F
:1001C000A68E0900F55002E002D8FBD712009EA8C7
:1001D000FED7AD6E120001BEA5D701B4F8D7A86E48
:1001E000A66AA684550EA76EAA0EA76EA682A6B210
:1001F000FED7A694A94AAA2AA68E1200A96EA66ABC
:10020000A680A850A94AAA2AA68E1200126A116EC8
:10021000FF0E1126122200D0D8A01200030E0E6E7F
:10022000E60E02D8F5D70E6AFD0F0D6E01D00D0651
:10023000000000D0E86A0E5AFAE212000E6A126A52
:10024000116E146A136A100EF36E0E3413361436E0
:100250001150135C1250145805E31150135E1250E4
:10026000145AD8800D360E36F32EEFD70D501200EB
:1002700010C022F00FC021F00EC020F00DC01FF002
:1002800021501302F3CF0FF0F4CF10F020501402DE
:10029000F3500F26F45010221F501502F3500F2672
:1002A000F450102222501302F35010262150140251
:1002B000F350102620501502F35010261F5016023E
:1002C000F35010261F501302F3CF0DF0F4CF0EF0B1
:1002D00020501302F3500E26F4500F22000E10226D
:1002E0001F501402F3500E26F4500F22000E10225D
:1002F0001200A66AA68E0900F55002E0EE6EFBD74A
:10030000120044454255473A20496E697469616C50
:1003100020627574746F6E207374617465733A0033
:1003200020205F42544E2070696E203D2000202026
:10033000425F427574746F6E5374617465203D2022
:1003400000002020575F42746E486F6C644D53204C
:100350003D2000002020425F564C6F6E6750726552
:100360007373203D200044454255473A20436C6555
:100370006172696E6720627574746F6E2073746148
:10038000746520616674657220737461727475702F
:1003900000005374617274757020636865636B202C
:1003A0002D20425F4B65794576656E743D0049525C
:1003B0005249535953205374617274757020436FBE
:1003C0006D706C657465000044454255473A20469F
:1003D0006163746F72792064656661756C747320F3
:1003E0002D2074726967676572696E672070617429
:1003F0007465726E2032000044454255473A204DE4
:100400006967726174696F6E202D20747269676705
:100410006572696E67207061747465726E20340055
:1004200044454255473A20526573746F7265202DDA
:100430002074726967676572696E67207061747491
:1004400065726E20350044454255473A204E6F7222
:100450006D616C2073746172747570202D207472DC
:100460006967676572696E6720666C657869626C3A
:1004700065207061747465726E0044454255473A58
:10048000204D656E752074696D656F75742070619F
:10049000747465726E0044454255473A204C6F6E45
:1004A00067207072657373207061747465726E007A
:1004B00044454255473A20556E6B6E6F776E2070FB
:1004C00061747465726E202D2073696C656E7400A2
:1004D00044454255473A20425F4265657050617419
:1004E0007465726E2073657420746F3A20003D3D10
:1004F0003D20454550524F4D20434F4E46494720E1
:1005000044554D50203D3D3D000053595354454DF9
:1005100020434F4E4649473A00002020575F554937
:100520005F54696D656F757453203D200000207322
:1005300065636F6E647300002020575F55495F50FC
:10054000756C73654D7320203D2000002020425FB4
:1005500045455F466C616773202020203D202400C4
:10056000494E505554203120434F4E4649473A009A
:100570002020425F49315F456E61626C65642020D6
:100580003D2000002020425F49315F53656E736F4C
:10059000725420203D2000002020425F49315F46F8
:1005A0006C6F774D6F6465203D2000002020575F01
:1005B00049315F5363616C65342020203D20000089
:1005C0002020575F49315F5363616C6532302020D2
:1005D0003D2000002020575F49315F42505F48694D
:1005E000676820203D2000002020575F49315F428E
:1005F000505F504C502020203D2000002020575FAD
:1006000049315F42505F534C502020203D20000074
:100610002020425F49315F526C7948696768202029
:100620003D2000002020425F49315F526C79504CE0
:10063000502020203D2000002020425F49315F52A1
:100640006C79534C502020203D2000002020425F38
:1006500049315F446973706C617920203D2000004E
:10066000494E505554203220434F4E4649473A0098
:100670002020425F49325F456E61626C65642020D4
:100680003D2000002020425F49325F53656E736F4A
:10069000725420203D2000002020425F49325F46F6
:1006A0006C6F774D6F6465203D2000002020575F00
:1006B00049325F5363616C65342020203D20000087
:1006C0002020575F49325F5363616C6532302020D0
:1006D0003D2000002020575F49325F42505F48694B
:1006E000676820203D2000002020575F49325F428C
:1006F000505F504C502020203D2000002020575FAC
:1007000049325F42505F534C502020203D20000072
:100710002020425F49325F526C7948696768202027
:100720003D2000002020425F49325F526C79504CDE
:10073000502020203D2000002020425F49325F529F
:100740006C79534C502020203D2000002020425F37
:1007500049325F446973706C617920203D2000004C
:10076000494E505554203320434F4E4649473A0096
:100770002020425F49335F456E61626C65642020D2
:100780003D2000002020425F49335F53656E736F48
:10079000725420203D2000002020425F49335F46F4
:1007A0006C6F774D6F6465203D2000002020575FFF
:1007B00049335F5363616C65342020203D20000085
:1007C0002020575F49335F5363616C6532302020CE
:1007D0003D2000002020575F49335F42505F486949
:1007E000676820203D2000002020575F49335F428A
:1007F000505F504C502020203D2000002020575FAB
:1008000049335F42505F534C502020203D20000070
:100810002020425F49335F526C7948696768202025
:100820003D2000002020425F49335F526C79504CDC
:10083000502020203D2000002020425F49335F529D
:100840006C79534C502020203D2000002020425F36
:1008500049335F446973706C617920203D2000004A
:100860003D3D3D20454E4420434F4E4649472044A0
:10087000554D50203D3D3D004F5054494F4E532063
:1008800020202020202020202020202000004D613A
:10089000696E204D656E75005365747570204D65E9
:1008A0006E7500005574696C697479204D656E75BC
:1008B000000044454255473A204265666F72652004
:1008C000565F53657475704D656E75202D20425FBF
:1008D00053656C3D000044454255473A20416674DB
:1008E000657220565F53657475704D656E75202D69
:1008F00020425F53656C3D005554494C49545900A2
:1009000049525249535953204D41494E20202020ED
:100910002020202000002020202020202020202017
:100920002020202020202020202000004445425567
:10093000473A2056657279206C6F6E672070726539
:100940007373206465746563746564202D20657815
:100950006974696E67206D656E7500005345545566
:100960005020202020202020202020202020202057
:1009700000005B496E70757420315D2020200000FE
:10098000496E7075742031202020200050726573EC
:100990007375726500005B496E70757420325D205E
:1009A00020200000496E7075742032202020200025
:1009B0005B496E70757420335D2020200000496E05
:1009C0007075742033202020200020285354554275
:1009D0002920202020202000575F55495F54696D51
:1009E000656F75745300575F55495F50756C73653B
:1009F0004D730000425F45455F466C6167730000C0
:100A0000505F53617665496E4366673A205361765D
:100A1000696E6720496E7075742000002020425F67
:100A200049315F53656E736F7254203D2000454518
:100A300050524F4D20534156453A20496E707574BF
:100A4000200020436F6E66696775726174696F6E0E
:100A50000000425F49315F456E61626C6564000071
:100A6000425F49315F53656E736F72540000425F9D
:100A700049315F466C6F774D6F646500575F493150
:100A80005F5363616C653400575F49315F53636145
:100A90006C6532300000575F49315F42505F4869F2
:100AA00067680000575F49315F42505F504C50000B
:100AB000575F49315F42505F534C5000425F4931AC
:100AC0005F526C79486967680000425F49315F5244
:100AD0006C79504C5000425F49315F526C79534CF5
:100AE0005000425F49315F446973706C6179000066
:100AF000425F49325F456E61626C65640000425F2F
:100B000049325F53656E736F72540000425F493221
:100B10005F466C6F774D6F646500575F49325F5376
:100B200063616C653400575F49325F5363616C6584
:100B300032300000575F49325F42505F4869676852
:100B40000000575F49325F42505F504C5000575F82
:100B500049325F42505F534C5000425F49325F520E
:100B60006C79486967680000425F49325F526C796E
:100B7000504C5000425F49325F526C79534C5000E8
:100B8000425F49325F446973706C61790000425F73
:100B900049335F456E61626C65640000425F4933B2
:100BA0005F53656E736F72540000425F49335F4656
:100BB0006C6F774D6F646500575F49335F536361B6
:100BC0006C653400575F49335F5363616C65323045
:100BD0000000575F49335F42505F48696768000013
:100BE000575F49335F42505F504C5000575F493365
:100BF0005F42505F534C5000425F49335F526C7903
:100C0000486967680000425F49335F526C79504C15
:100C10005000425F49335F526C79534C5000425F41
:100C200049335F446973706C6179000020626C6FB6
:100C3000636B2066696E616C697A656420737563A5
:100C40006365737366756C6C7900454550524F4D02
:100C5000204552524F523A20496E70757420000060
:100C600020626C6F636B2066696E616C697A617477
:100C7000696F6E206661696C6564000020636F6E49
:100C800066696775726174696F6E2073617665203D
:100C90006661696C65640000434C4F434B20202023
:100CA0002020202020202020202020200000546907
:100CB0006D656F7574202020000050756C73652081
:100CC00020202020000044454255473A20505F45EF
:100CD000455F5772697465426C6B20656E747279FA
:100CE000202D20426C6F636B416464723D0044456B
:100CF0004255473A2057726974696E67206D616783
:100D0000696320627974650044454255473A204D35
:100D100061676963207772697465206661696C65D3
:100D2000642C207374617475733D00004445425512
:100D3000473A2057726974696E67207665727369E5
:100D40006F6E20627974650044454255473A2056DB
:100D5000657273696F6E2077726974652066616968
:100D60006C65642C207374617475733D0000444598
:100D70004255473A2043616C63756C6174696E67D4
:100D800020636865636B73756D0044454255473A4F
:100D90002043616C63756C6174656420636865638E
:100DA0006B73756D3D0044454255473A2043686575
:100DB000636B73756D207772697465206661696C09
:100DC00065642C207374617475733D00444542550D
:100DD000473A20426C6F636B2066696E616C697A7A
:100DE0006174696F6E207375636365737366756C88
:100DF000000044454255473A20505F45455F436FE8
:100E00007079426C6B202D205372633D0000444585
:100E10004255473A20436F7079206661696C65647A
:100E20002061742062797465200020737461747588
:100E3000733D000044454255473A20426C6F636B56
:100E400020636F707920636F6D706C6574656420CA
:100E50007375636365737366756C6C7900004545E3
:100E600050524F4D20534156453A2000444542557B
:100E7000473A20565F496E7075744D656E752065F2
:100E80006E747279202D20496E707574200044456F
:100E90004255473A204C6F6164656420575F536345
:100EA000616C65343D0020575F5363616C6532307F
:100EB0003D00494E50555420000020202020202085
:100EC0002020202020200000456E61626C652020DB
:100ED00020200000456E61626C65640044697361A6
:100EE000626C6564000053656E736F722020202071
:100EF00000005363616C652034206D610000536312
:100F0000616C6532306D612000004869676820427D
:100F1000502020200000486967682054425020205B
:100F20000000504C50425020202020200000534C04
:100F3000504250202020202000004C6F7720544247
:100F4000502020200000526C7920486967682020DA
:100F50000000526C7920504C502020200000526C30
:100F60007920534C502020200000526C79204C6F87
:100F7000772020200000446973706C617920202064
:100F8000000044454255473A20465F454E41424C99
:100F9000452073656C6563746564202D2063616C06
:100FA0006C696E6720505F45646974456E61626C60
:100FB00065496E6C696E650044454255473A20505C
:100FC0005F45646974456E61626C65496E6C696EFB
:100FD000652072657475726E6564200044454255E3
:100FE000473A2056616C7565206368616E67656479
:100FF000202D207570646174696E6720676C6F6264
:10100000616C730044454255473A204E6F20636837
:10101000616E67652064657465637465640042652C
:10102000666F726520656469743A20425F53656E2D
:10103000736F72543D00456469746F7220726574F9
:1010400075726E65643A20425F4E657756616C75C5
:10105000653D00005570646174656420425F5365AE
:101060006E736F725420746F3A2000005570646183
:1010700074656420425F49315F53656E736F7254CB
:1010800020746F3A200043616C6C656420505F539C
:10109000617665496E43666728004E6F206368611C
:1010A0006E6765206465746563746564000044451B
:1010B0004255473A204265666F72652065646974DF
:1010C000202D20575F5363616C65343D000020493B
:1010D0005F576F726B3D000044454255473A2045CB
:1010E0006469742072657475726E6564202D204980
:1010F0005F576F726B3D000044454255473A2041AF
:101100006674657220636F6E76657273696F6E20A8
:101110002D20575F5363616C65343D004445425553
:10112000473A20536176696E6720746F20575F4994
:10113000315F5363616C6534202D206F6C643D001A
:1011400044454255473A2043616C6C696E672050B4
:101150005F53617665496E43666728004445425592
:10116000473A20505F53617665496E436667207247
:10117000657475726E6564207374617475733D0077
:1011800044454255473A204E6F206368616E67655B
:10119000202D20736B697070696E672073617665AE
:1011A0000000202020202020202020200000456E4C
:1011B00061626C6520656469746F72207265747514
:1011C000726E696E673A200053656E736F722065A8
:1011D0006469746F722072657475726E696E673AB5
:1011E000200044454255473A20505F456469745396
:1011F000335374616E6420656E747279202D2049BA
:101200005F56616C3D0044454255473A204578742D
:10121000726163746564202D205369676E3D000020
:1012200020313030733D000020756E6974733D00CD
:1012300044454255473A204C6F6E67207072657383
:1012400073202D20726573746F72696E6720495F19
:101250004F72696756616C3D000044454255473AFC
:1012600020436F6D6D697474696E6720495F5661C4
:101270006C3D0000006A100EAF6E240EAC6E900E36
:10128000AB6E00010F0EC16E070EB46E700ED36E02
:101290009B8C0F0EC16EF19EC40ED56E060ED66EDF
:1012A000F294F28AF28E68EF0BF000011BC0FDF29F
:1012B0001CC0FEF2F4CFFFF2F3CF00F323C001F322
:1012C000F2A4FBD1060ED66EF294262A000E272237
:1012D00028222922415224E14850471004E152C0FB
:1012E00031F051C030F0FF0E485C04E305E1F60E2A
:1012F000475C02E2474A482A0001070E485C080E94
:10130000D8B4475C02E2000E01D0010E236E010E3C
:101310004D52D8A4000E231602E0010E4D6E13D0DC
:10132000485203E1C80E475C0AE3010E2F6E26C047
:101330002AF027C02BF028C02CF029C02DF0000186
:10134000486A476A4D6A305202E1315203E0300682
:10135000000E315A0001325202E1829401D1010E95
:10136000325C0AE1305202E1315203E08284000132
:1013700002D08294326AF4D0020E325C2CE13352F5
:101380000EE1305202E1315203E08284000106D0C6
:101390008294010E336E316A640E306E1BD0010EE2
:1013A000335C0BE182943150301006E1020E336E53
:1013B00052C031F051C030F00DD0020E335C0AE162
:1013C000305202E1315203E08284000103D0829462
:1013D000326A336AC5D0030E325C0AE1305202E150
:1013E000315203E08284000102D08294326AB8D084
:1013F000040E325C2BE1335206E0020E335C03E054
:10140000040E335C13E1305202E1315203E0828476
:1014100000010BD08294332A050E335C04E2316A5A
:10142000960E306E02D0326A336A0FD0010E335CF2
:1014300003E0030E335C09E182943150301005E182
:10144000332A52C031F051C030F08AD0050E325CE0
:1014500031E1335209E0020E335C06E0040E335CE6
:1014600003E0060E335C13E1305202E1315203E037
:10147000828400010BD08294332A070E335C04E28D
:10148000316A640E306E02D0326A336A12D0010EB5
:10149000335C06E0030E335C03E0050E335C09E1C8
:1014A00082943150301005E1332A52C031F051C0DE
:1014B00030F056D0060E325C26E1335217E130523E
:1014C00002E1315203E0828400010FD08294342A79
:1014D0003550345C04E3326A336A346A06D0010E54
:1014E000336E39C031F038C030F00CD0010E335CAF
:1014F00009E182943150301005E1336A37C031F090
:1015000036C030F02DD0080E325C2AE133520EE1A5
:10151000305202E1315203E08284000106D082940D
:10152000010E336E316A640E306E1AD0010E335CD8
:101530000AE182943150301005E1020E336E316AB7
:10154000320E306E0DD0020E335C0AE1305202E1F1
:10155000315203E08284000103D08294326A336AFC
:101560003E2A0A0E3E5CD8A0A8D08B6B81B28B2B92
:101570008C6B81B48C2B8D6B81BC8D2B8B513F5C24
:1015800010E0422A020E425C0BE38BC03FF0426A3D
:1015900026C02AF027C02BF028C02CF029C02DF03F
:1015A00001D0426A8C51405C10E0432A020E435C39
:1015B0000BE38CC040F0436A26C02AF027C02BF012
:1015C00028C02CF029C02DF001D0436A8D51415C18
:1015D00010E0442A020E445C0BE38DC041F0446AE3
:1015E00026C02AF027C02BF028C02CF029C02DF0EF
:1015F00001D0446A3F50020DF3CF1BF0F4CF1CF032
:1016000040501B248E6F4550040DF3CF1BF0F4CFD8
:101610001CF08E511B248F6F010E8F5D02E1460678
:1016200022D0070E8F5D02E146061DD00E0E8F5DA3
:1016300002E1460618D0080E8F5D02E1460613D07F
:10164000020E8F5D02E1462A0ED00B0E8F5D02E185
:10165000462A09D00D0E8F5D02E1462A04D0040E01
:101660008F5D01E1462A8E5325E146BE0ED0020E63
:10167000465C0BE3494A4A2A26C02AF027C02BF0D1
:1016800028C02CF029C02DF014D04650800A7E08C6
:1016900010E3495202E14A5203E04906000E4A5A59
:1016A000000126C02AF027C02BF028C02CF029C04A
:1016B0002DF0466A8EC045F03E6AFDC21BF0FEC2A8
:1016C0001CF0FFC2F4FF00C3F3FF01C323F01100BD
:1016D000F5D8FAD8A9D8E6D8030EF76E020EF66E42
:1016E000DFEC00F00D0EE7EC00F0030EF76E200EBD
:1016F000F66EDFEC00F0040E016E000E81BC010EF0
:101700004FEC00F00D0EE7EC00F0030EF76E2E0E1E
:10171000F66EDFEC00F0040E016E41504FEC00F06D
:101720000D0EE7EC00F0030EF76E420EF66EDFECE6
:1017300000F0040E016E046A48C014F047C013F0B4
:1017400052EC00F00D0EE7EC00F0030EF76E540EB5
:10175000F66EDFEC00F0040E016E4D504FEC00F021
:101760000D0EE7EC00F02F6A74D99AD980D9906BEE
:10177000C9D8030EF76E660EF66EDFEC00F00D0EA4
:10178000E7EC00F0F29E486A476A4D6A2F6AF28ED3
:101790002F6A030EF76E920EF66EDFEC00F0040E69
:1017A000016E2F504FEC00F00D0EE7EC00F04E6A8A
:1017B00024942F6A2D6A2C6A2B6A2A6A2482249028
:1017C000030E545C01E3546A030E6A5C02E3010EEB
:1017D0006A6E030E7B5C02E3020E7B6E030EF76EF5
:1017E000AE0EF66EDFEC00F00D0EE7EC00F0C80E6A
:1017F00006EC01F024A003D017D854D824902494E8
:101800007FEC11F06CEC10F092C04EF0020E4E5CCA
:1018100009E1249426C02AF027C02BF028C02CF020
:1018200029C02DF0E7D7FFD7100E926E460E936EAB
:10183000946A896A8A6A8B6A899C899E320E06EC50
:1018400001F0809C030E9B6FE0EC11F0050E06EC9E
:1018500001F0030E9B6FE0EC11F0960E13EC01F01B
:10186000030E9B6FE0EC11F0960E13EC01F0020EEC
:101870009B6FE0EC11F0960E13EC01F0280E9C6FBC
:10188000E6EC11F0080E9C6FE6EC11F0010E9C6F77
:10189000E6EC11F0060E9C6FE6EC11F00C0E9C6F5E
:1018A000E6EF11F0A76B050EA66F52EC12F006ECF6
:1018B00000F0A76B020EA66F52EF12F0100E926EA0
:1018C000460E936E946A12003F6A81B23F2A406AC4
:1018D00081B4402A416A81BC412A3F50020DF3CFB6
:1018E0001BF0F4CF1CF040501B24456E426A436A43
:1018F000446A3E6A466A4A6A496A4C6A4B6A486A5E
:10190000476A12009053D8A455D03BC09EF09F6BFD
:1019100008EC12F0A0530EE0030EF76EC80EF66E40
:10192000DFEC00F00D0EE7EC00F0020E9A6FA1EC78
:1019300011F03FD03BC09EF0030E9F6F08EC12F0F9
:10194000A0530EE0030EF76EF80EF66EDFEC00F01B
:101950000D0EE7EC00F0040E9A6FA1EC11F029D007
:101960003BC09EF0020E9F6F08EC12F0A0530EE0F9
:10197000040EF76E200EF66EDFEC00F00D0EE7ECB5
:1019800000F0050E9A6FA1EC11F013D0040EF76E63
:10199000460EF66EDFEC00F00D0EE7EC00F0050EE3
:1019A000A16FA36B4B0EA26FA56B640EA46F3FECEF
:1019B00012F036D0010E905D10E1040EF76E7A0E33
:1019C000F66EDFEC00F00D0EE7EC00F0080E326E64
:1019D000336A316A640E306E23D0020E905D14E1DA
:1019E000040EF76E960EF66EDFEC00F00D0EE7ECCF
:1019F00000F0010EA16F030EA36FE80EA26FA56B9E
:101A0000A46B3FEC12F00CD0040EF76EB00EF66E25
:101A1000DFEC00F00D0EE7EC00F09A6BA1EC11F09A
:101A2000040EF76ED00EF66EDFEC00F0040E016EC1
:101A300032504FEC00F00D0EE7EC00F0325204E0B3
:101A40000A0E06EC01F0FAD7010E126EF40E07EF43
:101A500001F000EC13F0010EB56F72EC13F0020E02
:101A6000B56F72EC13F0030EB56F72EF13F0010E49
:101A70005514916F915302E1676A02D0010E676EAF
:101A8000020E5514916F915302E1686A02D0010E63
:101A9000686E5FC065F05EC064F062C066F0120000
:101AA000040EF76EEE0EF66EDFEC00F00D0EE7ECB6
:101AB00000F0050EF76E0A0EF66EDFEC00F00D0E6C
:101AC000E7EC00F0050EF76E1A0EF66EDFEC00F094
:101AD000040E016E046A50C014F04FC013F052ECB3
:101AE00000F0050EF76E2E0EF66EDFEC00F00D0E18
:101AF000E7EC00F0050EF76E380EF66EDFEC00F046
:101B0000040E016E046A52C014F051C013F052EC7E
:101B100000F0200EE7EC00F06D0EE7EC00F0730E25
:101B2000E7EC00F00D0EE7EC00F0050EF76E4C0E42
:101B3000F66EDFEC00F0040E016E020E046E3B50F8
:101B400038EC00F00D0EE7EC00F0050EF76E600EBD
:101B5000F66EDFEC00F00D0EE7EC00F0050EF76E10
:101B6000700EF66EDFEC00F0040E016E53504FEC79
:101B700000F00D0EE7EC00F0050EF76E840EF66E29
:101B8000DFEC00F0040E016E54504FEC00F00D0E2F
:101B9000E7EC00F0050EF76E980EF66EDFEC00F045
:101BA000040E016E55504FEC00F00D0EE7EC00F006
:101BB000050EF76EAC0EF66EDFEC00F0040E016E53
:101BC000046A57C014F056C013F04DEC00F00D0E2F
:101BD000E7EC00F0050EF76EC00EF66EDFEC00F0DD
:101BE000040E016E046A59C014F058C013F04DEC95
:101BF00000F00D0EE7EC00F0050EF76ED40EF66E59
:101C0000DFEC00F0040E016E046A5BC014F05AC0F1
:101C100013F052EC00F0200EE7EC00F0730EE7EC4E
:101C200000F0650EE7EC00F0630EE7EC00F00D0E3F
:101C3000E7EC00F0050EF76EE80EF66EDFEC00F054
:101C4000040E016E046A5DC014F05CC013F052EC27
:101C500000F0200EE7EC00F0730EE7EC00F0650EEC
:101C6000E7EC00F0630EE7EC00F00D0EE7EC00F09F
:101C7000050EF76EFC0EF66EDFEC00F0040E016E42
:101C8000046A5FC014F05EC013F052EC00F0200E46
:101C9000E7EC00F0730EE7EC00F0650EE7EC00F007
:101CA000630EE7EC00F00D0EE7EC00F0060EF76EA9
:101CB000100EF66EDFEC00F0040E016E60504FEC7B
:101CC00000F00D0EE7EC00F0060EF76E240EF66E37
:101CD000DFEC00F0040E016E61504FEC00F00D0ED1
:101CE000E7EC00F0060EF76E380EF66EDFEC00F053
:101CF000040E016E62504FEC00F00D0EE7EC00F0A8
:101D0000060EF76E4C0EF66EDFEC00F0040E016E60
:101D100063504FEC00F00D0EE7EC00F0060EF76E8E
:101D2000600EF66EDFEC00F00D0EE7EC00F0060E34
:101D3000F76E700EF66EDFEC00F0040E016E695067
:101D40004FEC00F00D0EE7EC00F0060EF76E840E7F
:101D5000F66EDFEC00F0040E016E6A504FEC00F0FE
:101D60000D0EE7EC00F0060EF76E980EF66EDFEC47
:101D700000F0040E016E6B504FEC00F00D0EE7EC1E
:101D800000F0060EF76EAC0EF66EDFEC00F0040EFF
:101D9000016E046A6DC014F06CC013F04DEC00F0DD
:101DA0000D0EE7EC00F0060EF76EC00EF66EDFECDF
:101DB00000F0040E016E046A6FC014F06EC013F0E0
:101DC0004DEC00F00D0EE7EC00F0060EF76ED40EB1
:101DD000F66EDFEC00F0040E016E046A71C014F0C0
:101DE00070C013F052EC00F0200EE7EC00F0730E20
:101DF000E7EC00F0650EE7EC00F0630EE7EC00F0B6
:101E00000D0EE7EC00F0060EF76EE80EF66EDFEC56
:101E100000F0040E016E046A73C014F072C013F077
:101E200052EC00F0200EE7EC00F0730EE7EC00F04F
:101E3000650EE7EC00F0630EE7EC00F00D0EE7EC4A
:101E400000F0060EF76EFC0EF66EDFEC00F0040EEE
:101E5000016E046A75C014F074C013F052EC00F007
:101E6000200EE7EC00F0730EE7EC00F0650EE7ECF7
:101E700000F0630EE7EC00F00D0EE7EC00F0070E4B
:101E8000F76E100EF66EDFEC00F0040E016E765069
:101E90004FEC00F00D0EE7EC00F0070EF76E240E8D
:101EA000F66EDFEC00F0040E016E77504FEC00F0A0
:101EB0000D0EE7EC00F0070EF76E380EF66EDFEC55
:101EC00000F0040E016E78504FEC00F00D0EE7ECC0
:101ED00000F0070EF76E4C0EF66EDFEC00F0040E0D
:101EE000016E79504FEC00F00D0EE7EC00F0070E9C
:101EF000F76E600EF66EDFEC00F00D0EE7EC00F012
:101F0000070EF76E700EF66EDFEC00F0040E016E39
:101F10007A504FEC00F00D0EE7EC00F0070EF76E74
:101F2000840EF66EDFEC00F0040E016E7B504FEC79
:101F300000F00D0EE7EC00F0070EF76E980EF66E4F
:101F4000DFEC00F0040E016E7C504FEC00F00D0E43
:101F5000E7EC00F0070EF76EAC0EF66EDFEC00F06B
:101F6000040E016E046A7EC014F07DC013F04DECC7
:101F700000F00D0EE7EC00F0070EF76EC00EF66EE7
:101F8000DFEC00F0040E016E046A80C014F07FC024
:101F900013F04DEC00F00D0EE7EC00F0070EF76EBD
:101FA000D40EF66EDFEC00F0040E016E046A82C0FF
:101FB00014F081C013F052EC00F0200EE7EC00F0BA
:101FC000730EE7EC00F0650EE7EC00F0630EE7EC53
:101FD00000F00D0EE7EC00F0070EF76EE80EF66E5F
:101FE000DFEC00F0040E016E046A84C014F083C0BC
:101FF00013F052EC00F0200EE7EC00F0730EE7EC6B
:1020000000F0650EE7EC00F0630EE7EC00F00D0E5B
:10201000E7EC00F0070EF76EFC0EF66EDFEC00F05A
:10202000040E016E046A86C014F085C013F052ECF1
:1020300000F0200EE7EC00F0730EE7EC00F0650E08
:10204000E7EC00F0630EE7EC00F00D0EE7EC00F0BB
:10205000080EF76E100EF66EDFEC00F0040E016E47
:1020600087514FEC00F00D0EE7EC00F0080EF76E14
:10207000240EF66EDFEC00F0040E016E88514FEC7A
:1020800000F00D0EE7EC00F0080EF76E380EF66E5D
:10209000DFEC00F0040E016E89514FEC00F00D0EE4
:1020A000E7EC00F0080EF76E4C0EF66EDFEC00F079
:1020B000040E016E8A514FEC00F00D0EE7EC00F0BB
:1020C000080EF76E600EF66EDFEC00F00D0EE7EC1A
:1020D00000F00D0EE7EF00F0040E956F936B946B1C
:1020E0002490248224A296D0010E9A6F2AD901EE60
:1020F000F5F0080EF76E780EF66E79EC01F0EF6AE7
:10210000EED9020EAA6FDED9030EAA6FDBD9040E38
:10211000AA6FD8D9020E935D02E2946B16D0FF0E1F
:102120009525056E066AFF0E062206520CE1055043
:10213000935D09E3030E955D04E3030E955D946FD3
:1021400001D0946B02D09305946F020E976F050E29
:10215000975DD8B05ED0945197251B6E1C6A1C36D3
:10216000020E1B5C986F9851935D03E1010E966F10
:1021700001D0966B98530FE197C0ABF002EE16F0CA
:10218000080EF76E8E0EF66E79EC01F0EF6A96C0CF
:10219000ACF0BBD93BD0010E985D0FE197C0ABF01E
:1021A00002EE16F0080EF76E980EF66E79EC01F05E
:1021B000EF6A96C0ACF0A9D929D0020E985D0FE164
:1021C00097C0ABF002EE16F0080EF76EA40EF66E96
:1021D00079EC01F0EF6A96C0ACF097D917D0030EF6
:1021E000985D11E197C0ABF002EE16F0420EEE6E74
:1021F000610EEE6E630EEE6E6B0EEE6EEF6A96C0C3
:10220000ACF083D903D097C0AAF05CD9972BD8A0A3
:102210009ED72492C4D92E5215E0010E2E5C0EE1F9
:10222000FF0E9525056E066AFF0E0622065203E193
:102230000550935D02E20001932B03D0935301E01C
:102240009307248296D9010EAD5D03E1020E926FD1
:102250001200D1D9D1D9010EB05DD8A44ED0020E52
:102260009A6F6FD8935304E1010E926F120045D01C
:10227000010E935D28E1080EF76EB20EF66EDFECEC
:1022800000F0040E016E93514FEC00F00D0EE7ECE0
:1022900000F02CEC15F0BAC099F0080EF76ED60ECF
:1022A000F66EDFEC00F0040E016E93514FEC00F07F
:1022B0000D0EE7EC00F0020E995D03E1020E926F45
:1022C000120024821AD0020E935D0DE102EE37F067
:1022D000080EF76EF80EF66E79EC01F0EF6A46EC38
:1022E00017F024820AD0030E935D04E1010E926F71
:1022F000120003D0010E926F1200F4D61200249047
:10230000248224A214D001EEF5F0090EF76E000E1F
:10231000F66E79EC01F0EF6AE2D8020EAA6FD2D81D
:10232000030EAA6FCFD8040EAA6FCCD8249263D91B
:1023300063D9010EB05D03E1020E9A6F02D0E1D7BE
:1023400012009AC032F0336A346A9A5303E1316A58
:10235000306A35D0010E9A5D05E152C031F051C0AE
:1023600030F02DD0020E9A5D05E152C031F051C01F
:1023700030F025D0030E9A5D0BE15250060DF3CFDD
:1023800031F05150060DF3CF30F0F450312617D014
:10239000040E9A5D05E152C031F051C030F00FD00B
:1023A000050E9A5D05E152C031F051C030F007D002
:1023B000060E9A5D04E137C031F036C030F01200ED
:1023C0009BC0C1F075EC17F090EF17F0809C9C3922
:1023D0000F0B9D6F9DC09BF0F3DF0F0E9C159D6F43
:1023E0009DC09BF0EDDF010E9C5D010ED8A4000E98
:1023F000236E020E9C5D010ED8A4000E231204E091
:10240000020E06EC01F003D0320E13EC01F01200C4
:102410009F5304E1010E9E15A06F30D0010E9F5D09
:1024200004E1020E9E15A06F29D0020E9F5D04E10B
:10243000040E9E15A06F22D0030E9F5D04E1080ECE
:102440009E15A06F1BD0040E9F5D04E1100E9E151B
:10245000A06F14D0050E9F5D04E1200E9E15A06FA5
:102460000DD0060E9F5D04E1400E9E15A06F06D0B4
:10247000070E9F5D03E1800E9E15A06F1200060EF1
:10248000326E336A346AA1C035F0A3C037F0A2C0FF
:1024900036F0A5C039F0A4C038F0A3C031F0A2C016
:1024A00030F01200A96B010EA86FA851A65DA951CA
:1024B000A75907E3010E06EC01F0A82B000EA92393
:1024C000F4E31200800E016EAAC002F0010E12ECBD
:1024D00000F0090EF76E160EF66E8AEF00F0800E11
:1024E000016E30EC00F0090EF76E160EF66E8AECF7
:1024F00000F0800E016E30EC00F001EEF5F0EE50D1
:1025000003E092EC00F0FBD71200800E016EABC02E
:1025100002F0010E12EC00F0090EF76E160EF66EC8
:102520008AEC00F0010EAC5D15E1800E016EABC0CF
:1025300002F0010E12EC00F05B0E92EC00F002EEE5
:1025400016F0EE5003E092EC00F0FBD75D0E92EC3B
:1025500000F00ED0800E016EABC002F0020E12EC45
:1025600000F002EE16F0EE5003E092EC00F0FBD724
:102570001200010E4D5C11E14D6A010E906F82EC6C
:102580000CF0090EF76E2C0EF66EDFEC00F00D0E5F
:10259000E7EC00F0010EAD6F01D0AD6B1200F29EC2
:1025A0004AC0AFF049C0AEF0F28EAE514B5CAF51B5
:1025B0004C580BE2010E2E6E26C02AF027C02BF0DD
:1025C00028C02CF029C02DF011D04B50AE5D4C50DE
:1025D000AF590BE2FF0E2E6E26C02AF027C02BF05B
:1025E00028C02CF029C02DF001D02E6AAFC04CF0CD
:1025F000AEC04BF0120012002FC0B0F02F6A1200D4
:10260000B36BB26BB3C0CBF0B2C0CAF0DBEC17F067
:10261000CCC0B4F0B4533AE1020EB225C46F000E40
:10262000B321C56FC1EC17F0C7C050F0C6C04FF062
:10263000040EB225C46F000EB321C56FC1EC17F0B4
:10264000C7C052F0C6C051F0080EB225A96E000EE8
:10265000B321AA6EFFEC00F03B6ED26B4F0ED16F30
:10266000D46B0A0ED36F010ED66F2C0ED56F14ECFF
:1026700018F0D26B510ED16FD46B0A0ED36F070EC8
:10268000D66FD00ED56F14EC18F027D087EC1DF064
:10269000E05308E13B0EC26F020EC36F9AEC17F0D5
:1026A000B46B1BD0E9EC1DF0EB5308E13B0EC26F9D
:1026B000030EC36F9AEC17F0B46B0FD0506A3C0E48
:1026C0004F6E526A320E516E3B6A3B0EC26FC36B45
:1026D0009AEC17F027EC18F0B46BB4C03AF0B4C021
:1026E000B1F012001C6A200E1B6E1E6AB5C01DF0F0
:1026F0001D06000E1E5A1E50200DF3CF1EF01D5059
:10270000200DF3CF1DF0F4501E261D501B24B76F73
:102710001E501C20B86FB8C0CBF0B7C0CAF0DBECBD
:1027200017F0CCC0B9F0B953D8A480D1010EB55D73
:10273000D8A47CD0020EB725A96E000EB821AA6ECF
:10274000FFEC00F0536E030EB725A96E000EB82102
:10275000AA6EFFEC00F0546E040EB725A96E000EB1
:10276000B821AA6EFFEC00F0556E050EB725C46FB8
:10277000000EB821C56FC1EC17F0C7C057F0C6C036
:1027800056F0070EB725C46F000EB821C56FC1EC17
:1027900017F0C7C059F0C6C058F0090EB725C46F6E
:1027A000000EB821C56FC1EC17F0C7C05BF0C6C002
:1027B0005AF00B0EB725C46F000EB821C56FC1ECDF
:1027C00017F0C7C05DF0C6C05CF00D0EB725C46F32
:1027D000000EB821C56FC1EC17F0C7C05FF0C6C0CE
:1027E0005EF00F0EB725A96E000EB821AA6EFFECA1
:1027F00000F0606E100EB725A96E000EB821AA6E0B
:10280000FFEC00F0616E110EB725A96E000EB82125
:10281000AA6EFFEC00F0626E120EB725A96E000ED4
:10282000B821AA6EFFEC00F0636EFFD0020EB55D1A
:10283000D8A47CD0020EB725A96E000EB821AA6ECE
:10284000FFEC00F0696E030EB725A96E000EB821EB
:10285000AA6EFFEC00F06A6E040EB725A96E000E9A
:10286000B821AA6EFFEC00F06B6E050EB725C46FA1
:10287000000EB821C56FC1EC17F0C7C06DF0C6C01F
:102880006CF0070EB725C46F000EB821C56FC1EC00
:1028900017F0C7C06FF0C6C06EF0090EB725C46F41
:1028A000000EB821C56FC1EC17F0C7C071F0C6C0EB
:1028B00070F00B0EB725C46F000EB821C56FC1ECC8
:1028C00017F0C7C073F0C6C072F00D0EB725C46F05
:1028D000000EB821C56FC1EC17F0C7C075F0C6C0B7
:1028E00074F00F0EB725A96E000EB821AA6EFFEC8A
:1028F00000F0766E100EB725A96E000EB821AA6EF4
:10290000FFEC00F0776E110EB725A96E000EB8210E
:10291000AA6EFFEC00F0786E120EB725A96E000EBD
:10292000B821AA6EFFEC00F0796E7FD0030EB55D82
:10293000D8A47BD0020EB725A96E000EB821AA6ECE
:10294000FFEC00F07A6E030EB725A96E000EB821D9
:10295000AA6EFFEC00F07B6E040EB725A96E000E88
:10296000B821AA6EFFEC00F07C6E050EB725C46F8F
:10297000000EB821C56FC1EC17F0C7C07EF0C6C00D
:102980007DF0070EB725C46F000EB821C56FC1ECEE
:1029900017F0C7C080F0C6C07FF0090EB725C46F1E
:1029A000000EB821C56FC1EC17F0C7C082F0C6C0D9
:1029B00081F00B0EB725C46F000EB821C56FC1ECB6
:1029C00017F0C7C084F0C6C083F00D0EB725C46FE2
:1029D000000EB821C56FC1EC17F0C7C086F0C6C0A5
:1029E00085F00F0EB725A96E000EB821AA6EFFEC78
:1029F00000F0876F100EB725A96E000EB821AA6EE1
:102A0000FFEC00F0886F110EB725A96E000EB821FB
:102A1000AA6EFFEC00F0896F120EB725A96E000EAA
:102A2000B821AA6EFFEC00F08A6F11D0B5C0E4F0B7
:102A3000A9EC1DF0E55302E1B96B09D0B5C0EDF08A
:102A400076EC1EF0B5C0DBF09CEC18F0B96BB9C0A9
:102A50003AF0B9C0B6F01200050EBD6FBB6BBC6B8F
:102A60002490248224A2C6D1010E9A6FA1EC11F009
:102A700001EEF5F0090EF76E5C0EF66E79EC01F0E2
:102A8000EF6A6FEC12F0020EAA6F62EC12F0030E06
:102A9000AA6F62EC12F0040EAA6F62EC12F0020E42
:102AA000BB5D02E2BC6B16D0FF0EBD25056E066A4B
:102AB000FF0E062206520CE10550BB5D09E3030E32
:102AC000BD5D04E3030EBD5DBC6F01D0BC6B02D0E5
:102AD000BB05BC6F020EBF6F050EBF5DD8B089D1BC
:102AE000FE0EBF251B6E1C6AFF0E1C22BC511B2450
:102AF000C06FC051BB5D03E1010EBE6F01D0BE6B64
:102B0000C053D8A469D0800E016EBFC002F0010E80
:102B100012EC00F0090EF76E160EF66E8AEC00F05D
:102B2000010EBE5D0EE1800E016EBFC002F0010E0F
:102B300012EC00F0090EF76E720EF66E8AEC00F0E1
:102B40000DD0800E016EBFC002F0020E12EC00F03C
:102B5000090EF76E800EF66E8AEC00F054520EE10C
:102B6000800E016EBFC002F00D0E12EC00F0090ED7
:102B7000F76E8C0EF66E8AEC00F02DD0010E545CD0
:102B800014E1800E016EBFC002F0110E12EC00F0D5
:102B9000540E92EC00F0650E92EC00F06D0E92EC8B
:102BA00000F0700E92EC00F016D0020E545C13E1AF
:102BB000800E016EBFC002F0110E12EC00F0460E46
:102BC00092EC00F06C0E92EC00F06F0E92EC00F0C4
:102BD000770E92EC00F00AD1010EC05DD8A469D046
:102BE000800E016EBFC002F0010E12EC00F0090E63
:102BF000F76E160EF66E8AEC00F0010EBE5D0EE169
:102C0000800E016EBFC002F0010E12EC00F0090E42
:102C1000F76E960EF66E8AEC00F00DD0800E016E07
:102C2000BFC002F0020E12EC00F0090EF76EA40E07
:102C3000F66E8AEC00F06A520EE1800E016EBFC0A3
:102C400002F00D0E12EC00F0090EF76E8C0EF66E0F
:102C50008AEC00F02DD0010E6A5C14E1800E016E4A
:102C6000BFC002F0110E12EC00F0540E92EC00F016
:102C7000650E92EC00F06D0E92EC00F0700E92EC8E
:102C800000F016D0020E6A5C13E1800E016EBFC028
:102C900002F0110E12EC00F0460E92EC00F06C0EF9
:102CA00092EC00F06F0E92EC00F0770E92EC00F0D8
:102CB0009DD0020EC05DD8A469D0800E016EBFC049
:102CC00002F0010E12EC00F0090EF76E160EF66E11
:102CD0008AEC00F0010EBE5D0EE1800E016EBFC0F9
:102CE00002F0010E12EC00F0090EF76EB00EF66E57
:102CF0008AEC00F00DD0800E016EBFC002F0020E13
:102D000012EC00F0090EF76EBE0EF66E8AEC00F0C3
:102D10007B520EE1800E016EBFC002F00D0E12EC70
:102D200000F0090EF76E8C0EF66E8AEC00F02DD0D6
:102D3000010E7B5C14E1800E016EBFC002F0110E2B
:102D400012EC00F0540E92EC00F0650E92EC00F0E4
:102D50006D0E92EC00F0700E92EC00F016D0020EA8
:102D60007B5C13E1800E016EBFC002F0110E12EC0D
:102D700000F0460E92EC00F06C0E92EC00F06F0E3C
:102D800092EC00F0770E92EC00F030D0030EC05DB4
:102D900014E1BFC0ABF002EE16F0430EEE6E6C0E07
:102DA000EE6E6F0EEE6E630EEE6E6B0EEE6EEF6AF3
:102DB000BEC0ACF085EC12F019D0040EC05D12E17B
:102DC000BFC0ABF002EE16F0420EEE6E610EEE6E7C
:102DD000630EEE6E6B0EEE6EEF6ABEC0ACF085EC6D
:102DE00012F004D0BFC0AAF062EC12F0BF2BD8A042
:102DF00073D62492CFEC12F02E5215E0010E2E5C09
:102E00000EE1FF0EBD25056E066AFF0E0622065274
:102E100003E10550BB5D02E20001BB2B03D0BB53B5
:102E200001E0BB072482B9EC12F0010EAD5D03E1B5
:102E3000020EBA6F1200FBEC12F0FCEC12F0010E65
:102E4000B05D22E1020E9A6FA1EC11F0BB5304E1D8
:102E5000C2EC1EF0248218D0010EBB5D04E1CBEC65
:102E60001EF0248211D0020EBB5D04E1D4EC1EF0F2
:102E700024820AD0030EBB5D04E1DDEC1EF0248247
:102E800003D0010EBA6F1200EDD51200249001EEAE
:102E9000F5F012EE37F0200EE75204E0E6CFEEFF39
:102EA000E82EFAD7090EF76ECA0EF66E79EC01F02D
:102EB000EF6A6FEC12F0020EAA6F62EC12F0030ED2
:102EC000AA6F62EC12F0040EAA6F62EC12F0FBEC37
:102ED00012F0FCEC12F0010EB05D05E1020E9A6FEB
:102EE000A1EC11F001D0F3D71200C13102E38980C7
:102EF00001D08990C1C0E8FFE8A202D0898201D048
:102F00008992C1C0E8FFE8A402D0898401D08994E5
:102F1000C1C0E8FFE8A602D0898601D089961200D8
:102F2000898E020EE82EFED700000000899E280E32
:102F300013EF01F0C35302E1C28122D0010EC35D41
:102F400002E1C2831DD0020EC35D02E1C28518D02A
:102F5000030EC35D02E1C28713D0040EC35D02E11C
:102F6000C2890ED0050EC35D02E1C28B09D0060EE8
:102F7000C35D02E1C28D04D0070EC35D01E1C28FC3
:102F80001200C5C0AAFFC4C0A9FFFFEC00F0C86FC3
:102F9000010EC425A96E000EC521AA6EFFEC00F03B
:102FA000C96FC9C01CF01B6AC8511B24C66F000E34
:102FB0001C20C76F1200CBC0AAFFCAC0A9FFFFEC3C
:102FC00000F0CF6FA50ECF5D03E0010ECC6F1200B5
:102FD000010ECA25A96E000ECB21AA6EFFEC00F0EF
:102FE000D06F010ED05D03E0020ECC6F12001F0EF9
:102FF000CA25A96E000ECB21AA6EFFEC00F0CD6FA2
:10300000CBC00AF1CAC009F101011F0E0B6F00010C
:103010003EEC20F00CC1CEF0CD51CE5D03E0030EAE
:10302000CC6F1200CC6B1200D351D15DD451D25968
:1030300004E2D4C0D2F0D3C0D1F0D151D55DD25189
:10304000D65904E2D6C0D2F0D5C0D1F01200D96B67
:10305000D86B02EE9AF0090EF76ED80EF66E79EC88
:1030600001F0EF6A50C02DF14FC02CF15FEC22F05F
:10307000020ED825FF6F000ED9210101006F50C04C
:1030800002F14FC001F1000119EC20F003C1DAF0A8
:10309000DA5303E0DAC0D7F0120002EE9AF0090E1C
:1030A000F76EE60EF66E79EC01F0EF6A52C02DF184
:1030B00051C02CF15FEC22F0040ED825FF6F000EFA
:1030C000D9210101006F52C002F151C001F100018C
:1030D00019EC20F003C1DAF0DA5303E0DAC0D7F0DC
:1030E000120002EE79F0090EF76EF40EF66E79EC2E
:1030F00001F0EF6A3BC02BF13EEC22F0080ED82520
:10310000F96F000ED921FA6F3BC0FBF0F6EC1FF00F
:10311000FCC0DAF0DA5303E0DAC0D7F01200D9C00D
:1031200011F1D8C010F15FEC20F012C1DAF0DAC072
:103130003AF0DAC0D7F012001C6A200E1B6E1E6A2D
:10314000DBC01DF01D06000E1E5A1E50200DF3CFD1
:103150001EF01D50200DF3CF1DF0F4501E261D5003
:103160001B24DD6F1E501C20DE6F0A0EF76E000E52
:10317000F66EDFEC00F0040E016EDB514FEC00F058
:103180000D0EE7EC00F00A0EF76E1C0EF66EDFEC8B
:1031900000F0040E016E54504FEC00F00D0EE7EC01
:1031A00000F00A0EF76E2E0EF66EDFEC00F0040E45
:1031B000016EDB514FEC00F00A0EF76E420EF66E18
:1031C000DFEC00F00D0EE7EC00F0010EDB5DD8A4A3
:1031D0006ED102EE79F00A0EF76E520EF66E79ECB1
:1031E00001F0EF6A53C02BF13EEC22F0020EDD2518
:1031F000F96F000EDE21FA6F53C0FBF0F6EC1FF002
:10320000FCC0DFF0DF5319E102EE79F00A0EF76E31
:10321000600EF66E79EC01F0EF6A54C02BF13EECD3
:1032200022F0030EDD25F96F000EDE21FA6F54C087
:10323000FBF0F6EC1FF0FCC0DFF0DF5319E102EE0B
:1032400079F00A0EF76E6E0EF66E79EC01F0EF6A09
:1032500055C02BF13EEC22F0040EDD25F96F000E77
:10326000DE21FA6F55C0FBF0F6EC1FF0FCC0DFF07A
:10327000DF5325E102EE58F00A0EF76E7C0EF66E73
:1032800079EC01F0EF6A57C006F156C005F139EC50
:1032900020F008C12AF107C129F11CEC22F0050E2B
:1032A000DD25FF6F000EDE210101006F57C002F126
:1032B00056C001F1000119EC20F003C1DFF0DF532B
:1032C00025E102EE58F00A0EF76E880EF66E79ECE4
:1032D00001F0EF6A59C006F158C005F139EC20F051
:1032E00008C12AF107C129F11CEC22F0070EDD25E7
:1032F000FF6F000EDE210101006F59C002F158C0BE
:1033000001F1000119EC20F003C1DFF0DF531FE1F0
:1033100002EE9AF00A0EF76E960EF66E79EC01F058
:10332000EF6A5BC02DF15AC02CF15FEC22F0090E60
:10333000DD25FF6F000EDE210101006F5BC002F191
:103340005AC001F1000119EC20F003C1DFF0DF5396
:103350001FE102EE9AF00A0EF76EA40EF66E79ECFB
:1033600001F0EF6A5DC02DF15CC02CF15FEC22F042
:103370000B0EDD25FF6F000EDE210101006F5DC029
:1033800002F15CC001F1000119EC20F003C1DFF093
:10339000DF531FE102EE9AF00A0EF76EB00EF66EE2
:1033A00079EC01F0EF6A5FC02DF15EC02CF15FECAB
:1033B00022F00D0EDD25FF6F000EDE210101006FF2
:1033C0005FC002F15EC001F1000119EC20F003C101
:1033D000DFF0DF5319E102EE79F00A0EF76EBC0E52
:1033E000F66E79EC01F0EF6A60C02BF13EEC22F052
:1033F0000F0EDD25F96F000EDE21FA6F60C0FBF0C5
:10340000F6EC1FF0FCC0DFF0DF5319E102EE79F0BB
:103410000A0EF76ECA0EF66E79EC01F0EF6A61C023
:103420002BF13EEC22F0100EDD25F96F000EDE21AF
:10343000FA6F61C0FBF0F6EC1FF0FCC0DFF0DF5369
:1034400019E102EE79F00A0EF76ED60EF66E79ECFF
:1034500001F0EF6A62C02BF13EEC22F0110EDD2587
:10346000F96F000EDE21FA6F62C0FBF0F6EC1FF080
:10347000FCC0DFF0DF5319E102EE79F00A0EF76EBF
:10348000E20EF66E79EC01F0EF6A63C02BF13EECD0
:1034900022F0120EDD25F96F000EDE21FA6F63C0F7
:1034A000FBF0F6EC1FF0FCC0DFF038EF1DF0020E71
:1034B000DB5DD8A46DD102EE79F00A0EF76EF00E46
:1034C000F66E79EC01F0EF6A69C02BF13EEC22F068
:1034D000020EDD25F96F000EDE21FA6F69C0FBF0E8
:1034E000F6EC1FF0FCC0DFF0DF5319E102EE79F0DB
:1034F0000A0EF76EFE0EF66E79EC01F0EF6A6AC006
:103500002BF13EEC22F0030EDD25F96F000EDE21DB
:10351000FA6F6AC0FBF0F6EC1FF0FCC0DFF0DF537F
:1035200019E102EE79F00B0EF76E0C0EF66E79ECE7
:1035300001F0EF6A6BC02BF13EEC22F0040EDD25AA
:10354000F96F000EDE21FA6F6BC0FBF0F6EC1FF096
:10355000FCC0DFF0DF5325E102EE58F00B0EF76EF2
:103560001A0EF66E79EC01F0EF6A6DC006F16CC0D0
:1035700005F139EC20F008C12AF107C129F11CEC52
:1035800022F0050EDD25FF6F000EDE210101006F28
:103590006DC002F16CC001F1000119EC20F003C113
:1035A000DFF0DF5325E102EE58F00B0EF76E260E2A
:1035B000F66E79EC01F0EF6A6FC006F16EC005F1AE
:1035C00039EC20F008C12AF107C129F11CEC22F0E6
:1035D000070EDD25FF6F000EDE210101006F6FC0B9
:1035E00002F16EC001F1000119EC20F003C1DFF01F
:1035F000DF531FE102EE9AF00B0EF76E340EF66EFB
:1036000079EC01F0EF6A71C02DF170C02CF15FEC24
:1036100022F0090EDD25FF6F000EDE210101006F93
:1036200071C002F170C001F1000119EC20F003C17A
:10363000DFF0DF531FE102EE9AF00B0EF76E420E41
:10364000F66E79EC01F0EF6A73C02DF172C02CF1C7
:103650005FEC22F00B0EDD25FF6F000EDE21010175
:10366000006F73C002F172C001F1000119EC20F08B
:1036700003C1DFF0DF531FE102EE9AF00B0EF76E8D
:103680004E0EF66E79EC01F0EF6A75C02DF174C044
:103690002CF15FEC22F00D0EDD25FF6F000EDE2118
:1036A0000101006F75C002F174C001F1000119EC55
:1036B00020F003C1DFF0DF5319E102EE79F00B0EC9
:1036C000F76E5A0EF66E79EC01F0EF6A76C02BF1C8
:1036D0003EEC22F00F0EDD25F96F000EDE21FA6FB1
:1036E00076C0FBF0F6EC1FF0FCC0DFF0DF5319E111
:1036F00002EE79F00B0EF76E680EF66E79EC01F0C3
:10370000EF6A77C02BF13EEC22F0100EDD25F96F49
:10371000000EDE21FA6F77C0FBF0F6EC1FF0FCC064
:10372000DFF0DF5319E102EE79F00B0EF76E740E45
:10373000F66E79EC01F0EF6A78C02BF13EEC22F0E6
:10374000110EDD25F96F000EDE21FA6F78C0FBF057
:10375000F6EC1FF0FCC0DFF0DF5319E102EE79F068
:103760000B0EF76E800EF66E79EC01F0EF6A79C001
:103770002BF13EEC22F0120EDD25F96F000EDE215A
:10378000FA6F79C0FBF0F6EC1FF0FCC0DFF070D1EF
:10379000030EDB5DD8A46CD102EE79F00B0EF76E50
:1037A0008E0EF66E79EC01F0EF6A7AC02BF13EECEA
:1037B00022F0020EDD25F96F000EDE21FA6F7AC0CD
:1037C000FBF0F6EC1FF0FCC0DFF0DF5319E102EE76
:1037D00079F00B0EF76E9C0EF66E79EC01F0EF6A45
:1037E0007BC02BF13EEC22F0030EDD25F96F000EBD
:1037F000DE21FA6F7BC0FBF0F6EC1FF0FCC0DFF0BF
:10380000DF5319E102EE79F00B0EF76EAA0EF66E99
:1038100079EC01F0EF6A7CC02BF13EEC22F0040E53
:10382000DD25F96F000EDE21FA6F7CC0FBF0F6ECAF
:103830001FF0FCC0DFF0DF5325E102EE58F00B0E65
:10384000F76EB80EF66E79EC01F0EF6A7EC006F105
:103850007DC005F139EC20F008C12AF107C129F13A
:103860001CEC22F0050EDD25FF6F000EDE210101AC
:10387000006F7EC002F17DC001F1000119EC20F063
:1038800003C1DFF0DF5325E102EE58F00B0EF76EB7
:10389000C40EF66E79EC01F0EF6A80C006F17FC0CD
:1038A00005F139EC20F008C12AF107C129F11CEC1F
:1038B00022F0070EDD25FF6F000EDE210101006FF3
:1038C00080C002F17FC001F1000119EC20F003C1BA
:1038D000DFF0DF531FE102EE9AF00B0EF76ED20E0F
:1038E000F66E79EC01F0EF6A82C02DF181C02CF107
:1038F0005FEC22F0090EDD25FF6F000EDE210101D5
:10390000006F82C002F181C001F1000119EC20F0CA
:1039100003C1DFF0DF531FE102EE9AF00B0EF76EEA
:10392000E00EF66E79EC01F0EF6A84C02DF183C0F1
:103930002CF15FEC22F00B0EDD25FF6F000EDE2177
:103940000101006F84C002F183C001F1000119EC94
:1039500020F003C1DFF0DF531FE102EE9AF00B0EFF
:10396000F76EEC0EF66E79EC01F0EF6A86C02DF181
:1039700085C02CF15FEC22F00D0EDD25FF6F000EEF
:10398000DE210101006F86C002F185C001F1000156
:1039900019EC20F003C1DFF0DF5319E102EE79F0FA
:1039A0000B0EF76EF80EF66E79EC01F0EF6A87C039
:1039B0002BF13EEC22F00F0EDD25F96F000EDE211B
:1039C000FA6F87C0FBF0F6EC1FF0FCC0DFF0DF53AE
:1039D00019E102EE79F00C0EF76E060EF66E79EC38
:1039E00001F0EF6A88C02BF13EEC22F0100EDD25CD
:1039F000F96F000EDE21FA6F88C0FBF0F6EC1FF0C5
:103A0000FCC0DFF0DF5319E102EE79F00C0EF76E27
:103A1000120EF66E79EC01F0EF6A89C02BF13EECE4
:103A200022F0110EDD25F96F000EDE21FA6F89C03C
:103A3000FBF0F6EC1FF0FCC0DFF0DF5319E102EE03
:103A400079F00C0EF76E1E0EF66E79EC01F0EF6A4F
:103A50008AC02BF13EEC22F0120EDD25F96F000E2C
:103A6000DE21FA6F8AC0FBF0F6EC1FF0FCC0DFF03D
:103A7000DF5334E1DEC011F1DDC010F15FEC20F066
:103A800012C1DFF0DF5315E10A0EF76E2E0EF66E4F
:103A9000DFEC00F0040E016EDB514FEC00F00C0E79
:103AA000F76E2C0EF66EDFEC00F00D0EE7EC00F07A
:103AB00014D00C0EF76E4A0EF66EDFEC00F0040E1A
:103AC000016EDB514FEC00F00C0EF76E600EF66EDF
:103AD000DFEC00F00D0EE7EC00F014D00C0EF76EEA
:103AE0004A0EF66EDFEC00F0040E016EDB514FEC77
:103AF00000F00C0EF76E7C0EF66EDFEC00F00D0E93
:103B0000E7EC00F0DFC03AF0DFC0DCF01200E26B5F
:103B1000800EE16FE2C0CBF0E1C0CAF0DBEC17F041
:103B2000CCC0E3F0E35312E1E2C016F1E1C015F1BD
:103B30000101186B176B00011EEC21F019C1E3F0B5
:103B4000E35304E100EC13F0B1C0E3F0E3C0E0F0B4
:103B500012001C6A200E1B6E1E6AE4C01DF01D06BA
:103B6000000E1E5A1E50200DF3CF1EF01D50200DCA
:103B7000F3CF1DF0F4501E261D501B24E86F1E507D
:103B80001C20E96F800EE825E66F000EE921E76F43
:103B9000E7C0CBF0E6C0CAF0DBEC17F0CCC0EAF02F
:103BA000EA5314E1E7C016F1E6C015F1E9C018F1D7
:103BB000E8C017F11EEC21F019C1EAF0EA5306E162
:103BC000E4C0B5F072EC13F0B6C0EAF0EAC0E5F07C
:103BD0001200C56BFA0EC46FC1EC17F0C7C050F0ED
:103BE000C6C04FF0505205E10A0E4F5C02E2000ED3
:103BF00001D0010E236E010E505C06E303E12D0E91
:103C00004F5C02E3000E01D0010E23160001D8B470
:103C10006AD0C56BFC0EC46FC1EC17F0C7C052F080
:103C2000C6C051F0D26B510ED16FD46B0A0ED36F58
:103C3000070ED66FD00ED56F14EC18F0AA6AC80E16
:103C4000A96EFFEC00F0536EAA6AC90EA96EFFECD4
:103C500000F0546EAA6ACA0EA96EFFEC00F0556E11
:103C6000C56BCC0EC46FC1EC17F0C7C057F0C6C00F
:103C700056F0C56BCE0EC46FC1EC17F0C7C059F03B
:103C8000C6C058F05B6A5A6A5D6A5C6A5F6A5E6ABF
:103C9000020E606E616E626E010E636E020EED6F5B
:103CA00025D8030EED6F22D827EC18F0D7C0ECF022
:103CB000EC5306E1010EDB6F9CEC18F0DCC0ECF07D
:103CC000EC5306E1020EDB6F9CEC18F0DCC0ECF06C
:103CD000EC5306E1030EDB6F9CEC18F0DCC0ECF05B
:103CE000ECC0EBF002D0010EEB6F1200010EED5DA7
:103CF00016E1010E536E546A556A576A566A596E38
:103D00006A0E586E5B6A5A6A5D6A5C6A5F6A5E6ACE
:103D1000020E606E616E626E010E636E32D0020E34
:103D2000ED5D17E1010E696E6A6E6B6A6D68CE0E0D
:103D30006C6E6F6A640E6E6E716A706A736A726A14
:103D4000756A746A020E766E776A786A010E796E09
:103D500018D0030EED5D15E17A6A020E7B6E7C6A67
:103D60007E6A7D6A806B640E7F6E826B816B846B72
:103D7000836B866B856B876B020E886F896F010E74
:103D80008A6F12000101010E2E6F000181EC22F0FA
:103D90002FC1EEF012000101020E2E6F000181EC26
:103DA00022F02FC1EFF012000101030E2E6F00016F
:103DB00081EC22F02FC1F0F01200030EF36FF26BD2
:103DC000F56BF669248224A27CD001EEF5F00C0E8E
:103DD000F76E980EF66E79EC01F0EF6A6FEC12F068
:103DE000020EAA6F62EC12F0030EAA6F62EC12F0E0
:103DF000040EAA6F62EC12F0F25303E1010EF46FAD
:103E000001D0F46B800E016EC00E30EC00F00C0E91
:103E1000F76EAE0EF66E8AEC00F00101020E236F13
:103E20000B0E246F50C026F14FC025F1F4C027F1CE
:103E30000001DEEC21F0010EF25D03E1010EF46FF2
:103E400001D0F46B800E016E940E30EC00F00C0E7D
:103E5000F76EBA0EF66E8AEC00F00101030E1D6FCC
:103E60000B0E1E6F52C020F151C01FF1F4C021F1A2
:103E7000000198EC21F0020EF25D12E1040EAB6F2E
:103E800002EE16F0420EEE6E610EEE6E630EEE6EF8
:103E90006B0EEE6EEF6A010EAC6F85EC12F010D077
:103EA000040EAB6F02EE16F0420EEE6E610EEE6E79
:103EB000630EEE6E6B0EEE6EEF6AAC6B85EC12F07D
:103EC0002492CFEC12F02E52D8B44BD0F55317E118
:103ED000010E2E5C0FE1FF0EF325056E066AFF0E44
:103EE0000622065203E10550F25D03E20001F22BC7
:103EF000248204D0F25302E0F207248232D0F65337
:103F000017E1010E2E5C09E1010E505C2C0ED8B4B5
:103F10004F5C02E24F4A502A09D0505203E10B0E87
:103F20004F5C03E34F06000E505A0001248219D063
:103F3000010EF65D16E1010E2E5C09E1070E525CE2
:103F4000D00ED8B4515C02E2514A522A09D05252E2
:103F500003E10B0E515C03E35106000E525A0001BF
:103F60002482FBEC12F0FCEC12F0010EB05D3CE19F
:103F7000020E9A6FA1EC11F0F55317E1020EF25DFB
:103F800004E1010EF16F12000FD0010EF56FF2C0C7
:103F9000F6F0F25305E150C0F8F04FC0F7F004D04E
:103FA00052C0F8F051C0F7F01FD0F6530DE1D26BBC
:103FB0004F0ED16FD46B0A0ED36F010ED66F2C0E3D
:103FC000D56F14EC18F00CD0D26B510ED16FD46BAE
:103FD0000A0ED36F070ED66FD00ED56F14EC18F003
:103FE00027EC18F0F56BF669EED61200010EFE6FA5
:103FF000040EFE5D1BE2FAC0AAFFF9C0A9FFFB5147
:10400000EFEC00F00A0E06EC01F0FAC0AAFFF9C0CE
:10401000A9FFFFEC00F0FD6FFD51FB5D02E1FC6BC1
:104020001200050E06EC01F0FE2BE2E3050EFC6F1C
:10403000120000C1FAF0FFC0F9F001C1FBF0D6DFB9
:10404000FCC004F101010453000103E004C103F1C9
:104050001200010EFF25F96F000E01010021000181
:10406000FA6F02C1FBF0C2DFFCC004F104C103F12E
:10407000120006C108F105C107F1120001010D6B24
:104080000B05256E0E6B01010E51255C000111E33D
:1040900001010E510925A96E000E0A21AA6EFFEC3E
:1040A00000F001010F6F0F510D2701010E2B0001D0
:1040B000EAE301010D5100080C6F000112000C0E23
:1040C000F76EC60EF66EDFEC00F0040E016E046AA9
:1040D00011C114F010C113F052EC00F00D0EE7EC1A
:1040E00000F00C0EF76EEE0EF66EDFEC00F00D0E2B
:1040F000E7EC00F011C1FAF010C1F9F0A50EFB6F6A
:1041000075DFFCC014F101011453000113E00D0E22
:10411000F76E080EF66EDFEC00F0040E016E010182
:1041200014514FEC00F00D0EE7EC00F014C112F149
:10413000000112000D0EF76E2C0EF66EDFEC00F093
:104140000D0EE7EC00F0010E010110250001F96FE2
:10415000000E010111210001FA6F010EFB6F46DF15
:10416000FCC014F101011453000113E00D0EF76EB1
:10417000480EF66EDFEC00F0040E016E01011451E2
:104180004FEC00F00D0EE7EC00F014C112F100014D
:1041900012000D0EF76E6E0EF66EDFEC00F00D0ED7
:1041A000E7EC00F011C10AF110C109F101011F0E85
:1041B0000B6F000163DF0CC113F10D0EF76E8A0E59
:1041C000F66EDFEC00F0040E016E020E046E0101CB
:1041D000135138EC00F00D0EE7EC00F01F0E01015A
:1041E00010250001F96F000E010111210001FA6F85
:1041F00013C1FBF0FBDEFCC014F1010114530001FC
:1042000011E00D0EF76EA60EF66EDFEC00F0040E58
:10421000016E010114514FEC00F00D0EE7EC00F0BF
:10422000000109D00D0EF76ECC0EF66EDFEC00F03B
:104230000D0EE7EC00F014C112F112000D0EF76E36
:10424000F20EF66EDFEC00F0040E016E046A16C189
:1042500014F015C113F052EC00F0200EE7EC00F062
:10426000440EE7EC00F0730EE7EC00F0740EE7ECA0
:1042700000F03D0EE7EC00F0046A18C114F017C11D
:1042800013F052EC00F00D0EE7EC00F001011A6B98
:10429000200E01011A5D00013EE201011A511525AF
:1042A000A96E000E1621AA6EFFEC00F001011B6F33
:1042B0001A5117250001F96F000E010118210001A4
:1042C000FA6F1BC1FBF092DEFCC01CF101011C5314
:1042D00000011DE00E0EF76E0E0EF66EDFEC00F024
:1042E000040E016E01011A514FEC00F00E0EF76E34
:1042F0002A0EF66EDFEC00F001011C514FEC00F0CD
:104300000D0EE7EC00F01CC119F1000112000101D3
:104310001A2B0001BDE30E0EF76E340EF66EDFECC5
:1043200000F00D0EE7EC00F00101196B0001120026
:104330001C6A1EC11BF01B4A1C2A1E6A080E1D6E39
:10434000050E1D5E000E1E5A1B501D240101226F1A
:104350001DC161F11EC162F100012DEC2DF0010EB5
:104360000101215D000117E1800E016E1DC102F007
:104370000101220512EC00F05B0E92EC00F0800EC1
:10438000016E1DC102F0090E01011E2512EC00F0A4
:104390005D0E92EC00F00001800E016E1DC102F076
:1043A0000101225112EC00F0050E046E20C114F040
:1043B0001FC113F052EC00F0000112001C6A24C16E
:1043C0001BF01B4A1C2A1E6A080E1D6E050E1D5E80
:1043D000000E1E5A1B501D240101286F23C161F1DC
:1043E00024C162F100012DEC2DF0010E0101275DC9
:1043F000000117E1800E016E23C102F001012805C2
:1044000012EC00F05B0E92EC00F0800E016E23C106
:1044100002F0090E0101242512EC00F05D0E92EC71
:1044200000F0000123C172F128C173F126C175F1BA
:1044300025C174F15FEF2EF00E0EF76E5E0EF66E74
:10444000DFEC00F002EE58F0EE5003E0E7EC00F095
:10445000FBD7200EE7EC00F03D0EE7EC00F0200E5D
:10446000E7EC00F0040E016E046A2AC114F029C1C1
:1044700013F04DEC00F00D0EE7EF00F00E0EF76EAE
:104480005E0EF66EDFEC00F002EE79F0EE5003E027
:10449000E7EC00F0FBD7200EE7EC00F03D0EE7EC78
:1044A00000F0200EE7EC00F0040E016E01012B512C
:1044B0004FEC00F00D0EE7EC00F0000112000E0EC4
:1044C000F76E5E0EF66EDFEC00F002EE9AF0EE5044
:1044D00003E0E7EC00F0FBD7200EE7EC00F03D0E28
:1044E000E7EC00F0200EE7EC00F0040E016E046A29
:1044F0002DC114F02CC113F052EC00F00D0EE7EFBB
:1045000000F00E0EF76E6C0EF66EDFEC00F0040E8F
:10451000016E01012E514FEC00F00D0EE7EC00F0A2
:10452000010E01012E5D000121E153C030F154C0A4
:1045300031F157C033F156C032F159C035F158C08E
:1045400034F15BC037F15AC036F15DC039F15CC05F
:1045500038F15FC03BF15EC03AF160C03CF161C030
:104560003DF162C03EF163C03FF14BD0020E01014C
:104570002E5D000121E169C030F16AC031F16DC0EA
:1045800033F16CC032F16FC035F16EC034F171C0DF
:1045900037F170C036F173C039F172C038F175C0AF
:1045A0003BF174C03AF176C03CF177C03DF178C080
:1045B0003EF179C03FF125D0030E01012E5D0001CF
:1045C00020E17AC030F17BC031F17EC033F17DC093
:1045D00032F180C035F17FC034F182C037F181C043
:1045E00036F184C039F183C038F186C03BF185C013
:1045F0003AF187C03CF188C03DF189C03EF18AC0E4
:104600003FF10E0EF76E8E0EF66EDFEC00F0040E2C
:10461000016E046A33C114F032C113F052EC00F0A1
:104620000E0EF76EA60EF66EDFEC00F0046A35C1D2
:1046300014F034C113F052EC00F00D0EE7EC00F072
:104640000101416B426B248201013153000105E1FC
:1046500001010C0E436F00010DD0010E0101315D0F
:10466000000105E101010A0E436F000103D00101C1
:10467000050E436F01014305476F000124A2EAEFD5
:1046800027F0010E9A6FA1EC11F0800E016E30EC54
:1046900000F0090EF76E160EF66E8AEC00F0800E32
:1046A000016E30EC00F00E0EF76EB20EF66E8AEC74
:1046B00000F0010E046E01012E5150EC00F00E0EC0
:1046C000F76EBA0EF66E8AEC00F00001020EAA6FC9
:1046D00062EC12F0030EAA6F62EC12F0040EAA6FE5
:1046E00062EC12F0020E0101415D000104E20101E1
:1046F000426B000121D0FF0E01014325056E066AC1
:10470000FF0E06220652000114E105500101415D31
:1047100000010FE3030E0101435D000106E3030EF8
:104720000101435D426F000102D00101426B0001B3
:1047300003D001014105426F0101020E456F050ED4
:104740000101455D0001D8B0E9EF27F0FE0E01013F
:1047500045251B6E1C6AFF0E1C2242511B24466F0E
:104760004651475D0001D8A0DFEF27F00101465117
:10477000415D000105E10101010E446F000102D01D
:104780000101446B010131530001D8A470D0010133
:104790004653000104E10101486B000167D0010E9E
:1047A0000101465D000105E10101010E486F0001B4
:1047B0005DD0020E0101465D000105E10101020E1E
:1047C000486F000153D0030E0101465D000105E171
:1047D0000101030E486F000149D0040E0101465D3E
:1047E000000105E10101040E486F00013FD0050EF4
:1047F0000101465D000105E10101050E486F000160
:1048000035D0060E0101465D000105E10101060EED
:10481000486F00012BD0070E0101465D000105E144
:104820000101070E486F000121D0080E0101465D0D
:10483000000105E10101080E486F000117D0090EC3
:104840000101465D000105E10101090E486F00010B
:104850000DD00A0E0101465D000105E101010A0EBD
:10486000486F000102D00101486900018AD0010EA1
:104870000101315D0001D8A45CD001014653000163
:1048800004E10101486B000153D0010E0101465DB6
:10489000000105E10101010E486F000149D0020E3F
:1048A0000101465D000105E10101020E486F0001B2
:1048B0003FD0030E0101465D000105E10101030E39
:1048C000486F000135D0040E0101465D000105E18D
:1048D0000101040E486F00012BD0050E0101465D59
:1048E000000105E10101060E486F000121D0060E0E
:1048F0000101465D000105E10101070E486F00015D
:1049000017D0070E0101465D000105E10101090E06
:10491000486F00010DD0080E0101465D000105E160
:1049200001010A0E486F000102D00101486900012F
:1049300028D001014653000104E10101486B000148
:1049400020D0010E0101465D000105E10101010ECB
:10495000486F000116D0020E0101465D000105E11D
:1049600001010A0E486F00010CD0030E0101465DE3
:10497000000105E10101090E486F000102D00101AB
:10498000486901014829000113E145C15DF102EECA
:10499000BBF0420EEE6E610EEE6E630EEE6E6B0EAF
:1049A000EE6EEF6A44C15EF1E6EC2CF0DEEF27F02C
:1049B0000101485300013FE1800E016E45C102F044
:1049C000010E12EC00F00E0EF76EC80EF66E8AECB9
:1049D00000F0010E0101305D000116E145C163F1F7
:1049E00001010B0E646F02EEDCF00E0EF76ED40EBA
:1049F000F66E79EC01F0EF6A44C165F10101666B76
:104A000000013DEC2DF015D045C163F101010B0E05
:104A1000646F02EEDCF00E0EF76EDC0EF66E79ECD3
:104A200001F0EF6A44C165F10101666B00013DECE4
:104A30002DF0DEEF27F0010E0101485D0001D8A442
:104A40005BD0800E016E45C102F0010E12EC00F049
:104A50000E0EF76EE60EF66E8AEC00F00101315391
:104A6000000116E145C163F101010B0E646F02EE16
:104A7000DCF0090EF76E8C0EF66E79EC01F0EF6A41
:104A800044C165F10101666B00013DEC2DF032D0AF
:104A9000010E0101315D000117E145C163F1010122
:104AA0000B0E646F02EEDCF0540EEE6E650EEE6ED1
:104AB0006D0EEE6E700EEE6EEF6A44C165F1666BC0
:104AC00000013DEC2DF016D045C163F101010B0E44
:104AD000646F02EEDCF0460EEE6E6C0EEE6E6F0E44
:104AE000EE6E770EEE6EEF6A44C165F1666B000103
:104AF0003DEC2DF0DEEF27F0020E0101485D0001D4
:104B000028E1800E016E45C102F0010E12EC00F0AA
:104B10000E0EF76EF20EF66E8AEC00F033C106F15F
:104B200032C105F139EC20F008C14CF107C14BF15D
:104B300045C169F101010B0E6A6F4CC16CF14BC1AB
:104B40006BF144C16DF16E6B0001B0EC2DF0DEEF46
:104B500027F0030E0101485D000127E1800E016E80
:104B600045C102F0010E12EC00F00E0EF76EFE0EC3
:104B7000F66E8AEC00F035C106F134C105F139EC6E
:104B800020F008C14EF107C14DF145C169F10101A5
:104B90000B0E6A6F4EC16CF14DC16BF144C16DF1EA
:104BA0006E6B0001B0EC2DF009D2040E0101485DDE
:104BB00000012EE10101315300010EE1800E016E72
:104BC00045C102F0010E12EC00F00F0EF76E0A0E56
:104BD000F66E8AEC00F00DD0800E016E45C102F039
:104BE000010E12EC00F00F0EF76E160EF66E8AEC48
:104BF00000F045C123F101010B0E246F37C126F1EE
:104C000036C125F144C127F10001DEEC21F0D6D1F7
:104C1000050E0101485D00011CE1800E016E45C1D9
:104C200002F0010E12EC00F00F0EF76E220EF66E7F
:104C30008AEC00F045C123F101010B0E246F39C14C
:104C400026F138C125F144C127F10001DEEC21F045
:104C5000B5D1060E0101485D00012EE1010131537D
:104C600000010EE1800E016E45C102F0010E12EC52
:104C700000F00F0EF76E2E0EF66E8AEC00F00DD0DF
:104C8000800E016E45C102F0010E12EC00F00F0E15
:104C9000F76E3A0EF66E8AEC00F045C123F1010181
:104CA0000B0E246F3BC126F13AC125F144C127F117
:104CB0000001DEEC21F082D1070E0101485D000108
:104CC000D8A460D0800E016E45C102F0010E12EC36
:104CD00000F00F0EF76E460EF66E8AEC00F0010142
:104CE0003C53000113E145C163F101010B0E646FF8
:104CF00002EEDCF04E0EEE6E6F0EEE6EEF6A44C109
:104D000065F1666B00013DEC2DF03BD0010E010119
:104D10003C5D000119E145C163F101010B0E646FB7
:104D200002EEDCF0500EEE6E750EEE6E6C0EEE6E58
:104D3000730EEE6E650EEE6EEF6A44C165F1666B42
:104D400000013DEC2DF01DD0020E01013C5D000183
:104D500018E145C163F101010B0E646F02EEDCF056
:104D60004C0EEE6E610EEE6E740EEE6E630EEE6E17
:104D7000680EEE6EEF6A44C165F1666B00013DECB2
:104D80002DF01CD1080E0101485D0001D8A460D0AF
:104D9000800E016E45C102F0010E12EC00F00F0E04
:104DA000F76E520EF66E8AEC00F001013D530001E1
:104DB00013E145C163F101010B0E646F02EEDCF0FB
:104DC0004E0EEE6E6F0EEE6EEF6A44C165F1666BCD
:104DD00000013DEC2DF03BD0010E01013D5D0001D5
:104DE00019E145C163F101010B0E646F02EEDCF0C5
:104DF000500EEE6E750EEE6E6C0EEE6E730EEE6E67
:104E0000650EEE6EEF6A44C165F1666B00013DEC24
:104E10002DF01DD0020E01013D5D000118E145C1DC
:104E200063F101010B0E646F02EEDCF04C0EEE6ECE
:104E3000610EEE6E740EEE6E630EEE6E680EEE6E2A
:104E4000EF6A44C165F1666B00013DEC2DF0B6D010
:104E5000090E0101485D0001D8A472D0010131534F
:104E600000010EE1800E016E45C102F0010E12EC50
:104E700000F00F0EF76E5E0EF66E8AEC00F00DD0AD
:104E8000800E016E45C102F0010E12EC00F00F0E13
:104E9000F76E6A0EF66E8AEC00F001013E530001D7
:104EA00013E145C163F101010B0E646F02EEDCF00A
:104EB0004E0EEE6E6F0EEE6EEF6A44C165F1666BDC
:104EC00000013DEC2DF03BD0010E01013E5D0001E3
:104ED00019E145C163F101010B0E646F02EEDCF0D4
:104EE000500EEE6E750EEE6E6C0EEE6E730EEE6E76
:104EF000650EEE6EEF6A44C165F1666B00013DEC34
:104F00002DF01DD0020E01013E5D000118E145C1EA
:104F100063F101010B0E646F02EEDCF04C0EEE6EDD
:104F2000610EEE6E740EEE6E630EEE6E680EEE6E39
:104F3000EF6A44C165F1666B00013DEC2DF03ED097
:104F40000A0E0101485D000139E1800E016E45C184
:104F500002F0010E12EC00F00F0EF76E760EF66EF8
:104F60008AEC00F0010E01013F5D000115E145C131
:104F700063F101010B0E646F02EEDCF0590EEE6E70
:104F8000650EEE6E730EEE6EEF6A44C165F1666BF0
:104F900000013DEC2DF012D045C163F101010B0E73
:104FA000646F02EEDCF04E0EEE6E6F0EEE6EEF6A88
:104FB00044C165F1666B00013DEC2DF004D045C1A4
:104FC000AAF062EC12F00101452B0001D8A09FEF7E
:104FD00023F02492CFEC12F02E5214E0010E2E5C3E
:104FE00009E101014751415D000102E20101412B4C
:104FF000000107D001014153000102E00101410716
:1050000000012482B9EC12F0010EAD5D05E1010151
:10501000020E2F6F00011200FBEC12F0FCEC12F0FC
:10502000010EB05DD8A4DEEF2CF001014251415DCC
:105030001B6E1C6AD8A01C06020E1B24496F31533C
:105040000001D8A470D001014153000104E1010125
:10505000486B000167D0010E0101415D000105E1CF
:105060000101010E486F00015DD0020E0101415D9A
:10507000000105E10101020E486F000153D0030E4B
:105080000101415D000105E10101030E486F0001CE
:1050900049D0040E0101415D000105E10101040E4A
:1050A000486F00013FD0050E0101415D000105E19F
:1050B0000101050E486F000135D0060E0101415D6A
:1050C000000105E10101060E486F00012BD0070E1B
:1050D0000101415D000105E10101070E486F00017A
:1050E00021D0080E0101415D000105E10101080E1A
:1050F000486F000117D0090E0101415D000105E173
:105100000101090E486F00010DD00A0E0101415D39
:10511000000105E101010A0E486F000102D0010102
:10512000486900018AD0010E0101315D0001D8A457
:105130005CD001014153000104E10101486B000111
:1051400053D0010E0101415D000105E10101010E95
:10515000486F000149D0020E0101415D000105E1E7
:105160000101020E486F00013FD0030E0101415DB5
:10517000000105E10101030E486F000135D0040E66
:105180000101415D000105E10101040E486F0001CC
:105190002BD0050E0101415D000105E10101060E64
:1051A000486F000121D0060E0101415D000105E1BB
:1051B0000101070E486F000117D0070E0101415D84
:1051C000000105E10101090E486F00010DD0080E34
:1051D0000101415D000105E101010A0E486F000176
:1051E00002D001014869000128D0010141530001AA
:1051F00004E10101486B000120D0010E0101415D75
:10520000000105E10101010E486F000116D0020EF8
:105210000101415D000105E101010A0E486F000135
:105220000CD0030E0101415D000105E10101090EF1
:10523000486F000102D001014869010148290001BD
:105240000BE1020E9A6FA1EC11F00101010E2F6F1C
:1052500000011200DEEF2CF0010148530001D8A438
:1052600058D00F0EF76E820EF66EDFEC00F00D0ECA
:10527000E7EC00F030C18AF149C18BF1FCEC2FF072
:105280008CC140F10F0EF76EB80EF66EDFEC00F039
:10529000040E016E010140514FEC00F00D0EE7ECE1
:1052A00000F001014051305D000127E040C130F1C4
:1052B0000F0EF76EDC0EF66EDFEC00F00D0EE7EC75
:1052C00000F0010E01012E5D000103E130C153F039
:1052D0000FD0020E01012E5D000103E130C169F023
:1052E00007D0030E01012E5D000102E130C17AF00A
:1052F0002EC1DBF09CEC18F009D0100EF76E040EF6
:10530000F66EDFEC00F00D0EE7EC00F02482DEEF2D
:105310002CF0010E0101485D0001D8A487D0100EC9
:10532000F76E1E0EF66EDFEC00F0040E016E01014A
:1053300031514FEC00F00D0EE7EC00F031C19AF165
:1053400049C19BF1000134EC32F09CC140F1100ED8
:10535000F76E360EF66EDFEC00F0040E016E010102
:1053600040514FEC00F00D0EE7EC00F00101405110
:10537000315D0001D8B44ED040C131F1100EF76E4E
:10538000540EF66EDFEC00F0040E016E0101315197
:105390004FEC00F00D0EE7EC00F0010E01012E5D68
:1053A000000111E131C154F0100EF76E6C0EF66E73
:1053B000DFEC00F0040E016E54504FEC00F00D0EC7
:1053C000E7EC00F00FD0020E01012E5D000103E1B9
:1053D00031C16AF007D0030E01012E5D000102E128
:1053E00031C17BF02EC1DBF09CEC18F0100EF76E93
:1053F000860EF66EDFEC00F0040E016E01012E51F8
:105400004FEC00F0290EE7EC00F00D0EE7EC00F099
:10541000000109D0100EF76E9A0EF66EDFEC00F068
:105420000D0EE7EC00F02482DEEF2CF0020E0101FD
:10543000485D0001D8A4EBD033C106F132C105F1BB
:1054400039EC20F008C150F107C14FF150C152F1C1
:105450004FC151F1100EF76EAE0EF66EDFEC00F09C
:10546000040E016E046A33C114F032C113F052EC21
:1054700000F0100EF76ECE0EF66EDFEC00F0046A50
:1054800050C114F04FC113F04DEC00F00D0EE7ECDD
:1054900000F050C1C4F14FC1C3F149C1C5F1EFECF7
:1054A00036F0C7C150F1C6C14FF1100EF76ED80EDD
:1054B000F66EDFEC00F0040E016E046A50C114F0C9
:1054C0004FC113F04DEC00F00D0EE7EC00F00101C0
:1054D0005251505D05E151514F5D0001D8B48CD05F
:1054E00050C15AF14FC159F10001E1EC2CF05CC1FF
:1054F00033F15BC132F1100EF76EF80EF66EDFEC91
:1055000000F0040E016E046A33C114F032C113F0CE
:1055100052EC00F00D0EE7EC00F0010E01012E5DE3
:1055200000012DE1110EF76E1C0EF66EDFEC00F09F
:10553000040E016E046A57C014F056C013F052EC0A
:1055400000F0200EE7EC00F06E0EE7EC00F0650EC8
:10555000E7EC00F0770EE7EC00F03D0EE7EC00F032
:10556000046A33C114F032C113F052EC00F00D0E96
:10557000E7EC00F033C157F032C156F013D0020E01
:1055800001012E5D000105E133C16DF032C16CF007
:1055900009D0030E01012E5D000104E133C17EF04C
:1055A00032C17DF0110EF76E400EF66EDFEC00F0AA
:1055B000040E016E01012E514FEC00F0290EE7ECB4
:1055C00000F00D0EE7EC00F02EC1DBF000019CECCA
:1055D00018F0DCC04AF1110EF76E5C0EF66EDFECCF
:1055E00000F0040E016E01014A514FEC00F00D0E67
:1055F000E7EC00F0000109D0110EF76E800EF66E98
:10560000DFEC00F00D0EE7EC00F02482D7D1030EA2
:105610000101485D0001D8A44FD035C106F134C165
:1056200005F139EC20F008C154F107C153F154C120
:1056300056F153C155F154C1C4F153C1C3F149C12D
:10564000C5F1EFEC36F0C7C154F1C6C153F1010109
:105650005651545D04E15551535D00012BE054C196
:105660005AF153C159F10001ACD95CC135F15BC1AC
:1056700034F1010E01012E5D000105E135C159F043
:1056800034C158F013D0020E01012E5D000105E176
:1056900035C16FF034C16EF009D0030E01012E5DEB
:1056A000000104E135C180F034C17FF02EC1DBF090
:1056B0009CEC18F0248282D1040E0101485D0001A7
:1056C0003BE137C1ABF136C1AAF149C1ACF17CEC89
:1056D00034F0AEC158F1ADC157F101013751585DF9
:1056E00004E13651575D000125E058C137F157C13B
:1056F00036F1010E01012E5D000105E137C15BF0BD
:1057000036C15AF013D0020E01012E5D000105E1F1
:1057100037C171F036C170F009D0030E01012E5D62
:10572000000104E137C182F036C181F02EC1DBF007
:105730009CEC18F0248242D1050E0101485D000165
:105740003BE139C1ABF138C1AAF149C1ACF17CEC04
:1057500034F0AEC158F1ADC157F101013951585D76
:1057600004E13851575D000125E058C139F157C1B6
:1057700038F1010E01012E5D000105E139C15DF036
:1057800038C15CF013D0020E01012E5D000105E16D
:1057900039C173F038C172F009D0030E01012E5DDA
:1057A000000104E139C184F038C183F02EC1DBF07F
:1057B0009CEC18F0248202D1060E0101485D000124
:1057C0003BE13BC1ABF13AC1AAF149C1ACF17CEC80
:1057D00034F0AEC158F1ADC157F101013B51585DF4
:1057E00004E13A51575D000125E058C13BF157C132
:1057F0003AF1010E01012E5D000105E13BC15FF0B0
:105800003AC15EF013D0020E01012E5D000105E1E8
:105810003BC175F03AC174F009D0030E01012E5D51
:10582000000104E13BC186F03AC185F02EC1DBF0F6
:105830009CEC18F02482C2D0070E0101485D0001E3
:105840002CE13CC1DFF149C1E0F104EC3BF0E1C1E6
:1058500040F1010140513C5D00011DE040C13CF1BF
:10586000010E01012E5D000103E13CC160F00FD08B
:10587000020E01012E5D000103E13CC176F007D06C
:10588000030E01012E5D000102E13CC187F02EC133
:10589000DBF09CEC18F0248291D0080E0101485DE9
:1058A00000012CE13DC1DFF149C1E0F104EC3BF026
:1058B000E1C140F1010140513D5D00011DE040C1E9
:1058C0003DF1010E01012E5D000103E13DC161F0DA
:1058D0000FD0020E01012E5D000103E13DC177F002
:1058E00007D0030E01012E5D000102E13DC188F0E9
:1058F0002EC1DBF09CEC18F0248260D0090E01016F
:10590000485D00012CE13EC1DFF149C1E0F104EC4A
:105910003BF0E1C140F1010140513E5D00011DE05D
:1059200040C13EF1010E01012E5D000103E13EC1C7
:1059300062F00FD0020E01012E5D000103E13EC1B5
:1059400078F007D0030E01012E5D000102E13EC197
:1059500089F02EC1DBF09CEC18F024822FD00A0EC7
:105960000101485D00012AE13FC17AF149C17BF1A3
:10597000E6D97CC140F1010140513F5D00011DE0CD
:1059800040C13FF1010E01012E5D000103E13FC165
:1059900063F00FD0020E01012E5D000103E13FC153
:1059A00079F007D0030E01012E5D000102E13FC135
:1059B0008AF02EC1DBF09CEC18F0248224EF23F057
:1059C00012005AC15CF159C15BF112005DC1AAF02D
:1059D00062EC12F002EEBBF0000EEE5202E0E83E86
:1059E000FCD701015F6F140E5F5D000103E301014D
:1059F000130E5F6F01015F511408606F800E016E1E
:105A00005DC102F0605112EC00F002EEBBF0EE500E
:105A100003E092EC00F0FBD7010E01015E5D000196
:105A20001BE1020E0101605D00010BE3800E016EBF
:105A30005DC102F00101600512EC00F05B0E92EC1A
:105A400000F00001800E016E5DC102F0140E12EC38
:105A500000F05D0E92EC00F01200800E016E61C14C
:105A600002F00101625112EC00F0110EF76EA20E6D
:105A7000F66E8AEC00F00001120002EEDCF0000E7F
:105A8000EE5202E0E83EFCD70101676F090E675D48
:105A9000000103E30101080E676F00011C6A64C185
:105AA0001BF01B4A1C2A1E6A080E1D6E010167515D
:105AB0001D5E000E1E5A1B501D24686F63C161F1EC
:105AC00064C162F10001C9DF010E0101655D0001E1
:105AD00036E1010E0101665D000119E1800E016EE3
