:020000040000FA
:10000000000000007CEF07F096EF07F0800E016E15
:10001000FE0EE1D8010EDFD8750E0A6E300E04D147
:10002000016A018E126E1252D8A41206FE0ED3D8A7
:10003000025202E0022C02D0800E0ED00250020AC0
:1000400002E1C00E09D00250030A02E1940E04D06E
:100050000250040A02E1D40E026E12500224BBD0F8
:10006000016A018E126EFE0EB6D81250B4D0046A28
:100070000D6E0E6A00960450D8B40086040E036E0E
:100080000E3805D80E5003D80D3801D80D500F0B7F
:10009000F60FD8B0070F0A0F22D030D803D0046A69
:1000A0000D6E0E6A00960450D8B40086050E036EDD
:1000B000270E0C6E100E0CD8030E0C6EE80E08D82E
:1000C0000C6A640E05D80C6A0A0E02D80D5007D0CF
:1000D0000B6E0E500A6E0D50096EB0D80950096EA5
:1000E000034E0096045002E0035C07E20950D8A4D6
:1000F000009600B602D0300F6ED012000EAE120085
:100100000D500E10D8B412000D1E0E1E0D4A0E2AF0
:100110002D0E61D0A66AA68E0900F55002E002D825
:10012000FBD71200106E899E899C929E929CF00EC5
:100130009216105000B21ED03A0E0A6E980E74D865
:10014000330E0F6E29D8130E0A6E880E6DD824D880
:10015000640E69D821D8640E66D8220E0F6E1CD8A2
:10016000280E07D80C0E05D8060E03D800821050B2
:1001700001D000800F6E00A009D0899C03080AE31B
:1001800009D8070E0A6ED00E4FD812000080FE0864
:1001900014E0898C0F3A00A00090898EF00E801632
:1001A0000F500F0B8012000000D0899E0F3A000004
:1001B00000D000B0F1D7320E36D810501200A66A27
:1001C000A68E0900F55002E002D8FBD712009EA8C7
:1001D000FED7AD6E120001BEA5D701B4F8D7A86E48
:1001E000A66AA684550EA76EAA0EA76EA682A6B210
:1001F000FED7A694A94AAA2AA68E1200A96EA66ABC
:10020000A680A850A94AAA2AA68E12000C6A0B6ED4
:10021000FF0E0B260C2200D0D8A01200030E0A6E8F
:10022000E60E02D8F5D70A6AFD0F096E01D009065D
:10023000000000D0E86A0A5AFAE212000E6A0D6A5B
:10024000100EF36E0A340D360E360B500D5C0C504A
:100250000E5805E30B500D5E0C500E5AD88009362F
:100260000A36F32EEFD709501200A66AA68E0900AF
:10027000F55002E0EE6EFBD7120049525249535935
:1002800053205374617274757020436F6D706C6588
:10029000746500003D3D3D20454550524F4D204383
:1002A0004F4E4649472044554D50203D3D3D0000AE
:1002B00053595354454D20434F4E4649473A000049
:1002C0002020575F55495F54696D656F75745320E1
:1002D0003D200000207365636F6E64730000202072
:1002E000575F55495F50756C73654D7320203D20F5
:1002F00000002020425F45455F466C616773202007
:1003000020203D202400494E505554203120434F99
:100310004E4649473A002020425F49315F456E61B1
:10032000626C656420203D2000002020425F49313E
:100330005F53656E736F725420203D2000002020B3
:10034000425F49315F466C6F774D6F6465203D2099
:1003500000002020575F49315F5363616C65342092
:1003600020203D2000002020575F49315F5363610A
:100370006C65323020203D2000002020575F49313D
:100380005F42505F4869676820203D2000002020C0
:10039000575F49315F42505F504C502020203D2034
:1003A00000002020575F49315F42505F534C50207E
:1003B00020203D2000002020425F49315F526C79AF
:1003C0004869676820203D2000002020425F4931B5
:1003D0005F526C79504C502020203D20000020209E
:1003E000425F49315F526C79534C502020203D20B0
:1003F00000002020425F49315F446973706C61796D
:1004000020203D200000494E505554203220434FBB
:100410004E4649473A002020425F49325F456E61AF
:10042000626C656420203D2000002020425F49323C
:100430005F53656E736F725420203D2000002020B2
:10044000425F49325F466C6F774D6F6465203D2097
:1004500000002020575F49325F5363616C65342090
:1004600020203D2000002020575F49325F53636108
:100470006C65323020203D2000002020575F49323B
:100480005F42505F4869676820203D2000002020BF
:10049000575F49325F42505F504C502020203D2032
:1004A00000002020575F49325F42505F534C50207C
:1004B00020203D2000002020425F49325F526C79AD
:1004C0004869676820203D2000002020425F4932B3
:1004D0005F526C79504C502020203D20000020209D
:1004E000425F49325F526C79534C502020203D20AE
:1004F00000002020425F49325F446973706C61796B
:1005000020203D200000494E505554203320434FB9
:100510004E4649473A002020425F49335F456E61AD
:10052000626C656420203D2000002020425F49333A
:100530005F53656E736F725420203D2000002020B1
:10054000425F49335F466C6F774D6F6465203D2095
:1005500000002020575F49335F5363616C6534208E
:1005600020203D2000002020575F49335F53636106
:100570006C65323020203D2000002020575F493339
:100580005F42505F4869676820203D2000002020BE
:10059000575F49335F42505F504C502020203D2030
:1005A00000002020575F49335F42505F534C50207A
:1005B00020203D2000002020425F49335F526C79AB
:1005C0004869676820203D2000002020425F4933B1
:1005D0005F526C79504C502020203D20000020209C
:1005E000425F49335F526C79534C502020203D20AC
:1005F00000002020425F49335F446973706C617969
:1006000020203D2000003D3D3D20454E4420434FED
:100610004E4649472044554D50203D3D3D004F50EA
:1006200054494F4E532020202020202020202020DD
:10063000202000004D61696E204D656E7500536588
:10064000747570204D656E7500005574696C697421
:1006500079204D656E7500005554494C4954590038
:1006600049525249535953204D41494E2020202090
:1006700020202020000020202020202020202020BA
:1006800020202020202020202020000053455455E9
:10069000502020202020202020202020202020202A
:1006A0000000496E707574203100496E70757420B9
:1006B0003200496E7075742033002028535455421F
:1006C0002920202020202000575F55495F54696D64
:1006D000656F75745300575F55495F50756C73654E
:1006E0004D730000425F45455F466C6167730000D3
:1006F000454550524F4D20534156453A20496E7062
:100700007574200020436F6E666967757261746945
:100710006F6E0000425F49315F456E61626C6564D7
:100720000000425F49315F53656E736F7254000081
:10073000425F49315F466C6F774D6F646500575F6C
:1007400049315F5363616C653400575F49315F53D2
:1007500063616C6532300000575F49315F42505F22
:10076000486967680000575F49315F42505F504CED
:100770005000575F49315F42505F534C5000425F19
:1007800049315F526C79486967680000425F4931BE
:100790005F526C79504C5000425F49315F526C7926
:1007A000534C5000425F49315F446973706C61790A
:1007B0000000425F49325F456E61626C6564000013
:1007C000425F49325F53656E736F72540000425F3F
:1007D00049325F466C6F774D6F646500575F4932F1
:1007E0005F5363616C653400575F49325F536361E7
:1007F0006C6532300000575F49325F42505F486994
:1008000067680000575F49325F42505F504C5000AC
:10081000575F49325F42505F534C5000425F49324C
:100820005F526C79486967680000425F49325F52E5
:100830006C79504C5000425F49325F526C79534C96
:100840005000425F49325F446973706C6179000007
:10085000425F49335F456E61626C65640000425FD0
:1008600049335F53656E736F72540000425F4933C2
:100870005F466C6F774D6F646500575F49335F5318
:1008800063616C653400575F49335F5363616C6526
:1008900032300000575F49335F42505F48696768F4
:1008A0000000575F49335F42505F504C5000575F24
:1008B00049335F42505F534C5000425F49335F52AF
:1008C0006C79486967680000425F49335F526C7910
:1008D000504C5000425F49335F526C79534C50008A
:1008E000425F49335F446973706C61790000206234
:1008F0006C6F636B2066696E616C697A65642073E6
:1009000075636365737366756C6C79004545505209
:100910004F4D204552524F523A20496E7075742007
:10092000000020626C6F636B2066696E616C697A8F
:100930006174696F6E206661696C65640000206394
:100940006F6E66696775726174696F6E2073617628
:1009500065206661696C65640000434C4F434B2021
:1009600020202020202020202020202020200000C7
:1009700054696D656F7574202020000050756C738C
:10098000652020202020000044454255473A205051
:100990005F45455F5772697465426C6B20656E7484
:1009A0007279202D20426C6F636B416464723D004C
:1009B00044454255473A2057726974696E67206D05
:1009C0006167696320627974650044454255473A1E
:1009D000204D61676963207772697465206661697B
:1009E0006C65642C207374617475733D000044451C
:1009F0004255473A2057726974696E67207665726E
:100A000073696F6E20627974650044454255473AB8
:100A10002056657273696F6E2077726974652066FF
:100A200061696C65642C207374617475733D00009A
:100A300044454255473A2043616C63756C61746963
:100A40006E6720636865636B73756D00444542553E
:100A5000473A2043616C63756C6174656420636818
:100A600065636B73756D3D0044454255473A2043BD
:100A70006865636B73756D20777269746520666154
:100A8000696C65642C207374617475733D00444512
:100A90004255473A20426C6F636B2066696E616C09
:100AA000697A6174696F6E207375636365737366C9
:100AB000756C000044454255473A20505F45455FFC
:100AC000436F7079426C6B202D205372633D0000A0
:100AD00044454255473A20436F7079206661696CFE
:100AE00065642061742062797465200020737461EC
:100AF0007475733D000044454255473A20426C6F7F
:100B0000636B20636F707920636F6D706C657465C3
:100B100064207375636365737366756C6C7900002C
:100B2000454550524F4D20534156453A20004445CB
:100B30004255473A20565F496E7075744D656E7523
:100B400020656E747279202D20496E7075742000B6
:100B500044454255473A204C6F6164656420575FB5
:100B60005363616C65343D0020575F5363616C656E
:100B700032303D00494E50555420000020202020A6
:100B800020202020202020200000456E61626C651E
:100B9000202020200000456E61626C65640044697D
:100BA0007361626C6564000053656E736F72202020
:100BB00020200000507265737375726500005363E6
:100BC000616C652034206D6100005363616C653297
:100BD000306D612000004869676820425020202065
:100BE0000000486967682054425020200000504CA3
:100BF00050425020202020200000534C50425020D2
:100C00002020202000004C6F7720544250202020CC
:100C10000000526C79204869676820200000526CFF
:100C20007920504C502020200000526C7920534CE9
:100C3000502020200000526C79204C6F772020201B
:100C40000000446973706C617920202000004445E5
:100C50004255473A204265666F7265206564697443
:100C6000202D20575F5363616C65343D000020499F
:100C70005F576F726B3D000044454255473A20452F
:100C80006469742072657475726E6564202D2049E4
:100C90005F576F726B3D000044454255473A204113
:100CA0006674657220636F6E76657273696F6E200D
:100CB0002D20575F5363616C65343D0044454255B8
:100CC000473A20536176696E6720746F20575F49F9
:100CD000315F5363616C6534202D206F6C643D007F
:100CE00044454255473A2043616C6C696E67205019
:100CF0005F53617665496E436667280044454255F7
:100D0000473A20505F53617665496E4366672072AB
:100D1000657475726E6564207374617475733D00DB
:100D200044454255473A204E6F206368616E6765BF
:100D3000202D20736B697070696E67207361766512
:100D400000002020202020202020202000004544DA
:100D500049543A20594553204E4F2020202020202E
:100D600020002059657320205B4E6F5D20202020DD
:100D700020202020202000005B5965735D20204E3C
:100D80006F2020202020202020202020000045440B
:100D900049543A204D4F4445202020202020202037
:100DA00020005B4E6F5D202050756C736520204CD9
:100DB0006174636820202000204E6F20205B5075F6
:100DC0006C73655D204C6174636820202000204EA8
:100DD0006F20202050756C7365205B4C61746368D4
:100DE0005D202000454449543A204455524154491D
:100DF0004F4E2020202020002020202020202020B6
:100E000020005D202020202020202000454449543F
:100E10003A2053454E534F522054595045202000FC
:100E20005B50726573737572655D2054656D7020DB
:100E3000466C6F7720002050726573737572652061
:100E40005B54656D705D20466C6F7720000020500C
:100E500072657373757265202054656D70205B46F2
:100E60006C6F775D000044454255473A20505F451E
:100E700064697453335374616E6420656E7472795F
:100E8000202D20495F56616C3D0044454255473A4C
:100E900020457874726163746564202D20536967FE
:100EA0006E3D000020313030733D000020756E69CA
:100EB00074733D0044454255473A204C6F6E67209D
:100EC0007072657373202D20726573746F72696E12
:100ED0006720495F4F72696756616C3D0000444569
:100EE0004255473A20436F6D6D697474696E67208F
:100EF000495F56616C3D0000006A100EAF6E240E13
:100F0000AC6E900EAB6E00010F0EC16E070EB46E8C
:100F1000700ED36E9B8C0F0EC16EF19EC40ED56EFB
:100F2000060ED66EF294F28AF28EF5D0000113C04E
:100F300095F214C096F2F4CF97F2F3CF98F2F2A4A0
:100F4000E1D0060ED66EF2941A2A000E1B221C2245
:100F50001D222A2A0A0E2A5CD8A0C9D0766A81B23C
:100F6000762A776A81B4772A786A81BC782A7650A3
:100F70002B5C10E02E2A020E2E5C0BE376C02BF0C9
:100F80002E6A1AC01EF01BC01FF01CC020F01DC02E
:100F900021F001D02E6A77502C5C10E02F2A020E2F
:100FA0002F5C0BE377C02CF02F6A1AC01EF01BC019
:100FB0001FF01CC020F01DC021F001D02F6A785016
:100FC0002D5C10E0302A020E305C0BE378C02DF06F
:100FD000306A1AC01EF01BC01FF01CC020F01DC0DC
:100FE00021F001D0306A2B50020DF3CF13F0F4CF73
:100FF00014F02C501324796E3150040DF3CF13F0FC
:10100000F4CF14F0795013247A6E010E7A5C02E169
:10101000320622D0070E7A5C02E132061DD00E0E97
:101020007A5C02E1320618D0080E7A5C02E13206E0
:1010300013D0020E7A5C02E1322A0ED00B0E7A5CDB
:1010400002E1322A09D00D0E7A5C02E1322A04D084
:10105000040E7A5C01E1322A795225E132BE0ED0CB
:10106000020E325C0BE3354A362A1AC01EF01BC052
:101070001FF01CC020F01DC021F014D03250800A97
:101080007E0810E3355202E1365203E03506000EC9
:10109000365A00011AC01EF01BC01FF01CC020F001
:1010A0001DC021F0326A79C031F02D520DE1FF0EE2
:1010B000345C04E307E1F60E335C04E20A0E3326E7
:1010C000000E3422000112D0345203E1C80E335C0A
:1010D0000AE3010E236E1AC01EF01BC01FF01CC0D5
:1010E00020F01DC021F00001346A336A2A6A2452BC
:1010F00002E1255206E082842406000E255A0001F2
:1011000001D0829495C213F096C214F097C2F4FFF6
:1011100098C2F3FF110090D895D844D881D8FAD856
:1011200020D906D9ADD8396A1894236A216A206A71
:101130001F6A1E6A18821890256A246A030E3F5C93
:1011400001E33F6A030E555C02E3010E556E030E88
:10115000665C02E3020E666E020EF76E7A0EF66EA3
:10116000DFEC00F00D0EE7EC00F0C80E06EC01F02D
:1011700018A003D017D854D818901894AEEC0DF0DE
:10118000CDEC0CF07DC039F0020E395C09E1189409
:101190001AC01EF01BC01FF01CC020F01DC021F0A3
:1011A000E7D7FFD7100E926E460E936E946A896A47
:1011B0008A6A8B6A899C899E320E06EC01F0809CBB
:1011C000030E856FD0EC0DF0050E06EC01F0030E5A
:1011D000856FD0EC0DF0960E13EC01F0030E856FC9
:1011E000D0EC0DF0960E13EC01F0020E856FD0ECF2
:1011F0000DF0960E13EC01F0280E866FD6EC0DF074
:10120000080E866FD6EC0DF0010E866FD6EC0DF051
:10121000060E866FD6EC0DF00C0E866FD6EF0DF035
:101220008D6B050E8C6F52EC0EF006EC00F08D6BA2
:10123000020E8C6F52EF0EF0100E926E460E936EF1
:10124000946A12002B6A81B22B2A2C6A81B42C2A50
:101250002D6A81BC2D2A2B50020DF3CF13F0F4CF51
:1012600014F02C501324316E2E6A2F6A306A2A6AC9
:10127000326A366A356A386A376A346A336A120003
:1012800027C088F0896BF8EC0DF08A530EE07B6A7A
:10129000020E7B5C09E2010E8B6F2FEC0EF0640EE8
:1012A00006EC01F07B2AF4E330D027C088F0030E6F
:1012B000896FF8EC0DF08A530EE07B6A030E7B5CBD
:1012C00009E2020E8B6F2FEC0EF0960E06EC01F089
:1012D0007B2AF4E31AD027C088F0020E896FF8EC5D
:1012E0000DF08A530EE07B6A040E7B5C09E2010E6E
:1012F0008B6F2FEC0EF0640E06EC01F07B2AF4E30A
:1013000004D0030E8B6F2FEC0EF0010E0C6EF40E5A
:1013100007EF01F0EAEC0EF0010E9A6F5CEC0FF0B3
:10132000020E9A6F5CEC0FF0030E9A6F5CEF0FF0F9
:10133000010E40147C6E7C5202E1526A02D0010E12
:10134000526E020E40147C6E7C5202E1536A02D04F
:10135000010E536E4AC050F049C04FF04DC051F0DD
:101360001200020EF76E940EF66EDFEC00F00D0E1A
:10137000E7EC00F0020EF76EB00EF66EDFEC00F058
:101380000D0EE7EC00F0020EF76EC00EF66EDFEC0D
:1013900000F0040E016E046A3BC00EF03AC00DF07E
:1013A00052EC00F0020EF76ED40EF66EDFEC00F099
:1013B0000D0EE7EC00F0020EF76EDE0EF66EDFECBF
:1013C00000F0040E016E046A3DC00EF03CC00DF04A
:1013D00052EC00F0200EE7EC00F06D0EE7EC00F0B0
:1013E000730EE7EC00F00D0EE7EC00F0020EF76E66
:1013F000F20EF66EDFEC00F0040E016E020E046ECB
:10140000275038EC00F00D0EE7EC00F0030EF76EFD
:10141000060EF66EDFEC00F00D0EE7EC00F0030EAA
:10142000F76E160EF66EDFEC00F0040E016E3E5005
:101430004FEC00F00D0EE7EC00F0030EF76E2A0EF5
:10144000F66EDFEC00F0040E016E3F504FEC00F042
:101450000D0EE7EC00F0030EF76E3E0EF66EDFECBD
:1014600000F0040E016E40504FEC00F00D0EE7EC62
:1014700000F0030EF76E520EF66EDFEC00F0040E75
:10148000016E046A42C00EF041C00DF04DEC00F058
:101490000D0EE7EC00F0030EF76E660EF66EDFEC55
:1014A00000F0040E016E046A44C00EF043C00DF05B
:1014B0004DEC00F00D0EE7EC00F0030EF76E7A0E27
:1014C000F66EDFEC00F0040E016E046A46C00EF00A
:1014D00045C00DF052EC00F0200EE7EC00F0730E6A
:1014E000E7EC00F0650EE7EC00F0630EE7EC00F0CF
:1014F0000D0EE7EC00F0030EF76E8E0EF66EDFECCD
:1015000000F0040E016E046A48C00EF047C00DF0F2
:1015100052EC00F0200EE7EC00F0730EE7EC00F068
:10152000650EE7EC00F0630EE7EC00F00D0EE7EC63
:1015300000F0030EF76EA20EF66EDFEC00F0040E64
:10154000016E046A4AC00EF049C00DF052EC00F082
:10155000200EE7EC00F0730EE7EC00F0650EE7EC10
:1015600000F0630EE7EC00F00D0EE7EC00F0030E68
:10157000F76EB60EF66EDFEC00F0040E016E4B5007
:101580004FEC00F00D0EE7EC00F0030EF76ECA0E04
:10159000F66EDFEC00F0040E016E4C504FEC00F0E4
:1015A0000D0EE7EC00F0030EF76EDE0EF66EDFECCC
:1015B00000F0040E016E4D504FEC00F00D0EE7EC04
:1015C00000F0030EF76EF20EF66EDFEC00F0040E84
:1015D000016E4E504FEC00F00D0EE7EC00F0040EE3
:1015E000F76E060EF66EDFEC00F00D0EE7EC00F085
:1015F000040EF76E160EF66EDFEC00F0040E016EB0
:1016000054504FEC00F00D0EE7EC00F0040EF76EB6
:101610002A0EF66EDFEC00F0040E016E55504FEC12
:1016200000F00D0EE7EC00F0040EF76E3E0EF66EC5
:10163000DFEC00F0040E016E56504FEC00F00D0E82
:10164000E7EC00F0040EF76E520EF66EDFEC00F0E1
:10165000040E016E046A58C00EF057C00DF04DEC38
:1016600000F00D0EE7EC00F0040EF76E660EF66E5D
:10167000DFEC00F0040E016E046A5AC00EF059C08F
:101680000DF04DEC00F00D0EE7EC00F0040EF76EDF
:101690007A0EF66EDFEC00F0040E016E046A5CC098
:1016A0000EF05BC00DF052EC00F0200EE7EC00F005
:1016B000730EE7EC00F0650EE7EC00F0630EE7EC6C
:1016C00000F00D0EE7EC00F0040EF76E8E0EF66ED5
:1016D000DFEC00F0040E016E046A5EC00EF05DC027
:1016E0000DF052EC00F0200EE7EC00F0730EE7EC8A
:1016F00000F0650EE7EC00F0630EE7EC00F00D0E75
:10170000E7EC00F0040EF76EA20EF66EDFEC00F0D0
:10171000040E016E046A60C00EF05FC00DF052EC62
:1017200000F0200EE7EC00F0730EE7EC00F0650E21
:10173000E7EC00F0630EE7EC00F00D0EE7EC00F0D4
:10174000040EF76EB60EF66EDFEC00F0040E016EBE
:1017500061504FEC00F00D0EE7EC00F0040EF76E58
:10176000CA0EF66EDFEC00F0040E016E62504FEC14
:1017700000F00D0EE7EC00F0040EF76EDE0EF66ED4
:10178000DFEC00F0040E016E63504FEC00F00D0E24
:10179000E7EC00F0040EF76EF20EF66EDFEC00F0F0
:1017A000040E016E64504FEC00F00D0EE7EC00F0FB
:1017B000050EF76E060EF66EDFEC00F00D0EE7EC90
:1017C00000F0050EF76E160EF66EDFEC00F0040E5C
:1017D000016E65504FEC00F00D0EE7EC00F0050EC9
:1017E000F76E2A0EF66EDFEC00F0040E016E665006
:1017F0004FEC00F00D0EE7EC00F0050EF76E3E0E1C
:10180000F66EDFEC00F0040E016E67504FEC00F056
:101810000D0EE7EC00F0050EF76E520EF66EDFECE3
:1018200000F0040E016E046A69C00EF068C00DF08D
:101830004DEC00F00D0EE7EC00F0050EF76E660EB5
:10184000F66EDFEC00F0040E016E046A6BC00EF061
:101850006AC00DF04DEC00F00D0EE7EC00F0050E47
:10186000F76E7A0EF66EDFEC00F0040E016E046A7D
:101870006DC00EF06CC00DF052EC00F0200EE7ECE5
:1018800000F0730EE7EC00F0650EE7EC00F0630E7D
:10189000E7EC00F00D0EE7EC00F0050EF76E8E0E93
:1018A000F66EDFEC00F0040E016E046A6FC00EF0FD
:1018B0006EC00DF052EC00F0200EE7EC00F0730E5D
:1018C000E7EC00F0650EE7EC00F0630EE7EC00F0EB
:1018D0000D0EE7EC00F0050EF76EA20EF66EDFECD3
:1018E00000F0040E016E046A71C00EF070C00DF0BD
:1018F00052EC00F0200EE7EC00F0730EE7EC00F085
:10190000650EE7EC00F0630EE7EC00F00D0EE7EC7F
:1019100000F0050EF76EB60EF66EDFEC00F0040E6A
:10192000016E72504FEC00F00D0EE7EC00F0050E6A
:10193000F76ECA0EF66EDFEC00F0040E016E735007
:101940004FEC00F00D0EE7EC00F0050EF76EDE0E2A
:10195000F66EDFEC00F0040E016E74504FEC00F0F8
:101960000D0EE7EC00F0050EF76EF20EF66EDFECF2
:1019700000F0040E016E75504FEC00F00D0EE7EC18
:1019800000F0060EF76E060EF66EDFEC00F00D0EA0
:10199000E7EC00F00D0EE7EF00F0040E806F7E6ABA
:1019A0007F6A1890188218A296D0010E8B6F57D9B3
:1019B00001EE8DF0060EF76E1E0EF66E35EC01F0A0
:1019C000EF6A8DD9020E906F7DD9030E906F7AD990
:1019D000040E906F77D9020E7E5C02E27F6A16D009
:1019E000FF0E8025056E066AFF0E062206520CE1E8
:1019F00005507E5C09E3030E805D04E3030E805D09
:101A00007F6E01D07F6A02D07E047F6E020E826FED
:101A1000050E825DD8B05ED07F508225136E146AA9
:101A20001436020E135C836F83517E5C03E1010E5A
:101A3000816F01D0816B83530FE182C091F001EE81
:101A4000AEF0060EF76E340EF66E35EC01F0EF6A6E
:101A500081C092F05AD93BD0010E835D0FE182C064
:101A600091F001EEAEF0060EF76E3E0EF66E35EC1E
:101A700001F0EF6A81C092F048D929D0020E835D4F
:101A80000FE182C091F001EEAEF0060EF76E4A0E45
:101A9000F66E35EC01F0EF6A81C092F036D917D0BE
:101AA000030E835D11E182C091F001EEAEF0420EB3
:101AB000EE6E610EEE6E630EEE6E6B0EEE6EEF6A04
:101AC00081C092F022D903D082C090F0FBD8822B43
:101AD000D8A09ED718924DD9225215E0010E225C53
:101AE0000EE1FF0E8025056E066AFF0E06220652E5
:101AF00003E105507E5C01E27E2A000103D07E52A4
:101B000001E07E06188261D961D9010E955D24E15C
:101B1000020E8B6FA4D87E5204E1010E7D6E12007E
:101B20001AD0010E7E5C05E111EC11F09FC084F02B
:101B300012D0020E7E5C0CE101EECFF0060EF76EC5
:101B4000580EF66E35EC01F0EF6A12EC12F003D08D
:101B5000010E7D6E1200188226D71200189018828E
:101B600018A214D001EE8DF0060EF76E600EF66E20
:101B700035EC01F0EF6AB3D8020E906FA3D8030ED4
:101B8000906FA0D8040E906F9DD818921ED91ED9C0
:101B9000010E955D03E1020E8B6F61D0E1D712005B
:101BA00085C0A6F041EC12F059EF12F0809C863906
:101BB0000F0B876F87C085F0F3DF0F0E8615876FD9
:101BC00087C085F0EDDF010E865D010ED8A4000E02
:101BD000176E020E865D010ED8A4000E171204E0E7
:101BE000020E06EC01F003D0320E13EC01F01200ED
:101BF000895304E1010E88158A6F30D0010E895D8A
:101C000004E1020E88158A6F29D0020E895D04E175
:101C1000040E88158A6F22D0030E895D04E1080E38
:101C200088158A6F1BD0040E895D04E1100E88159B
:101C30008A6F14D0050E895D04E1200E88158A6F25
:101C40000DD0060E895D04E1400E88158A6F06D01E
:101C5000070E895D03E1800E88158A6F12008B5391
:101C600004E1256A0A0E246E1CD0010E8B5D04E18E
:101C7000256A140E246E15D0020E8B5D04E1256AD0
:101C8000320E246E0ED0030E8B5D04E1256AC80E61
:101C9000246E07D0040E8B5D04E1030E256EE80E62
:101CA000246E12008F6B010E8E6F8E518C5D8F51E2
:101CB0008D5907E3010E06EC01F08E2B000E8F23E9
:101CC000F4E31200800E016E90C002F0010E12ECDF
:101CD00000F0060EF76E760EF66E8AEF00F0800EBC
:101CE000016E30EC00F0060EF76E760EF66E8AECA2
:101CF00000F0800E016E30EC00F001EE8DF0EE5041
:101D000003E092EC00F0FBD71200800E016E91C050
:101D100002F0010E12EC00F0060EF76E760EF66E73
:101D20008AEC00F0010E925D15E1800E016E91C00B
:101D300002F0010E12EC00F05B0E92EC00F001EEEE
:101D4000AEF0EE5003E092EC00F0FBD75D0E92ECAB
:101D500000F00ED0800E016E91C002F0020E12EC67
:101D600000F001EEAEF0EE5003E092EC00F0FBD795
:101D70001200F29E36C094F035C093F0F28E93516B
:101D8000375C945138580BE2010E226E1AC01EF0D7
:101D90001BC01FF01CC020F01DC021F011D0375017
:101DA000935D385094590BE2FF0E226E1AC01EF05C
:101DB0001BC01FF01CC020F01DC021F001D0226A02
:101DC00094C038F093C037F01200120023C095F091
:101DD000236A1200986B976B98C0B0F097C0AFF071
:101DE000A4EC12F0B1C099F099533AE1020E972594
:101DF000A96F000E9821AA6F8AEC12F0ACC03BF0DC
:101E0000ABC03AF0040E9725A96F000E9821AA6F77
:101E10008AEC12F0ACC03DF0ABC03CF0080E972548
:101E2000A96E000E9821AA6EFFEC00F0276EB76B2A
:101E30003A0EB66FB96B0A0EB86F010EBB6F2C0E5F
:101E4000BA6FDBEC12F0B76B3C0EB66FB96B0A0ED3
:101E5000B86F070EBB6FD00EBA6FDBEC12F027D055
:101E600010EC18F0C55308E1270EA76F020EA86FFB
:101E700063EC12F0996B1BD070EC18F0D05308E1B2
:101E8000270EA76F030EA86F63EC12F0996B0FD0AB
:101E90003B6A3C0E3A6E3D6A320E3C6E276A270E54
:101EA000A76FA86B63EC12F0EEEC12F0996B99C07F
:101EB00026F099C096F01200146A200E136E166A6E
:101EC0009AC015F01506000E165A1650200DF3CFC5
:101ED00016F01550200DF3CF15F0F45016261550BE
:101EE00013249C6F165014209D6F9DC0B0F09CC0B1
:101EF000AFF0A4EC12F0B1C09EF09E53D8A47BD1F9
:101F0000010E9A5DD8A47CD0020E9C25A96E000E0D
:101F10009D21AA6EFFEC00F03E6E030E9C25A96E7B
:101F2000000E9D21AA6EFFEC00F03F6E040E9C2572
:101F3000A96E000E9D21AA6EFFEC00F0406E050E0A
:101F40009C25A96F000E9D21AA6F8AEC12F0ACC0EF
:101F500042F0ABC041F0070E9C25A96F000E9D21F9
:101F6000AA6F8AEC12F0ACC044F0ABC043F0090E8B
:101F70009C25A96F000E9D21AA6F8AEC12F0ACC0BF
:101F800046F0ABC045F00B0E9C25A96F000E9D21BD
:101F9000AA6F8AEC12F0ACC048F0ABC047F00D0E4F
:101FA0009C25A96F000E9D21AA6F8AEC12F0ACC08F
:101FB0004AF0ABC049F00F0E9C25A96E000E9D2182
:101FC000AA6EFFEC00F04B6E100E9C25A96E000E61
:101FD0009D21AA6EFFEC00F04C6E110E9C25A96E9F
:101FE000000E9D21AA6EFFEC00F04D6E120E9C2596
:101FF000A96E000E9D21AA6EFFEC00F04E6EFAD085
:10200000020E9A5DD8A47CD0020E9C25A96E000E0B
:102010009D21AA6EFFEC00F0546E030E9C25A96E64
:10202000000E9D21AA6EFFEC00F0556E040E9C255B
:10203000A96E000E9D21AA6EFFEC00F0566E050EF3
:102040009C25A96F000E9D21AA6F8AEC12F0ACC0EE
:1020500058F0ABC057F0070E9C25A96F000E9D21CC
:10206000AA6F8AEC12F0ACC05AF0ABC059F0090E5E
:102070009C25A96F000E9D21AA6F8AEC12F0ACC0BE
:102080005CF0ABC05BF00B0E9C25A96F000E9D2190
:10209000AA6F8AEC12F0ACC05EF0ABC05DF00D0E22
:1020A0009C25A96F000E9D21AA6F8AEC12F0ACC08E
:1020B00060F0ABC05FF00F0E9C25A96E000E9D2155
:1020C000AA6EFFEC00F0616E100E9C25A96E000E4A
:1020D0009D21AA6EFFEC00F0626E110E9C25A96E88
:1020E000000E9D21AA6EFFEC00F0636E120E9C257F
:1020F000A96E000E9D21AA6EFFEC00F0646E7AD0EE
:10210000030E9A5DD8A476D0020E9C25A96E000E0F
:102110009D21AA6EFFEC00F0656E030E9C25A96E52
:10212000000E9D21AA6EFFEC00F0666E040E9C2549
:10213000A96E000E9D21AA6EFFEC00F0676E050EE1
:102140009C25A96F000E9D21AA6FE4D9ACC069F04F
:10215000ABC068F0070E9C25A96F000E9D21AA6FE9
:10216000D9D9ACC06BF0ABC06AF0090E9C25A96F41
:10217000000E9D21AA6FCED9ACC06DF0ABC06CF043
:102180000B0E9C25A96F000E9D21AA6FC3D9ACC070
:102190006FF0ABC06EF00D0E9C25A96F000E9D2157
:1021A000AA6FB8D9ACC071F0ABC070F00F0E9C250F
:1021B000A96E000E9D21AA6EFFEC00F0726E100E4B
:1021C0009C25A96E000E9D21AA6EFFEC00F0736E97
:1021D000110E9C25A96E000E9D21AA6EFFEC00F049
:1021E000746E120E9C25A96E000E9D21AA6EFFEC46
:1021F00000F0756E11D09AC0C9F030EC18F0CA53D7
:1022000002E19E6B09D09AC0D2F0FDEC18F09AC0A2
:10221000C0F05FEC13F09E6B9EC026F09EC09BF05A
:102220001200050EA26FA06BA16B1890188218A265
:10223000B8D0010E8B6F2FEC0EF001EE8DF0060E74
:10224000F76E8C0EF66E35EC01F0EF6A6FEC0EF067
:10225000020E906F62EC0EF0030E906F62EC0EF0C7
:10226000040E906F62EC0EF0020EA05D02E2A16B14
:1022700016D0FF0EA225056E066AFF0E0622065234
:102280000CE10550A05D09E3030EA25D04E3030E1B
:10229000A25DA16F01D0A16B02D0A005A16F020EBB
:1022A000A46F050EA45DD8B07BD0FE0EA425136EDE
:1022B000146AFF0E1422A1511324A56FA551A05D2D
:1022C00003E1010EA36F01D0A36BA55310E1A4C0DD
:1022D00091F001EEAEF0060EF76EA20EF66E35EC42
:1022E00001F0EF6AA3C092F085EC0EF056D0010E1B
:1022F000A55D10E1A4C091F001EEAEF0060EF76E00
:10230000AA0EF66E35EC01F0EF6AA3C092F085ECF0
:102310000EF043D0020EA55D10E1A4C091F001EED5
:10232000AEF0060EF76EB20EF66E35EC01F0EF6A07
:10233000A3C092F085EC0EF030D0030EA55D14E141
:10234000A4C091F001EEAEF0430EEE6E6C0EEE6E98
:102350006F0EEE6E630EEE6E6B0EEE6EEF6AA3C046
:1023600092F085EC0EF019D0040EA55D12E1A4C028
:1023700091F001EEAEF0420EEE6E610EEE6E630E67
:10238000EE6E6B0EEE6EEF6AA3C092F085EC0EF06F
:1023900004D0A4C090F062EC0EF0A42BD8A081D79A
:1023A0001892B9EC0EF0225215E0010E225C0EE1FB
:1023B000FF0EA225056E066AFF0E0622065203E1F5
:1023C0000550A05D02E20001A02B03D0A05301E064
:1023D000A0071882E5EC0EF0E6EC0EF0010E955D1C
:1023E0001FE1020E8B6F2FEC0EF0A05303E149ECBE
:1023F00019F015D0010EA05D03E152EC19F00FD0D9
:10240000020EA05D03E15BEC19F009D0030EA05DA4
:1024100003E164EC19F003D0010E9F6F12001882E3
:1024200006D71200189001EE8DF011EECFF0200EBD
:10243000E75204E0E6CFEEFFE82EFAD7060EF76E7D
:10244000BA0EF66E35EC01F0EF6A6FEC0EF0020E8C
:10245000906F62EC0EF0030E906F62EC0EF0040EC3
:10246000906F62EC0EF0E5EC0EF0E6EC0EF0010E73
:10247000955D05E1020E8B6F2FEC0EF001D0F3D7C6
:102480001200A63102E3898001D08990A651E8A20A
:1024900002D0898201D08992A651E8A402D0898411
:1024A00001D08994A651E8A602D0898601D08996E8
:1024B0001200898E020EE82EFED700000000899ED1
:1024C000280E13EF01F0A85302E1A78122D0010EDC
:1024D000A85D02E1A7831DD0020EA85D02E1A785D9
:1024E00018D0030EA85D02E1A78713D0040EA85DE3
:1024F00002E1A7890ED0050EA85D02E1A78B09D0E5
:10250000060EA85D02E1A78D04D0070EA85D01E1CB
:10251000A78F1200AAC0AAFFA9C0A9FFFFEC00F074
:10252000AD6F010EA925A96E000EAA21AA6EFFECBF
:1025300000F0AE6FAEC014F0136AAD511324AB6F50
:10254000000E1420AC6F1200B0C0AAFFAFC0A9FFEC
:10255000FFEC00F0B46FA50EB45D03E0010EB16FA7
:102560001200010EAF25A96E000EB021AA6EFFEC7D
:1025700000F0B56F010EB55D03E0020EB16F120001
:102580001F0EAF25A96E000EB021AA6EFFEC00F061
:10259000B26FB0C0EFF0AFC0EEF01F0EF06FC0EC46
:1025A0001AF0F1C0B3F0B251B35D03E0030EB16FA6
:1025B0001200B16B1200B851B65DB951B75904E2BF
:1025C000B9C0B7F0B8C0B6F0B651BA5DB751BB5993
:1025D00004E2BBC0B7F0BAC0B6F01200BE6BBD6B70
:1025E00002EE32F0060EF76EC80EF66E35EC01F014
:1025F000EF6A3BC012F13AC011F1B6EC1CF0020ECA
:10260000BD25E46F000EBE21E56F3BC0E7F03AC088
:10261000E6F09FEC1AF0E8C0BFF0BF5303E0BFC084
:10262000BCF0120002EE32F0060EF76ED60EF66E19
:1026300035EC01F0EF6A3DC012F13CC011F1B6EC8F
:102640001CF0040EBD25E46F000EBE21E56F3DC0F9
:10265000E7F03CC0E6F09FEC1AF0E8C0BFF0BF53D3
:1026600003E0BFC0BCF0120002EE11F0060EF76EE0
:10267000E40EF66E35EC01F0EF6A27C010F195EC30
:102680001CF0080EBD25DE6F000EBE21DF6F27C0D7
:10269000E0F07CEC1AF0E1C0BFF0BF5303E0BFC034
:1026A000BCF01200BEC0F6F0BDC0F5F0D8EC1AF0D8
:1026B000F7C0BFF0BFC026F0BFC0BCF01200146A64
:1026C000200E136E166AC0C015F01506000E165ABD
:1026D0001650200DF3CF16F01550200DF3CF15F046
:1026E000F450162615501324C26F16501420C36FD1
:1026F000060EF76EF00EF66EDFEC00F0040E016EC3
:10270000C0514FEC00F0070EF76E040EF66EDFECD2
:1027100000F00D0EE7EC00F0010EC05DD8A464D10E
:1027200002EE11F0070EF76E140EF66E35EC01F0A6
:10273000EF6A3EC010F195EC1CF0020EC225DE6F70
:10274000000EC321DF6F3EC0E0F07CEC1AF0E1C068
:10275000C4F0C45319E102EE11F0070EF76E220E19
:10276000F66E35EC01F0EF6A3FC010F195EC1CF00D
:10277000030EC225DE6F000EC321DF6F3FC0E0F005
:102780007CEC1AF0E1C0C4F0C45319E102EE11F080
:10279000070EF76E300EF66E35EC01F0EF6A40C0B2
:1027A00010F195EC1CF0040EC225DE6F000EC32163
:1027B000DF6F40C0E0F07CEC1AF0E1C0C4F0C4531D
:1027C00023E101EEF0F0070EF76E3E0EF66E35ECEB
:1027D00001F0EF6A42C0EBF041C0EAF0BBEC1AF046
:1027E000EDC00FF1ECC00EF173EC1CF0050EC2252C
:1027F000E46F000EC321E56F42C0E7F041C0E6F090
:102800009FEC1AF0E8C0C4F0C45323E101EEF0F0ED
:10281000070EF76E4A0EF66E35EC01F0EF6A44C013
:10282000EBF043C0EAF0BBEC1AF0EDC00FF1ECC0E6
:102830000EF173EC1CF0070EC225E46F000EC321ED
:10284000E56F44C0E7F043C0E6F09FEC1AF0E8C043
:10285000C4F0C4531DE102EE32F0070EF76E580EBD
:10286000F66E35EC01F0EF6A46C012F145C011F189
:10287000B6EC1CF0090EC225E46F000EC321E56F13
:1028800046C0E7F045C0E6F09FEC1AF0E8C0C4F09F
:10289000C4531DE102EE32F0070EF76E660EF66EBF
:1028A00035EC01F0EF6A48C012F147C011F1B6EC07
:1028B0001CF00B0EC225E46F000EC321E56F48C06B
:1028C000E7F047C0E6F09FEC1AF0E8C0C4F0C4534C
:1028D0001DE102EE32F0070EF76E720EF66E35EC69
:1028E00001F0EF6A4AC012F149C011F1B6EC1CF0D8
:1028F0000D0EC225E46F000EC321E56F4AC0E7F05C
:1029000049C0E6F09FEC1AF0E8C0C4F0C45319E1E6
:1029100002EE11F0070EF76E7E0EF66E35EC01F04A
:10292000EF6A4BC010F195EC1CF00F0EC225DE6F64
:10293000000EC321DF6F4BC0E0F07CEC1AF0E1C069
:10294000C4F0C45319E102EE11F0070EF76E8C0EBD
:10295000F66E35EC01F0EF6A4CC010F195EC1CF00E
:10296000100EC225DE6F000EC321DF6F4CC0E0F0F9
:102970007CEC1AF0E1C0C4F0C45319E102EE11F08E
:10298000070EF76E980EF66E35EC01F0EF6A4DC04B
:1029900010F195EC1CF0110EC225DE6F000EC32164
:1029A000DF6F4DC0E0F07CEC1AF0E1C0C4F0C4531E
:1029B00019E102EE11F0070EF76EA40EF66E35EC7B
:1029C00001F0EF6A4EC010F195EC1CF0120EC2251A
:1029D000DE6F000EC321DF6F4EC0E0F07CEC1AF01A
:1029E000E1C0C4F0C1EF17F0020EC05DD8A463D1FE
:1029F00002EE11F0070EF76EB20EF66E35EC01F036
:102A0000EF6A54C010F195EC1CF0020EC225DE6F87
:102A1000000EC321DF6F54C0E0F07CEC1AF0E1C07F
:102A2000C4F0C45319E102EE11F0070EF76EC00EA8
:102A3000F66E35EC01F0EF6A55C010F195EC1CF024
:102A4000030EC225DE6F000EC321DF6F55C0E0F01C
:102A50007CEC1AF0E1C0C4F0C45319E102EE11F0AD
:102A6000070EF76ECE0EF66E35EC01F0EF6A56C02B
:102A700010F195EC1CF0040EC225DE6F000EC32190
:102A8000DF6F56C0E0F07CEC1AF0E1C0C4F0C45334
:102A900023E101EEF0F0070EF76EDC0EF66E35EC7A
:102AA00001F0EF6A58C0EBF057C0EAF0BBEC1AF047
:102AB000EDC00FF1ECC00EF173EC1CF0050EC22559
:102AC000E46F000EC321E56F58C0E7F057C0E6F091
:102AD0009FEC1AF0E8C0C4F0C45323E101EEF0F01B
:102AE000070EF76EE80EF66E35EC01F0EF6A5AC08D
:102AF000EBF059C0EAF0BBEC1AF0EDC00FF1ECC0FE
:102B00000EF173EC1CF0070EC225E46F000EC3211A
:102B1000E56F5AC0E7F059C0E6F09FEC1AF0E8C044
:102B2000C4F0C4531DE102EE32F0070EF76EF60E4C
:102B3000F66E35EC01F0EF6A5CC012F15BC011F18A
:102B4000B6EC1CF0090EC225E46F000EC321E56F40
:102B50005CC0E7F05BC0E6F09FEC1AF0E8C0C4F0A0
:102B6000C4531DE102EE32F0080EF76E040EF66E4D
:102B700035EC01F0EF6A5EC012F15DC011F1B6EC08
:102B80001CF00B0EC225E46F000EC321E56F5EC082
:102B9000E7F05DC0E6F09FEC1AF0E8C0C4F0C45363
:102BA0001DE102EE32F0080EF76E100EF66E35ECF7
:102BB00001F0EF6A60C012F15FC011F1B6EC1CF0D9
:102BC0000D0EC225E46F000EC321E56F60C0E7F073
:102BD0005FC0E6F09FEC1AF0E8C0C4F0C45319E1FE
:102BE00002EE11F0080EF76E1C0EF66E35EC01F0D9
:102BF000EF6A61C010F195EC1CF00F0EC225DE6F7C
:102C0000000EC321DF6F61C0E0F07CEC1AF0E1C080
:102C1000C4F0C45319E102EE11F0080EF76E2A0E4B
:102C2000F66E35EC01F0EF6A62C010F195EC1CF025
:102C3000100EC225DE6F000EC321DF6F62C0E0F010
:102C40007CEC1AF0E1C0C4F0C45319E102EE11F0BB
:102C5000080EF76E360EF66E35EC01F0EF6A63C0C3
:102C600010F195EC1CF0110EC225DE6F000EC32191
:102C7000DF6F63C0E0F07CEC1AF0E1C0C4F0C45335
:102C800019E102EE11F0080EF76E420EF66E35EC09
:102C900001F0EF6A64C010F195EC1CF0120EC22531
:102CA000DE6F000EC321DF6F64C0E0F07CEC1AF031
:102CB000E1C0C4F066D1030EC05DD8A462D102EEBB
:102CC00011F0080EF76E500EF66E35EC01F0EF6A5B
:102CD00065C010F195EC1CF0020EC225DE6F000EEF
:102CE000C321DF6F65C0E0F07CEC1AF0E1C0C4F0F6
:102CF000C45319E102EE11F0080EF76E5E0EF66E87
:102D000035EC01F0EF6A66C010F195EC1CF0030E93
:102D1000C225DE6F000EC321DF6F66C0E0F07CECE1
:102D20001AF0E1C0C4F0C45319E102EE11F0080E2C
:102D3000F76E6C0EF66E35EC01F0EF6A67C010F1BD
:102D400095EC1CF0040EC225DE6F000EC321DF6F70
:102D500067C0E0F07CEC1AF0E1C0C4F0C45323E19A
:102D600001EEF0F0080EF76E7A0EF66E35EC01F01B
:102D7000EF6A69C0EBF068C0EAF0BBEC1AF0EDC096
:102D80000FF1ECC00EF173EC1CF0050EC225E46FE0
:102D9000000EC321E56F69C0E7F068C0E6F09FEC64
:102DA0001AF0E8C0C4F0C45323E101EEF0F0080EBD
:102DB000F76E860EF66E35EC01F0EF6A6BC0EBF045
:102DC0006AC0EAF0BBEC1AF0EDC00FF1ECC00EF1F6
:102DD00073EC1CF0070EC225E46F000EC321E56FF3
:102DE0006BC0E7F06AC0E6F09FEC1AF0E8C0C4F0F0
:102DF000C4531DE102EE32F0080EF76E940EF66E2B
:102E000035EC01F0EF6A6DC012F16CC011F1B6EC57
:102E10001CF0090EC225E46F000EC321E56F6DC0E2
:102E2000E7F06CC0E6F09FEC1AF0E8C0C4F0C453C1
:102E30001DE102EE32F0080EF76EA20EF66E35ECD2
:102E400001F0EF6A6FC012F16EC011F1B6EC1CF028
:102E50000B0EC225E46F000EC321E56F6FC0E7F0D3
:102E60006EC0E6F09FEC1AF0E8C0C4F0C4531DE158
:102E700002EE32F0080EF76EAE0EF66E35EC01F093
:102E8000EF6A71C012F170C011F1B6EC1CF00D0EBA
:102E9000C225E46F000EC321E56F71C0E7F070C07A
:102EA000E6F09FEC1AF0E8C0C4F0C45319E102EE5A
:102EB00011F0080EF76EBA0EF66E35EC01F0EF6AFF
:102EC00072C010F195EC1CF00F0EC225DE6F000EE3
:102ED000C321DF6F72C0E0F07CEC1AF0E1C0C4F0F7
:102EE000C45319E102EE11F0080EF76EC80EF66E2B
:102EF00035EC01F0EF6A73C010F195EC1CF0100E88
:102F0000C225DE6F000EC321DF6F73C0E0F07CECE2
:102F10001AF0E1C0C4F0C45319E102EE11F0080E3A
:102F2000F76ED40EF66E35EC01F0EF6A74C010F156
:102F300095EC1CF0110EC225DE6F000EC321DF6F71
:102F400074C0E0F07CEC1AF0E1C0C4F0C45319E1A5
:102F500002EE11F0080EF76EE00EF66E35EC01F0A1
:102F6000EF6A75C010F195EC1CF0120EC225DE6FF1
:102F7000000EC321DF6F75C0E0F07CEC1AF0E1C0F9
:102F8000C4F0C45334E1C3C0F6F0C2C0F5F0D8ECCD
:102F90001AF0F7C0C4F0C45315E1060EF76EF00E38
:102FA000F66EDFEC00F0040E016EC0514FEC00F045
:102FB000080EF76EEE0EF66EDFEC00F00D0EE7EC8D
:102FC00000F014D0090EF76E0C0EF66EDFEC00F078
:102FD000040E016EC0514FEC00F0090EF76E220E88
:102FE000F66EDFEC00F00D0EE7EC00F014D0090EE9
:102FF000F76E0C0EF66EDFEC00F0040E016EC051A1
:103000004FEC00F0090EF76E3E0EF66EDFEC00F0AE
:103010000D0EE7EC00F0C4C026F0C4C0C1F01200F1
:10302000C76B800EC66FC7C0B0F0C6C0AFF0A4ECCF
:1030300012F0B1C0C8F0C85310E1C7C0FBF0C6C061
:10304000FAF0FD6BFC6B80EC1BF0FEC0C8F0C853BF
:1030500004E1EAEC0EF096C0C8F0C8C0C5F012005A
:10306000146A200E136E166AC9C015F01506000EFC
:10307000165A1650200DF3CF16F01550200DF3CF31
:1030800015F0F450162615501324CD6F1650142049
:10309000CE6F800ECD25CB6F000ECE21CC6FCCC075
:1030A000B0F0CBC0AFF0A4EC12F0B1C0CFF0CF5372
:1030B00014E1CCC0FBF0CBC0FAF0CEC0FDF0CDC027
:1030C000FCF080EC1BF0FEC0CFF0CF5306E1C9C08E
:1030D0009AF05CEC0FF09BC0CFF0CFC0CAF01200AA
:1030E000AA6BFA0EA96F8AEC12F0ACC03BF0ABC031
:1030F0003AF03B5205E10A0E3A5C02E2000E01D0C2
:10310000010E176E010E3B5C06E303E12D0E3A5CE7
:1031100002E3000E01D0010E17160001D8B46AD0E8
:10312000AA6BFC0EA96F8AEC12F0ACC03DF0ABC0EC
:103130003CF0B76B3C0EB66FB96B0A0EB86F070E5A
:10314000BB6FD00EBA6FDBEC12F0AA6AC80EA96E84
:10315000FFEC00F03E6EAA6AC90EA96EFFEC00F00B
:103160003F6EAA6ACA0EA96EFFEC00F0406EAA6B11
:10317000CC0EA96F8AEC12F0ACC042F0ABC041F0AB
:10318000AA6BCE0EA96F8AEC12F0ACC044F0ABC0B3
:1031900043F0466A456A486A476A4A6A496A020EC3
:1031A0004B6E4C6E4D6E010E4E6E020ED26F25D8D8
:1031B000030ED26F22D8EEEC12F0BCC0D1F0D15386
:1031C00006E1010EC06F5FEC13F0C1C0D1F0D15326
:1031D00006E1020EC06F5FEC13F0C1C0D1F0D15315
:1031E00006E1030EC06F5FEC13F0C1C0D1F0D1C097
:1031F000D0F002D0010ED06F1200010ED25D16E1A8
:10320000010E3E6E3F6A406A426A416A446E6A0E2F
:10321000436E466A456A486A476A4A6A496A020EC4
:103220004B6E4C6E4D6E010E4E6E32D0020ED25D64
:1032300017E1010E546E556E566A5868CE0E576EE1
:103240005A6A640E596E5C6A5B6A5E6A5D6A606A9D
:103250005F6A020E616E626A636A010E646E18D064
:10326000030ED25D15E1656A020E666E676A696AD1
:10327000686A6B6A640E6A6E6D6A6C6A6F6A6E6AFF
:10328000716A706A726A020E736E746E010E756EE8
:1032900012000101010E136F0001D8EC1CF014C1E3
:1032A000D3F012000101020E136F0001D8EC1CF0E4
:1032B00014C1D4F012000101030E136F0001D8EC09
:1032C0001CF014C1D5F01200030ED86FD76BDA6B67
:1032D000DB69188218A27BD001EE8DF0090EF76E23
:1032E0005A0EF66E35EC01F0EF6A6FEC0EF0020E3E
:1032F000906F62EC0EF0030E906F62EC0EF0040E15
:10330000906F62EC0EF0D75303E1010ED96F01D03C
:10331000D96B800E016EC00E30EC00F0090EF76E16
:10332000700EF66E8AEC00F00101020E086F0B0EB3
:10333000096F3BC00BF13AC00AF1D9C00CF1000192
:1033400035EC1CF0010ED75D03E1010ED96F01D001
:10335000D96B800E016E940E30EC00F0090EF76E02
:103360007C0EF66E8AEC00F00101030E026F0B0E6C
:10337000036F3DC005F13CC004F1D9C006F1000166
:103380002EDA020ED75D12E1040E916F01EEAEF05F
:10339000420EEE6E610EEE6E630EEE6E6B0EEE6E14
:1033A000EF6A010E926F85EC0EF010D0040E916F53
:1033B00001EEAEF0420EEE6E610EEE6E630EEE6E3C
:1033C0006B0EEE6EEF6A926B85EC0EF01892B9EC14
:1033D0000EF02252D8B44BD0DA5317E1010E225C22
:1033E0000FE1FF0ED825056E066AFF0E0622065273
:1033F00003E10550D75D03E20001D72B188204D00A
:10340000D75302E0D707188232D0DB5317E1010E01
:10341000225C09E1010E3B5C2C0ED8B43A5C02E25E
:103420003A4A3B2A09D03B5203E10B0E3A5C03E3D4
:103430003A06000E3B5A0001188219D0010EDB5DDE
:1034400016E1010E225C09E1070E3D5CD00ED8B4F6
:103450003C5C02E23C4A3D2A09D03D5203E10B0E9E
:103460003C5C03E33C06000E3D5A00011882E5EC8B
:103470000EF0E6EC0EF0010E955D3CE1020E8B6F56
:103480002FEC0EF0DA5317E1020ED75D04E1010EC6
:10349000D66F12000FD0010EDA6FD7C0DBF0D75312
:1034A00005E13BC0DDF03AC0DCF004D03DC0DDF00A
:1034B0003CC0DCF01FD0DB530DE1B76B3A0EB66FAA
:1034C000B96B0A0EB86F010EBB6F2C0EBA6FDBEC36
:1034D00012F00CD0B76B3C0EB66FB96B0A0EB86F1A
:1034E000070EBB6FD00EBA6FDBEC12F0EEEC12F0F1
:1034F000DA6BDB69EFD61200010EE36F040EE35DB9
:103500001BE2DFC0AAFFDEC0A9FFE051EFEC00F034
:103510000A0E06EC01F0DFC0AAFFDEC0A9FFFFEC37
:1035200000F0E26FE251E05D02E1E16B1200050E96
:1035300006EC01F0E32BE2E3050EE16F1200E5C0BB
:10354000DFF0E4C0DEF0E6C0E0F0D6DFE1C0E9F095
:10355000E95303E0E9C0E8F01200010EE425DE6F54
:10356000000EE521DF6FE7C0E0F0C6DFE1C0E9F063
:10357000E9C0E8F01200EBC0EDF0EAC0ECF0120098
:10358000F26BF005196EF36BF351195C0DE3F35117
:10359000EE25A96E000EEF21AA6EFFEC00F0F46F8D
:1035A000F451F227F32BF0E3F2510008F16F12000F
:1035B000090EF76E880EF66EDFEC00F0040E016E59
:1035C000046AF6C00EF0F5C00DF052EC00F00D0EDE
:1035D000E7EC00F0090EF76EB00EF66EDFEC00F0CF
:1035E0000D0EE7EC00F0F6C0DFF0F5C0DEF0A50E42
:1035F000E06F82DFE1C0F9F0F95311E0090EF76ED8
:10360000CA0EF66EDFEC00F0040E016EF9514FECBD
:1036100000F00D0EE7EC00F0F9C0F7F01200090E13
:10362000F76EEE0EF66EDFEC00F00D0EE7EC00F03C
:10363000010EF525DE6F000EF621DF6F010EE06F43
:103640005BDFE1C0F9F0F95311E00A0EF76E0A0EE4
:10365000F66EDFEC00F0040E016EF9514FEC00F055
:103660000D0EE7EC00F0F9C0F7F012000A0EF76E4D
:10367000300EF66EDFEC00F00D0EE7EC00F0F6C059
:10368000EFF0F5C0EEF01F0EF06F7ADFF1C0F8F04A
:103690000A0EF76E4C0EF66EDFEC00F0040E016EB3
:1036A000020E046EF85138EC00F00D0EE7EC00F05D
:1036B0001F0EF525DE6F000EF621DF6FF8C0E0F07B
:1036C0001BDFE1C0F9F0F9530FE00A0EF76E680E48
:1036D000F66EDFEC00F0040E016EF9514FEC00F0D5
:1036E0000D0EE7EC00F009D00A0EF76E8E0EF66EA6
:1036F000DFEC00F00D0EE7EC00F0F9C0F7F012007F
:103700000A0EF76EB40EF66EDFEC00F0040E016EDA
:10371000046AFBC00EF0FAC00DF052EC00F0200E6F
:10372000E7EC00F0440EE7EC00F0730EE7EC00F07D
:10373000740EE7EC00F03D0EE7EC00F0046AFDC00B
:103740000EF0FCC00DF052EC00F00D0EE7EC00F0B6
:10375000FF6B200EFF5D38E2FF51FA25A96E000EC7
:10376000FB21AA6EFFEC00F00101006F0001FF5188
:10377000FC25DE6F000EFD21DF6F00C1E0F0BCDE36
:10378000E1C001F10101015300011CE00A0EF76ED6
:10379000D00EF66EDFEC00F0040E016EFF514FEC20
:1037A00000F00A0EF76EEC0EF66EDFEC00F0010191
:1037B00001514FEC00F00D0EE7EC00F001C1FEF0FE
:1037C00000011200FF2BC5E30A0EF76EF60EF66E2F
:1037D000DFEC00F00D0EE7EC00F0FE6B1200146A57
:1037E00003C113F0134A142A166A080E156E050E4B
:1037F000155E000E165A135015240101076F02C101
:1038000043F103C144F10001CCEC26F0010E0101AB
:10381000065D000117E1800E016E02C102F0010198
:10382000070512EC00F05B0E92EC00F0800E016ECA
:1038300002C102F0090E0101032512EC00F05D0E39
:1038400092EC00F00001800E016E02C102F0010155
:10385000075112EC00F0050E046E05C10EF004C114
:103860000DF052EC00F000011200146A09C113F0CF
:10387000134A142A166A080E156E050E155E000E00
:10388000165A1350152401010D6F08C143F109C1E7
:1038900044F10001CCEC26F0010E01010C5D0001A9
:1038A00017E1800E016E08C102F001010D0512EC56
:1038B00000F05B0E92EC00F0800E016E08C102F089
:1038C000090E0101092512EC00F05D0E92EC00F0EA
:1038D000000108C154F10DC155F10BC157F10AC1E6
:1038E00056F1FFEF27F00B0EF76E200EF66EDFECB1
:1038F00000F001EEF0F0EE5003E0E7EC00F0FBD753
:10390000200EE7EC00F03D0EE7EC00F0200EE7ECB7
:1039100000F0040E016E046A0FC10EF00EC10DF02E
:103920004DEC00F00D0EE7EF00F00B0EF76E200EE1
:10393000F66EDFEC00F002EE11F0EE5003E0E7EC83
:1039400000F0FBD7200EE7EC00F03D0EE7EC00F0B6
:10395000200EE7EC00F0040E016E010110514FEC57
:1039600000F00D0EE7EC00F0000112000B0EF76EF8
:10397000200EF66EDFEC00F002EE32F0EE5003E0C7
:10398000E7EC00F0FBD7200EE7EC00F03D0EE7EC93
:1039900000F0200EE7EC00F0040E016E046A12C184
:1039A0000EF011C10DF052EC00F00D0EE7EF00F03B
:1039B0000B0EF76E2E0EF66EDFEC00F0040E016EAD
:1039C000010113514FEC00F00D0EE7EC00F0010E79
:1039D0000101135D000121E13EC015F13FC016F168
:1039E00042C018F141C017F144C01AF143C019F1A7
:1039F00046C01CF145C01BF148C01EF147C01DF177
:103A00004AC020F149C01FF14BC021F14CC022F146
:103A10004DC023F14EC024F14BD0020E0101135DC5
:103A2000000121E154C015F155C016F158C018F13C
:103A300057C017F15AC01AF159C019F15CC01CF1F6
:103A40005BC01BF15EC01EF15DC01DF160C020F1C6
:103A50005FC01FF161C021F162C022F163C023F198
:103A600064C024F125D0030E0101135D000120E1A3
:103A700065C015F166C016F169C018F168C017F18C
:103A80006BC01AF16AC019F16DC01CF16CC01BF15A
:103A90006FC01EF16EC01DF171C020F170C01FF12A
:103AA00072C021F173C022F174C023F175C024F1FA
:103AB0000B0EF76E500EF66EDFEC00F0040E016E8A
:103AC000046A18C10EF017C10DF052EC00F00B0E95
:103AD000F76E680EF66EDFEC00F0046A1AC10EF0A5
:103AE00019C10DF052EC00F00D0EE7EC00F00101F1
:103AF000256B266B188201011653000105E10101B7
:103B00000C0E276F00010DD0010E0101165D0001A2
:103B100005E101010A0E276F000103D00101050E26
:103B2000276F010127052B6F000118A241EF22F03A
:103B3000010E8B6F2FEC0EF0800E016E30EC00F05A
:103B4000060EF76E760EF66E8AEC00F0800E016EB1
:103B500030EC00F00B0EF76E740EF66E8AEC00F08F
:103B6000010E046E0101135150EC00F00B0EF76EC4
:103B70007C0EF66E8AEC00F00001020E906F62EC93
:103B80000EF0030E906F62EC0EF0040E906F62EC7C
:103B90000EF0020E0101255D000104E20101266B19
:103BA000000121D0FF0E01012725056E066AFF0ED8
:103BB00006220652000114E105500101255D0001B5
:103BC0000FE3030E0101275D000106E3030E01016F
:103BD000275D266F000102D00101266B000103D092
:103BE00001012505266F0101020E296F050E010155
:103BF000295D0001D8B040EF22F0FE0E0101292519
:103C0000136E146AFF0E1422265113242A6F2A51B0
:103C10002B5D0001D8A036EF22F001012A51255D6D
:103C2000000105E10101010E286F000102D0010130
:103C3000286B010116530001D8A470D001012A534A
:103C4000000104E101012C6B000167D0010E0101AC
:103C50002A5D000105E10101010E2C6F00015DD01C
:103C6000020E01012A5D000105E10101020E2C6F27
:103C7000000153D0030E01012A5D000105E101019D
:103C8000030E2C6F000149D0040E01012A5D0001D2
:103C900005E10101040E2C6F00013FD0050E01016A
:103CA0002A5D000105E10101050E2C6F000135D0F0
:103CB000060E01012A5D000105E10101060E2C6FCF
:103CC00000012BD0070E01012A5D000105E1010171
:103CD000070E2C6F000121D0080E01012A5D0001A2
:103CE00005E10101080E2C6F000117D0090E01013A
:103CF0002A5D000105E10101090E2C6F00010DD0C4
:103D00000A0E01012A5D000105E101010A0E2C6F76
:103D1000000102D001012C6900018AD0010E0101CD
:103D2000165D0001D8A45CD001012A53000104E112
:103D300001012C6B000153D0010E01012A5D00012D
:103D400005E10101010E2C6F000149D0020E0101B5
:103D50002A5D000105E10101020E2C6F00013FD038
:103D6000030E01012A5D000105E10101030E2C6F24
:103D7000000135D0040E01012A5D000105E10101B9
:103D8000040E2C6F00012BD0050E01012A5D0001ED
:103D900005E10101060E2C6F000121D0060E010184
:103DA0002A5D000105E10101070E2C6F000117D00B
:103DB000070E01012A5D000105E10101090E2C6FCA
:103DC00000010DD0080E01012A5D000105E101018D
:103DD0000A0E2C6F000102D001012C69000128D0CD
:103DE00001012A53000104E101012C6B000120D0E4
:103DF000010E01012A5D000105E10101010E2C6F98
:103E0000000116D0020E01012A5D000105E1010149
:103E10000A0E2C6F00010CD0030E01012A5D000177
:103E200005E10101090E2C6F000102D001012C698E
:103E300001012C29000113E129C13FF102EE53F0E9
:103E4000420EEE6E610EEE6E630EEE6E6B0EEE6E59
:103E5000EF6A28C140F185EC26F035EF22F0010130
:103E60002C5300013FE1800E016E29C102F0010ECA
:103E700012EC00F00B0EF76E8A0EF66E8AEC00F074
:103E8000010E0101155D000116E129C145F1010195
:103E90000B0E466F02EE74F00B0EF76E960EF66E7A
:103EA00035EC01F0EF6A28C147F10101486B0001D0
:103EB000DCEC26F015D029C145F101010B0E466F4F
:103EC00002EE74F00B0EF76E9E0EF66E35EC01F0FE
:103ED000EF6A28C147F10101486B0001DCEC26F0D4
:103EE00035EF22F0010E01012C5D0001D8A45BD05A
:103EF000800E016E29C102F0010E12EC00F00B0ED3
:103F0000F76EA80EF66E8AEC00F001011653000160
:103F100016E129C145F101010B0E466F02EE74F066
:103F20000B0EF76EB40EF66E35EC01F0EF6A28C199
:103F300047F10101486B0001DCEC26F032D0010EA4
:103F40000101165D000117E129C145F101010B0EC8
:103F5000466F02EE74F0540EEE6E650EEE6E6D0E50
:103F6000EE6E700EEE6EEF6A28C147F1486B0001ED
:103F7000DCEC26F016D029C145F101010B0E466F8D
:103F800002EE74F0460EEE6E6C0EEE6E6F0EEE6E7E
:103F9000770EEE6EEF6A28C147F1486B0001DCEC4A
:103FA00026F035EF22F0020E01012C5D000128E120
:103FB000800E016E29C102F0010E12EC00F00B0E12
:103FC000F76EBE0EF66E8AEC00F018C1EBF017C16A
:103FD000EAF0BBEC1AF0EDC030F1ECC02FF129C1D2
:103FE0004BF101010B0E4C6F30C14EF12FC14DF161
:103FF00028C14FF1506B00014FEC27F035EF22F054
:10400000030E01012C5D000127E1800E016E29C124
:1040100002F0010E12EC00F00B0EF76ECA0EF66EF7
:104020008AEC00F01AC1EBF019C1EAF0BBEC1AF00F
:10403000EDC032F1ECC031F129C14BF101010B0EA1
:104040004C6F32C14EF131C14DF128C14FF1506B6F
:1040500000014FEC27F009D2040E01012C5D000194
:104060002EE10101165300010EE1800E016E29C1FF
:1040700002F0010E12EC00F00B0EF76ED60EF66E8B
:104080008AEC00F00DD0800E016E29C102F0010E05
:1040900012EC00F00B0EF76EE20EF66E8AEC00F0FA
:1040A00029C108F101010B0E096F1CC10BF11BC1E5
:1040B0000AF128C10CF1000135EC1CF0D6D1050E37
:1040C00001012C5D00011CE1800E016E29C102F08E
:1040D000010E12EC00F00B0EF76EEE0EF66E8AEC8F
:1040E00000F029C108F101010B0E096F1EC10BF18F
:1040F0001DC10AF128C10CF1000135EC1CF0B5D14D
:10410000060E01012C5D00012EE101011653000194
:104110000EE1800E016E29C102F0010E12EC00F0DA
:104120000B0EF76EFA0EF66E8AEC00F00DD0800ED4
:10413000016E29C102F0010E12EC00F00C0EF76EB8
:10414000060EF66E8AEC00F029C108F101010B0E93
:10415000096F20C10BF11FC10AF128C10CF1000148
:1041600035EC1CF082D1070E01012C5D0001D8A4B2
:1041700060D0800E016E29C102F0010E12EC00F039
:104180000C0EF76E120EF66E8AEC00F00101215350
:10419000000113E129C145F101010B0E466F02EE4A
:1041A00074F04E0EEE6E6F0EEE6EEF6A28C147F1A0
:1041B000486B0001DCEC26F03BD0010E0101215DD3
:1041C000000119E129C145F101010B0E466F02EE14
:1041D00074F0500EEE6E750EEE6E6C0EEE6E730E8B
:1041E000EE6E650EEE6EEF6A28C147F1486B000176
:1041F000DCEC26F01DD0020E0101215D000118E16A
:1042000029C145F101010B0E466F02EE74F04C0E10
:10421000EE6E610EEE6E740EEE6E630EEE6E680E56
:10422000EE6EEF6A28C147F1486B0001DCEC26F026
:104230001CD1080E01012C5D0001D8A460D0800EB5
:10424000016E29C102F0010E12EC00F00C0EF76EA7
:104250001E0EF66E8AEC00F001012253000113E1FC
:1042600029C145F101010B0E466F02EE74F04E0EAE
:10427000EE6E6F0EEE6EEF6A28C147F1486B0001DB
:10428000DCEC26F03BD0010E0101225D000119E1BA
:1042900029C145F101010B0E466F02EE74F0500E7C
:1042A000EE6E750EEE6E6C0EEE6E730EEE6E650EAD
:1042B000EE6EEF6A28C147F1486B0001DCEC26F096
:1042C0001DD0020E0101225D000118E129C145F156
:1042D00001010B0E466F02EE74F04C0EEE6E610E95
:1042E000EE6E740EEE6E630EEE6E680EEE6EEF6A9C
:1042F00028C147F1486B0001DCEC26F0B6D0090E6E
:1043000001012C5D0001D8A472D0010116530001F7
:104310000EE1800E016E29C102F0010E12EC00F0D8
:104320000C0EF76E2A0EF66E8AEC00F00DD0800EA1
:10433000016E29C102F0010E12EC00F00C0EF76EB6
:10434000360EF66E8AEC00F001012353000113E1F2
:1043500029C145F101010B0E466F02EE74F04E0EBD
:10436000EE6E6F0EEE6EEF6A28C147F1486B0001EA
:10437000DCEC26F03BD0010E0101235D000119E1C8
:1043800029C145F101010B0E466F02EE74F0500E8B
:10439000EE6E750EEE6E6C0EEE6E730EEE6E650EBC
:1043A000EE6EEF6A28C147F1486B0001DCEC26F0A5
:1043B0001DD0020E0101235D000118E129C145F164
:1043C00001010B0E466F02EE74F04C0EEE6E610EA4
:1043D000EE6E740EEE6E630EEE6E680EEE6EEF6AAB
:1043E00028C147F1486B0001DCEC26F03ED00A0EF4
:1043F00001012C5D000139E1800E016E29C102F03E
:10440000010E12EC00F00C0EF76E420EF66E8AEC06
:1044100000F0010E0101245D000115E129C145F103
:1044200001010B0E466F02EE74F0590EEE6E650E32
:10443000EE6E730EEE6EEF6A28C147F1486B000115
:10444000DCEC26F012D029C145F101010B0E466FBC
:1044500002EE74F04E0EEE6E6F0EEE6EEF6A28C135
:1044600047F1486B0001DCEC26F004D029C190F044
:1044700062EC0EF00101292B0001D8A0F6EF1DF02F
:104480001892B9EC0EF0225214E0010E225C09E100
:1044900001012B51255D000102E20101252B0001E4
:1044A00007D001012553000102E0010125070001A9
:1044B0001882E5EC0EF0E6EC0EF0010E955DD8A446
:1044C0007DEF26F001012651255D136E146AD8A0F8
:1044D0001406020E13242D6F16530001D8A470D0B9
:1044E00001012553000104E101012C6B000167D09B
:1044F000010E0101255D000105E10101010E2C6F96
:1045000000015DD0020E0101255D000105E1010100
:10451000020E2C6F000153D0030E0101255D000136
:1045200005E10101030E2C6F000149D0040E0101C9
:10453000255D000105E10101040E2C6F00013FD053
:10454000050E0101255D000105E10101050E2C6F3D
:10455000000135D0060E0101255D000105E10101D4
:10456000060E2C6F00012BD0070E0101255D000106
:1045700005E10101070E2C6F000121D0080E010199
:10458000255D000105E10101080E2C6F000117D027
:10459000090E0101255D000105E10101090E2C6FE5
:1045A00000010DD00A0E0101255D000105E10101A8
:1045B0000A0E2C6F000102D001012C6900018AD083
:1045C000010E0101165D0001D8A45CD00101255344
:1045D000000104E101012C6B000153D0010E010127
:1045E000255D000105E10101010E2C6F000149D09C
:1045F000020E0101255D000105E10101020E2C6F93
:1046000000013FD0030E0101255D000105E101011C
:10461000030E2C6F000135D0040E0101255D000151
:1046200005E10101040E2C6F00012BD0050E0101E4
:10463000255D000105E10101060E2C6F000121D06E
:10464000060E0101255D000105E10101070E2C6F39
:10465000000117D0070E0101255D000105E10101F0
:10466000090E2C6F00010DD0080E0101255D00011F
:1046700005E101010A0E2C6F000102D001012C6935
:10468000000128D001012553000104E101012C6B38
:10469000000120D0010E0101255D000105E10101AD
:1046A000010E2C6F000116D0020E0101255D0001E4
:1046B00005E101010A0E2C6F00010CD0030E01016F
:1046C000255D000105E10101090E2C6F000102D0FA
:1046D00001012C6901012C2900010BE1020E8B6FF5
:1046E0002FEC0EF00101010E146F000112007DEF9E
:1046F00026F001012C5300012BE10101150E5C6F26
:1047000000013FEC28F05DC12EF1010E01012E5D8C
:1047100000011BE1010E0101135D000103E115C160
:104720003EF00FD0020E0101135D000103E115C13F
:1047300054F007D0030E0101135D000102E115C121
:1047400065F013C1C0F05FEC13F018827DEF26F026
:10475000010E01012C5D00012BE10101160E686FB5
:1047600000010BEC2AF069C12EF1010E01012E5D52
:1047700000011BE1010E0101135D000103E116C1FF
:104780003FF00FD0020E0101135D000103E116C1DD
:1047900055F007D0030E0101135D000102E116C1BF
:1047A00066F013C1C0F05FEC13F018827DEF26F0C5
:1047B000020E01012C5D0001D8A4EBD018C1EBF072
:1047C00017C1EAF0BBEC1AF0EDC034F1ECC033F1E4
:1047D00034C136F133C135F10C0EF76E4E0EF66E64
:1047E000DFEC00F0040E016E046A18C10EF017C170
:1047F0000DF052EC00F00C0EF76E6E0EF66EDFEC64
:1048000000F0046A34C10EF033C10DF04DEC00F03D
:104810000D0EE7EC00F034C16CF133C16BF12DC12A
:104820006DF18AEC2AF06FC134F16EC133F10C0ED8
:10483000F76E780EF66EDFEC00F0040E016E046A7F
:1048400034C10EF033C10DF04DEC00F00D0EE7EC6D
:1048500000F001013651345D05E13551335D000151
:10486000D8B48CD034C13CF133C13BF1000180ECB1
:1048700026F03EC118F13DC117F10C0EF76E980EEF
:10488000F66EDFEC00F0040E016E046A18C10EF043
:1048900017C10DF052EC00F00D0EE7EC00F0010E28
:1048A0000101135D00012DE10C0EF76EBC0EF66EDA
:1048B000DFEC00F0040E016E046A42C00EF041C04D
:1048C0000DF052EC00F0200EE7EC00F06E0EE7EC7D
:1048D00000F0650EE7EC00F0770EE7EC00F03D0E1F
:1048E000E7EC00F0046A18C10EF017C10DF052ECAD
:1048F00000F00D0EE7EC00F018C142F017C141F0D6
:1049000013D0020E0101135D000105E118C158F03A
:1049100017C157F009D0030E0101135D000104E136
:1049200018C169F017C168F00C0EF76EE00EF66E54
:10493000DFEC00F0040E016E010113514FEC00F0AA
:10494000290EE7EC00F00D0EE7EC00F013C1C0F00B
:1049500000015FEC13F0C1C02EF10C0EF76EFC0EDF
:10496000F66EDFEC00F0040E016E01012E514FECEB
:1049700000F00D0EE7EC00F0000109D00D0EF76E0F
:10498000200EF66EDFEC00F00D0EE7EC00F0188262
:10499000B4D1030E01012C5D0001D8A44FD01AC17F
:1049A000EBF019C1EAF0BBEC1AF0EDC038F1ECC045
:1049B00037F138C13AF137C139F138C16CF137C13B
:1049C0006BF12DC16DF18AEC2AF06FC138F16EC127
:1049D00037F101013A51385D04E13951375D000189
:1049E0002BE038C13CF137C13BF1000189D93EC110
:1049F0001AF13DC119F1010E0101135D000105E13C
:104A00001AC144F019C143F013D0020E0101135D25
:104A1000000105E11AC15AF019C159F009D0030E7D
:104A20000101135D000104E11AC16BF019C16AF0C4
:104A300013C1C0F05FEC13F018825FD1040E0101C6
:104A40002C5D000132E10101010E636F1B0E626FEC
:104A5000000121EC29F064C12EF1010E01012E5D4F
:104A6000000121E1010E0101135D000105E11CC1FE
:104A700046F01BC145F013D0020E0101135D000189
:104A800005E11CC15CF01BC15BF009D0030E010104
:104A9000135D000104E11CC16DF01BC16CF013C17A
:104AA000C0F05FEC13F0188228D1050E01012C5DD7
:104AB000000132E10101010E636F1D0E626F000102
:104AC00021EC29F064C12EF1010E01012E5D0001DF
:104AD00021E1010E0101135D000105E11EC148F055
:104AE0001DC147F013D0020E0101135D000105E165
:104AF0001EC15EF01DC15DF009D0030E0101135D02
:104B0000000104E11EC16FF01DC16EF013C1C0F0C1
:104B10005FEC13F01882F1D0060E01012C5D00014C
:104B200032E10101010E636F1F0E626F000121EC83
:104B300029F064C12EF1010E01012E5D000121E179
:104B4000010E0101135D000105E120C14AF01FC102
:104B500049F013D0020E0101135D000105E120C1EF
:104B600060F01FC15FF009D0030E0101135D000169
:104B700004E120C171F01FC170F013C1C0F05FECFF
:104B800013F01882BAD0070E01012C5D00012AE152
:104B90000101210E5F6F0001A2EC28F060C12EF12F
:104BA000010E01012E5D00011BE1010E0101135DEB
:104BB000000103E121C14BF00FD0020E0101135D92
:104BC000000103E121C161F007D0030E0101135D73
:104BD000000102E121C172F013C1C0F05FEC13F0DB
:104BE00018828BD0080E01012C5D00012AE1010121
:104BF000220E5F6F0001A2EC28F060C12EF1010EC1
:104C000001012E5D00011BE1010E0101135D000198
:104C100003E122C14CF00FD0020E0101135D00012F
:104C200003E122C162F007D0030E0101135D000110
:104C300002E122C173F013C1C0F05FEC13F01882DF
:104C40005CD0090E01012C5D00012AE10101230E57
:104C50005F6F0001A2EC28F060C12EF1010E01018E
:104C60002E5D00011BE1010E0101135D000103E156
:104C700023C14DF00FD0020E0101135D000103E1CD
:104C800023C163F007D0030E0101135D000102E1AF
:104C900023C174F013C1C0F05FEC13F018822DD063
:104CA0000A0E01012C5D000128E10101240E5C6F58
:104CB0000001E5D95DC12EF1010E01012E5D00015B
:104CC0001BE1010E0101135D000103E124C14EF05F
:104CD0000FD0020E0101135D000103E124C164F055
:104CE00007D0030E0101135D000102E124C175F03C
:104CF00013C1C0F05FEC13F018827BEF1DF01200BF
:104D00003CC13EF13BC13DF112003FC190F062EC6D
:104D10000EF002EE53F0000EEE5202E0E83EFCD739
:104D20000101416F140E415D000103E30101130E07
:104D3000416F010141511408426F800E016E3FC165
:104D400002F0425112EC00F002EE53F0EE5003E09C
:104D500092EC00F0FBD7010E0101405D00011BE168
:104D6000020E0101425D00010BE3800E016E3FC1A6
:104D700002F00101420512EC00F05B0E92EC00F033
:104D80000001800E016E3FC102F0140E12EC00F023
:104D90005D0E92EC00F01200800E016E43C102F035
:104DA0000101445112EC00F00D0EF76E420EF66E4A
:104DB0008AEC00F00001120002EE74F0000EEE52D8
:104DC00002E0E83EFCD70101496F090E495D000190
:104DD00003E30101080E496F0001146A46C113F094
:104DE000134A142A166A080E156E01014951155E00
:104DF000000E165A135015244A6F45C143F146C19F
:104E000044F10001C9DF010E0101475D000136E1F7
:104E1000010E0101485D000119E1800E016E45C1DE
:104E200002F001014A0512EC00F0280E92EC00F0AD
:104E3000800E016E45C102F0090E0101462512ECFB
:104E400000F0290E92EC00F0000117D0800E016EE8
:104E500045C102F001014A0512EC00F05B0E92EC34
:104E600000F0800E016E45C102F0090E01014625D9
:104E700012EC00F05D0E92EC00F00001800E016E6D
:104E800045C102F001014A5112EC00F002EE74F04B
:104E9000EE5003E092EC00F0FBD700011200146A20
:104EA0004CC113F0134A142A166A080E156E040E2C
:104EB000155E000E165A135015240101516F800E15
:104EC000016E4BC102F04C5112EC00F00D0EF76E6A
:104ED000420EF66E8AEC00F0010E01014F5D0001FA
:104EE000D8A453D0010E0101505D000119E1800EDC
:104EF000016E4BC102F00101510512EC00F0280EC9
:104F000092EC00F0800E016E4BC102F0090E01011F
:104F10004C2512EC00F0290E92EC00F0000135D087
:104F200001014E510001E8AE19D0800E016E4BC157
:104F300002F00101510512EC00F05B0E92EC00F062
:104F4000800E016E4BC102F0090E01014C2512ECDE
:104F500000F05D0E92EC00F0000117D0800E016EA3
:104F60004BC102F00101515112EC00F05B0E92ECCA
:104F700000F0800E016E4BC102F0090E01014C25BC
:104F800012EC00F05D0E92EC00F001014E510001B8
:104F9000E8AE23D0800E016E4BC102F001015151E9
:104FA00012EC00F02D0E92EC00F001014D510008C2
:104FB000526F000E4E55536F800E016E4BC102F0C2
:104FC000512912EC00F0030E046E53C10EF052C1D1
:104FD0000DF052EC00F0000110D0800E016E4BC1BC
:104FE00002F00101512912EC00F0030E046E4EC1D3
:104FF0000EF04DC10DF052EC00F00001120057C14F
:105000000AF056C109F00C6A3C0E0B6E1EEC01F062
:105010000101586F0AC059F157C10AF056C109F091
:105020000C6A3C0E0B6E1EEC01F00EC05BF10DC065
:105030005AF1800E016E54C102F00101555112EC7B
:1050400000F0020E046E59C10EF058C10DF052EC82
:1050500000F03A0E92EC00F0800E016E54C102F0A6
:10506000030E0101552512EC00F0020E046E5BC127
:105070000EF05AC10DF052EC00F0000112005CC1BC
:105080005EF1188218A238D0010E8B6F2FEC0EF053
:1050900001EE8DF00D0EF76E4E0EF66E35EC01F052
:1050A000EF6A6FEC0EF0020E906F62EC0EF0030EE2
:1050B000906F62EC0EF0040E906F62EC0EF0010E39
:1050C00001015E5D00010CE1800E016E940E30EC7A
:1050D00000F00D0EF76E620EF66E8AEC00F00BD04B
:1050E000800E016E940E30EC00F00D0EF76E780E0F
:1050F000F66E8AEC00F01892B9EC0EF022520EE037
:10510000010E01015E5D000104E101015E6B000121
:1051100003D00101010E5E6F00011882E5EC0EF074
:10512000E6EC0EF0010E955D0BE1020E8B6F2FEC9D
:105130000EF05EC15CF10101010E5D6F0001120015
:10514000A1D712005FC161F1188218A24DD0010EE3
:105150008B6F2FEC0EF001EE8DF00D0EF76E8E0EB4
:10516000F66E35EC01F0EF6A6FEC0EF0020E906F08
:1051700062EC0EF0030E906F62EC0EF0040E906F76
:1051800062EC0EF00101615300010CE1800E016E32
:10519000940E30EC00F00D0EF76EA20EF66E8AEC57
:1051A00000F021D0010E0101615D00010CE1800ED3
:1051B000016E940E30EC00F00D0EF76EB80EF66E28
:1051C0008AEC00F010D0020E0101615D00010BE1DC
:1051D000800E016E940E30EC00F00D0EF76ECE0EC8
:1051E000F66E8AEC00F01892B9EC0EF0010E225C1B
:1051F0000AE1020E0101615D000102E20101612B81
:10520000000118820AD0222808E10101615300013F
:1052100002E00101610700011882E5EC0EF0E6EC06
:105220000EF0010E955D0BE1020E8B6F2FEC0EF070
:1052300061C15FF10101010E606F0001120085D7AD
:10524000120063C10AF062C109F00C6A3C0E0B6ED9
:105250001EEC01F00101656F63C10AF062C109F043
:105260000C6A3C0E0B6E1EEC01F00DC066F10101E4
:10527000676B1882000118A274D0010E8B6F2FEC9F
:105280000EF001EE8DF00D0EF76EE40EF66E35ECBD
:1052900001F0EF6A6FEC0EF0020E906F62EC0EF010
:1052A000030E906F62EC0EF0040E906F62EC0EF045
:1052B0000101675300012BE1800E016E940E30EC6A
:1052C00000F0200E92EC00F05B0E92EC00F0020E6B
:1052D000046E0101655150EC00F05D0E92EC00F09F
:1052E000200E92EC00F03A0E92EC00F0200E92ECC0
:1052F00000F0020E046E0101665150EC00F00D0E3C
:10530000F76EF80EF66E8AEC00F0000128D0800EE1
:10531000016E940E30EC00F0200E92EC00F092EC56
:1053200000F0020E046E0101655150EC00F0200EF9
:1053300092EC00F03A0E92EC00F0200E92EC00F0AD
:105340005B0E92EC00F0020E046E0101665150EC0F
:1053500000F00E0EF76E020EF66E8AEC00F0000101
:105360001892B9EC0EF0010E225C17E101016753AF
:10537000000109E1630E0101655D000102E2010126
:10538000652B000108D03B0E0101665D000102E2C1
:105390000101662B0001188216D0222814E10101B8
:1053A0006753000108E101016553000102E00101BA
:1053B0006507000107D001016653000102E0010109
:1053C000660700011882E5EC0EF0E6EC0EF0010E27
:1053D000955D1FE1020E8B6F2FEC0EF001016753FC
:1053E000000106E10101010E676F1882000111D072
:1053F000010165513C0DF3CF13F0F4CF14F0665169
:105400001324626F000E1420636F010E646F00019D
:10541000120030D7120068C16AF1188218A24DD06C
:10542000010E8B6F2FEC0EF001EE8DF00E0EF76E6D
:105430000C0EF66E35EC01F0EF6A6FEC0EF0020E1A
:10544000906F62EC0EF0030E906F62EC0EF0040EA3
:10545000906F62EC0EF001016A5300010CE1800EC6
:10546000016E940E30EC00F00E0EF76E200EF66E0C
:105470008AEC00F021D0010E01016A5D00010CE10F
:10548000800E016E940E30EC00F00E0EF76E360EAC
:10549000F66E8AEC00F010D0020E01016A5D000188
:1054A0000BE1800E016E940E30EC00F00E0EF76EE4
:1054B0004E0EF66E8AEC00F01892B9EC0EF0010E6A
:1054C000225C0AE1020E01016A5D000102E20101B3
:1054D0006A2B000118820AD0222808E101016A53D0
:1054E000000102E001016A0700011882E5EC0EF0FC
:1054F000E6EC0EF0010E955D0BE1020E8B6F2FECCA
:105500000EF06AC168F10101010E696F000112001D
:1055100085D7120001010B0E7B6F146A7BC113F05B
:10552000134A142A166A080E156E040E155E000E34
:10553000165A135015247C6F6CC17EF16BC17DF13E
:105540000E0EF76E660EF66EDFEC00F0040E016EC6
:10555000046A6CC10EF06BC10DF04DEC00F00D0E45
:10556000E7EC00F001016C510001E8AE0BD0010145
:10557000010E756F6B510008706F000E6C55716FE6
:10558000000106D00101756B6CC171F16BC170F146
:10559000010E0101715D00010BE305E1F50E010152
:1055A000705D000105E30101010E716FF40E706F73
:1055B000000171C10AF070C109F00C6A640E0B6E33
:1055C0001EEC01F00101726F71C10AF070C109F0A7
:1055D0000C6A640E0B6E1EEC01F00EC071F10DC072
:1055E00070F171C10AF070C109F00C6A0A0E0B6EFD
:1055F0001EEC01F00101736F71C10AF070C109F076
:105600000C6A0A0E0B6E1EEC01F00DC074F10E0E4A
:10561000F76E8A0EF66EDFEC00F0040E016E0101EB
:1056200075514FEC00F00E0EF76EA40EF66EDFEC27
:1056300000F0010172514FEC00F0200EE7EC00F099
:10564000310EE7EC00F0300EE7EC00F0730EE7EC03
:1056500000F03D0EE7EC00F0010173514FEC00F05B
:105660000E0EF76EAC0EF66EDFEC00F00101745119
:105670004FEC00F00D0EE7EC00F00101766B1AC064
:1056800081F11BC082F11CC083F11DC084F1856BC8
:10569000010E866F0001010E8B6F2FEC0EF06DC1B5
:1056A00043F17BC144F1CCEC26F06DC189F10101DD
:1056B0007C058A6F0001B6EC2EF00101280E876F81
:1056C0000001A0EC2EF06DC189F1090E01017B25CE
:1056D0008A6F0001B6EC2EF00101290E876F0001E0
:1056E000A0EC2EF0010181511A5C056E82511B580D
:1056F000066E83511C58076E84511D58086E000EAB
:10570000085C000122E30BE1000E075C1EE307E1E9
:10571000000E065C1AE303E1FA0E055C16E31AC0FC
:1057200081F11BC082F11CC083F11DC084F1010115
:105730008553000105E10101010E856F000102D0D2
:105740000101856B0101010E866F010E0101865D6D
:105750000001D8A4A1D00101866B6DC189F17CC183
:105760008AF10001B6EC2EF0010E01017653D8A4A7
:10577000000E176E010E855D010ED8A4000E1716DF
:10578000000107E00101200E876F0001A0EC2EF060
:1057900012D0010E0101755D000107E101012D0E1E
:1057A000876F0001A0EC2EF006D001012B0E876F51
:1057B0000001A0EC2EF06DC189F101017C298A6FF6
:1057C0000001B6EC2EF0010E0101765D010ED8A4A9
:1057D000000E176E010E855D010ED8A4000E17167F
:1057E000000107E00101200E876F0001A0EC2EF000
:1057F00007D0300E01017225876F0001A0EC2EF05A
:105800006DC189F1020E01017C258A6F0001B6ECA1
:105810002EF0020E0101765D010ED8A4000E176E67
:10582000010E855D010ED8A4000E1716000107E0D9
:105830000101200E876F0001A0EC2EF007D0300E82
:1058400001017325876F0001A0EC2EF06DC189F175
:10585000030E01017C258A6F0001B6EC2EF0030EC9
:105860000101765D010ED8A4000E176E010E855D54
:10587000010ED8A4000E1716000107E00101200E4A
:10588000876F0001A0EC2EF007D0300E01017425C7
:10589000876F0001A0EC2EF0F29E34C080F133C07F
:1058A0007FF1F28E020E0101805DEE0ED8B47F5DB5
:1058B000000102E2000E01D0010E176E010E81BC44
:1058C000000E171625E0030E8B6F2FEC0EF00E0E58
:1058D000F76EB40EF66EDFEC00F0040E016E046A93
:1058E0007EC10EF07DC10DF04DEC00F00D0EE7EC29
:1058F00000F081BC04D00A0E06EC01F0FAD7640E69
:1059000006EC01F0236A7EC16FF17DC16EF11200D9
:10591000B9EC0EF02252D8B471D1010E8B6F2FEC7E
:105920000EF00101010E866F765300010DE10101B9
:105930007553000105E10101010E756F000102D0F0
:105940000101756B00015AD1010E0101765D000164
:1059500025E1010E225C0DE1050E0101725D0001E1
:1059600004E20101722B000102D00101726B0001FF
:105970000BD001017253000104E001017207000124
:1059800003D00101050E726F050E0101725D000169
:1059900003E10101736B746B000130D1020E010150
:1059A000765D0001D8A4CFD0050E0101725D000123
:1059B00004E30101796B000153D0146A72C113F042
:1059C0001450640DF3CF14F01350640DF3CF13F0A3
:1059D000F4501426166A73C115F016500A0DF3CF51
:1059E00016F015500A0DF3CF15F0F4501626155089
:1059F00013240101776F16501420786F010E785D23
:105A000000012AE305E1EA0E0101775D000124E3CC
:105A1000010E146EF40E136E166A72C115F0165054
:105A2000640DF3CF16F01550640DF3CF15F0F4505C
:105A300016261550135C136E16501458146E14C0AD
:105A40000AF013C009F00C6A0A0E0B6E1EEC01F08E
:105A50000101796F000103D00101090E796F000186
:105A6000010E225C0DE101017951735D000104E238
:105A70000101732B000102D00101736B00010AD0F8
:105A800001017353000104E001017307000102D01A
:105A900079C173F1146A72C113F01450640DF3CF1D
:105AA00014F01350640DF3CF13F0F4501426166A5B
:105AB00073C115F016500A0DF3CF16F015500A0DEC
:105AC000F3CF15F0F4501626155013261650142255
:105AD000010174511324776F000E1420786F010EAA
