:020000040000FA
:1000000000000000CBEF02F0E5EF02F0800E016E81
:10001000FE0EBDD8010EBBD8750E0A6E300EE0D0B4
:10002000016A018E166E1652D8A41606FE0EAFD8BF
:10003000025202E0022C02D0800E0ED00250020AC0
:1000400002E1C00E09D00250030A02E1940E04D06E
:100050000250040A02E1D40E026E1650022497D018
:10006000016A018E166EFE0E92D8165090D0046A68
:100070000F6E106A00960450D8B40086050E036E09
:10008000270E0E6E100E0CD8030E0E6EE80E08D85A
:100090000E6A640E05D80E6A0A0E02D80F5007D0F9
:1000A0000D6E10500A6E0F50096EA4D80950096EDB
:1000B000034E0096045002E0035C07E20950D8A406
:1000C000009600B602D0300F62D01200A66AA68E4B
:1000D0000900F55002E002D8FBD71200146E899E89
:1000E000899C929E929CF00E9216145000B21ED0E3
:1000F0003A0E0A6E980E74D8330E136E29D8130E6A
:100100000A6E880E6DD824D8640E69D821D8640E82
:1001100066D8220E136E1CD8280E07D80C0E05D8F0
:10012000060E03D80082145001D00080136E00A088
:1001300009D0899C03080AE309D8070E0A6ED00E7D
:100140004FD812000080FE0814E0898C133A00A0FA
:100150000090898EF00E801613500F0B8012000055
:1001600000D0899E133A000000D000B0F1D7320EC3
:1001700036D814501200A66AA68E0900F55002E087
:1001800002D8FBD712009EA8FED7AD6E120001BEAA
:10019000A5D701B4F8D7A86EA66AA684550EA76E97
:1001A000AA0EA76EA682A6B2FED7A694A94AAA2A2C
:1001B000A68E1200A96EA66AA680A850A94AAA2AED
:1001C000A68E12000E6A0D6EFF0E0D260E2200D0B6
:1001D000D8A01200030E0A6EE60E02D8F5D70A6AFE
:1001E000FD0F096E01D00906000000D0E86A0A5A26
:1001F000FAE21200106A0F6A100EF36E0A340F361C
:1002000010360D500F5C0E50105805E30D500F5E68
:100210000E50105AD88009360A36F32EEFD70950FF
:1002200012000CC01EF00BC01DF00AC01CF009C06B
:100230001BF01D500F02F3CF0BF0F4CF0CF01C504D
:100240001002F3500B26F4500C221B501102F350F5
:100250000B26F4500C221E500F02F3500C261D509A
:100260001002F3500C261C501102F3500C261B50A8
:100270001202F3500C261B500F02F3CF09F0F4CFFB
:100280000AF01C500F02F3500A26F4500B22000E05
:100290000C221B501002F3500A26F4500B22000EC1
:1002A0000C221200A66AA68E0900F55002E0EE6E3E
:1002B000FBD7120053746172747570206F6B00006D
:1002C000505F42656570732832290000456E6420D6
:1002D00053746172747570004952524953595320D6
:1002E0004D41494E202020202020202000004F504A
:1002F00054494F4E53202020202020202020202011
:10030000202000004D61696E204D656E75005365BB
:10031000747570204D656E7500005574696C697454
:1003200079204D656E7500005554494C495459006B
:10033000505F426565707328000020202020202037
:1003400020202020202020202020202020200000ED
:100350002028535455422920202020202000534596
:1003600054555020202020202020202020202020F4
:1003700020200000496E707574203100496E707540
:1003800074203200496E707574203300494E505508
:1003900054203200494E505554203300494E505598
:1003A0005420312020202020202020202020202008
:1003B0000000456E61626C65202020200000456EC3
:1003C00061626C65640044697361626C656400001D
:1003D00053656E736F722020202000005072657389
:1003E0007375726500005363616C65346D61202024
:1003F00000005363616C6532306D61200000486914
:100400006768204250202020000048696768205417
:10041000425020200000504C5042502020202020EC
:100420000000534C504250202020202000004C6FF0
:1004300077205442502020200000526C79204869D7
:10044000676820200000526C7920504C50202020FA
:100450000000526C7920534C502020200000526C38
:1004600079204C6F772020200000446973706C6104
:10047000792020200000464C4F5720454449540025
:10048000434C4F434B2020202020202020202020A0
:1004900020202020000054696D656F757420202095
:1004A000000050756C736520202020200000202063
:1004B00020202020202020200000454449543A20BC
:1004C0005945532F4E4F2020202020202000205916
:1004D000657320205B4E6F5D20202020202020208F
:1004E000202000005B5965735D20204E6F20202086
:1004F00020202020202020200000454449543A207C
:100500004D4F4445202020202020202020005B4EFD
:100510006F5D202050756C736520204C617463689A
:1005200020202000204E6F20205B50756C73655D8D
:10053000204C6174636820202000204E6F20202012
:1005400050756C7365205B4C617463685D2020009E
:10055000454449543A20574F52442056414C554542
:10056000202020002056616C75653A205B005D20DC
:100570002020202020202000454449543A20445582
:10058000524154494F4E202020202000202020207E
:10059000202020202000006A100EAF6E240EAC6ECA
:1005A000900EAB6E00010F0EC16E070EB46E700E92
:1005B000D36E9B8C0F0EC16EF19EC40ED56E060ECF
:1005C000D66EF294F28AF28EE9D0000117C0E9F1FA
:1005D00018C0EAF1F4CFEBF1F3CFECF1F2A4D5D0EF
:1005E000060ED66EF294212A000E22222322242205
:1005F000322A0A0E325CD8A0BDD0826B81B2822B27
:10060000836B81B4832B846B81BC842B8251335CDC
:1006100010E0362A020E365C0BE382C033F0366AF5
:1006200021C025F022C026F023C027F024C028F0E6
:1006300001D0366A8351345C10E0372A020E375CF1
:100640000BE383C034F0376A21C025F022C026F0C6
:1006500023C027F024C028F001D0376A8451355CCC
:1006600010E0382A020E385C0BE384C035F0386A9B
:1006700021C025F022C026F023C027F024C028F096
:1006800001D0386A3350020DF3CF17F0F4CF18F0D1
:1006900034501724856F3950040DF3CF17F0F4CF81
:1006A00018F085511724866F010E865D09E0070E4C
:1006B000865D06E00E0E865D03E0080E865D02E1B3
:1006C0003A060DD0020E865D09E00B0E865D06E04F
:1006D0000D0E865D03E0040E865D01E13A2A855326
:1006E00025E13ABE0ED0020E3A5C0BE33D4A3E2AAB
:1006F00021C025F022C026F023C027F024C028F016
:1007000014D03A50800A7E0810E33D5202E13E5276
:1007100003E03D06000E3E5A000121C025F022C034
:1007200026F023C027F024C028F03A6A85C039F0AB
:1007300035520DE1FF0E3C5C04E307E1F60E3B5C35
:1007400004E20A0E3B26000E3C22000112D03C526D
:1007500003E1C80E3B5C0AE3010E2A6E21C025F0BE
:1007600022C026F023C027F024C028F000013C6AF4
:100770003B6A326A2B5202E12C5206E082842B063D
:10078000000E2C5A000101D08294E9C117F0EAC191
:1007900018F0EBC1F4FFECC1F3FF110062D82CD8C4
:1007A00013EC06F064D8A0D8306A316A2E6A2D6A3C
:1007B000020E2F6E2082209020942A6A286A276ACF
:1007C000266A256A486A030E505C02E3010E506EE9
:1007D0006CD8020EF76EB40EF66EBBEC00F00D0E88
:1007E000C3EC00F0C80EE2EC00F0486AF8D82FD94C
:1007F00088C041F0FAD7FFD7100E926E460E936E66
:10080000946A896A8A6A8B6A899C899E320EE2ECB4
:1008100000F0809C030E8F6F10DA050EE2EC00F002
:10082000030E8F6F0ADA960EEFEC00F0030E8F6F57
:1008300004DA960EEFEC00F0020E8F6FFED9960EE2
:10084000EFEC00F0280E906FFED9080E906FFBD9E8
:10085000010E906FF8D9060E906FF5D90C0E906FBF
:10086000F2D1100E926E460E936E946A1200336AA5
:1008700081B2332A346A81B4342A356A81BC352A7C
:100880003350020DF3CF17F0F4CF18F03450172483
:10089000396E366A376A386A326A3A6A3E6A3D6A3F
:1008A000406A3F6A3C6A3B6A1200876B060E875DAE
:1008B00012E2020EF76EC00EF66EBBEC00F00D0EEB
:1008C000C3EC00F0020E9F6FDBEC07F0640EE2EC6D
:1008D00000F0872BEBE3020EF76ECC0EF66EBBEC4E
:1008E00000F00D0EC3EF00F078EC08F0010E936FEE
:1008F0002C0E926FCAD995C04AF094C049F0010EEF
:10090000936F2E0E926FC1D995C04CF094C04BF0EE
:10091000010E936F300E926FB8D995C04EF094C00F
:100920004DF0010E9C6FD8D9020E9C6FD5D9030EE5
:100930009C6FD2D9936BC80E926FA7D995C043F024
:1009400094C042F0435203E10A0E425C02E3000EFF
:1009500001D0010E1F6E010E435C000104E305E1AE
:100960002D0E425C02E2000E01D0010E1F120001AA
:100970000BE0436A1E0E426E976BC80E966F43C023
:1009800099F042C098F08CD9936BCA0E926F7DD9C2
:1009900095C045F094C044F0455203E10A0E445C12
:1009A00002E3000E01D0010E1F6E070E455C000130
:1009B00004E305E1D10E445C02E2000E01D0010E19
:1009C0001F1200010BE0456A320E446E976BCA0E8F
:1009D000966F45C099F044C098F062D912002090FB
:1009E00001EE23F0020EF76ED80EF66E52EC01F017
:1009F000EF6A2EEC08F0020EA46F21EC08F0030E53
:100A0000A46F21EC08F0040EA46F21EC08F0208202
:100A1000EDEC08F0EEEC08F0010EAC5D06E1020E24
:100A20009F6FDBEC07F012D010D0020EAC5D06E138
:100A3000030E9F6FDBEC07F009D007D0030EAC5D0F
:100A400004E1030E9F6FDBEC07F0E2D71200040E07
:100A50008B6F896B8A6B2090208220A2A0D0010E20
:100A60009F6FDBEC07F001EE23F0020EF76EEE0E47
:100A7000F66E52EC01F0EF6A2EEC08F0020EA46F55
:100A800021EC08F0030EA46F21EC08F0040EA46F13
:100A900021EC08F0020E895D02E28A6B16D0FF0E8F
:100AA0008B25056E066AFF0E062206520CE10550E4
:100AB000895D09E3030E8B5D04E3030E8B5D8A6F92
:100AC00001D08A6B02D089058A6F020E8D6F050EE8
:100AD0008D5DD8B063D08A518D25176E186A18368F
:100AE000020E175C8E6F8E51895D03E1010E8C6FD3
:100AF00001D08C6B8E5310E18DC0A5F001EE44F057
:100B0000030EF76E040EF66E52EC01F0EF6A8CC025
:100B1000A6F044EC08F03FD0010E8E5D10E18DC0D0
:100B2000A5F001EE44F0030EF76E0E0EF66E52ECD9
:100B300001F0EF6A8CC0A6F044EC08F02CD0020E55
:100B40008E5D10E18DC0A5F001EE44F0030EF76E4E
:100B50001A0EF66E52EC01F0EF6A8CC0A6F044EC6F
:100B600008F019D0030E8E5D12E18DC0A5F001EEE4
:100B700044F0420EEE6E610EEE6E630EEE6E6B0E84
:100B8000EE6EEF6A8CC0A6F044EC08F004D08DC085
:100B9000A4F021EC08F08D2BD8A099D72092C1ECBD
:100BA00008F0295215E0010E295C0EE1FF0E8B259D
:100BB000056E066AFF0E0622065203E10550895DA6
:100BC00002E20001892B03D0895301E089072082CA
:100BD000EDEC08F0EEEC08F0010EAC5D22E1020E47
:100BE0009F6FE9D9895304E1010E886F1BD018D09B
:100BF000010E895D03E12CEC09F012D0020E895D33
:100C00000CE101EE65F0030EF76E280EF66E52EC65
:100C100001F0EF6AF2EC08F003D0010E886F02D009
:100C200020821BD71200A16B050EA06FFAD906EC2B
:100C300000F0A16B020EA06FF4D18FC0B4F02EECC7
:100C40000AF046EF0AF0809C90390F0B916F91C02B
:100C50008FF0F3DF0F0E9015916F91C08FF0EDDFE5
:100C6000010E905D010ED8A4000E1F6E020E905D65
:100C7000010ED8A4000E1F1204E0020EE2EC00F0F8
:100C800003D0320EEFEC00F0120093C0AAFF92C026
:100C9000A9FFDBEC00F0946FDBEC00F0956F120025
:100CA00097C0AAFF96C0A9FFDBEC00F09A6FDBECBF
:100CB00000F09B6F99519B5D03E198519A5D0BE0A9
:100CC00097C0AAFF96C0A9FF00019851CBEC00F095
:100CD0009951CBEC00F012009CC0B5F050EC0AF03A
:100CE000B7C09EF0B6C09DF0010E9C5DD8A475D033
:100CF0009EC0AAFF9DC0A9FFDBEC00F04F6E010E65
:100D00009D25A96E000E9E21AA6EDBEC00F0506EB0
:100D1000020E9D25A96E000E9E21AA6EDBEC00F04E
:100D2000516E040E9D25926F000E9E21936FADDFD4
:100D300095C053F094C052F0060E9D25926F000EA0
:100D40009E21936FA2DF95C055F094C054F0080E19
:100D50009D25926F000E9E21936F97DF95C057F0EF
:100D600094C056F00A0E9D25926F000E9E21936F3F
:100D70008CDF95C059F094C058F00C0E9D25926FF1
:100D8000000E9E21936F81DF95C05BF094C05AF0F6
:100D90000E0E9D25A96E000E9E21AA6EDBEC00F0C2
:100DA0005C6E0F0E9D25A96E000E9E21AA6EDBECD7
:100DB00000F05D6E100E9D25A96E000E9E21AA6E9C
:100DC000DBEC00F05E6E110E9D25A96E000E9E21DB
:100DD000AA6EDBEC00F05F6EEDD0020E9C5DD8A435
:100DE00075D09EC0AAFF9DC0A9FFDBEC00F0606E2D
:100DF000010E9D25A96E000E9E21AA6EDBEC00F06F
:100E0000616E020E9D25A96E000E9E21AA6EDBEC7E
:100E100000F0626E040E9D25926F000E9E21936F6E
:100E200034DF95C064F094C063F0060E9D25926F88
:100E3000000E9E21936F29DF95C066F094C065F087
:100E4000080E9D25926F000E9E21936F1EDF95C0A8
:100E500068F094C067F00A0E9D25926F000E9E21E7
:100E6000936F13DF95C06AF094C069F00C0E9D2556
:100E7000926F000E9E21936F08DF95C06CF094C0B6
:100E80006BF00E0E9D25A96E000E9E21AA6EDBEC66
:100E900000F06D6E0F0E9D25A96E000E9E21AA6EAC
:100EA000DBEC00F06E6E100E9D25A96E000E9E21EB
:100EB000AA6EDBEC00F06F6E110E9D25A96E000E80
:100EC0009E21AA6EDBEC00F0706E74D09EC0AAFF6B
:100ED0009DC0A9FFDBEC00F0716E010E9D25A96E8F
:100EE000000E9E21AA6EDBEC00F0726E020E9D25B4
:100EF000A96E000E9E21AA6EDBEC00F0736E040E4C
:100F00009D25926F000E9E21936FBFDE95C075F0F8
:100F100094C074F0060E9D25926F000E9E21936F73
:100F2000B4DE95C077F094C076F0080E9D25926FE0
:100F3000000E9E21936FA9DE95C079F094C078F0E1
:100F40000A0E9D25926F000E9E21936F9EDE95C026
:100F50007BF094C07AF00C0E9D25926F000E9E21BE
:100F6000936F93DE95C07DF094C07CF00E0E9D25AE
:100F7000A96E000E9E21AA6EDBEC00F07E6E0F0EB5
:100F80009D25A96E000E9E21AA6EDBEC00F07F6EFF
:100F9000100E9D25A96E000E9E21AA6EDBEC00F0BE
:100FA000806F110E9D25A96E000E9E21AA6EDBECAE
:100FB00000F0816F1200030EF76E300EF66EBBEC80
:100FC00000F0040E016E030E046E9F5138EC00F029
:100FD000290EC3EC00F00D0EC3EC00F09F5304E1AA
:100FE0002C6A0A0E2B6E1CD0010E9F5D04E12C6A48
:100FF000140E2B6E15D0020E9F5D04E12C6A320E8A
:101000002B6E0ED0030E9F5D04E12C6AC80E2B6E72
:1010100007D0040E9F5D04E1030E2C6EE80E2B6ECC
:101020001200A36B010EA26FA251A05DA351A159A2
:1010300007E3010EE2EC00F0A22B000EA323F4E381
:101040001200800E016EA4C002F0010E12EC00F03E
:10105000030EF76E3A0EF66E66EF00F0800E016E2C
:1010600030EC00F0030EF76E3A0EF66E66EC00F010
:10107000800E016E30EC00F001EE23F0EE5003E044
:101080006EEC00F0FBD71200800E016EA5C002F0DE
:10109000010E12EC00F0030EF76E3A0EF66E66ECDF
:1010A00000F0010EA65D15E1800E016EA5C002F0F4
:1010B000010E12EC00F05B0E6EEC00F001EE44F05D
:1010C000EE5003E06EEC00F0FBD75D0E6EEC00F02E
:1010D0000ED0800E016EA5C002F0020E12EC00F0E0
:1010E00001EE44F0EE5003E06EEC00F0FBD712008E
:1010F000AA6AA96ADBEC00F0A76F010EA75D40E0C9
:10110000B86B010EB96FBA6BBB6BBC6B020EBD6FD7
:10111000D9D9BFC0A9F0BEC0A8F0010E976F2C0EA0
:10112000966FA9C099F0A8C098F050EC06F0010E97
:10113000976F2E0E966FA9C099F0A8C098F050EC4A
:1011400006F0010E976F300E966FA9C099F0A8C0F7
:1011500098F050EC06F0976BC80E966F996B1E0EC8
:10116000986F50EC06F0976BCA0E966F996B320E23
:10117000986F50EC06F0AA6AA96A010ECBEC00F059
:101180001200F29E3EC0ABF03DC0AAF0F28EAA5112
:101190003F5CAB5140580BE2010E296E21C025F097
:1011A00022C026F023C027F024C028F011D03F50E1
:1011B000AA5D4050AB590BE2FF0E296E21C025F00D
:1011C00022C026F023C027F024C028F001D0296ACD
:1011D000ABC040F0AAC03FF0120012002AC0ACF031
:1011E0002A6A1200209001EE23F011EE65F0200E25
:1011F000E75204E0E6CFEEFFE82EFAD7030EF76ED3
:10120000500EF66E52EC01F0EF6A28DF020EA46F6A
:1012100018DF030EA46F15DF040EA46F12DFDDDFED
:10122000DDDF010EAC5D05E1020E9F6FC4DE13D061
:1012300011D0020EAC5D05E1030E9F6FBCDE0BD03A
:1012400009D0030EAC5D06E1030E9F6FB4DE020E03
:10125000486E01D0E4D71200050EB06FAE6BAF6BD5
:101260002090208220A2ADD0010E9F6FA4DE01EE5F
:1012700023F0030EF76E5E0EF66E52EC01F0EF6A8D
:10128000EDDE020EA46FDDDE030EA46FDADE040EC7
:10129000A46FD7DE020EAE5D02E2AF6B16D0FF0E7A
:1012A000B025056E066AFF0E062206520CE10550B7
:1012B000AE5D09E3030EB05D04E3030EB05DAF6FF6
:1012C00001D0AF6B02D0AE05AF6F020EB26F050E4C
:1012D000B25DD8B075D0FE0EB225176E186AFF0E3B
:1012E0001822AF511724B36FB351AE5D03E1010E65
:1012F000B16F01D0B16BB3530FE1B2C0A5F001EEF5
:1013000044F0030EF76E740EF66E52EC01F0EF6AC5
:10131000B1C0A6F0B9DE51D0010EB35D0FE1B2C08D
:10132000A5F001EE44F0030EF76E7C0EF66E52EC63
:1013300001F0EF6AB1C0A6F0A7DE3FD0020EB35DA8
:101340000FE1B2C0A5F001EE44F0030EF76E840E7B
:10135000F66E52EC01F0EF6AB1C0A6F095DE2DD02A
:10136000030EB35D13E1B2C0A5F001EE44F0430EED
:10137000EE6E6C0EEE6E6F0EEE6E630EEE6E6B0E1C
:10138000EE6EEF6AB1C0A6F07FDE17D0040EB35D3B
:1013900011E1B2C0A5F001EE44F0420EEE6E610E16
:1013A000EE6E630EEE6E6B0EEE6EEF6AB1C0A6F0DF
:1013B0006BDE03D0B2C0A4F044DEB22BD8A087D736
:1013C0002092DFDE295215E0010E295C0EE1FF0EAE
:1013D000B025056E066AFF0E0622065203E105508F
:1013E000AE5D02E20001AE2B03D0AE5301E0AE07CA
:1013F0002082F3DEF3DE010EAC5D2EE1020E9F6F64
:10140000DBEC07F0AE5302E1B7D825D0010EAE5D9C
:101410000BE101EE65F0030EF76E8C0EF66E52ECEA
:1014200001F0EF6ADFDE17D0020EAE5D0BE101EED8
:1014300065F0030EF76E940EF66E52EC01F0EF6A53
:10144000D1DE09D0030EAE5D03E1AEEC10F003D0A7
:10145000010EAD6F02D0208205D71200B43102E335
:10146000898001D08990B451E8A202D0898201D04C
:101470008992B451E8A402D0898401D08994B451EE
:10148000E8A602D0898601D089961200898E020EC4
:10149000E82EFED700000000899E280EEFEF00F036
:1014A000010EB55D04E1B76B0A0EB66F0AD0020EED
:1014B000B55D04E1B76B1C0EB66F03D0B76B2E0E93
:1014C000B66F1200C16BC06B040EB85D02E3030E71
:1014D000B86F020EB95D02E3010EB96F040EBA5D7A
:1014E00002E3030EBA6F040EBB5D02E3030EBB6F93
:1014F000040EBC5D02E3030EBC6F040EBD5D02E38F
:10150000030EBD6FB851C027000EC123B951040DA1
:10151000F3CF17F0F4CF18F01750C0271850C1239D
:10152000BA51080DF3CF17F0F4CF18F01750C027B9
:101530001850C123BB51200DF3CF17F0F4CF18F092
:101540001750C0271850C123BC51800DF3CF17F09E
:10155000F4CF18F01750C0271850C123BDC018F0A1
:10156000176AD89018361750C0271850C123C1C029
:10157000BFF0C0C0BEF01200C36BC46BCA6BCB69B6
:101580002082010E505C03E10C0EC56F08D0020EE4
:10159000505C03E10A0EC56F02D0030EC56FC5058E
:1015A000C96F20A2F9EF0EF0010ECA5D04E19F6B36
:1015B000DBEC07F004D0010E9F6FDBEC07F001EECF
:1015C00023F0030EF76E9C0EF66E52EC01F0EF6AFC
:1015D0002EEC08F0020EA46F21EC08F0030EA46FAD
:1015E00021EC08F0040EA46F21EC08F0020EC35D9C
:1015F00002E2C46B16D0FF0EC525056E066AFF0E0B
:10160000062206520CE10550C35D09E3030EC55DD9
:1016100004E3030EC55DC46F01D0C46B02D0C305E3
:10162000C46F020EC76F050EC75DD8B0F8EF0EF09D
:10163000C451C725176E186A1836020E175CC86F9A
:10164000C851C95DD8A0F0EF0EF0C851C35D03E1E9
:10165000010EC66F01D0C66B010E505CD8A442D0FB
:10166000C85302E1CE6B3DD0010EC85D03E1010E0F
:10167000CE6F37D0020EC85D03E1020ECE6F31D0BF
:10168000030EC85D03E1030ECE6F2BD0040EC85DC0
:1016900003E1040ECE6F25D0050EC85D03E1050EF3
:1016A000CE6F1FD0060EC85D03E1060ECE6F19D0B7
:1016B000070EC85D03E1070ECE6F13D0080EC85D9C
:1016C00003E1080ECE6F0DD0090EC85D03E1090ECF
:1016D000CE6F07D00A0EC85D03E10A0ECE6F01D0AF
:1016E000CE6944D0020E505C36E1C85302E1CE6BA5
:1016F00031D0010EC85D03E1010ECE6F2BD0020E7A
:10170000C85D03E1020ECE6F25D0030EC85D03E174
:10171000030ECE6F1FD0040EC85D03E1040ECE6F22
:1017200019D0050EC85D03E1060ECE6F13D0060E6C
:10173000C85D03E1070ECE6F0DD0070EC85D03E153
:10174000090ECE6F07D0080EC85D03E10A0ECE6FFA
:1017500001D0CE690BD0C85302E1CE6B07D0010E89
:10176000C85D03E1010ECE6F01D0CE69CE2913E131
:10177000C7C0DDF001EE86F0420EEE6E610EEE6E39
:10178000630EEE6E6B0EEE6EEF6AC6C0DEF0FCEC22
:1017900011F0EFEF0EF0CE53D8A472D0800E016E90
:1017A000C7C002F0010E12EC00F0030EF76EB20E8D
:1017B000F66E66EC00F0010ECA5D010ED8A4000EB4
:1017C0001F6E010ECB53D8A4000E1F16010EC65D6E
:1017D000010ED8A4000E1F1629E0010ECC5D13E106
:1017E000C7C0E6F00B0EE76F01EEA7F0030EF76E31
:1017F000BE0EF66E52EC01F0EF6A010EE86FE96F73
:1018000072EC12F012D0C7C0E6F00B0EE76F01EEDB
:10181000A7F0030EF76EC60EF66E52EC01F0EF6AFB
:10182000010EE86FE96F72EC12F028D0010E4F5CE8
:1018300013E1C7C0E6F00B0EE76F01EEA7F0030E51
:10184000F76EBE0EF66E52EC01F0EF6AC6C0E8F01D
:10185000E96B72EC12F012D0C7C0E6F00B0EE76F26
:1018600001EEA7F0030EF76EC60EF66E52EC01F015
:10187000EF6AC6C0E8F0E96B72EC12F0EFEF0EF021
:10188000010ECE5DD8A4A7D0800E016EC7C002F0B5
:10189000010E12EC00F0030EF76ED00EF66E66EC41
:1018A00000F0010ECA5D010ED8A4000E1F6E010EDD
:1018B000CB5D010ED8A4000E1F16010EC65D010EF1
:1018C000D8A4000E1F16D8B443D0010ECD5D13E18D
:1018D000C7C0E6F00B0EE76F01EEA7F0030EF76E40
:1018E000DC0EF66E52EC01F0EF6A010EE86FE96F64
:1018F00072EC12F02CD0020ECD5D15E1C7C0E6F0FF
:101900000B0EE76F01EEA7F0540EEE6E650EEE6E55
:101910006D0EEE6E700EEE6EEF6A010EE86FE96FFF
:1019200072EC12F014D0C7C0E6F00B0EE76F01EEB8
:10193000A7F0460EEE6E6C0EEE6E6F0EEE6E770E2C
:10194000EE6EEF6A010EE86FE96F72EC12F042D0B2
:10195000010E505C13E1C7C0E6F00B0EE76F01EE1D
:10196000A7F0030EF76EDC0EF66E52EC01F0EF6A94
:10197000C6C0E8F0E96B72EC12F02CD0020E505C9D
:1019800015E1C7C0E6F00B0EE76F01EEA7F0540EAD
:10199000EE6E650EEE6E6D0EEE6E700EEE6EEF6A12
:1019A000C6C0E8F0E96B72EC12F014D0C7C0E6F0E4
:1019B0000B0EE76F01EEA7F0460EEE6E6C0EEE6EAC
:1019C0006F0EEE6E770EEE6EEF6AC6C0E8F0E96B52
:1019D00072EC12F004D2020ECE5D1AE1800E016E9E
:1019E000C7C002F0010E12EC00F0030EF76EE60E17
:1019F000F66E66EC00F0C7C0ECF00B0EED6F53C056
:101A0000EFF052C0EEF0C6C0F0F0D4EC12F0E7D127
:101A1000030ECE5D1AE1800E016EC7C002F0010E0A
:101A200012EC00F0030EF76EF20EF66E66EC00F0AC
:101A3000C7C0ECF00B0EED6F55C0EFF054C0EEF0E8
:101A4000C6C0F0F0D4EC12F0CAD1040ECE5D2BE18A
:101A5000010E505C0EE1800E016EC7C002F0010E57
:101A600012EC00F0030EF76EFE0EF66E66EC00F060
:101A70000DD0800E016EC7C002F0010E12EC00F016
:101A8000040EF76E0A0EF66E66EC00F0C7C0F2F0B8
:101A90000B0EF36F57C0F5F056C0F4F0C6C0F6F069
:101AA00010EC13F09CD1050ECE5D1AE1800E016E94
:101AB000C7C002F0010E12EC00F0040EF76E160E15
:101AC000F66E66EC00F0C7C0F2F00B0EF36F59C073
:101AD000F5F058C0F4F0C6C0F6F010EC13F07FD16A
:101AE000060ECE5D2BE1010E505C0EE1800E016E04
:101AF000C7C002F0010E12EC00F0040EF76E220EC9
:101B0000F66E66EC00F00DD0800E016EC7C002F0DC
:101B1000010E12EC00F0040EF76E2E0EF66E66EC5F
:101B200000F0C7C0F2F00B0EF36F5BC0F5F05AC0C7
:101B3000F4F0C6C0F6F010EC13F051D1070ECE5DF4
:101B4000D8A454D0800E016EC7C002F0010E12EC72
:101B500000F0040EF76E3A0EF66E66EC00F05C5282
:101B600012E1C7C0F8F00B0EF96F01EEC8F04E0E8F
:101B7000EE6E6F0EEE6EEF6AC6C0FAF0010EFB6FEE
:101B800047EC13F032D0010E5C5C18E1C7C0F8F0EE
:101B90000B0EF96F01EEC8F0500EEE6E750EEE6E84
:101BA0006C0EEE6E730EEE6E650EEE6EEF6AC6C0D4
:101BB000FAF0010EFB6F47EC13F017D0C7C0F8F036
:101BC0000B0EF96F01EEC8F04C0EEE6E610EEE6E6C
:101BD000740EEE6E630EEE6E680EEE6EEF6AC6C0A9
:101BE000FAF0010EFB6F47EC13F0F9D0080ECE5D52
:101BF000D8A454D0800E016EC7C002F0010E12ECC2
:101C000000F0040EF76E460EF66E66EC00F05D52C4
:101C100012E1C7C0F8F00B0EF96F01EEC8F04E0EDE
:101C2000EE6E6F0EEE6EEF6AC6C0FAF0010EFB6F3D
:101C300047EC13F032D0010E5D5C18E1C7C0F8F03C
:101C40000B0EF96F01EEC8F0500EEE6E750EEE6ED3
:101C50006C0EEE6E730EEE6E650EEE6EEF6AC6C023
:101C6000FAF0010EFB6F47EC13F017D0C7C0F8F085
:101C70000B0EF96F01EEC8F04C0EEE6E610EEE6EBB
:101C8000740EEE6E630EEE6E680EEE6EEF6AC6C0F8
:101C9000FAF0010EFB6F47EC13F0A1D0090ECE5DF8
:101CA000D8A465D0010E505C0EE1800E016EC7C055
:101CB00002F0010E12EC00F0040EF76E520EF66EFA
:101CC00066EC00F00DD0800E016EC7C002F0010E70
:101CD00012EC00F0040EF76E5E0EF66E66EC00F08D
:101CE0005E5212E1C7C0F8F00B0EF96F01EEC8F0BA
:101CF0004E0EEE6E6F0EEE6EEF6AC6C0FAF0010E7B
:101D0000FB6F47EC13F032D0010E5E5C18E1C7C0E8
:101D1000F8F00B0EF96F01EEC8F0500EEE6E750E76
:101D2000EE6E6C0EEE6E730EEE6E650EEE6EEF6A7C
:101D3000C6C0FAF0010EFB6F47EC13F017D0C7C016
:101D4000F8F00B0EF96F01EEC8F04C0EEE6E610E5E
:101D5000EE6E740EEE6E630EEE6E680EEE6EEF6A51
:101D6000C6C0FAF0010EFB6F47EC13F038D00A0E34
:101D7000CE5D35E1800E016EC7C002F0010E12EC9F
:101D800000F0040EF76E6A0EF66E66EC00F0010EBF
:101D90005F5C14E1C7C0F8F00B0EF96F01EEC8F0FC
:101DA000590EEE6E650EEE6E730EEE6EEF6AC6C0E5
:101DB000FAF0010EFB6F47EC13F011D0C7C0F8F03A
:101DC0000B0EF96F01EEC8F04E0EEE6E6F0EEE6E5A
:101DD000EF6AC6C0FAF0010EFB6F47EC13F004D0B7
:101DE000C7C0A4F021EC08F0C72BD8A013EF0BF06C
:101DF0002092C1EC08F0010ECA5DD8A443D0010EB8
:101E0000CB53D8A4000E1F6E010EC353D8A4000EEE
:101E10001F1609E0295207E0CC5303E1010ECC6FF5
:101E200001D0CC6B2082010ECB5D010ED8A4000E38
:101E30001F6E010EC35D010ED8A4000E1F1621E017
:101E4000010E295C0FE1010ECD5D03E1020ECD6FA5
:101E500007D0020ECD5D02E1CD6B02D0010ECD6F39
:101E600020820FD029280DE1010ECD5D02E1CD6B5E
:101E700007D0CD5303E1020ECD6F02D0010ECD6F1E
:101E800020820ED029520CE0010E295C05E1C951D7
:101E9000C35D01E2C32B03D0C35301E0C30720821B
:101EA000EDEC08F0EEEC08F0010EAC5DD8A453D1D7
:101EB000010ECA5D1DE1CB5305E1CCC04FF06BECC8
:101EC00013F007D0010ECB5D04E1CDC050F06BECF8
:101ED00013F0010E9F6FDBEC07F03C0EE2EC00F01C
:101EE000010E9F6FDBEC07F0CA6BCB69208233D108
:101EF000010E505CD8A442D0C35302E1CE6B3DD05A
:101F0000010EC35D03E1010ECE6F37D0020EC35D3B
:101F100003E1020ECE6F31D0030EC35D03E1030E69
:101F2000CE6F2BD0040EC35D03E1040ECE6F25D01F
:101F3000050EC35D03E1050ECE6F1FD0060EC35D17
:101F400003E1060ECE6F19D0070EC35D03E1070E45
:101F5000CE6F13D0080EC35D03E1080ECE6F0DD017
:101F6000090EC35D03E1090ECE6F07D00A0EC35DF3
:101F700003E10A0ECE6F01D0CE6944D0020E505C50
:101F800036E1C35302E1CE6B31D0010EC35D03E1F4
:101F9000010ECE6F2BD0020EC35D03E1020ECE6F99
:101FA00025D0030EC35D03E1030ECE6F1FD0040ED8
:101FB000C35D03E1040ECE6F19D0050EC35D03E1CE
:101FC000060ECE6F13D0060EC35D03E1070ECE6F73
:101FD0000DD0070EC35D03E1090ECE6F07D0080ECA
:101FE000C35D03E10A0ECE6F01D0CE690BD0C3539F
:101FF00002E1CE6B07D0010EC35D03E1010ECE6F8F
:1020000001D0CE69CE5312E1010E9F6FDBEC07F0D9
:102010003C0EE2EC00F0010E9F6FDBEC07F0010ECE
:10202000CA6FCB6B4FC0CCF0208295D0010ECE5D35
:1020300012E1010E9F6FDBEC07F03C0EE2EC00F0CA
:10204000010E9F6FDBEC07F0010ECA6FCB6F50C023
:10205000CDF0208280D0CE2908E1020E9F6FDBEC0C
:1020600007F0010EC26F79D076D0010E505C0AE104
:10207000020E9F6FDBEC07F0CEC0FDF074EC13F0A6
:10208000208269D0020E505CD8A455D0020ECE5DDD
:1020900009E1020E9F6FDBEC07F0020EFD6F74EC9E
:1020A00013F047D0030ECE5D09E1020E9F6FDBEC0B
:1020B00007F0030EFD6F74EC13F03BD0040ECE5D01
:1020C00009E1020E9F6FDBEC07F0040EFD6F74EC6C
:1020D00013F02FD0060ECE5D09E1020E9F6FDBECF0
:1020E00007F0060EFD6F74EC13F023D0070ECE5DE3
:1020F00009E1020E9F6FDBEC07F0070EFD6F74EC39
:1021000013F017D0090ECE5D09E1020E9F6FDBECD4
:1021100007F0090EFD6F74EC13F00BD00A0ECE5DC4
:1021200008E1020E9F6FDBEC07F00A0EFD6F74EC06
:1021300013F0208210D0020E9F6FDBEC07F001EE4F
:1021400065F0040EF76E760EF66E52EC01F0EF6A53
:10215000F2EC08F02082C1EF0AF01200030ED16FFA
:10216000D06BD36BD469208220A277D001EE23F00C
:10217000040EF76E800EF66E52EC01F0EF6A2EEC54
:1021800008F0020EA46F21EC08F0030EA46F21ECFE
:1021900008F0040EA46F21EC08F0D05303E1010E07
:1021A000D26F01D0D26B800E016EC00E30EC00F009
:1021B000040EF76E960EF66E66EC00F0020EF26FED
:1021C0000B0EF36F43C0F5F042C0F4F0D2C0F6F04E
:1021D00010EC13F0010ED05D03E1010ED26F01D0BF
:1021E000D26B800E016E940E30EC00F0040EF76E90
:1021F000A20EF66E66EC00F0030EEC6F0B0EED6FA8
:1022000045C0EFF044C0EEF0D2C0F0F0CDD9020EE0
:10221000D05D12E1040EA56F01EE44F0420EEE6EA9
:10222000610EEE6E630EEE6E6B0EEE6EEF6A010ED9
:10223000A66F44EC08F010D0040EA56F01EE44F038
:10224000420EEE6E610EEE6E630EEE6E6B0EEE6E75
:10225000EF6AA66B44EC08F02092C1EC08F029521A
:10226000D8B44BD0D35317E1010E295C0FE1FF0E18
:10227000D125056E066AFF0E0622065203E10550BF
:10228000D05D03E20001D02B208204D0D05302E0C5
:10229000D007208232D0D45317E1010E295C09E126
:1022A000010E435C2C0ED8B4425C02E2424A432A3F
:1022B00009D0435203E10B0E425C03E34206000ED9
:1022C000435A0001208219D0010ED45D16E1010E9F
:1022D000295C09E1070E455CD00ED8B4445C02E2EB
:1022E000444A452A09D0455203E10B0E445C03E3FE
:1022F0004406000E455A00012082EDEC08F0EEEC99
:1023000008F0010EAC5D39E1020E9F6FDBEC07F0C7
:10231000D35317E1020ED05D04E1010ECF6F46D01A
:102320000FD0010ED36FD0C0D4F0D05305E143C01D
:10233000D6F042C0D5F004D045C0D6F044C0D5F0A8
:102340001CD0D4530CE1D86B420ED76FDA6B0A0E57
:10235000D96F010EDC6F2C0EDB6F3BD80BD0D86B26
:10236000440ED76FDA6B0A0ED96F070EDC6FD00EF2
:10237000DB6F2FD81CD8D36BD4697BD8E15315E021
:10238000010ED35D0FE1D45305E1D6C043F0D5C0B3
:1023900042F004D0D6C045F0D5C044F0D36BD46928
:1023A000208203D0010ECF6F01D0DED61200976BD2
:1023B000C80E966F43C099F042C098F050EC06F0FA
:1023C000976BCA0E966F45C099F044C098F050EFD5
:1023D00006F0D951D75DDA51D85904E2DAC0D8F005
:1023E000D9C0D7F0D751DB5DD851DC5904E2DCC04D
:1023F000D8F0DBC0D7F01200DDC0A4F021EC08F06B
:1024000001EE86F0000EEE5202E0E83EFCD7DF6FF0
:10241000140EDF5D02E3130EDF6FDF511408E06F6F
:10242000800E016EDDC002F0E05112EC00F001EE12
:1024300086F0EE5003E06EEC00F0FBD7010EDE5D9F
:1024400017E1020EE05D0AE3800E016EDDC002F0CE
:10245000E00512EC00F05B0E6EEC00F0800E016EF9
:10246000DDC002F0140E12EC00F05D0E6EEC00F018
:10247000120042C009F043C00AF00B6A0C6A126AEB
:10248000116A030E106EE80E0F6E11EC01F009C018
:10249000E2F00AC0E3F00BC0E4F00CC0E5F0255018
:1024A000215C056E26502258066E27502358076E71
:1024B00028502458086EE251055CE3510658E45157
:1024C0000758E55108580CE320B407D02084040EC7
:1024D0009F6FDBEC07F0020E486E010EE16F01D03A
:1024E000E16B120001EEA7F0000EEE5202E0E83EB2
:1024F000FCD7EA6F090EEA5D02E3080EEA6F186A7C
:10250000E7C017F0174A182A1A6A080E196EEA511E
:10251000195E000E1A5A17501924EB6FE6C00AF123
:10252000E7C00BF127EC16F0010EE85D2EE1010E7D
:10253000E95D16E1800E016EE6C002F0EB0512ECDB
:1025400000F0280E6EEC00F0800E016EE6C002F086
:10255000090EE72512EC00F0290E6EEC00F015D004
:10256000800E016EE6C002F0EB0512EC00F05B0E8F
:102570006EEC00F0800E016EE6C002F0090EE72559
:1025800012EC00F05D0E6EEC00F0800E016EE6C005
:1025900002F0EB5112EC00F001EEA7F0EE5003E078
:1025A0006EEC00F0FBD71200186AEDC017F0174A66
:1025B000182A1A6A080E196E050E195E000E1A5AAC
:1025C00017501924F16FECC00AF1EDC00BF127ECA4
:1025D00016F0010EF05D15E1800E016EECC002F008
:1025E000F10512EC00F05B0E6EEC00F0800E016E57
:1025F000ECC002F0090EED2512EC00F05D0E6EEC61
:1026000000F0800E016EECC002F0F15112EC00F00F
:10261000050E046EEFC010F0EEC00FF03AEF00F0C0
:10262000186AF3C017F0174A182A1A6A080E196EAA
:10263000050E195E000E1A5A17501924F76FF2C0D2
:102640000AF1F3C00BF127EC16F0010EF65D15E16F
:10265000800E016EF2C002F0F70512EC00F05B0E86
:102660006EEC00F0800E016EF2C002F0090EF32550
:1026700012EC00F05D0E6EEC00F0F2C002F1F7C05B
:1026800003F1F5C005F1F4C004F1E7EF15F0FC6BC0
:10269000010EFA5D010ED8A4000E1F6E010EFB5D47
:1026A000010ED8A4000E1F1602E0010EFC6FF8C048
:1026B000E6F0F9C0E7F001EEA7F011EEC8F0200E49
:1026C000E75204E0E6CFEEFFE82EFAD7EF6AFCC04F
:1026D000E8F0E96B07D7010EFF6FA9D8020EFF6F74
:1026E000A6D8030EFF6FA3D0FE6BFD5309E10101D5
:1026F0004F0E0C6F000137EC16F00DC1FEF092D0BA
:10270000010EFD5D09E10101500E0F6F00019AEC11
:1027100016F010C1FEF086D0020EFD5D11E1010140
:10272000136B520E126F156B146B17691669196BC8
:10273000010E186F000119EC17F01AC1FEF072D0EB
:10274000030EFD5D11E10101136B540E126F156B49
:10275000146B17691669196B010E186F000119ECDB
:1027600017F01AC1FEF05ED0040EFD5D0DE1010E02
:10277000505C09E101011E6B560E1D6F0001B0ECAB
:1027800017F01FC1FEF04ED0050EFD5D0DE1010EEC
:10279000505C09E101011E6B580E1D6F0001B0EC89
:1027A00017F01FC1FEF03ED0060EFD5D0DE1010EDB
:1027B000505C09E101011E6B5A0E1D6F0001B0EC67
:1027C00017F01FC1FEF02ED0070EFD5D09E10101DB
:1027D0005C0E0F6F00019AEC16F010C1FEF022D0D3
:1027E000080EFD5D09E101015D0E0F6F00019AEC1D
:1027F00016F010C1FEF016D0090EFD5D09E10101D1
:102800005E0E0F6F00019AEC16F010C1FEF00AD0B8
:102810000A0EFD5D07E101015F0E0C6F000127DA72
:102820000DC1FEF0010EFE5D01E155DF1200FFC09B
:10283000B5F050EC0AF0B7C001F1B6C000F1010EDE
:10284000FF5DD8A495D001C1AAFF00C1A9FF4F50D8
:10285000CBEC00F0010E01010025A96E000E012154
:10286000AA6E5050CBEC00F0020E01010025A96EBB
:10287000000E0121AA6E5150CBEC00F0040E0101B4
:1028800000250001966F000E010101210001976FE4
:1028900053C099F052C098F050EC06F0060E0101BA
:1028A00000250001966F000E010101210001976FC4
:1028B00055C099F054C098F050EC06F0080E010194
:1028C00000250001966F000E010101210001976FA4
:1028D00057C099F056C098F050EC06F00A0E01016E
:1028E00000250001966F000E010101210001976F84
:1028F00059C099F058C098F050EC06F00C0E010148
:1029000000250001966F000E010101210001976F63
:102910005BC099F05AC098F050EC06F00E0E010121
:102920000025A96E000E0121AA6E5C50CBEC00F0D0
:102930000F0E01010025A96E000E0121AA6E5D5047
:10294000CBEC00F0100E01010025A96E000E012154
:10295000AA6E5E50CBEC00F0110E01010025A96EAD
:10296000000E0121AA6E5F50CBEC00F000012ED1C9
:10297000020EFF5DD8A495D001C1AAFF00C1A9FF36
:102980006050CBEC00F0010E01010025A96E000E95
:102990000121AA6E6150CBEC00F0020E010100256E
:1029A000A96E000E0121AA6E6250CBEC00F0040E5D
:1029B000010100250001966F000E010101210001B7
:1029C000976F64C099F063C098F050EC06F0060E63
:1029D000010100250001966F000E01010121000197
:1029E000976F66C099F065C098F050EC06F0080E3D
:1029F000010100250001966F000E01010121000177
:102A0000976F68C099F067C098F050EC06F00A0E16
:102A1000010100250001966F000E01010121000156
:102A2000976F6AC099F069C098F050EC06F00C0EF0
:102A3000010100250001966F000E01010121000136
:102A4000976F6CC099F06BC098F050EC06F00E0ECA
:102A500001010025A96E000E0121AA6E6D50CBEC7C
:102A600000F00F0E01010025A96E000E0121AA6ED3
:102A70006E50CBEC00F0100E01010025A96E000E87
:102A80000121AA6E6F50CBEC00F0110E0101002560
:102A9000A96E000E0121AA6E7050CBEC00F000016F
:102AA00095D001C1AAFF00C1A9FF7150CBEC00F085
:102AB000010E01010025A96E000E0121AA6E7250BF
:102AC000CBEC00F0020E01010025A96E000E0121E1
:102AD000AA6E7350CBEC00F0040E0101002500013A
:102AE000966F000E010101210001976F75C099F0EA
:102AF00074C098F050EC06F0060E010100250001AC
:102B0000966F000E010101210001976F77C099F0C7
:102B100076C098F050EC06F0080E01010025000187
:102B2000966F000E010101210001976F79C099F0A5
:102B300078C098F050EC06F00A0E01010025000163
:102B4000966F000E010101210001976F7BC099F083
:102B50007AC098F050EC06F00C0E0101002500013F
:102B6000966F000E010101210001976F7DC099F061
:102B70007CC098F050EC06F00E0E01010025A96E05
:102B8000000E0121AA6E7E50CBEC00F00F0E010169
:102B90000025A96E000E0121AA6E7F50CBEC00F03B
:102BA000100E01010025A96E000E0121AA6E000180
:102BB0008051CBEC00F0110E01010025A96E000E32
:102BC0000121AA6E00018151CBEC00F0120005C179
:102BD0000AF004C109F00E6A3C0E0D6EFAEC00F02A
:102BE0000101066F0AC007F105C10AF004C109F02E
:102BF0000E6A3C0E0D6EFAEC00F010C009F10FC029
:102C000008F1800E016E02C102F00101035112ECC5
:102C100000F0020E046E07C110F006C10FF03AEC8E
:102C200000F03A0E6EEC00F0800E016E02C102F070
:102C3000030E0101032512EC00F0020E046E09C11F
:102C400010F008C10FF03AEC00F000011200800E05
:102C5000016E0AC102F001010B5112EC00F0040EEA
:102C6000F76EAE0EF66E66EC00F0000112000CC1BD
:102C70000EF1208220A238D0010E9F6FDBEC07F00E
:102C800001EE23F0040EF76EBA0EF66E52EC01F070
:102C9000EF6A2EEC08F0020EA46F21EC08F0030E90
:102CA000A46F21EC08F0040EA46F21EC08F0010ED3
:102CB00001010E5D00010CE1800E016E940E30ECFE
:102CC00000F0040EF76ECE0EF66E66EC00F00BD040
:102CD000800E016E940E30EC00F0040EF76EE40EE0
:102CE000F66E66EC00F02092C1EC08F029520EE07E
:102CF000010E01010E5D000104E101010E6B0001F6
:102D000003D00101010E0E6F00012082EDEC08F0EE
:102D1000EEEC08F0010EAC5D0BE1020E9F6FDBECF8
:102D200007F00EC10CF10101010E0D6F000101D081
:102D3000A1D712000FC111F1208220A24DD0010EA7
:102D40009F6FDBEC07F001EE23F0040EF76EFA0E36
:102D5000F66E52EC01F0EF6A2EEC08F0020EA46F52
:102D600021EC08F0030EA46F21EC08F0040EA46F10
:102D700021EC08F00101115300010CE1800E016EFD
:102D8000940E30EC00F0050EF76E0E0EF66E66EC4B
:102D900000F021D0010E0101115D00010CE1800E57
:102DA000016E940E30EC00F0050EF76E240EF66EF8
:102DB00066EC00F010D0020E0101115D00010BE184
:102DC000800E016E940E30EC00F0050EF76E3A0E98
:102DD000F66E66EC00F02092C1EC08F0010E295C62
:102DE0000AE1020E0101115D000102E20101112B55
:102DF000000120820AD0292808E1010111530001B5
:102E000002E00101110700012082EDEC08F0EEEC78
:102E100008F0010EAC5D0BE1020E9F6FDBEC07F0DA
:102E200011C10FF10101010E106F000101D085D712
:102E3000120013C11CF112C11BF1208220A235D057
:102E4000010E9F6FDBEC07F001EE23F0050EF76E2D
:102E5000500EF66E52EC01F0EF6A2EEC08F0020E06
:102E6000A46F21EC08F0030EA46F21EC08F0040E0F
:102E7000A46F21EC08F0800E016E940E30EC00F08F
:102E8000050EF76E640EF66E66EC00F0050E046E2D
:102E90001CC110F01BC10FF03AEC00F0050EF76EEC
:102EA0006E0EF66E66EC00F02092C1EC08F0010E9A
:102EB000295C15E1010118511B25056E19511C21D2
:102EC000066E0550165D06501759000105E3010115
:102ED00018511B2719511C23000120822BD02928AF
:102EE00029E1010118511425056E19511521066EAD
:102EF000000E076A0722086A0852000116E107500F
:102F000014E1065001011C5D00010FE305E10550CD
:102F100001011B5D000109E3010118511B5D1B6FDD
:102F200019511C591C6F000104D015C11CF114C1AA
:102F30001BF12082EDEC08F0EEEC08F0010EAC5D28
:102F40000DE1020E9F6FDBEC07F01CC113F11BC1FA
:102F500012F10101010E1A6F000101D06FD71200AA
:102F60001EC10AF01DC109F00E6A3C0E0D6EFAEC8E
:102F700000F00101206F1EC10AF01DC109F00E6AA8
:102F80003C0E0D6EFAEC00F00FC021F10101226B36
:102F90002082000120A274D0010E9F6FDBEC07F0AD
:102FA00001EE23F0050EF76E780EF66E52EC01F08E
:102FB000EF6A2EEC08F0020EA46F21EC08F0030E6D
:102FC000A46F21EC08F0040EA46F21EC08F00101BD
:102FD000225300012BE1800E016E940E30EC00F0C4
:102FE000200E6EEC00F05B0E6EEC00F0020E046E34
:102FF0000101205138EC00F05D0E6EEC00F0200E67
:103000006EEC00F03A0E6EEC00F0200E6EEC00F06C
:10301000020E046E0101215138EC00F0050EF76E2E
:103020008C0EF66E66EC00F0000128D0800E016E6A
:10303000940E30EC00F0200E6EEC00F06EEC00F020
:10304000020E046E0101205138EC00F0200E6EECEF
:1030500000F03A0E6EEC00F0200E6EEC00F05B0E0D
:103060006EEC00F0020E046E0101215138EC00F00C
:10307000050EF76E6E0EF66E66EC00F00001209203
:10308000C1EC08F0010E295C17E101012253000197
:1030900009E1630E0101205D000102E20101202B24
:1030A000000108D03B0E0101215D000102E2010197
:1030B000212B0001208216D0292814E1010122537E
:1030C000000108E101012053000102E00101200795
:1030D000000107D001012153000102E00101210795
:1030E00000012082EDEC08F0EEEC08F0010EAC5D82
:1030F0001FE1020E9F6FDBEC07F00101225300017C
:1031000006E10101010E226F2082000111D00101B0
:1031100020513C0DF3CF17F0F4CF18F021511724B4
:103120001D6F000E18201E6F010E1F6F000101D0D1
:0431300030D7120082
:020000040030CA
:03000100081F1EB7
:020005008181F7
:060008000FC00FE00F40E5
:00000001FF
