:020000040000FA
:100000000000000091EF02F0ABEF02F0800E016EF5
:10001000FE0EBDD8010EBBD8750E086E300EE0D0B6
:10002000016A018E106E1052D8A41006FE0EAFD8D1
:10003000025202E0022C02D0800E0ED00250020AC0
:1000400002E1C00E09D00250030A02E1940E04D06E
:100050000250040A02E1D40E026E1050022497D01E
:10006000016A018E106EFE0E92D8105090D0046A74
:100070000B6E0C6A00960450D8B40086050E036E11
:10008000270E0A6E100E0CD8030E0A6EE80E08D862
:100090000A6A640E05D80A6A0A0E02D80B5007D005
:1000A000096E0C50086E0B50076EA4D80750076EEF
:1000B000034E0096045002E0035C07E20750D8A408
:1000C000009600B602D0300F62D01200A66AA68E4B
:1000D0000900F55002E002D8FBD712000E6E899E8F
:1000E000899C929E929CF00E92160E5000B21ED0E9
:1000F0003A0E086E980E74D8330E0D6E29D8130E72
:10010000086E880E6DD824D8640E69D821D8640E84
:1001100066D8220E0D6E1CD8280E07D80C0E05D8F6
:10012000060E03D800820E5001D000800D6E00A094
:1001300009D0899C03080AE309D8070E086ED00E7F
:100140004FD812000080FE0814E0898C0D3A00A000
:100150000090898EF00E80160D500F0B801200005B
:1001600000D0899E0D3A000000D000B0F1D7320EC9
:1001700036D80E501200A66AA68E0900F55002E08D
:1001800002D8FBD712009EA8FED7AD6E120001BEAA
:10019000A5D701B4F8D7A86EA66AA684550EA76E97
:1001A000AA0EA76EA682A6B2FED7A694A94AAA2A2C
:1001B000A68E1200A96EA66AA680A850A94AAA2AED
:1001C000A68E12000A6A096EFF0E09260A2200D0C6
:1001D000D8A01200030E086EE60E02D8F5D7086A02
:1001E000FD0F076E01D00706000000D0E86A085A2C
:1001F000FAE212000C6A0B6A100EF36E08340B362A
:100200000C3609500B5C0A500C5805E309500B5E84
:100210000A500C5AD88007360836F32EEFD707500D
:100220001200A66AA68E0900F55002E0EE6EFBD71A
:1002300012004952524953595320537461727475D4
:100240007020436F6D706C65746500004F505449A9
:100250004F4E53202020202020202020202020200E
:1002600000004D61696E204D656E750053657475B3
:1002700070204D656E7500005574696C6974792045
:100280004D656E7500005554494C4954590049520A
:100290005249535953204D41494E202020202020BF
:1002A000202000004265657020747970653A200056
:1002B000202020202020202020202020202020203E
:1002C000202020200000534554555020202020207D
:1002D000202020202020202020200000496E707542
:1002E00074203100496E707574203200496E70754B
:1002F00074203300202853545542292020202020E8
:100300002000434C4F434B20202020202020202041
:10031000202020202020000054696D656F75742016
:100320002020000050756C736520202020200000E4
:10033000494E50555420000020202020202020200D
:10034000202020200000456E61626C652020202066
:100350000000456E61626C65640044697361626CA3
:100360006564000053656E736F72202020200000CA
:10037000507265737375726500005363616C65320A
:10038000306D6120000048696768204250202020BD
:100390000000486967682054425020200000504CFB
:1003A00050425020202020200000534C504250202A
:1003B0002020202000004C6F772054425020202025
:1003C0000000526C79204869676820200000526C58
:1003D0007920504C502020200000526C7920534C42
:1003E000502020200000526C79204C6F7720202074
:1003F0000000446973706C61792020200000202087
:1004000020202020202020200000454449543A206C
:10041000594553204E4F20202020202020002059D5
:10042000657320205B4E6F5D20202020202020203F
:10043000202000005B5965735D20204E6F20202036
:1004400020202020202020200000454449543A202C
:100450004D4F4445202020202020202020005B4EAE
:100460006F5D202050756C736520204C617463684B
:1004700020202000204E6F20205B50756C73655D3E
:10048000204C6174636820202000204E6F202020C3
:1004900050756C7365205B4C617463685D2020004F
:1004A000454449543A204455524154494F4E202026
:1004B00020202000202020202020202020005D203F
:1004C0002020202020202000454449543A20534534
:1004D0004E534F5220545950452020005B507265B6
:1004E00073737572655D2054656D7020466C6F770F
:1004F0002000205072657373757265205B54656DC2
:10050000705D20466C6F7720000020507265737319
:10051000757265202054656D70205B466C6F775D49
:100520000000006A100EAF6E240EAC6E900EAB6E23
:1005300000010F0EC16E070EB46E700ED36E9B8C51
:100540000F0EC16EF19EC40ED56E060ED66EF294DD
:10055000F28AF28EF5D0000111C027F212C028F203
:10056000F4CF29F2F3CF2AF2F2A4E1D0060ED66E30
:10057000F294182A000E19221A221B22282A0A0E87
:10058000285CD8A0C9D0746A81B2742A756A81B413
:10059000752A766A81BC762A7450295C10E02C2A70
:1005A000020E2C5C0BE374C029F02C6A18C01CF0FE
:1005B00019C01DF01AC01EF01BC01FF001D02C6A1C
:1005C00075502A5C10E02D2A020E2D5C0BE375C0DD
:1005D0002AF02D6A18C01CF019C01DF01AC01EF0B8
:1005E0001BC01FF001D02D6A76502B5C10E02E2A24
:1005F000020E2E5C0BE376C02BF02E6A18C01CF0A6
:1006000019C01DF01AC01EF01BC01FF001D02E6AC9
:100610002950020DF3CF11F0F4CF12F02A5011241B
:10062000776E2F50040DF3CF11F0F4CF12F0775006
:100630001124786E010E785C02E1300622D0070E9C
:10064000785C02E130061DD00E0E785C02E13006C7
:1006500018D0080E785C02E1300613D0020E785CE8
:1006600002E1302A0ED00B0E785C02E1302A09D06C
:100670000D0E785C02E1302A04D0040E785C01E1B2
:10068000302A775225E130BE0ED0020E305C0BE3EB
:10069000334A342A18C01CF019C01DF01AC01EF0CD
:1006A0001BC01FF014D03050800A7E0810E3335274
:1006B00002E1345203E03306000E345A000118C040
:1006C0001CF019C01DF01AC01EF01BC01FF0306ACC
:1006D00077C02FF02B520DE1FF0E325C04E307E1EF
:1006E000F60E315C04E20A0E3126000E32220001C1
:1006F00012D0325203E1C80E315C0AE3010E216EC2
:1007000018C01CF019C01DF01AC01EF01BC01FF04D
:100710000001326A316A286A225202E1235206E05D
:1007200082842206000E235A000101D0829427C23F
:1007300011F028C212F029C2F4FF2AC2F3FF1100FF
:1007400084D889D841D875D8E7D8F4D8A2D8376AE0
:100750001694216A1F6A1E6A1D6A1C6A1682169008
:10076000236A226A030E3D5C01E33D6A030E535C7B
:1007700002E3010E536E030E645C02E3020E646E2C
:10078000020EF76E320EF66EBBEC00F00D0EC3ECEF
:1007900000F0C80EE2EC00F016A003D015D849D83E
:1007A00016901694C1D9DFD87BC037F0020E375CA3
:1007B00009E1169418C01CF019C01DF01AC01EF0F3
:1007C0001BC01FF0E9D7FFD7100E926E460E936E36
:1007D000946A896A8A6A8B6A899C899E320EE2ECE5
:1007E00000F0809C030E836FC1D9050EE2EC00F08F
:1007F000030E836FBBD9960EEFEC00F0030E836FF0
:10080000B5D9960EEFEC00F0020E836FAFD9960EBD
:10081000EFEC00F0280E846FAFD9080E846FACD9CE
:10082000010E846FA9D9060E846FA6D90C0E846FB1
:10083000A3D18B6B050E8A6F46EC06F006EC00F038
:100840008B6B020E8A6F46EF06F0100E926E460E0C
:10085000936E946A1200296A81B2292A2A6A81B4A5
:100860002A2A2B6A81BC2B2A2950020DF3CF11F0C2
:10087000F4CF12F02A5011242F6E2C6A2D6A2E6AA2
:10088000286A306A346A336A366A356A326A316A8B
:10089000120025C086F0876B91D988530DE0796AE4
:1008A000020E795C08E2010E896FBFD9640EE2EC9A
:1008B00000F0792AF5E32BD025C086F0030E876F70
:1008C0007DD988530DE0796A030E795C08E2020E47
:1008D000896FABD9960EE2EC00F0792AF5E317D0D8
:1008E00025C086F0020E876F69D988530DE0796ABA
:1008F000040E795C08E2010E896F97D9640EE2EC70
:1009000000F0792AF5E303D0030E896F8ED9010E2A
:100910000A6EF40EE3EF00F0DEEC06F0010E986FC5
:1009200050EC07F0020E986F50EC07F0030E986F32
:1009300050EF07F0010E3E147A6E7A5202E1506ACF
:1009400002D0010E506E020E3E147A6E7A5202E10F
:10095000516A02D0010E516E48C04EF047C04DF0B2
:100960004BC04FF01200040E7E6E7C6A7D6A1690BA
:10097000168216A296D0010E896F57D901EE82F029
:10098000020EF76E4C0EF66E11EC01F0EF6A9BD979
:10099000020E8E6F8BD9030E8E6F88D9040E8E6F68
:1009A00085D9020E7C5C02E27D6A16D0FF0E7E24A1
:1009B000056E066AFF0E062206520CE105507C5CAD
:1009C00009E3030E7E5C04E3030E7E5C7D6E01D0C2
:1009D0007D6A02D07C047D6E020E806F050E805D04
:1009E000D8B05ED07D508025116E126A1236020E8C
:1009F000115C816F81517C5C03E1010E7F6E01D03F
:100A00007F6A81530FE180C08FF001EEA3F0020EE8
:100A1000F76E620EF66E11EC01F0EF6A7FC090F097
:100A200068D93BD0010E815D0FE180C08FF001EEEF
:100A3000A3F0020EF76E6C0EF66E11EC01F0EF6A89
:100A40007FC090F056D929D0020E815D0FE180C0A1
:100A50008FF001EEA3F0020EF76E780EF66E11EC39
:100A600001F0EF6A7FC090F044D917D0030E815D8A
:100A700011E180C08FF001EEA3F0420EEE6E610E28
:100A8000EE6E630EEE6E6B0EEE6EEF6A7FC090F050
:100A900030D903D080C08EF009D9802BD8A09ED742
:100AA00016925BD9205215E0010E205C0EE1FF0E7C
:100AB0007E24056E066AFF0E0622065203E10550EB
:100AC0007C5C01E27C2A000103D07C5201E07C06C0
:100AD00016826FD96FD9010E935D24E1020E896FE2
:100AE000A4D87C5204E1010E7B6E12001AD0010ED4
:100AF0007C5C05E104EC09F09DC082F012D0020E8E
:100B00007C5C0CE101EEC4F0020EF76E860EF66E10
:100B100011EC01F0EF6A05EC0AF003D0010E7B6ED8
:100B20001200168226D712001690168216A214D032
:100B300001EE82F0020EF76E8E0EF66E11EC01F0F1
:100B4000EF6AC1D8020E8E6FB1D8030E8E6FAED889
:100B5000040E8E6FABD816922CD92CD9010E935D52
:100B600003E1020E896F61D0E1D7120083C0A4F0C7
:100B700034EC0AF04CEF0AF0809C84390F0B856F3F
:100B800085C083F0F3DF0F0E8415856F85C083F079
:100B9000EDDF010E845D010ED8A4000E156E020E6D
:100BA000845D010ED8A4000E151204E0020EE2ECE2
:100BB00000F003D0320EEFEC00F01200875304E196
:100BC000010E8615886F30D0010E875D04E1020E9C
:100BD0008615886F29D0020E875D04E1040E861504
:100BE000886F22D0030E875D04E1080E8615886F9A
:100BF0001BD0040E875D04E1100E8615886F14D09B
:100C0000050E875D04E1200E8615886F0DD0060E57
:100C1000875D04E1400E8615886F06D0070E875D5C
:100C200003E1800E8615886F1200020EF76EA40E87
:100C3000F66EBBEC00F0040E016E895137EC00F04B
:100C40000D0EC3EC00F0895304E1236A0A0E226EF4
:100C50001CD0010E895D04E1236A140E226E15D0AA
:100C6000020E895D04E1236A320E226E0ED0030E5D
:100C7000895D04E1236AC80E226E07D0040E895DE7
:100C800004E1030E236EE80E226E12008D6B010E3E
:100C90008C6F8C518A5D8D518B5907E3010EE2EC0C
:100CA00000F08C2B000E8D23F4E31200800E016EF9
:100CB0008EC002F0010E12EC00F0020EF76EB00EC4
:100CC000F66E66EF00F0800E016E30EC00F0020E62
:100CD000F76EB00EF66E66EC00F0800E016E30EC32
:100CE00000F001EE82F0EE5003E06EEC00F0FBD776
:100CF0001200800E016E8FC002F0010E12EC00F0A7
:100D0000020EF76EB00EF66E66EC00F0010E905D0E
:100D100015E1800E016E8FC002F0010E12EC00F0A2
:100D20005B0E6EEC00F001EEA3F0EE5003E06EEC13
:100D300000F0FBD75D0E6EEC00F00ED0800E016E61
:100D40008FC002F0020E12EC00F001EEA3F0EE50A4
:100D500003E06EEC00F0FBD71200F29E34C092F07C
:100D600033C091F0F28E9151355C925136580BE2BE
:100D7000010E206E18C01CF019C01DF01AC01EF024
:100D80001BC01FF011D03550915D365092590BE2C7
:100D9000FF0E206E18C01CF019C01DF01AC01EF006
:100DA0001BC01FF001D0206A92C036F091C035F010
:100DB0001200120021C093F0216A1200966B956B0D
:100DC00096C0AEF095C0ADF097EC0AF0AFC097F0CA
:100DD00097533AE1020E9525A76F000E9621A86F52
:100DE0007DEC0AF0AAC039F0A9C038F0040E9525B0
:100DF000A76F000E9621A86F7DEC0AF0AAC03BF009
:100E0000A9C03AF0080E9525A96E000E9621AA6E8B
:100E1000DBEC00F0256EB56B380EB46FB76B0A0EC5
:100E2000B66F010EB96F2C0EB86FCEEC0AF0B56B31
:100E30003A0EB46FB76B0A0EB66F070EB96FD00ECD
:100E4000B86FCEEC0AF027D06DEC0DF0C35308E17B
:100E5000250EA56F020EA66F56EC0AF0976B1BD0FD
:100E6000CDEC0DF0CE5308E1250EA56F030EA66F55
:100E700056EC0AF0976B0FD0396A3C0E386E3B6A1D
:100E8000320E3A6E256A250EA56FA66B56EC0AF057
:100E9000E1EC0AF0976B97C024F097C094F0120031
:100EA000126A200E116E146A98C013F01306000E19
:100EB000145A1450200DF3CF14F01350200DF3CF1B
:100EC00013F0F4501426135011249A6F145012206A
:100ED0009B6F9BC0AEF09AC0ADF097EC0AF0AFC02C
:100EE0009CF09C53D8A47BD1010E985DD8A47CD0F3
:100EF000020E9A25A96E000E9B21AA6EDBEC00F073
:100F00003C6E030E9A25A96E000E9B21AA6EDBECA7
:100F100000F03D6E040E9A25A96E000E9B21AA6E6C
:100F2000DBEC00F03E6E050E9A25A76F000E9B21AC
:100F3000A86F7DEC0AF0AAC040F0A9C03FF0070EF0
:100F40009A25A76F000E9B21A86F7DEC0AF0AAC01E
:100F500042F0A9C041F0090E9A25A76F000E9B210F
:100F6000A86F7DEC0AF0AAC044F0A9C043F00B0EB4
:100F70009A25A76F000E9B21A86F7DEC0AF0AAC0EE
:100F800046F0A9C045F00D0E9A25A76F000E9B21D3
:100F9000A86F7DEC0AF0AAC048F0A9C047F00F0E78
:100FA0009A25A96E000E9B21AA6EDBEC00F0496E1B
:100FB000100E9A25A96E000E9B21AA6EDBEC00F0A4
:100FC0004A6E110E9A25A96E000E9B21AA6EDBECCB
:100FD00000F04B6E120E9A25A96E000E9B21AA6E90
:100FE000DBEC00F04C6EFAD0020E985DD8A47CD0F9
:100FF000020E9A25A96E000E9B21AA6EDBEC00F072
:10100000526E030E9A25A96E000E9B21AA6EDBEC90
:1010100000F0536E040E9A25A96E000E9B21AA6E55
:10102000DBEC00F0546E050E9A25A76F000E9B2195
:10103000A86F7DEC0AF0AAC056F0A9C055F0070EC3
:101040009A25A76F000E9B21A86F7DEC0AF0AAC01D
:1010500058F0A9C057F0090E9A25A76F000E9B21E2
:10106000A86F7DEC0AF0AAC05AF0A9C059F00B0E87
:101070009A25A76F000E9B21A86F7DEC0AF0AAC0ED
:101080005CF0A9C05BF00D0E9A25A76F000E9B21A6
:10109000A86F7DEC0AF0AAC05EF0A9C05DF00F0E4B
:1010A0009A25A96E000E9B21AA6EDBEC00F05F6E04
:1010B000100E9A25A96E000E9B21AA6EDBEC00F0A3
:1010C000606E110E9A25A96E000E9B21AA6EDBECB4
:1010D00000F0616E120E9A25A96E000E9B21AA6E79
:1010E000DBEC00F0626E7AD0030E985DD8A476D067
:1010F000020E9A25A96E000E9B21AA6EDBEC00F071
:10110000636E030E9A25A96E000E9B21AA6EDBEC7E
:1011100000F0646E040E9A25A96E000E9B21AA6E43
:10112000DBEC00F0656E050E9A25A76F000E9B2183
:10113000A86FE3D9AAC067F0A9C066F0070E9A2588
:10114000A76F000E9B21A86FD8D9AAC069F0A9C0CB
:1011500068F0090E9A25A76F000E9B21A86FCDD9C4
:10116000AAC06BF0A9C06AF00B0E9A25A76F000EFB
:101170009B21A86FC2D9AAC06DF0A9C06CF00D0E5A
:101180009A25A76F000E9B21A86FB7D9AAC06FF050
:10119000A9C06EF00F0E9A25A96E000E9B21AA6EB3
:1011A000DBEC00F0706E100E9A25A96E000E9B21EC
:1011B000AA6EDBEC00F0716E110E9A25A96E000E7E
:1011C0009B21AA6EDBEC00F0726E120E9A25A96EBE
:1011D000000E9B21AA6EDBEC00F0736E10D098C05D
:1011E000C7F08DEC0DF0C85302E19C6B08D098C09D
:1011F000D0F05AEC0EF098C0BEF029DA9C6B9CC07F
:1012000024F09CC099F01200050EA06F9E6B9F6B9E
:101210001690168216A2B8D0010E896F15EC06F052
:1012200001EE82F0020EF76EC60EF66E11EC01F0C2
:10123000EF6A63EC06F0020E8E6F56EC06F0030EBA
:101240008E6F56EC06F0040E8E6F56EC06F0020E12
:101250009E5D02E29F6B16D0FF0EA025056E066A0A
:10126000FF0E062206520CE105509E5D09E3030EB7
:10127000A05D04E3030EA05D9F6F01D09F6B02D0C1
:101280009E059F6F020EA26F050EA25DD8B07BD0A7
:10129000FE0EA225116E126AFF0E12229F5111241A
:1012A000A36FA3519E5D03E1010EA16F01D0A16B5D
:1012B000A35310E1A2C08FF001EEA3F0020EF76E6F
:1012C000DC0EF66E11EC01F0EF6AA1C090F079EC43
:1012D00006F056D0010EA35D10E1A2C08FF001EE22
:1012E000A3F0020EF76EE40EF66E11EC01F0EF6A59
:1012F000A1C090F079EC06F043D0020EA35D10E19E
:10130000A2C08FF001EEA3F0020EF76EEC0EF66EA7
:1013100011EC01F0EF6AA1C090F079EC06F030D04A
:10132000030EA35D14E1A2C08FF001EEA3F0430E03
:10133000EE6E6C0EEE6E6F0EEE6E630EEE6E6B0E5C
:10134000EE6EEF6AA1C090F079EC06F019D0040EB1
:10135000A35D12E1A2C08FF001EEA3F0420EEE6E8B
:10136000610EEE6E630EEE6E6B0EEE6EEF6AA1C056
:1013700090F079EC06F004D0A2C08EF056EC06F0A6
:10138000A22BD8A081D71692ADEC06F0205215E022
:10139000010E205C0EE1FF0EA025056E066AFF0E11
:1013A0000622065203E105509E5D02E200019E2BDB
:1013B00003D09E5301E09E071682D9EC06F0DAECCA
:1013C00006F0010E935D1FE1020E896F15EC06F029
:1013D0009E5303E1A6EC0EF015D0010E9E5D03E1D5
:1013E000AFEC0EF00FD0020E9E5D03E1B8EC0EF0F4
:1013F00009D0030E9E5D03E1C1EC0EF003D0010E97
:101400009D6F1200168206D71200169001EE82F030
:1014100011EEC4F0200EE75204E0E6CFEEFFE82E16
:10142000FAD7020EF76EF40EF66E11EC01F0EF6AC9
:1014300063EC06F0020E8E6F56EC06F0030E8E6F14
:1014400056EC06F0040E8E6F56EC06F0D9EC06F062
:10145000DAEC06F0010E935D05E1020E896F15ECE2
:1014600006F001D0F3D71200A43102E3898001D045
:101470008990A451E8A202D0898201D08992A45116
:10148000E8A402D0898401D08994A451E8A602D0AE
:10149000898601D089961200898E020EE82EFED729
:1014A00000000000899E280EEFEF00F0A65302E135
:1014B000A58122D0010EA65D02E1A5831DD0020EFA
:1014C000A65D02E1A58518D0030EA65D02E1A58701
:1014D00013D0040EA65D02E1A5890ED0050EA65D0F
:1014E00002E1A58B09D0060EA65D02E1A58D04D010
:1014F000070EA65D01E1A58F1200A8C0AAFFA7C034
:10150000A9FFDBEC00F0AB6F010EA725A96E000E62
:10151000A821AA6EDBEC00F0AC6FACC012F0116A2F
:10152000AB511124A96F000E1220AA6F1200AEC099
:10153000AAFFADC0A9FFDBEC00F0B26FA50EB25D53
:1015400003E0010EAF6F1200010EAD25A96E000E73
:10155000AE21AA6EDBEC00F0B36F010EB35D03E0C9
:10156000020EAF6F12001F0EAD25A96E000EAE2148
:10157000AA6EDBEC00F0B06FAEC0E9F0ADC0E8F0F1
:101580001F0EEA6F17EC10F0EBC0B1F0B051B15D77
:1015900003E0030EAF6F1200AF6B1200B651B45DE3
:1015A000B751B55904E2B7C0B5F0B6C0B4F0B45104
:1015B000B85DB551B95904E2B9C0B5F0B8C0B4F0DE
:1015C0001200BC6BBB6B020EBB25E26F000EBC2190
:1015D000E36F39C0E5F038C0E4F0FBEC0FF0E6C093
:1015E000BDF0BD5303E0BDC0BAF01200040EBB2530
:1015F000E26F000EBC21E36F3BC0E5F03AC0E4F0BF
:10160000FBEC0FF0E6C0BDF0BD5303E0BDC0BAF087
:101610001200080EBB25DC6F000EBC21DD6F25C05B
:10162000DEF0D8EC0FF0DFC0BDF0BD5303E0BDC06D
:10163000BAF01200BCC0F0F0BBC0EFF02FEC10F01D
:10164000F1C0BDF0BDC024F0BDC0BAF01200126AF6
:10165000200E116E146ABEC013F01306000E145A49
:101660001450200DF3CF14F01350200DF3CF13F0CE
:10167000F450142613501124C06F14501220C16F5F
:10168000010EBE5DD8A4B1D0020EC025DC6F000EE5
:10169000C121DD6F3CC0DEF0D8EC0FF0DFC0C2F03E
:1016A000C2530CE1030EC025DC6F000EC121DD6FBB
:1016B0003DC0DEF0D8EC0FF0DFC0C2F0C2530CE149
:1016C000040EC025DC6F000EC121DD6F3EC0DEF0D0
:1016D000D8EC0FF0DFC0C2F0C2530EE1050EC025FA
:1016E000E26F000EC121E36F40C0E5F03FC0E4F0BF
:1016F000FBEC0FF0E6C0C2F0C2530EE1070EC025AE
:10170000E26F000EC121E36F42C0E5F041C0E4F09A
:10171000FBEC0FF0E6C0C2F0C2530EE1090EC0258B
:10172000E26F000EC121E36F44C0E5F043C0E4F076
:10173000FBEC0FF0E6C0C2F0C2530EE10B0EC02569
:10174000E26F000EC121E36F46C0E5F045C0E4F052
:10175000FBEC0FF0E6C0C2F0C2530EE10D0EC02547
:10176000E26F000EC121E36F48C0E5F047C0E4F02E
:10177000FBEC0FF0E6C0C2F0C2530CE10F0EC02527
:10178000DC6F000EC121DD6F49C0DEF0D8EC0FF038
:10179000DFC0C2F0C2530CE1100EC025DC6F000E9A
:1017A000C121DD6F4AC0DEF0D8EC0FF0DFC0C2F01F
:1017B000C2530CE1110EC025DC6F000EC121DD6F9C
:1017C0004BC0DEF0D8EC0FF0DFC0C2F0C2530CE12A
:1017D000120EC025DC6F000EC121DD6F4CC0DEF0A3
:1017E000D8EC0FF0DFC0C2F069D1020EBE5DD8A404
:1017F000B1D0020EC025DC6F000EC121DD6F52C0DA
:10180000DEF0D8EC0FF0DFC0C2F0C2530CE1030EE3
:10181000C025DC6F000EC121DD6F53C0DEF0D8ECB7
:101820000FF0DFC0C2F0C2530CE1040EC025DC6F24
:10183000000EC121DD6F54C0DEF0D8EC0FF0DFC028
:10184000C2F0C2530EE1050EC025E26F000EC121A9
:10185000E36F56C0E5F055C0E4F0FBEC0FF0E6C0D6
:10186000C2F0C2530EE1070EC025E26F000EC12187
:10187000E36F58C0E5F057C0E4F0FBEC0FF0E6C0B2
:10188000C2F0C2530EE1090EC025E26F000EC12165
:10189000E36F5AC0E5F059C0E4F0FBEC0FF0E6C08E
:1018A000C2F0C2530EE10B0EC025E26F000EC12143
:1018B000E36F5CC0E5F05BC0E4F0FBEC0FF0E6C06A
:1018C000C2F0C2530EE10D0EC025E26F000EC12121
:1018D000E36F5EC0E5F05DC0E4F0FBEC0FF0E6C046
:1018E000C2F0C2530CE10F0EC025DC6F000EC12107
:1018F000DD6F5FC0DEF0D8EC0FF0DFC0C2F0C25386
:101900000CE1100EC025DC6F000EC121DD6F60C040
:10191000DEF0D8EC0FF0DFC0C2F0C2530CE1110EC4
:10192000C025DC6F000EC121DD6F61C0DEF0D8EC98
:101930000FF0DFC0C2F0C2530CE1120EC025DC6F05
:10194000000EC121DD6F62C0DEF0D8EC0FF0DFC009
:10195000C2F0B4D0030EBE5DD8A4B0D0020EC02534
:10196000DC6F000EC121DD6F63C0DEF0D8EC0FF03C
:10197000DFC0C2F0C2530CE1030EC025DC6F000EC5
:10198000C121DD6F64C0DEF0D8EC0FF0DFC0C2F023
:10199000C2530CE1040EC025DC6F000EC121DD6FC7
:1019A00065C0DEF0D8EC0FF0DFC0C2F0C2530EE12C
:1019B000050EC025E26F000EC121E36F67C0E5F0A0
:1019C00066C0E4F0FBEC0FF0E6C0C2F0C2530EE1DB
:1019D000070EC025E26F000EC121E36F69C0E5F07C
:1019E00068C0E4F0FBEC0FF0E6C0C2F0C2530EE1B9
:1019F000090EC025E26F000EC121E36F6BC0E5F058
:101A00006AC0E4F0FBEC0FF0E6C0C2F0C2530EE196
:101A10000B0EC025E26F000EC121E36F6DC0E5F033
:101A20006CC0E4F0FBEC0FF0E6C0C2F0C2530EE174
:101A30000D0EC025E26F000EC121E36F6FC0E5F00F
:101A40006EC0E4F0FBEC0FF0E6C0C2F0C2530CE154
:101A50000F0EC025DC6F000EC121DD6F70C0DEF0FF
:101A6000D8EC0FF0DFC0C2F0C2530CE1100EC0255D
:101A7000DC6F000EC121DD6F71C0DEF0D8EC0FF01D
:101A8000DFC0C2F0C2530CE1110EC025DC6F000EA6
:101A9000C121DD6F72C0DEF0D8EC0FF0DFC0C2F004
:101AA000C2530CE1120EC025DC6F000EC121DD6FA8
:101AB00073C0DEF0D8EC0FF0DFC0C2F0C25308E113
:101AC000C1C0F0F0C0C0EFF02FEC10F0F1C0C2F0D8
:101AD000C2C024F0C2C0BFF01200C56B800EC46F3C
:101AE000C5C0AEF0C4C0ADF097EC0AF0AFC0C6F010
:101AF000C65310E1C5C0F9F0C4C0F8F0FB6BFA6B37
:101B0000ACEC10F0FCC0C6F0C65304E1DEEC06F00D
:101B100094C0C6F0C6C0C3F01200126A200E116E47
:101B2000146AC7C013F01306000E145A1450200D87
:101B3000F3CF14F01350200DF3CF13F0F45014260C
:101B400013501124CB6F14501220CC6F800ECB2574
:101B5000C96F000ECC21CA6FCAC0AEF0C9C0ADF0CB
:101B600097EC0AF0AFC0CDF0CD5314E1CAC0F9F044
:101B7000C9C0F8F0CCC0FBF0CBC0FAF0ACEC10F070
:101B8000FCC0CDF0CD5306E1C7C098F050EC07F093
:101B900099C0CDF0CDC0C8F01200A86BFA0EA76FA7
:101BA0007DEC0AF0AAC039F0A9C038F0395205E13D
:101BB0000A0E385C02E2000E01D0010E156E010E15
:101BC000395C06E303E12D0E385C02E3000E01D020
:101BD000010E15160001D8B46AD0A86BFC0EA76FD1
:101BE0007DEC0AF0AAC03BF0A9C03AF0B56B3A0E02
:101BF000B46FB76B0A0EB66F070EB96FD00EB86F21
:101C0000CEEC0AF0AA6AC80EA96EDBEC00F03C6EBE
:101C1000AA6AC90EA96EDBEC00F03D6EAA6ACA0E74
:101C2000A96EDBEC00F03E6EA86BCC0EA76F7DECCE
:101C30000AF0AAC040F0A9C03FF0A86BCE0EA76F73
:101C40007DEC0AF0AAC042F0A9C041F0446A436AA0
:101C5000466A456A486A476A020E496E4A6E4B6E8A
:101C6000010E4C6E020ED06F25D8030ED06F22D815
:101C7000E1EC0AF0BAC0CFF0CF5306E1010EBE6F1F
:101C800027EC0BF0BFC0CFF0CF5306E1020EBE6FC2
:101C900027EC0BF0BFC0CFF0CF5306E1030EBE6FB1
:101CA00027EC0BF0BFC0CFF0CFC0CEF002D0010EBA
:101CB000CE6F1200010ED05D16E1010E3C6E3D6A42
:101CC0003E6A406A3F6A426E6A0E416E446A436AE7
:101CD000466A456A486A476A020E496E4A6E4B6E0A
:101CE000010E4C6E32D0020ED05D17E1010E526E25
:101CF000536E546A5668CE0E556E586A640E576E0F
:101D00005A6A596A5C6A5B6A5E6A5D6A020E5F6E55
:101D1000606A616A010E626E18D0030ED05D15E133
:101D2000636A020E646E656A676A666A696A640E4F
:101D3000686E6B6A6A6A6D6A6C6A6F6A6E6A706AEC
:101D4000020E716E726E010E736E12000101010EB1
:101D50000C6F000151EC11F00DC1D1F01200010126
:101D6000020E0C6F000151EC11F00DC1D2F0120007
:101D70000101030E0C6F000151EC11F00DC1D3F005
:101D80001200030ED66FD56BD86BD969168216A2D6
:101D90007AD001EE82F0030EF76E020EF66E11ECB1
:101DA00001F0EF6A63EC06F0020E8E6F56EC06F05F
:101DB000030E8E6F56EC06F0040E8E6F56EC06F096
:101DC000D55303E1010ED76F01D0D76B800E016EA2
:101DD000C00E30EC00F0030EF76E180EF66E66ECD7
:101DE00000F00101020E066F0B0E076F39C009F1FA
:101DF00038C008F1D7C00AF1000115DA010ED55D2F
:101E000003E1010ED76F01D0D76B800E016E940EE7
:101E100030EC00F0030EF76E240EF66E66EC00F068
:101E20000101030E006F0B0E016F3BC003F13AC0BE
:101E300002F1D7C004F10001B0D9020ED55D12E164
:101E4000040E8F6F01EEA3F0420EEE6E610EEE6E89
:101E5000630EEE6E6B0EEE6EEF6A010E906F79EC14
:101E600006F010D0040E8F6F01EEA3F0420EEE6E5E
:101E7000610EEE6E630EEE6E6B0EEE6EEF6A906BA1
:101E800079EC06F01692ADEC06F02052D8B44BD0A7
:101E9000D85317E1010E205C0FE1FF0ED625056E29
:101EA000066AFF0E0622065203E10550D55D03E2E5
:101EB0000001D52B168204D0D55302E0D507168237
:101EC00032D0D95317E1010E205C09E1010E395CD3
:101ED0002C0ED8B4385C02E2384A392A09D039527B
:101EE00003E10B0E385C03E33806000E395A00019B
:101EF000168219D0010ED95D16E1010E205C09E1B0
:101F0000070E3B5CD00ED8B43A5C02E23A4A3B2A58
:101F100009D03B5203E10B0E3A5C03E33A06000E94
:101F20003B5A00011682D9EC06F0DAEC06F0010EFD
:101F3000935D3CE1020E896F15EC06F0D85317E172
:101F4000020ED55D04E1010ED46F12000FD0010E18
:101F5000D86FD5C0D9F0D55305E139C0DBF038C012
:101F6000DAF004D03BC0DBF03AC0DAF01FD0D9532E
:101F70000DE1B56B380EB46FB76B0A0EB66F010E7C
:101F8000B96F2C0EB86FCEEC0AF00CD0B56B3A0ED0
:101F9000B46FB76B0A0EB66F070EB96FD00EB86F7D
:101FA000CEEC0AF0E1EC0AF0D86BD969F0D6120059
:101FB000010EE16F040EE15D1BE2DDC0AAFFDCC093
:101FC000A9FFDE51CBEC00F00A0EE2EC00F0DDC020
:101FD000AAFFDCC0A9FFDBEC00F0E06FE051DE5DA2
:101FE00002E1DF6B1200050EE2EC00F0E12BE2E310
:101FF000050EDF6F1200E3C0DDF0E2C0DCF0E4C0EC
:10200000DEF0D6DFDFC0E7F0E75303E0E7C0E6F03D
:102010001200010EE225DC6F000EE321DD6FE5C04A
:10202000DEF0C6DFDFC0E7F0E7C0E6F01200EC6BE1
:10203000EA05176EED6BED51175C0DE3ED51E825E8
:10204000A96E000EE921AA6EDBEC00F0EE6FEE51F6
:10205000EC27ED2BF0E3EC510008EB6F1200130EB0
:10206000EF25A76F000EF021A86F7DEC0AF0AAC043
:10207000F5F0A9C0F4F0270EF55D08E303E1100EBA
:10208000F45D04E30001040EF16F1200030EF55D30
:102090001AE303E1E90EF45D16E3800E0001EF257B
:1020A000F66F000EF021F76FF0C0F9F0EFC0F8F016
:1020B000F7C0FBF0F6C0FAF04FD8250EA56F010E61
:1020C000A66F56EC0AF0F0C0DDF0EFC0DCF0A50E14
:1020D000DE6F6EDFDFC0F3F0F35303E0F3C0F1F027
:1020E0001200010EEF25DC6F000EF021DD6F010EF6
:1020F000DE6F5EDFDFC0F3F0F35303E0F3C0F1F017
:102100001200F44BF52B130EEF25E26F000EF021B9
:10211000E36FF5C0E5F0F4C0E4F06DDFE6C0F3F086
:10212000F35303E0F3C0F1F01200F0C0E9F0EFC0A8
:10213000E8F01F0EEA6F7BDFEBC0F2F01F0EEF2519
:10214000DC6F000EF021DD6FF2C0DEF031DFDFC0AA
:10215000F3F0F3C0F1F01200FD6B200EFD5D1BE209
:10216000FD51F825A96E000EF921AA6EDBEC00F0F6
:10217000FE6FFD51FA25DC6F000EFB21DD6FFEC006
:10218000DEF016DFDFC0FFF0FF5303E0FFC0FCF01E
:102190001200FD2BE2E3FC6B1200126A01C111F088
:1021A000114A122A146A080E136E050E135E000EF1
:1021B000145A115013240101056F00C13BF101C1F4
:1021C0003CF100016EEC1AF0010E0101045D00010A
:1021D00017E1800E016E00C102F00101050512EC4D
:1021E00000F05B0E6EEC00F0800E016E00C102F09C
:1021F000090E0101012512EC00F05D0E6EEC00F0FD
:102200000001800E016E00C102F00101055112ECC7
:1022100000F0050E046E03C10CF002C10BF03AECA5
:1022200000F000011200126A07C111F0114A122ACF
:10223000146A080E136E050E135E000E145A115028
:10224000132401010B6F06C13BF107C13CF10001F2
:102250006EEC1AF0010E01010A5D000117E1800E1B
:10226000016E06C102F001010B0512EC00F05B0EDD
:102270006EEC00F0800E016E06C102F0090E010145
:10228000072512EC00F05D0E6EEC00F0000106C1B7
:1022900043F10BC144F109C146F108C145F1F1EF29
:1022A0001AF0010E01010C5D000121E13CC00EF1AC
:1022B0003DC00FF140C011F13FC010F142C013F119
:1022C00041C012F144C015F143C014F146C017F1EA
:1022D00045C016F148C019F147C018F149C01AF1BC
:1022E0004AC01BF14BC01CF14CC01DF14BD0020E7B
:1022F00001010C5D000121E152C00EF153C00FF14C
:1023000056C011F155C010F158C013F157C012F169
:102310005AC015F159C014F15CC017F15BC016F139
:102320005EC019F15DC018F15FC01AF160C01BF109
:1023300061C01CF162C01DF125D0030E01010C5DCE
:10234000000120E163C00EF164C00FF167C011F11C
:1023500066C010F169C013F168C012F16BC015F1CD
:102360006AC014F16DC017F16CC016F16FC019F19D
:102370006EC018F170C01AF171C01BF172C01CF16F
:1023800073C01DF101011E6B1F6B168201010F53FB
:10239000000105E101010C0E206F00010DD0010EBE
:1023A00001010F5D000105E101010A0E206F00012E
:1023B00003D00101050E206F01012005246F0001EB
:1023C00016A28CEF16F0010E896F15EC06F0800E48
:1023D000016E30EC00F0020EF76EB00EF66E66EC99
:1023E00000F0800E016E30EC00F0030EF76E300E40
:1023F000F66E66EC00F0010E046E01010C5138EC33
:1024000000F0030EF76E380EF66E66EC00F0000179
:10241000020E8E6F56EC06F0030E8E6F56EC06F031
:10242000040E8E6F56EC06F0020E01011E5D0001D7
:1024300004E201011F6B000121D0FF0E01012025E4
:10244000056E066AFF0E06220652000114E10550D1
:1024500001011E5D00010FE3030E0101205D00017B
:1024600006E3030E0101205D1F6F000102D0010190
:102470001F6B000103D001011E051F6F0101020E39
:10248000226F050E0101225D0001D8B08BEF16F01E
:10249000FE0E01012225116E126AFF0E12221F513B
:1024A0001124236F2351245D0001D8A081EF16F081
:1024B000010123511E5D000105E10101010E216FA3
:1024C000000102D00101216B01010F530001D8A4CA
:1024D00070D001012353000104E10101256B0001CB
:1024E00067D0010E0101235D000105E10101010E2C
:1024F000256F00015DD0020E0101235D000105E1A1
:102500000101020E256F000153D0030E0101235D6E
:10251000000105E10101030E256F000149D0040E01
:102520000101235D000105E10101040E256F000199
:102530003FD0050E0101235D000105E10101050EFB
:10254000256F000135D0060E0101235D000105E174
:102550000101060E256F00012BD0070E0101235D3E
:10256000000105E10101070E256F000121D0080ED1
:102570000101235D000105E10101080E256F000145
:1025800017D0090E0101235D000105E10101090ECB
:10259000256F00010DD00A0E0101235D000105E148
:1025A00001010A0E256F000102D001012569000119
:1025B0008AD0010E01010F5D0001D8A45CD0010199
:1025C0002353000104E10101256B000153D0010EEA
:1025D0000101235D000105E10101010E256F0001EC
:1025E00049D0020E0101235D000105E10101020E47
:1025F000256F00013FD0030E0101235D000105E1BD
:102600000101030E256F000135D0040E0101235D89
:10261000000105E10101040E256F00012BD0050E1C
:102620000101235D000105E10101060E256F000196
:1026300021D0060E0101235D000105E10101070E15
:10264000256F000117D0070E0101235D000105E190
:102650000101090E256F00010DD0080E0101235D57
:10266000000105E101010A0E256F000102D0010100
:102670002569000128D001012353000104E1010173
:10268000256B000120D0010E0101235D000105E151
:102690000101010E256F000116D0020E0101235D1C
:1026A000000105E101010A0E256F00010CD0030EA7
:1026B0000101235D000105E10101090E256F000103
:1026C00002D00101256901012529000113E122C180
:1026D00037F101EEE5F0420EEE6E610EEE6E630E26
:1026E000EE6E6B0EEE6EEF6A21C138F122EC1AF03D
:1026F00080EF16F00101255300013FE1800E016ECD
:1027000022C102F0010E12EC00F0030EF76E460E2D
:10271000F66E66EC00F0010E01010E5D000116E19F
:1027200022C13DF101010B0E3E6F02EE06F0030ED9
:10273000F76E520EF66E11EC01F0EF6A21C13FF117
:102740000101406B00017EEC1AF015D022C13DF171
:1027500001010B0E3E6F02EE06F0030EF76E5A0EED
:10276000F66E11EC01F0EF6A21C13FF10101406BFF
:1027700000017EEC1AF080EF16F0010E0101255DDC
:102780000001D8A45BD0800E016E22C102F0010EC0
:1027900012EC00F0030EF76E640EF66E66EC00F0BD
:1027A00001010F53000116E122C13DF101010B0EA1
:1027B0003E6F02EE06F0030EF76E700EF66E11EC31
:1027C00001F0EF6A21C13FF10101406B00017EEC95
:1027D0001AF032D0010E01010F5D000117E122C194
:1027E0003DF101010B0E3E6F02EE06F0540EEE6E4F
:1027F000650EEE6E6D0EEE6E700EEE6EEF6A21C11E
:102800003FF1406B00017EEC1AF016D022C13DF181
:1028100001010B0E3E6F02EE06F0460EEE6E6C0EE0
:10282000EE6E6F0EEE6E770EEE6EEF6A21C13FF127
:10283000406B00017EEC1AF080EF16F0020E0101F1
:10284000255D000128E111C130F110C12FF118EC14
:102850001AF032C129F131C128F10101010E626F74
:10286000280E616F26C163F10001A4EC1DF064C164
:102870002AF1010E01012A5D00010AE129C134F1AA
:1028800028C133F11DEC1AF036C111F135C110F138
:10289000168280EF16F0030E0101255D000127E18D
:1028A000800E016E22C102F0010E12EC00F0030E48
:1028B000F76E7A0EF66E66EC00F013C130F112C1BD
:1028C0002FF118EC1AF032C12CF131C12BF122C1D9
:1028D0004BF101010B0E4C6F2CC14EF12BC14DF190
:1028E00021C14FF1506B000131EC1BF009D2040EF5
:1028F0000101255D00012EE101010F5300010EE1F0
:10290000800E016E22C102F0010E12EC00F0030EE7
:10291000F76E860EF66E66EC00F00DD0800E016E3E
:1029200022C102F0010E12EC00F0030EF76E920EBF
:10293000F66E66EC00F022C106F101010B0E076F86
:1029400015C109F114C108F121C10AF1000113EC0C
:1029500011F0D6D1050E0101255D00011CE1800EAC
:10296000016E22C102F0010E12EC00F0030EF76EB0
:102970009E0EF66E66EC00F022C106F101010B0E10
:10298000076F17C109F116C108F121C10AF1000151
:1029900013EC11F0B5D1060E0101255D00012EE109
:1029A00001010F5300010EE1800E016E22C102F001
:1029B000010E12EC00F0030EF76EAA0EF66E66EC36
:1029C00000F00DD0800E016E22C102F0010E12EC5B
:1029D00000F0030EF76EB60EF66E66EC00F022C144
:1029E00006F101010B0E076F19C109F118C108F1B9
:1029F00021C10AF1000113EC11F082D1070E01018F
:102A0000255D0001D8A460D0800E016E22C102F0C5
:102A1000010E12EC00F0030EF76EC20EF66E66ECBD
:102A200000F001011A53000113E122C13DF101013F
:102A30000B0E3E6F02EE06F04E0EEE6E6F0EEE6E59
:102A4000EF6A21C13FF1406B00017EEC1AF03BD0F0
:102A5000010E01011A5D000119E122C13DF10101E0
:102A60000B0E3E6F02EE06F0500EEE6E750EEE6E21
:102A70006C0EEE6E730EEE6E650EEE6EEF6A21C199
:102A80003FF1406B00017EEC1AF01DD0020E0101F7
:102A90001A5D000118E122C13DF101010B0E3E6FEC
:102AA00002EE06F04C0EEE6E610EEE6E740EEE6EE1
:102AB000630EEE6E680EEE6EEF6A21C13FF1406B61
:102AC00000017EEC1AF01CD1080E0101255D000109
:102AD000D8A460D0800E016E22C102F0010E12EC6B
:102AE00000F0030EF76ECE0EF66E66EC00F00101FC
:102AF0001B53000113E122C13DF101010B0E3E6F9A
:102B000002EE06F04E0EEE6E6F0EEE6EEF6A21C113
:102B10003FF1406B00017EEC1AF03BD0010E010149
:102B20001B5D000119E122C13DF101010B0E3E6F59
:102B300002EE06F0500EEE6E750EEE6E6C0EEE6E40
:102B4000730EEE6E650EEE6EEF6A21C13FF1406BC3
:102B500000017EEC1AF01DD0020E01011B5D000188
:102B600018E122C13DF101010B0E3E6F02EE06F0AD
:102B70004C0EEE6E610EEE6E740EEE6E630EEE6E29
:102B8000680EEE6EEF6A21C13FF1406B00017EECF2
:102B90001AF0B6D0090E0101255D0001D8A472D04B
:102BA00001010F5300010EE1800E016E22C102F0FF
:102BB000010E12EC00F0030EF76EDA0EF66E66EC04
:102BC00000F00DD0800E016E22C102F0010E12EC59
:102BD00000F0030EF76EE60EF66E66EC00F00101F3
:102BE0001C53000113E122C13DF101010B0E3E6FA8
:102BF00002EE06F04E0EEE6E6F0EEE6EEF6A21C123
:102C00003FF1406B00017EEC1AF03BD0010E010158
:102C10001C5D000119E122C13DF101010B0E3E6F67
:102C200002EE06F0500EEE6E750EEE6E6C0EEE6E4F
:102C3000730EEE6E650EEE6EEF6A21C13FF1406BD2
:102C400000017EEC1AF01DD0020E01011C5D000196
:102C500018E122C13DF101010B0E3E6F02EE06F0BC
:102C60004C0EEE6E610EEE6E740EEE6E630EEE6E38
:102C7000680EEE6EEF6A21C13FF1406B00017EEC01
:102C80001AF03ED00A0E0101255D000139E1800EE7
:102C9000016E22C102F0010E12EC00F0030EF76E7D
:102CA000F20EF66E66EC00F0010E01011D5D0001F2
:102CB00015E122C13DF101010B0E3E6F02EE06F05F
:102CC000590EEE6E650EEE6E730EEE6EEF6A21C15A
:102CD0003FF1406B00017EEC1AF012D022C13DF1B1
:102CE00001010B0E3E6F02EE06F04E0EEE6E6F0E01
:102CF000EE6EEF6A21C13FF1406B00017EEC1AF0ED
:102D000004D022C18EF056EC06F00101222B000106
:102D1000D8A041EF12F01692ADEC06F0205214E06C
:102D2000010E205C09E1010124511E5D000102E257
:102D300001011E2B000107D001011E53000102E01A
:102D400001011E0700011682D9EC06F0DAEC06F04C
:102D5000010E935DD8A415EF1AF001011F511E5DFD
:102D6000116E126AD8A01206020E1124266F0F539C
:102D70000001D8A470D001011E53000104E101013B
:102D8000256B000167D0010E01011E5D000105E108
:102D90000101010E256F00015DD0020E01011E5DD3
:102DA000000105E10101020E256F000153D0030E61
:102DB00001011E5D000105E10101030E256F000107
:102DC00049D0040E01011E5D000105E10101040E60
:102DD000256F00013FD0050E01011E5D000105E1D8
:102DE0000101050E256F000135D0060E01011E5DA3
:102DF000000105E10101060E256F00012BD0070E31
:102E000001011E5D000105E10101070E256F0001B2
:102E100021D0080E01011E5D000105E10101080E2F
:102E2000256F000117D0090E01011E5D000105E1AB
:102E30000101090E256F00010DD00A0E01011E5D72
:102E4000000105E101010A0E256F000102D0010118
:102E5000256900018AD0010E01010F5D0001D8A48F
:102E60005CD001011E53000104E10101256B00014A
:102E700053D0010E01011E5D000105E10101010EAB
:102E8000256F000149D0020E01011E5D000105E120
:102E90000101020E256F00013FD0030E01011E5DEE
:102EA000000105E10101030E256F000135D0040E7C
:102EB00001011E5D000105E10101040E256F000105
:102EC0002BD0050E01011E5D000105E10101060E7A
:102ED000256F000121D0060E01011E5D000105E1F4
:102EE0000101070E256F000117D0070E01011E5DBD
:102EF000000105E10101090E256F00010DD0080E4A
:102F000001011E5D000105E101010A0E256F0001AE
:102F100002D001012569000128D001011E530001E2
:102F200004E10101256B000120D0010E01011E5DAD
:102F3000000105E10101010E256F000116D0020E0E
:102F400001011E5D000105E101010A0E256F00016E
:102F50000CD0030E01011E5D000105E10101090E07
:102F6000256F000102D00101256901012529000119
:102F70000BE1020E896F15EC06F00101010E0D6FD9
:102F80000001120015EF1AF00101255300012BE199
:102F900001010E0E556F0001D8EC1BF056C127F150
:102FA000010E0101275D00011BE1010E01010C5D15
:102FB000000103E10EC13CF00FD0020E01010C5DD7
:102FC000000103E10EC152F007D0030E01010C5DB8
:102FD000000102E10EC163F00CC1BEF027EC0BF062
:102FE000168215EF1AF0010E0101255D00012AE19C
:102FF00001010F0E796F000117EC21F07AC127F162
:10300000010E0101275D00011BE1010E01010C5DB4
:10301000000103E10FC13DF00FD0020E01010C5D74
:10302000000103E10FC153F007D0030E01010C5D55
:10303000000102E10FC164F00CC1BEF027EC0BF0FF
:103040001682F3D1020E0101255D0001D8A444D0FF
:1030500011C130F110C12FF1EBD932C129F131C1C9
:1030600028F10101010E626F280E616F26C163F124
:103070000001A4EC1DF0010E0101645D00012AE1D4
:1030800029C134F128C133F1D8D936C111F135C184
:1030900010F1010E01010C5D000105E111C140F0CC
:1030A00010C13FF013D0020E01010C5D000105E1DB
:1030B00011C156F010C155F009D0030E01010C5D8D
:1030C000000104E111C167F010C166F00CC1BEF04F
:1030D00027EC0BF01682A9D1030E0101255D00013A
:1030E000D8A444D013C130F112C12FF1A1D932C1FB
:1030F0002EF131C12DF10101010E626F2D0E616FB4
:1031000026C163F10001A4EC1DF0010E0101645D14
:1031100000012AE12EC134F12DC133F18ED936C11F
:1031200013F135C112F1010E01010C5D000105E141
:1031300013C142F012C141F013D0020E01010C5D27
:10314000000105E113C158F012C157F009D0030E78
:1031500001010C5D000104E113C169F012C168F0C6
:103160000CC1BEF027EC0BF016825FD1040E0101FA
:10317000255D000132E10101010E5C6F140E5B6FF1
:103180000001BAEC1CF05DC127F1010E0101275DC1
:10319000000121E1010E01010C5D000105E115C1F5
:1031A00044F014C143F013D0020E01010C5D000184
:1031B00005E115C15AF014C159F009D0030E0101FF
:1031C0000C5D000104E115C16BF014C16AF00CC183
:1031D000BEF027EC0BF0168228D1050E0101255D0B
:1031E000000132E10101010E5C6F160E5B6F000100
:1031F000BAEC1CF05DC127F1010E0101275D000151
:1032000021E1010E01010C5D000105E117C146F04D
:1032100016C145F013D0020E01010C5D000105E15D
:1032200017C15CF016C15BF009D0030E01010C5D03
:10323000000104E117C16DF016C16CF00CC1BEF0C5
:1032400027EC0BF01682F1D0060E0101255D00017E
:1032500032E10101010E5C6F180E5B6F0001BAECE8
:103260001CF05DC127F1010E0101275D000121E184
:10327000010E01010C5D000105E119C148F018C102
:1032800047F013D0020E01010C5D000105E119C1E8
:103290005EF018C15DF009D0030E01010C5D000164
:1032A00004E119C16FF018C16EF00CC1BEF027EC3B
:1032B0000BF01682BAD0070E0101255D00012AE14C
:1032C00001011A0E586F00013BEC1CF059C127F1A7
:1032D000010E0101275D00011BE1010E01010C5DE2
:1032E000000103E11AC149F00FD0020E01010C5D8B
:1032F000000103E11AC15FF007D0030E01010C5D6C
:10330000000102E11AC170F00CC1BEF027EC0BF015
:1033100016828BD0080E0101255D00012AE1010112
:103320001B0E586F00013BEC1CF059C127F1010E38
:103330000101275D00011BE1010E01010C5D00018F
:1033400003E11BC14AF00FD0020E01010C5D000128
:1033500003E11BC160F007D0030E01010C5D000109
:1033600002E11BC171F00CC1BEF027EC0BF016821C
:103370005CD0090E0101255D00012AE101011C0E4E
:10338000586F00013BEC1CF059C127F1010E0101FF
:10339000275D00011BE1010E01010C5D000103E14D
:1033A0001CC14BF00FD0020E01010C5D000103E1C6
:1033B0001CC161F007D0030E01010C5D000102E1A8
:1033C0001CC172F00CC1BEF027EC0BF016822DD0A0
:1033D0000A0E0101255D000128E101011D0E556F56
:1033E0000001E6D956C127F1010E0101275D000158
:1033F0001BE1010E01010C5D000103E11DC14CF058
:103400000FD0020E01010C5D000103E11DC162F04D
:1034100007D0030E01010C5D000102E11DC173F034
:103420000CC1BEF027EC0BF01682C6EF11F01200B3
:1034300030C132F12FC131F1120034C136F133C144
:1034400035F1120037C18EF056EC06F001EEE5F0D2
:10345000000EEE5202E0E83EFCD7056E0101395144
:10346000055C000108E1140E0101395D000103E370
:103470000101130E396F0101395114083A6F800EA2
:10348000016E37C102F03A5112EC00F001EEE5F0A6
:10349000EE5003E06EEC00F0FBD7010E0101385D49
:1034A00000011BE1020E01013A5D00010BE3800EF9
:1034B000016E37C102F001013A0512EC00F05B0E1B
:1034C0006EEC00F00001800E016E37C102F0140EA8
:1034D00012EC00F05D0E6EEC00F01200800E016E3A
:1034E0003BC102F001013C5112EC00F0030EF76EFB
:1034F000FE0EF66E66EC00F00001120002EE06F021
:10350000000EEE5202E0E83EFCD70101416F090EC9
:10351000415D000103E30101080E416F0001126AE1
:103520003EC111F0114A122A146A080E136E0101ED
:103530004151135E000E145A11501324426F3DC1C5
:103540003BF13EC13CF10001C9DF010E01013F5DCD
:10355000000136E1010E0101405D000119E1800E1C
:10356000016E3DC102F00101420512EC00F0280E8F
:103570006EEC00F0800E016E3DC102F0090E0101FB
:103580003E2512EC00F0290E6EEC00F0000117D081
:10359000800E016E3DC102F00101420512EC00F007
:1035A0005B0E6EEC00F0800E016E3DC102F0090E64
:1035B00001013E2512EC00F05D0E6EEC00F0000102
:1035C000800E016E3DC102F00101425112EC00F08B
:1035D00002EE06F0EE5003E06EEC00F0FBD70001C7
:1035E000120046C108F045C107F00A6A3C0E096E98
:1035F000FAEC00F00101476F08C048F146C108F03D
:1036000045C107F00A6A3C0E096EFAEC00F00CC0E6
:103610004AF10BC049F1800E016E43C102F0010175
:10362000445112EC00F0020E046E48C10CF047C188
:103630000BF03AEC00F03A0E6EEC00F0800E016EEA
:1036400043C102F0030E0101442512EC00F0020E0A
:10365000046E4AC10CF049C10BF03AEC00F00001D5
:10366000120001014E510001E8AE05D00101050E26
:10367000516F000103D00101040E516F090E0101C9
:10368000515D000103E30101080E516F0001126A50
:103690004CC111F0114A122A146A080E136E01016E
:1036A0005151135E000E145A11501324526F800EA4
:1036B000016E4BC102F04C5112EC00F0030EF76E9C
:1036C000FE0EF66E66EC00F0010E01014F5D00018A
:1036D00035E1010E0101505D000119E1800E016E1E
:1036E0004BC102F00101520512EC00F0280E6EEC05
:1036F00000F0800E016E4BC102F0090E01014C2555
:1037000012EC00F0290E6EEC00F0000117D0800ED4
:10371000016E4BC102F00101520512EC00F05B0E8C
:103720006EEC00F0800E016E4BC102F0090E01013B
:103730004C2512EC00F05D0E6EEC00F001014E51D4
:103740000001E8AE23D0800E016E4BC102F00101F2
:10375000525112EC00F02D0E6EEC00F001014D51B3
:103760000008536F000E4E55546F800E016E4BC112
:1037700002F0522912EC00F0040E046E54C10CF059
:1037800053C10BF03AEC00F0000110D0800E016E36
:103790004BC102F00101525112EC00F0040E046E14
:1037A0004EC10CF04DC10BF03AEC00F000011200DC
:1037B00055C157F1168216A238D0010E896F15EC4B
:1037C00006F001EE82F0040EF76E0A0EF66E11ECB2
:1037D00001F0EF6A63EC06F0020E8E6F56EC06F015
:1037E000030E8E6F56EC06F0040E8E6F56EC06F04C
:1037F000010E0101575D00010CE1800E016E940E77
:1038000030EC00F0040EF76E1E0EF66E66EC00F063
:103810000BD0800E016E940E30EC00F0040EF76EAB
:10382000340EF66E66EC00F01692ADEC06F0205207
:103830000EE0010E0101575D000104E10101576B2B
:10384000000103D00101010E576F00011682D9EC6F
:1038500006F0DAEC06F0010E935D0BE1020E896FC3
:1038600015EC06F057C155F10101010E566F00012C
:103870001200A1D7120058C15AF1168216A24DD0DB
:10388000010E896F15EC06F001EE82F0040EF76E62
:103890004A0EF66E11EC01F0EF6A63EC06F0020ED0
:1038A0008E6F56EC06F0030E8E6F56EC06F0040E8B
:1038B0008E6F56EC06F001015A5300010CE1800EA8
:1038C000016E940E30EC00F0040EF76E5E0EF66E94
:1038D00066EC00F021D0010E01015A5D00010CE1FF
:1038E000800E016E940E30EC00F0040EF76E740E34
:1038F000F66E66EC00F010D0020E01015A5D000178
:103900000BE1800E016E940E30EC00F0040EF76EA9
:103910008A0EF66E66EC00F01692ADEC06F0010E23
:10392000205C0AE1020E01015A5D000102E2010180
:103930005A2B000116820AD0202808E101015A53AF
:10394000000102E001015A0700011682D9EC06F0DD
:10395000DAEC06F0010E935D0BE1020E896F15ECB7
:1039600006F05AC158F10101010E596F0001120011
:1039700085D712005CC108F05BC107F00A6A3C0EF3
:10398000096EFAEC00F001015E6F5CC108F05BC1EA
:1039900007F00A6A3C0E096EFAEC00F00BC05FF10A
:1039A0000101606B1682000116A274D0010E896FAE
:1039B00015EC06F001EE82F0040EF76EA00EF66E26
:1039C00011EC01F0EF6A63EC06F0020E8E6F56EC1C
:1039D00006F0030E8E6F56EC06F0040E8E6F56EC5A
:1039E00006F00101605300012BE1800E016E940E80
:1039F00030EC00F0200E6EEC00F05B0E6EEC00F090
:103A0000020E046E01015E5138EC00F05D0E6EECAA
:103A100000F0200E6EEC00F03A0E6EEC00F0200E7E
:103A20006EEC00F0020E046E01015F5138EC00F004
:103A3000040EF76EB40EF66E66EC00F0000128D0AE
:103A4000800E016E940E30EC00F0200E6EEC00F053
:103A50006EEC00F0020E046E01015E5138EC00F0D5
:103A6000200E6EEC00F03A0E6EEC00F0200E6EECC4
:103A700000F05B0E6EEC00F0020E046E01015F516F
:103A800038EC00F0040EF76EBE0EF66E66EC00F039
:103A900000011692ADEC06F0010E205C17E1010169
:103AA0006053000109E1630E01015E5D000102E265
:103AB00001015E2B000108D03B0E01015F5D00019A
:103AC00002E201015F2B0001168216D0202814E1CA
:103AD00001016053000108E101015E53000102E0B1
:103AE00001015E07000107D001015F53000102E000
:103AF00001015F0700011682D9EC06F0DAEC06F04E
:103B0000010E935D1FE1020E896F15EC06F00101B5
:103B10006053000106E10101010E606F1682000191
:103B200011D001015E513C0DF3CF11F0F4CF12F032
:103B30005F5111245B6F000E12205C6F010E5D6FF0
:103B40000001120030D7120001010B0E726F126AD1
:103B500072C111F0114A122A146A080E136E040E73
:103B6000135E000E145A11501324736F756B746B2F
:103B7000766B62C178F161C177F162510001E8AE04
:103B80000BD00101010E6A6F61510008656F000ED4
:103B90006255666F000106D001016A6B62C166F171
:103BA00061C165F100016AC16BF1010E0101665D41
:103BB00000010BE305E1F50E0101655D000105E380
:103BC0000101010E666FF40E656F000166C108F019
:103BD00065C107F00A6A640E096EFAEC00F0010193
:103BE000676F66C108F065C107F00A6A640E096E66
:103BF000FAEC00F00CC066F10BC065F166C108F08C
:103C000065C107F00A6A0A0E096EFAEC00F00101BC
:103C1000686F66C108F065C107F00A6A0A0E096E8E
:103C2000FAEC00F00BC069F101016C6B6D6B63C1C4
:103C30003BF172C13CF100016EEC1AF063C17EF100
:103C4000010173057F6F0001ACEC21F00101280E2A
:103C50007C6F000196EC21F063C17EF1090E010139
:103C600072257F6F0001ACEC21F00101290E7C6F01
:103C7000000196EC21F063C17EF173C17FF1ACECE1
:103C800021F0010E01016A5D000107E101012D0E25
:103C90007C6F000196EC21F006D001012B0E7C6FA9
:103CA000000196EC21F063C17EF1010173297F6F61
:103CB0000001ACEC21F0300E010167257C6F0001A2
:103CC00096EC21F063C17EF1020E010173257F6F36
:103CD0000001ACEC21F0300E010168257C6F000181
:103CE00096EC21F063C17EF1030E010173257F6F15
:103CF0000001ACEC21F0300E010169257C6F000160
:103D000096EC21F081BC2FD001017653000107E130
:103D10000101010E766F756B746B000123D0FF0EED
:103D20000101755DFF0ED8B4745D000103E201016D
:103D3000744B752B020E0101755D000113E305E163
:103D4000EE0E0101745D00010DE30001030E896FA9
:103D500015EC06F078C162F177C161F10101646B85
:103D6000000112008AD0010E0101765D0001D8A485
:103D700080D0020E0101755DEE0ED8B4745D0001B5
:103D8000D8B077D0010E896F15EC06F0030E010153
:103D90006C5D000104E201016C2B00016AD0126A23
:103DA00067C111F01250640DF3CF12F01150640D81
:103DB000F3CF11F0F4501226146A68C113F01450B6
:103DC0000A0DF3CF14F013500A0DF3CF13F0F45093
:103DD0001426135011261450122201016951112486
:103DE0006E6F000E12206F6F010E6A5D000109E117
:103DF00001016E510008616F000E6F55626F000186
:103E000004D06FC162F16EC161F101016251000124
:103E1000E8BE10D0010E0101625D00010BE305E177
:103E2000F50E0101615D000105E30101010E626F04
:103E3000F40E616F010162510001E8AE10D0FE0E78
:103E40000101625D07E300010AE10C0E0101615D01
:103E5000000105E20101FE0E626F0C0E616F0001B0
:103E6000020E896F15EC06F00101010E646F00016E
:103E700012000101766B756B746B0001ADEC06F0FE
:103E80002052D8B4CED1010E896F15EC06F0010195
:103E90006C5300011CE101016A53000105E10101BD
:103EA000010E6A6F000102D001016A6B01016A51C3
:103EB0006B5D00010BE001016D53000106E10101A2
:103EC000676B686B696B010E6D6F0001AAD1010E03
:103ED00001016C5D0001D8A44CD0010E205C0DE105
:103EE000050E0101675D000104E20101672B00017D
:103EF00002D00101676B00010BD001016753000183
:103F000004E001016707000103D00101050E676F9E
:103F1000050E0101675D00011EE10101686B696B1F
:103F200063C17EF1020E73257F6F000115DA300E3A
:103F3000010168257C6F0001F9D963C17EF1030E90
:103F4000010173257F6F000107DA300E0101692539
:103F50007C6F0001EBD963C17EF1010173297F6F92
:103F60000001FAD9300E010167257C6F0001DED90E
:103F700058D1020E01016C5D0001D8A4E9D0050EF4
:103F80000101675D000104E30101706B000153D082
:103F9000126A67C111F01250640DF3CF12F0115084
:103FA000640DF3CF11F0F4501226146A68C113F0B7
:103FB00014500A0DF3CF14F013500A0DF3CF13F081
:103FC000F45014261350112401016E6F1450122066
:103FD0006F6F010E6F5D00012AE305E1EA0E01013A
:103FE0006E5D000124E3010E126EF40E116E146A70
:103FF00067C113F01450640DF3CF14F01350640D27
:10400000F3CF13F0F45014261350115C116E1450BA
:104010001258126E12C008F011C007F00A6A0A0E98
:10402000096EFAEC00F00101706F000103D001018C
:10403000090E706F0001010E205C0DE1010170514D
:10404000685D000104E20101682B000102D001015A
:10405000686B00010AD001016853000104E001010E
:104060006807000102D070C168F1126A67C111F0DF
:104070001250640DF3CF12F01150640DF3CF11F014
:10408000F4501226146A68C113F014500A0DF3CFCD
:1040900014F013500A0DF3CF13F0F45014261350FC
:1040A0001126145012220101695111246E6F000E65
:1040B00012206F6F010E6F5D00013BE305E1F50E0D
:1040C00001016E5D000135E3010E126EF40E116EFA
:1040D000146A67C113F01450640DF3CF14F0135039
:1040E000640DF3CF13F0F45014261350115C116ECD
:1040F00014501258126E146A68C113F014500A0D4D
:10410000F3CF14F013500A0DF3CF13F0F45014262C
:104110001350115C0101696F63C17EF1030E7325B9
:104120007F6F000119D9300E010169257C6F0001F4
:10413000FDD863C17EF1020E010173257F6F00017E
:104140000BD9300E010168257C6F0001EFD869D0D2
:10415000030E01016C5D0001D8A463D0126A67C12F
:1041600011F01250640DF3CF12F01150640DF3CF23
:1041700011F0F4501226146A68C113F014500A0D9D
:10418000F3CF14F013500A0DF3CF13F0F4501426AC
:104190001350112401016E6F145012206F6F010E25
:1041A0006F5D00010AE305E1F40E01016E5D00019F
:1041B00004E30101716B00010CD001016E51F408A0
:1041C000716F0A0E715D000103E30101090E716F49
:1041D0000001010E205C0DE101017151695D0001DA
:1041E00004E20101692B000102D00101696B0001A9
:1041F0000AD001016953000104E0010169070001CF
:1042000002D071C169F163C17EF1030E0101732512
:104210007F6F0001A1D8300E010169257C6F00017C
:1042200085D8010EE2EC00F03BEF1EF0120079C1E0
:104230007BF1168216A24DD0010E896F15EC06F0A7
:1042400001EE82F0040EF76EC80EF66E11EC01F06E
:10425000EF6A63EC06F0020E8E6F56EC06F0030E6A
:104260008E6F56EC06F0040E8E6F56EC06F00101D0
:104270007B5300010CE1800E016E940E30EC00F0D7
:10428000040EF76EDC0EF66E66EC00F021D0010E27
:1042900001017B5D00010CE1800E016E940E30EC9B
:1042A00000F0040EF76EF20EF66E66EC00F010D021
:1042B000020E01017B5D00010BE1800E016E940E88
:1042C00030EC00F0050EF76E0A0EF66E66EC00F0AC
:1042D0001692ADEC06F0010E205C0AE1020E01011F
:1042E0007B5D000102E201017B2B000116820AD0F6
:1042F000202808E101017B53000102E001017B0756
:1043000000011682D9EC06F0DAEC06F0010E935D9E
:104310000BE1020E896F15EC06F07BC179F101010A
:10432000010E7A6F0001120085D71200808C010106
:104330007C390F0B7D6F7DC183F00001B6EC05F079
:104340000F0E01017C157D6F7DC183F00001B6EC7D
:1043500005F0320EEFEF00F0010E01017E5D00016D
:1043600004E10101806B000118D0020E01017E5DA5
:10437000000105E10101400E806F00010ED0030E27
:1043800001017E5D000105E10101140E806F000155
:1043900003D00101540E806F0001126A800E116E6D
:1043A000010180511126000E1222146A7FC113F000
:1043B0001306000E145A11501324816F81C184F02A
:0643C0000001BCEF05F056
:020000040030CA
:03000100081F1EB7
:020005008181F7
:060008000FC00FE00F40E5
:00000001FF
