:020000040000FA
:1000000000000000BBEF07F0D5EF07F0800E016E97
:10001000FE0EE1D8010EDFD8750E0E6E300E04D143
:10002000016A018E1A6E1A52D8A41A06FE0ED3D88F
:10003000025202E0022C02D0800E0ED00250020AC0
:1000400002E1C00E09D00250030A02E1940E04D06E
:100050000250040A02E1D40E026E1A500224BBD0F0
:10006000016A018E1A6EFE0EB6D81A50B4D0046A18
:10007000136E146A00960450D8B40086040E036E02
:10008000143805D8145003D8133801D813500F0B67
:10009000F60FD8B0070F0A0F22D030D803D0046A69
:1000A000136E146A00960450D8B40086050E036ED1
:1000B000270E126E100E0CD8030E126EE80E08D822
:1000C000126A640E05D8126A0A0E02D8135007D0BD
:1000D000116E14500E6E13500D6EB3D80D500D6E80
:1000E000034E0096045002E0035C07E20D50D8A4D2
:1000F000009600B602D0300F6ED0120014AE12007F
:1001000013501410D8B41200131E141E134A142ACC
:100110002D0E61D0A66AA68E0900F55002E002D825
:10012000FBD71200186E899E899C929E929CF00EBD
:100130009216185000B21ED03A0E0E6E980E74D859
:10014000330E176E29D8130E0E6E880E6DD824D874
:10015000640E69D821D8640E66D8220E176E1CD89A
:10016000280E07D80C0E05D8060E03D800821850AA
:1001700001D00080176E00A009D0899C03080AE313
:1001800009D8070E0E6ED00E4FD812000080FE0860
:1001900014E0898C173A00A00090898EF00E80162A
:1001A00017500F0B8012000000D0899E173A0000F4
:1001B00000D000B0F1D7320E36D818501200A66A1F
:1001C000A68E0900F55002E002D8FBD712009EA8C7
:1001D000FED7AD6E120001BEA5D701B4F8D7A86E48
:1001E000A66AA684550EA76EAA0EA76EA682A6B210
:1001F000FED7A694A94AAA2AA68E1200A96EA66ABC
:10020000A680A850A94AAA2AA68E1200126A116EC8
:10021000FF0E1126122200D0D8A01200030E0E6E7F
:10022000E60E02D8F5D70E6AFD0F0D6E01D00D0651
:10023000000000D0E86A0E5AFAE212000E6A126A52
:10024000116E146A136A100EF36E0E3413361436E0
:100250001150135C1250145805E31150135E1250E4
:10026000145AD8800D360E36F32EEFD70D501200EB
:1002700010C022F00FC021F00EC020F00DC01FF002
:1002800021501302F3CF0FF0F4CF10F020501402DE
:10029000F3500F26F45010221F501502F3500F2672
:1002A000F450102222501302F35010262150140251
:1002B000F350102620501502F35010261F5016023E
:1002C000F35010261F501302F3CF0DF0F4CF0EF0B1
:1002D00020501302F3500E26F4500F22000E10226D
:1002E0001F501402F3500E26F4500F22000E10225D
:1002F0001200A66AA68E0900F55002E0EE6EFBD74A
:100300001200495252495359532053746172747503
:100310007020436F6D706C65746500003D3D3D203D
:10032000454550524F4D20434F4E46494720445576
:100330004D50203D3D3D000053595354454D204301
:100340004F4E4649473A00002020575F55495F54B9
:10035000696D656F757453203D20000020736563DF
:100360006F6E647300002020575F55495F50756CB5
:1003700073654D7320203D2000002020425F4545DD
:100380005F466C616773202020203D202400494E89
:10039000505554203120434F4E4649473A002020C3
:1003A000425F49315F456E61626C656420203D208B
:1003B00000002020425F49315F53656E736F7254B5
:1003C00020203D2000002020425F49315F466C6FB5
:1003D000774D6F6465203D2000002020575F493134
:1003E0005F5363616C65342020203D200000202095
:1003F000575F49315F5363616C65323020203D2087
:1004000000002020575F49315F42505F48696768AC
:1004100020203D2000002020575F49315F42505F7F
:10042000504C502020203D2000002020575F4931B3
:100430005F42505F534C502020203D200000202080
:10044000425F49315F526C794869676820203D20DE
:1004500000002020425F49315F526C79504C50209F
:1004600020203D2000002020425F49315F526C79FE
:10047000534C502020203D2000002020425F493175
:100480005F446973706C617920203D200000494E03
:10049000505554203220434F4E4649473A002020C1
:1004A000425F49325F456E61626C656420203D2089
:1004B00000002020425F49325F53656E736F7254B3
:1004C00020203D2000002020425F49325F466C6FB3
:1004D000774D6F6465203D2000002020575F493232
:1004E0005F5363616C65342020203D200000202094
:1004F000575F49325F5363616C65323020203D2085
:1005000000002020575F49325F42505F48696768AA
:1005100020203D2000002020575F49325F42505F7D
:10052000504C502020203D2000002020575F4932B1
:100530005F42505F534C502020203D20000020207F
:10054000425F49325F526C794869676820203D20DC
:1005500000002020425F49325F526C79504C50209D
:1005600020203D2000002020425F49325F526C79FC
:10057000534C502020203D2000002020425F493273
:100580005F446973706C617920203D200000494E02
:10059000505554203320434F4E4649473A002020BF
:1005A000425F49335F456E61626C656420203D2087
:1005B00000002020425F49335F53656E736F7254B1
:1005C00020203D2000002020425F49335F466C6FB1
:1005D000774D6F6465203D2000002020575F493330
:1005E0005F5363616C65342020203D200000202093
:1005F000575F49335F5363616C65323020203D2083
:1006000000002020575F49335F42505F48696768A8
:1006100020203D2000002020575F49335F42505F7B
:10062000504C502020203D2000002020575F4933AF
:100630005F42505F534C502020203D20000020207E
:10064000425F49335F526C794869676820203D20DA
:1006500000002020425F49335F526C79504C50209B
:1006600020203D2000002020425F49335F526C79FA
:10067000534C502020203D2000002020425F493371
:100680005F446973706C617920203D2000003D3D1E
:100690003D20454E4420434F4E4649472044554D4A
:1006A00050203D3D3D004F5054494F4E5320202097
:1006B0002020202020202020202000004D61696E75
:1006C000204D656E75005365747570204D656E75AF
:1006D00000005574696C697479204D656E75000071
:1006E0005554494C49545900495252495359532081
:1006F0004D41494E20202020202020200000202095
:1007000020202020202020202020202020202020E9
:100710002020000053455455502020202020202028
:10072000202020202020202000005B496E7075745E
:1007300020315D2020200000496E7075742031202A
:1007400020202000507265737375726500005B494C
:100750006E70757420325D2020200000496E707527
:1007600074203220202020005B496E707574203385
:100770005D2020200000496E7075742033202020F9
:1007800020002028535455422920202020202000DA
:10079000575F55495F54696D656F75745300575FB6
:1007A00055495F50756C73654D730000425F454558
:1007B0005F466C6167730000505F53617665496EF8
:1007C0004366673A20536176696E6720496E70759B
:1007D000742000002020425F49315F53656E736FC3
:1007E0007254203D2000454550524F4D20534156F4
:1007F000453A20496E707574200020436F6E66691B
:100800006775726174696F6E0000425F49315F45C0
:100810006E61626C65640000425F49315F53656ED2
:10082000736F72540000425F49315F466C6F774DC1
:100830006F646500575F49315F5363616C653400D5
:10084000575F49315F5363616C6532300000575F19
:1008500049315F42505F486967680000575F49311E
:100860005F42505F504C5000575F49315F42505FCC
:10087000534C5000425F49315F526C794869676858
:100880000000425F49315F526C79504C5000425F2A
:1008900049315F526C79534C5000425F49315F449B
:1008A0006973706C61790000425F49325F456E6127
:1008B000626C65640000425F49325F53656E736F1E
:1008C00072540000425F49325F466C6F774D6F642F
:1008D0006500575F49325F5363616C653400575F51
:1008E00049325F5363616C6532300000575F4932B3
:1008F0005F42505F486967680000575F49325F4256
:10090000505F504C5000575F49325F42505F534C2C
:100910005000425F49325F526C7948696768000055
:10092000425F49325F526C79504C5000425F49320D
:100930005F526C79534C5000425F49325F44697397
:10094000706C61790000425F49335F456E61626C93
:1009500065640000425F49335F53656E736F725484
:100960000000425F49335F466C6F774D6F646500EE
:10097000575F49335F5363616C653400575F493398
:100980005F5363616C6532300000575F49335F42EB
:10099000505F486967680000575F49335F42505FA6
:1009A000504C5000575F49335F42505F534C5000EA
:1009B000425F49335F526C79486967680000425F63
:1009C00049335F526C79504C5000425F49335F525B
:1009D0006C79534C5000425F49335F446973706CCB
:1009E0006179000020626C6F636B2066696E616CD8
:1009F000697A6564207375636365737366756C6C7F
:100A00007900454550524F4D204552524F523A20A1
:100A1000496E70757420000020626C6F636B2066F5
:100A2000696E616C697A6174696F6E206661696C68
:100A30006564000020636F6E666967757261746932
:100A40006F6E2073617665206661696C6564000075
:100A5000434C4F434B2020202020202020202020CA
:100A600020202020000054696D656F7574202020BF
:100A7000000050756C736520202020200000444544
:100A80004255473A20505F45455F57726974654249
:100A90006C6B20656E747279202D20426C6F636BD5
:100AA000416464723D0044454255473A205772699B
:100AB00074696E67206D616769632062797465008F
:100AC00044454255473A204D616769632077726912
:100AD0007465206661696C65642C2073746174753B
:100AE000733D000044454255473A20577269746986
:100AF0006E672076657273696F6E20627974650027
:100B000044454255473A2056657273696F6E2077A7
:100B100072697465206661696C65642C2073746108
:100B20007475733D000044454255473A2043616C5B
:100B300063756C6174696E6720636865636B737558
:100B40006D0044454255473A2043616C63756C61C2
:100B500074656420636865636B73756D3D0044451F
:100B60004255473A20436865636B73756D20777211
:100B7000697465206661696C65642C2073746174A6
:100B800075733D0044454255473A20426C6F636B94
:100B90002066696E616C697A6174696F6E20737525
:100BA000636365737366756C000044454255473A4C
:100BB00020505F45455F436F7079426C6B202D205C
:100BC0005372633D000044454255473A20436F70DD
:100BD00079206661696C656420617420627974654E
:100BE0002000207374617475733D000044454255C4
:100BF000473A20426C6F636B20636F707920636F9C
:100C00006D706C657465642073756363657373667A
:100C1000756C6C790000454550524F4D205341563C
:100C2000453A200044454255473A20565F496E7088
:100C300075744D656E7520656E747279202D20492E
:100C40006E707574200044454255473A204C6F61E0
:100C500064656420575F5363616C65343D002057C1
:100C60005F5363616C6532303D00494E50555420EE
:100C700000002020202020202020202020200000F4
:100C8000456E61626C65202020200000456E616227
:100C90006C65640044697361626C6564000053654F
:100CA0006E736F722020202000005363616C6520FA
:100CB00034206D6100005363616C6532306D6120DA
:100CC00000004869676820425020202000004869E1
:100CD00067682054425020200000504C5042502061
:100CE000202020200000534C504250202020202063
:100CF00000004C6F77205442502020200000526C9E
:100D000079204869676820200000526C7920504C97
:100D1000502020200000526C7920534C502020207D
:100D20000000526C79204C6F77202020000044692D
:100D300073706C617920202000004265666F7265D7
:100D400020656469743A20425F53656E736F725414
:100D50003D00456469746F722072657475726E65CA
:100D6000643A20425F4E657756616C75653D0000C0
:100D70005570646174656420425F53656E736F7271
:100D80005420746F3A2000005570646174656420CB
:100D9000425F49315F53656E736F725420746F3ACE
:100DA000200043616C6C656420505F536176654937
:100DB0006E43666728004E6F206368616E6765202A
:100DC0006465746563746564000044454255473A40
:100DD000204265666F72652065646974202D205716
:100DE0005F5363616C65343D000020495F576F724B
:100DF0006B3D000044454255473A204564697420E4
:100E000072657475726E6564202D20495F576F722C
:100E10006B3D000044454255473A20416674657277
:100E200020636F6E76657273696F6E202D20575F39
:100E30005363616C65343D0044454255473A205345
:100E40006176696E6720746F20575F49315F536325
:100E5000616C6534202D206F6C643D004445425523
:100E6000473A2043616C6C696E6720505F5361762E
:100E700065496E436667280044454255473A20500D
:100E80005F53617665496E4366672072657475725B
:100E90006E6564207374617475733D0044454255FA
:100EA000473A204E6F206368616E6765202D20737E
:100EB0006B697070696E6720736176650000202031
:100EC0002020202020202020000053656E736F72A8
:100ED00020656469746F722072657475726E696ED4
:100EE000673A200044454255473A20505F456469BF
:100EF0007453335374616E6420656E747279202D5F
:100F000020495F56616C3D0044454255473A2045B3
:100F10007874726163746564202D205369676E3D37
:100F2000000020313030733D000020756E6974730D
:100F30003D0044454255473A204C6F6E6720707221
:100F4000657373202D20726573746F72696E6720EC
:100F5000495F4F72696756616C3D000044454255D8
:100F6000473A20436F6D6D697474696E6720495FFD
:100F700056616C3D0000006A100EAF6E240EAC6E20
:100F8000900EAB6E00010F0EC16E070EB46E700EA8
:100F9000D36E9B8C0F0EC16EF19EC40ED56E060EE5
:100FA000D66EF294F28AF28EF5D000011BC0DEF20A
:100FB0001CC0DFF2F4CFE0F2F3CFE1F2F2A4E1D013
:100FC000060ED66EF294262A000E27222822292207
:100FD000362A0A0E365CD8A0C9D0826B81B2822B29
:100FE000836B81B4832B846B81BC842B8251375CEF
:100FF00010E03A2A020E3A5C0BE382C037F03A6AFC
:1010000026C02AF027C02BF028C02CF029C02DF0D4
:1010100001D03A6A8351385C10E03B2A020E3B5CF7
:101020000BE383C038F03B6A26C02AF027C02BF0C0
:1010300028C02CF029C02DF001D03B6A8451395CC6
:1010400010E03C2A020E3C5C0BE384C039F03C6AA1
:1010500026C02AF027C02BF028C02CF029C02DF084
:1010600001D03C6A3750020DF3CF1BF0F4CF1CF0D7
:1010700038501B24856F3D50040DF3CF1BF0F4CF87
:101080001CF085511B24866F010E865D02E13E0631
:1010900022D0070E865D02E13E061DD00E0E865D53
:1010A00002E13E0618D0080E865D02E13E0613D02E
:1010B000020E865D02E13E2A0ED00B0E865D02E135
:1010C0003E2A09D00D0E865D02E13E2A04D0040EB0
:1010D000865D01E13E2A855325E13EBE0ED0020E1B
:1010E0003E5C0BE3414A422A26C02AF027C02BF07F
:1010F00028C02CF029C02DF014D03E50800A7E0864
:1011000010E3415202E1425203E04106000E425A0E
:10111000000126C02AF027C02BF028C02CF029C0DF
:101120002DF03E6A85C03DF039520DE1FF0E405C66
:1011300004E307E1F60E3F5C04E20A0E3F26000ED0
:101140004022000112D0405203E1C80E3F5C0AE386
:10115000010E2F6E26C02AF027C02BF028C02CF0DD
:1011600029C02DF00001406A3F6A366A305202E120
:10117000315206E082843006000E315A000101D05F
:101180008294DEC21BF0DFC21CF0E0C2F4FFE1C2B9
:10119000F3FF110090D895D844D881D8FAD820D937
:1011A00006D9ADD8456A24942F6A2D6A2C6A2B6A19
:1011B0002A6A24822490316A306A030E4B5C01E370
:1011C0004B6A030E615C02E3010E616E030E725CFA
:1011D00002E3020E726E030EF76E020EF66EDFEC85
:1011E00000F00D0EE7EC00F0C80E06EC01F024A0B4
:1011F00003D017D854D824902494EDEC0DF00CECC7
:101200000DF089C045F0020E455C09E1249426C02A
:101210002AF027C02BF028C02CF029C02DF0E7D7EA
:10122000FFD7100E926E460E936E946A896A8A6A90
:101230008B6A899C899E320E06EC01F0809C030E1D
:10124000916F0FEC0EF0050E06EC01F0030E916F9E
:101250000FEC0EF0960E13EC01F0030E916F0FECF5
:101260000EF0960E13EC01F0020E916F0FEC0EF0E3
:10127000960E13EC01F0280E926F15EC0EF0080E8E
:10128000926F15EC0EF0010E926F15EC0EF0060E3B
:10129000926F15EC0EF00C0E926F15EF0EF0996B2D
:1012A000050E986F91EC0EF006EC00F0996B020EB3
:1012B000986F91EF0EF0100E926E460E936E946A38
:1012C0001200376A81B2372A386A81B4382A396AFB
:1012D00081BC392A3750020DF3CF1BF0F4CF1CF03C
:1012E00038501B243D6E3A6A3B6A3C6A366A3E6A55
:1012F000426A416A446A436A406A3F6A120033C0E4
:1013000094F0956B37EC0EF096530EE0876B020E5F
:10131000875D09E2010E976F6EEC0EF0640E06EC2D
:1013200001F0872BF4E330D033C094F0030E956FB7
:1013300037EC0EF096530EE0876B030E875D09E2E3
:10134000020E976F6EEC0EF0960E06EC01F0872BF6
:10135000F4E31AD033C094F0020E956F37EC0EF020
:1013600096530EE0876B040E875D09E2010E976FBE
:101370006EEC0EF0640E06EC01F0872BF4E304D063
:10138000030E976F6EEC0EF0010E126EF40E07EF67
:1013900001F029EC0FF0010EA66F9BEC0FF0020E8E
:1013A000A66F9BEC0FF0030EA66F9BEF0FF0010EE4
:1013B0004C14886F885302E15E6A02D0010E5E6EA3
:1013C000020E4C14886F885302E15F6A02D0010E4E
:1013D0005F6E56C05CF055C05BF059C05DF0120006
:1013E000030EF76E1C0EF66EDFEC00F00D0EE7EC50
:1013F00000F0030EF76E380EF66EDFEC00F00D0E07
:10140000E7EC00F0030EF76E480EF66EDFEC00F02E
:10141000040E016E046A47C014F046C013F052EC8B
:1014200000F0030EF76E5C0EF66EDFEC00F00D0EB2
:10143000E7EC00F0030EF76E660EF66EDFEC00F0E0
:10144000040E016E046A49C014F048C013F052EC57
:1014500000F0200EE7EC00F06D0EE7EC00F0730EEC
:10146000E7EC00F00D0EE7EC00F0030EF76E7A0EDD
:10147000F66EDFEC00F0040E016E020E046E3350C7
:1014800038EC00F00D0EE7EC00F0030EF76E8E0E58
:10149000F66EDFEC00F00D0EE7EC00F0030EF76ED9
:1014A0009E0EF66EDFEC00F0040E016E4A504FEC1B
:1014B00000F00D0EE7EC00F0030EF76EB20EF66EC4
:1014C000DFEC00F0040E016E4B504FEC00F00D0EFF
:1014D000E7EC00F0030EF76EC60EF66EDFEC00F0E0
:1014E000040E016E4C504FEC00F00D0EE7EC00F0D6
:1014F000030EF76EDA0EF66EDFEC00F0040E016EEE
:10150000046A4EC014F04DC013F04DEC00F00D0E07
:10151000E7EC00F0030EF76EEE0EF66EDFEC00F077
:10152000040E016E046A50C014F04FC013F04DEC6D
:1015300000F00D0EE7EC00F0040EF76E020EF66EF2
:10154000DFEC00F0040E016E046A52C014F051C0CA
:1015500013F052EC00F0200EE7EC00F0730EE7EC15
:1015600000F0650EE7EC00F0630EE7EC00F00D0E06
:10157000E7EC00F0040EF76E160EF66EDFEC00F0EE
:10158000040E016E046A54C014F053C013F052EC00
:1015900000F0200EE7EC00F0730EE7EC00F0650EB3
:1015A000E7EC00F0630EE7EC00F00D0EE7EC00F066
:1015B000040EF76E2A0EF66EDFEC00F0040E016EDC
:1015C000046A56C014F055C013F052EC00F0200E1F
:1015D000E7EC00F0730EE7EC00F0650EE7EC00F0CE
:1015E000630EE7EC00F00D0EE7EC00F0040EF76E72
:1015F0003E0EF66EDFEC00F0040E016E57504FEC1D
:1016000000F00D0EE7EC00F0040EF76E520EF66ED1
:10161000DFEC00F0040E016E58504FEC00F00D0EA0
:10162000E7EC00F0040EF76E660EF66EDFEC00F0ED
:10163000040E016E59504FEC00F00D0EE7EC00F077
:10164000040EF76E7A0EF66EDFEC00F0040E016EFB
:101650005A504FEC00F00D0EE7EC00F0040EF76E60
:101660008E0EF66EDFEC00F00D0EE7EC00F0040ECF
:10167000F76E9E0EF66EDFEC00F0040E016E605009
:101680004FEC00F00D0EE7EC00F0040EF76EB20E1A
:10169000F66EDFEC00F0040E016E61504FEC00F0CE
:1016A0000D0EE7EC00F0040EF76EC60EF66EDFECE2
:1016B00000F0040E016E62504FEC00F00D0EE7ECEE
:1016C00000F0040EF76EDA0EF66EDFEC00F0040E9A
:1016D000016E046A64C014F063C013F04DEC00F0B6
:1016E0000D0EE7EC00F0040EF76EEE0EF66EDFEC7A
:1016F00000F0040E016E046A66C014F065C013F0B9
:101700004DEC00F00D0EE7EC00F0050EF76E020E4A
:10171000F66EDFEC00F0040E016E046A68C014F08F
:1017200067C013F052EC00F0200EE7EC00F0730EEF
:10173000E7EC00F0650EE7EC00F0630EE7EC00F07C
:101740000D0EE7EC00F0050EF76E160EF66EDFECF0
:1017500000F0040E016E046A6AC014F069C013F050
:1017600052EC00F0200EE7EC00F0730EE7EC00F016
:10177000650EE7EC00F0630EE7EC00F00D0EE7EC11
:1017800000F0050EF76E2A0EF66EDFEC00F0040E88
:10179000016E046A6CC014F06BC013F052EC00F0E0
:1017A000200EE7EC00F0730EE7EC00F0650EE7ECBE
:1017B00000F0630EE7EC00F00D0EE7EC00F0050E14
:1017C000F76E3E0EF66EDFEC00F0040E016E6D500B
:1017D0004FEC00F00D0EE7EC00F0050EF76E520E28
:1017E000F66EDFEC00F0040E016E6E504FEC00F070
:1017F0000D0EE7EC00F0050EF76E660EF66EDFECF0
:1018000000F0040E016E6F504FEC00F00D0EE7EC8F
:1018100000F0050EF76E7A0EF66EDFEC00F0040EA7
:10182000016E70504FEC00F00D0EE7EC00F0050E6D
:10183000F76E8E0EF66EDFEC00F00D0EE7EC00F0AA
:10184000050EF76E9E0EF66EDFEC00F0040E016ED4
:1018500071504FEC00F00D0EE7EC00F0050EF76E46
:10186000B20EF66EDFEC00F0040E016E72504FEC1B
:1018700000F00D0EE7EC00F0050EF76EC60EF66EEA
:10188000DFEC00F0040E016E73504FEC00F00D0E13
:10189000E7EC00F0050EF76EDA0EF66EDFEC00F006
:1018A000040E016E046A75C014F074C013F04DECA0
:1018B00000F00D0EE7EC00F0050EF76EEE0EF66E82
:1018C000DFEC00F0040E016E046A77C014F076C0FD
:1018D00013F04DEC00F00D0EE7EC00F0060EF76E85
:1018E000020EF66EDFEC00F0040E016E046A79C0A1
:1018F00014F078C013F052EC00F0200EE7EC00F08A
:10190000730EE7EC00F0650EE7EC00F0630EE7EC19
:1019100000F00D0EE7EC00F0060EF76E160EF66EF8
:10192000DFEC00F0040E016E046A7BC014F07AC094
:1019300013F052EC00F0200EE7EC00F0730EE7EC31
:1019400000F0650EE7EC00F0630EE7EC00F00D0E22
:10195000E7EC00F0060EF76E2A0EF66EDFEC00F0F4
:10196000040E016E046A7DC014F07CC013F052ECCA
:1019700000F0200EE7EC00F0730EE7EC00F0650ECF
:10198000E7EC00F0630EE7EC00F00D0EE7EC00F082
:10199000060EF76E3E0EF66EDFEC00F0040E016EE2
:1019A0007E504FEC00F00D0EE7EC00F0060EF76EE7
:1019B000520EF66EDFEC00F0040E016E7F504FEC1D
:1019C00000F00D0EE7EC00F0060EF76E660EF66EF8
:1019D000DFEC00F0040E016E80514FEC00F00D0EB4
:1019E000E7EC00F0060EF76E7A0EF66EDFEC00F014
:1019F000040E016E81514FEC00F00D0EE7EC00F08B
:101A0000060EF76E8E0EF66EDFEC00F00D0EE7ECB4
:101A100000F00D0EE7EF00F0040E8C6F8A6B8B6BFD
:101A20002490248224A296D0010E976F57D901EEFC
:101A3000D6F0060EF76EA60EF66E79EC01F0EF6AA0
:101A40008DD9020E9C6F7DD9030E9C6F7AD9040E3E
:101A50009C6F77D9020E8A5D02E28B6B16D0FF0E67
:101A60008C25056E066AFF0E062206520CE1055013
:101A70008A5D09E3030E8C5D04E3030E8C5D8B6FBE
:101A800001D08B6B02D08A058B6F020E8E6F050E14
:101A90008E5DD8B05ED08B518E251B6E1C6A1C36B5
:101AA000020E1B5C8F6F8F518A5D03E1010E8D6FFB
:101AB00001D08D6B8F530FE18EC09DF001EEF7F0DA
:101AC000060EF76EBC0EF66E79EC01F0EF6A8DC073
:101AD0009EF05AD93BD0010E8F5D0FE18EC09DF074
:101AE00001EEF7F0060EF76EC60EF66E79EC01F019
:101AF000EF6A8DC09EF048D929D0020E8F5D0FE1AC
:101B00008EC09DF001EEF7F0060EF76ED20EF66E67
:101B100079EC01F0EF6A8DC09EF036D917D0030E34
:101B20008F5D11E18EC09DF001EEF7F0420EEE6E7A
:101B3000610EEE6E630EEE6E6B0EEE6EEF6A8DC092
:101B40009EF022D903D08EC09CF0FBD88E2BD8A05B
:101B50009ED724924DD92E5215E0010E2E5C0EE137
:101B6000FF0E8C25056E066AFF0E0622065203E163
:101B700005508A5D02E200018A2B03D08A5301E0FE
:101B80008A07248261D961D9010EA15D24E1020E88
:101B9000976FA4D88A5304E1010E896F12001AD0FE
:101BA000010E8A5D05E155EC11F0ABC090F012D04A
:101BB000020E8A5D0CE102EE18F0060EF76EE00EE2
:101BC000F66E79EC01F0EF6A67EC13F003D0010ECA
:101BD000896F1200248226D712002490248224A226
:101BE00014D001EED6F0060EF76EE80EF66E79EC24
:101BF00001F0EF6AB3D8020E9C6FA3D8030E9C6F5E
:101C0000A0D8040E9C6F9DD824921ED91ED9010E17
:101C1000A15D03E1020E976F61D0E1D7120091C080
:101C2000B2F096EC13F0AEEF13F0809C92390F0BEC
:101C3000936F93C091F0F3DF0F0E9215936F93C0E3
:101C400091F0EDDF010E925D010ED8A4000E236E1F
:101C5000020E925D010ED8A4000E231204E0020EC3
:101C600006EC01F003D0320E13EC01F01200955394
:101C700004E1010E9415966F30D0010E955D04E1DC
:101C8000020E9415966F29D0020E955D04E1040EA4
:101C90009415966F22D0030E955D04E1080E9415FD
:101CA000966F1BD0040E955D04E1100E9415966F8F
:101CB00014D0050E955D04E1200E9415966F0DD09D
:101CC000060E955D04E1400E9415966F06D0070E42
:101CD000955D03E1800E9415966F1200975304E111
:101CE000316A0A0E306E1CD0010E975D04E1316A34
:101CF000140E306E15D0020E975D04E1316A320E7B
:101D0000306E0ED0030E975D04E1316AC80E306E5E
:101D100007D0040E975D04E1030E316EE80E306EBD
:101D200012009B6B010E9A6F9A51985D9B519959C5
:101D300007E3010E06EC01F09A2B000E9B23F4E35F
:101D40001200800E016E9CC002F0010E12EC00F039
:101D5000060EF76EFE0EF66E8AEF00F0800E016E34
:101D600030EC00F0060EF76EFE0EF66E8AEC00F018
:101D7000800E016E30EC00F001EED6F0EE5003E084
:101D800092EC00F0FBD71200800E016E9DC002F0B5
:101D9000010E12EC00F0060EF76EFE0EF66E8AECE7
:101DA00000F0010E9E5D15E1800E016E9DC002F0F7
:101DB000010E12EC00F05B0E92EC00F001EEF7F079
:101DC000EE5003E092EC00F0FBD75D0E92EC00F0D9
:101DD0000ED0800E016E9DC002F0020E12EC00F0DB
:101DE00001EEF7F0EE5003E092EC00F0FBD71200AA
:101DF000F29E42C0A0F041C09FF0F28E9F51435C22
:101E0000A05144580BE2010E2E6E26C02AF027C0C6
:101E10002BF028C02CF029C02DF011D043509F5D2D
:101E20004450A0590BE2FF0E2E6E26C02AF027C0A8
:101E30002BF028C02CF029C02DF001D02E6AA0C0B4
:101E400044F09FC043F0120012002FC0A1F02F6A8F
:101E50001200A46BA36BA4C0BCF0A3C0BBF0F9EC50
:101E600013F0BDC0A5F0A5533AE1020EA325B56F4E
:101E7000000EA421B66FDFEC13F0B8C047F0B7C076
:101E800046F0040EA325B56F000EA421B66FDFEC5B
:101E900013F0B8C049F0B7C048F0080EA325A96EEA
:101EA000000EA421AA6EFFEC00F0336EC36B460E49
:101EB000C26FC56B0A0EC46F010EC76F2C0EC66FC2
:101EC00030EC14F0C36B480EC26FC56B0A0EC46FC2
:101ED000070EC76FD00EC66F30EC14F027D081EC20
:101EE00019F0D15308E1330EB36F020EB46FB8ECA2
:101EF00013F0A56B1BD0E3EC19F0DC5308E1330EB3
:101F0000B36F030EB46FB8EC13F0A56B0FD0476A34
:101F10003C0E466E496A320E486E336A330EB36F1A
:101F2000B46BB8EC13F043EC14F0A56BA5C032F021
:101F3000A5C0A2F012001C6A200E1B6E1E6AA6C06D
:101F40001DF01D06000E1E5A1E50200DF3CF1EF070
:101F50001D50200DF3CF1DF0F4501E261D501B24E4
:101F6000A86F1E501C20A96FA9C0BCF0A8C0BBF070
:101F7000F9EC13F0BDC0AAF0AA53D8A480D1010E89
:101F8000A65DD8A47CD0020EA825A96E000EA921BA
:101F9000AA6EFFEC00F04A6E030EA825A96E000E93
:101FA000A921AA6EFFEC00F04B6E040EA825A96EC5
:101FB000000EA921AA6EFFEC00F04C6E050EA825BC
:101FC000B56F000EA921B66FDFEC13F0B8C04EF06C
:101FD000B7C04DF0070EA825B56F000EA921B66F4A
:101FE000DFEC13F0B8C050F0B7C04FF0090EA825D1
:101FF000B56F000EA921B66FDFEC13F0B8C052F038
:10200000B7C051F00B0EA825B56F000EA921B66F11
:10201000DFEC13F0B8C054F0B7C053F00D0EA82594
:10202000B56F000EA921B66FDFEC13F0B8C056F003
:10203000B7C055F00F0EA825A96E000EA921AA6EF3
:10204000FFEC00F0576E100EA825A96E000EA92116
:10205000AA6EFFEC00F0586E110EA825A96E000EB6
:10206000A921AA6EFFEC00F0596E120EA825A96EE8
:10207000000EA921AA6EFFEC00F05A6EFFD0020EEE
:10208000A65DD8A47CD0020EA825A96E000EA921B9
:10209000AA6EFFEC00F0606E030EA825A96E000E7C
:1020A000A921AA6EFFEC00F0616E040EA825A96EAE
:1020B000000EA921AA6EFFEC00F0626E050EA825A5
:1020C000B56F000EA921B66FDFEC13F0B8C064F055
:1020D000B7C063F0070EA825B56F000EA921B66F33
:1020E000DFEC13F0B8C066F0B7C065F0090EA825A4
:1020F000B56F000EA921B66FDFEC13F0B8C068F021
:10210000B7C067F00B0EA825B56F000EA921B66FFA
:10211000DFEC13F0B8C06AF0B7C069F00D0EA82567
:10212000B56F000EA921B66FDFEC13F0B8C06CF0EC
:10213000B7C06BF00F0EA825A96E000EA921AA6EDC
:10214000FFEC00F06D6E100EA825A96E000EA921FF
:10215000AA6EFFEC00F06E6E110EA825A96E000E9F
:10216000A921AA6EFFEC00F06F6E120EA825A96ED1
:10217000000EA921AA6EFFEC00F0706E7FD0030E56
:10218000A65DD8A47BD0020EA825A96E000EA921B9
:10219000AA6EFFEC00F0716E030EA825A96E000E6A
:1021A000A921AA6EFFEC00F0726E040EA825A96E9C
:1021B000000EA921AA6EFFEC00F0736E050EA82593
:1021C000B56F000EA921B66FDFEC13F0B8C075F043
:1021D000B7C074F0070EA825B56F000EA921B66F21
:1021E000DFEC13F0B8C077F0B7C076F0090EA82581
:1021F000B56F000EA921B66FDFEC13F0B8C079F00F
:10220000B7C078F00B0EA825B56F000EA921B66FE8
:10221000DFEC13F0B8C07BF0B7C07AF00D0EA82544
:10222000B56F000EA921B66FDFEC13F0B8C07DF0DA
:10223000B7C07CF00F0EA825A96E000EA921AA6ECA
:10224000FFEC00F07E6E100EA825A96E000EA921ED
:10225000AA6EFFEC00F07F6E110EA825A96E000E8D
:10226000A921AA6EFFEC00F0806F120EA825A96EBE
:10227000000EA921AA6EFFEC00F0816F11D0A6C05C
:10228000D5F0A3EC19F0D65302E1AA6B09D0A6C091
:10229000DEF070EC1AF0A6C0CCF0B4EC14F0AA6B2F
:1022A000AAC032F0AAC0A7F01200050EAE6FAC6B48
:1022B000AD6B2490248224A2C6D1010E976F6EECE0
:1022C0000EF001EED6F0070EF76E140EF66E79ECF6
:1022D00001F0EF6AAEEC0EF0020E9C6FA1EC0EF076
:1022E000030E9C6FA1EC0EF0040E9C6FA1EC0EF09F
:1022F000020EAC5D02E2AD6B16D0FF0EAE25056E90
:10230000066AFF0E062206520CE10550AC5D09E399
:10231000030EAE5D04E3030EAE5DAD6F01D0AD6B99
:1023200002D0AC05AD6F020EB06F050EB05DD8B037
:1023300089D1FE0EB0251B6E1C6AFF0E1C22AD510A
:102340001B24B16FB151AC5D03E1010EAF6F01D041
:10235000AF6BB153D8A469D0800E016EB0C002F04B
:10236000010E12EC00F0060EF76EFE0EF66E8AEC11
:1023700000F0010EAF5D0EE1800E016EB0C002F004
:10238000010E12EC00F0070EF76E2A0EF66E8AECC4
:1023900000F00DD0800E016EB0C002F0020E12EC03
:1023A00000F0070EF76E380EF66E8AEC00F04B5216
:1023B0000EE1800E016EB0C002F00D0E12EC00F0C6
:1023C000070EF76E440EF66E8AEC00F02DD0010E6B
:1023D0004B5C14E1800E016EB0C002F0110E12ECE5
:1023E00000F0540E92EC00F0650E92EC00F06D0ED1
:1023F00092EC00F0700E92EC00F016D0020E4B5CE6
:1024000013E1800E016EB0C002F0110E12EC00F06C
:10241000460E92EC00F06C0E92EC00F06F0E92EC17
:1024200000F0770E92EC00F00AD1010EB15DD8A455
:1024300069D0800E016EB0C002F0010E12EC00F007
:10244000060EF76EFE0EF66E8AEC00F0010EAF5D22
:102450000EE1800E016EB0C002F0010E12EC00F031
:10246000070EF76E4E0EF66E8AEC00F00DD0800E61
:10247000016EB0C002F0020E12EC00F0070EF76E13
:102480005C0EF66E8AEC00F061520EE1800E016E79
:10249000B0C002F00D0E12EC00F0070EF76E440E05
:1024A000F66E8AEC00F02DD0010E615C14E1800E16
:1024B000016EB0C002F0110E12EC00F0540E92EC5E
:1024C00000F0650E92EC00F06D0E92EC00F0700ED4
:1024D00092EC00F016D0020E615C13E1800E016EEA
:1024E000B0C002F0110E12EC00F0460E92EC00F0BB
:1024F0006C0E92EC00F06F0E92EC00F0770E92EC06
:1025000000F09DD0020EB15DD8A469D0800E016E9E
:10251000B0C002F0010E12EC00F0060EF76EFE0ED7
:10252000F66E8AEC00F0010EAF5D0EE1800E016EDA
:10253000B0C002F0010E12EC00F0070EF76E680E4C
:10254000F66E8AEC00F00DD0800E016EB0C002F085
:10255000020E12EC00F0070EF76E760EF66E8AECA5
:1025600000F072520EE1800E016EB0C002F00D0E4E
:1025700012EC00F0070EF76E440EF66E8AEC00F0D7
:102580002DD0010E725C14E1800E016EB0C002F01D
:10259000110E12EC00F0540E92EC00F0650E92EC6D
:1025A00000F06D0E92EC00F0700E92EC00F016D080
:1025B000020E725C13E1800E016EB0C002F0110ECB
:1025C00012EC00F0460E92EC00F06C0E92EC00F073
:1025D0006F0E92EC00F0770E92EC00F030D0030E0C
:1025E000B15D14E1B0C09DF001EEF7F0430EEE6E68
:1025F0006C0EEE6E6F0EEE6E630EEE6E6B0EEE6E8A
:10260000EF6AAFC09EF0C4EC0EF019D0040EB15DBD
:1026100012E1B0C09DF001EEF7F0420EEE6E610ED9
:10262000EE6E630EEE6E6B0EEE6EEF6AAFC09EF056
:10263000C4EC0EF004D0B0C09CF0A1EC0EF0B02BB6
:10264000D8A073D62492F8EC0EF02E5215E0010EAD
:102650002E5C0EE1FF0EAE25056E066AFF0E062209
:10266000065203E10550AC5D02E20001AC2B03D041
:10267000AC5301E0AC07248224EC0FF025EC0FF002
:10268000010EA15D22E1020E976F6EEC0EF0AC53CD
:1026900004E1BCEC1AF0248218D0010EAC5D04E118
:1026A000C5EC1AF0248211D0020EAC5D04E1CEEC30
:1026B0001AF024820AD0030EAC5D04E1D7EC1AF0C4
:1026C000248203D0010EAB6F1200F5D512002490C6
:1026D00001EED6F012EE18F0200EE75204E0E6CF3D
:1026E000EEFFE82EFAD7070EF76E820EF66E79EC43
:1026F00001F0EF6AAEEC0EF0020E9C6FA1EC0EF052
:10270000030E9C6FA1EC0EF0040E9C6FA1EC0EF07A
:1027100024EC0FF025EC0FF0010EA15D05E1020E97
:10272000976F6EEC0EF001D0F3D71200B23102E3D6
:10273000898001D08990B251E8A202D0898201D06B
:102740008992B251E8A402D0898401D08994B2510F
:10275000E8A602D0898601D089961200898E020EE1
:10276000E82EFED700000000899E280E13EF01F02E
:10277000B45302E1B38122D0010EB45D02E1B38310
:102780001DD0020EB45D02E1B38518D0030EB45D16
:1027900002E1B38713D0040EB45D02E1B3890ED019
:1027A000050EB45D02E1B38B09D0060EB45D02E103
:1027B000B38D04D0070EB45D01E1B38F1200B6C033
:1027C000AAFFB5C0A9FFFFEC00F0B96F010EB52557
:1027D000A96E000EB621AA6EFFEC00F0BA6FBAC067
:1027E0001CF01B6AB9511B24B76F000E1C20B86F78
:1027F0001200BCC0AAFFBBC0A9FFFFEC00F0C06F75
:10280000A50EC05D03E0010EBD6F1200010EBB25D9
:10281000A96E000EBC21AA6EFFEC00F0C16F010E84
:10282000C15D03E0020EBD6F12001F0EBB25A96E35
:10283000000EBC21AA6EFFEC00F0BE6FBCC0FBF026
:10284000BBC0FAF01F0EFC6F34EC1CF0FDC0BFF0F3
:10285000BE51BF5D03E0030EBD6F1200BD6B1200E1
:10286000C451C25DC551C35904E2C5C0C3F0C4C060
:10287000C2F0C251C65DC351C75904E2C7C0C3F01C
:10288000C6C0C2F01200CA6BC96B02EE7BF0070E25
:10289000F76E900EF66E79EC01F0EF6A47C01EF10C
:1028A00046C01DF14CEC1EF0020EC925F06F000E63
:1028B000CA21F16F47C0F3F046C0F2F013EC1CF0F0
:1028C000F4C0CBF0CB5303E0CBC0C8F0120002EE53
:1028D0007BF0070EF76E9E0EF66E79EC01F0EF6A54
:1028E00049C01EF148C01DF14CEC1EF0040EC92574
:1028F000F06F000ECA21F16F49C0F3F048C0F2F04A
:1029000013EC1CF0F4C0CBF0CB5303E0CBC0C8F009
:10291000120002EE5AF0070EF76EAC0EF66E79EC6E
:1029200001F0EF6A33C01CF12BEC1EF0080EC92534
:10293000EA6F000ECA21EB6F33C0ECF0F0EC1BF035
:10294000EDC0CBF0CB5303E0CBC0C8F01200CAC03F
:1029500002F1C9C001F14EEC1CF003C1CBF0CBC0B9
:1029600032F0CBC0C8F012001C6A200E1B6E1E6A2B
:10297000CCC01DF01D06000E1E5A1E50200DF3CFB8
:102980001EF01D50200DF3CF1DF0F4501E261D50DB
:102990001B24CE6F1E501C20CF6F070EF76EB80E93
:1029A000F66EDFEC00F0040E016ECC514FEC00F03F
:1029B0000D0EE7EC00F0070EF76ED40EF66EDFECAE
:1029C00000F0040E016E4B504FEC00F00D0EE7ECE2
:1029D00000F0070EF76EE60EF66EDFEC00F0040E68
:1029E000016ECC514FEC00F0070EF76EFA0EF66E4A
:1029F000DFEC00F00D0EE7EC00F0010ECC5DD8A48A
:102A000064D102EE5AF0080EF76E0A0EF66E79ECFB
:102A100001F0EF6A4AC01CF12BEC1EF0020ECE252D
:102A2000EA6F000ECF21EB6F4AC0ECF0F0EC1BF028
:102A3000EDC0D0F0D05319E102EE5AF0080EF76E57
:102A4000180EF66E79EC01F0EF6A4BC01CF12BEC1E
:102A50001EF0030ECE25EA6F000ECF21EB6F4BC0A8
:102A6000ECF0F0EC1BF0EDC0D0F0D05319E102EE29
:102A70005AF0080EF76E260EF66E79EC01F0EF6A4A
:102A80004CC01CF12BEC1EF0040ECE25EA6F000E9C
:102A9000CF21EB6F4CC0ECF0F0EC1BF0EDC0D0F0B0
:102AA000D05323E102EE39F0080EF76E340EF66EC5
:102AB00079EC01F0EF6A4EC0F7F04DC0F6F02FEC64
:102AC0001CF0F9C01BF1F8C01AF109EC1EF0050E5C
:102AD000CE25F06F000ECF21F16F4EC0F3F04DC048
:102AE000F2F013EC1CF0F4C0D0F0D05323E102EE6E
:102AF00039F0080EF76E400EF66E79EC01F0EF6AD1
:102B000050C0F7F04FC0F6F02FEC1CF0F9C01BF1ED
:102B1000F8C01AF109EC1EF0070ECE25F06F000E7A
:102B2000CF21F16F50C0F3F04FC0F2F013EC1CF066
:102B3000F4C0D0F0D0531DE102EE7BF0080EF76E2A
:102B40004E0EF66E79EC01F0EF6A52C01EF151C0E4
:102B50001DF14CEC1EF0090ECE25F06F000ECF21BA
:102B6000F16F52C0F3F051C0F2F013EC1CF0F4C05E
:102B7000D0F0D0531DE102EE7BF0080EF76E5C0E34
:102B8000F66E79EC01F0EF6A54C01EF153C01DF1EE
:102B90004CEC1EF00B0ECE25F06F000ECF21F16F26
:102BA00054C0F3F053C0F2F013EC1CF0F4C0D0F0BA
:102BB000D0531DE102EE7BF0080EF76E680EF66E44
:102BC00079EC01F0EF6A56C01EF155C01DF14CECD6
:102BD0001EF00D0ECE25F06F000ECF21F16F56C006
:102BE000F3F055C0F2F013EC1CF0F4C0D0F0D05369
:102BF00019E102EE5AF0080EF76E740EF66E79ECDB
:102C000001F0EF6A57C01CF12BEC1EF00F0ECE2521
:102C1000EA6F000ECF21EB6F57C0ECF0F0EC1BF029
:102C2000EDC0D0F0D05319E102EE5AF0080EF76E65
:102C3000820EF66E79EC01F0EF6A58C01CF12BECB5
:102C40001EF0100ECE25EA6F000ECF21EB6F58C09C
:102C5000ECF0F0EC1BF0EDC0D0F0D05319E102EE37
:102C60005AF0080EF76E8E0EF66E79EC01F0EF6AF0
:102C700059C01CF12BEC1EF0110ECE25EA6F000E90
:102C8000CF21EB6F59C0ECF0F0EC1BF0EDC0D0F0B1
:102C9000D05319E102EE5AF0080EF76E9A0EF66E56
:102CA00079EC01F0EF6A5AC01CF12BEC1EF0120E09
:102CB000CE25EA6F000ECF21EB6F5AC0ECF0F0EC9E
:102CC0001BF0EDC0D0F032EF19F0020ECC5DD8A4AD
:102CD00063D102EE5AF0080EF76EA80EF66E79EC8C
:102CE00001F0EF6A60C01CF12BEC1EF0020ECE2545
:102CF000EA6F000ECF21EB6F60C0ECF0F0EC1BF040
:102D0000EDC0D0F0D05319E102EE5AF0080EF76E84
:102D1000B60EF66E79EC01F0EF6A61C01CF12BEC97
:102D20001EF0030ECE25EA6F000ECF21EB6F61C0BF
:102D3000ECF0F0EC1BF0EDC0D0F0D05319E102EE56
:102D40005AF0080EF76EC40EF66E79EC01F0EF6AD9
:102D500062C01CF12BEC1EF0040ECE25EA6F000EB3
:102D6000CF21EB6F62C0ECF0F0EC1BF0EDC0D0F0C7
:102D7000D05323E102EE39F0080EF76ED20EF66E54
:102D800079EC01F0EF6A64C0F7F063C0F6F02FEC65
:102D90001CF0F9C01BF1F8C01AF109EC1EF0050E89
:102DA000CE25F06F000ECF21F16F64C0F3F063C049
:102DB000F2F013EC1CF0F4C0D0F0D05323E102EE9B
:102DC00039F0080EF76EDE0EF66E79EC01F0EF6A60
:102DD00066C0F7F065C0F6F02FEC1CF0F9C01BF1EF
:102DE000F8C01AF109EC1EF0070ECE25F06F000EA8
:102DF000CF21F16F66C0F3F065C0F2F013EC1CF068
:102E0000F4C0D0F0D0531DE102EE7BF0080EF76E57
:102E1000EC0EF66E79EC01F0EF6A68C01EF167C047
:102E20001DF14CEC1EF0090ECE25F06F000ECF21E7
:102E3000F16F68C0F3F067C0F2F013EC1CF0F4C05F
:102E4000D0F0D0531DE102EE7BF0080EF76EFA0EC3
:102E5000F66E79EC01F0EF6A6AC01EF169C01DF1EF
:102E60004CEC1EF00B0ECE25F06F000ECF21F16F53
:102E70006AC0F3F069C0F2F013EC1CF0F4C0D0F0BB
:102E8000D0531DE102EE7BF0090EF76E060EF66ED2
:102E900079EC01F0EF6A6CC01EF16BC01DF14CECD7
:102EA0001EF00D0ECE25F06F000ECF21F16F6CC01D
:102EB000F3F06BC0F2F013EC1CF0F4C0D0F0D05380
:102EC00019E102EE5AF0090EF76E120EF66E79EC69
:102ED00001F0EF6A6DC01CF12BEC1EF00F0ECE2539
:102EE000EA6F000ECF21EB6F6DC0ECF0F0EC1BF041
:102EF000EDC0D0F0D05319E102EE5AF0090EF76E92
:102F0000200EF66E79EC01F0EF6A6EC01CF12BEC2E
:102F10001EF0100ECE25EA6F000ECF21EB6F6EC0B3
:102F2000ECF0F0EC1BF0EDC0D0F0D05319E102EE64
:102F30005AF0090EF76E2C0EF66E79EC01F0EF6A7E
:102F40006FC01CF12BEC1EF0110ECE25EA6F000EA7
:102F5000CF21EB6F6FC0ECF0F0EC1BF0EDC0D0F0C8
:102F6000D05319E102EE5AF0090EF76E380EF66EE4
:102F700079EC01F0EF6A70C01CF12BEC1EF0120E20
:102F8000CE25EA6F000ECF21EB6F70C0ECF0F0ECB5
:102F90001BF0EDC0D0F066D1030ECC5DD8A462D199
:102FA00002EE5AF0090EF76E460EF66E79EC01F05D
:102FB000EF6A71C01CF12BEC1EF0020ECE25EA6FF9
:102FC000000ECF21EB6F71C0ECF0F0EC1BF0EDC008
:102FD000D0F0D05319E102EE5AF0090EF76E540EFC
:102FE000F66E79EC01F0EF6A72C01CF12BEC1EF06A
:102FF000030ECE25EA6F000ECF21EB6F72C0ECF00E
:10300000F0EC1BF0EDC0D0F0D05319E102EE5AF015
:10301000090EF76E620EF66E79EC01F0EF6A73C07E
:103020001CF12BEC1EF0040ECE25EA6F000ECF2112
:10303000EB6F73C0ECF0F0EC1BF0EDC0D0F0D053B0
:1030400023E102EE39F0090EF76E700EF66E79ECA0
:1030500001F0EF6A75C0F7F074C0F6F02FEC1CF0C9
:10306000F9C01BF1F8C01AF109EC1EF0050ECE25CF
:10307000F06F000ECF21F16F75C0F3F074C0F2F065
:1030800013EC1CF0F4C0D0F0D05323E102EE39F081
:10309000090EF76E7C0EF66E79EC01F0EF6A77C0E0
:1030A000F7F076C0F6F02FEC1CF0F9C01BF1F8C079
:1030B0001AF109EC1EF0070ECE25F06F000ECF219D
:1030C000F16F77C0F3F076C0F2F013EC1CF0F4C0AF
:1030D000D0F0D0531DE102EE7BF0090EF76E8A0EA0
:1030E000F66E79EC01F0EF6A79C01EF178C01DF13F
:1030F0004CEC1EF0090ECE25F06F000ECF21F16FC3
:1031000079C0F3F078C0F2F013EC1CF0F4C0D0F00A
:10311000D0531DE102EE7BF0090EF76E980EF66EAD
:1031200079EC01F0EF6A7BC01EF17AC01DF14CEC26
:103130001EF00B0ECE25F06F000ECF21F16F7BC07D
:10314000F3F07AC0F2F013EC1CF0F4C0D0F0D053DE
:103150001DE102EE7BF0090EF76EA40EF66E79EC1F
:1031600001F0EF6A7DC01EF17CC01DF14CEC1EF039
:103170000D0ECE25F06F000ECF21F16F7DC0F3F064
:103180007CC0F2F013EC1CF0F4C0D0F0D05319E185
:1031900002EE5AF0090EF76EB00EF66E79EC01F001
:1031A000EF6A7EC01CF12BEC1EF00F0ECE25EA6FED
:1031B000000ECF21EB6F7EC0ECF0F0EC1BF0EDC009
:1031C000D0F0D05319E102EE5AF0090EF76EBE0EA0
:1031D000F66E79EC01F0EF6A7FC01CF12BEC1EF06B
:1031E000100ECE25EA6F000ECF21EB6F7FC0ECF002
:1031F000F0EC1BF0EDC0D0F0D05319E102EE5AF024
:10320000090EF76ECA0EF66E79EC01F0EF6A80C017
:103210001CF12BEC1EF0110ECE25EA6F000ECF2113
:10322000EB6F80C0ECF0F0EC1BF0EDC0D0F0D053B1
:1032300019E102EE5AF0090EF76ED60EF66E79EC31
:1032400001F0EF6A81C01CF12BEC1EF0120ECE25AE
:10325000EA6F000ECF21EB6F81C0ECF0F0EC1BF0B9
:10326000EDC0D0F0D05334E1CFC002F1CEC001F1B7
:103270004EEC1CF003C1D0F0D05315E1070EF76EF1
:10328000E60EF66EDFEC00F0040E016ECC514FEC52
:1032900000F0090EF76EE40EF66EDFEC00F00D0E96
:1032A000E7EC00F014D00A0EF76E020EF66EDFECBB
:1032B00000F0040E016ECC514FEC00F00A0EF76ED8
:1032C000180EF66EDFEC00F00D0EE7EC00F014D0F7
:1032D0000A0EF76E020EF66EDFEC00F0040E016EC1
:1032E000CC514FEC00F00A0EF76E340EF66EDFECA8
:1032F00000F00D0EE7EC00F0D0C032F0D0C0CDF001
:103300001200D36B800ED26FD3C0BCF0D2C0BBF022
:10331000F9EC13F0BDC0D4F0D45312E1D3C007F1DF
:10332000D2C006F10101096B086B00010BEC1DF026
:103330000AC1D4F0D45304E129EC0FF0A2C0D4F0B8
:10334000D4C0D1F012001C6A200E1B6E1E6AD5C0BC
:103350001DF01D06000E1E5A1E50200DF3CF1EF04C
:103360001D50200DF3CF1DF0F4501E261D501B24C0
:10337000D96F1E501C20DA6F800ED925D76F000E32
:10338000DA21D86FD8C0BCF0D7C0BBF0F9EC13F08D
:10339000BDC0DBF0DB5314E1D8C007F1D7C006F1A4
:1033A000DAC009F1D9C008F10BEC1DF00AC1DBF05D
:1033B000DB5306E1D5C0A6F09BEC0FF0A7C0DBF015
:1033C000DBC0D6F01200B66BFA0EB56FDFEC13F06F
:1033D000B8C047F0B7C046F0475205E10A0E465C58
:1033E00002E2000E01D0010E236E010E475C06E3DF
:1033F00003E12D0E465C02E3000E01D0010E231600
:103400000001D8B46AD0B66BFC0EB56FDFEC13F0D8
:10341000B8C049F0B7C048F0C36B480EC26FC56B67
:103420000A0EC46F070EC76FD00EC66F30EC14F0D3
:10343000AA6AC80EA96EFFEC00F04A6EAA6AC90E0D
:10344000A96EFFEC00F04B6EAA6ACA0EA96EFFECE3
:1034500000F04C6EB66BCC0EB56FDFEC13F0B8C05D
:103460004EF0B7C04DF0B66BCE0EB56FDFEC13F07B
:10347000B8C050F0B7C04FF0526A516A546A536AEC
:10348000566A556A020E576E586E596E010E5A6E84
:10349000020EDE6F25D8030EDE6F22D843EC14F047
:1034A000C8C0DDF0DD5306E1010ECC6FB4EC14F0C2
:1034B000CDC0DDF0DD5306E1020ECC6FB4EC14F0AC
:1034C000CDC0DDF0DD5306E1030ECC6FB4EC14F09B
:1034D000CDC0DDF0DDC0DCF002D0010EDC6F1200EB
:1034E000010EDE5D16E1010E4A6E4B6A4C6A4E6AB1
:1034F0004D6A506E6A0E4F6E526A516A546A536A30
:10350000566A556A020E576E586E596E010E5A6E03
:1035100032D0020EDE5D17E1010E606E616E626AEE
:103520006468CE0E636E666A640E656E686A676A6A
:103530006A6A696A6C6A6B6A020E6D6E6E6A6F6A9D
:10354000010E706E18D0030EDE5D15E1716A020E79
:10355000726E736A756A746A776A640E766E796AD7
:10356000786A7B6A7A6A7D6A7C6A7E6A020E7F6EFE
:10357000806F010E816F12000101010E1F6F0001AB
:103580006EEC1EF020C1DFF012000101020E1F6F71
:1035900000016EEC1EF020C1E0F012000101030EEC
:1035A0001F6F00016EEC1EF020C1E1F01200030E4F
:1035B000E46FE36BE66BE769248224A27CD001EE22
:1035C000D6F00A0EF76E500EF66E79EC01F0EF6A47
:1035D000AEEC0EF0020E9C6FA1EC0EF0030E9C6F91
:1035E000A1EC0EF0040E9C6FA1EC0EF0E35303E18E
:1035F000010EE56F01D0E56B800E016EC00E30EC60
:1036000000F00A0EF76E660EF66E8AEC00F001010D
:10361000020E146F0B0E156F47C017F146C016F15E
:10362000E5C018F10001CBEC1DF0010EE35D03E1F4
:10363000010EE56F01D0E56B800E016E940E30EC4B
:1036400000F00A0EF76E720EF66E8AEC00F00101C1
:10365000030E0E6F0B0E0F6F49C011F148C010F131
:10366000E5C012F1000185EC1DF0020EE35D12E1F0
:10367000040E9D6F01EEF7F0420EEE6E610EEE6EDF
:10368000630EEE6E6B0EEE6EEF6A010E9E6FC4EC73
:103690000EF010D0040E9D6F01EEF7F0420EEE6EAC
:1036A000610EEE6E630EEE6E6B0EEE6EEF6A9E6B4B
:1036B000C4EC0EF02492F8EC0EF02E52D8B44BD09D
:1036C000E65317E1010E2E5C0FE1FF0EE425056EB7
:1036D000066AFF0E0622065203E10550E35D03E28F
:1036E0000001E32B248204D0E35302E0E3072482A9
:1036F00032D0E75317E1010E2E5C09E1010E475C61
:103700002C0ED8B4465C02E2464A472A09D04752FA
:1037100003E10B0E465C03E34606000E475A000128
:10372000248219D0010EE75D16E1010E2E5C09E13D
:10373000070E495CD00ED8B4485C02E2484A492AD8
:1037400009D0495203E10B0E485C03E34806000E22
:10375000495A0001248224EC0FF025EC0FF0010EF1
:10376000A15D3CE1020E976F6EEC0EF0E65317E19F
:10377000020EE35D04E1010EE26F12000FD0010EB4
:10378000E66FE3C0E7F0E35305E147C0E9F046C068
:10379000E8F004D049C0E9F048C0E8F01FD0E75392
:1037A0000DE1C36B460EC26FC56B0A0EC46F010EEE
:1037B000C76F2C0EC66F30EC14F00CD0C36B480EE4
:1037C000C26FC56B0A0EC46F070EC76FD00EC66FEF
:1037D00030EC14F043EC14F0E66BE769EED612001F
:1037E000010EEF6F040EEF5D1BE2EBC0AAFFEAC013
:1037F000A9FFEC51EFEC00F00A0E06EC01F0EBC073
:10380000AAFFEAC0A9FFFFEC00F0EE6FEE51EC5DFD
:1038100002E1ED6B1200050E06EC01F0EF2BE2E386
:10382000050EED6F1200F1C0EBF0F0C0EAF0F2C04F
:10383000ECF0D6DFEDC0F5F0F55303E0F5C0F4F0A1
:103840001200010EF025EA6F000EF121EB6FF3C0BC
:10385000ECF0C6DFEDC0F5F0F5C0F4F01200F7C0F3
:10386000F9F0F6C0F8F01200FE6BFC05256EFF6B58
:10387000FF51255C0FE3FF51FA25A96E000EFB21D5
:10388000AA6EFFEC00F00101006F00510001FE275D
:10389000FF2BEEE3FE510008FD6F12000A0EF76EDB
:1038A0007E0EF66EDFEC00F0040E016E046A02C1BB
:1038B00014F001C113F052EC00F00D0EE7EC00F033
:1038C0000A0EF76EA60EF66EDFEC00F00D0EE7ECBA
:1038D00000F002C1EBF001C1EAF0A50EEC6F80DF51
:1038E000EDC005F101010553000113E00A0EF76E6A
:1038F000C00EF66EDFEC00F0040E016E0101055102
:103900004FEC00F00D0EE7EC00F005C103F10001F3
:1039100012000A0EF76EE40EF66EDFEC00F00D0EEC
:10392000E7EC00F0010E010101250001EA6F000E35
:10393000010102210001EB6F010EEC6F51DFEDC0C0
:1039400005F101010553000113E00B0EF76E000EA7
:10395000F66EDFEC00F0040E016E010105514FEC34
:1039600000F00D0EE7EC00F005C103F100011200BC
:103970000B0EF76E260EF66EDFEC00F00D0EE7EC88
:1039800000F002C1FBF001C1FAF01F0EFC6F6CDF0A
:10399000FDC004F10B0EF76E420EF66EDFEC00F088
:1039A000040E016E020E046E0101045138EC00F0A9
:1039B0000D0EE7EC00F01F0E010101250001EA6F7A
:1039C000000E010102210001EB6F04C1ECF008DFE1
:1039D000EDC005F101010553000111E00B0EF76E7A
:1039E0005E0EF66EDFEC00F0040E016E0101055173
:1039F0004FEC00F00D0EE7EC00F0000109D00B0ECB
:103A0000F76E840EF66EDFEC00F00D0EE7EC00F0C2
:103A100005C103F112000B0EF76EAA0EF66EDFEC75
:103A200000F0040E016E046A07C114F006C113F021
:103A300052EC00F0200EE7EC00F0440EE7EC00F052
:103A4000730EE7EC00F0740EE7EC00F03D0EE7ECCF
:103A500000F0046A09C114F008C113F052EC00F040
:103A60000D0EE7EC00F001010B6B200E01010B5D68
:103A700000013EE201010B510625A96E000E07214F
:103A8000AA6EFFEC00F001010C6F0B51082500013C
:103A9000EA6F000E010109210001EB6F0CC1ECF08F
:103AA0009FDEEDC00DF101010D5300011DE00B0E75
:103AB000F76EC60EF66EDFEC00F0040E016E01012B
:103AC0000B514FEC00F00B0EF76EE20EF66EDFECD2
:103AD00000F001010D514FEC00F00D0EE7EC00F08D
:103AE0000DC10AF10001120001010B2B0001BDE321
:103AF0000B0EF76EEC0EF66EDFEC00F00D0EE7EC41
:103B000000F001010A6B000112001C6A0FC11BF0DA
:103B10001B4A1C2A1E6A080E1D6E050E1D5E000E35
:103B20001E5A1B501D240101136F0EC154F10FC109
:103B300055F1000104EC29F0010E0101125D0001B4
:103B400017E1800E016E0EC102F00101130512ECA7
:103B500000F05B0E92EC00F0800E016E0EC102F0E0
:103B6000090E01010F2512EC00F05D0E92EC00F041
:103B70000001800E016E0EC102F00101135112EC22
:103B800000F0050E046E11C114F010C113F052ECD8
:103B900000F0000112001C6A15C11BF01B4A1C2A10
:103BA0001E6A080E1D6E050E1D5E000E1E5A1B506D
:103BB0001D240101196F14C154F115C155F1000103
:103BC00004EC29F0010E0101185D000117E1800EDF
:103BD000016E14C102F00101190512EC00F05B0E38
:103BE00092EC00F0800E016E14C102F0090E01018A
:103BF000152512EC00F05D0E92EC00F0000114C1EE
:103C000065F119C166F117C168F116C167F137EFA7
:103C10002AF00C0EF76E160EF66EDFEC00F002EED8
:103C200039F0EE5003E0E7EC00F0FBD7200EE7ECB4
:103C300000F03D0EE7EC00F0200EE7EC00F0040E83
:103C4000016E046A1BC114F01AC113F04DEC00F0B0
:103C50000D0EE7EF00F00C0EF76E160EF66EDFECB1
:103C600000F002EE5AF0EE5003E0E7EC00F0FBD774
:103C7000200EE7EC00F03D0EE7EC00F0200EE7EC44
:103C800000F0040E016E01011C514FEC00F00D0E0E
:103C9000E7EC00F0000112000C0EF76E160EF66E47
:103CA000DFEC00F002EE7BF0EE5003E0E7EC00F01A
:103CB000FBD7200EE7EC00F03D0EE7EC00F0200E05
:103CC000E7EC00F0040E016E046A1EC114F01DC181
:103CD00013F052EC00F00D0EE7EF00F00C0EF76E53
:103CE000240EF66EDFEC00F0040E016E01011F5190
:103CF0004FEC00F00D0EE7EC00F0010E01011F5D2E
:103D0000000121E14AC021F14BC022F14EC024F153
:103D10004DC023F150C026F14FC025F152C028F10B
:103D200051C027F154C02AF153C029F156C02CF1DB
:103D300055C02BF157C02DF158C02EF159C02FF1AD
:103D40005AC030F14BD0020E01011F5D000121E18C
:103D500060C021F161C022F164C024F163C023F18D
:103D600066C026F165C025F168C028F167C027F15B
:103D70006AC02AF169C029F16CC02CF16BC02BF12B
:103D80006DC02DF16EC02EF16FC02FF170C030F1FB
:103D900025D0030E01011F5D000120E171C021F15A
:103DA00072C022F175C024F174C023F177C026F1EE
:103DB00076C025F179C028F178C027F17BC02AF1BF
:103DC0007AC029F17DC02CF17CC02BF17EC02DF191
:103DD0007FC02EF180C02FF181C030F10C0EF76E44
:103DE000460EF66EDFEC00F0040E016E046A24C18C
:103DF00014F023C113F052EC00F00C0EF76E5E0EBF
:103E0000F66EDFEC00F0046A26C114F025C113F051
:103E100052EC00F00D0EE7EC00F00101326B336B59
:103E2000248201012253000105E101010C0E346FCF
:103E300000010DD0010E0101225D000105E101012B
:103E40000A0E346F000103D00101050E346F010129
:103E50003405386F000124A2FBEF23F0010E976FA9
:103E60006EEC0EF0800E016E30EC00F0060EF76E78
:103E7000FE0EF66E8AEC00F0800E016E30EC00F063
:103E80000C0EF76E6A0EF66E8AEC00F0010E046EF0
:103E900001011F5150EC00F00C0EF76E720EF66E21
:103EA0008AEC00F00001020E9C6FA1EC0EF0030EF4
:103EB0009C6FA1EC0EF0040E9C6FA1EC0EF0020EB4
:103EC0000101325D000104E20101336B000121D0E8
:103ED000FF0E01013425056E066AFF0E062206520A
:103EE000000114E105500101325D00010FE3030EF2
:103EF0000101345D000106E3030E0101345D336FFF
:103F0000000102D00101336B000103D00101320531
:103F1000336F0101020E366F050E0101365D00019F
:103F2000D8B0FAEF23F0FE0E010136251B6E1C6A95
:103F3000FF0E1C2233511B24376F3751385D0001AF
:103F4000D8A0F0EF23F001013751325D000105E107
:103F50000101010E356F000102D00101356B010135
:103F600022530001D8A470D001013753000104E1AD
:103F70000101396B000167D0010E0101375D0001BD
:103F800005E10101010E396F00015DD0020E010152
:103F9000375D000105E10101020E396F000153D0C8
:103FA000030E0101375D000105E10101030E396FC8
:103FB000000149D0040E0101375D000105E1010156
:103FC000040E396F00013FD0050E0101375D00017D
:103FD00005E10101050E396F000135D0060E010122
:103FE000375D000105E10101060E396F00012BD09C
:103FF000070E0101375D000105E10101070E396F70
:10400000000121D0080E0101375D000105E1010129
:10401000080E396F000117D0090E0101375D00014C
:1040200005E10101090E396F00010DD00A0E0101F1
:10403000375D000105E101010A0E396F000102D070
:104040000101396900018AD0010E0101225D0001E0
:10405000D8A45CD001013753000104E10101396BA0
:10406000000153D0010E0101375D000105E101019E
:10407000010E396F000149D0020E0101375D0001C8
:1040800005E10101020E396F00013FD0030E01016D
:10409000375D000105E10101030E396F000135D0E4
:1040A000040E0101375D000105E10101040E396FC5
:1040B00000012BD0050E0101375D000105E1010172
:1040C000060E396F000121D0060E0101375D000197
:1040D00005E10101070E396F000117D0070E01013C
:1040E000375D000105E10101090E396F00010DD0B6
:1040F000080E0101375D000105E101010A0E396F6B
:10410000000102D001013969000128D001013753B3
:10411000000104E10101396B000120D0010E010111
:10412000375D000105E10101010E396F000116D074
:10413000020E0101375D000105E101010A0E396F30
:1041400000010CD0030E0101375D000105E1010102
:10415000090E396F000102D00101396901013929C5
:10416000000113E136C150F102EE9CF0420EEE6EFA
:10417000610EEE6E630EEE6E6B0EEE6EEF6A35C183
:1041800051F1BDEC28F0EFEF23F0010139530001AC
:104190003FE1800E016E36C102F0010E12EC00F01C
:1041A0000C0EF76E800EF66E8AEC00F0010E010127
:1041B000215D000116E136C156F101010B0E576F6A
:1041C00002EEBDF00C0EF76E8C0EF66E79EC01F07F
:1041D000EF6A35C158F10101596B000114EC29F067
:1041E00015D036C156F101010B0E576F02EEBDF02E
:1041F0000C0EF76E940EF66E79EC01F0EF6A35C195
:1042000058F10101596B000114EC29F0EFEF23F094
:10421000010E0101395D0001D8A45BD0800E016E52
:1042200036C102F0010E12EC00F00C0EF76E9E0E7D
:10423000F66E8AEC00F001012253000116E136C14E
:1042400056F101010B0E576F02EEBDF0070EF76E2F
:10425000440EF66E79EC01F0EF6A35C158F10101B8
:10426000596B000114EC29F032D0010E0101225DDE
:10427000000117E136C156F101010B0E576F02EE36
:10428000BDF0540EEE6E650EEE6E6D0EEE6E700E9F
:10429000EE6EEF6A35C158F1596B000114EC29F04C
:1042A00016D036C156F101010B0E576F02EEBDF06C
:1042B000460EEE6E6C0EEE6E6F0EEE6E770EEE6EBE
:1042C000EF6A35C158F1596B000114EC29F0EFEF9A
:1042D00023F0020E0101395D000128E1800E016E1C
:1042E00036C102F0010E12EC00F00C0EF76EAA0EB1
:1042F000F66E8AEC00F024C1F7F023C1F6F02FEC43
:104300001CF0F9C03DF1F8C03CF136C15CF101018F
:104310000B0E5D6F3DC15FF13CC15EF135C160F1D7
:10432000616B000187EC29F0EFEF23F0030E010130
:10433000395D000127E1800E016E36C102F0010EE9
:1043400012EC00F00C0EF76EB60EF66E8AEC00F072
:1043500026C1F7F025C1F6F02FEC1CF0F9C03FF1B3
:10436000F8C03EF136C15CF101010B0E5D6F3FC13B
:104370005FF13EC15EF135C160F1616B000187EC18
:1043800029F02DD2040E0101395D00012EE1010159
:10439000225300010EE1800E016E36C102F0010EC3
:1043A00012EC00F00C0EF76EC20EF66E8AEC00F006
:1043B0000DD0800E016E36C102F0010E12EC00F03D
:1043C0000C0EF76ECE0EF66E8AEC00F036C114F1CC
:1043D00001010B0E156F28C117F127C116F135C168
:1043E00018F10001CBEC1DF0FAD1050E0101395D89
:1043F00000011CE1800E016E36C102F0010E12ECCC
:1044000000F00C0EF76EDA0EF66E8AEC00F036C194
:1044100014F101010B0E156F2AC117F129C116F114
:1044200035C118F10001CBEC1DF0D9D1060E010108
:10443000395D00012EE10101225300010EE1800EE1
:10444000016E36C102F0010E12EC00F00C0EF76E98
:10445000E60EF66E8AEC00F00DD0800E016E36C1CD
:1044600002F0010E12EC00F00C0EF76EF20EF66E7A
:104470008AEC00F036C114F101010B0E156F2CC14E
:1044800017F12BC116F135C118F10001CBEC1DF06D
:10449000A6D1070E0101395D0001D8A46CD0800EB1
:1044A000016E36C102F0010E12EC00F00C0EF76E38
:1044B000FE0EF66E8AEC00F001012D5300011FE1A3
:1044C0000101200E4A6F0001A2EC28F00101200E2C
:1044D0004A6F0001A2EC28F00101200E4A6F000192
:1044E000A2EC28F001014E0E4A6F0001A2EC28F068
:1044F00001016F0E4A6F0001A2EC28F03BD0010EC3
:1045000001012D5D000119E136C156F101010B0ECB
:10451000576F02EEBDF0500EEE6E750EEE6E6C0E25
:10452000EE6E730EEE6E650EEE6EEF6A35C158F1EB
:10453000596B000114EC29F01DD0020E01012D5D14
:10454000000118E136C156F101010B0E576F02EE62
:10455000BDF04C0EEE6E610EEE6E740EEE6E630EDE
:10456000EE6E680EEE6EEF6A35C158F1596B0001C0
:1045700014EC29F034D1080E0101395D0001D8A4F2
:104580006CD0800E016E36C102F0010E12EC00F00C
:104590000D0EF76E0A0EF66E8AEC00F001012E5336
:1045A00000011FE10101200E4A6F0001A2EC28F07A
:1045B0000101200E4A6F0001A2EC28F00101200E3B
:1045C0004A6F0001A2EC28F001014E0E4A6F000173
:1045D000A2EC28F001016F0E4A6F0001A2EC28F056
:1045E0003BD0010E01012E5D000119E136C156F1EB
:1045F00001010B0E576F02EEBDF0500EEE6E750E00
:10460000EE6E6C0EEE6E730EEE6E650EEE6EEF6A73
:1046100035C158F1596B000114EC29F01DD0020E80
:1046200001012E5D000118E136C156F101010B0EAA
:10463000576F02EEBDF04C0EEE6E610EEE6E740E14
:10464000EE6E630EEE6E680EEE6EEF6A35C158F1D7
:10465000596B000114EC29F0C2D0090E0101395D3B
:104660000001D8A47ED00101225300010EE1800E8A
:10467000016E36C102F0010E12EC00F00D0EF76E65
:10468000160EF66E8AEC00F00DD0800E016E36C16B
:1046900002F0010E12EC00F00D0EF76E220EF66E17
:1046A0008AEC00F001012F5300011FE10101200EEF
:1046B0004A6F0001A2EC28F00101200E4A6F0001B0
:1046C000A2EC28F00101200E4A6F0001A2EC28F0B4
:1046D00001014E0E4A6F0001A2EC28F001016F0E9D
:1046E0004A6F0001A2EC28F03BD0010E01012F5DC2
:1046F000000119E136C156F101010B0E576F02EEB0
:10470000BDF0500EEE6E750EEE6E6C0EEE6E730E0C
:10471000EE6E650EEE6EEF6A35C158F1596B000111
:1047200014EC29F01DD0020E01012F5D000118E1EB
:1047300036C156F101010B0E576F02EEBDF04C0E63
:10474000EE6E610EEE6E740EEE6E630EEE6E680E21
:10475000EE6EEF6A35C158F1596B000114EC29F087
:104760003ED00A0E0101395D000139E1800E016E73
:1047700036C102F0010E12EC00F00D0EF76E2E0E97
:10478000F66E8AEC00F0010E0101305D000115E1CA
:1047900036C156F101010B0E576F02EEBDF0590EF6
:1047A000EE6E650EEE6E730EEE6EEF6A35C158F169
:1047B000596B000114EC29F012D036C156F10101F9
:1047C0000B0E576F02EEBDF04E0EEE6E6F0EEE6EDC
:1047D000EF6A35C158F1596B000114EC29F004D08F
:1047E00036C19CF0A1EC0EF00101362B0001D8A0DF
:1047F0008CEF1FF02492F8EC0EF02E5214E0010E14
:104800002E5C09E101013851325D000102E2010133
:10481000322B000107D001013253000102E00101F7
:1048200032070001248224EC0FF025EC0FF0010E7A
:10483000A15DD8A49FEF28F001013351325D1B6EBA
:104840001C6AD8A01C06020E1B243A6F22530001DA
:10485000D8A470D001013253000104E10101396B89
:10486000000167D0010E0101325D000105E1010187
:10487000010E396F00015DD0020E0101325D0001B1
:1048800005E10101020E396F000153D0030E010151
:10489000325D000105E10101030E396F000149D0CD
:1048A000040E0101325D000105E10101040E396FC2
:1048B00000013FD0050E0101325D000105E101015B
:1048C000050E396F000135D0060E0101325D000181
:1048D00005E10101060E396F00012BD0070E010121
:1048E000325D000105E10101070E396F000121D0A1
:1048F000080E0101325D000105E10101080E396F6A
:10490000000117D0090E0101325D000105E101012E
:10491000090E396F00010DD00A0E0101325D000150
:1049200005E101010A0E396F000102D00101396968
:1049300000018AD0010E0101225D0001D8A45CD0E3
:1049400001013253000104E10101396B000153D030
:10495000010E0101325D000105E10101010E396F17
:10496000000149D0020E0101325D000105E10101A3
:10497000020E396F00013FD0030E0101325D0001CC
:1049800005E10101030E396F000135D0040E01016C
:10499000325D000105E10101040E396F00012BD0E9
:1049A000050E0101325D000105E10101060E396FBE
:1049B000000121D0060E0101325D000105E1010177
:1049C000070E396F000117D0070E0101325D00019B
:1049D00005E10101090E396F00010DD0080E01013A
:1049E000325D000105E101010A0E396F000102D0BC
:1049F00001013969000128D001013253000104E1AD
:104A00000101396B000120D0010E0101325D00016E
:104A100005E10101010E396F000116D0020E0101FE
:104A2000325D000105E101010A0E396F00010CD071
:104A3000030E0101325D000105E10101090E396F2C
:104A4000000102D0010139690101392900010BE19E
:104A5000020E976F6EEC0EF00101010E206F000147
:104A600012009FEF28F001013953000123E1010EEC
:104A700001013B5D00011BE1010E01011F5D000111
:104A800003E121C14AF00FD0020E01011F5D0001B8
:104A900003E121C160F007D0030E01011F5D000199
:104AA00002E121C171F01FC1CCF0B4EC14F02482FA
:104AB0009FEF28F0010E0101395D0001D8A487D0D5
:104AC0000D0EF76E3A0EF66EDFEC00F0040E016E7E
:104AD000010122514FEC00F00D0EE7EC00F022C175
:104AE0007DF13AC17EF10001D2EC2BF07FC131F1B2
:104AF0000D0EF76E520EF66EDFEC00F0040E016E36
:104B0000010131514FEC00F00D0EE7EC00F0010116
:104B10003151225D0001D8B44ED031C122F10D0EC9
:104B2000F76E700EF66EDFEC00F0040E016E010100
:104B300022514FEC00F00D0EE7EC00F0010E0101E8
:104B40001F5D000111E122C14BF00D0EF76E880EC2
:104B5000F66EDFEC00F0040E016E4B504FEC00F0EF
:104B60000D0EE7EC00F00FD0020E01011F5D0001F9
:104B700003E122C161F007D0030E01011F5D0001B6
:104B800002E122C172F01FC1CCF0B4EC14F00D0EA2
:104B9000F76EA20EF66EDFEC00F0040E016E01015E
:104BA0001F514FEC00F0290EE7EC00F00D0EE7EC82
:104BB00000F0000109D00D0EF76EB60EF66EDFECB8
:104BC00000F00D0EE7EC00F024829FEF28F0020EBB
:104BD0000101395D0001D8A4EBD024C1F7F023C155
:104BE000F6F02FEC1CF0F9C041F1F8C040F141C1E2
:104BF00043F140C142F10D0EF76ECA0EF66EDFECC6
:104C000000F0040E016E046A24C114F023C113F0F5
:104C100052EC00F00D0EF76EEA0EF66EDFEC00F0CF
:104C2000046A41C114F040C113F04DEC00F00D0EC8
:104C3000E7EC00F041C1A7F140C1A6F13AC1A8F1EB
:104C40008DEC30F0AAC141F1A9C140F10D0EF76E13
:104C5000F40EF66EDFEC00F0040E016E046A41C142
:104C600014F040C113F04DEC00F00D0EE7EC00F035
:104C700001014351415D05E14251405D0001D8B45D
:104C80008CD041C14DF140C14CF10001B8EC28F08D
:104C90004FC124F14EC123F10E0EF76E140EF66EC5
:104CA000DFEC00F0040E016E046A24C114F023C18D
:104CB00013F052EC00F00D0EE7EC00F0010E0101D4
:104CC0001F5D00012DE10E0EF76E380EF66EDFEC63
:104CD00000F0040E016E046A4EC014F04DC013F0D3
:104CE00052EC00F0200EE7EC00F06E0EE7EC00F066
:104CF000650EE7EC00F0770EE7EC00F03D0EE7EC18
:104D000000F0046A24C114F023C113F052EC00F047
:104D10000D0EE7EC00F024C14EF023C14DF013D08E
:104D2000020E01011F5D000105E124C164F023C1F1
:104D300063F009D0030E01011F5D000104E124C1ED
:104D400075F023C174F00E0EF76E5C0EF66EDFEC9C
:104D500000F0040E016E01011F514FEC00F0290E0E
:104D6000E7EC00F00D0EE7EC00F01FC1CCF0000105
:104D7000B4EC14F0CDC03BF10E0EF76E780EF66E6B
:104D8000DFEC00F0040E016E01013B514FEC00F02E
:104D90000D0EE7EC00F0000109D00E0EF76E9C0E30
:104DA000F66EDFEC00F00D0EE7EC00F02482C7D1C8
:104DB000030E0101395D0001D8A44FD026C1F7F0E0
:104DC00025C1F6F02FEC1CF0F9C045F1F8C044F114
:104DD00045C147F144C146F145C1A7F144C1A6F11F
:104DE0003AC1A8F18DEC30F0AAC145F1A9C144F156
:104DF00001014751455D04E14651445D00012BE04E
:104E000045C14DF144C14CF10001B2D94FC126F169
:104E10004EC125F1010E01011F5D000105E126C112
:104E200050F025C14FF013D0020E01011F5D0001AB
:104E300005E126C166F025C165F009D0030E010128
:104E40001F5D000104E126C177F025C176F01FC186
:104E5000CCF0B4EC14F0248272D1040E0101395D5F
:104E600000013BE128C18EF127C18DF13AC18FF1DC
:104E70001AEC2EF091C149F190C148F1010128517D
:104E8000495D04E12751485D000125E049C128F151
:104E900048C127F1010E01011F5D000105E128C194
:104EA00052F027C151F013D0020E01011F5D000125
:104EB00005E128C168F027C167F009D0030E0101A0
:104EC0001F5D000104E128C179F027C178F01FC1FE
:104ED000CCF0B4EC14F0248232D1050E0101395D1E
:104EE00000013BE12AC18EF129C18DF13AC18FF158
:104EF0001AEC2EF091C149F190C148F101012A51FB
:104F0000495D04E12951485D000125E049C12AF1CC
:104F100048C129F1010E01011F5D000105E12AC10F
:104F200054F029C153F013D0020E01011F5D00019E
:104F300005E12AC16AF029C169F009D0030E010117
:104F40001F5D000104E12AC17BF029C17AF01FC175
:104F5000CCF0B4EC14F02482F2D0060E0101395DDD
:104F600000013BE12CC18EF12BC18DF13AC18FF1D3
:104F70001AEC2EF091C149F190C148F101012C5178
:104F8000495D04E12B51485D000125E049C12CF148
:104F900048C12BF1010E01011F5D000105E12CC18B
:104FA00056F02BC155F013D0020E01011F5D000118
:104FB00005E12CC16CF02BC16BF009D0030E01018F
:104FC0001F5D000104E12CC17DF02BC17CF01FC1ED
:104FD000CCF0B4EC14F02482B2D0070E0101395D9C
:104FE00000011CE12DC1C2F13AC1C3F1A3EC34F0C0
:104FF000C4C131F1010131512D5D00010DE031C11C
:105000002DF1010E01011F5D000102E12DC157F0DC
:105010001FC1CCF0B4EC14F0248291D0080E010131
:10502000395D00012CE12EC1C2F13AC1C3F1A3ECFC
:1050300034F0C4C131F1010131512E5D00011DE098
:1050400031C12EF1010E01011F5D000103E12EC1EE
:1050500058F00FD0020E01011F5D000103E12EC1C7
:105060006EF007D0030E01011F5D000102E12EC1A9
:105070007FF01FC1CCF0B4EC14F0248260D0090E94
:105080000101395D00012CE12FC1C2F13AC1C3F128
:10509000A3EC34F0C4C131F1010131512F5D0001A5
:1050A0001DE031C12FF1010E01011F5D000103E17F
:1050B0002FC159F00FD0020E01011F5D000103E165
:1050C0002FC16FF007D0030E01011F5D000102E147
:1050D0002FC180F01FC1CCF0B4EC14F024822FD08B
:1050E0000A0E0101395D00012AE130C16DF13AC1BA
:1050F0006EF1FDD96FC131F101013151305D000117
:105100001DE031C130F1010E01011F5D000103E11D
:1051100030C15AF00FD0020E01011F5D000103E102
:1051200030C170F007D0030E01011F5D000102E1E4
:1051300030C181F01FC1CCF0B4EC14F0248211EF27
:105140001FF01200808C01014A390F0B4B6F4BC1CD
:1051500091F000010FEC0EF00F0E01014A154B6F9C
:105160004BC191F000010FEC0EF0320E13EF01F085
:105170004DC14FF14CC14EF1120050C19CF0A1EC59
:105180000EF002EE9CF0000EEE5202E0E83EFCD77C
:105190000101526F140E525D000103E30101130E71
:1051A000526F010152511408536F800E016E50C1AD
:1051B00002F0535112EC00F002EE9CF0EE5003E0CE
:1051C00092EC00F0FBD7010E0101515D00011BE1E3
:1051D000020E0101535D00010BE3800E016E50C110
:1051E00002F00101530512EC00F05B0E92EC00F0AE
:1051F0000001800E016E50C102F0140E12EC00F09E
:105200005D0E92EC00F01200800E016E54C102F0AF
:105210000101555112EC00F00E0EF76EBE0EF66E47
:105220008AEC00F00001120002EEBDF0000EEE521A
:1052300002E0E83EFCD701015A6F090E5A5D0001F9
:1052400003E30101080E5A6F00011C6A57C11BF0ED
:105250001B4A1C2A1E6A080E1D6E01015A511D5E52
:10526000000E1E5A1B501D245B6F56C154F157C1CE
:1052700055F10001C9DF010E0101585D000136E161
:10528000010E0101595D000119E1800E016E56C148
:1052900002F001015B0512EC00F0280E92EC00F028
:1052A000800E016E56C102F0090E0101572512EC65
:1052B00000F0290E92EC00F0000117D0800E016E74
:1052C00056C102F001015B0512EC00F05B0E92EC9E
:1052D00000F0800E016E56C102F0090E0101572543
:1052E00012EC00F05D0E92EC00F00001800E016EF9
:1052F00056C102F001015B5112EC00F002EEBDF06C
:10530000EE5003E092EC00F0FBD7000112001C6AA3
:105310005DC11BF01B4A1C2A1E6A080E1D6E040E7E
:105320001D5E000E1E5A1B501D240101626F800E6F
:10533000016E5CC102F05D5112EC00F00E0EF76ED2
:10534000BE0EF66E8AEC00F0010E0101605D0001F8
:10535000D8A453D0010E0101615D000119E1800E56
:10536000016E5CC102F00101620512EC00F0280E32
:1053700092EC00F0800E016E5CC102F0090E01019A
:105380005D2512EC00F0290E92EC00F0000135D002
:1053900001015F510001E8AE19D0800E016E5CC1C1
:1053A00002F00101620512EC00F05B0E92EC00F0DD
:1053B000800E016E5CC102F0090E01015D2512EC48
:1053C00000F05D0E92EC00F0000117D0800E016E2F
:1053D0005CC102F00101625112EC00F05B0E92EC34
:1053E00000F0800E016E5CC102F0090E01015D2526
:1053F00012EC00F05D0E92EC00F001015F51000133
:10540000E8AE23D0800E016E5CC102F00101625152
:1054100012EC00F02D0E92EC00F001015E5100083C
:10542000636F000E5F55646F800E016E5CC102F009
:10543000622912EC00F0030E046E64C114F063C123
:1054400013F052EC00F0000110D0800E016E5CC130
:1054500002F00101622912EC00F0030E046E5FC13C
:1054600014F05EC113F052EC00F00001120068C1AC
:105470000EF067C10DF0126A3C0E116E21EC01F0C6
:105480000101696F0EC06AF168C10EF067C10DF0CD
:10549000126A3C0E116E21EC01F014C06CF113C0C5
:1054A0006BF1800E016E65C102F00101665112ECD4
:1054B00000F0020E046E6AC114F069C113F052ECE0
:1054C00000F03A0E92EC00F0800E016E65C102F021
:1054D000030E0101662512EC00F0020E046E6CC191
:1054E00014F06BC113F052EC00F000011200010146
:1054F0000B0E7B6F1C6A7BC11BF01B4A1C2A1E6AA9
:10550000080E1D6E030E1D5E000E1E5A1B501D243C
:105510007C6F6DC178F16DC170F1716B26C072F155
:1055200027C073F128C074F129C075F1766B010EA4
:10553000776F0001010E976F6EEC0EF06EC154F1A3
:105540007BC155F161DE6EC1D2F101017C05D36FE3
:1055500000017EEC36F00101280E4A6F0001F2DDF9
:105560006EC1D2F1090E01017B25D36F00017EECE3
:1055700036F00101290E4A6F0001E4DD010172518C
:10558000265C056E73512758066E74512858076EB5
:1055900075512958086E000E085C000122E30BE1EA
:1055A000000E075C1EE307E1000E065C1AE303E150
:1055B000FA0E055C16E326C072F127C073F128C00D
:1055C00074F129C075F101017653000105E1010173
:1055D000010E766F000102D00101766B0101010E10
:1055E000776F010E0101775D0001D8A44BD0010156
:1055F000776B6EC1D2F17CC1D3F100017EEC36F045
:10560000010E0101765D000113E10101200E4A6FD8
:105610000001A2EC28F00101200E4A6F0001A2EC6B
:1056200028F00101200E4A6F0001A2EC28F02AD0D8
:10563000010E0101705D000113E10101590E4A6F75
:105640000001A2EC28F00101650E4A6F0001A2ECF6
:1056500028F00101730E4A6F0001A2EC28F012D06D
:1056600001014E0E4A6F0001A2EC28F001016F0EFD
:105670004A6F0001A2EC28F00101200E4A6F0001E0
:10568000A2EC28F0F29E40C07AF13FC079F1F28E90
:10569000030E01017A5D840ED8B4795D000102E247
:1056A000000E01D0010E236E010E81BC000E2316E8
:1056B00011E0030E976F6EEC0EF081BC04D00A0E61
:1056C00006EC01F0FAD7640E06EC01F02F6A78C1FF
:1056D0006FF11200F8EC0EF02E521FE0010E976FE2
:1056E0006EEC0EF00101010E776F010E705D00018E
:1056F00004E10101706B000103D00101010E706F24
:1057000001017051785D000105E00101010E716F2A
:10571000000102D00101716B000124EC0FF025ECB7
:105720000FF0010EA15D07E1020E976F6EEC0EF017
:1057300070C16FF112002A50265C056E2B5027585D
:10574000066E2C502858076E2D502958086E46C0FA
:105750000DF047C00EF00F6A106A166A156A030E44
:10576000146EE80E136E38EC01F00DC009F00EC097
:105770000AF00FC00BF010C00CF00550095C065089
:105780000A5807500B5808500C5807E2030E976F41
:105790006EEC0EF078C16FF11200010E06EC01F014
:1057A000EDD6120001010B0E8B6F1C6A8BC11BF032
:1057B0001B4A1C2A1E6A080E1D6E080E1D5E000E76
:1057C0001E5A1B501D248C6F7DC188F17DC180F154
:1057D000030E805D000102E30101806B0101816B1A
:1057E00026C082F127C083F128C084F129C085F149
:1057F000866B010E876F0001010E976F6EEC0EF045
:105800007EC154F18BC155F104EC29F07EC1D2F177
:1058100001018C05D36F00017EEC36F00101280EEA
:105820004A6F0001A2EC28F07EC1D2F1090E0101FD
:105830008B25D36F00017EEC36F00101290E4A6FF3
:105840000001A2EC28F001018251265C056E835113
:105850002758066E84512858076E85512958086EBE
:10586000000E085C000122E30BE1000E075C1EE362
:1058700007E1000E065C1AE303E1FA0E055C16E38D
:1058800026C082F127C083F128C084F129C085F1A8
:1058900001018653000105E10101010E866F00013F
:1058A00002D00101866B0101010E876F010E01011B
:1058B000875D0001D8A410D10101876B7EC1D2F1B0
:1058C0008CC1D3F100017EEC36F0010E0101865D42
:1058D000000131E10101200E4A6F0001A2EC28F025
:1058E0000101200E4A6F0001A2EC28F00101200EF8
:1058F0004A6F0001A2EC28F00101200E4A6F00015E
:10590000A2EC28F00101200E4A6F0001A2EC28F061
:105910000101200E4A6F0001A2EC28F00101200EC7
:105920004A6F0001A2EC28F00101200E4A6F00012D
:10593000A2EC28F0D1D001018053000131E1010136
:10594000500E4A6F0001A2EC28F00101720E4A6F5E
:105950000001A2EC28F00101650E4A6F0001A2ECE3
:1059600028F00101730E4A6F0001A2EC28F001013A
:10597000730E4A6F0001A2EC28F00101750E4A6F08
:105980000001A2EC28F00101720E4A6F0001A2ECA6
:1059900028F00101650E4A6F0001A2EC28F09CD0AE
:1059A000010E0101805D000131E10101540E4A6FD9
:1059B0000001A2EC28F00101650E4A6F0001A2EC83
:1059C00028F001016D0E4A6F0001A2EC28F00101E0
:1059D000700E4A6F0001A2EC28F00101200E4A6F00
:1059E0000001A2EC28F00101200E4A6F0001A2EC98
:1059F00028F00101200E4A6F0001A2EC28F00101FD
:105A0000200E4A6F0001A2EC28F066D0020E0101C0
:105A1000805D000131E10101460E4A6F0001A2ECF8
:105A200028F001016C0E4A6F0001A2EC28F0010180
:105A30006F0E4A6F0001A2EC28F00101770E4A6F49
:105A40000001A2EC28F00101200E4A6F0001A2EC37
:105A500028F00101200E4A6F0001A2EC28F001019C
:105A6000200E4A6F0001A2EC28F00101200E4A6FBF
:105A70000001A2EC28F030D00101450E4A6F000170
:105A8000A2EC28F00101720E4A6F0001A2EC28F08E
:105A90000101720E4A6F0001A2EC28F001016F0EA5
:105AA0004A6F0001A2EC28F00101720E4A6F00015A
:105AB000A2EC28F00101200E4A6F0001A2EC28F0B0
:105AC0000101200E4A6F0001A2EC28F00101200E16
:105AD0004A6F0001A2EC28F0F29E40C08AF13FC05C
