:020000040000FA
:1000000000000000B4EF02F0CEEF02F0800E016EAF
:10001000FE0EBDD8010EBBD8750E0A6E300EE0D0B4
:10002000016A018E166E1652D8A41606FE0EAFD8BF
:10003000025202E0022C02D0800E0ED00250020AC0
:1000400002E1C00E09D00250030A02E1940E04D06E
:100050000250040A02E1D40E026E1650022497D018
:10006000016A018E166EFE0E92D8165090D0046A68
:100070000F6E106A00960450D8B40086050E036E09
:10008000270E0E6E100E0CD8030E0E6EE80E08D85A
:100090000E6A640E05D80E6A0A0E02D80F5007D0F9
:1000A0000D6E10500A6E0F50096EA4D80950096EDB
:1000B000034E0096045002E0035C07E20950D8A406
:1000C000009600B602D0300F62D01200A66AA68E4B
:1000D0000900F55002E002D8FBD71200146E899E89
:1000E000899C929E929CF00E9216145000B21ED0E3
:1000F0003A0E0A6E980E74D8330E136E29D8130E6A
:100100000A6E880E6DD824D8640E69D821D8640E82
:1001100066D8220E136E1CD8280E07D80C0E05D8F0
:10012000060E03D80082145001D00080136E00A088
:1001300009D0899C03080AE309D8070E0A6ED00E7D
:100140004FD812000080FE0814E0898C133A00A0FA
:100150000090898EF00E801613500F0B8012000055
:1001600000D0899E133A000000D000B0F1D7320EC3
:1001700036D814501200A66AA68E0900F55002E087
:1001800002D8FBD712009EA8FED7AD6E120001BEAA
:10019000A5D701B4F8D7A86EA66AA684550EA76E97
:1001A000AA0EA76EA682A6B2FED7A694A94AAA2A2C
:1001B000A68E1200A96EA66AA680A850A94AAA2AED
:1001C000A68E12000E6A0D6EFF0E0D260E2200D0B6
:1001D000D8A01200030E0A6EE60E02D8F5D70A6AFE
:1001E000FD0F096E01D00906000000D0E86A0A5A26
:1001F000FAE21200106A0F6A100EF36E0A340F361C
:1002000010360D500F5C0E50105805E30D500F5E68
:100210000E50105AD88009360A36F32EEFD70950FF
:1002200012000CC01CF00BC01BF00AC01AF009C071
:1002300019F01B500F02F3CF0BF0F4CF0CF01A5053
:100240001002F3500B26F4500C2219501102F350F7
:100250000B26F4500C221C500F02F3500C261B509E
:100260001002F3500C261A501102F3500C261950AC
:100270001202F3500C2619500F02F3CF09F0F4CFFD
:100280000AF01A500F02F3500A26F4500B22000E07
:100290000C2219501002F3500A26F4500B22000EC3
:1002A0000C221200A66AA68E0900F55002E0EE6E3E
:1002B000FBD7120053746172747570206F6B00006D
:1002C000505F42656570732832290000456E6420D6
:1002D00053746172747570004952524953595320D6
:1002E0004D41494E202020202020202000004F504A
:1002F00054494F4E53202020202020202020202011
:10030000202000004D61696E204D656E75005365BB
:10031000747570204D656E7500005574696C697454
:1003200079204D656E7500005554494C495459006B
:10033000505F426565707328000020202020202037
:1003400020202020202020202020202020200000ED
:100350002028535455422920202020202000534596
:1003600054555020202020202020202020202020F4
:1003700020200000496E707574203100496E707540
:1003800074203200496E707574203300494E505508
:1003900054203200494E505554203300494E505598
:1003A0005420312020202020202020202020202008
:1003B0000000456E61626C65202020200000456EC3
:1003C00061626C65640044697361626C656400001D
:1003D000434C4F434B202020202020202020202051
:1003E00020202020000054696D656F757420202046
:1003F000000050756C73652020202020000053659C
:100400006E736F7220202020000050726573737528
:10041000726500005363616C65346D6120200000DB
:100420005363616C6532306D612000004869676814
:100430002042502020200000504C504250202020CC
:1004400020200000534C504250202020202000004B
:10045000526C79204869676820200000526C79202E
:10046000504C502020200000526C7920534C5020DA
:1004700020200000446973706C6179202020000006
:10048000454449543A205945532F4E4F20202020AF
:10049000202020002059657320205B4E6F5D2020B6
:1004A000202020202020202000005B5965735D2043
:1004B000204E6F20202020202020202020200000FF
:1004C000454449543A204D4F4445202020202020C7
:1004D000202020005B4E6F5D202050756C736520DE
:1004E000204C6174636820202000204E6F20205B28
:1004F00050756C73655D204C61746368202020002A
:10050000204E6F20202050756C7365205B4C617409
:1005100063685D202000454449543A20574F5244B7
:100520002056414C5545202020002056616C7565B1
:100530003A205B005D202020202020202000454420
:1005400049543A204455524154494F4E20202020CE
:1005500020002020202020202020200020202020DB
:100560002020202020200000006A100EAF6E240EF4
:10057000AC6E900EAB6E00010F0EC16E070EB46E26
:10058000700ED36E9B8C0F0EC16EF19EC40ED56E95
:10059000060ED66EF294F28AF28EE9D0000117C0F0
:1005A0009EF118C09FF1F4CFA0F1F3CFA1F1F2A416
:1005B000D5D0060ED66EF2941F2A000E20222122DC
:1005C0002222302A0A0E305CD8A0BDD0806B81B2C6
:1005D000802B816B81B4812B826B81BC822B8051FB
:1005E000315C10E0342A020E345C0BE380C031F041
:1005F000346A1FC023F020C024F021C025F022C09F
:1006000026F001D0346A8151325C10E0352A020EA6
:10061000355C0BE381C032F0356A1FC023F020C087
:1006200024F021C025F022C026F001D0356A825185
:10063000335C10E0362A020E365C0BE382C033F0E6
:10064000366A1FC023F020C024F021C025F022C04C
:1006500026F001D0366A3150020DF3CF17F0F4CFF7
:1006600018F032501724836F3750040DF3CF17F072
:10067000F4CF18F083511724846F010E845D09E0D4
:10068000070E845D06E00E0E845D03E0080E845DB7
:1006900002E138060DD0020E845D09E00B0E845D88
:1006A00006E00D0E845D03E0040E845D01E1382A4E
:1006B000835325E138BE0ED0020E385C0BE33B4A73
:1006C0003C2A1FC023F020C024F021C025F022C006
:1006D00026F014D03850800A7E0810E33B5202E125
:1006E0003C5203E03B06000E3C5A00011FC023F0C1
:1006F00020C024F021C025F022C026F0386A83C033
:1007000037F033520DE1FF0E3A5C04E307E1F60ED9
:10071000395C04E20A0E3926000E3A22000112D09A
:100720003A5203E1C80E395C0AE3010E286E1FC07D
:1007300023F020C024F021C025F022C026F00001C3
:100740003A6A396A306A295202E12A5206E0828402
:100750002906000E2A5A000101D082949EC117F08A
:100760009FC118F0A0C1F4FFA1C1F3FF110062D82E
:100770002CD8FCEC05F064D8A0D82E6A2F6A2C6A1D
:100780002B6A020E2D6E1E821E901E94286A266A07
:10079000256A246A236A466A030E4E5C02E3010E50
:1007A0004E6E6CD8020EF76EB40EF66EBBEC00F017
:1007B0000D0EC3EC00F0C80EE2EC00F0466AF8D86B
:1007C0002FD986C03FF0FAD7FFD7100E926E460E93
:1007D000936E946A896A8A6A8B6A899C899E320EB2
:1007E000E2EC00F0809C030E8D6F10DA050EE2EC57
:1007F00000F0030E8D6F0ADA960EEFEC00F0030E98
:100800008D6F04DA960EEFEC00F0020E8D6FFED9BC
:10081000960EEFEC00F0280E8E6FFED9080E8E6F4C
:10082000FBD9010E8E6FF8D9060E8E6FF5D90C0E1E
:100830008E6FF2D1100E926E460E936E946A120075
:10084000316A81B2312A326A81B4322A336A81BC78
:10085000332A3150020DF3CF17F0F4CF18F0325095
:100860001724376E346A356A366A306A386A3C6AE9
:100870003B6A3E6A3D6A3A6A396A1200856B060E27
:10088000855D12E2020EF76EC00EF66EBBEC00F054
:100890000D0EC3EC00F0020E9F6FC1EC07F0640E6A
:1008A000E2EC00F0852BEBE3020EF76ECC0EF66E59
:1008B000BBEC00F00D0EC3EF00F058EC08F0010E99
:1008C000916F2C0E906FC7D993C048F092C047F03B
:1008D000010E916F2E0E906FBED993C04AF092C058
:1008E00049F0010E916F300E906FB5D993C04CF066
:1008F00092C04BF0010E9C6FD5D9020E9C6FD2D9DD
:10090000030E9C6FCFD9916BC80E906FA4D993C082
:1009100041F092C040F0415203E10A0E405C02E314
:10092000000E01D0010E1D6E010E415C000104E3BA
:1009300005E12D0E405C02E2000E01D0010E1D12F9
:1009400000010BE0416A1E0E406E976BC80E966F59
:1009500041C099F040C098F089D9916BCA0E906F50
:100960007AD993C043F092C042F0435203E10A0E99
:10097000425C02E3000E01D0010E1D6E070E435CC7
:10098000000104E305E1D10E425C02E2000E01D059
:10099000010E1D1200010BE0436A320E426E976B8E
:1009A000CA0E966F43C099F042C098F05FD912000A
:1009B0001E9001EE1AF0020EF76ED80EF66E52EC93
:1009C00001F0EF6A0EEC08F0020EA46F01EC08F0E3
:1009D000030EA46F01EC08F0040EA46F01EC08F004
:1009E0001E82CDEC08F0CEEC08F0010EAC5D06E105
:1009F000020E9F6FC1EC07F012D010D0020EAC5D5A
:100A000006E1030E9F6FC1EC07F009D007D0030E7B
:100A1000AC5D04E1030E9F6FC1EC07F0E2D712005A
:100A2000040E896F876B886B1E901E821EA2A0D059
:100A3000010E9F6FC1EC07F001EE1AF0020EF76E87
:100A4000EE0EF66E52EC01F0EF6A0EEC08F0020EBC
:100A5000A46F01EC08F0030EA46F01EC08F0040E83
:100A6000A46F01EC08F0020E875D02E2886B16D0DD
:100A7000FF0E8925056E066AFF0E062206520CE15E
:100A80000550875D09E3030E895D04E3030E895D6C
:100A9000886F01D0886B02D08705886F020E8B6F3C
:100AA000050E8B5DD8B063D088518B25176E186A00
:100AB0001836020E175C8C6F8C51875D03E1010EB6
:100AC0008A6F01D08A6B8C5310E18BC0A5F001EEC8
:100AD0003BF0030EF76E040EF66E52EC01F0EF6A77
:100AE0008AC0A6F024EC08F03FD0010E8C5D10E126
:100AF0008BC0A5F001EE3BF0030EF76E0E0EF66E06
:100B000052EC01F0EF6A8AC0A6F024EC08F02CD079
:100B1000020E8C5D10E18BC0A5F001EE3BF0030EE0
:100B2000F76E1A0EF66E52EC01F0EF6A8AC0A6F06C
:100B300024EC08F019D0030E8C5D12E18BC0A5F0F7
:100B400001EE3BF0420EEE6E610EEE6E630EEE6E47
:100B50006B0EEE6EEF6A8AC0A6F024EC08F004D0AB
:100B60008BC0A4F001EC08F08B2BD8A099D71E9273
:100B7000A1EC08F0275215E0010E275C0EE1FF0EF4
:100B80008925056E066AFF0E0622065203E105500E
:100B9000875D02E20001872B03D0875301E08707BE
:100BA0001E82CDEC08F0CEEC08F0010EAC5D22E127
:100BB000020E9F6FE6D9875304E1010E866F1BD0AA
:100BC00018D0010E875D03E10CEC09F012D0020E83
:100BD000875D0CE101EE5CF0030EF76E280EF66EF9
:100BE00052EC01F0EF6AD2EC08F003D0010E866FF0
:100BF00002D01E821BD71200A16B050EA06FF1D987
:100C000006EC00F0A16B020EA06FEBD18DC0B4F02A
:100C10000DEC0AF025EF0AF0809C8E390F0B8F6FD8
:100C20008FC08DF0F3DF0F0E8E158F6F8FC08DF09C
:100C3000EDDF010E8E5D04E1020EE2EC00F00AD061
:100C4000020E8E5D04E1020EE2EC00F003D0320EE3
:100C5000EFEC00F0120091C0AAFF90C0A9FFDBECFE
:100C600000F0926FDBEC00F0936F120097C0AAFFC8
:100C700096C0A9FFDBEC00F09A6FDBEC00F09B6FF5
:100C800099519B5D03E198519A5D0BE097C0AAFFD3
:100C900096C0A9FF00019851CBEC00F09951CBEC24
:100CA00000F012009CC0B5F02FEC0AF0B7C09EF027
:100CB000B6C09DF0010E9C5DD8A475D09EC0AAFF61
:100CC0009DC0A9FFDBEC00F04D6E010E9D25A96EC5
:100CD000000E9E21AA6EDBEC00F04E6E020E9D25EA
:100CE000A96E000E9E21AA6EDBEC00F04F6E040E82
:100CF0009D25906F000E9E21916FADDF93C051F046
:100D000092C050F0060E9D25906F000E9E21916FAF
:100D1000A2DF93C053F092C052F0080E9D25906F51
:100D2000000E9E21916F97DF93C055F092C054F052
:100D30000A0E9D25906F000E9E21916F8CDF93C04F
:100D400057F092C056F00C0E9D25906F000E9E211C
:100D5000916F81DF93C059F092C058F00E0E9D251F
:100D6000A96E000E9E21AA6EDBEC00F05A6E0F0EEB
:100D70009D25A96E000E9E21AA6EDBEC00F05B6E35
:100D8000100E9D25A96E000E9E21AA6EDBEC00F0D0
:100D90005C6E110E9D25A96E000E9E21AA6EDBECE5
:100DA00000F05D6EEDD0020E9C5DD8A475D09EC0A3
:100DB000AAFF9DC0A9FFDBEC00F05E6E010E9D2531
:100DC000A96E000E9E21AA6EDBEC00F05F6E020E93
:100DD0009D25A96E000E9E21AA6EDBEC00F0606ED0
:100DE000040E9D25906F000E9E21916F34DF93C0FD
:100DF00062F092C061F0060E9D25906F000E9E215C
:100E0000916F29DF93C064F092C063F0080E9D25B6
:100E1000906F000E9E21916F1EDF93C066F092C00E
:100E200065F00A0E9D25906F000E9E21916F13DFD5
:100E300093C068F092C067F00C0E9D25906F000E75
:100E40009E21916F08DF93C06AF092C069F00E0E88
:100E50009D25A96E000E9E21AA6EDBEC00F06B6E44
:100E60000F0E9D25A96E000E9E21AA6EDBEC00F0F0
:100E70006C6E100E9D25A96E000E9E21AA6EDBECF5
:100E800000F06D6E110E9D25A96E000E9E21AA6EBA
:100E9000DBEC00F06E6E74D09EC0AAFF9DC0A9FF6F
:100EA000DBEC00F06F6E010E9D25A96E000E9E21F9
:100EB000AA6EDBEC00F0706E020E9D25A96E000E8E
:100EC0009E21AA6EDBEC00F0716E040E9D25906FE2
:100ED000000E9E21916FBFDE93C073F092C072F03E
:100EE000060E9D25906F000E9E21916FB4DE93C07B
:100EF00075F092C074F0080E9D25906F000E9E2133
:100F0000916FA9DE93C077F092C076F00A0E9D250E
:100F1000906F000E9E21916F9EDE93C079F092C07B
:100F200078F00C0E9D25906F000E9E21916F93DE40
:100F300093C07BF092C07AF00E0E9D25A96E000E34
:100F40009E21AA6EDBEC00F07C6E0F0E9D25A96E33
:100F5000000E9E21AA6EDBEC00F07D6E100E9D252A
:100F6000A96E000E9E21AA6EDBEC00F07E6E110EC3
:100F70009D25A96E000E9E21AA6EDBEC00F07F6E0F
:100F80001200030EF76E300EF66EBBEC00F0040E8E
:100F9000016E030E046E9F5138EC00F0290EC3EC75
:100FA00000F00D0EC3EC00F0010E9F5D04E12A6A13
:100FB000140E296E15D0020E9F5D04E12A6A320ECE
:100FC000296E0ED0030E9F5D04E12A6AC80E296EB9
:100FD00007D0040E9F5D04E1030E2A6EE80E296E11
:100FE0001200A36B010EA26FA251A05DA351A159E3
:100FF00007E3010EE2EC00F0A22B000EA323F4E3C2
:101000001200800E016EA4C002F0010E12EC00F07E
:10101000030EF76E3A0EF66E66EF00F0800E016E6C
:1010200030EC00F0030EF76E3A0EF66E66EC00F050
:10103000800E016E30EC00F001EE1AF0EE5003E08D
:101040006EEC00F0FBD71200800E016EA5C002F01E
:10105000010E12EC00F0030EF76E3A0EF66E66EC1F
:1010600000F0010EA65D15E1800E016EA5C002F034
:10107000010E12EC00F05B0E6EEC00F001EE3BF0A6
:10108000EE5003E06EEC00F0FBD75D0E6EEC00F06E
:101090000ED0800E016EA5C002F0020E12EC00F020
:1010A00001EE3BF0EE5003E06EEC00F0FBD71200D7
:1010B000AA6AA96ADBEC00F0A76F010EA75D40E009
:1010C000B86B010EB96FBA6BBB6BBC6B020EBD6F18
:1010D000D8D9BFC0A9F0BEC0A8F0010E976F2C0EE2
:1010E000966FA9C099F0A8C098F036EC06F0010EF2
:1010F000976F2E0E966FA9C099F0A8C098F036ECA5
:1011000006F0010E976F300E966FA9C099F0A8C037
:1011100098F036EC06F0976BC80E966F996B1E0E22
:10112000986F36EC06F0976BCA0E966F996B320E7D
:10113000986F36EC06F0AA6AA96A010ECBEC00F0B3
:101140001200F29E3CC0ABF03BC0AAF0F28EAA5156
:101150003D5CAB513E580BE2010E276E1FC023F0E1
:1011600020C024F021C025F022C026F011D03D502F
:10117000AA5D3E50AB590BE2FF0E276E1FC023F055
:1011800020C024F021C025F022C026F001D0276A1B
:10119000ABC03EF0AAC03DF01200120028C0ACF077
:1011A000286A12001E9001EE1AF011EE5CF0200E7B
:1011B000E75204E0E6CFEEFFE82EFAD7030EF76E13
:1011C000500EF66E52EC01F0EF6A28DF020EA46FAB
:1011D00018DF030EA46F15DF040EA46F12DFDDDF2E
:1011E000DDDF010EAC5D05E1020E9F6FCADE13D09C
:1011F00011D0020EAC5D05E1030E9F6FC2DE0BD075
:1012000009D0030EAC5D06E1030E9F6FBADE020E3D
:10121000466E01D0E4D71200050EB06FAE6BAF6B17
:101220001E901E821EA2ADD0010E9F6FAADE01EE9F
:101230001AF0030EF76E5E0EF66E52EC01F0EF6AD6
:10124000EDDE020EA46FDDDE030EA46FDADE040E07
:10125000A46FD7DE020EAE5D02E2AF6B16D0FF0EBA
:10126000B025056E066AFF0E062206520CE10550F7
:10127000AE5D09E3030EB05D04E3030EB05DAF6F36
:1012800001D0AF6B02D0AE05AF6F020EB26F050E8C
:10129000B25DD8B075D0FE0EB225176E186AFF0E7B
:1012A0001822AF511724B36FB351AE5D03E1010EA5
:1012B000B16F01D0B16BB3530FE1B2C0A5F001EE35
:1012C0003BF0030EF76E740EF66E52EC01F0EF6A0F
:1012D000B1C0A6F0B9DE51D0010EB35D0FE1B2C0CE
:1012E000A5F001EE3BF0030EF76E7C0EF66E52ECAD
:1012F00001F0EF6AB1C0A6F0A7DE3FD0020EB35DE9
:101300000FE1B2C0A5F001EE3BF0030EF76E840EC4
:10131000F66E52EC01F0EF6AB1C0A6F095DE2DD06A
:10132000030EB35D13E1B2C0A5F001EE3BF0430E36
:10133000EE6E6C0EEE6E6F0EEE6E630EEE6E6B0E5C
:10134000EE6EEF6AB1C0A6F07FDE17D0040EB35D7B
:1013500011E1B2C0A5F001EE3BF0420EEE6E610E5F
:10136000EE6E630EEE6E6B0EEE6EEF6AB1C0A6F01F
:101370006BDE03D0B2C0A4F044DEB22BD8A087D776
:101380001E92DFDE275215E0010E275C0EE1FF0EF4
:10139000B025056E066AFF0E0622065203E10550CF
:1013A000AE5D02E20001AE2B03D0AE5301E0AE070A
:1013B0001E82F3DEF3DE010EAC5D2DE1020E9F6FA7
:1013C000C1EC07F0AE5302E1B6D824D0010EAE5DF9
:1013D0000BE101EE5CF0030EF76E8C0EF66E52EC34
:1013E00001F0EF6ADFDE16D0020EAE5D0BE101EE1A
:1013F0005CF0030EF76E940EF66E52EC01F0EF6A9D
:10140000D1DE08D0030EAE5D02E19DD903D0010EFE
:10141000AD6F02D01E8206D71200B43102E389807C
:1014200001D08990B451E8A202D0898201D089927A
:10143000B451E8A402D0898401D08994B451E8A6BB
:1014400002D0898601D089961200898E020EE82E7C
:10145000FED700000000899E280EEFEF00F0010E7D
:10146000B55D04E1B76B0A0EB66F0AD0020EB55D2A
:1014700004E1B76B1C0EB66F03D0B76B2E0EB66FC0
:101480001200C16BC06B040EB85D02E3030EB86FAF
:10149000020EB95D02E3010EB96F040EBA5D02E3FC
:1014A000030EBA6F040EBB5D02E3030EBB6F040EA6
:1014B000BC5D02E3030EBC6F040EBD5D02E3030ED0
:1014C000BD6FB851C027000EC123B951040DF3CF31
:1014D00017F0F4CF18F01750C0271850C123BA5195
:1014E000080DF3CF17F0F4CF18F01750C02718509D
:1014F000C123BB51200DF3CF17F0F4CF18F01750D4
:10150000C0271850C123BC51800DF3CF17F0F4CF82
:1015100018F01750C0271850C123BDC018F0176A23
:10152000D89018361750C0271850C123C1C0BFF03B
:10153000C0C0BEF012000C0EC56FC505CB6FC36BEB
:10154000C46BC76B1E821EA2ACD0010E9F6FC1EC94
:1015500007F001EE1AF0030EF76E9C0EF66E52ECD9
:1015600001F0EF6A0EEC08F0020EA46F01EC08F037
:10157000030EA46F01EC08F0040EA46F01EC08F058
:10158000020EC35D02E2C46B16D0FF0EC525056EC8
:10159000066AFF0E062206520CE10550C35D09E300
:1015A000030EC55D04E3030EC55DC46F01D0C46BBB
:1015B00002D0C305C46F020EC96F050EC95DD8B055
:1015C0006FD0C451C925176E186A1836020E175C01
:1015D000CA6FCA51C35D03E1010EC66F01D0C66B6D
:1015E000CA51CB5D12E1C9C0A5F001EE3BF0420E3D
:1015F000EE6E610EEE6E630EEE6E6B0EEE6EEF6AC9
:10160000C6C0A6F024EC08F048D0010ECA53D8A4F6
:10161000000E1D6E010EC75D010ED8A4000E1D1632
:1016200034E0800E016EC9C002F0010E12EC00F031
:10163000030EF76EB20EF66E66EC00F0010EC85D9A
:1016400012E1C9C0DFF00B0EE06F01EE7DF0030E7A
:10165000F76EBE0EF66E52EC01F0EF6A010EE16F0E
:10166000E26F03DA11D0C9C0DFF00B0EE06F01EEBC
:101670007DF0030EF76EC60EF66E52EC01F0EF6AC7
:10168000010EE16FE26FF1D908D0C9C0EEF0CAC017
:10169000EFF0C6C0F0F018EC0EF0C92BD8A08DD733
:1016A0001E92A1EC08F0010EC75D010ED8A4000E39
:1016B0001D6E010EC353D8A4000E1D160AE027525A
:1016C00007E0C85303E1010EC86F01D0C86B1E824A
:1016D0000ED027520CE0010E275C05E1CB51C35D13
:1016E00001E2C32B03D0C35301E0C3071E82CDEC3C
:1016F00008F0CEEC08F0010EAC5D23E1020E9F6F06
:10170000C1EC07F0010EC75D08E1C35303E1C8C097
:101710004DF09FD9C76B1E8214D0C35306E1010E52
:10172000C76F4DC0C8F01E820CD0C351CB5D04E121
:10173000010EC26F07D005D0C3C0F4F00FEC11F05A
:101740001E8201D71200030ECE6FCD6BD06BD16914
:101750001E821EA276D001EE1AF0030EF76ED00E96
:10176000F66E52EC01F0EF6A0EEC08F0020EA46F78
:1017700001EC08F0030EA46F01EC08F0040EA46F56
:1017800001EC08F0CD5303E1010ECF6F01D0CF6B18
:10179000800E016EC00E30EC00F0030EF76EE60E08
:1017A000F66E66EC00F0020EE96F0B0EEA6F41C0B8
:1017B000ECF040C0EBF0CFC0EDF0FCD9010ECD5DF8
:1017C00003E1010ECF6F01D0CF6B800E016E940E3E
:1017D00030EC00F0030EF76EF20EF66E66EC00F0E1
:1017E000030EE46F0B0EE56F43C0E7F042C0E6F076
:1017F000CFC0E8F097D9020ECD5D12E1040EA56FBF
:1018000001EE3BF0420EEE6E610EEE6E630EEE6E7A
:101810006B0EEE6EEF6A010EA66F24EC08F010D08E
:10182000040EA56F01EE3BF0420EEE6E610EEE6E01
:10183000630EEE6E6B0EEE6EEF6AA66B24EC08F094
:101840001E92A1EC08F02752D8B44BD0D05317E128
:10185000010E275C0FE1FF0ECE25056E066AFF0E16
:101860000622065203E10550CD5D03E20001CD2BB7
:101870001E8204D0CD5302E0CD071E8232D0D15358
:1018800017E1010E275C09E1010E415C2C0ED8B472
:10189000405C02E2404A412A09D0415203E10B0E6A
:1018A000405C03E34006000E415A00011E8219D03D
:1018B000010ED15D16E1010E275C09E1070E435CC4
:1018C000D00ED8B4425C02E2424A432A09D04352C5
:1018D00003E10B0E425C03E34206000E435A000193
:1018E0001E82CDEC08F0CEEC08F0010EAC5D39E1C3
:1018F000020E9F6FC1EC07F0D05317E1020ECD5DD1
:1019000004E1010ECC6F46D00FD0010ED06FCDC0D8
:10191000D1F0CD5305E141C0D3F040C0D2F004D0A6
:1019200043C0D3F042C0D2F01CD0D1530CE1DA6BEB
:10193000400ED96FDC6B0A0EDB6F010EDE6F2C0ED2
:10194000DD6F74D80BD0DA6B420ED96FDC6B0A0EE8
:10195000DB6F070EDE6FD00EDD6F68D855D8D06B09
:10196000D16919D8D45315E0010ED05D0FE1D153E0
:1019700005E1D3C041F0D2C040F004D0D3C043F061
:10198000D2C042F0D06BD1691E8203D0010ECC6F61
:1019900001D0DFD6120040C009F041C00AF00B6A46
:1019A0000C6A126A116A030E106EE80E0F6E11ECCB
:1019B00001F009C0D5F00AC0D6F00BC0D7F00CC0BA
:1019C000D8F023501F5C056E24502058066E255019
:1019D0002158076E26502258086ED551055CD65105
:1019E0000658D7510758D85108580CE31EB407D0F1
:1019F0001E84040E9F6FC1EC07F0020E466E010EAE
:101A0000D46F01D0D46B1200976BC80E966F41C093
:101A100099F040C098F036EC06F0976BCA0E966FBE
:101A200043C099F042C098F036EF06F0DB51D95D23
:101A3000DC51DA5904E2DCC0DAF0DBC0D9F0D9516C
:101A4000DD5DDA51DE5904E2DEC0DAF0DDC0D9F046
:101A50001200010EF66FB3EC11F0020EF66FB3EC4C
:101A600011F0030EF66FB3EF11F0DFC018F1E0C014
:101A700019F12FEC16F0010EE15D010ED8A4000E55
:101A80001D6E010EE25D010ED8A4000E1D1631E0A0
:101A900001EE7DF0000EEE5202E0E83EFCD7E36F6F
:101AA000800E016EDFC002F0E05112EC00F05B0E20
:101AB0006EEC00F0800E016EDFC002F0E02912EC47
:101AC00000F001EE7DF0EE5003E06EEC00F0FBD78D
:101AD000800E016EDFC002F0186AE029176ED8B4DC
:101AE000182AE351172412EC00F05D0E6EEC00F0A2
:101AF00018D0800E016EDFC002F0E05112EC00F051
:101B0000200E6EEC00F0800E016EDFC002F0E029C6
:101B100012EC00F001EE7DF0EE5003E06EEC00F010
:101B2000FBD71200E4C018F1E5C019F12FEC16F054
:101B3000010EE85D25E1800E016EE4C002F0E55182
:101B400012EC00F05B0E6EEC00F0800E016EE4C053
:101B500002F0E52912EC00F0050E046EE7C010F06B
:101B6000E6C00FF03AEC00F0800E016EE4C002F027
:101B7000060EE52512EC00F05D0E6EEC00F019D0BB
:101B8000800E016EE4C002F0E55112EC00F0200E70
:101B90006EEC00F0800E016EE4C002F0E52912EC5C
:101BA00000F0050E046EE7C010F0E6C00FF03AEC4E
:101BB00000F01200E9C018F1EAC019F12FEC16F09C
:101BC000010EED5D20E1800E016EE9C002F0EA51E8
:101BD00012EC00F05B0E6EEC00F0E9C0F9F0EA29BF
:101BE000FA6FECC0FCF0EBC0FBF031EC13F0800EB0
:101BF000016EE9C002F0060EEA2512EC00F05D0E5F
:101C00006EEC00F014D0800E016EE9C002F0EA51D3
:101C100012EC00F0200E6EEC00F0E9C0F9F0EA29B9
:101C2000FA6FECC0FCF0EBC0FBF031EC13F01200EB
:101C30000B0EEF5D06E3EEC0A4F001EC08F00EEF32
:101C400011F00B0EF36FEEC0A4F001EC08F04EC0E3
:101C5000F2F0010EF16F040EEF5D000ED8B0010E30
:101C60001D6E070EEF5D02E3000E01D0010E1D1682
:101C700004E0010EF25D01E0F16BEF5337E1800EFD
:101C8000016EEEC002F0010E12EC00F0030EF76ED2
:101C9000B20EF66E66EC00F0010E4D5C13E1EEC084
:101CA000DFF0F3C0E0F001EE7DF0030EF76EBE0E44
:101CB000F66E52EC01F0EF6AF0C0E1F0010EE26F57
:101CC000D4DE12D0EEC0DFF0F3C0E0F001EE7DF024
:101CD000030EF76EC60EF66E52EC01F0EF6AF0C01E
:101CE000E1F0010EE26FC1DE0EEF11F0010EEF5DCB
:101CF000D8A450D0800E016EEEC002F0010E12EC9E
:101D000000F0030EF76EFE0EF66E66EC00F0F25376
:101D100015E1EEC0DFF0F3C0E0F001EE7DF0460E1D
:101D2000EE6E6C0EEE6E6F0EEE6E770EEE6EEF6A6E
:101D3000F0C0E1F0010EE26F98DE2AD0010EF25DF4
:101D400013E1EEC0DFF0F3C0E0F001EE7DF0040E31
:101D5000F76E0A0EF66E52EC01F0EF6AF0C0E1F099
:101D6000010EE26F82DE14D0EEC0DFF0F3C0E0F0CF
:101D700001EE7DF0540EEE6E650EEE6E6D0EEE6EA3
:101D8000700EEE6EEF6AF0C0E1F0010EE26F6DDEF4
:101D90000EEF11F0020EEF5D19E1800E016EEEC044
:101DA00002F0010E12EC00F0040EF76E140EF66E47
:101DB00066EC00F0EEC0E4F0F3C0E5F051C0E7F0EF
:101DC00050C0E6F0F0C0E8F0ADDE28D2030EEF5DC3
:101DD00019E1800E016EEEC002F0010E12EC00F06F
:101DE000040EF76E200EF66E66EC00F0EEC0E4F026
:101DF000F3C0E5F053C0E7F052C0E6F0F0C0E8F001
:101E000091DE0CD2040EEF5D41E1800E016EEEC05A
:101E100002F0010E12EC00F0040EF76E2C0EF66EBE
:101E200066EC00F0010EF25D0CE1EEC0E9F0F3C0EB
:101E3000EAF055C0ECF054C0EBF0F0C0EDF0BADEC3
:101E400024D0EEC018F1F3C019F12FEC16F0800E7B
:101E5000016EEEC002F0F35112EC00F0200E6EECB9
:101E600000F0800E016EEEC002F0F32912EC00F0DB
:101E70002D0E6EEC00F06EEC00F03A0E6EEC00F001
:101E80002D0E6EEC00F06EEC00F0C8D1050EEF5D8B
:101E900041E1800E016EEEC002F0010E12EC00F086
:101EA000040EF76E380EF66E66EC00F0010EF25D71
:101EB0000CE1EEC0E9F0F3C0EAF057C0ECF056C018
:101EC000EBF0F0C0EDF076DE24D0EEC018F1F3C0F8
:101ED00019F12FEC16F0800E016EEEC002F0F351F6
:101EE00012EC00F0200E6EEC00F0800E016EEEC0E1
:101EF00002F0F32912EC00F02D0E6EEC00F06EEC07
:101F000000F03A0E6EEC00F02D0E6EEC00F06EEC70
:101F100000F084D1060EEF5D41E1800E016EEEC04F
:101F200002F0010E12EC00F0040EF76E440EF66E95
:101F300066EC00F0010EF25D0CE1EEC0E9F0F3C0DA
:101F4000EAF059C0ECF058C0EBF0F0C0EDF032DE32
:101F500024D0EEC018F1F3C019F12FEC16F0800E6A
:101F6000016EEEC002F0F35112EC00F0200E6EECA8
:101F700000F0800E016EEEC002F0F32912EC00F0CA
:101F80002D0E6EEC00F06EEC00F03A0E6EEC00F0F0
:101F90002D0E6EEC00F06EEC00F040D1070EEF5D00
:101FA000D8A454D0800E016EEEC002F0010E12ECE7
:101FB00000F0040EF76E500EF66E66EC00F05A520A
:101FC00012E1EEC0DFF0F3C0E0F001EE7DF04E0E66
:101FD000EE6E6F0EEE6EEF6AF0C0E1F0010EE26F92
:101FE00035EC0DF032D0010E5A5C18E1EEC0DFF096
:101FF000F3C0E0F001EE7DF0500EEE6E750EEE6E69
:102000006C0EEE6E730EEE6E650EEE6EEF6AF0C045
:10201000E1F0010EE26F35EC0DF017D0EEC0DFF00D
:10202000F3C0E0F001EE7DF04C0EEE6E610EEE6E50
:10203000740EEE6E630EEE6E680EEE6EEF6AF0C01A
:10204000E1F0010EE26F35EC0DF0E8D0080EEF5D27
:10205000D8A454D0800E016EEEC002F0010E12EC36
:1020600000F0040EF76E5C0EF66E66EC00F05B524C
:1020700012E1EEC0DFF0F3C0E0F001EE7DF04E0EB5
:10208000EE6E6F0EEE6EEF6AF0C0E1F0010EE26FE1
:1020900035EC0DF032D0010E5B5C18E1EEC0DFF0E4
:1020A000F3C0E0F001EE7DF0500EEE6E750EEE6EB8
:1020B0006C0EEE6E730EEE6E650EEE6EEF6AF0C095
:1020C000E1F0010EE26F35EC0DF017D0EEC0DFF05D
:1020D000F3C0E0F001EE7DF04C0EEE6E610EEE6EA0
:1020E000740EEE6E630EEE6E680EEE6EEF6AF0C06A
:1020F000E1F0010EE26F35EC0DF090D0090EEF5DCE
:10210000D8A454D0800E016EEEC002F0010E12EC85
:1021100000F0040EF76E680EF66E66EC00F05C528E
:1021200012E1EEC0DFF0F3C0E0F001EE7DF04E0E04
:10213000EE6E6F0EEE6EEF6AF0C0E1F0010EE26F30
:1021400035EC0DF032D0010E5C5C18E1EEC0DFF032
:10215000F3C0E0F001EE7DF0500EEE6E750EEE6E07
:102160006C0EEE6E730EEE6E650EEE6EEF6AF0C0E4
:10217000E1F0010EE26F35EC0DF017D0EEC0DFF0AC
:10218000F3C0E0F001EE7DF04C0EEE6E610EEE6EEF
:10219000740EEE6E630EEE6E680EEE6EEF6AF0C0B9
:1021A000E1F0010EE26F35EC0DF038D00A0EEF5D74
:1021B00035E1800E016EEEC002F0010E12EC00F06F
:1021C000040EF76E740EF66E66EC00F0010E5D5CA8
:1021D00014E1EEC0DFF0F3C0E0F001EE7DF0590E47
:1021E000EE6E650EEE6E730EEE6EEF6AF0C0E1F00D
:1021F000010EE26F35EC0DF011D0EEC0DFF0F3C050
:10220000E0F001EE7DF04E0EEE6E6F0EEE6EEF6AB8
:10221000F0C0E1F0010EE26F35EC0DF01200F56B4D
:10222000F45309E101014D0E016F00016CEC13F054
:1022300002C1F5F092D0010EF45D09E101014E0EEC
:10224000046F0001E7EC13F005C1F5F086D0020E33
:10225000F45D11E10101086B500E076F0A6B096B09
:102260000C690B690E6B010E0D6F00017EEC14F012
:102270000FC1F5F072D0030EF45D11E10101086B9E
:10228000520E076F0A6B096B0C690B690E6B010E1E
:102290000D6F00017EEC14F00FC1F5F05ED0040E5E
:1022A000F45D0DE1010E4E5C09E10101136B540E6A
:1022B000126F00012DEC15F014C1F5F04ED0050E93
:1022C000F45D0DE1010E4E5C09E10101136B560E48
:1022D000126F00012DEC15F014C1F5F03ED0060E82
:1022E000F45D0DE1010E4E5C09E10101136B580E26
:1022F000126F00012DEC15F014C1F5F02ED0070E71
:10230000F45D09E101015A0E046F0001E7EC13F0DE
:1023100005C1F5F022D0080EF45D09E101015B0E64
:10232000046F0001E7EC13F005C1F5F016D0090EBB
:10233000F45D09E101015C0E046F0001E7EC13F0AC
:1023400005C1F5F00AD00A0EF45D07E101015D0E4A
:10235000016F0001C1D902C1F5F0010EF55D02E186
:1023600029EC0DF01200F6C0B5F02FEC0AF0B7C062
:10237000F8F0B6C0F7F0010EF65DD8A47AD0F8C038
:10238000AAFFF7C0A9FF4D50CBEC00F0010EF725D6
:10239000A96E000EF821AA6E4E50CBEC00F0020E92
:1023A000F725A96E000EF821AA6E4F50CBEC00F075
:1023B000040EF725966F000EF821976F51C099F023
:1023C00050C098F036EC06F0060EF725966F000E1A
:1023D000F821976F53C099F052C098F036EC06F090
:1023E000080EF725966F000EF821976F55C099F0EB
:1023F00054C098F036EC06F00A0EF725966F000EE2
:10240000F821976F57C099F056C098F036EC06F057
:102410000C0EF725966F000EF821976F59C099F0B2
:1024200058C098F036EC06F00E0EF725A96E000E97
:10243000F821AA6E5A50CBEC00F00F0EF725A96ECA
:10244000000EF821AA6E5B50CBEC00F0100EF725C1
:10245000A96E000EF821AA6E5C50CBEC00F0110EB4
:10246000F725A96E000EF821AA6E5D50CBEC00F0A6
:10247000F7D0020EF65DD8A47AD0F8C0AAFFF7C054
:10248000A9FF5E50CBEC00F0010EF725A96E000EFF
:10249000F821AA6E5F50CBEC00F0020EF725A96E72
:1024A000000EF821AA6E6050CBEC00F0040EF72568
:1024B000966F000EF821976F62C099F061C098F096
:1024C00036EC06F0060EF725966F000EF821976F92
:1024D00064C099F063C098F036EC06F0080EF7255A
:1024E000966F000EF821976F66C099F065C098F05E
:1024F00036EC06F00A0EF725966F000EF821976F5E
:1025000068C099F067C098F036EC06F00C0EF7251D
:10251000966F000EF821976F6AC099F069C098F025
:1025200036EC06F00E0EF725A96E000EF821AA6E05
:102530006B50CBEC00F00F0EF725A96E000EF821C2
:10254000AA6E6C50CBEC00F0100EF725A96E000EB1
:10255000F821AA6E6D50CBEC00F0110EF725A96E94
:10256000000EF821AA6E6E50CBEC00F079D0F8C0C6
:10257000AAFFF7C0A9FF6F50CBEC00F0010EF725C2
:10258000A96E000EF821AA6E7050CBEC00F0020E7E
:10259000F725A96E000EF821AA6E7150CBEC00F061
:1025A000040EF725966F000EF821976F73C099F00F
:1025B00072C098F036EC06F0060EF725966F000E06
:1025C000F821976F75C099F074C098F036EC06F05A
:1025D000080EF725966F000EF821976F77C099F0D7
:1025E00076C098F036EC06F00A0EF725966F000ECE
:1025F000F821976F79C099F078C098F036EC06F022
:102600000C0EF725966F000EF821976F7BC099F09E
:102610007AC098F036EC06F00E0EF725A96E000E83
:10262000F821AA6E7C50CBEC00F00F0EF725A96EB6
:10263000000EF821AA6E7D50CBEC00F0100EF725AD
:10264000A96E000EF821AA6E7E50CBEC00F0110EA0
:10265000F725A96E000EF821AA6E7F50CBEC00F092
:102660001200FCC00AF0FBC009F00E6A3C0E0D6EB1
:10267000FAEC00F0FD6F0AC0FEF0FCC00AF0FBC0EF
:1026800009F00E6A3C0E0D6EFAEC00F010C000F17D
:102690000FC0FFF0800E016EF9C002F0FA5112EC8B
:1026A00000F0020E046EFEC010F0FDC00FF03AEC18
:1026B00000F03A0E6EEC00F0800E016EF9C002F0F0
:1026C000030EFA2512EC00F0020E046E00C110F0A9
:1026D000FFC00FF03AEF00F001C103F11E821EA20D
:1026E00038D0010E9F6FC1EC07F001EE1AF0040E16
:1026F000F76E800EF66E52EC01F0EF6A0EEC08F009
:10270000020EA46F01EC08F0030EA46F01EC08F0B8
:10271000040EA46F01EC08F0010E0101035D00013D
:102720000CE1800E016E940E30EC00F0040EF76E9A
:10273000940EF66E66EC00F00BD0800E016E940ED7
:1027400030EC00F0040EF76EAA0EF66E66EC00F0A8
:102750001E92A1EC08F027520EE0010E0101035D6C
:10276000000104E10101036B000103D00101010E2E
:10277000036F00011E82CDEC08F0CEEC08F0010ED4
:10278000AC5D0CE1020E9F6FC1EC07F003C101F1DB
:102790000101010E026F000119D017D0020EAC5DCD
:1027A00009E1030E9F6FC1EC07F00101026B00010C
:1027B0000DD00BD0030EAC5D08E1030E9F6FC1EC92
:1027C00007F00101026B000101D089D7120004C19A
:1027D00006F11E821EA24DD0010E9F6FC1EC07F0C4
:1027E00001EE1AF0040EF76EC00EF66E52EC01F018
:1027F000EF6A0EEC08F0020EA46F01EC08F0030E75
:10280000A46F01EC08F0040EA46F01EC08F00101C4
:10281000065300010CE1800E016E940E30EC00F0C6
:10282000040EF76ED40EF66E66EC00F021D0010EA9
:102830000101065D00010CE1800E016E940E30EC8A
:1028400000F0040EF76EEA0EF66E66EC00F010D0A3
:10285000020E0101065D00010BE1800E016E940E77
:1028600030EC00F0050EF76E000EF66E66EC00F030
:102870001E92A1EC08F0010E275C0AE1020E010194
:10288000065D000102E20101062B00011E820AD052
:10289000272808E101010653000102E001010607B3
:1028A00000011E82CDEC08F0CEEC08F0010EAC5D0C
:1028B0000CE1020E9F6FC1EC07F006C104F10101AB
:1028C000010E056F000119D017D0020EAC5D09E1B1
:1028D000030E9F6FC1EC07F00101056B00010DD0E5
:1028E0000BD0030EAC5D08E1030E9F6FC1EC07F047
:1028F0000101056B000101D06DD7120008C111F173
:1029000007C110F11E821EA235D0010E9F6FC1ECCF
:1029100007F001EE1AF0050EF76E160EF66E52EC89
:1029200001F0EF6A0EEC08F0020EA46F01EC08F063
:10293000030EA46F01EC08F0040EA46F01EC08F084
:10294000800E016E940E30EC00F0050EF76E2A0E2C
:10295000F66E66EC00F0050E046E11C110F010C1A9
:102960000FF03AEC00F0050EF76E340EF66E66ECE2
:1029700000F01E92A1EC08F0010E275C15E10101A8
:102980000D511025056E0E511121066E05500B5D7F
:1029900006500C59000105E301010D5110270E519D
:1029A000112300011E822BD0272829E101010D519E
:1029B0000925056E0E510A21066E000E076A0722D0
:1029C000086A0852000116E1075014E1065001019F
:1029D000115D00010FE305E105500101105D0001EB
:1029E00009E301010D51105D106F0E511159116F66
:1029F000000104D00AC111F109C110F11E82CDEC11
:102A000008F0CEEC08F0010EAC5D0EE1020E9F6FF7
:102A1000C1EC07F011C108F110C107F10101010E6D
:102A20000F6F000119D017D0020EAC5D09E1030E43
:102A30009F6FC1EC07F001010F6B00010DD00BD0AF
:102A4000030EAC5D08E1030E9F6FC1EC07F00101BE
:102A50000F6B000101D057D7120013C10AF012C149
:102A600009F00E6A3C0E0D6EFAEC00F00101156FD4
:102A700013C10AF012C109F00E6A3C0E0D6EFAEC99
:102A800000F00FC016F10101176B1E8200011EA29B
:102A900074D0010E9F6FC1EC07F001EE1AF0050E25
:102AA000F76E3E0EF66E52EC01F0EF6A0EEC08F097
:102AB000020EA46F01EC08F0030EA46F01EC08F005
:102AC000040EA46F01EC08F00101175300012BE183
:102AD000800E016E940E30EC00F0200E6EEC00F0D3
:102AE0005B0E6EEC00F0020E046E0101155138EC25
:102AF00000F05D0E6EEC00F0200E6EEC00F03A0E71
:102B00006EEC00F0200E6EEC00F0020E046E01017F
:102B1000165138EC00F0050EF76E520EF66E66ECAC
:102B200000F0000128D0800E016E940E30EC00F011
:102B3000200E6EEC00F06EEC00F0020E046E01014F
:102B4000155138EC00F0200E6EEC00F03A0E6EECF1
:102B500000F0200E6EEC00F05B0E6EEC00F0020E4A
:102B6000046E0101165138EC00F0050EF76E340EBC
:102B7000F66E66EC00F000011E92A1EC08F0010E6A
:102B8000275C17E101011753000109E1630E010100
:102B9000155D000102E20101152B000108D03B0E7A
:102BA0000101165D000102E20101162B00011E82E7
:102BB00016D0272814E101011753000108E1010193
:102BC0001553000102E001011507000107D00101C2
:102BD0001653000102E00101160700011E82CDEC30
:102BE00008F0CEEC08F0010EAC5D20E1020E9F6F04
:102BF000C1EC07F001011753000106E10101010ECC
:102C0000176F1E82000111D0010115513C0DF3CF49
:102C100017F0F4CF18F016511724126F000E182079
:102C2000136F010E146F000119D017D0020EAC5DA6
:102C300009E1030E9F6FC1EC07F00101146B000165
:102C40000DD00BD0030EAC5D08E1030E9F6FC1ECFD
:102C500007F00101146B000101D018D71200800E9B
:102C6000016E18C102F00101195112EC00F0050EBD
:0E2C7000F76E5C0EF66E66EC00F000011200CE
:020000040030CA
:03000100081F1EB7
:020005008181F7
:060008000FC00FE00F40E5
:00000001FF
