:020000040000FA
:1000000000000000A4EF02F0BEEF02F0800E016ECF
:10001000FE0EBDD8010EBBD8750E0A6E300EE0D0B4
:10002000016A018E126E1252D8A41206FE0EAFD8CB
:10003000025202E0022C02D0800E0ED00250020AC0
:1000400002E1C00E09D00250030A02E1940E04D06E
:100050000250040A02E1D40E026E1250022497D01C
:10006000016A018E126EFE0E92D8125090D0046A70
:100070000D6E0E6A00960450D8B40086050E036E0D
:10008000270E0C6E100E0CD8030E0C6EE80E08D85E
:100090000C6A640E05D80C6A0A0E02D80D5007D0FF
:1000A0000B6E0E500A6E0D50096EA4D80950096EE1
:1000B000034E0096045002E0035C07E20950D8A406
:1000C000009600B602D0300F62D01200A66AA68E4B
:1000D0000900F55002E002D8FBD71200106E899E8D
:1000E000899C929E929CF00E9216105000B21ED0E7
:1000F0003A0E0A6E980E74D8330E0F6E29D8130E6E
:100100000A6E880E6DD824D8640E69D821D8640E82
:1001100066D8220E0F6E1CD8280E07D80C0E05D8F4
:10012000060E03D80082105001D000800F6E00A090
:1001300009D0899C03080AE309D8070E0A6ED00E7D
:100140004FD812000080FE0814E0898C0F3A00A0FE
:100150000090898EF00E80160F500F0B8012000059
:1001600000D0899E0F3A000000D000B0F1D7320EC7
:1001700036D810501200A66AA68E0900F55002E08B
:1001800002D8FBD712009EA8FED7AD6E120001BEAA
:10019000A5D701B4F8D7A86EA66AA684550EA76E97
:1001A000AA0EA76EA682A6B2FED7A694A94AAA2A2C
:1001B000A68E1200A96EA66AA680A850A94AAA2AED
:1001C000A68E12000C6A0B6EFF0E0B260C2200D0BE
:1001D000D8A01200030E0A6EE60E02D8F5D70A6AFE
:1001E000FD0F096E01D00906000000D0E86A0A5A26
:1001F000FAE212000E6A0D6A100EF36E0A340D3622
:100200000E360B500D5C0C500E5805E30B500D5E76
:100210000C500E5AD88009360A36F32EEFD7095003
:100220001200A66AA68E0900F55002E0EE6EFBD71A
:1002300012004952524953595320537461727475D4
:100240007020436F6D706C65746500004F505449A9
:100250004F4E53202020202020202020202020200E
:1002600000004D61696E204D656E750053657475B3
:1002700070204D656E7500005574696C6974792045
:100280004D656E7500005554494C4954590049520A
:100290005249535953204D41494E202020202020BF
:1002A000202000002020202020202020202020208E
:1002B000202020202020202000005345545550208D
:1002C000202020202020202020202020202000006E
:1002D000496E707574203100496E7075742032005B
:1002E000496E7075742033002028535455422920DC
:1002F000202020202000434C4F434B202020202052
:1003000020202020202020202020000054696D651E
:100310006F7574202020000050756C7365202020BC
:1003200020200000494E505554200000202020205D
:1003300020202020202020200000456E61626C6576
:10034000202020200000456E61626C6564004469D5
:100350007361626C6564000053656E736F72202078
:10036000202000005072657373757265000053633E
:10037000616C652034206D6100005363616C6532EF
:10038000306D6120000048696768204250202020BD
:100390000000486967682054425020200000504CFB
:1003A00050425020202020200000534C504250202A
:1003B0002020202000004C6F772054425020202025
:1003C0000000526C79204869676820200000526C58
:1003D0007920504C502020200000526C7920534C42
:1003E000502020200000526C79204C6F7720202074
:1003F0000000446973706C61792020200000526510
:1004000064726177207468652073637265656E003D
:100410002020202020202020202000004544495476
:100420003A20594553204E4F2020202020202000E4
:100430002059657320205B4E6F5D202020202020F6
:100440002020202000005B5965735D20204E6F2026
:100450002020202020202020202000004544495436
:100460003A204D4F444520202020202020202000ED
:100470005B4E6F5D202050756C736520204C61745D
:10048000636820202000204E6F20205B50756C7325
:10049000655D204C6174636820202000204E6F2031
:1004A000202050756C7365205B4C617463685D201F
:1004B0002000454449543A204455524154494F4E36
:1004C000202020202000202020202020202020006C
:1004D0005D20202020202020200045786974206F96
:1004E0006E206C6F6E6720707265737300004544F8
:1004F00049543A2053454E534F52205459504520A9
:1005000020005B50726573737572655D2054656D74
:100510007020466C6F77200020507265737375727F
:1005200065205B54656D705D20466C6F7720000020
:10053000205072657373757265202054656D70204C
:100540005B466C6F775D0000006A100EAF6E240E84
:10055000AC6E900EAB6E00010F0EC16E070EB46E46
:10056000700ED36E9B8C0F0EC16EF19EC40ED56EB5
:10057000060ED66EF294F28AF28EF5D0000113C008
:100580002FF214C030F2F4CF31F2F3CF32F2F2A4F2
:10059000E1D0060ED66EF2941A2A000E1B221C22FF
:1005A0001D222A2A0A0E2A5CD8A0C9D0766A81B2F6
:1005B000762A776A81B4772A786A81BC782A76505D
:1005C0002B5C10E02E2A020E2E5C0BE376C02BF083
:1005D0002E6A1AC01EF01BC01FF01CC020F01DC0E8
:1005E00021F001D02E6A77502C5C10E02F2A020EE9
:1005F0002F5C0BE377C02CF02F6A1AC01EF01BC0D3
:100600001FF01CC020F01DC021F001D02F6A7850CF
:100610002D5C10E0302A020E305C0BE378C02DF028
:10062000306A1AC01EF01BC01FF01CC020F01DC095
:1006300021F001D0306A2B50020DF3CF13F0F4CF2C
:1006400014F02C501324796E3150040DF3CF13F0B5
:10065000F4CF14F0795013247A6E010E7A5C02E123
:10066000320622D0070E7A5C02E132061DD00E0E51
:100670007A5C02E1320618D0080E7A5C02E132069A
:1006800013D0020E7A5C02E1322A0ED00B0E7A5C95
:1006900002E1322A09D00D0E7A5C02E1322A04D03E
:1006A000040E7A5C01E1322A795225E132BE0ED085
:1006B000020E325C0BE3354A362A1AC01EF01BC00C
:1006C0001FF01CC020F01DC021F014D03250800A51
:1006D0007E0810E3355202E1365203E03506000E83
:1006E000365A00011AC01EF01BC01FF01CC020F0BB
:1006F0001DC021F0326A79C031F02D520DE1FF0E9C
:10070000345C04E307E1F60E335C04E20A0E3326A0
:10071000000E3422000112D0345203E1C80E335CC3
:100720000AE3010E236E1AC01EF01BC01FF01CC08E
:1007300020F01DC021F00001346A336A2A6A245275
:1007400002E1255206E082842406000E255A0001AB
:1007500001D082942FC213F030C214F031C2F4FFE2
:1007600032C2F3FF110083D888D841D875D8E6D8B3
:10077000F3D8A1D8396A1894236A216A206A1F6ABB
:100780001E6A18821890256A246A030E3F5C01E3F2
:100790003F6A030E555C02E3010E556E030E665C64
:1007A00002E3020E666E020EF76E320EF66EBBECC0
:1007B00000F00D0EC3EC00F0C80EE2EC00F018A043
:1007C00003D015D849D818901894C0D9DED87DC068
:1007D00039F0020E395C09E118941AC01EF01BC0F2
:1007E0001FF01CC020F01DC021F0E9D7FFD7100E6C
:1007F000926E460E936E946A896A8A6A8B6A899CA5
:10080000899E320EE2EC00F0809C030E856FC0D909
:10081000050EE2EC00F0030E856FBAD9960EEFECF0
:1008200000F0030E856FB4D9960EEFEC00F0020EC7
:10083000856FAED9960EEFEC00F0280E866FAED91C
:10084000080E866FABD9010E866FA8D9060E866F8B
:10085000A5D90C0E866FA2D18D6B050E8C6F4AEC5C
:1008600006F006EC00F08D6B020E8C6F13D2100EAA
:10087000926E460E936E946A12002B6A81B22B2AF6
:100880002C6A81B42C2A2D6A81BC2D2A2B50020D92
:10089000F3CF13F0F4CF14F02C501324316E2E6AE2
:1008A0002F6A306A2A6A326A366A356A386A376A63
:1008B000346A336A120027C088F0896B91D98A5351
:1008C0000DE07B6A020E7B5C08E2010E8B6FBFD9E4
:1008D000640EE2EC00F07B2AF5E32BD027C088F011
:1008E000030E896F7DD98A530DE07B6A030E7B5C12
:1008F00008E2020E8B6FABD9960EE2EC00F07B2A79
:10090000F5E317D027C088F0020E896F69D98A53A2
:100910000DE07B6A040E7B5C08E2010E8B6F97D9B9
:10092000640EE2EC00F07B2AF5E303D0030E8B6F3C
:100930008ED9010E0C6EF40EE3EF00F0E2EC06F03F
:10094000010E9A6F54EC07F0020E9A6F54EC07F008
:10095000030E9A6F54EF07F0010E40147C6E7C5228
:1009600002E1526A02D0010E526E020E40147C6EF9
:100970007C5202E1536A02D0010E536E4AC050F01D
:1009800049C04FF04DC051F01200040E806F7E6AD6
:100990007F6A1890188218A296D0010E8B6F57D9D3
:1009A00001EE8AF0020EF76E4C0EF66E11EC01F0BD
:1009B000EF6A8DD9020E906F7DD9030E906F7AD9B0
:1009C000040E906F77D9020E7E5C02E27F6A16D029
:1009D000FF0E8025056E066AFF0E062206520CE108
:1009E00005507E5C09E3030E805D04E3030E805D29
:1009F0007F6E01D07F6A02D07E047F6E020E826F0E
:100A0000050E825DD8B05ED07F508225136E146AC9
:100A10001436020E135C836F83517E5C03E1010E7A
:100A2000816F01D0816B83530FE182C091F001EEA1
:100A3000ABF0020EF76E620EF66E11EC01F0EF6A8B
:100A400081C092F05AD93BD0010E835D0FE182C084
:100A500091F001EEABF0020EF76E6C0EF66E11EC3B
:100A600001F0EF6A81C092F048D929D0020E835D6F
:100A70000FE182C091F001EEABF0020EF76E780E3E
:100A8000F66E11EC01F0EF6A81C092F036D917D002
:100A9000030E835D11E182C091F001EEABF0420ED6
:100AA000EE6E610EEE6E630EEE6E6B0EEE6EEF6A24
:100AB00081C092F022D903D082C090F0FBD8822B63
:100AC000D8A09ED718924DD9225215E0010E225C73
:100AD0000EE1FF0E8025056E066AFF0E0622065205
:100AE00003E105507E5C01E27E2A000103D07E52C4
:100AF00001E07E06188261D961D9010E955D24E17D
:100B0000020E8B6FA4D87E5204E1010E7D6E12009E
:100B10001AD0010E7E5C05E108EC09F09FC084F05C
:100B200012D0020E7E5C0CE101EECCF0020EF76EEC
:100B3000860EF66E11EC01F0EF6A09EC0AF003D0B4
:100B4000010E7D6E1200188226D7120018901882AE
:100B500018A214D001EE8AF0020EF76E8E0EF66E19
:100B600011EC01F0EF6AB3D8020E906FA3D8030E18
:100B7000906FA0D8040E906F9DD818921ED91ED9E0
:100B8000010E955D03E1020E8B6F61D0E1D712007B
:100B900085C0A6F038EC0AF050EF0AF0809C863948
:100BA0000F0B876F87C085F0F3DF0F0E8615876FF9
:100BB00087C085F0EDDF010E865D010ED8A4000E22
:100BC000176E020E865D010ED8A4000E171204E007
:100BD000020EE2EC00F003D0320EEFEC00F0120057
:100BE000895304E1010E88158A6F30D0010E895DAA
:100BF00004E1020E88158A6F29D0020E895D04E196
:100C0000040E88158A6F22D0030E895D04E1080E58
:100C100088158A6F1BD0040E895D04E1100E8815BB
:100C20008A6F14D0050E895D04E1200E88158A6F45
:100C30000DD0060E895D04E1400E88158A6F06D03E
:100C4000070E895D03E1800E88158A6F12008B53B1
:100C500004E1256A0A0E246E1CD0010E8B5D04E1AE
:100C6000256A140E246E15D0020E8B5D04E1256AF0
:100C7000320E246E0ED0030E8B5D04E1256AC80E81
:100C8000246E07D0040E8B5D04E1030E256EE80E82
:100C9000246E12008F6B010E8E6F8E518C5D8F5102
:100CA0008D5907E3010EE2EC00F08E2B000E8F232E
:100CB000F4E31200800E016E90C002F0010E12ECFF
:100CC00000F0020EF76EA40EF66E66EF00F0800ED6
:100CD000016E30EC00F0020EF76EA40EF66E66ECBC
:100CE00000F0800E016E30EC00F001EE8AF0EE5064
:100CF00003E06EEC00F0FBD71200800E016E91C095
:100D000002F0010E12EC00F0020EF76EA40EF66E69
:100D100066EC00F0010E925D15E1800E016E91C04F
:100D200002F0010E12EC00F05B0E6EEC00F001EE32
:100D3000ABF0EE5003E06EEC00F0FBD75D0E6EEC16
:100D400000F00ED0800E016E91C002F0020E12EC87
:100D500000F001EEABF0EE5003E06EEC00F0FBD7DC
:100D60001200F29E36C094F035C093F0F28E93518B
:100D7000375C945138580BE2010E226E1AC01EF0F7
:100D80001BC01FF01CC020F01DC021F011D0375037
:100D9000935D385094590BE2FF0E226E1AC01EF07C
:100DA0001BC01FF01CC020F01DC021F001D0226A22
:100DB00094C038F093C037F01200120023C095F0B1
:100DC000236A1200986B976B98C0B0F097C0AFF091
:100DD0009BEC0AF0B1C099F099533AE1020E9725C5
:100DE000A96F000E9821AA6F81EC0AF0ACC03BF00D
:100DF000ABC03AF0040E9725A96F000E9821AA6F98
:100E000081EC0AF0ACC03DF0ABC03CF0080E972579
:100E1000A96E000E9821AA6EDBEC00F0276EB76B6E
:100E20003A0EB66FB96B0A0EB86F010EBB6F2C0E7F
:100E3000BA6FD2EC0AF0B76B3C0EB66FB96B0A0E04
:100E4000B86F070EBB6FD00EBA6FD2EC0AF027D086
:100E500071EC0DF0C55308E1270EA76F020EA86FC5
:100E60005AEC0AF0996B1BD0D1EC0DF0D05308E18D
:100E7000270EA76F030EA86F5AEC0AF0996B0FD0DC
:100E80003B6A3C0E3A6E3D6A320E3C6E276A270E74
:100E9000A76FA86B5AEC0AF0E5EC0AF0996B99C0C1
:100EA00026F099C096F01200146A200E136E166A8E
:100EB0009AC015F01506000E165A1650200DF3CFE5
:100EC00016F01550200DF3CF15F0F45016261550DE
:100ED00013249C6F165014209D6F9DC0B0F09CC0D1
:100EE000AFF09BEC0AF0B1C09EF09E53D8A47BD12A
:100EF000010E9A5DD8A47CD0020E9C25A96E000E2E
:100F00009D21AA6EDBEC00F03E6E030E9C25A96EBF
:100F1000000E9D21AA6EDBEC00F03F6E040E9C25B6
:100F2000A96E000E9D21AA6EDBEC00F0406E050E4E
:100F30009C25A96F000E9D21AA6F81EC0AF0ACC020
:100F400042F0ABC041F0070E9C25A96F000E9D2119
:100F5000AA6F81EC0AF0ACC044F0ABC043F0090EBC
:100F60009C25A96F000E9D21AA6F81EC0AF0ACC0F0
:100F700046F0ABC045F00B0E9C25A96F000E9D21DD
:100F8000AA6F81EC0AF0ACC048F0ABC047F00D0E80
:100F90009C25A96F000E9D21AA6F81EC0AF0ACC0C0
:100FA0004AF0ABC049F00F0E9C25A96E000E9D21A2
:100FB000AA6EDBEC00F04B6E100E9C25A96E000EA5
:100FC0009D21AA6EDBEC00F04C6E110E9C25A96EE3
:100FD000000E9D21AA6EDBEC00F04D6E120E9C25DA
:100FE000A96E000E9D21AA6EDBEC00F04E6EFAD0C9
:100FF000020E9A5DD8A47CD0020E9C25A96E000E2C
:101000009D21AA6EDBEC00F0546E030E9C25A96EA8
:10101000000E9D21AA6EDBEC00F0556E040E9C259F
:10102000A96E000E9D21AA6EDBEC00F0566E050E37
:101030009C25A96F000E9D21AA6F81EC0AF0ACC01F
:1010400058F0ABC057F0070E9C25A96F000E9D21EC
:10105000AA6F81EC0AF0ACC05AF0ABC059F0090E8F
:101060009C25A96F000E9D21AA6F81EC0AF0ACC0EF
:101070005CF0ABC05BF00B0E9C25A96F000E9D21B0
:10108000AA6F81EC0AF0ACC05EF0ABC05DF00D0E53
:101090009C25A96F000E9D21AA6F81EC0AF0ACC0BF
:1010A00060F0ABC05FF00F0E9C25A96E000E9D2175
:1010B000AA6EDBEC00F0616E100E9C25A96E000E8E
:1010C0009D21AA6EDBEC00F0626E110E9C25A96ECC
:1010D000000E9D21AA6EDBEC00F0636E120E9C25C3
:1010E000A96E000E9D21AA6EDBEC00F0646E7AD032
:1010F000030E9A5DD8A476D0020E9C25A96E000E30
:101100009D21AA6EDBEC00F0656E030E9C25A96E96
:10111000000E9D21AA6EDBEC00F0666E040E9C258D
:10112000A96E000E9D21AA6EDBEC00F0676E050E25
:101130009C25A96F000E9D21AA6FE3D9ACC069F070
:10114000ABC068F0070E9C25A96F000E9D21AA6F09
:10115000D8D9ACC06BF0ABC06AF0090E9C25A96F62
:10116000000E9D21AA6FCDD9ACC06DF0ABC06CF064
:101170000B0E9C25A96F000E9D21AA6FC2D9ACC091
:101180006FF0ABC06EF00D0E9C25A96F000E9D2177
:10119000AA6FB7D9ACC071F0ABC070F00F0E9C2530
:1011A000A96E000E9D21AA6EDBEC00F0726E100E8F
:1011B0009C25A96E000E9D21AA6EDBEC00F0736EDB
:1011C000110E9C25A96E000E9D21AA6EDBEC00F08D
:1011D000746E120E9C25A96E000E9D21AA6EDBEC8A
:1011E00000F0756E10D09AC0C9F091EC0DF0CA53A2
:1011F00002E19E6B08D09AC0D2F05EEC0EF09AC06D
:10120000C0F029DA9E6B9EC026F09EC09BF01200B3
:10121000050EA26FA06BA16B1890188218A2B8D00F
:10122000010E8B6F27EC06F001EE8AF0020EF76ECE
:10123000BA0EF66E11EC01F0EF6A67EC06F0020EE2
:10124000906F5AEC06F0030E906F5AEC06F0040E05
:10125000906F5AEC06F0020EA05D02E2A16B16D070
:10126000FF0EA225056E066AFF0E062206520CE14D
:101270000550A05D09E3030EA25D04E3030EA25D29
:10128000A16F01D0A16B02D0A005A16F020EA46FC7
:10129000050EA45DD8B07BD0FE0EA425136E146A93
:1012A000FF0E1422A1511324A56FA551A05D03E1E7
:1012B000010EA36F01D0A36BA55310E1A4C091F060
:1012C00001EEABF0020EF76ED00EF66E11EC01F0EF
:1012D000EF6AA3C092F07DEC06F056D0010EA55D3A
:1012E00010E1A4C091F001EEABF0020EF76ED80E43
:1012F000F66E11EC01F0EF6AA3C092F07DEC06F0FF
:1013000043D0020EA55D10E1A4C091F001EEABF058
:10131000020EF76EE00EF66E11EC01F0EF6AA3C05C
:1013200092F07DEC06F030D0030EA55D14E1A4C070
:1013300091F001EEABF0430EEE6E6C0EEE6E6F0EA2
:10134000EE6E630EEE6E6B0EEE6EEF6AA3C092F061
:101350007DEC06F019D0040EA55D12E1A4C091F059
:1013600001EEABF0420EEE6E610EEE6E630EEE6EAF
:101370006B0EEE6EEF6AA3C092F07DEC06F004D027
:10138000A4C090F05AEC06F0A42BD8A081D71892F4
:10139000B1EC06F0225215E0010E225C0EE1FF0EC8
:1013A000A225056E066AFF0E0622065203E10550CD
:1013B000A05D02E20001A02B03D0A05301E0A00732
:1013C0001882DDEC06F0DEEC06F0010E955D1FE103
:1013D000020E8B6F27EC06F0A05303E1AAEC0EF08F
:1013E00015D0010EA05D03E1B3EC0EF00FD0020E9C
:1013F000A05D03E1BCEC0EF009D0030EA05D03E19B
:10140000C5EC0EF003D0010E9F6F1200188206D7B4
:101410001200189001EE8AF011EECCF0200EE75287
:1014200004E0E6CFEEFFE82EFAD7020EF76EE80EE4
:10143000F66E11EC01F0EF6A67EC06F0020E906FA9
:101440005AEC06F0030E906F5AEC06F0040E906F03
:101450005AEC06F0DDEC06F0DEEC06F0010E955DD0
:1014600005E1020E8B6F27EC06F001D0F3D71200D6
:10147000A63102E3898001D08990A651E8A202D06A
:10148000898201D08992A651E8A402D0898401D032
:101490008994A651E8A602D0898601D089961200C7
:1014A000898E020EE82EFED700000000899E280ECD
:1014B000EFEF00F0A85302E1A78122D0010EA85D52
:1014C00002E1A7831DD0020EA85D02E1A78518D016
:1014D000030EA85D02E1A78713D0040EA85D02E108
:1014E000A7890ED0050EA85D02E1A78B09D0060ED4
:1014F000A85D02E1A78D04D0070EA85D01E1A78FCA
:101500001200AAC0AAFFA9C0A9FFDBEC00F0AD6FD2
:10151000010EA925A96E000EAA21AA6EDBEC00F02F
:10152000AE6FAEC014F0136AAD511324AB6F000E52
:101530001420AC6F1200B0C0AAFFAFC0A9FFDBEC53
:1015400000F0B46FA50EB45D03E0010EB16F1200A0
:10155000010EAF25A96E000EB021AA6EDBEC00F0E3
:10156000B56F010EB55D03E0020EB16F12001F0EE4
:10157000AF25A96E000EB021AA6EDBEC00F0B26FB1
:10158000B0C0EBF0AFC0EAF01F0EEC6F1CEC10F037
:10159000EDC0B3F0B251B35D03E0030EB16F1200C2
:1015A000B16B1200B851B65DB951B75904E2B9C078
:1015B000B7F0B8C0B6F0B651BA5DB751BB5904E246
:1015C000BBC0B7F0BAC0B6F01200BE6BBD6B020E66
:1015D000BD25E46F000EBE21E56F3BC0E7F03AC0C9
:1015E000E6F000EC10F0E8C0BFF0BF5303E0BFC06E
:1015F000BCF01200040EBD25E46F000EBE21E56FA5
:101600003DC0E7F03CC0E6F000EC10F0E8C0BFF0F1
:10161000BF5303E0BFC0BCF01200080EBD25DE6F53
:10162000000EBE21DF6F27C0E0F0DDEC0FF0E1C05F
:10163000BFF0BF5303E0BFC0BCF01200BEC0F2F069
:10164000BDC0F1F034EC10F0F3C0BFF0BFC026F025
:10165000BFC0BCF01200146A200E136E166AC0C020
:1016600015F01506000E165A1650200DF3CF16F081
:101670001550200DF3CF15F0F450162615501324F5
:10168000C26F16501420C36F010EC05DD8A4B1D034
:10169000020EC225DE6F000EC321DF6F3EC0E0F0F8
:1016A000DDEC0FF0E1C0C4F0C4530CE1030EC22521
:1016B000DE6F000EC321DF6F3FC0E0F0DDEC0FF006
:1016C000E1C0C4F0C4530CE1040EC225DE6F000E6D
:1016D000C321DF6F40C0E0F0DDEC0FF0E1C0C4F0EB
:1016E000C4530EE1050EC225E46F000EC321E56F61
:1016F00042C0E7F041C0E6F000EC10F0E8C0C4F0F2
:10170000C4530EE1070EC225E46F000EC321E56F3E
:1017100044C0E7F043C0E6F000EC10F0E8C0C4F0CD
:10172000C4530EE1090EC225E46F000EC321E56F1C
:1017300046C0E7F045C0E6F000EC10F0E8C0C4F0A9
:10174000C4530EE10B0EC225E46F000EC321E56FFA
:1017500048C0E7F047C0E6F000EC10F0E8C0C4F085
:10176000C4530EE10D0EC225E46F000EC321E56FD8
:101770004AC0E7F049C0E6F000EC10F0E8C0C4F061
:10178000C4530CE10F0EC225DE6F000EC321DF6FC4
:101790004BC0E0F0DDEC0FF0E1C0C4F0C4530CE14D
:1017A000100EC225DE6F000EC321DF6F4CC0E0F0CB
:1017B000DDEC0FF0E1C0C4F0C4530CE1110EC22502
:1017C000DE6F000EC321DF6F4DC0E0F0DDEC0FF0E7
:1017D000E1C0C4F0C4530CE1120EC225DE6F000E4E
:1017E000C321DF6F4EC0E0F0DDEC0FF0E1C0C4F0CC
:1017F00069D1020EC05DD8A4B1D0020EC225DE6F41
:10180000000EC321DF6F54C0E0F0DDEC0FF0E1C04B
:10181000C4F0C4530CE1030EC225DE6F000EC321D9
:10182000DF6F55C0E0F0DDEC0FF0E1C0C4F0C45351
:101830000CE1040EC225DE6F000EC321DF6F56C01F
:10184000E0F0DDEC0FF0E1C0C4F0C4530EE1050E92
:10185000C225E46F000EC321E56F58C0E7F057C002
:10186000E6F000EC10F0E8C0C4F0C4530EE1070E3F
:10187000C225E46F000EC321E56F5AC0E7F059C0DE
:10188000E6F000EC10F0E8C0C4F0C4530EE1090E1D
:10189000C225E46F000EC321E56F5CC0E7F05BC0BA
:1018A000E6F000EC10F0E8C0C4F0C4530EE10B0EFB
:1018B000C225E46F000EC321E56F5EC0E7F05DC096
:1018C000E6F000EC10F0E8C0C4F0C4530EE10D0ED9
:1018D000C225E46F000EC321E56F60C0E7F05FC072
:1018E000E6F000EC10F0E8C0C4F0C4530CE10F0EB9
:1018F000C225DE6F000EC321DF6F61C0E0F0DDECBA
:101900000FF0E1C0C4F0C4530CE1100EC225DE6F2D
:10191000000EC321DF6F62C0E0F0DDEC0FF0E1C02C
:10192000C4F0C4530CE1110EC225DE6F000EC321BA
:10193000DF6F63C0E0F0DDEC0FF0E1C0C4F0C45332
:101940000CE1120EC225DE6F000EC321DF6F64C0F2
:10195000E0F0DDEC0FF0E1C0C4F0B4D0030EC05DE8
:10196000D8A4B0D0020EC225DE6F000EC321DF6FF7
:1019700065C0E0F0DDEC0FF0E1C0C4F0C4530CE151
:10198000030EC225DE6F000EC321DF6F66C0E0F0DC
:10199000DDEC0FF0E1C0C4F0C4530CE1040EC2252D
:1019A000DE6F000EC321DF6F67C0E0F0DDEC0FF0EB
:1019B000E1C0C4F0C4530EE1050EC225E46F000E71
:1019C000C321E56F69C0E7F068C0E6F000EC10F0F5
:1019D000E8C0C4F0C4530EE1070EC225E46F000E48
:1019E000C321E56F6BC0E7F06AC0E6F000EC10F0D1
:1019F000E8C0C4F0C4530EE1090EC225E46F000E26
:101A0000C321E56F6DC0E7F06CC0E6F000EC10F0AC
:101A1000E8C0C4F0C4530EE10B0EC225E46F000E03
:101A2000C321E56F6FC0E7F06EC0E6F000EC10F088
:101A3000E8C0C4F0C4530EE10D0EC225E46F000EE1
:101A4000C321E56F71C0E7F070C0E6F000EC10F064
:101A5000E8C0C4F0C4530CE10F0EC225DE6F000EC7
:101A6000C321DF6F72C0E0F0DDEC0FF0E1C0C4F025
:101A7000C4530CE1100EC225DE6F000EC321DF6FD0
:101A800073C0E0F0DDEC0FF0E1C0C4F0C4530CE132
:101A9000110EC225DE6F000EC321DF6F74C0E0F0AF
:101AA000DDEC0FF0E1C0C4F0C4530CE1120EC2250E
:101AB000DE6F000EC321DF6F75C0E0F0DDEC0FF0CC
:101AC000E1C0C4F0C45308E1C3C0F2F0C2C0F1F0F9
:101AD00034EC10F0F3C0C4F0C4C026F0C4C0C1F0B0
:101AE0001200C76B800EC66FC7C0B0F0C6C0AFF0A3
:101AF0009BEC0AF0B1C0C8F0C85310E1C7C0FBF0BE
:101B0000C6C0FAF0FD6BFC6BB1EC10F0FEC0C8F083
:101B1000C85304E1E2EC06F096C0C8F0C8C0C5F0B6
:101B20001200146A200E136E166AC9C015F015064D
:101B3000000E165A1650200DF3CF16F01550200D3A
:101B4000F3CF15F0F450162615501324CD6F165010
:101B50001420CE6F800ECD25CB6F000ECE21CC6F22
:101B6000CCC0B0F0CBC0AFF09BEC0AF0B1C0CFF06E
:101B7000CF5314E1CCC0FBF0CBC0FAF0CEC0FDF0E7
:101B8000CDC0FCF0B1EC10F0FEC0CFF0CF5306E1B9
:101B9000C9C09AF054EC07F09BC0CFF0CFC0CAF098
:101BA0001200AA6BFA0EA96F81EC0AF0ACC03BF0F0
:101BB000ABC03AF03B5205E10A0E3A5C02E2000E7D
:101BC00001D0010E176E010E3B5C06E303E12D0E02
:101BD0003A5C02E3000E01D0010E17160001D8B4E2
:101BE0006AD0AA6BFC0EA96F81EC0AF0ACC03DF084
:101BF000ABC03CF0B76B3C0EB66FB96B0A0EB86F5A
:101C0000070EBB6FD00EBA6FD2EC0AF0AA6AC80EEC
:101C1000A96EDBEC00F03E6EAA6AC90EA96EDBEC81
:101C200000F03F6EAA6ACA0EA96EDBEC00F0406EAF
:101C3000AA6BCC0EA96F81EC0AF0ACC042F0ABC02D
:101C400041F0AA6BCE0EA96F81EC0AF0ACC044F053
:101C5000ABC043F0466A456A486A476A4A6A496ABD
:101C6000020E4B6E4C6E4D6E010E4E6E020ED26F1A
:101C700025D8030ED26F22D8E5EC0AF0BCC0D1F013
:101C8000D15306E1010EC06F2BEC0BF0C1C0D1F0B7
:101C9000D15306E1020EC06F2BEC0BF0C1C0D1F0A6
:101CA000D15306E1030EC06F2BEC0BF0C1C0D1F095
:101CB000D1C0D0F002D0010ED06F1200010ED25D63
:101CC00016E1010E3E6E3F6A406A426A416A446E06
:101CD0006A0E436E466A456A486A476A4A6A496AB2
:101CE000020E4B6E4C6E4D6E010E4E6E32D0020ED9
:101CF000D25D17E1010E546E556E566A5868CE0ECD
:101D0000576E5A6A640E596E5C6A5B6A5E6A5D6AF7
:101D1000606A5F6A020E616E626A636A010E646ED7
:101D200018D0030ED25D15E1656A020E666E676A11
:101D3000696A686A6B6A640E6A6E6D6A6C6A6F6A59
:101D40006E6A716A706A726A020E736E746E010E48
:101D5000756E12000101010E0E6F00015AEC11F0B8
:101D60000FC1D3F012000101020E0E6F00015AECF8
:101D700011F00FC1D4F012000101030E0E6F00012B
:101D80005AEC11F00FC1D5F01200030ED86FD76BCB
:101D9000DA6BDB69188218A27BD001EE8AF0020EA2
:101DA000F76EF60EF66E11EC01F0EF6A67EC06F0D6
:101DB000020E906F5AEC06F0030E906F5AEC06F08C
:101DC000040E906F5AEC06F0D75303E1010ED96F61
:101DD00001D0D96B800E016EC00E30EC00F0030E06
:101DE000F76E0C0EF66E66EC00F00101020E086F45
:101DF0000B0E096F3BC00BF13AC00AF1D9C00CF1D0
:101E000000011CEC11F0010ED75D03E1010ED96F4A
:101E100001D0D96B800E016E940E30EC00F0030EF1
:101E2000F76E180EF66E66EC00F00101030E026FFD
:101E30000B0E036F3DC005F13CC004F1D9C006F1A3
:101E40000001B4D9020ED75D12E1040E916F01EECC
:101E5000ABF0420EEE6E610EEE6E630EEE6E6B0E2A
:101E6000EE6EEF6A010E926F7DEC06F010D0040E5C
:101E7000916F01EEABF0420EEE6E610EEE6E630EF0
:101E8000EE6E6B0EEE6EEF6A926B7DEC06F01892C2
:101E9000B1EC06F02252D8B44BD0DA5317E1010E60
:101EA000225C0FE1FF0ED825056E066AFF0E0622A2
:101EB000065203E10550D75D03E20001D72B1882DB
:101EC00004D0D75302E0D707188232D0DB5317E192
:101ED000010E225C09E1010E3B5C2C0ED8B43A5C89
:101EE00002E23A4A3B2A09D03B5203E10B0E3A5C2C
:101EF00003E33A06000E3B5A0001188219D0010E86
:101F0000DB5D16E1010E225C09E1070E3D5CD00E9F
:101F1000D8B43C5C02E23C4A3D2A09D03D5203E180
:101F20000B0E3C5C03E33C06000E3D5A0001188298
:101F3000DDEC06F0DEEC06F0010E955D3CE1020EF4
:101F40008B6F27EC06F0DA5317E1020ED75D04E140
:101F5000010ED66F12000FD0010EDA6FD7C0DBF082
:101F6000D75305E13BC0DDF03AC0DCF004D03DC002
:101F7000DDF03CC0DCF01FD0DB530DE1B76B3A0E57
:101F8000B66FB96B0A0EB86F010EBB6F2C0EBA6F2D
:101F9000D2EC0AF00CD0B76B3C0EB66FB96B0A0EE0
:101FA000B86F070EBB6FD00EBA6FD2EC0AF0E5EC3B
:101FB0000AF0DA6BDB69EFD61200010EE36F040E54
:101FC000E35D1BE2DFC0AAFFDEC0A9FFE051CBEC5E
:101FD00000F00A0EE2EC00F0DFC0AAFFDEC0A9FFAD
:101FE000DBEC00F0E26FE251E05D02E1E16B120038
:101FF000050EE2EC00F0E32BE2E3050EE16F1200C8
:10200000E5C0DFF0E4C0DEF0E6C0E0F0D6DFE1C01E
:10201000E9F0E95303E0E9C0E8F01200010EE4251D
:10202000DE6F000EE521DF6FE7C0E0F0C6DFE1C044
:10203000E9F0E9C0E8F01200EE6BEC05196EEF6B09
:10204000EF51195C0DE3EF51EA25A96E000EEB216B
:10205000AA6EDBEC00F0F06FF051EE27EF2BF0E30F
:10206000EE510008ED6F1200130EF125A96F000E5E
:10207000F221AA6F81EC0AF0ACC0F7F0ABC0F6F029
:10208000270EF75D08E303E1100EF65D04E300019F
:10209000040EF36F1200030EF75D1AE303E1E90E7D
:1020A000F65D16E3800E0001F125F86F000EF221B7
:1020B000F96FF2C0FBF0F1C0FAF0F9C0FDF0F8C022
:1020C000FCF04FD8270EA76F010EA86F5AEC0AF04C
:1020D000F2C0DFF0F1C0DEF0A50EE06F6EDFE1C010
:1020E000F5F0F55303E0F5C0F3F01200010EF12511
:1020F000DE6F000EF221DF6F010EE06F5EDFE1C0E8
:10210000F5F0F55303E0F5C0F3F01200F64BF72BB2
:10211000130EF125E46F000EF221E56FF7C0E7F032
:10212000F6C0E6F06DDFE8C0F5F0F55303E0F5C06A
:10213000F3F01200F2C0EBF0F1C0EAF01F0EEC6F0A
:102140007BDFEDC0F4F01F0EF125DE6F000EF221F3
:10215000DF6FF4C0E0F031DFE1C0F5F0F5C0F3F07F
:102160001200FF6B200EFF5D1FE2FF51FA25A96EE2
:10217000000EFB21AA6EDBEC00F00101006F0001F4
:10218000FF51FC25DE6F000EFD21DF6F00C1E0F086
:1021900014DFE1C001F101010153000103E001C1BD
:1021A000FEF01200FF2BDEE3FE6B1200146A03C187
:1021B00013F0134A142A166A080E156E050E155EE2
:1021C000000E165A135015240101076F02C13EF18B
:1021D00003C13FF1000180EC1AF0010E0101065D20
:1021E000000117E1800E016E02C102F00101070536
:1021F00012EC00F05B0E6EEC00F0800E016E02C17E
:1022000002F0090E0101032512EC00F05D0E6EECE8
:1022100000F00001800E016E02C102F001010751C1
:1022200012EC00F0050E046E05C10EF004C10DF0B5
:102230003AEC00F000011200146A09C113F0134ACD
:10224000142A166A080E156E050E155E000E165A33
:102250001350152401010D6F08C13EF109C13FF172
:10226000000180EC1AF0010E01010C5D000117E184
:10227000800E016E08C102F001010D0512EC00F0A4
:102280005B0E6EEC00F0800E016E08C102F0090ECC
:102290000101092512EC00F05D0E6EEC00F000016A
:1022A00008C146F10DC147F10BC149F10AC148F11E
:1022B00003EF1BF0010E01010E5D000121E13EC0A4
:1022C00010F13FC011F142C013F141C012F144C0FE
:1022D00015F143C014F146C017F145C016F148C0CE
:1022E00019F147C018F14AC01BF149C01AF14BC09F
:1022F0001CF14CC01DF14DC01EF14EC01FF14BD062
:10230000020E01010E5D000121E154C010F155C023
:1023100011F158C013F157C012F15AC015F159C04C
:1023200014F15CC017F15BC016F15EC019F15DC01D
:1023300018F160C01BF15FC01AF161C01CF162C0EE
:102340001DF163C01EF164C01FF125D0030E010111
:102350000E5D000120E165C010F166C011F169C099
:1023600013F168C012F16BC015F16AC014F16DC0B1
:1023700017F16CC016F16FC019F16EC018F171C081
:102380001BF170C01AF172C01CF173C01DF174C052
:102390001EF175C01FF10101206B216B1882010134
:1023A0001153000105E101010C0E226F00010DD057
:1023B000010E0101115D000105E101010A0E226F0C
:1023C000000103D00101050E226F01012205266FD5
:1023D000000118A295EF16F0010E8B6F27EC06F0A6
:1023E000800E016E30EC00F0020EF76EA40EF66E59
:1023F00066EC00F0800E016E30EC00F0030EF76E1C
:10240000240EF66E66EC00F0010E046E01010E5112
:1024100038EC00F0030EF76E2C0EF66E66EC00F052
:102420000001020E906F5AEC06F0030E906F5AEC0A
:1024300006F0040E906F5AEC06F0020E0101205DCA
:10244000000104E20101216B000121D0FF0E010116
:102450002225056E066AFF0E06220652000114E1CF
:1024600005500101205D00010FE3030E0101225D13
:10247000000106E3030E0101225D216F000102D07D
:102480000101216B000103D001012005216F010131
:10249000020E246F050E0101245D0001D8B094EFF7
:1024A00016F0FE0E01012425136E146AFF0E14228D
:1024B00021511324256F2551265D0001D8A08AEFF4
:1024C00016F001012551205D000105E10101010E19
:1024D000236F000102D00101236B010111530001A0
:1024E000D8A470D001012553000104E10101276B3C
:1024F000000167D0010E0101255D000105E1010128
:10250000010E276F00015DD0020E0101255D000163
:1025100005E10101020E276F000153D0030E0101F6
:10252000255D000105E10101030E276F000149D07F
:10253000040E0101255D000105E10101040E276F74
:1025400000013FD0050E0101255D000105E10101FB
:10255000050E276F000135D0060E0101255D000133
:1025600005E10101060E276F00012BD0070E0101C6
:10257000255D000105E10101070E276F000121D053
:10258000080E0101255D000105E10101080E276F1C
:10259000000117D0090E0101255D000105E10101CF
:1025A000090E276F00010DD00A0E0101255D000103
:1025B00005E101010A0E276F000102D00101276920
:1025C00000018AD0010E0101115D0001D8A45CD088
:1025D00001012553000104E10101276B000153D0E3
:1025E000010E0101255D000105E10101010E276FCA
:1025F000000149D0020E0101255D000105E1010144
:10260000020E276F00013FD0030E0101255D00017E
:1026100005E10101030E276F000135D0040E010111
:10262000255D000105E10101040E276F00012BD09B
:10263000050E0101255D000105E10101060E276F70
:10264000000121D0060E0101255D000105E1010117
:10265000070E276F000117D0070E0101255D00014D
:1026600005E10101090E276F00010DD0080E0101DF
:10267000255D000105E101010A0E276F000102D06E
:1026800001012769000128D001012553000104E15F
:102690000101276B000120D0010E0101255D000121
:1026A00005E10101010E276F000116D0020E0101A4
:1026B000255D000105E101010A0E276F00010CD024
:1026C000030E0101255D000105E10101090E276FDF
:1026D000000102D00101276901012729000113E14E
:1026E00024C13AF101EEEDF0420EEE6E610EEE6E97
:1026F000630EEE6E6B0EEE6EEF6A23C13BF134ECAF
:102700001AF089EF16F00101275300013FE1800E16
:10271000016E24C102F0010E12EC00F0030EF76E00
:102720003A0EF66E66EC00F0010E0101105D00013C
:1027300016E124C140F101010B0E416F02EE0EF0D3
:10274000030EF76E460EF66E11EC01F0EF6A23C130
:1027500042F10101436B000190EC1AF015D024C145
:1027600040F101010B0E416F02EE0EF0030EF76E09
:102770004E0EF66E11EC01F0EF6A23C142F1010139
:10278000436B000190EC1AF089EF16F0010E010185
:10279000275D0001D8A45BD0800E016E24C102F039
:1027A000010E12EC00F0030EF76E580EF66E66EC9A
:1027B00000F001011153000116E124C140F10101B3
:1027C0000B0E416F02EE0EF0030EF76E640EF66E06
:1027D00011EC01F0EF6A23C142F10101436B0001EA
:1027E00090EC1AF032D0010E0101115D000117E1E9
:1027F00024C140F101010B0E416F02EE0EF0540EA8
:10280000EE6E650EEE6E6D0EEE6E700EEE6EEF6A93
:1028100023C142F1436B000190EC1AF016D024C1A1
:1028200040F101010B0E416F02EE0EF0460EEE6E0E
:102830006C0EEE6E6F0EEE6E770EEE6EEF6A23C1CB
:1028400042F1436B000190EC1AF089EF16F0020E92
:102850000101275D000128E1800E016E24C102F014
:10286000010E12EC00F0030EF76E6E0EF66E66ECC3
:1028700000F013C133F112C132F12AEC1AF035C164
:102880002BF134C12AF124C14EF101010B0E4F6F1F
:102890002BC151F12AC150F123C152F1536B0001F8
:1028A00043EC1BF089EF16F0030E0101275D0001D8
:1028B00027E1800E016E24C102F0010E12EC00F03F
:1028C000030EF76E7A0EF66E66EC00F015C133F16A
:1028D00014C132F12AEC1AF035C12DF134C12CF1BA
:1028E00024C14EF101010B0E4F6F2DC151F12CC1CE
:1028F00050F123C152F1536B000143EC1BF009D29C
:10290000040E0101275D00012EE1010111530001B8
:102910000EE1800E016E24C102F0010E12EC00F0F7
:10292000030EF76E860EF66E66EC00F00DD0800E8C
:10293000016E24C102F0010E12EC00F0030EF76EDE
:10294000920EF66E66EC00F024C108F101010B0E48
:10295000096F17C10BF116C10AF123C10CF1000177
:102960001CEC11F0D6D1050E0101275D00011CE120
:10297000800E016E24C102F0010E12EC00F0030E75
:10298000F76E9E0EF66E66EC00F024C108F10101B0
:102990000B0E096F19C10BF118C10AF123C10CF11B
:1029A00000011CEC11F0B5D1060E0101275D0001FC
:1029B0002EE10101115300010EE1800E016E24C1D0
:1029C00002F0010E12EC00F0030EF76EAA0EF66E86
:1029D00066EC00F00DD0800E016E24C102F0010EF5
:1029E00012EC00F0030EF76EB60EF66E66EC00F019
:1029F00024C108F101010B0E096F1BC10BF11AC1B3
:102A00000AF123C10CF100011CEC11F082D1070E78
:102A10000101275D0001D8A460D0800E016E24C1A1
:102A200002F0010E12EC00F0030EF76EC20EF66E0D
:102A300066EC00F001011C53000113E124C140F1D8
:102A400001010B0E416F02EE0EF04E0EEE6E6F0E98
:102A5000EE6EEF6A23C142F1436B000190EC1AF075
:102A60003BD0010E01011C5D000119E124C140F1C0
:102A700001010B0E416F02EE0EF0500EEE6E750E60
:102A8000EE6E6C0EEE6E730EEE6E650EEE6EEF6A0F
:102A900023C142F1436B000190EC1AF01DD0020EED
:102AA00001011C5D000118E124C140F101010B0E80
:102AB000416F02EE0EF04C0EEE6E610EEE6E740E75
:102AC000EE6E630EEE6E680EEE6EEF6A23C142F19B
:102AD000436B000190EC1AF01CD1080E0101275D38
:102AE0000001D8A460D0800E016E24C102F0010E56
:102AF00012EC00F0030EF76ECE0EF66E66EC00F0F0
:102B000001011D53000113E124C140F101010B0E2D
:102B1000416F02EE0EF04E0EEE6E6F0EEE6EEF6A2D
:102B200023C142F1436B000190EC1AF03BD0010E3F
:102B300001011D5D000119E124C140F101010B0EED
:102B4000416F02EE0EF0500EEE6E750EEE6E6C0ED4
:102B5000EE6E730EEE6E650EEE6EEF6A23C142F1FD
:102B6000436B000190EC1AF01DD0020E01011D5DB7
:102B7000000118E124C140F101010B0E416F02EE8A
:102B80000EF04C0EEE6E610EEE6E740EEE6E630E77
:102B9000EE6E680EEE6EEF6A23C142F1436B0001E8
:102BA00090EC1AF0B6D0090E0101275D0001D8A4FF
:102BB00072D00101115300010EE1800E016E24C19B
:102BC00002F0010E12EC00F0030EF76EDA0EF66E54
:102BD00066EC00F00DD0800E016E24C102F0010EF3
:102BE00012EC00F0030EF76EE60EF66E66EC00F0E7
:102BF00001011E53000113E124C140F101010B0E3C
:102C0000416F02EE0EF04E0EEE6E6F0EEE6EEF6A3C
:102C100023C142F1436B000190EC1AF03BD0010E4E
:102C200001011E5D000119E124C140F101010B0EFB
:102C3000416F02EE0EF0500EEE6E750EEE6E6C0EE3
:102C4000EE6E730EEE6E650EEE6EEF6A23C142F10C
:102C5000436B000190EC1AF01DD0020E01011E5DC5
:102C6000000118E124C140F101010B0E416F02EE99
:102C70000EF04C0EEE6E610EEE6E740EEE6E630E86
:102C8000EE6E680EEE6EEF6A23C142F1436B0001F7
:102C900090EC1AF03ED00A0E0101275D000139E1E7
:102CA000800E016E24C102F0010E12EC00F0030E42
:102CB000F76EF20EF66E66EC00F0010E01011F5D7C
:102CC000000115E124C140F101010B0E416F02EE3C
:102CD0000EF0590EEE6E650EEE6E730EEE6EEF6A2E
:102CE00023C142F1436B000190EC1AF012D024C1D1
:102CF00040F101010B0E416F02EE0EF04E0EEE6E32
:102D00006F0EEE6EEF6A23C142F1436B000190EC4F
:102D10001AF004D024C190F05AEC06F00101242BE3
:102D20000001D8A04AEF12F01892B1EC06F022523E
:102D300014E0010E225C09E101012651205D000131
:102D400002E20101202B000107D001012053000104
:102D500002E00101200700011882DDEC06F0DEEC44
:102D600006F0010E955DD8A427EF1AF0010121515C
:102D7000205D136E146AD8A01406020E1324286F67
:102D800011530001D8A470D001012053000104E1C7
:102D90000101276B000167D0010E0101205D0001D8
:102DA00005E10101010E276F00015DD0020E010156
:102DB000205D000105E10101020E276F000153D0E3
:102DC000030E0101205D000105E10101030E276FE3
:102DD000000149D0040E0101205D000105E101015F
:102DE000040E276F00013FD0050E0101205D000198
:102DF00005E10101050E276F000135D0060E010126
:102E0000205D000105E10101060E276F00012BD0B6
:102E1000070E0101205D000105E10101070E276F8A
:102E2000000121D0080E0101205D000105E1010132
:102E3000080E276F000117D0090E0101205D000167
:102E400005E10101090E276F00010DD00A0E0101F5
:102E5000205D000105E101010A0E276F000102D08B
:102E60000101276900018AD0010E0101115D0001F5
:102E7000D8A45CD001012053000104E10101276BBB
:102E8000000153D0010E0101205D000105E10101A7
:102E9000010E276F000149D0020E0101205D0001E3
:102EA00005E10101020E276F00013FD0030E010171
:102EB000205D000105E10101030E276F000135D0FF
:102EC000040E0101205D000105E10101040E276FE0
:102ED00000012BD0050E0101205D000105E101017B
:102EE000060E276F000121D0060E0101205D0001B2
:102EF00005E10101070E276F000117D0070E010140
:102F0000205D000105E10101090E276F00010DD0D0
:102F1000080E0101205D000105E101010A0E276F85
:102F2000000102D001012769000128D001012053CE
:102F3000000104E10101276B000120D0010E010115
:102F4000205D000105E10101010E276F000116D08F
:102F5000020E0101205D000105E101010A0E276F4B
:102F600000010CD0030E0101205D000105E101010B
:102F7000090E276F000102D00101276901012729ED
:102F800000010BE1020E8B6F27EC06F00101010E30
:102F90000F6F0001120027EF1AF001012753000103
:102FA0002BE10101100E586F0001EAEC1BF059C132
:102FB00029F1010E0101295D00011BE1010E010152
:102FC0000E5D000103E110C13EF00FD0020E0101C1
:102FD0000E5D000103E110C154F007D0030E0101A2
:102FE0000E5D000102E110C165F00EC1C0F02BECD6
:102FF0000BF0188227EF1AF0010E0101275D000186
:103000002AE10101110E816F000176EC21F082C1ED
:1030100029F1010E0101295D00011BE1010E0101F1
:103020000E5D000103E111C13FF00FD0020E01015E
:103030000E5D000103E111C155F007D0030E01013F
:103040000E5D000102E111C166F00EC1C0F02BEC73
:103050000BF01882FCD1020E0101275D0001D8A4FB
:103060004DD013C133F112C132F1F4D935C12FF172
:1030700034C12EF10101010E656F2E0E646F28C15F
:1030800066F10001B6EC1DF0010E0101675D000163
:103090002AE12FC137F12EC136F1E1D939C113F13F
:1030A00038C112F1010E01010E5D000105E113C1ED
:1030B00042F012C141F013D0020E01010E5D000179
:1030C00005E113C158F012C157F009D0030E0101F8
:1030D0000E5D000104E113C169F012C168F00EC178
:1030E000C0F02BEC0BF0030EF76EFE0EF66EBBEC91
:1030F00000F00D0EC3EC00F01882A9D1030E0101FF
:10310000275D0001D8A444D015C133F114C132F1B8
:10311000A1D935C131F134C130F10101010E656F22
:10312000300E646F28C166F10001B6EC1DF0010E8F
:103130000101675D00012AE131C137F130C136F18B
:103140008ED939C115F138C114F1010E01010E5D9E
:10315000000105E115C144F014C143F013D0020E83
:1031600001010E5D000105E115C15AF014C159F0CD
:1031700009D0030E01010E5D000104E115C16BF0E1
:1031800014C16AF00EC1C0F02BEC0BF018825FD1B5
:10319000040E0101275D000132E10101010E5F6FA4
:1031A000160E5E6F0001CCEC1CF060C129F1010E1F
:1031B0000101295D000121E1010E01010E5D000107
:1031C00005E117C146F016C145F013D0020E01010A
:1031D0000E5D000105E117C15CF016C15BF009D07E
:1031E000030E01010E5D000104E117C16DF016C16F
:1031F0006CF00EC1C0F02BEC0BF0188228D1050E3C
:103200000101275D000132E10101010E5F6F180E1F
:103210005E6F0001CCEC1CF060C129F1010E0101D0
:10322000295D000121E1010E01010E5D000105E1B2
:1032300019C148F018C147F013D0020E01010E5D0C
:10324000000105E119C15EF018C15DF009D0030E5F
:1032500001010E5D000104E119C16FF018C16EF0AB
:103260000EC1C0F02BEC0BF01882F1D0060E01015C
:10327000275D000132E10101010E5F6F1A0E5E6FE2
:103280000001CCEC1CF060C129F1010E0101295DA7
:10329000000121E1010E01010E5D000105E11BC1EC
:1032A0004AF01AC149F013D0020E01010E5D00016F
:1032B00005E11BC160F01AC15FF009D0030E0101E6
:1032C0000E5D000104E11BC171F01AC170F00EC166
:1032D000C0F02BEC0BF01882BAD0070E0101275D6D
:1032E00000012AE101011C0E5B6F00014DEC1CF096
:1032F0005CC129F1010E0101295D00011BE1010EF4
:1033000001010E5D000103E11CC14BF00FD0020E64
:1033100001010E5D000103E11CC161F007D0030E45
:1033200001010E5D000102E11CC172F00EC1C0F08E
:103330002BEC0BF018828BD0080E0101275D0001E9
:103340002AE101011D0E5B6F00014DEC1CF05CC118
:1033500029F1010E0101295D00011BE1010E0101AE
:103360000E5D000103E11DC14CF00FD0020E010102
:103370000E5D000103E11DC162F007D0030E0101E3
:103380000E5D000102E11DC173F00EC1C0F02BEC17
:103390000BF018825CD0090E0101275D00012AE1C3
:1033A00001011E0E5B6F00014DEC1CF05CC129F1A8
:1033B000010E0101295D00011BE1010E01010E5DFD
:1033C000000103E11EC14DF00FD0020E01010E5DA0
:1033D000000103E11EC163F007D0030E01010E5D81
:1033E000000102E11EC174F00EC1C0F02BEC0BF025
:1033F00018822DD00A0E0101275D000128E101018C
:103400001F0E586F0001E6D959C129F1010E0101C3
:10341000295D00011BE1010E01010E5D000103E1C8
:103420001FC14EF00FD0020E01010E5D000103E13D
:103430001FC164F007D0030E01010E5D000102E11F
:103440001FC175F00EC1C0F02BEC0BF01882CFEF4E
:1034500011F0120033C135F132C134F1120037C11D
:1034600039F136C138F112003AC190F05AEC06F049
:1034700001EEEDF0000EEE5202E0E83EFCD7056EE4
:1034800001013C51055C000108E1140E01013C5DA5
:10349000000103E30101130E3C6F01013C511408CC
:1034A0003D6F800E016E3AC102F03D5112EC00F00A
:1034B00001EEEDF0EE5003E06EEC00F0FBD7010EF4
:1034C00001013B5D00011BE1020E01013D5D0001B8
:1034D0000BE3800E016E3AC102F001013D0512ECD2
:1034E00000F05B0E6EEC00F00001800E016E3AC140
:1034F00002F0140E12EC00F05D0E6EEC00F0120003
:10350000800E016E3EC102F001013F5112EC00F04D
:10351000040EF76E100EF66E66EC00F0000112005D
:1035200002EE0EF0000EEE5202E0E83EFCD7010182
:10353000446F090E445D000103E30101080E446F6E
:103540000001146A41C113F0134A142A166A080EC6
:10355000156E01014451155E000E165A13501524C4
:10356000456F40C13EF141C13FF10001C9DF010E8D
:103570000101425D000136E1010E0101435D0001E0
:1035800019E1800E016E40C102F00101450512EC07
:1035900000F0280E6EEC00F0800E016E40C102F0CB
:1035A000090E0101412512EC00F0290E6EEC00F02D
:1035B000000117D0800E016E40C102F001014505E7
:1035C00012EC00F05B0E6EEC00F0800E016E40C15C
:1035D00002F0090E0101412512EC00F05D0E6EECC7
:1035E00000F00001800E016E40C102F00101455162
:1035F00012EC00F002EE0EF0EE5003E06EEC00F084
:10360000FBD70001120049C10AF048C109F00C6A59
:103610003C0E0B6EFAEC00F001014A6F0AC04BF150
:1036200049C10AF048C109F00C6A3C0E0B6EFAEC75
:1036300000F00EC04DF10DC04CF1800E016E46C180
:1036400002F00101475112EC00F0020E046E4BC172
:103650000EF04AC10DF03AEC00F03A0E6EEC00F0BC
:10366000800E016E46C102F0030E0101472512ECE7
:1036700000F0020E046E4DC10EF04CC10DF03AEC9C
:1036800000F000011200010151510001E8AE05D027
:103690000101050E546F000103D00101040E546FA7
:1036A000090E0101545D000103E30101080E546F8E
:1036B0000001146A4FC113F0134A142A166A080E47
:1036C000156E01015451155E000E165A1350152443
:1036D000556F800E016E4EC102F04F5112EC00F09A
:1036E000040EF76E100EF66E66EC00F0010E01018E
:1036F000525D000135E1010E0101535D000119E148
:10370000800E016E4EC102F00101550512EC00F071
:10371000280E6EEC00F0800E016E4EC102F0090E14
:1037200001014F2512EC00F0290E6EEC00F00001B3
:1037300017D0800E016E4EC102F00101550512EC4A
:1037400000F05B0E6EEC00F0800E016E4EC102F0D8
:10375000090E01014F2512EC00F05D0E6EEC00F039
:10376000010151510001E8AE23D0800E016E4EC11F
:1037700002F00101555112EC00F02D0E6EEC00F03C
:10378000010150510008566F000E5155576F800EC1
:10379000016E4EC102F0552912EC00F0040E046EC9
:1037A00057C10EF056C10DF03AEC00F0000110D0F8
:1037B000800E016E4EC102F00101555112EC00F075
:1037C000040E046E51C10EF050C10DF03AEC00F041
:1037D0000001120058C15AF1188218A238D0010E07
:1037E0008B6F27EC06F001EE8AF0040EF76E1C0ECC
:1037F000F66E11EC01F0EF6A67EC06F0020E906FC6
:103800005AEC06F0030E906F5AEC06F0040E906F1F
:103810005AEC06F0010E01015A5D00010CE1800E28
:10382000016E940E30EC00F0040EF76E300EF66E62
:1038300066EC00F00BD0800E016E940E30EC00F0C0
:10384000040EF76E460EF66E66EC00F01892B1ECC0
:1038500006F022520EE0010E01015A5D000104E162
:1038600001015A6B000103D00101010E5A6F0001E2
:103870001882DDEC06F0DEEC06F0010E955D0BE142
:10388000020E8B6F27EC06F05AC158F10101010EB0
:10389000596F00011200A1D712005BC15DF11882BF
:1038A00018A24DD0010E8B6F27EC06F001EE8AF0C6
:1038B000040EF76E5C0EF66E11EC01F0EF6A67EC29
:1038C00006F0020E906F5AEC06F0030E906F5AEC61
:1038D00006F0040E906F5AEC06F001015D530001F2
:1038E0000CE1800E016E940E30EC00F0040EF76EC9
:1038F000700EF66E66EC00F021D0010E01015D5DE8
:1039000000010CE1800E016E940E30EC00F0040E0C
:10391000F76E860EF66E66EC00F010D0020E010116
:103920005D5D00010BE1800E016E940E30EC00F045
:10393000040EF76E9C0EF66E66EC00F01892B1EC79
:1039400006F0010E225C0AE1020E01015D5D00013C
:1039500002E201015D2B000118820AD0222808E151
:1039600001015D53000102E001015D0700011882C1
:10397000DDEC06F0DEEC06F0010E955D0BE1020ECB
:103980008B6F27EC06F05DC15BF10101010E5C6FEE
:103990000001120085D712005FC10AF05EC109F074
:1039A0000C6A3C0E0B6EFAEC00F00101616F5FC116
:1039B0000AF05EC109F00C6A3C0E0B6EFAEC00F0E6
:1039C0000DC062F10101636B1882000118A274D06E
:1039D000010E8B6F27EC06F001EE8AF0040EF76EF5
:1039E000B20EF66E11EC01F0EF6A67EC06F0020E13
:1039F000906F5AEC06F0030E906F5AEC06F0040E2E
:103A0000906F5AEC06F00101635300012BE1800E28
:103A1000016E940E30EC00F0200E6EEC00F05B0EA8
:103A20006EEC00F0020E046E0101615138EC00F002
:103A30005D0E6EEC00F0200E6EEC00F03A0E6EECB7
:103A400000F0200E6EEC00F0020E046E01016251D7
:103A500038EC00F0040EF76EC60EF66E66EC00F061
:103A6000000128D0800E016E940E30EC00F0200E84
:103A70006EEC00F06EEC00F0020E046E010161517C
:103A800038EC00F0200E6EEC00F03A0E6EEC00F018
:103A9000200E6EEC00F05B0E6EEC00F0020E046E79
:103AA0000101625138EC00F0040EF76ED00EF66E94
:103AB00066EC00F000011892B1EC06F0010E225CF9
:103AC00017E101016353000109E1630E0101615D2A
:103AD000000102E20101612B000108D03B0E01014F
:103AE000625D000102E20101622B0001188216D022
:103AF000222814E101016353000108E1010161532F
:103B0000000102E001016107000107D001016253D9
:103B1000000102E00101620700011882DDEC06F0FD
:103B2000DEEC06F0010E955D1FE1020E8B6F27ECB7
:103B300006F001016353000106E10101010E636F0C
:103B40001882000111D0010161513C0DF3CF13F037
:103B5000F4CF14F0625113245E6F000E14205F6FD7
:103B6000010E606F0001120030D7120001010B0E30
:103B7000756F146A75C113F0134A142A166A080E79
:103B8000156E040E155E000E165A13501524766F2E
:103B900065C178F164C177F165510001E8AE0BD0E1
:103BA0000101010E6D6F64510008686F000E6555CC
:103BB000696F000106D001016D6B65C169F164C1D7
:103BC00068F100016DC16EF1010E0101695D000136
:103BD0000BE305E1F50E0101685D000105E301015C
:103BE000010E696FF40E686F000169C10AF068C1C7
:103BF00009F00C6A640E0B6EFAEC00F001016A6FBA
:103C000069C10AF068C109F00C6A640E0B6EFAEC27
:103C100000F00EC069F10DC068F169C10AF068C119
:103C200009F00C6A0A0E0B6EFAEC00F001016B6FE2
:103C300069C10AF068C109F00C6A0A0E0B6EFAEC51
:103C400000F00DC06CF101016F6B706B1AC07BF15D
:103C50001BC07CF11CC07DF11DC07EF17F6B010E8D
:103C6000806F66C13EF175C13FF1000180EC1AF032
:103C700066C186F101017605876F00010BEC22F029
:103C80000101280E846F0001F5EC21F066C186F178
:103C9000090E01017525876F00010BEC22F001016F
:103CA000290E846F0001F5EC21F001017B511A5CB3
:103CB000056E7C511B58066E7D511C58076E7E5157
:103CC0001D58086E000E085C000122E30BE1000E97
:103CD000075C1EE307E1000E065C1AE303E1FA0E3F
:103CE000055C16E31AC07BF11BC07CF11CC07DF1A2
:103CF0001DC07EF101017F53000105E10101010EAC
:103D00007F6F000102D001017F6B0101010E806F06
:103D1000010E0101805D0001D8A4A1D00101806BDA
:103D200066C186F176C187F100010BEC22F0010E2D
:103D300001016F53D8A4000E176E010E7F5D010EB6
:103D4000D8A4000E1716000107E00101200E846FB1
:103D50000001F5EC21F012D0010E01016D5D0001B2
:103D600007E101012D0E846F0001F5EC21F006D072
:103D700001012B0E846F0001F5EC21F066C186F184
:103D800001017629876F00010BEC22F0010E010181
:103D90006F5D010ED8A4000E176E010E7F5D010E3F
:103DA000D8A4000E1716000107E00101200E846F51
:103DB0000001F5EC21F007D0300E01016A25846F77
:103DC0000001F5EC21F066C186F1020E01017625B5
:103DD000876F00010BEC22F0020E01016F5D010EF6
:103DE000D8A4000E176E010E7F5D010ED8A4000E40
:103DF0001716000107E00101200E846F0001F5ECA9
:103E000021F007D0300E01016B25846F0001F5EC25
:103E100021F066C186F1030E01017625876F00014E
:103E20000BEC22F0030E01016F5D010ED8A4000E11
:103E3000176E010E7F5D010ED8A4000E171600014B
:103E400007E00101200E846F0001F5EC21F007D09E
:103E5000300E01016C25846F0001F5EC21F0F29E1B
:103E600034C07AF133C079F1F28E020E01017A5D2D
:103E7000EE0ED8B4795D000102E2000E01D0010E11
:103E8000176E010E81BC000E17161DE0030E8B6F1E
:103E900027EC06F078C165F177C164F181BC04D0EC
:103EA0000A0EE2EC00F0FAD7640EE2EC00F0236AAE
:103EB00077C167F1040EF76EDA0EF66EBBEC00F018
:103EC0000D0EC3EF00F0B1EC06F02252D8B480D151
:103ED000010E8B6F27EC06F00101010E806F6F530E
:103EE00000011CE101016D53000105E10101010E1A
:103EF0006D6F000102D001016D6B01016D516E5DAE
:103F000000010BE001017053000106E101016A6B41
:103F10006B6B6C6B010E706F00015AD1010E0101C9
:103F20006F5D000125E1010E225C0DE1050E01012E
:103F30006A5D000104E201016A2B000102D0010167
:103F40006A6B00010BD001016A53000104E001011A
:103F50006A07000103D00101050E6A6F050E010119
:103F60006A5D000103E101016B6B6C6B000130D1F4
:103F7000020E01016F5D0001D8A4CFD0050E010132
:103F80006A5D000104E30101736B000153D0146A00
:103F90006AC113F01450640DF3CF14F01350640D84
:103FA000F3CF13F0F4501426166A6BC115F01650B7
:103FB0000A0DF3CF16F015500A0DF3CF15F0F4509B
:103FC0001626155013240101716F16501420726FBC
:103FD000010E725D00012AE305E1EA0E0101715D47
:103FE000000124E3010E146EF40E136E166A6AC10A
:103FF00015F01650640DF3CF16F01550640DF3CF85
:1040000015F0F45016261550135C136E1650145804
:10401000146E14C00AF013C009F00C6A0A0E0B6E7D
:10402000FAEC00F00101736F000103D00101090EE9
:10403000736F0001010E225C0DE1010173516B5D94
:10404000000104E201016B2B000102D001016B6B46
:1040500000010AD001016B53000104E001016B076C
:10406000000102D073C16BF1146A6AC113F01450DD
:10407000640DF3CF14F01350640DF3CF13F0F4502C
:104080001426166A6BC115F016500A0DF3CF16F000
:1040900015500A0DF3CF15F0F450162615501326BF
:1040A0001650142201016C511324716F000E14205C
:1040B000726F010E725D00012EE305E1F50E010144
:1040C000715D000128E3010E146EF40E136E166A82
:1040D0006AC115F01650640DF3CF16F01550640D3B
:1040E000F3CF15F0F45016261550135C136E1650CE
:1040F0001458146E166A6BC115F016500A0DF3CFE2
:1041000016F015500A0DF3CF15F0F4501626155081
:10411000135C01016C6F00015BD0030E01016F5D48
:104120000001D8A455D0146A6AC113F01450640D6C
:10413000F3CF14F01350640DF3CF13F0F4501426A2
:10414000166A6BC115F016500A0DF3CF16F0155014
:104150000A0DF3CF15F0F450162615501324010163
:10416000716F16501420726F010E725D00010AE328
:1041700005E1F40E0101715D000104E30101746BBE
:1041800000010CD001017151F408746F0A0E745DC6
:10419000000103E30101090E746F0001010E225CAE
:1041A0000DE1010174516C5D000104E201016C2B11
:1041B000000102D001016C6B00010AD001016C53B7
:1041C000000104E001016C07000102D074C16CF130
:1041D000DDEC06F0DEEC06F0010E955DD8A480D093
:1041E000010E8B6F27EC06F00101010E806F030EAC
:1041F0006F5D00010DE201016F2B7F6B1AC07BF137
:104200001BC07CF11CC07DF11DC07EF1000168D097
:10421000146A6AC113F01450640DF3CF14F01350F4
:10422000640DF3CF13F0F4501426166A6BC115F029
:1042300016500A0DF3CF16F015500A0DF3CF15F0F6
:10424000F4501626155013261650142201016C51F5
:104250001324716F000E1420726F010E6D5D00014A
:1042600009E1010171510008646F000E7255656F1C
:10427000000104D072C165F171C164F101016551A1
:104280000001E8BE10D0010E0101655D00010BE3E5
:1042900005E1F50E0101645D000105E30101010E78
:1042A000656FF40E646F010165510001E8AE10D036
:1042B000FE0E0101655D07E300010AE10C0E01013C
:1042C000645D000105E20101FE0E656F0C0E646F76
:1042D0000001020E8B6F27EC06F064C167F112003B
:1042E000010EE2EC00F055EF1EF0120081C183F1E7
:1042F000188218A24DD0010E8B6F27EC06F001EE4C
:104300008AF0040EF76EEE0EF66E11EC01F0EF6A15
:1043100067EC06F0020E906F5AEC06F0030E906FF9
:104320005AEC06F0040E906F5AEC06F0010183532C
:1043300000010CE1800E016E940E30EC00F0050ED1
:10434000F76E020EF66E66EC00F021D0010E010150
:10435000835D00010CE1800E016E940E30EC00F0E4
:10436000050EF76E180EF66E66EC00F010D0020E19
:104370000101835D00010BE1800E016E940E30ECB3
:1043800000F0050EF76E300EF66E66EC00F0189237
:10439000B1EC06F0010E225C0AE1020E0101835D20
:1043A000000102E20101832B000118820AD02228B9
:1043B00008E101018353000102E0010183070001CC
:1043C0001882DDEC06F0DEEC06F0010E955D0BE1E7
:1043D000020E8B6F27EC06F083C181F10101010E03
:1043E000826F0001120085D71200808C0101843990
:1043F0000F0B856F85C185F00001C8EC05F00F0E2D
:1044000001018415856F85C185F00001C8EC05F0B8
:10441000320EEFEF00F0010E0101865D000104E1B4
:104420000101886B000118D0020E0101865D0001B8
:1044300005E10101400E886F00010ED0030E01015D
:10444000865D000105E10101140E886F000103D0B3
:104450000101540E886F0001146A800E136E010171
:1044600088511326000E1422166A87C115F015060E
:10447000000E165A13501524896F89C186F0000169
:04448000CEEF05F086
:020000040030CA
:03000100081F1EB7
:020005008181F7
:060008000FC00FE00F40E5
:00000001FF
