:020000040000FA
:100000000000000091EF02F0ABEF02F0800E016EF5
:10001000FE0EBDD8010EBBD8750E0A6E300EE0D0B4
:10002000016A018E126E1252D8A41206FE0EAFD8CB
:10003000025202E0022C02D0800E0ED00250020AC0
:1000400002E1C00E09D00250030A02E1940E04D06E
:100050000250040A02E1D40E026E1250022497D01C
:10006000016A018E126EFE0E92D8125090D0046A70
:100070000D6E0E6A00960450D8B40086050E036E0D
:10008000270E0C6E100E0CD8030E0C6EE80E08D85E
:100090000C6A640E05D80C6A0A0E02D80D5007D0FF
:1000A0000B6E0E500A6E0D50096EA4D80950096EE1
:1000B000034E0096045002E0035C07E20950D8A406
:1000C000009600B602D0300F62D01200A66AA68E4B
:1000D0000900F55002E002D8FBD71200106E899E8D
:1000E000899C929E929CF00E9216105000B21ED0E7
:1000F0003A0E0A6E980E74D8330E0F6E29D8130E6E
:100100000A6E880E6DD824D8640E69D821D8640E82
:1001100066D8220E0F6E1CD8280E07D80C0E05D8F4
:10012000060E03D80082105001D000800F6E00A090
:1001300009D0899C03080AE309D8070E0A6ED00E7D
:100140004FD812000080FE0814E0898C0F3A00A0FE
:100150000090898EF00E80160F500F0B8012000059
:1001600000D0899E0F3A000000D000B0F1D7320EC7
:1001700036D810501200A66AA68E0900F55002E08B
:1001800002D8FBD712009EA8FED7AD6E120001BEAA
:10019000A5D701B4F8D7A86EA66AA684550EA76E97
:1001A000AA0EA76EA682A6B2FED7A694A94AAA2A2C
:1001B000A68E1200A96EA66AA680A850A94AAA2AED
:1001C000A68E12000C6A0B6EFF0E0B260C2200D0BE
:1001D000D8A01200030E0A6EE60E02D8F5D70A6AFE
:1001E000FD0F096E01D00906000000D0E86A0A5A26
:1001F000FAE212000E6A0D6A100EF36E0A340D3622
:100200000E360B500D5C0C500E5805E30B500D5E76
:100210000C500E5AD88009360A36F32EEFD7095003
:100220001200A66AA68E0900F55002E0EE6EFBD71A
:1002300012004952524953595320537461727475D4
:100240007020436F6D706C65746500004F505449A9
:100250004F4E53202020202020202020202020200E
:1002600000004D61696E204D656E750053657475B3
:1002700070204D656E7500005574696C6974792045
:100280004D656E7500005554494C4954590049520A
:100290005249535953204D41494E202020202020BF
:1002A000202000002020202020202020202020208E
:1002B000202020202020202000005345545550208D
:1002C000202020202020202020202020202000006E
:1002D000496E707574203100496E7075742032005B
:1002E000496E7075742033002028535455422920DC
:1002F000202020202000434C4F434B202020202052
:1003000020202020202020202020000054696D651E
:100310006F7574202020000050756C7365202020BC
:1003200020200000494E505554200000202020205D
:1003300020202020202020200000456E61626C6576
:10034000202020200000456E61626C6564004469D5
:100350007361626C6564000053656E736F72202078
:10036000202000005072657373757265000053633E
:10037000616C652034206D6100005363616C6532EF
:10038000306D6120000048696768204250202020BD
:100390000000486967682054425020200000504CFB
:1003A00050425020202020200000534C504250202A
:1003B0002020202000004C6F772054425020202025
:1003C0000000526C79204869676820200000526C58
:1003D0007920504C502020200000526C7920534C42
:1003E000502020200000526C79204C6F7720202074
:1003F0000000446973706C61792020200000202087
:1004000020202020202020200000454449543A206C
:10041000594553204E4F20202020202020002059D5
:10042000657320205B4E6F5D20202020202020203F
:10043000202000005B5965735D20204E6F20202036
:1004400020202020202020200000454449543A202C
:100450004D4F4445202020202020202020005B4EAE
:100460006F5D202050756C736520204C617463684B
:1004700020202000204E6F20205B50756C73655D3E
:10048000204C6174636820202000204E6F202020C3
:1004900050756C7365205B4C617463685D2020004F
:1004A000454449543A204455524154494F4E202026
:1004B00020202000202020202020202020005D203F
:1004C0002020202020202000454449543A20534534
:1004D0004E534F5220545950452020005B507265B6
:1004E00073737572655D2054656D7020466C6F770F
:1004F0002000205072657373757265205B54656DC2
:10050000705D20466C6F7720000020507265737319
:10051000757265202054656D70205B466C6F775D49
:100520000000006A100EAF6E240EAC6E900EAB6E23
:1005300000010F0EC16E070EB46E700ED36E9B8C51
:100540000F0EC16EF19EC40ED56E060ED66EF294DD
:10055000F28AF28EF5D0000113C02CF214C02DF2F5
:10056000F4CF2EF2F3CF2FF2F2A4E1D0060ED66E26
:10057000F2941A2A000E1B221C221D222A2A0A0E7D
:100580002A5CD8A0C9D0766A81B2762A776A81B40B
:10059000772A786A81BC782A76502B5C10E02E2A64
:1005A000020E2E5C0BE376C02BF02E6A1AC01EF0F2
:1005B0001BC01FF01CC020F01DC021F001D02E6A0E
:1005C00077502C5C10E02F2A020E2F5C0BE377C0D3
:1005D0002CF02F6A1AC01EF01BC01FF01CC020F0A8
:1005E0001DC021F001D02F6A78502D5C10E0302A18
:1005F000020E305C0BE378C02DF0306A1AC01EF09A
:100600001BC01FF01CC020F01DC021F001D0306ABB
:100610002B50020DF3CF13F0F4CF14F02C50132411
:10062000796E3150040DF3CF13F0F4CF14F07950FC
:1006300013247A6E010E7A5C02E1320622D0070E94
:100640007A5C02E132061DD00E0E7A5C02E13206BF
:1006500018D0080E7A5C02E1320613D0020E7A5CE2
:1006600002E1322A0ED00B0E7A5C02E1322A09D066
:100670000D0E7A5C02E1322A04D0040E7A5C01E1AC
:10068000322A795225E132BE0ED0020E325C0BE3E3
:10069000354A362A1AC01EF01BC01FF01CC020F0BD
:1006A0001DC021F014D03250800A7E0810E335526C
:1006B00002E1365203E03506000E365A00011AC038
:1006C0001EF01BC01FF01CC020F01DC021F0326ABC
:1006D00079C031F02D520DE1FF0E345C04E307E1E7
:1006E000F60E335C04E20A0E3326000E34220001BB
:1006F00012D0345203E1C80E335C0AE3010E236EBC
:100700001AC01EF01BC01FF01CC020F01DC021F03D
:100710000001346A336A2A6A245202E1255206E053
:1007200082842406000E255A000101D082942CC236
:1007300013F02DC214F02EC2F4FF2FC2F3FF1100EC
:1007400083D888D841D875D8E6D8F3D8A1D8396AE3
:100750001894236A216A206A1F6A1E6A18821890F8
:10076000256A246A030E3F5C01E33F6A030E555C71
:1007700002E3010E556E030E665C02E3020E666E26
:10078000020EF76E320EF66EBBEC00F00D0EC3ECEF
:1007900000F0C80EE2EC00F018A003D015D849D83C
:1007A00018901894C0D9DED87DC039F0020E395C9B
:1007B00009E118941AC01EF01BC01FF01CC020F0E5
:1007C0001DC021F0E9D7FFD7100E926E460E936E32
:1007D000946A896A8A6A8B6A899C899E320EE2ECE5
:1007E00000F0809C030E856FC0D9050EE2EC00F08E
:1007F000030E856FBAD9960EEFEC00F0030E856FED
:10080000B4D9960EEFEC00F0020E856FAED9960EBD
:10081000EFEC00F0280E866FAED9080E866FABD9CC
:10082000010E866FA8D9060E866FA5D90C0E866FAD
:10083000A2D18D6B050E8C6F37EC06F006EC00F044
:100840008D6B020E8C6F13D2100E926E460E936E4D
:10085000946A12002B6A81B22B2A2C6A81B42C2A4A
:100860002D6A81BC2D2A2B50020DF3CF13F0F4CF4B
:1008700014F02C501324316E2E6A2F6A306A2A6AC3
:10088000326A366A356A386A376A346A336A1200FD
:1008900027C088F0896B91D98A530DE07B6A020EDC
:1008A0007B5C08E2010E8B6FBFD9640EE2EC00F0B6
:1008B0007B2AF5E32BD027C088F0030E896F7DD902
:1008C0008A530DE07B6A030E7B5C08E2020E8B6F9D
:1008D000ABD9960EE2EC00F07B2AF5E317D027C0E7
:1008E00088F0020E896F69D98A530DE07B6A040E85
:1008F0007B5C08E2010E8B6F97D9640EE2EC00F08E
:100900007B2AF5E303D0030E8B6F8ED9010E0C6E9C
:10091000F40EE3EF00F0CFEC06F0010E9A6F41EC1D
:1009200007F0020E9A6F41EC07F0030E9A6F41EF49
:1009300007F0010E40147C6E7C5202E1526A02D034
:10094000010E526E020E40147C6E7C5202E1536A1C
:1009500002D0010E536E4AC050F049C04FF04DC056
:1009600051F01200040E806F7E6A7F6A1890188220
:1009700018A296D0010E8B6F57D901EE87F0020EA8
:10098000F76E4C0EF66E11EC01F0EF6A8DD9020E87
:10099000906F7DD9030E906F7AD9040E906F77D93E
:1009A000020E7E5C02E27F6A16D0FF0E8025056E85
:1009B000066AFF0E062206520CE105507E5C09E332
:1009C000030E805D04E3030E805D7F6E01D07F6ABD
:1009D00002D07E047F6E020E826F050E825DD8B05B
:1009E0005ED07F508225136E146A1436020E135C9B
:1009F000836F83517E5C03E1010E816F01D0816BB7
:100A000083530FE182C091F001EEA8F0020EF76E61
:100A1000620EF66E11EC01F0EF6A81C092F05AD9C5
:100A20003BD0010E835D0FE182C091F001EEA8F092
:100A3000020EF76E6C0EF66E11EC01F0EF6A81C0DB
:100A400092F048D929D0020E835D0FE182C091F067
:100A500001EEA8F0020EF76E780EF66E11EC01F0C2
:100A6000EF6A81C092F036D917D0030E835D11E191
:100A700082C091F001EEA8F0420EEE6E610EEE6EB5
:100A8000630EEE6E6B0EEE6EEF6A81C092F022D9AD
:100A900003D082C090F0FBD8822BD8A09ED71892AA
:100AA0004DD9225215E0010E225C0EE1FF0E802589
:100AB000056E066AFF0E0622065203E105507E5CB3
:100AC00001E27E2A000103D07E5201E07E061882F8
:100AD00061D961D9010E955D24E1020E8B6FA4D816
:100AE0007E5204E1010E7D6E12001AD0010E7E5C72
:100AF00005E1F5EC08F09FC084F012D0020E7E5C98
:100B00000CE101EEC9F0020EF76E860EF66E11ECE6
:100B100001F0EF6AF6EC09F003D0010E7D6E1200D1
:100B2000188226D712001890188218A214D001EE4D
:100B300087F0020EF76E8E0EF66E11EC01F0EF6A82
:100B4000B3D8020E906FA3D8030E906FA0D8040EF6
:100B5000906F9DD818921ED91ED9010E955D03E1A4
:100B6000020E8B6F61D0E1D7120085C0A6F025EC94
:100B70000AF03DEF0AF0809C86390F0B876F87C023
:100B800085F0F3DF0F0E8615876F87C085F0EDDFE8
:100B9000010E865D010ED8A4000E176E020E865D52
:100BA000010ED8A4000E171204E0020EE2EC00F0D1
:100BB00003D0320EEFEC00F01200895304E1010E75
:100BC00088158A6F30D0010E895D04E1020E881508
:100BD0008A6F29D0020E895D04E1040E88158A6FA0
:100BE00022D0030E895D04E1080E88158A6F1BD0A0
:100BF000040E895D04E1100E88158A6F14D0050E6D
:100C0000895D04E1200E88158A6F0DD0060E895D7E
:100C100004E1400E88158A6F06D0070E895D03E156
:100C2000800E88158A6F12008B5304E1256A0A0E24
:100C3000246E1CD0010E8B5D04E1256A140E246E17
:100C400015D0020E8B5D04E1256A320E246E0ED0A3
:100C5000030E8B5D04E1256AC80E246E07D0040ED6
:100C60008B5D04E1030E256EE80E246E12008F6B7F
:100C7000010E8E6F8E518C5D8F518D5907E3010EE1
:100C8000E2EC00F08E2B000E8F23F4E31200800EB6
:100C9000016E90C002F0010E12EC00F0020EF76E31
:100CA000A40EF66E66EF00F0800E016E30EC00F0E0
:100CB000020EF76EA40EF66E66EC00F0800E016E6A
:100CC00030EC00F001EE87F0EE5003E06EEC00F047
:100CD000FBD71200800E016E91C002F0010E12ECE3
:100CE00000F0020EF76EA40EF66E66EC00F0010E38
:100CF000925D15E1800E016E91C002F0010E12ECC2
:100D000000F05B0E6EEC00F001EEA8F0EE5003E098
:100D10006EEC00F0FBD75D0E6EEC00F00ED0800E96
:100D2000016E91C002F0020E12EC00F001EEA8F08C
:100D3000EE5003E06EEC00F0FBD71200F29E36C0DE
:100D400094F035C093F0F28E9351375C945138583B
:100D50000BE2010E226E1AC01EF01BC01FF01CC059
:100D600020F01DC021F011D03750935D38509459B8
:100D70000BE2FF0E226E1AC01EF01BC01FF01CC03B
:100D800020F01DC021F001D0226A94C038F093C039
:100D900037F01200120023C095F0236A1200986BFE
:100DA000976B98C0B0F097C0AFF088EC0AF0B1C074
:100DB00099F099533AE1020E9725A96F000E9821F8
:100DC000AA6F6EEC0AF0ACC03BF0ABC03AF0040E78
:100DD0009725A96F000E9821AA6F6EEC0AF0ACC09F
:100DE0003DF0ABC03CF0080E9725A96E000E98218F
:100DF000AA6EDBEC00F0276EB76B3A0EB66FB96BDC
:100E00000A0EB86F010EBB6F2C0EBA6FBFEC0AF062
:100E1000B76B3C0EB66FB96B0A0EB86F070EBB6F9F
:100E2000D00EBA6FBFEC0AF027D05EEC0DF0C553C0
:100E300008E1270EA76F020EA86F47EC0AF0996B26
:100E40001BD0BEEC0DF0D05308E1270EA76F030EA8
:100E5000A86F47EC0AF0996B0FD03B6A3C0E3A6ED4
:100E60003D6A320E3C6E276A270EA76FA86B47ECCF
:100E70000AF0D2EC0AF0996B99C026F099C096F06E
:100E80001200146A200E136E166A9AC015F0150629
:100E9000000E165A1650200DF3CF16F01550200DE7
:100EA000F3CF15F0F4501626155013249C6F1650EE
:100EB00014209D6F9DC0B0F09CC0AFF088EC0AF08C
:100EC000B1C09EF09E53D8A47BD1010E9A5DD8A4E8
:100ED0007CD0020E9C25A96E000E9D21AA6EDBEC33
:100EE00000F03E6E030E9C25A96E000E9D21AA6E99
:100EF000DBEC00F03F6E040E9C25A96E000E9D21D8
:100F0000AA6EDBEC00F0406E050E9C25A96F000E6A
:100F10009D21AA6F6EEC0AF0ACC042F0ABC041F06C
:100F2000070E9C25A96F000E9D21AA6F6EEC0AF09A
:100F3000ACC044F0ABC043F0090E9C25A96F000E75
:100F40009D21AA6F6EEC0AF0ACC046F0ABC045F034
:100F50000B0E9C25A96F000E9D21AA6F6EEC0AF066
:100F6000ACC048F0ABC047F00D0E9C25A96F000E39
:100F70009D21AA6F6EEC0AF0ACC04AF0ABC049F0FC
:100F80000F0E9C25A96E000E9D21AA6EDBEC00F0D1
:100F90004B6E100E9C25A96E000E9D21AA6EDBECF7
:100FA00000F04C6E110E9C25A96E000E9D21AA6EBC
:100FB000DBEC00F04D6E120E9C25A96E000E9D21FB
:100FC000AA6EDBEC00F04E6EFAD0020E9A5DD8A449
:100FD0007CD0020E9C25A96E000E9D21AA6EDBEC32
:100FE00000F0546E030E9C25A96E000E9D21AA6E82
:100FF000DBEC00F0556E040E9C25A96E000E9D21C1
:10100000AA6EDBEC00F0566E050E9C25A96F000E53
:101010009D21AA6F6EEC0AF0ACC058F0ABC057F03F
:10102000070E9C25A96F000E9D21AA6F6EEC0AF099
:10103000ACC05AF0ABC059F0090E9C25A96F000E48
:101040009D21AA6F6EEC0AF0ACC05CF0ABC05BF007
:101050000B0E9C25A96F000E9D21AA6F6EEC0AF065
:10106000ACC05EF0ABC05DF00D0E9C25A96F000E0C
:101070009D21AA6F6EEC0AF0ACC060F0ABC05FF0CF
:101080000F0E9C25A96E000E9D21AA6EDBEC00F0D0
:10109000616E100E9C25A96E000E9D21AA6EDBECE0
:1010A00000F0626E110E9C25A96E000E9D21AA6EA5
:1010B000DBEC00F0636E120E9C25A96E000E9D21E4
:1010C000AA6EDBEC00F0646E7AD0030E9A5DD8A4B1
:1010D00076D0020E9C25A96E000E9D21AA6EDBEC37
:1010E00000F0656E030E9C25A96E000E9D21AA6E70
:1010F000DBEC00F0666E040E9C25A96E000E9D21AF
:10110000AA6EDBEC00F0676E050E9C25A96F000E41
:101110009D21AA6FE3D9ACC069F0ABC068F0070E9F
:101120009C25A96F000E9D21AA6FD8D9ACC06BF089
:10113000ABC06AF0090E9C25A96F000E9D21AA6F15
:10114000CDD9ACC06DF0ABC06CF00B0E9C25A96F77
:10115000000E9D21AA6FC2D9ACC06FF0ABC06EF07B
:101160000D0E9C25A96F000E9D21AA6FB7D9ACC0AA
:1011700071F0ABC070F00F0E9C25A96E000E9D2182
:10118000AA6EDBEC00F0726E100E9C25A96E000EAC
:101190009D21AA6EDBEC00F0736E110E9C25A96EEA
:1011A000000E9D21AA6EDBEC00F0746E120E9C25E1
:1011B000A96E000E9D21AA6EDBEC00F0756E10D0BA
:1011C0009AC0C9F07EEC0DF0CA5302E19E6B08D0C4
:1011D0009AC0D2F04BEC0EF09AC0C0F029DA9E6BA8
:1011E0009EC026F09EC09BF01200050EA26FA06B61
:1011F000A16B1890188218A2B8D0010E8B6F14EC56
:1012000006F001EE87F0020EF76EBA0EF66E11ECE4
:1012100001F0EF6A54EC06F0020E906F47EC06F016
:10122000030E906F47EC06F0040E906F47EC06F04B
:10123000020EA05D02E2A16B16D0FF0EA225056E84
:10124000066AFF0E062206520CE10550A05D09E376
:10125000030EA25D04E3030EA25DA16F01D0A16B9A
:1012600002D0A005A16F020EA46F050EA45DD8B038
:101270007BD0FE0EA425136E146AFF0E1422A1511A
:101280001324A56FA551A05D03E1010EA36F01D04A
:10129000A36BA55310E1A4C091F001EEA8F0020EDB
:1012A000F76ED00EF66E11EC01F0EF6AA3C092F06B
:1012B0006AEC06F056D0010EA55D10E1A4C091F0D5
:1012C00001EEA8F0020EF76ED80EF66E11EC01F0EA
:1012D000EF6AA3C092F06AEC06F043D0020EA55D5F
:1012E00010E1A4C091F001EEA8F0020EF76EE00E3E
:1012F000F66E11EC01F0EF6AA3C092F06AEC06F012
:1013000030D0030EA55D14E1A4C091F001EEA8F069
:10131000430EEE6E6C0EEE6E6F0EEE6E630EEE6EA4
:101320006B0EEE6EEF6AA3C092F06AEC06F019D075
:10133000040EA55D12E1A4C091F001EEA8F0420EEA
:10134000EE6E610EEE6E630EEE6E6B0EEE6EEF6A7B
:10135000A3C092F06AEC06F004D0A4C090F047EC71
:1013600006F0A42BD8A081D718929EEC06F022524A
:1013700015E0010E225C0EE1FF0EA225056E066A45
:10138000FF0E0622065203E10550A05D02E20001B5
:10139000A02B03D0A05301E0A0071882CAEC06F0EE
:1013A000CBEC06F0010E955D1FE1020E8B6F14EC85
:1013B00006F0A05303E197EC0EF015D0010EA05DEE
:1013C00003E1A0EC0EF00FD0020EA05D03E1A9EC4A
:1013D0000EF009D0030EA05D03E1B2EC0EF003D0D5
:1013E000010E9F6F1200188206D71200189001EEAE
:1013F00087F011EEC9F0200EE75204E0E6CFEEFFD1
:10140000E82EFAD7020EF76EE80EF66E11EC01F038
:10141000EF6A54EC06F0020E906F47EC06F0030EF4
:10142000906F47EC06F0040E906F47EC06F0CAECA4
:1014300006F0CBEC06F0010E955D05E1020E8B6F18
:1014400014EC06F001D0F3D71200A63102E3898034
:1014500001D08990A651E8A202D0898201D0899258
:10146000A651E8A402D0898401D08994A651E8A6A7
:1014700002D0898601D089961200898E020EE82E4C
:10148000FED700000000899E280EEFEF00F0A85361
:1014900002E1A78122D0010EA85D02E1A7831DD041
:1014A000020EA85D02E1A78518D0030EA85D02E137
:1014B000A78713D0040EA85D02E1A7890ED0050E00
:1014C000A85D02E1A78B09D0060EA85D02E1A78DF9
:1014D00004D0070EA85D01E1A78F1200AAC0AAFFE1
:1014E000A9C0A9FFDBEC00F0AD6F010EA925A96E24
:1014F000000EAA21AA6EDBEC00F0AE6FAEC014F0B5
:10150000136AAD511324AB6F000E1420AC6F1200A0
:10151000B0C0AAFFAFC0A9FFDBEC00F0B46FA50E0E
:10152000B45D03E0010EB16F1200010EAF25A96E8C
:10153000000EB021AA6EDBEC00F0B56F010EB55DB8
:1015400003E0020EB16F12001F0EAF25A96E000E50
:10155000B021AA6EDBEC00F0B26FB0C0EBF0AFC010
:10156000EAF01F0EEC6F09EC10F0EDC0B3F0B251D1
:10157000B35D03E0030EB16F1200B16B1200B851FE
:10158000B65DB951B75904E2B9C0B7F0B8C0B6F00A
:10159000B651BA5DB751BB5904E2BBC0B7F0BAC08F
:1015A000B6F01200BE6BBD6B020EBD25E46F000EDF
:1015B000BE21E56F3BC0E7F03AC0E6F0EDEC0FF07E
:1015C000E8C0BFF0BF5303E0BFC0BCF01200040E80
:1015D000BD25E46F000EBE21E56F3DC0E7F03CC0C5
:1015E000E6F0EDEC0FF0E8C0BFF0BF5303E0BFC082
:1015F000BCF01200080EBD25DE6F000EBE21DF6FAD
:1016000027C0E0F0CAEC0FF0E1C0BFF0BF5303E029
:10161000BFC0BCF01200BEC0F2F0BDC0F1F021ECC2
:1016200010F0F3C0BFF0BFC026F0BFC0BCF0120086
:10163000146A200E136E166AC0C015F01506000E4F
:10164000165A1650200DF3CF16F01550200DF3CF7B
:1016500015F0F450162615501324C26F165014209E
:10166000C36F010EC05DD8A4B1D0020EC225DE6FDB
:10167000000EC321DF6F3EC0E0F0CAEC0FF0E1C006
:10168000C4F0C4530CE1030EC225DE6F000EC3216B
:10169000DF6F3FC0E0F0CAEC0FF0E1C0C4F0C4530C
:1016A0000CE1040EC225DE6F000EC321DF6F40C0C7
:1016B000E0F0CAEC0FF0E1C0C4F0C4530EE1050E37
:1016C000C225E46F000EC321E56F42C0E7F041C0C0
:1016D000E6F0EDEC0FF0E8C0C4F0C4530EE1070EE5
:1016E000C225E46F000EC321E56F44C0E7F043C09C
:1016F000E6F0EDEC0FF0E8C0C4F0C4530EE1090EC3
:10170000C225E46F000EC321E56F46C0E7F045C077
:10171000E6F0EDEC0FF0E8C0C4F0C4530EE10B0EA0
:10172000C225E46F000EC321E56F48C0E7F047C053
:10173000E6F0EDEC0FF0E8C0C4F0C4530EE10D0E7E
:10174000C225E46F000EC321E56F4AC0E7F049C02F
:10175000E6F0EDEC0FF0E8C0C4F0C4530CE10F0E5E
:10176000C225DE6F000EC321DF6F4BC0E0F0CAEC74
:101770000FF0E1C0C4F0C4530CE1100EC225DE6FBF
:10178000000EC321DF6F4CC0E0F0CAEC0FF0E1C0E7
:10179000C4F0C4530CE1110EC225DE6F000EC3214C
:1017A000DF6F4DC0E0F0CAEC0FF0E1C0C4F0C453ED
:1017B0000CE1120EC225DE6F000EC321DF6F4EC09A
:1017C000E0F0CAEC0FF0E1C0C4F069D1020EC05DD8
:1017D000D8A4B1D0020EC225DE6F000EC321DF6F88
:1017E00054C0E0F0CAEC0FF0E1C0C4F0C4530CE107
:1017F000030EC225DE6F000EC321DF6F55C0E0F07F
:10180000CAEC0FF0E1C0C4F0C4530CE1040EC225D1
:10181000DE6F000EC321DF6F56C0E0F0CAEC0FF0A0
:10182000E1C0C4F0C4530EE1050EC225E46F000E02
:10183000C321E56F58C0E7F057C0E6F0EDEC0FF0BC
:10184000E8C0C4F0C4530EE1070EC225E46F000ED9
:10185000C321E56F5AC0E7F059C0E6F0EDEC0FF098
:10186000E8C0C4F0C4530EE1090EC225E46F000EB7
:10187000C321E56F5CC0E7F05BC0E6F0EDEC0FF074
:10188000E8C0C4F0C4530EE10B0EC225E46F000E95
:10189000C321E56F5EC0E7F05DC0E6F0EDEC0FF050
:1018A000E8C0C4F0C4530EE10D0EC225E46F000E73
:1018B000C321E56F60C0E7F05FC0E6F0EDEC0FF02C
:1018C000E8C0C4F0C4530CE10F0EC225DE6F000E59
:1018D000C321DF6F61C0E0F0CAEC0FF0E1C0C4F0DB
:1018E000C4530CE1100EC225DE6F000EC321DF6F62
:1018F00062C0E0F0CAEC0FF0E1C0C4F0C4530CE1E8
:10190000110EC225DE6F000EC321DF6F63C0E0F051
:10191000CAEC0FF0E1C0C4F0C4530CE1120EC225B2
:10192000DE6F000EC321DF6F64C0E0F0CAEC0FF081
:10193000E1C0C4F0B4D0030EC05DD8A4B0D0020E94
:10194000C225DE6F000EC321DF6F65C0E0F0CAEC78
:101950000FF0E1C0C4F0C4530CE1030EC225DE6FEA
:10196000000EC321DF6F66C0E0F0CAEC0FF0E1C0EB
:10197000C4F0C4530CE1040EC225DE6F000EC32177
:10198000DF6F67C0E0F0CAEC0FF0E1C0C4F0C453F1
:101990000EE1050EC225E46F000EC321E56F69C09C
:1019A000E7F068C0E6F0EDEC0FF0E8C0C4F0C45317
:1019B0000EE1070EC225E46F000EC321E56F6BC078
:1019C000E7F06AC0E6F0EDEC0FF0E8C0C4F0C453F5
:1019D0000EE1090EC225E46F000EC321E56F6DC054
:1019E000E7F06CC0E6F0EDEC0FF0E8C0C4F0C453D3
:1019F0000EE10B0EC225E46F000EC321E56F6FC030
:101A0000E7F06EC0E6F0EDEC0FF0E8C0C4F0C453B0
:101A10000EE10D0EC225E46F000EC321E56F71C00B
:101A2000E7F070C0E6F0EDEC0FF0E8C0C4F0C4538E
:101A30000CE10F0EC225DE6F000EC321DF6F72C0F6
:101A4000E0F0CAEC0FF0E1C0C4F0C4530CE1100E9A
:101A5000C225DE6F000EC321DF6F73C0E0F0CAEC59
:101A60000FF0E1C0C4F0C4530CE1110EC225DE6FCB
:101A7000000EC321DF6F74C0E0F0CAEC0FF0E1C0CC
:101A8000C4F0C4530CE1120EC225DE6F000EC32158
:101A9000DF6F75C0E0F0CAEC0FF0E1C0C4F0C453D2
:101AA00008E1C3C0F2F0C2C0F1F021EC10F0F3C0C5
:101AB000C4F0C4C026F0C4C0C1F01200C76B800ED1
:101AC000C66FC7C0B0F0C6C0AFF088EC0AF0B1C0B6
:101AD000C8F0C85310E1C7C0FBF0C6C0FAF0FD6BF8
:101AE000FC6B9EEC10F0FEC0C8F0C85304E1CFECD4
:101AF00006F096C0C8F0C8C0C5F01200146A200EE7
:101B0000136E166AC9C015F01506000E165A165047
:101B1000200DF3CF16F01550200DF3CF15F0F45033
:101B2000162615501324CD6F16501420CE6F800E3C
:101B3000CD25CB6F000ECE21CC6FCCC0B0F0CBC08A
:101B4000AFF088EC0AF0B1C0CFF0CF5314E1CCC0B5
:101B5000FBF0CBC0FAF0CEC0FDF0CDC0FCF09EECA7
:101B600010F0FEC0CFF0CF5306E1C9C09AF041ECAF
:101B700007F09BC0CFF0CFC0CAF01200AA6BFA0EDC
:101B8000A96F6EEC0AF0ACC03BF0ABC03AF03B5230
:101B900005E10A0E3A5C02E2000E01D0010E176E5A
:101BA000010E3B5C06E303E12D0E3A5C02E3000EFE
:101BB00001D0010E17160001D8B46AD0AA6BFC0E32
:101BC000A96F6EEC0AF0ACC03DF0ABC03CF0B76B57
:101BD0003C0EB66FB96B0A0EB86F070EBB6FD00E16
:101BE000BA6FBFEC0AF0AA6AC80EA96EDBEC00F06F
:101BF0003E6EAA6AC90EA96EDBEC00F03F6EAA6ABF
:101C0000CA0EA96EDBEC00F0406EAA6BCC0EA96F79
:101C10006EEC0AF0ACC042F0ABC041F0AA6BCE0E45
:101C2000A96F6EEC0AF0ACC044F0ABC043F0466A5A
:101C3000456A486A476A4A6A496A020E4B6E4C6EA8
:101C40004D6E010E4E6E020ED26F25D8030ED26F6E
:101C500022D8D2EC0AF0BCC0D1F0D15306E1010E7B
:101C6000C06F18EC0BF0C1C0D1F0D15306E1020EE9
:101C7000C06F18EC0BF0C1C0D1F0D15306E1030ED8
:101C8000C06F18EC0BF0C1C0D1F0D1C0D0F002D0C1
:101C9000010ED06F1200010ED25D16E1010E3E6EF4
:101CA0003F6A406A426A416A446E6A0E436E466AFF
:101CB000456A486A476A4A6A496A020E4B6E4C6E28
:101CC0004D6E010E4E6E32D0020ED25D17E1010E46
:101CD000546E556E566A5868CE0E576E5A6A640E28
:101CE000596E5C6A5B6A5E6A5D6A606A5F6A020E70
:101CF000616E626A636A010E646E18D0030ED25D73
:101D000015E1656A020E666E676A696A686A6B6ADF
:101D1000640E6A6E6D6A6C6A6F6A6E6A716A706A66
:101D2000726A020E736E746E010E756E12000101FE
:101D3000010E0E6F000147EC11F00FC1D3F012003D
:101D40000101020E0E6F000147EC11F00FC1D4F03B
:101D500012000101030E0E6F000147EC11F00FC1DC
:101D6000D5F01200030ED86FD76BDA6BDB691882DF
:101D700018A27BD001EE87F0020EF76EF60EF66E1B
:101D800011EC01F0EF6A54EC06F0020E906F47EC94
:101D900006F0030E906F47EC06F0040E906F47ECD0
:101DA00006F0D75303E1010ED96F01D0D96B800E35
:101DB000016EC00E30EC00F0030EF76E0C0EF66EE6
:101DC00066EC00F00101020E086F0B0E096F3BC0BC
:101DD0000BF13AC00AF1D9C00CF1000109EC11F085
:101DE000010ED75D03E1010ED96F01D0D96B800ED2
:101DF000016E940E30EC00F0030EF76E180EF66EC6
:101E000066EC00F00101030E026F0B0E036F3DC084
:101E100005F13CC004F1D9C006F10001B4D9020EAD
:101E2000D75D12E1040E916F01EEA8F0420EEE6E46
:101E3000610EEE6E630EEE6E6B0EEE6EEF6A010ECD
:101E4000926F6AEC06F010D0040E916F01EEA8F0CC
:101E5000420EEE6E610EEE6E630EEE6E6B0EEE6E69
:101E6000EF6A926B6AEC06F018929EEC06F0225232
:101E7000D8B44BD0DA5317E1010E225C0FE1FF0E0C
:101E8000D825056E066AFF0E0622065203E10550AC
:101E9000D75D03E20001D72B188204D0D75302E0AC
:101EA000D707188232D0DB5317E1010E225C09E11B
:101EB000010E3B5C2C0ED8B43A5C02E23A4A3B2A53
:101EC00009D03B5203E10B0E3A5C03E33A06000EE5
:101ED0003B5A0001188219D0010EDB5D16E1010E9C
:101EE000225C09E1070E3D5CD00ED8B43C5C02E2F6
:101EF0003C4A3D2A09D03D5203E10B0E3C5C03E312
:101F00003C06000E3D5A00011882CAEC06F0CBECEC
:101F100006F0010E955D3CE1020E8B6F14EC06F0AD
:101F2000DA5317E1020ED75D04E1010ED66F1200FD
:101F30000FD0010EDA6FD7C0DBF0D75305E13BC0FD
:101F4000DDF03AC0DCF004D03DC0DDF03CC0DCF098
:101F50001FD0DB530DE1B76B3A0EB66FB96B0A0EAB
:101F6000B86F010EBB6F2C0EBA6FBFEC0AF00CD02D
:101F7000B76B3C0EB66FB96B0A0EB86F070EBB6F2E
:101F8000D00EBA6FBFEC0AF0D2EC0AF0DA6BDB6964
:101F9000EFD61200010EE36F040EE35D1BE2DFC01B
:101FA000AAFFDEC0A9FFE051CBEC00F00A0EE2EC84
:101FB00000F0DFC0AAFFDEC0A9FFDBEC00F0E26F9B
:101FC000E251E05D02E1E16B1200050EE2EC00F08F
:101FD000E32BE2E3050EE16F1200E5C0DFF0E4C0A1
:101FE000DEF0E6C0E0F0D6DFE1C0E9F0E95303E05F
:101FF000E9C0E8F01200010EE425DE6F000EE521D5
:10200000DF6FE7C0E0F0C6DFE1C0E9F0E9C0E8F06B
:102010001200EE6BEC05196EEF6BEF51195C0DE3DE
:10202000EF51EA25A96E000EEB21AA6EDBEC00F061
:10203000F06FF051EE27EF2BF0E3EE510008ED6F5B
:102040001200130EF125A96F000EF221AA6F6EEC9B
:102050000AF0ACC0F7F0ABC0F6F0270EF75D08E36E
:1020600003E1100EF65D04E30001040EF36F1200AD
:10207000030EF75D1AE303E1E80EF65D16E3800E4A
:102080000001F125F86F000EF221F96FF2C0FBF0AC
:10209000F1C0FAF0F9C0FDF0F8C0FCF04FD8270EFF
:1020A000A76F010EA86F47EC0AF0F2C0DFF0F1C095
:1020B000DEF0A50EE06F6EDFE1C0F5F0F55303E052
:1020C000F5C0F3F01200010EF125DE6F000EF221D3
:1020D000DF6F010EE06F5EDFE1C0F5F0F55303E066
:1020E000F5C0F3F01200F64BF72B130EF125E46F59
:1020F000000EF221E56FF7C0E7F0F6C0E6F06DDF05
:10210000E8C0F5F0F55303E0F5C0F3F01200F2C0BB
:10211000EBF0F1C0EAF01F0EEC6F7BDFEDC0F4F0E6
:102120001F0EF125DE6F000EF221DF6FF4C0E0F02C
:1021300031DFE1C0F5F0F5C0F3F01200FF6B200EC7
:10214000FF5D1FE2FF51FA25A96E000EFB21AA6E6A
:10215000DBEC00F00101006F0001FF51FC25DE6F98
:10216000000EFD21DF6F00C1E0F014DFE1C001F1DE
:1021700001010153000103E001C1FEF01200FF2B39
:10218000DEE3FE6B1200146A03C113F0134A142A33
:10219000166A080E156E050E155E000E165A1350BF
:1021A00015240101076F02C13EF103C13FF1000197
:1021B0005FEC1AF0010E0101065D000117E1800ECF
:1021C000016E02C102F00101070512EC00F05B0E86
:1021D0006EEC00F0800E016E02C102F0090E0101EA
:1021E000032512EC00F05D0E6EEC00F00001800E95
:1021F000016E02C102F00101075112EC00F0050E60
:10220000046E05C10EF004C10DF03AEC00F00001BF
:102210001200146A09C113F0134A142A166A080E30
:10222000156E050E155E000E165A13501524010189
:102230000D6F08C13EF109C13FF100015FEC1AF0DA
:10224000010E01010C5D000117E1800E016E08C155
:1022500002F001010D0512EC00F05B0E6EEC00F0D7
:10226000800E016E08C102F0090E0101092512EC71
:1022700000F05D0E6EEC00F0000108C14FF10DC1E1
:1022800050F10BC152F10AC151F192EF1BF0010E56
:1022900001010E5D000121E13EC010F13FC011F1CE
:1022A00042C013F141C012F144C015F143C014F112
:1022B00046C017F145C016F148C019F147C018F1E2
:1022C0004AC01BF149C01AF14BC01CF14CC01DF1B2
:1022D0004DC01EF14EC01FF14BD0020E01010E5D2C
:1022E000000121E154C010F155C011F158C013F1A3
:1022F00057C012F15AC015F159C014F15CC017F162
:102300005BC016F15EC019F15DC018F160C01BF131
:102310005FC01AF161C01CF162C01DF163C01EF103
:1023200064C01FF125D0030E01010E5D000120E104
:1023300065C010F166C011F169C013F168C012F1F7
:102340006BC015F16AC014F16DC017F16CC016F1C5
:102350006FC019F16EC018F171C01BF170C01AF195
:1023600072C01CF173C01DF174C01EF175C01FF165
:102370000101206B216B188201011153000105E15D
:1023800001010C0E226F00010DD0010E0101115D43
:10239000000105E101010A0E226F000103D00101D5
:1023A000050E226F01012205266F000118A282EF9F
:1023B00016F0010E8B6F14EC06F0800E016E30ECFF
:1023C00000F0020EF76EA40EF66E66EC00F0800EC2
:1023D000016E30EC00F0030EF76E240EF66E66EC24
:1023E00000F0010E046E01010E5138EC00F0030EF6
:1023F000F76E2C0EF66E66EC00F00001020E906F88
:1024000047EC06F0030E906F47EC06F0040E906F59
:1024100047EC06F0020E0101205D000104E201011B
:10242000216B000121D0FF0E01012225056E066AF5
:10243000FF0E06220652000114E105500101205D45
:1024400000010FE3030E0101225D000106E3030E0C
:102450000101225D216F000102D00101216B000109
:1024600003D001012005216F0101020E246F050E2A
:102470000101245D0001D8B081EF16F0FE0E0101CC
:102480002425136E146AFF0E142221511324256F84
:102490002551265D0001D8A077EF16F001012551E6
:1024A000205D000105E10101010E236F000102D052
:1024B0000101236B010111530001D8A470D0010167
:1024C0002553000104E10101276B000167D0010ED3
:1024D0000101255D000105E10101010E276F0001E9
:1024E0005DD0020E0101255D000105E10101020E32
:1024F000276F000153D0030E0101255D000105E1A6
:102500000101030E276F000149D0040E0101255D72
:10251000000105E10101040E276F00013FD0050E07
:102520000101255D000105E10101050E276F000194
:1025300035D0060E0101255D000105E10101060E01
:10254000276F00012BD0070E0101255D000105E179
:102550000101070E276F000121D0080E0101255D42
:10256000000105E10101080E276F000117D0090ED7
:102570000101255D000105E10101090E276F000140
:102580000DD00A0E0101255D000105E101010A0ED1
:10259000276F000102D00101276900018AD0010ED6
:1025A0000101115D0001D8A45CD001012553000197
:1025B00004E10101276B000153D0010E0101255DEB
:1025C000000105E10101010E276F000149D0020E53
:1025D0000101255D000105E10101020E276F0001E7
:1025E0003FD0030E0101255D000105E10101030E4D
:1025F000276F000135D0040E0101255D000105E1C2
:102600000101040E276F00012BD0050E0101255D8D
:10261000000105E10101060E276F000121D0060E21
:102620000101255D000105E10101070E276F000191
:1026300017D0070E0101255D000105E10101090E1A
:10264000276F00010DD0080E0101255D000105E195
:1026500001010A0E276F000102D001012769000164
:1026600028D001012553000104E10101276B00017D
:1026700020D0010E0101255D000105E10101010EDF
:10268000276F000116D0020E0101255D000105E152
:1026900001010A0E276F00010CD0030E0101255D18
:1026A000000105E10101090E276F000102D00101BF
:1026B000276901012729000113E124C13AF101EE44
:1026C000EAF0420EEE6E610EEE6E630EEE6E6B0E73
:1026D000EE6EEF6A23C13BF118EC1AF076EF16F0BC
:1026E0000101275300013FE1800E016E24C102F079
:1026F000010E12EC00F0030EF76E3A0EF66E66EC69
:1027000000F0010E0101105D000116E124C140F14D
:1027100001010B0E416F02EE0BF0030EF76E460E39
:10272000F66E11EC01F0EF6A23C142F10101436B37
:1027300000016FEC1AF015D024C140F101010B0E1D
:10274000416F02EE0BF0030EF76E4E0EF66E11ECBB
:1027500001F0EF6A23C142F10101436B00016FEC0C
:102760001AF076EF16F0010E0101275D0001D8A4E2
:102770005BD0800E016E24C102F0010E12EC00F05D
:10278000030EF76E580EF66E66EC00F00101115361
:10279000000116E124C140F101010B0E416F02EE70
:1027A0000BF0030EF76E640EF66E11EC01F0EF6A9B
:1027B00023C142F10101436B00016FEC1AF032D0EA
:1027C000010E0101115D000117E124C140F1010179
:1027D0000B0E416F02EE0BF0540EEE6E650EEE6EB8
:1027E0006D0EEE6E700EEE6EEF6A23C142F1436B1A
:1027F00000016FEC1AF016D024C140F101010B0E5C
:10280000416F02EE0BF0460EEE6E6C0EEE6E6F0E2A
:10281000EE6E770EEE6EEF6A23C142F1436B00015C
:102820006FEC1AF076EF16F0020E0101275D000141
:1028300028E1800E016E24C102F0010E12EC00F0BE
:10284000030EF76E6E0EF66E66EC00F013C133F1F8
:1028500012C132F10EEC1AF035C12BF134C12AF15C
:1028600024C146F101010B0E476F2BC149F12AC16A
:1028700048F123C14AF14B6B0001E2EC1AF076EF0C
:1028800016F0030E0101275D000127E1800E016EA5
:1028900024C102F0010E12EC00F0030EF76E7A0E66
:1028A000F66E66EC00F015C133F114C132F10EEC96
:1028B0001AF035C12DF134C12CF124C146F10101CA
:1028C0000B0E476F2DC149F12CC148F123C14AF1CC
:1028D0004B6B0001E2EC1AF009D2040E0101275DF6
:1028E00000012EE10101115300010EE1800E016E85
:1028F00024C102F0010E12EC00F0030EF76E860EFA
:10290000F66E66EC00F00DD0800E016E24C102F070
:10291000010E12EC00F0030EF76E920EF66E66ECEE
:1029200000F024C108F101010B0E096F17C10BF172
:1029300016C10AF123C10CF1000109EC11F0D6D146
:10294000050E0101275D00011CE1800E016E24C10E
:1029500002F0010E12EC00F0030EF76E9E0EF66E02
:1029600066EC00F024C108F101010B0E096F19C1DA
:102970000BF118C10AF123C10CF1000109EC11F0AF
:10298000B5D1060E0101275D00012EE101011153B1
:1029900000010EE1800E016E24C102F0010E12EC66
:1029A00000F0030EF76EAA0EF66E66EC00F00DD086
:1029B000800E016E24C102F0010E12EC00F0030E35
:1029C000F76EB60EF66E66EC00F024C108F1010158
:1029D0000B0E096F1BC10BF11AC10AF123C10CF1D7
:1029E000000109EC11F082D1070E0101275D000101
:1029F000D8A460D0800E016E24C102F0010E12EC4A
:102A000000F0030EF76EC20EF66E66EC00F00101E8
:102A10001C53000113E124C140F101010B0E416F71
:102A200002EE0BF04E0EEE6E6F0EEE6EEF6A23C1ED
:102A300042F1436B00016FEC1AF03BD0010E010133
:102A40001C5D000119E124C140F101010B0E416F31
:102A500002EE0BF0500EEE6E750EEE6E6C0EEE6E1C
:102A6000730EEE6E650EEE6EEF6A23C142F1436B9C
:102A700000016FEC1AF01DD0020E01011C5D000177
:102A800018E124C140F101010B0E416F02EE0BF081
:102A90004C0EEE6E610EEE6E740EEE6E630EEE6E0A
:102AA000680EEE6EEF6A23C142F1436B00016FECDA
:102AB0001AF01CD1080E0101275D0001D8A460D0D6
:102AC000800E016E24C102F0010E12EC00F0030E24
:102AD000F76ECE0EF66E66EC00F001011D5300019C
:102AE00013E124C140F101010B0E416F02EE0BF026
:102AF0004E0EEE6E6F0EEE6EEF6A23C142F1436B27
:102B000000016FEC1AF03BD0010E01011D5D0001C8
:102B100019E124C140F101010B0E416F02EE0BF0EF
:102B2000500EEE6E750EEE6E6C0EEE6E730EEE6E59
:102B3000650EEE6EEF6A23C142F1436B00016FEC4C
:102B40001AF01DD0020E01011D5D000118E124C123
:102B500040F101010B0E416F02EE0BF04C0EEE6ED8
:102B6000610EEE6E740EEE6E630EEE6E680EEE6E1D
:102B7000EF6A23C142F1436B00016FEC1AF0B6D04B
:102B8000090E0101275D0001D8A472D00101115383
:102B900000010EE1800E016E24C102F0010E12EC64
:102BA00000F0030EF76EDA0EF66E66EC00F00DD054
:102BB000800E016E24C102F0010E12EC00F0030E33
:102BC000F76EE60EF66E66EC00F001011E53000192
:102BD00013E124C140F101010B0E416F02EE0BF035
:102BE0004E0EEE6E6F0EEE6EEF6A23C142F1436B36
:102BF00000016FEC1AF03BD0010E01011E5D0001D7
:102C000019E124C140F101010B0E416F02EE0BF0FE
:102C1000500EEE6E750EEE6E6C0EEE6E730EEE6E68
:102C2000650EEE6EEF6A23C142F1436B00016FEC5B
:102C30001AF01DD0020E01011E5D000118E124C131
:102C400040F101010B0E416F02EE0BF04C0EEE6EE7
:102C5000610EEE6E740EEE6E630EEE6E680EEE6E2C
:102C6000EF6A23C142F1436B00016FEC1AF03ED0D2
:102C70000A0E0101275D000139E1800E016E24C1B9
:102C800002F0010E12EC00F0030EF76EF20EF66E7B
:102C900066EC00F0010E01011F5D000115E124C189
:102CA00040F101010B0E416F02EE0BF0590EEE6E7A
:102CB000650EEE6E730EEE6EEF6A23C142F1436B4A
:102CC00000016FEC1AF012D024C140F101010B0E8B
:102CD000416F02EE0BF04E0EEE6E6F0EEE6EEF6A6F
:102CE00023C142F1436B00016FEC1AF004D024C100
:102CF00090F047EC06F00101242B0001D8A037EF3B
:102D000012F018929EEC06F0225214E0010E225CA2
:102D100009E101012651205D000102E20101202BA1
:102D2000000107D001012053000102E0010120074A
:102D300000011882CAEC06F0CBEC06F0010E955D9E
:102D4000D8A40BEF1AF001012151205D136E146A13
:102D5000D8A01406020E1324286F11530001D8A422
:102D600070D001012053000104E10101276B000133
:102D700067D0010E0101205D000105E10101010E96
:102D8000276F00015DD0020E0101205D000105E109
:102D90000101020E276F000153D0030E0101205DD7
:102DA000000105E10101030E276F000149D0040E67
:102DB0000101205D000105E10101040E276F000102
:102DC0003FD0050E0101205D000105E10101050E66
:102DD000276F000135D0060E0101205D000105E1DD
:102DE0000101060E276F00012BD0070E0101205DA7
:102DF000000105E10101070E276F000121D0080E37
:102E00000101205D000105E10101080E276F0001AD
:102E100017D0090E0101205D000105E10101090E35
:102E2000276F00010DD00A0E0101205D000105E1B0
:102E300001010A0E276F000102D00101276900017C
:102E40008AD0010E0101115D0001D8A45CD00101FE
:102E50002053000104E10101276B000153D0010E52
:102E60000101205D000105E10101010E276F000154
:102E700049D0020E0101205D000105E10101020EB1
:102E8000276F00013FD0030E0101205D000105E125
:102E90000101030E276F000135D0040E0101205DF2
:102EA000000105E10101040E276F00012BD0050E82
:102EB0000101205D000105E10101060E276F0001FF
:102EC00021D0060E0101205D000105E10101070E80
:102ED000276F000117D0070E0101205D000105E1F9
:102EE0000101090E276F00010DD0080E0101205DC0
:102EF000000105E101010A0E276F000102D0010166
:102F00002769000128D001012053000104E10101DB
:102F1000276B000120D0010E0101205D000105E1B9
:102F20000101010E276F000116D0020E0101205D84
:102F3000000105E101010A0E276F00010CD0030E0C
:102F40000101205D000105E10101090E276F00016B
:102F500002D0010127690101272900010BE1020EBE
:102F60008B6F14EC06F00101010E0F6F00011200CF
:102F70000BEF1AF00101275300012BE10101100EA4
:102F8000576F0001D2EC1BF058C129F1010E01016D
:102F9000295D00011BE1010E01010E5D000103E14D
:102FA00010C13EF00FD0020E01010E5D000103E1E1
:102FB00010C154F007D0030E01010E5D000102E1C3
:102FC00010C165F00EC1C0F018EC0BF018820BEFC9
:102FD0001AF0010E0101275D00012AE10101110E25
:102FE000636F00019EEC1DF064C129F1010E010127
:102FF000295D00011BE1010E01010E5D000103E1ED
:1030000011C13FF00FD0020E01010E5D000103E17E
:1030100011C155F007D0030E01010E5D000102E160
:1030200011C166F00EC1C0F018EC0BF01882F3D19C
:10303000020E0101275D0001D8A444D013C133F171
:1030400012C132F1EBD935C12FF134C12EF101019A
:10305000010E676F2E0E666F28C168F100011DEC2E
:103060001EF0010E0101695D00012AE12FC137F157
:103070002EC136F1D8D939C113F138C112F1010E80
:1030800001010E5D000105E113C142F012C141F0E2
:1030900013D0020E01010E5D000105E113C158F0CD
:1030A00012C157F009D0030E01010E5D000104E1C9
:1030B00013C169F012C168F00EC1C0F018EC0BF03A
:1030C0001882A9D1030E0101275D0001D8A444D0C4
:1030D00015C133F114C132F1A1D935C131F134C177
:1030E00030F10101010E676F300E666F28C168F183
:1030F00000011DEC1EF0010E0101695D00012AE1D5
:1031000031C137F130C136F18ED939C115F138C12D
:1031100014F1010E01010E5D000105E115C144F03D
:1031200014C143F013D0020E01010E5D000105E150
:1031300015C15AF014C159F009D0030E01010E5DFA
:10314000000104E115C16BF014C16AF00EC1C0F0BA
:1031500018EC0BF018825FD1040E0101275D00010D
:1031600032E10101010E5E6F160E5D6F0001B4ECDD
:103170001CF05FC129F1010E0101295D000121E16F
:10318000010E01010E5D000105E117C146F016C1F7
:1031900045F013D0020E01010E5D000105E117C1DB
:1031A0005CF016C15BF009D0030E01010E5D000159
:1031B00004E117C16DF016C16CF00EC1C0F018EC3F
:1031C0000BF0188228D1050E0101275D000132E1C4
:1031D0000101010E5E6F180E5D6F0001B4EC1CF072
:1031E0005FC129F1010E0101295D000121E1010EFC
:1031F00001010E5D000105E119C148F018C147F059
:1032000013D0020E01010E5D000105E119C15EF04F
:1032100018C15DF009D0030E01010E5D000104E14B
:1032200019C16FF018C16EF00EC1C0F018EC0BF0B0
:103230001882F1D0060E0101275D000132E1010183
:10324000010E5E6F1A0E5D6F0001B4EC1CF05FC1E1
:1032500029F1010E0101295D000121E1010E0101A9
:103260000E5D000105E11BC14AF01AC149F013D0FF
:10327000020E01010E5D000105E11BC160F01AC1E3
:103280005FF009D0030E01010E5D000104E11BC1D6
:1032900071F01AC170F00EC1C0F018EC0BF018827A
:1032A000BAD0070E0101275D00012AE101011C0EC1
:1032B0005A6F000135EC1CF05BC129F1010E0101D0
:1032C000295D00011BE1010E01010E5D000103E11A
:1032D0001CC14BF00FD0020E01010E5D000103E195
:1032E0001CC161F007D0030E01010E5D000102E177
:1032F0001CC172F00EC1C0F018EC0BF018828BD01C
:10330000080E0101275D00012AE101011D0E5A6F1F
:10331000000135EC1CF05BC129F1010E0101295DB2
:1033200000011BE1010E01010E5D000103E11DC161
:103330004CF00FD0020E01010E5D000103E11DC132
:1033400062F007D0030E01010E5D000102E11DC114
:1033500073F00EC1C0F018EC0BF018825CD0090EAF
:103360000101275D00012AE101011E0E5A6F0001D3
:1033700035EC1CF05BC129F1010E0101295D000152
:103380001BE1010E01010E5D000103E11EC14DF0C4
:103390000FD0020E01010E5D000103E11EC163F0BA
:1033A00007D0030E01010E5D000102E11EC174F0A1
:1033B0000EC1C0F018EC0BF018822DD00A0E0101DE
:1033C000275D000128E101011F0E576F0001EAD9B6
:1033D00058C129F1010E0101295D00011BE1010E17
:1033E00001010E5D000103E11FC14EF00FD0020E7E
:1033F00001010E5D000103E11FC164F007D0030E5F
:1034000001010E5D000102E11FC175F00EC1C0F0A7
:1034100018EC0BF01882BCEF11F0120033C135F13B
:1034200032C134F1120037C139F136C138F112001E
:103430003AC190F047EC06F001EEEAF0000EEE52D1
:1034400002E0E83EFCD701013C6F140E3C5D000138
:1034500003E30101130E3C6F01013C5114083D6F61
:10346000800E016E3AC102F03D5112EC00F001EE07
:10347000EAF0EE5003E06EEC00F0FBD7010E010124
:103480003B5D00011BE1020E01013D5D00010BE30C
:10349000800E016E3AC102F001013D0512EC00F010
:1034A0005B0E6EEC00F00001800E016E3AC102F07E
:1034B000140E12EC00F05D0E6EEC00F01200800EA7
:1034C000016E3EC102F001013F5112EC00F0030E0B
:1034D000F76EFE0EF66E66EC00F00001120002EED2
:1034E0000BF0000EEE5202E0E83EFCD70101446F03
:1034F000090E445D000103E30101080E446F000161
:10350000146A41C113F0134A142A166A080E156E84
:1035100001014451155E000E165A13501524456FD3
:1035200040C13EF141C13FF10001C9DF010E01017F
:10353000425D000136E1010E0101435D000119E128
:10354000800E016E40C102F00101450512EC00F051
:10355000280E6EEC00F0800E016E40C102F0090EE4
:103560000101412512EC00F0290E6EEC00F0000183
:1035700017D0800E016E40C102F00101450512EC2A
:1035800000F05B0E6EEC00F0800E016E40C102F0A8
:10359000090E0101412512EC00F05D0E6EEC00F009
:1035A0000001800E016E40C102F00101455112EC94
:1035B00000F002EE0BF0EE5003E06EEC00F0FBD7F3
:1035C00000011200146A47C113F0134A142A166A44
:1035D000080E156E040E155E000E165A13501524B3
:1035E00001014C6F800E016E46C102F0475112EC92
:1035F00000F0030EF76EFE0EF66E66EC00F0010EA4
:1036000001014A5D0001D8A453D0010E01014B5DB8
:10361000000119E1800E016E46C102F001014C0566
:1036200012EC00F0280E6EEC00F0800E016E46C128
:1036300002F0090E0101472512EC00F0290E6EEC94
:1036400000F0000135D0010149510001E8AE19D068
:10365000800E016E46C102F001014C0512EC00F033
:103660005B0E6EEC00F0800E016E46C102F0090E9A
:103670000101472512EC00F05D0E6EEC00F0000138
:1036800017D0800E016E46C102F001014C5112ECC0
:1036900000F05B0E6EEC00F0800E016E46C102F091
:1036A000090E0101472512EC00F05D0E6EEC00F0F2
:1036B000010149510001E8AE23D0800E016E46C1E0
:1036C00002F001014C5112EC00F02D0E6EEC00F0F6
:1036D0000101485100084D6F000E49554E6F800E94
:1036E000016E46C102F04C2912EC00F0030E046E8C
:1036F0004EC10EF04DC10DF03AEC00F0000110D0BB
:10370000800E016E46C102F001014C2912EC00F05E
:10371000030E046E49C10EF048C10DF03AEC00F002
:103720000001120052C10AF051C109F00C6A3C0EAE
:103730000B6EFAEC00F00101536F0AC054F152C154
:103740000AF051C109F00C6A3C0E0B6EFAEC00F065
:103750000EC056F10DC055F1800E016E4FC102F042
:103760000101505112EC00F0020E046E54C10EF033
:1037700053C10DF03AEC00F03A0E6EEC00F0800E02
:10378000016E4FC102F0030E0101502512EC00F052
:10379000020E046E56C10EF055C10DF03AEC00F069
:1037A0000001120057C159F1188218A238D0010E39
:1037B0008B6F14EC06F001EE87F0040EF76E0A0E24
:1037C000F66E11EC01F0EF6A54EC06F0020E906F09
:1037D00047EC06F0030E906F47EC06F0040E906F76
:1037E00047EC06F0010E0101595D00010CE1800E6D
:1037F000016E940E30EC00F0040EF76E1E0EF66EA5
:1038000066EC00F00BD0800E016E940E30EC00F0F0
:10381000040EF76E340EF66E66EC00F018929EEC15
:1038200006F022520EE0010E0101595D000104E193
:103830000101596B000103D00101010E596F000114
:103840001882CAEC06F0CBEC06F0010E955D0BE198
:10385000020E8B6F14EC06F059C157F10101010EF5
:10386000586F00011200A1D712005AC15CF11882F2
:1038700018A24DD0010E8B6F14EC06F001EE87F00C
:10388000040EF76E4A0EF66E11EC01F0EF6A54EC7E
:1038900006F0020E906F47EC06F0030E906F47ECB7
:1038A00006F0040E906F47EC06F001015C53000136
:1038B0000CE1800E016E940E30EC00F0040EF76EF9
:1038C0005E0EF66E66EC00F021D0010E01015C5D2B
:1038D00000010CE1800E016E940E30EC00F0040E3D
:1038E000F76E740EF66E66EC00F010D0020E010159
:1038F0005C5D00010BE1800E016E940E30EC00F077
:10390000040EF76E8A0EF66E66EC00F018929EECCE
:1039100006F0010E225C0AE1020E01015C5D00016D
:1039200002E201015C2B000118820AD0222808E182
:1039300001015C53000102E001015C0700011882F3
:10394000CAEC06F0CBEC06F0010E955D0BE1020E21
:103950008B6F14EC06F05CC15AF10101010E5B6F34
:103960000001120085D712005EC10AF05DC109F0A6
:103970000C6A3C0E0B6EFAEC00F00101606F5EC148
:103980000AF05DC109F00C6A3C0E0B6EFAEC00F017
:103990000DC061F10101626B1882000118A274D0A0
:1039A000010E8B6F14EC06F001EE87F0040EF76E3B
:1039B000A00EF66E11EC01F0EF6A54EC06F0020E68
:1039C000906F47EC06F0030E906F47EC06F0040E84
:1039D000906F47EC06F00101625300012BE1800E6D
:1039E000016E940E30EC00F0200E6EEC00F05B0ED9
:1039F0006EEC00F0020E046E0101605138EC00F034
:103A00005D0E6EEC00F0200E6EEC00F03A0E6EECE7
:103A100000F0200E6EEC00F0020E046E0101615108
:103A200038EC00F0040EF76EB40EF66E66EC00F0A3
:103A3000000128D0800E016E940E30EC00F0200EB4
:103A40006EEC00F06EEC00F0020E046E01016051AD
:103A500038EC00F0200E6EEC00F03A0E6EEC00F048
:103A6000200E6EEC00F05B0E6EEC00F0020E046EA9
:103A70000101615138EC00F0040EF76EBE0EF66ED7
:103A800066EC00F0000118929EEC06F0010E225C3C
:103A900017E101016253000109E1630E0101605D5C
:103AA000000102E20101602B000108D03B0E010180
:103AB000615D000102E20101612B0001188216D054
:103AC000222814E101016253000108E10101605361
:103AD000000102E001016007000107D0010161530C
:103AE000000102E00101610700011882CAEC06F042
:103AF000CBEC06F0010E955D1FE1020E8B6F14EC0E
:103B000006F001016253000106E10101010E626F3E
:103B10001882000111D0010160513C0DF3CF13F068
:103B2000F4CF14F0615113245D6F000E14205E6F0A
:103B3000010E5F6F0001120030D7120063C165F102
:103B4000188218A24DD0010E8B6F14EC06F001EE16
:103B500087F0040EF76EC80EF66E11EC01F0EF6AF6
:103B600054EC06F0020E906F47EC06F0030E906FD7
:103B700047EC06F0040E906F47EC06F00101655328
:103B800000010CE1800E016E940E30EC00F0040E8A
:103B9000F76EDC0EF66E66EC00F021D0010E01012E
:103BA000655D00010CE1800E016E940E30EC00F0BA
:103BB000040EF76EF20EF66E66EC00F010D0020EF8
:103BC0000101655D00010BE1800E016E940E30EC89
:103BD00000F0050EF76E0A0EF66E66EC00F0189215
:103BE0009EEC06F0010E225C0AE1020E0101655D09
:103BF000000102E20101652B000118820AD022288F
:103C000008E101016553000102E0010165070001BF
:103C10001882CAEC06F0CBEC06F0010E955D0BE1C4
:103C2000020E8B6F14EC06F065C163F10101010E09
:103C3000646F0001120085D7120001010B0E756F31
:103C4000146A75C113F0134A142A166A080E156E09
:103C5000040E155E000E165A13501524766F67C1B8
:103C600078F166C177F167510001E8AE0BD0010130
:103C7000010E6F6F665100086A6F000E67556B6F1B
:103C8000000106D001016F6B67C16BF166C16AF17B
:103C9000010E01016B5D00010BE305E1F50E010171
:103CA0006A5D000105E30101010E6B6FF40E6A6F9E
:103CB00000016BC10AF06AC109F00C6A640E0B6E58
:103CC000FAEC00F001016C6F6BC10AF06AC109F0F7
:103CD0000C6A640E0B6EFAEC00F00EC06BF10DC0B6
:103CE0006AF16BC10AF06AC109F00C6A0A0E0B6E28
:103CF000FAEC00F001016D6F6BC10AF06AC109F0C6
:103D00000C6A0A0E0B6EFAEC00F00DC06EF10101A8
:103D1000706B1AC07BF11BC07CF11CC07DF11DC013
:103D20007EF17F6B010E806F0001010E8B6F14EC32
:103D300006F068C13EF175C13FF15FEC1AF068C151
:103D400083F101017605846F0001DCEC21F00101B3
:103D5000280E816F0001C6EC21F068C183F1090EC5
:103D600001017525846F0001DCEC21F00101290EB1
:103D7000816F0001C6EC21F001017B511A5C056ED8
:103D80007C511B58066E7D511C58076E7E511D5884
:103D9000086E000E085C000122E30BE1000E075CD8
:103DA0001EE307E1000E065C1AE303E1FA0E055C70
:103DB00016E31AC07BF11BC07CF11CC07DF11DC055
:103DC0007EF101017F53000105E10101010E7F6FCA
:103DD000000102D001017F6B0101010E806F010E15
:103DE0000101805D0001D8A4A1D00101806B68C1F0
:103DF00083F176C184F10001DCEC21F0010E0101B8
:103E00007053D8A4000E176E010E7F5D010ED8A46A
:103E1000000E1716000107E00101200E816F00015E
:103E2000C6EC21F012D0010E01016F5D000107E127
:103E300001012D0E816F0001C6EC21F006D00101B9
:103E40002B0E816F0001C6EC21F068C183F10101E6
:103E50007629846F0001DCEC21F0010E0101705D18
:103E6000010ED8A4000E176E010E7F5D010ED8A4BE
:103E7000000E1716000107E00101200E816F0001FE
:103E8000C6EC21F007D0300E01016C25816F0001D6
:103E9000C6EC21F068C183F1020E01017625846F22
:103EA0000001DCEC21F0020E0101705D010ED8A4CE
:103EB000000E176E010E7F5D010ED8A4000E1716BE
:103EC000000107E00101200E816F0001C6EC21F026
:103ED00007D0300E01016D25816F0001C6EC21F085
:103EE00068C183F1030E01017625846F0001DCECCB
:103EF00021F0030E0101705D010ED8A4000E176EB3
:103F0000010E7F5D010ED8A4000E1716000107E018
:103F10000101200E816F0001C6EC21F007D0300EA8
:103F200001016E25816F0001C6EC21F0F29E34C0C4
:103F30007AF133C079F1F28E020E01017A5DEE0E54
:103F4000D8B4795D000102E2000E01D0010E176EB7
:103F5000010E81BC000E171615E0030E8B6F14ECDA
:103F600006F078C167F177C166F181BC04D00A0E12
:103F7000E2EC00F0FAD7640EE2EC00F0236A77C1BD
:103F800069F112009EEC06F02252D8B471D1010EF4
:103F90008B6F14EC06F00101010E806F705300016D
:103FA0000DE101016F53000105E10101010E6F6F89
:103FB000000102D001016F6B00015AD1010E010115
:103FC000705D000125E1010E225C0DE1050E01018D
:103FD0006C5D000104E201016C2B000102D00101C3
:103FE0006C6B00010BD001016C53000104E0010176
:103FF0006C07000103D00101050E6C6F050E010175
:104000006C5D000103E101016D6B6E6B000130D14D
:10401000020E0101705D0001D8A4CFD0050E010190
:104020006C5D000104E30101736B000153D0146A5D
:104030006CC113F01450640DF3CF14F01350640DE1
:10404000F3CF13F0F4501426166A6DC115F0165014
:104050000A0DF3CF16F015500A0DF3CF15F0F450FA
:104060001626155013240101716F16501420726F1B
:10407000010E725D00012AE305E1EA0E0101715DA6
:10408000000124E3010E146EF40E136E166A6CC167
:1040900015F01650640DF3CF16F01550640DF3CFE4
:1040A00015F0F45016261550135C136E1650145864
:1040B000146E14C00AF013C009F00C6A0A0E0B6EDD
:1040C000FAEC00F00101736F000103D00101090E49
:1040D000736F0001010E225C0DE1010173516D5DF2
:1040E000000104E201016D2B000102D001016D6BA2
:1040F00000010AD001016D53000104E001016D07C8
:10410000000102D073C16DF1146A6CC113F0145038
:10411000640DF3CF14F01350640DF3CF13F0F4508B
:104120001426166A6DC115F016500A0DF3CF16F05D
:1041300015500A0DF3CF15F0F4501626155013261E
:104140001650142201016E511324716F000E1420B9
:10415000726F010E725D00012EE305E1F50E0101A3
:10416000715D000128E3010E146EF40E136E166AE1
:104170006CC115F01650640DF3CF16F01550640D98
:10418000F3CF15F0F45016261550135C136E16502D
:104190001458146E166A6DC115F016500A0DF3CF3F
:1041A00016F015500A0DF3CF15F0F45016261550E1
:1041B000135C01016E6F00015BD0030E0101705DA5
:1041C0000001D8A455D0146A6CC113F01450640DCA
:1041D000F3CF14F01350640DF3CF13F0F450142602
:1041E000166A6DC115F016500A0DF3CF16F0155072
:1041F0000A0DF3CF15F0F4501626155013240101C3
:10420000716F16501420726F010E725D00010AE387
:1042100005E1F40E0101715D000104E30101746B1D
:1042200000010CD001017151F408746F0A0E745D25
:10423000000103E30101090E746F0001010E225C0D
:104240000DE1010174516E5D000104E201016E2B6C
:10425000000102D001016E6B00010AD001016E5312
:10426000000104E001016E07000102D074C16EF18B
:10427000CAEC06F0CBEC06F0010E955DD8A480D018
:10428000010E8B6F14EC06F00101010E806F030E1E
:10429000705D00010DE20101702B7F6B1AC07BF194
:1042A0001BC07CF11CC07DF11DC07EF1000168D0F7
:1042B000146A6CC113F01450640DF3CF14F0135052
:1042C000640DF3CF13F0F4501426166A6DC115F087
:1042D00016500A0DF3CF16F015500A0DF3CF15F056
:1042E000F4501626155013261650142201016E5153
:1042F0001324716F000E1420726F010E6F5D0001A8
:1043000009E1010171510008666F000E7255676F77
:10431000000104D072C167F171C166F101016751FA
:104320000001E8BE10D0010E0101675D00010BE342
:1043300005E1F50E0101665D000105E30101010ED5
:10434000676FF40E666F010167510001E8AE10D08F
:10435000FE0E0101675D07E300010AE10C0E010199
:10436000665D000105E20101FE0E676F0C0E666FCF
:104370000001020E8B6F14EC06F066C169F11200A9
:10438000010EE2EC00F0BCEF1EF01200808C010187
:1043900081390F0B826F82C185F00001B5EC05F009
:1043A0000F0E01018115826F82C185F00001B5EC0D
:1043B00005F0320EEFEF00F0010E0101835D000108
:1043C00004E10101856B000118D0020E0101835D3B
:1043D000000105E10101400E856F00010ED0030EC2
:1043E0000101835D000105E10101140E856F0001EB
:1043F00003D00101540E856F0001146A800E136E04
:10440000010185511326000E1422166A84C115F08D
:104410001506000E165A13501524866F86C186F0B5
:064420000001BBEF05F0F6
:020000040030CA
:03000100081F1EB7
:020005008181F7
:060008000FC00FE00F40E5
:00000001FF
