:020000040000FA
:100000000000000046EF02F060EF02F0800E016E8B
:10001000FE0EBDD8010EBBD8750E0A6E300EE0D0B4
:10002000016A018E166E1652D8A41606FE0EAFD8BF
:10003000025202E0022C02D0800E0ED00250020AC0
:1000400002E1C00E09D00250030A02E1940E04D06E
:100050000250040A02E1D40E026E1650022497D018
:10006000016A018E166EFE0E92D8165090D0046A68
:100070000F6E106A00960450D8B40086050E036E09
:10008000270E0E6E100E0CD8030E0E6EE80E08D85A
:100090000E6A640E05D80E6A0A0E02D80F5007D0F9
:1000A0000D6E10500A6E0F50096EA4D80950096EDB
:1000B000034E0096045002E0035C07E20950D8A406
:1000C000009600B602D0300F62D01200A66AA68E4B
:1000D0000900F55002E002D8FBD71200146E899E89
:1000E000899C929E929CF00E9216145000B21ED0E3
:1000F0003A0E0A6E980E74D8330E136E29D8130E6A
:100100000A6E880E6DD824D8640E69D821D8640E82
:1001100066D8220E136E1CD8280E07D80C0E05D8F0
:10012000060E03D80082145001D00080136E00A088
:1001300009D0899C03080AE309D8070E0A6ED00E7D
:100140004FD812000080FE0814E0898C133A00A0FA
:100150000090898EF00E801613500F0B8012000055
:1001600000D0899E133A000000D000B0F1D7320EC3
:1001700036D814501200A66AA68E0900F55002E087
:1001800002D8FBD712009EA8FED7AD6E120001BEAA
:10019000A5D701B4F8D7A86EA66AA684550EA76E97
:1001A000AA0EA76EA682A6B2FED7A694A94AAA2A2C
:1001B000A68E1200A96EA66AA680A850A94AAA2AED
:1001C000A68E12000E6A0D6EFF0E0D260E2200D0B6
:1001D000D8A01200030E0A6EE60E02D8F5D70A6AFE
:1001E000FD0F096E01D00906000000D0E86A0A5A26
:1001F000FAE21200106A0F6A100EF36E0A340F361C
:1002000010360D500F5C0E50105805E30D500F5E68
:100210000E50105AD88009360A36F32EEFD70950FF
:1002200012000CC01CF00BC01BF00AC01AF009C071
:1002300019F01B500F02F3CF0BF0F4CF0CF01A5053
:100240001002F3500B26F4500C2219501102F350F7
:100250000B26F4500C221C500F02F3500C261B509E
:100260001002F3500C261A501102F3500C261950AC
:100270001202F3500C2619500F02F3CF09F0F4CFFD
:100280000AF01A500F02F3500A26F4500B22000E07
:100290000C2219501002F3500A26F4500B22000EC3
:1002A0000C221200A66AA68E0900F55002E0EE6E3E
:1002B000FBD7120053746172747570206F6B00006D
:1002C000505F42656570732832290000456E6420D6
:1002D00053746172747570004952524953595320D6
:1002E0004D41494E202020202020202000004F504A
:1002F00054494F4E53202020202020202020202011
:10030000202000004D61696E204D656E75005365BB
:10031000747570204D656E7500005574696C697454
:1003200079204D656E7500005554494C495459006B
:10033000505F426565707328000020202020202037
:1003400020202020202020202020202020200000ED
:100350002028535455422920202020202000534596
:1003600054555020202020202020202020202020F4
:1003700020200000496E707574203100496E707540
:1003800074203200496E707574203300494E505508
:1003900054203200494E505554203300494E505598
:1003A0005420312020202020202020202020202008
:1003B0000000434C4F434B202020202020202020B1
:1003C000202020202020000054696D656F75742066
:1003D0002020000050756C73652020202020000034
:1003E000456E61626C65202020200000456E6162D0
:1003F0006C65640044697361626C656400005365F8
:100400006E736F7220202020000050726573737528
:10041000726500005363616C65346D6120200000DB
:100420005363616C6532306D612000004869676814
:100430002042502020200000504C504250202020CC
:1004400020200000534C504250202020202000004B
:10045000526C79204869676820200000526C79202E
:10046000504C502020200000526C7920534C5020DA
:1004700020200000446973706C6179202020000006
:10048000202020202020202020200000006A100EA4
:10049000AF6E240EAC6E900EAB6E00010F0EC16EEF
:1004A000070EB46E700ED36E9B8C0F0EC16EF19E54
:1004B000C40ED56E060ED66EF294F28AF28EE9D094
:1004C000000117C07FF118C080F1F4CF81F1F3CFA4
:1004D00082F1F2A4D5D0060ED66EF2941F2A000E39
:1004E0002022212222222B2A0A0E2B5CD8A0BDD04A
:1004F0007B6A81B27B2A7C6A81B47C2A7D6A81BC5A
:100500007D2A7B502C5C10E02F2A020E2F5C0BE31F
:100510007BC02CF02F6A1FC023F020C024F021C024
:1005200025F022C026F001D02F6A7C502D5C10E00F
:10053000302A020E305C0BE37CC02DF0306A1FC005
:1005400023F020C024F021C025F022C026F001D0E5
:10055000306A7D502E5C10E0312A020E315C0BE3D4
:100560007DC02EF0316A1FC023F020C024F021C0CE
:1005700025F022C026F001D0316A2C50020DF3CFB5
:1005800017F0F4CF18F02D5017247E6E3250040D62
:10059000F3CF17F0F4CF18F07E5017247F6E010EC2
:1005A0007F5C09E0070E7F5C06E00E0E7F5C03E0D7
:1005B000080E7F5C02E133060DD0020E7F5C09E07D
:1005C0000B0E7F5C06E00D0E7F5C03E0040E7F5C8B
:1005D00001E1332A7E5225E133BE0ED0020E335C98
:1005E0000BE3364A372A1FC023F020C024F021C075
:1005F00025F022C026F014D03350800A7E0810E384
:10060000365202E1375203E03606000E375A000137
:100610001FC023F020C024F021C025F022C026F006
:10062000336A7EC032F02E520DE1FF0E355C04E3DA
:1006300007E1F60E345C04E20A0E3426000E352281
:10064000000112D0355203E1C80E345C0AE3010EFA
:10065000286E1FC023F020C024F021C025F022C046
:1006600026F00001356A346A2B6A295202E12A52C7
:1006700006E082842906000E2A5A000101D08294E5
:100680007FC117F080C118F081C1F4FF82C1F3FF70
:10069000110065D826D88FEC05F067D8A3D81E8244
:1006A0001E901E94286A266A256A246A236A416A73
:1006B000030E495C02E3010E496E75D8020EF76E17
:1006C000B40EF66EBBEC00F00D0EC3EC00F0C80EDD
:1006D000E2EC00F0416A01D938D981C03AF0FAD78A
:1006E000FFD7100E926E460E936E946A896A8A6ADC
:1006F0008B6A899C899E320EE2EC00F0809C030E8E
:100700008D6FD2EC05F0050EE2EC00F0030E8D6F5C
:10071000D2EC05F0960EEFEC00F0030E8D6FD2ECEC
:1007200005F0960EEFEC00F0020E8D6FD2EC05F0A6
:10073000960EEFEC00F0280E8E6FD8EC05F0080E48
:100740008E6FD8EC05F0010E8E6FD8EC05F0060E1A
:100750008E6FD8EC05F00C0E8E6FD8EF05F0100EF2
:10076000926E460E936E946A12002C6A81B22C2A05
:100770002D6A81B42D2A2E6A81BC2E2A2C50020D9E
:10078000F3CF17F0F4CF18F02D501724326E2F6AE4
:10079000306A316A2B6A336A376A366A396A386A6C
:1007A000356A346A1200806B060E805D12E2020E1A
:1007B000F76EC00EF66EBBEC00F00D0EC3EC00F051
:1007C000020E9F6F8DEC07F0640EE2EC00F0802BC0
:1007D000EBE3020EF76ECC0EF66EBBEC00F00D0EE6
:1007E000C3EF00F024EC08F0010E916F2C0E906F17
:1007F000FED993C043F092C042F0010E916F2E0ECD
:10080000906FF5D993C045F092C044F0010E916FFE
:10081000300E906FECD993C047F092C046F0010EB5
:100820009C6F0CDA020E9C6F09DA030E9C6F06DADD
:10083000916BC80E906FDBD993C03CF092C03BF037
:100840003C5203E10A0E3B5C02E3000E01D0010EB4
:100850001D6E010E3C5C000104E305E12D0E3B5CC6
:1008600002E2000E01D0010E1D1200010BE03C6AF5
:100870001E0E3B6E976BC80E966F3CC099F03BC046
:1008800098F0C0D9916BCA0E906FB1D993C03EF069
:1008900092C03DF03E5203E10A0E3D5C02E3000EC1
:1008A00001D0010E1D6E070E3E5C000104E305E160
:1008B000D10E3D5C02E2000E01D0010E1D120001BE
:1008C0000BE03E6A320E3D6E976BCA0E966F3EC0CD
:1008D00099F03DC098F096D912001E9000EEFBF002
:1008E000020EF76ED80EF66E52EC01F0EF6ADAECFB
:1008F00007F0020EA46FCDEC07F0030EA46FCDEC51
:1009000007F0040EA46FCDEC07F01E8299EC08F0FE
:100910009AEC08F0010EAC5D06E1020E9F6F8DECC3
:1009200007F012D010D0020EAC5D06E1030E9F6FEF
:100930008DEC07F009D007D0030EAC5D04E1030E87
:100940009F6F8DEC07F0E2D71200040E836F826B6D
:10095000846B1E901E821EA293D0010E9F6F8DECA1
:1009600007F000EEFBF0020EF76EEE0EF66E52ECA4
:1009700001F0EF6ADAEC07F0020EA46FCDEC07F09D
:10098000030EA46FCDEC07F0040EA46FCDEC07F0BE
:1009900082C084F0040E835D0FE3FD0E8325056E97
:1009A000066AFF0E0622065206E18451055C03E248
:1009B000030E835D846F01D0846B020E856F050E7C
:1009C000855DD8B05CD0FE0E8525176E186AFF0EC7
:1009D000182284511724866F8651825D03E1010E2F
:1009E000876F01D0876B865310E185C0A5F001EEBB
:1009F0001CF0030EF76E040EF66E52EC01F0EF6A77
:100A000087C0A6F0F0EC07F037D0010E865D10E14C
:100A100085C0A5F001EE1CF0030EF76E0E0EF66E0B
:100A200052EC01F0EF6A87C0A6F0F0EC07F024D09A
:100A3000020E865D10E185C0A5F001EE1CF0030EEC
:100A4000F76E1A0EF66E52EC01F0EF6A87C0A6F050
:100A5000F0EC07F011D085C0A5F001EE1CF0420EBD
:100A6000EE6E610EEE6E630EEE6E6B0EEE6EEF6A64
:100A700087C0A6F0F0EC07F0852BD8A0A0D71E9277
:100A80006DEC08F0010E275C0FE1FF0E8325056E6B
:100A9000066AFF0E0622065203E10550825D03E25C
:100AA0000001822B1E8206D0272804E1825302E037
:100AB00082071E8299EC08F09AEC08F0010EAC5DFA
:100AC00026E1020E9F6F8DEC07F0825304E1010EC8
:100AD000816F24D01CD0010E825D06E1D8EC08F0B5
:100AE000AD5300E11E8213D0020E825D0DE101EED6
:100AF0003DF0030EF76E280EF66E52EC01F0EF6A31
:100B00009EEC08F01E8203D0010E816F07D012D830
:100B1000885303E0010E816F01D01DD71200A16B35
:100B2000050EA06FBDEC07F006EC00F0A16B020E05
:100B3000A06F23D23BC009F03CC00AF00B6A0C6ADC
:100B4000126A116A030E106EE80E0F6E11EC01F0BE
:100B500009C089F00AC08AF00BC08BF00CC08CF081
:100B600023501F5C056E24502058066E25502158D6
:100B7000076E26502258086E8951055C8A51065826
:100B80008B5107588C5108580BE31EB406D01E84B5
:100B9000040E9F6FC2D9020E416E010E886F01D004
:100BA000886B12008DC0B5F0DBEC09F0F3EF09F0B3
:100BB000809C8E390F0B8F6F8FC08DF0F3DF0F0E7F
:100BC0008E158F6F8FC08DF0EDDF010E8E5D04E10D
:100BD000020EE2EC00F00AD0020E8E5D04E1020E7D
:100BE000E2EC00F003D0320EEFEC00F0120091C006
:100BF000AAFF90C0A9FFDBEC00F0926FDBEC00F0E5
:100C0000936F120097C0AAFF96C0A9FFDBEC00F01B
:100C10009A6FDBEC00F09B6F99519B5D03E198515B
:100C20009A5D0BE097C0AAFF96C0A9FF00019851FA
:100C3000CBEC00F09951CBEC00F012009CC0B6F068
:100C4000FDEC09F0B8C09EF0B7C09DF0010E9C5DB0
:100C5000D8A475D09EC0AAFF9DC0A9FFDBEC00F010
:100C6000486E010E9D25A96E000E9E21AA6EDBEC3A
:100C700000F0496E020E9D25A96E000E9E21AA6EFF
:100C8000DBEC00F04A6E040E9D25906F000E9E2155
:100C9000916FADDF93C04CF092C04BF0060E9D25D6
:100CA000906F000E9E21916FA2DF93C04EF092C014
:100CB0004DF0080E9D25906F000E9E21916F97DFDD
:100CC00093C050F092C04FF00A0E9D25906F000E19
:100CD0009E21916F8CDF93C052F092C051F00C0EA8
:100CE0009D25906F000E9E21916F81DF93C054F07F
:100CF00092C053F00E0E9D25A96E000E9E21AA6E85
:100D0000DBEC00F0556E0F0E9D25A96E000E9E21A6
:100D1000AA6EDBEC00F0566E100E9D25A96E000E3B
:100D20009E21AA6EDBEC00F0576E110E9D25A96E78
:100D3000000E9E21AA6EDBEC00F0586EEDD0020E84
:100D40009C5DD8A475D09EC0AAFF9DC0A9FFDBEC16
:100D500000F0596E010E9D25A96E000E9E21AA6E0F
:100D6000DBEC00F05A6E020E9D25A96E000E9E214E
:100D7000AA6EDBEC00F05B6E040E9D25906F000EFA
:100D80009E21916F34DF93C05DF092C05CF0060E3F
:100D90009D25906F000E9E21916F29DF93C05FF01B
:100DA00092C05EF0080E9D25906F000E9E21916FFF
:100DB0001EDF93C061F092C060F00A0E9D25906F17
:100DC000000E9E21916F13DF93C063F092C062F01A
:100DD0000C0E9D25906F000E9E21916F08DF93C031
:100DE00065F092C064F00E0E9D25A96E000E9E2146
:100DF000AA6EDBEC00F0666E0F0E9D25A96E000E4C
:100E00009E21AA6EDBEC00F0676E100E9D25A96E88
:100E1000000E9E21AA6EDBEC00F0686E110E9D257F
:100E2000A96E000E9E21AA6EDBEC00F0696E74D0F4
:100E30009EC0AAFF9DC0A9FFDBEC00F06A6E010E08
:100E40009D25A96E000E9E21AA6EDBEC00F06B6E54
:100E5000020E9D25A96E000E9E21AA6EDBEC00F00D
:100E60006C6E040E9D25906F000E9E21916FBFDE6B
:100E700093C06EF092C06DF0060E9D25906F000E2F
:100E80009E21916FB4DE93C070F092C06FF0080E97
:100E90009D25906F000E9E21916FA9DE93C072F088
:100EA00092C071F00A0E9D25906F000E9E21916FE9
:100EB0009EDE93C074F092C073F00C0E9D25906F6F
:100EC000000E9E21916F93DE93C076F092C075F074
:100ED0000E0E9D25A96E000E9E21AA6EDBEC00F081
:100EE000776E0F0E9D25A96E000E9E21AA6EDBEC7B
:100EF00000F0786E100E9D25A96E000E9E21AA6E40
:100F0000DBEC00F0796E110E9D25A96E000E9E217E
:100F1000AA6EDBEC00F07A6E1200030EF76E300E54
:100F2000F66EBBEC00F0040E016E030E046E9F51D2
:100F300038EC00F0290EC3EC00F00D0EC3EC00F00D
:100F4000010E9F5D04E12A6A140E296E15D0020E6F
:100F50009F5D04E12A6A320E296E0ED0030E9F5D5A
:100F600004E12A6AC80E296E07D0040E9F5D04E1D1
:100F7000030E2A6EE80E296E1200A36B010EA26FFB
:100F8000A251A05DA351A15907E3010EE2EC00F0CC
:100F9000A22B000EA323F4E31200800E016EA4C066
:100FA00002F0010E12EC00F0030EF76E3A0EF66E30
:100FB00066EF00F0800E016E30EC00F0030EF76E6D
:100FC0003A0EF66E66EC00F0800E016E30EC00F02A
:100FD00000EEFBF0EE5003E06EEC00F0FBD71200E9
:100FE000800E016EA5C002F0010E12EC00F0030E9F
:100FF000F76E3A0EF66E66EC00F0010EA65D15E196
:10100000800E016EA5C002F0010E12EC00F05B0E26
:101010006EEC00F001EE1CF0EE5003E06EEC00F020
:10102000FBD75D0E6EEC00F00ED0800E016EA5C0F9
:1010300002F0020E12EC00F001EE1CF0EE5003E0A4
:101040006EEC00F0FBD71200AA6AA96ADBEC00F094
:10105000A76F010EA75D40E0B96B010EBA6FBB6BC5
:10106000BC6BBD6B020EBE6FDAD9C0C0A9F0BFC0A9
:10107000A8F0010E976F2C0E966FA9C099F0A8C02A
:1010800098F002EC06F0010E976F2E0E966FA9C035
:1010900099F0A8C098F002EC06F0010E976F300EA0
:1010A000966FA9C099F0A8C098F002EC06F0976B73
:1010B000C80E966F996B1E0E986F02EC06F0976B38
:1010C000CA0E966F996B320E986F02EC06F0AA6A00
:1010D000A96A010ECBEC00F01200F29E37C0ABF013
:1010E00036C0AAF0F28EAA51385CAB5139580BE2E7
:1010F000010E276E1FC023F020C024F021C025F070
:1011000022C026F011D03850AA5D3950AB590BE2FD
:10111000FF0E276E1FC023F020C024F021C025F051
:1011200022C026F001D0276AABC039F0AAC038F03F
:101130001200120028C0ACF0286A12001E9000EEC7
:10114000FBF011EE3DF0200EE75204E0E6CFEEFF9B
:10115000E82EFAD7030EF76E500EF66E52EC01F041
:10116000EF6A28DF020EA46F18DF030EA46F15DFED
:10117000040EA46F12DFDDDFDDDF010EAC5D05E1E3
:10118000020E9F6FCADE13D011D0020EAC5D05E1D6
:10119000030E9F6FC2DE0BD009D0030EAC5D06E1DB
:1011A000030E9F6FBADE020E416E01D0E4D712002B
:1011B000050EAF6FAE6BB06B1E901E821EA2A4D048
:1011C000010E9F6FAADEAEC0B0F0040EAF5D0FE35C
:1011D000FD0EAF25056E066AFF0E0622065206E1D9
:1011E000B051055C03E2030EAF5DB06F01D0B06B90
:1011F00000EEFBF0030EF76E5E0EF66E52EC01F0A1
:10120000EF6AD8DE020EA46FC8DE030EA46FC5DE3F
:10121000040EA46FC2DEB16B030EB15DD8B073D003
:10122000020EB125B26FB151B025B46FAF51B45DAC
:10123000D8B063D0B451AE5D03E1010EB36F01D0FD
:10124000B36BB4530FE1B2C0A5F001EE1CF0030E76
:10125000F76E740EF66E52EC01F0EF6AB3C0A6F0B2
:10126000BFDE4AD0010EB45D0FE1B2C0A5F001EEC1
:101270001CF0030EF76E7C0EF66E52EC01F0EF6A76
:10128000B3C0A6F0ADDE38D0020EB45D0FE1B2C03F
:10129000A5F001EE1CF0030EF76E840EF66E52EC14
:1012A00001F0EF6AB3C0A6F09BDE26D0030EB45D5A
:1012B00013E1B2C0A5F001EE1CF0430EEE6E6C0E11
:1012C000EE6E6F0EEE6E630EEE6E6B0EEE6EEF6AEE
:1012D000B3C0A6F085DE10D0B2C0A5F001EE1CF0C0
:1012E000420EEE6E610EEE6E630EEE6E6B0EEE6EE5
:1012F000EF6AB3C0A6F074DE03D0B2C0A4F04DDE36
:10130000B12BD8A089D71E92E8DE010E275C0FE131
:10131000FF0EAF25056E066AFF0E0622065203E198
:101320000550AE5D03E20001AE2B1E8206D02728D9
:1013300004E1AE5302E0AE071E82FBDEFBDE010ECF
:10134000AC5D30E1020E9F6FE8DDAE5304E1C1D821
:10135000C35300E126D0010EAE5D0BE101EE3DF07E
:10136000030EF76E8C0EF66E52EC01F0EF6AE6DEBD
:1013700018D0020EAE5D0BE101EE3DF0030EF76EEC
:10138000940EF66E52EC01F0EF6AD8DE0AD0030E2E
:10139000AE5D04E16BD9CB5300E103D0010EAD6F1C
:1013A00009D01E829AEC05F0885303E0010EAD6F60
:1013B00001D004D71200B53102E3898001D08990B1
:1013C000B551E8A202D0898201D08992B551E8A432
:1013D00002D0898401D08994B551E8A602D08986CB
:1013E00001D089961200898E020EE82EFED70000E9
:1013F0000000899E280EEFEF00F0010EB65D04E1BB
:10140000B86B0A0EB76F0AD0020EB65D04E1B86B76
:101410001C0EB76F03D0B86B2E0EB76F1200C26BE5
:10142000C16B040EB95D02E3030EB96F020EBA5D23
:1014300002E3010EBA6F040EBB5D02E3030EBB6F45
:10144000040EBC5D02E3030EBC6F040EBD5D02E33F
:10145000030EBD6F040EBE5D02E3030EBE6FB951F5
:10146000C127000EC223BA51040DF3CF17F0F4CFF9
:1014700018F01750C1271850C223BB51080DF3CFE5
:1014800017F0F4CF18F01750C1271850C223BC51E1
:10149000200DF3CF17F0F4CF18F01750C1271850D4
:1014A000C223BD51800DF3CF17F0F4CF18F01750C1
:1014B000C1271850C223BEC018F0176AD89018363A
:1014C0001750C1271850C223C2C0C0F0C1C0BFF01E
:1014D00012000C0EC66FC46BC56BCA6B1E821EA2B7
:1014E00073D0010E9F6F8DEC07F000EEFBF0030E42
:1014F000F76E9C0EF66E52EC01F0EF6ADAEC07F034
:10150000020EC45D02E2C56B16D0FF0EC625056E45
:10151000066AFF0E062206520CE10550C45D09E37F
:10152000030EC65D04E3030EC65DC56F01D0C56B37
:1015300002D0C405C56F020EA46FCDEC07F0030EF8
:10154000A46FCDEC07F0040EA46FCDEC07F0020EF3
:10155000C76F050EC75D37E2FE0EC725176E186A06
:10156000FF0E1822C5511724C86FC651C85D25E269
:10157000C851C45D03E1010EC96F01D0C96B0B0EE8
:10158000C85D09E2C7C0E3F0C8C0E4F0C9C0E5F037
:1015900016EC0DF011D0C7C0A5F001EE1CF0420E04
:1015A000EE6E610EEE6E630EEE6E6B0EEE6EEF6A19
:1015B000C9C0A6F0F0EC07F004D0C7C0A4F0CDEC91
:1015C00007F0C72BC6E31E926DEC08F0CA5319E171
:1015D000010E275C0FE1FF0EC625056E066AFF0EA1
:1015E0000622065203E10550C45D03E20001C42B4C
:1015F0001E8206D0272804E1C45302E0C4071E82DD
:101600000FD0C4530DE127520BE0485203E1010E05
:10161000486E01D0486A010E9F6F8DEC07F01E8264
:1016200099EC08F09AEC08F0010EAC5D1DE1CA538C
:1016300016E1C45304E1010ECA6F1E820FD00B0ED7
:10164000C45D08E1020E9F6F8DEC07F0010EC36FC1
:101650000CD004D0020E9F6F8DEC07F005D0C45360
:1016600001E152D9CA6B1E823AD71200030ECD6F28
:10167000CC6BCF6BD0691E821EA276D000EEFBF041
:10168000030EF76EB20EF66E52EC01F0EF6ADAEC72
:1016900007F0020EA46FCDEC07F0030EA46FCDECA3
:1016A00007F0040EA46FCDEC07F0CC5303E1010E5C
:1016B000CE6F01D0CE6B800E016EC00E30EC00F00C
:1016C000030EF76EC80EF66E66EC00F0020EDE6FCB
:1016D0000B0EDF6F3CC0E1F03BC0E0F0CEC0E2F0AB
:1016E00067D9010ECC5D03E1010ECE6F01D0CE6B48
:1016F000800E016E940E30EC00F0030EF76ED40EE7
:10170000F66E66EC00F0030ED96F0B0EDA6F3EC07A
:10171000DCF03DC0DBF0CEC0DDF002D9020ECC5DC6
:1017200012E1040EA56F01EE1CF0420EEE6E610E8A
:10173000EE6E630EEE6E6B0EEE6EEF6A010EA66F2E
:10174000F0EC07F010D0040EA56F01EE1CF0420E75
:10175000EE6E610EEE6E630EEE6E6B0EEE6EEF6A67
:10176000A66BF0EC07F01E926DEC08F02752D8B48F
:101770004BD0CF5317E1010E275C0FE1FF0ECD25B3
:10178000056E066AFF0E0622065203E10550CC5D87
:1017900003E20001CC2B1E8204D0CC5302E0CC0724
:1017A0001E8232D0D05317E1010E275C09E1010EF1
:1017B0003C5C2C0ED8B43B5C02E23B4A3C2A09D08C
:1017C0003C5203E10B0E3B5C03E33B06000E3C5A2C
:1017D00000011E8219D0010ED05D16E1010E275CBA
:1017E00009E1070E3E5CD00ED8B43D5C02E23D4AF2
:1017F0003E2A09D03E5203E10B0E3D5C03E33D0659
:10180000000E3E5A00011E8299EC08F09AEC08F096
:10181000010EAC5D39E1020E9F6F8DEC07F0CF53E6
:1018200017E1020ECC5D04E1010ECB6F47D00FD063
:10183000010ECF6FCCC0D0F0CC5305E13CC0D2F04C
:101840003BC0D1F004D03EC0D2F03DC0D1F01CD09E
:10185000D0530CE1D46B3B0ED36FD66B0A0ED56F11
:10186000010ED86F2C0ED76F3CD80BD0D46B3D0E29
:10187000D36FD66B0A0ED56F070ED86FD00ED76F09
:1018800030D81DD8CF6BD0699AEC05F0885315E09D
:10189000010ECF5D0FE1D05305E1D2C03CF0D1C0C5
:1018A0003BF004D0D2C03EF0D1C03DF0CF6BD06948
:1018B0001E8203D0010ECB6F01D0DED61200976BD3
:1018C000C80E966F3CC099F03BC098F002EC06F051
:1018D000976BCA0E966F3EC099F03DC098F002EF2C
:1018E00006F0D551D35DD651D45904E2D6C0D4F018
:1018F000D5C0D3F0D351D75DD451D85904E2D8C064
:10190000D4F0D7C0D3F01200010EE96F0DEC10F047
:10191000020EE96F0DEC10F0030EE96F0DEF10F001
:10192000D9C0F4F0DAC0F5F0C6EC11F0010EDD5DBF
:1019300025E1800E016ED9C002F0DA5112EC00F000
:101940005B0E6EEC00F0800E016ED9C002F0DA2959
:1019500012EC00F0050E046EDCC010F0DBC00FF0DE
:101960003AEC00F0800E016ED9C002F0060EDA25C6
:1019700012EC00F05D0E6EEC00F019D0800E016EDE
:10198000D9C002F0DA5112EC00F0200E6EEC00F03B
:10199000800E016ED9C002F0DA2912EC00F0050EBB
:1019A000046EDCC010F0DBC00FF03AEC00F0120067
:1019B000DEC0F4F0DFC0F5F0C6EC11F0010EE25D20
:1019C00020E1800E016EDEC002F0DF5112EC00F06B
:1019D0005B0E6EEC00F0DEC0ECF0DF29ED6FE1C0D5
:1019E000EFF0E0C0EEF08BEC11F0800E016EDEC087
:1019F00002F0060EDF2512EC00F05D0E6EEC00F03A
:101A000014D0800E016EDEC002F0DF5112EC00F047
:101A1000200E6EEC00F0DEC0ECF0DF29ED6FE1C0CF
:101A2000EFF0E0C0EEF08BEC11F012000B0EE45D75
:101A300006E3E3C0A4F0CDEC07F00CEF10F00B0EC2
:101A4000E86FE3C0A4F0CDEC07F049C0E7F0010E69
:101A5000E66F040EE45D000ED8B0010E1D6E070E99
:101A6000E45D02E3000E01D0010E1D1604E0010E3C
:101A7000E75D01E0E66BE45339E1800E016EE3C0FF
:101A800002F0010E12EC00F0030EF76EE00EF66E9F
:101A900066EC00F0010E485C14E1E3C0F6F0E8C02B
:101AA000F7F001EE5EF0030EF76EEC0EF66E52EC00
:101AB00001F0EF6AE5C0F8F0010EF96FD3EC11F018
:101AC00013D0E3C0F6F0E8C0F7F001EE5EF0030ECD
:101AD000F76EF40EF66E52EC01F0EF6AE5C0F8F026
:101AE000010EF96FD3EC11F00CEF10F0010EE45D74
:101AF000D8A453D0800E016EE3C002F0010E12ECA8
:101B000000F0030EF76EFE0EF66E66EC00F0E75383
:101B100016E1E3C0F6F0E8C0F7F001EE5EF0460E25
:101B2000EE6E6C0EEE6E6F0EEE6E770EEE6EEF6A70
:101B3000E5C0F8F0010EF96FD3EC11F02CD0010ED6
:101B4000E75D14E1E3C0F6F0E8C0F7F001EE5EF007
:101B5000040EF76E0A0EF66E52EC01F0EF6AE5C065
:101B6000F8F0010EF96FD3EC11F015D0E3C0F6F0E8
:101B7000E8C0F7F001EE5EF0540EEE6E650EEE6E0C
:101B80006D0EEE6E700EEE6EEF6AE5C0F8F0010EAF
:101B9000F96FD3EC11F00CEF10F0020EE45D19E1D7
:101BA000800E016EE3C002F0010E12EC00F0040E94
:101BB000F76E140EF66E66EC00F0E3C0D9F0E8C0E4
:101BC000DAF04CC0DCF04BC0DBF0E5C0DDF0A8DEA5
:101BD00023D2030EE45D19E1800E016EE3C002F032
:101BE000010E12EC00F0040EF76E200EF66E66EC9D
:101BF00000F0E3C0D9F0E8C0DAF04EC0DCF04DC030
:101C0000DBF0E5C0DDF08CDE07D2040EE45D41E1DF
:101C1000800E016EE3C002F0010E12EC00F0040E23
:101C2000F76E2C0EF66E66EC00F0010EE75D0CE12F
:101C3000E3C0DEF0E8C0DFF050C0E1F04FC0E0F0FC
:101C4000E5C0E2F0B5DE24D0E3C0F4F0E8C0F5F082
:101C5000C6EC11F0800E016EE3C002F0E85112EC08
:101C600000F0200E6EEC00F0800E016EE3C002F07A
:101C7000E82912EC00F02D0E6EEC00F06EEC00F096
:101C80003A0E6EEC00F02D0E6EEC00F06EEC00F0F3
:101C9000C3D1050EE45D41E1800E016EE3C002F0A8
:101CA000010E12EC00F0040EF76E380EF66E66ECC4
:101CB00000F0010EE75D0CE1E3C0DEF0E8C0DFF00C
:101CC00052C0E1F051C0E0F0E5C0E2F071DE24D096
:101CD000E3C0F4F0E8C0F5F0C6EC11F0800E016E40
:101CE000E3C002F0E85112EC00F0200E6EEC00F0C0
:101CF000800E016EE3C002F0E82912EC00F02D0E18
:101D00006EEC00F06EEC00F03A0E6EEC00F02D0E72
:101D10006EEC00F06EEC00F07FD1060EE45D41E168
:101D2000800E016EE3C002F0010E12EC00F0040E12
:101D3000F76E440EF66E66EC00F0010EE75D0CE106
:101D4000E3C0DEF0E8C0DFF054C0E1F053C0E0F0E3
:101D5000E5C0E2F02DDE24D0E3C0F4F0E8C0F5F0F9
:101D6000C6EC11F0800E016EE3C002F0E85112ECF7
:101D700000F0200E6EEC00F0800E016EE3C002F069
:101D8000E82912EC00F02D0E6EEC00F06EEC00F085
:101D90003A0E6EEC00F02D0E6EEC00F06EEC00F0E2
:101DA0003BD1070EE45DD8A454D0800E016EE3C091
:101DB00002F0010E12EC00F0040EF76E500EF66EFB
:101DC00066EC00F0555212E1E3C0F6F0E8C0F7F01F
:101DD00001EE5EF04E0EEE6E6F0EEE6EEF6AE5C037
:101DE000F8F0010EF96FD3EC11F032D0010E555C12
:101DF00018E1E3C0F6F0E8C0F7F001EE5EF0500E37
:101E0000EE6E750EEE6E6C0EEE6E730EEE6E650E71
:101E1000EE6EEF6AE5C0F8F0010EF96FD3EC11F049
:101E200017D0E3C0F6F0E8C0F7F001EE5EF04C0E1C
:101E3000EE6E610EEE6E740EEE6E630EEE6E680E5A
:101E4000EE6EEF6AE5C0F8F0010EF96FD3EC11F019
:101E5000E3D0080EE45DD8A454D0800E016EE3C038
:101E600002F0010E12EC00F0040EF76E5C0EF66E3E
:101E700066EC00F0565212E1E3C0F6F0E8C0F7F06D
:101E800001EE5EF04E0EEE6E6F0EEE6EEF6AE5C086
:101E9000F8F0010EF96FD3EC11F032D0010E565C60
:101EA00018E1E3C0F6F0E8C0F7F001EE5EF0500E86
:101EB000EE6E750EEE6E6C0EEE6E730EEE6E650EC1
:101EC000EE6EEF6AE5C0F8F0010EF96FD3EC11F099
:101ED00017D0E3C0F6F0E8C0F7F001EE5EF04C0E6C
:101EE000EE6E610EEE6E740EEE6E630EEE6E680EAA
:101EF000EE6EEF6AE5C0F8F0010EF96FD3EC11F069
:101F00008BD0090EE45DD8A451D0800E016EE3C0E1
:101F100002F0010E12EC00F0040EF76E680EF66E81
:101F200066EC00F0575211E1E3C0F6F0E8C0F7F0BC
:101F300001EE5EF04E0EEE6E6F0EEE6EEF6AE5C0D5
:101F4000F8F0010EF96F2FDA30D0010E575C17E16F
:101F5000E3C0F6F0E8C0F7F001EE5EF0500EEE6E72
:101F6000750EEE6E6C0EEE6E730EEE6E650EEE6E10
:101F7000EF6AE5C0F8F0010EF96F15DA16D0E3C08C
:101F8000F6F0E8C0F7F001EE5EF04C0EEE6E610E7A
:101F9000EE6E740EEE6E630EEE6E680EEE6EEF6A0F
:101FA000E5C0F8F0010EF96FFED936D00A0EE45DF7
:101FB00033E1800E016EE3C002F0010E12EC00F07E
:101FC000040EF76E740EF66E66EC00F0010E585CAF
:101FD00013E1E3C0F6F0E8C0F7F001EE5EF0590E51
:101FE000EE6E650EEE6E730EEE6EEF6AE5C0F8F003
:101FF000010EF96FD8D910D0E3C0F6F0E8C0F7F0C1
:1020000001EE5EF04E0EEE6E6F0EEE6EEF6AE5C004
:10201000F8F0010EF96FC7D91200E9C0B6F0FDEC77
:1020200009F0B8C0EBF0B7C0EAF0010EE95DD8A442
:102030007AD0EBC0AAFFEAC0A9FF4850CBEC00F071
:10204000010EEA25A96E000EEB21AA6E4950CBECD9
:1020500000F0020EEA25A96E000EEB21AA6E4A508E
:10206000CBEC00F0040EEA25966F000EEB21976F83
:102070004CC099F04BC098F002EC06F0060EEA2531
:10208000966F000EEB21976F4EC099F04DC098F0FF
:1020900002EC06F0080EEA25966F000EEB21976F12
:1020A00050C099F04FC098F002EC06F00A0EEA25F5
:1020B000966F000EEB21976F52C099F051C098F0C7
:1020C00002EC06F00C0EEA25966F000EEB21976FDE
:1020D00054C099F053C098F002EC06F00E0EEA25B9
:1020E000A96E000EEB21AA6E5550CBEC00F00F0E3E
:1020F000EA25A96E000EEB21AA6E5650CBEC00F03B
:10210000100EEA25A96E000EEB21AA6E5750CBECFB
:1021100000F0110EEA25A96E000EEB21AA6E5850B0
:10212000CBEC00F0F7D0020EE95DD8A47AD0EBC07A
:10213000AAFFEAC0A9FF5950CBEC00F0010EEA2536
:10214000A96E000EEB21AA6E5A50CBEC00F0020EE5
:10215000EA25A96E000EEB21AA6E5B50CBEC00F0D5
:10216000040EEA25966F000EEB21976F5DC099F083
:102170005CC098F002EC06F0060EEA25966F000EA1
:10218000EB21976F5FC099F05EC098F002EC06F00B
:10219000080EEA25966F000EEB21976F61C099F04B
:1021A00060C098F002EC06F00A0EEA25966F000E69
:1021B000EB21976F63C099F062C098F002EC06F0D3
:1021C0000C0EEA25966F000EEB21976F65C099F013
:1021D00064C098F002EC06F00E0EEA25A96E000E1F
:1021E000EB21AA6E6650CBEC00F00F0EEA25A96E2B
:1021F000000EEB21AA6E6750CBEC00F0100EEA2522
:10220000A96E000EEB21AA6E6850CBEC00F0110E07
:10221000EA25A96E000EEB21AA6E6950CBEC00F006
:1022200079D0EBC0AAFFEAC0A9FF6A50CBEC00F05E
:10223000010EEA25A96E000EEB21AA6E6B50CBECC5
:1022400000F0020EEA25A96E000EEB21AA6E6C507A
:10225000CBEC00F0040EEA25966F000EEB21976F91
:102260006EC099F06DC098F002EC06F0060EEA25FB
:10227000966F000EEB21976F70C099F06FC098F0C9
:1022800002EC06F0080EEA25966F000EEB21976F20
:1022900072C099F071C098F002EC06F00A0EEA25BF
:1022A000966F000EEB21976F74C099F073C098F091
:1022B00002EC06F00C0EEA25966F000EEB21976FEC
:1022C00076C099F075C098F002EC06F00E0EEA2583
:1022D000A96E000EEB21AA6E7750CBEC00F00F0E2A
:1022E000EA25A96E000EEB21AA6E7850CBEC00F027
:1022F000100EEA25A96E000EEB21AA6E7950CBECE8
:1023000000F0110EEA25A96E000EEB21AA6E7A509C
:10231000CBEC00F01200EFC00AF0EEC009F00E6A3C
:102320003C0E0D6EFAEC00F0F06F0AC0F1F0EFC059
:102330000AF0EEC009F00E6A3C0E0D6EFAEC00F0E9
:1023400010C0F3F00FC0F2F0800E016EECC002F08E
:10235000ED5112EC00F0020E046EF1C010F0F0C06E
:102360000FF03AEC00F03A0E6EEC00F0800E016EC9
:10237000ECC002F0030EED2512EC00F0020E046E2C
:10238000F3C010F0F2C00FF03AEF00F0800E016ED3
:10239000F4C002F0F55112EC00F0040EF76E800E5E
:1023A000F66E66EF00F0F6C0F4F0F7C0F5F0EEDF81
:1023B000010EF85D010ED8A4000E1D6E010EF95D30
:1023C000010ED8A4000E1D1631E001EE5EF0000EE5
:1023D000EE5202E0E83EFCD7FA6F800E016EF6C0C6
:1023E00002F0F75112EC00F05B0E6EEC00F0800E84
:1023F000016EF6C002F0F72912EC00F001EE5EF07B
:10240000EE5003E06EEC00F0FBD7800E016EF6C0DC
:1024100002F0186AF729176ED8B4182AFA5117244F
:1024200012EC00F05D0E6EEC00F018D0800E016E24
:10243000F6C002F0F75112EC00F0200E6EEC00F046
:10244000800E016EF6C002F0F72912EC00F001EEEA
:0E2450005EF0EE5003E06EEC00F0FBD71200E1
:020000040030CA
:03000100081F1EB7
:020005008181F7
:060008000FC00FE00F40E5
:00000001FF
