:020000040000FA
:100000000000000073EF02F08DEF02F0800E016E31
:10001000FE0EBDD8010EBBD8750E0A6E300EE0D0B4
:10002000016A018E126E1252D8A41206FE0EAFD8CB
:10003000025202E0022C02D0800E0ED00250020AC0
:1000400002E1C00E09D00250030A02E1940E04D06E
:100050000250040A02E1D40E026E1250022497D01C
:10006000016A018E126EFE0E92D8125090D0046A70
:100070000D6E0E6A00960450D8B40086050E036E0D
:10008000270E0C6E100E0CD8030E0C6EE80E08D85E
:100090000C6A640E05D80C6A0A0E02D80D5007D0FF
:1000A0000B6E0E500A6E0D50096EA4D80950096EE1
:1000B000034E0096045002E0035C07E20950D8A406
:1000C000009600B602D0300F62D01200A66AA68E4B
:1000D0000900F55002E002D8FBD71200106E899E8D
:1000E000899C929E929CF00E9216105000B21ED0E7
:1000F0003A0E0A6E980E74D8330E0F6E29D8130E6E
:100100000A6E880E6DD824D8640E69D821D8640E82
:1001100066D8220E0F6E1CD8280E07D80C0E05D8F4
:10012000060E03D80082105001D000800F6E00A090
:1001300009D0899C03080AE309D8070E0A6ED00E7D
:100140004FD812000080FE0814E0898C0F3A00A0FE
:100150000090898EF00E80160F500F0B8012000059
:1001600000D0899E0F3A000000D000B0F1D7320EC7
:1001700036D810501200A66AA68E0900F55002E08B
:1001800002D8FBD712009EA8FED7AD6E120001BEAA
:10019000A5D701B4F8D7A86EA66AA684550EA76E97
:1001A000AA0EA76EA682A6B2FED7A694A94AAA2A2C
:1001B000A68E1200A96EA66AA680A850A94AAA2AED
:1001C000A68E12000C6A0B6EFF0E0B260C2200D0BE
:1001D000D8A01200030E0A6EE60E02D8F5D70A6AFE
:1001E000FD0F096E01D00906000000D0E86A0A5A26
:1001F000FAE212000E6A0D6A100EF36E0A340D3622
:100200000E360B500D5C0C500E5805E30B500D5E76
:100210000C500E5AD88009360A36F32EEFD7095003
:100220001200A66AA68E0900F55002E0EE6EFBD71A
:10023000120053746172747570206F6B0000505F10
:1002400042656570732832290000456E642053743E
:1002500061727475700049525249535953204D418F
:10026000494E202020202020202000004F505449BB
:100270004F4E5320202020202020202020202020EE
:1002800000004D61696E204D656E75005365747593
:1002900070204D656E7500005574696C6974792025
:1002A0004D656E7500005554494C49545900505FD6
:1002B0004265657073280000202020202020202027
:1002C0002020202020202020202020200000202866
:1002D00053545542292020202020200053455455B6
:1002E00050202020202020202020202020202020DE
:1002F0000000496E707574203100496E707574206D
:100300003200496E707574203300494E50555420A8
:100310003200494E505554203300494E5055542018
:1003200031202020202020202020202020200000FC
:10033000434C4F434B2020202020202020202020F1
:1003400020202020000054696D656F7574202020E6
:10035000000050756C73652020202020000045446B
:1003600049543A20574F52442056414C554520207D
:1003700020002056616C75653A205B005D202020CE
:10038000202020202000454449543A204455524121
:1003900054494F4E202020202000202020202020C3
:1003A00020202000456E61626C6520202020000026
:1003B000456E61626C65640044697361626C65647A
:1003C000000053656E736F72202020200000507271
:1003D00065737375726500005363616C65346D619C
:1003E000202000005363616C6532306D6120000095
:1003F000486967682042502020200000504C50423D
:100400005020202020200000534C5042502020201B
:1004100020200000526C7920486967682020000085
:10042000526C7920504C502020200000526C7920D2
:10043000534C502020200000446973706C61792077
:1004400020200000454449543A205945532F4E4F2F
:1004500020202020202020002059657320205B4E82
:100460006F5D2020202020202020202000005B59CC
:1004700065735D20204E6F2020202020202020202A
:1004800020200000454449543A204D4F4445202047
:1004900020202020202020005B4E6F5D2020507502
:1004A0006C736520204C6174636820202000204E0E
:1004B0006F20205B50756C73655D204C61746368C0
:1004C00020202000204E6F20202050756C73652066
:1004D0005B4C617463685D20200020202020202078
:1004E000202020200000006A100EAF6E240EAC6E9B
:1004F000900EAB6E00010F0EC16E070EB46E700E43
:10050000D36E9B8C0F0EC16EF19EC40ED56E060E7F
:10051000D66EF294F28AF28E22D1000113C07FF1DE
:1005200014C080F1F4CF81F1F3CF82F1F2A40ED1A7
:10053000060ED66EF294172A000E182219221A22DD
:10054000232A0A0E235CD8A0F6D0736A81B2732ADC
:10055000746A81B4742A756A81BC752A7350245CEC
:1005600010E0272A020E275C0BE373C024F0276AF1
:1005700017C01BF018C01CF019C01DF01AC01EF0E7
:1005800001D0276A7450255C10E0282A020E285CEE
:100590000BE374C025F0286A17C01BF018C01CF0CC
:1005A00019C01DF01AC01EF001D0286A7550265CD3
:1005B00010E0292A020E295C0BE375C026F0296A97
:1005C00017C01BF018C01CF019C01DF01AC01EF097
:1005D00001D0296A2450020DF3CF13F0F4CF14F0A8
:1005E00025501324766E2A50040DF3CF13F0F4CF68
:1005F00014F076501324776E010E775C09E0070E35
:10060000775C06E00E0E775C03E0080E775C02E193
:100610002B060DD0020E775C09E00B0E775C06E02E
:100620000D0E775C03E0040E775C01E12B2A765215
:1006300025E12BBE0ED0020E2B5C0BE32E4A2F2A97
:1006400017C01BF018C01CF019C01DF01AC01EF016
:1006500014D02B50800A7E0810E32E5202E12F5254
:1006600003E02E06000E2F5A000117C01BF018C021
:100670001CF019C01DF01AC01EF02B6A76C02AF0BB
:1006800026523BE1FF0E2D5C04E307E1F60E2C5CE5
:1006900004E20A0E2C26000E2D220001070E2D5C0E
:1006A00015E303E1080E2C5C11E3385200010DE163
:1006B000030E206E010E386E376E17C01BF018C087
:1006C0001CF019C01DF01AC01EF016D0030E2D5CD0
:1006D00013E303E1840E2C5C0FE3375200010CE1BD
:1006E000020E206E010E376E17C01BF018C01CF0F2
:1006F00019C01DF01AC01EF01DD02C5202E12D525F
:1007000019E03752000112E1385210E12D5203E195
:10071000C80E2C5C0AE3010E206E17C01BF018C037
:100720001CF019C01DF01AC01EF000012D6A2C6AC1
:10073000376A386A236A215202E1225206E0828433
:100740002106000E225A000101D082947FC113F0CD
:1007500080C114F081C1F4FF82C1F3FF11005CD8A5
:1007600026D8E2EC05F05ED89AD816821690169438
:10077000206A1E6A1D6A1C6A1B6A396A030E415C84
:1007800002E3010E416E6CD8020EF76E320EF66E69
:10079000BBEC00F00D0EC3EC00F0C80EE2EC00F074
:1007A000396AF8D82FD979C032F0FAD7FFD7100EAE
:1007B000926E460E936E946A896A8A6A8B6A899CE5
:1007C000899E320EE2EC00F0809C030E7C6E04DA0F
:1007D000050EE2EC00F0030E7C6EFED9960EEFECF7
:1007E00000F0030E7C6EF8D9960EEFEC00F0020ECE
:1007F0007C6EF2D9960EEFEC00F0280E7D6EF2D9E9
:10080000080E7D6EEFD9010E7D6EECD9060E7D6E61
:10081000E9D90C0E7D6EE6D1100E926E460E936EE7
:10082000946A1200246A81B2242A256A81B4252A96
:10083000266A81BC262A2450020DF3CF13F0F4CF90
:1008400014F0255013242A6E276A286A296A236A1D
:100850002B6A2F6A2E6A316A306A2D6A2C6A12005E
:10086000786A060E785C12E2020EF76E3E0EF66EA5
:10087000BBEC00F00D0EC3EC00F0020E8E6FA7EC87
:1008800007F0640EE2EC00F0782AEBE3020EF76E5C
:100890004A0EF66EBBEC00F00D0EC3EF00F03EEC1E
:1008A00008F0010E806F2C0E7F6EBBD982C03BF02A
:1008B00081C03AF0010E806F2E0E7F6EB2D982C0D9
:1008C0003DF081C03CF0010E806F300E7F6EA9D9E3
:1008D00082C03FF081C03EF0010E8B6FC9D9020E7D
:1008E0008B6FC6D9030E8B6FC3D9806BC80E7F6E1A
:1008F00098D982C034F081C033F0345203E10A0E3B
:10090000335C02E3000E01D0010E156E010E345C63
:10091000000104E305E12D0E335C02E2000E01D07C
:10092000010E151200010BE0346A1E0E336E866B49
:10093000C80E856F34C088F033C087F07DD9806BD6
:10094000CA0E7F6E6ED982C036F081C035F0365245
:1009500003E10A0E355C02E3000E01D0010E156EB4
:10096000070E365C000104E305E1D10E355C02E2BE
:10097000000E01D0010E151200010BE0366A320E96
:10098000356E866BCA0E856F36C088F035C087F02D
:1009900053D91200169000EEFBF0020EF76E560EC1
:1009A000F66E11EC01F0EF6AF4EC07F0020E936FB3
:1009B000E7EC07F0030E936FE7EC07F0040E936F7C
:1009C000E7EC07F01682B3EC08F0B4EC08F0010E87
:1009D0009B5D06E1020E8E6FA7EC07F012D010D0DF
:1009E000020E9B5D06E1030E8E6FA7EC07F009D0A7
:1009F00007D0030E9B5D04E1030E8E6FA7EC07F09A
:100A0000E2D71200030E7B6E7A6A1690168216A247
:100A10007ED0010E8E6FA7EC07F000EEFBF0020E09
:100A2000F76E6C0EF66E11EC01F0EF6AF4EC07F065
:100A3000020E936FE7EC07F0030E936FE7EC07F0FD
:100A4000040E936FE7EC07F07A5210E1020E946FF8
:100A500001EE1CF0020EF76E820EF66E11EC01F044
:100A6000EF6A010E956F0AEC08F00ED0020E946F3B
:100A700001EE1CF0020EF76E820EF66E11EC01F024
:100A8000EF6A956B0AEC08F0010E7A5C10E1030E38
:100A9000946F01EE1CF0020EF76E8C0EF66E11ECE8
:100AA00001F0EF6A010E956F0AEC08F00ED0030E0C
:100AB000946F01EE1CF0020EF76E8C0EF66E11ECC8
:100AC00001F0EF6A956B0AEC08F0020E7A5C10E117
:100AD000040E946F01EE1CF0020EF76E980EF66E87
:100AE00011EC01F0EF6A010E956F0AEC08F00ED0E0
:100AF000040E946F01EE1CF0020EF76E980EF66E67
:100B000011EC01F0EF6A956B0AEC08F0169287EC95
:100B100008F0010E1F5C0FE1FF0E7B24056E066AD4
:100B2000FF0E0622065203E105507A5C02E27A2AA1
:100B30001682000106D01F2804E17A5202E07A06EC
:100B40001682B3EC08F0B4EC08F0010E9B5D26E1D0
:100B5000020E8E6FFCD97A5204E1010E796E31D00B
:100B60001BD0010E7A5C0AE1F2EC08F09C5305E11F
:100B7000020E395C02E1796A24D00ED0020E7A5C52
:100B80000BE101EE3DF0020EF76EA60EF66E11ECD3
:100B900001F0EF6AB8EC08F0168212D0020E9B5DED
:100BA00007E1030E8E6FD3D9010E796E0AD008D0FB
:100BB000030E9B5D05E1030E8E6FC9D9796A01D0E2
:100BC00026D71200906B050E8F6FF1D906EC00F05E
:100BD000906B020E8F6FEBD17CC0A4F0FFEC09F09C
:100BE00017EF0AF0809C7D380F0B7E6E7EC07CF084
:100BF000F3DF0F0E7D147E6E7EC07CF0EDDF010E04
:100C00007D5C04E1020EE2EC00F00AD0020E7D5C95
:100C100004E1020EE2EC00F003D0320EEFEC00F043
:100C2000120080C0AAFF7FC0A9FFDBEC00F0816F3B
:100C3000DBEC00F0826F120086C0AAFF85C0A9FF1E
:100C4000DBEC00F0896FDBEC00F08A6F88518A5D85
:100C500003E18751895D0BE086C0AAFF85C0A9FF2B
:100C600000018751CBEC00F08851CBEC00F0120072
:100C70008BC0A5F021EC0AF0A7C08DF0A6C08CF0C7
:100C8000010E8B5DD8A475D08DC0AAFF8CC0A9FFC2
:100C9000DBEC00F0406E010E8C25A96E000E8D215C
:100CA000AA6EDBEC00F0416E020E8C25A96E000EE0
:100CB0008D21AA6EDBEC00F0426E040E8C257F6E57
:100CC000000E8D21806FADDF82C044F081C043F003
:100CD000060E8C257F6E000E8D21806FA2DF82C0F4
:100CE00046F081C045F0080E8C257F6E000E8D21E8
:100CF000806F97DF82C048F081C047F00A0E8C25D4
:100D00007F6E000E8D21806F8CDF82C04AF081C023
:100D100049F00C0E8C257F6E000E8D21806F81DFD7
:100D200082C04CF081C04BF00E0E8C25A96E000ED7
:100D30008D21AA6EDBEC00F04D6E0F0E8C25A96E96
:100D4000000E8D21AA6EDBEC00F04E6E100E8C258D
:100D5000A96E000E8D21AA6EDBEC00F04F6E110E15
:100D60008C25A96E000E8D21AA6EDBEC00F0506E72
:100D7000EDD0020E8B5DD8A475D08DC0AAFF8CC0BB
:100D8000A9FFDBEC00F0516E010E8C25A96E000E60
:100D90008D21AA6EDBEC00F0526E020E8C25A96E3E
:100DA000000E8D21AA6EDBEC00F0536E040E8C2534
:100DB0007F6E000E8D21806F34DF82C055F081C0C0
:100DC00054F0060E8C257F6E000E8D21806F29DF7A
:100DD00082C057F081C056F0080E8C257F6E000E41
:100DE0008D21806F1EDF82C059F081C058F00A0E3D
:100DF0008C257F6E000E8D21806F13DF82C05BF02B
:100E000081C05AF00C0E8C257F6E000E8D21806FF4
:100E100008DF82C05DF081C05CF00E0E8C25A96EEB
:100E2000000E8D21AA6EDBEC00F05E6E0F0E8C259D
:100E3000A96E000E8D21AA6EDBEC00F05F6E100E25
:100E40008C25A96E000E8D21AA6EDBEC00F0606E81
:100E5000110E8C25A96E000E8D21AA6EDBEC00F020
:100E6000616E74D08DC0AAFF8CC0A9FFDBEC00F0CE
:100E7000626E010E8C25A96E000E8D21AA6EDBEC30
:100E800000F0636E020E8C25A96E000E8D21AA6EF5
:100E9000DBEC00F0646E040E8C257F6E000E8D215D
:100EA000806FBFDE82C066F081C065F0060E8C25C3
:100EB0007F6E000E8D21806FB4DE82C068F081C02D
:100EC00067F0080E8C257F6E000E8D21806FA9DEE5
:100ED00082C06AF081C069F00A0E8C257F6E000E18
:100EE0008D21806F9EDE82C06CF081C06BF00C0E95
:100EF0008C257F6E000E8D21806F93DE82C06EF098
:100F000081C06DF00E0E8C25A96E000E8D21AA6E8B
:100F1000DBEC00F06F6E0F0E8C25A96E000E8D219C
:100F2000AA6EDBEC00F0706E100E8C25A96E000E20
:100F30008D21AA6EDBEC00F0716E110E8C25A96E6E
:100F4000000E8D21AA6EDBEC00F0726E1200020E14
:100F5000F76EAE0EF66EBBEC00F0040E016E030EE3
:100F6000046E8E5138EC00F0290EC3EC00F00D0E2B
:100F7000C3EC00F0010E8E5D04E1226A140E216EB6
:100F800015D0020E8E5D04E1226A320E216E0ED063
:100F9000030E8E5D04E1226AC80E216E07D0040E96
:100FA0008E5D04E1030E226EE80E216E1200926B3C
:100FB000010E916F91518F5D9251905907E3010E8F
:100FC000E2EC00F0912B000E9223F4E31200800E6D
:100FD000016E93C002F0010E12EC00F0020EF76EEB
:100FE000B80EF66E66EF00F0800E016E30EC00F089
:100FF000020EF76EB80EF66E66EC00F0800E016E13
:1010000030EC00F000EEFBF0EE5003E06EEC00F090
:10101000FBD71200800E016E94C002F0010E12EC9C
:1010200000F0020EF76EB80EF66E66EC00F0010EE0
:10103000955D15E1800E016E94C002F0010E12EC78
:1010400000F05B0E6EEC00F001EE1CF0EE5003E0E1
:101050006EEC00F0FBD75D0E6EEC00F00ED0800E53
:10106000016E94C002F0020E12EC00F001EE1CF0D2
:10107000EE5003E06EEC00F0FBD71200AA6AA96AFA
:10108000DBEC00F0966F010E965D40E0A86B010E60
:10109000A96FAA6BAB6BAC6B020EAD6FE4D9AFC09E
:1010A00098F0AEC097F0010E866F2C0E856F98C039
:1010B00088F097C087F01CEC06F0010E866F2E0EAC
:1010C000856F98C088F097C087F01CEC06F0010E81
:1010D000866F300E856F98C088F097C087F01CEC43
:1010E00006F0866BC80E856F886B1E0E876F1CEC32
:1010F00006F0866BCA0E856F886B320E876F1CEC0C
:1011000006F0AA6AA96A010ECBEC00F01200F29E6A
:101110002FC09AF02EC099F0F28E9951305C9A51FE
:1011200031580BE2010E1F6E17C01BF018C01CF0E7
:1011300019C01DF01AC01EF011D03050995D315009
:101140009A590BE2FF0E1F6E17C01BF018C01CF05F
:1011500019C01DF01AC01EF001D01F6A9AC031F0EC
:1011600099C030F01200120020C09BF0206A1200DB
:10117000169000EEFBF011EE3DF0200EE75204E079
:10118000E6CFEEFFE82EFAD7020EF76ECE0EF66E21
:1011900011EC01F0EF6A28DF020E936F18DF030EE7
:1011A000936F15DF040E936F12DFDDDFDDDF010EBD
:1011B0009B5D05E1020E8E6FCADE13D011D0020EC8
:1011C0009B5D05E1030E8E6FC2DE0BD009D0030ECE
:1011D0009B5D06E1030E8E6FBADE020E396E01D002
:1011E000E4D71200040E9E6F9D6B9F6B16901682C3
:1011F00016A290D0010E8E6FAADE9DC09FF0040E45
:101200009E5D0FE3FD0E9E25056E066AFF0E06220B
:10121000065206E19F51055C03E2030E9E5D9F6F3F
:1012200001D09F6B00EEFBF0020EF76EDC0EF66E47
:1012300011EC01F0EF6AD8DE020E936FC8DE030EE8
:10124000936FC5DE040E936FC2DEA06B030EA05D2C
:10125000D8B05FD0020EA025A16FA0519F25A36F2B
:101260009E51A35DD8B04FD0A3519D5D03E1010E07
:10127000A26F01D0A26BA3530FE1A1C094F001EEC5
:101280001CF0020EF76EF20EF66E11EC01F0EF6A32
:10129000A2C095F0BFDE36D0010EA35D0FE1A1C064
:1012A00094F001EE1CF0020EF76EFA0EF66E11ECE1
:1012B00001F0EF6AA2C095F0ADDE24D0020EA35D6E
:1012C0000FE1A1C094F001EE1CF0030EF76E020EC8
:1012D000F66E11EC01F0EF6AA2C095F09BDE12D021
:1012E000A1C094F001EE1CF0430EEE6E6C0EEE6E9B
:1012F0006F0EEE6E630EEE6E6B0EEE6EEF6AA2C0B8
:1013000095F088DE03D0A1C093F061DEA02BD8A0B9
:101310009DD71692FCDE010E1F5C0FE1FF0E9E258D
:10132000056E066AFF0E0622065203E105509D5D1A
:1013300003E200019D2B168206D01F2804E19D5375
:1013400002E09D0716820FDF0FDF010E9B5DD8A420
:101350003ED0020E8E6FFBDD9D5309E1DED8B25305
:1013600005E1020E395C02E19C6B48D02ED0010EE3
:101370009D5D10E101EE3DF0030EF76E0A0EF66E74
:1013800011EC01F0EF6AF4DE020E395C02E19C6BB5
:1013900035D01BD0020E9D5D10E101EE3DF0030E35
:1013A000F76E120EF66E11EC01F0EF6AE1DE020E3E
:1013B000395C02E19C6B22D008D067D9B75305E1B4
:1013C000020E395C02E19C6B19D0168216D0020E17
:1013D0009B5D08E1030E8E6FA7EC07F0010E9C6F7A
:1013E0000DD00BD0030E9B5D08E1030E8E6FA7ECB2
:1013F00007F0020E396E9C6B01D0FAD61200A431B0
:1014000002E3898001D08990A451E8A202D08982A8
:1014100001D08992A451E8A402D0898401D0899492
:10142000A451E8A602D0898601D089961200898E3F
:10143000020EE82EFED700000000899E280EEFEF76
:1014400000F0010EA55D04E1A76B0A0EA66F0AD09D
:10145000020EA55D04E1A76B1C0EA66F03D0A76B5F
:101460002E0EA66F1200B16BB06B040EA85D02E3E6
:10147000030EA86F020EA95D02E3010EA96F040E10
:10148000AA5D02E3030EAA6F040EAB5D02E3030E36
:10149000AB6F040EAC5D02E3030EAC6F040EAD5DEA
:1014A00002E3030EAD6FA851B027000EB123A9517E
:1014B000040DF3CF13F0F4CF14F01350B0271450F1
:1014C000B123AA51080DF3CF13F0F4CF14F0135049
:1014D000B0271450B123AB51200DF3CF13F0F4CF4C
:1014E00014F01350B0271450B123AC51800DF3CF3A
:1014F00013F0F4CF14F01350B0271450B123ADC043
:1015000014F0136AD89014361350B0271450B12336
:10151000B1C0AFF0B0C0AEF012000B0EB56FB36B40
:10152000B46B168216A26DD000EEFBF0030EF76EC0
:101530001A0EF66E11EC01F0EF6AF4EC07F0020EF1
:10154000936FE7EC07F0030E936FE7EC07F0040EE0
:10155000936FE7EC07F0020EB35D02E2B46B16D0B6
:10156000FF0EB525056E066AFF0E062206520CE137
:101570000550B35D09E3030EB55D04E3030EB55DED
:10158000B46F01D0B46B02D0B305B46FB66BB35176
:10159000B45D02E1010EB66F020EDC6FB4C0DDF087
:1015A000B6C0DEF01EEC0EF0B66B066AB429056E0E
:1015B000D8B4062A065205E10550B35D02E1010EDA
:1015C000B66F030EDC6FB429DD6FB6C0DEF01EEC23
:1015D0000EF0B66B066A020EB425056ED8B0062A68
:1015E000065205E10550B35D02E1010EB66F040E2F
:1015F000DC6F020EB425DD6FB6C0DEF01EEC0EF01F
:10160000169287EC08F01F5217E0010E1F5C0EE1E6
:10161000FF0EB525056E066AFF0E0622065203E18F
:101620000550B35D02E20001B32B05D01F2803E192
:10163000B35301E0B3071682B3EC08F0B4EC08F042
:10164000010E9B5D0AE1020E8E6FA7EC07F0B3C09E
:10165000E2F015EC11F0168216D0020E9B5D08E147
:10166000030E8E6FA7EC07F0010EB26F0DD00BD0FA
:10167000030E9B5D08E1030E8E6FA7EC07F0020ED0
:10168000396EB26B01D04ED71200020EB96FB86B33
:10169000168216A252D000EEFBF0030EF76E300E4B
:1016A000F66E11EC01F0EF6AF4EC07F0020E936FA6
:1016B000E7EC07F0030E936FE7EC07F0040E936F6F
:1016C000E7EC07F0B85303E1010EBA6F01D0BA6B33
:1016D000800E016EC00E30EC00F0030EF76E460E69
:1016E000F66E66EC00F0020ED76F0B0ED86F34C0AA
:1016F000DAF033C0D9F0BAC0DBF0E0EC0DF0010E47
:10170000B85D03E1010EBA6F01D0BA6B800E016EB5
:10171000940E30EC00F0030EF76E520EF66E66EC8F
:1017200000F0030ED26F0B0ED36F36C0D5F035C06C
:10173000D4F0BAC0D6F0FCD9169287EC08F0010EAE
:101740001F5C0FE1FF0EB925056E066AFF0E06222B
:10175000065203E10550B85D03E20001B82B168282
:1017600006D01F2804E1B85302E0B8071682B3EC94
:1017700008F0B4EC08F0010E9B5D2EE1020E8E6FB6
:10178000A7EC07F0B85314E1CD6B330ECC6FFBD848
:10179000010ECE5D0CE1BC6B330EBB6FBE6B0A0E4F
:1017A000BD6F010EC06F2C0EBF6F40D82DD812D068
:1017B000C26B350EC16FC46B0A0EC36F070EC66FC6
:1017C000D00EC56FC86B050EC76F43D8010EC95D3B
:1017D00001E11AD8168216D0020E9B5D08E1030EB5
:1017E0008E6FA7EC07F0010EB76F0DD00BD0030E74
:1017F0009B5D08E1030E8E6FA7EC07F0020E396EB9
:10180000B76B01D046D71200866BC80E856F34C007
:1018100088F033C087F01CEC06F0866BCA0E856F2B
:1018200036C088F035C087F01CEF06F0BD51BB5DB7
:10183000BE51BC5904E2BEC0BCF0BDC0BBF0BB5140
:10184000BF5DBC51C05904E2C0C0BCF0BFC0BBF01A
:101850001200C2C0CBF0C1C0CAF0168216A231D0AD
:1018600000EEFBF0030EF76E5E0EF66E11EC01F06B
:10187000EF6AF4EC07F0020E936FE7EC07F0030E4B
:10188000936FE7EC07F0040E936FE7EC07F0800E20
:10189000016E940E30EC00F0030EF76E720EF66ED1
:1018A00066EC00F0050E046ECBC00EF0CAC00DF061
:1018B0003AEC00F0030EF76E7C0EF66E66EC00F06C
:1018C000169287EC08F0010E1F5C11E1C751CA2582
:1018D000056EC851CB21066E0550C55D0650C65930
:1018E00004E3C751CA27C851CB23168224D01F282E
:1018F00022E1C751C325056EC851C421066E000EF2
:10190000076A0722086A085211E107500FE10650E2
:10191000CB5D0CE303E10550CA5D08E30001C7514C
:10192000CA5DCA6FC851CB59CB6F04D0C4C0CBF0CD
:10193000C3C0CAF01682B3EC08F0B4EC08F0010E94
:101940009B5D0CE1020E8E6FA7EC07F0CBC0C2F0DE
:10195000CAC0C1F0010EC96F15D013D0020E9B5D35
:1019600007E1030E8E6FA7EC07F0C96B0BD009D00F
:10197000030E9B5D06E1030E8E6FA7EC07F0C96BAB
:1019800001D06CD71200CDC00AF0CCC009F00C6AAF
:101990003C0E0B6EFAEC00F0CF6FCDC00AF0CCC05D
:1019A00009F00C6A3C0E0B6EFAEC00F00DC0D0F0A2
:1019B000D16B168216A268D000EEFBF0030EF76E14
:1019C000860EF66E11EC01F0EF6AF4EC07F0020EF1
:1019D000936FE7EC07F0030E936FE7EC07F0040E4C
:1019E000936FE7EC07F0D15328E1800E016E940E5F
:1019F00030EC00F0200E6EEC00F05B0E6EEC00F0B0
:101A0000020E046ECF5138EC00F05D0E6EEC00F06B
:101A1000200E6EEC00F03A0E6EEC00F0200E6EEC34
:101A200000F0020E046ED05138EC00F0030EF76E99
:101A30009A0EF66E66EC00F026D0800E016E940EC3
:101A400030EC00F0200E6EEC00F06EEC00F0020EB8
:101A5000046ECF5138EC00F0200E6EEC00F03A0E20
:101A60006EEC00F0200E6EEC00F05B0E6EEC00F001
:101A7000020E046ED05138EC00F0030EF76E7C0EAF
:101A8000F66E66EC00F0169287EC08F0010E1F5C13
:101A90000DE1D15305E1630ECF5D01E2CF2B04D000
:101AA0003B0ED05D01E2D02B16820CD01F280AE13C
:101AB000D15304E1CF5301E0CF0703D0D05301E06D
:101AC000D0071682B3EC08F0B4EC08F0010E9B5D71
:101AD0001AE1020E8E6FA7EC07F0D15304E1010E5C
:101AE000D16F16820FD0CF513C0DF3CF13F0F4CF4E
:101AF00014F0D0511324CC6F000E1420CD6F010EC2
:101B0000CE6F15D013D0020E9B5D07E1030E8E6FD2
:101B1000A7EC07F0CE6B0BD009D0030E9B5D06E15E
:101B2000030E8E6FA7EC07F0CE6B01D043D71200E7
:101B3000D2C0F2F0D3C0F3F0C9EC12F0010ED65DC2
:101B400025E1800E016ED2C002F0D35112EC00F0FC
:101B50005B0E6EEC00F0800E016ED2C002F0D32955
:101B600012EC00F0050E046ED5C00EF0D4C00DF0DE
:101B70003AEC00F0800E016ED2C002F0060ED325C2
:101B800012EC00F05D0E6EEC00F019D0800E016ECC
:101B9000D2C002F0D35112EC00F0200E6EEC00F037
:101BA000800E016ED2C002F0D32912EC00F0050EB7
:101BB000046ED5C00EF0D4C00DF03AEC00F0120067
:101BC000D7C0F2F0D8C0F3F0C9EC12F0010EDB5D23
:101BD00020E1800E016ED7C002F0D85112EC00F067
:101BE0005B0E6EEC00F0D7C0E4F0D829E56FDAC0E8
:101BF000E7F0D9C0E6F09DEC11F0800E016ED7C081
:101C000002F0060ED82512EC00F05D0E6EEC00F02E
:101C100014D0800E016ED7C002F0D85112EC00F043
:101C2000200E6EEC00F0D7C0E4F0D829E56FDAC0E2
:101C3000E7F0D9C0E6F09DEC11F012000B0EDD5D6F
:101C400006E3DCC093F0E7EC07F014EF11F00B0EA5
:101C5000E16FDCC093F0E7EC07F041C0E0F0010E6B
:101C6000DF6F040EDD5D000ED8B0010E156E070E9D
:101C7000DD5D02E3000E01D0010E151604E0010E39
:101C8000E05D01E0DF6BDD5339E1800E016EDCC009
:101C900002F0010E12EC00F0030EF76EA40EF66EC9
:101CA00066EC00F0010E405C14E1DCC0F4F0E1C031
:101CB000F5F001EE5EF0030EF76EB00EF66E11EC6D
:101CC00001F0EF6ADEC0F6F0010EF76FD6EC12F00D
:101CD00013D0DCC0F4F0E1C0F5F001EE5EF0030ECD
:101CE000F76EB80EF66E11EC01F0EF6ADEC0F6F09A
:101CF000010EF76FD6EC12F014EF11F0010EDD5D5E
:101D0000D8A453D0800E016EDCC002F0010E12EC9C
:101D100000F0030EF76EC20EF66E66EC00F0E053B4
:101D200016E1DCC0F4F0E1C0F5F001EE5EF0460E25
:101D3000EE6E6C0EEE6E6F0EEE6E770EEE6EEF6A5E
:101D4000DEC0F6F0010EF76FD6EC12F02CD0010ECB
:101D5000E05D14E1DCC0F4F0E1C0F5F001EE5EF00E
:101D6000030EF76ECE0EF66E11EC01F0EF6ADEC0D8
:101D7000F6F0010EF76FD6EC12F015D0DCC0F4F0DF
:101D8000E1C0F5F001EE5EF0540EEE6E650EEE6E03
:101D90006D0EEE6E700EEE6EEF6ADEC0F6F0010EA6
:101DA000F76FD6EC12F014EF11F0020EDD5D19E1C1
:101DB000800E016EDCC002F0010E12EC00F0030E8A
:101DC000F76ED80EF66E66EC00F0DCC0D2F0E1C023
:101DD000D3F044C0D5F043C0D4F0DEC0D6F0A8DEC6
:101DE00023D2030EDD5D19E1800E016EDCC002F02E
:101DF000010E12EC00F0030EF76EE40EF66E66ECC8
:101E000000F0DCC0D2F0E1C0D3F046C0D5F045C050
:101E1000D4F0DEC0D6F08CDE07D2040EDD5D41E1E9
:101E2000800E016EDCC002F0010E12EC00F0030E19
:101E3000F76EF00EF66E66EC00F0010EE05D0CE160
:101E4000DCC0D7F0E1C0D8F048C0DAF047C0D9F024
:101E5000DEC0DBF0B5DE24D0DCC0F2F0E1C0F3F090
:101E6000C9EC12F0800E016EDCC002F0E15112EC00
:101E700000F0200E6EEC00F0800E016EDCC002F06F
:101E8000E12912EC00F02D0E6EEC00F06EEC00F08B
:101E90003A0E6EEC00F02D0E6EEC00F06EEC00F0E1
:101EA000C3D1050EDD5D41E1800E016EDCC002F0A4
:101EB000010E12EC00F0030EF76EFC0EF66E66ECEF
:101EC00000F0010EE05D0CE1DCC0D7F0E1C0D8F01D
:101ED0004AC0DAF049C0D9F0DEC0DBF071DE24D0B0
:101EE000DCC0F2F0E1C0F3F0C9EC12F0800E016E3C
:101EF000DCC002F0E15112EC00F0200E6EEC00F0BC
:101F0000800E016EDCC002F0E12912EC00F02D0E13
:101F10006EEC00F06EEC00F03A0E6EEC00F02D0E60
:101F20006EEC00F06EEC00F07FD1060EDD5D41E15D
:101F3000800E016EDCC002F0010E12EC00F0040E07
:101F4000F76E080EF66E66EC00F0010EE05D0CE137
:101F5000DCC0D7F0E1C0D8F04CC0DAF04BC0D9F00B
:101F6000DEC0DBF02DDE24D0DCC0F2F0E1C0F3F007
:101F7000C9EC12F0800E016EDCC002F0E15112ECEF
:101F800000F0200E6EEC00F0800E016EDCC002F05E
:101F9000E12912EC00F02D0E6EEC00F06EEC00F07A
:101FA0003A0E6EEC00F02D0E6EEC00F06EEC00F0D0
:101FB0003BD1070EDD5DD8A454D0800E016EDCC08D
:101FC00002F0010E12EC00F0040EF76E140EF66E25
:101FD00066EC00F04D5212E1DCC0F4F0E1C0F5F027
:101FE00001EE5EF04E0EEE6E6F0EEE6EEF6ADEC02C
:101FF000F6F0010EF76FD6EC12F032D0010E4D5C08
:1020000018E1DCC0F4F0E1C0F5F001EE5EF0500E36
:10201000EE6E750EEE6E6C0EEE6E730EEE6E650E5F
:10202000EE6EEF6ADEC0F6F0010EF76FD6EC12F03E
:1020300017D0DCC0F4F0E1C0F5F001EE5EF04C0E1C
:10204000EE6E610EEE6E740EEE6E630EEE6E680E48
:10205000EE6EEF6ADEC0F6F0010EF76FD6EC12F00E
:10206000E3D0080EDD5DD8A454D0800E016EDCC034
:1020700002F0010E12EC00F0040EF76E200EF66E68
:1020800066EC00F04E5212E1DCC0F4F0E1C0F5F075
:1020900001EE5EF04E0EEE6E6F0EEE6EEF6ADEC07B
:1020A000F6F0010EF76FD6EC12F032D0010E4E5C56
:1020B00018E1DCC0F4F0E1C0F5F001EE5EF0500E86
:1020C000EE6E750EEE6E6C0EEE6E730EEE6E650EAF
:1020D000EE6EEF6ADEC0F6F0010EF76FD6EC12F08E
:1020E00017D0DCC0F4F0E1C0F5F001EE5EF04C0E6C
:1020F000EE6E610EEE6E740EEE6E630EEE6E680E98
:10210000EE6EEF6ADEC0F6F0010EF76FD6EC12F05D
:102110008BD0090EDD5DD8A451D0800E016EDCC0DD
:1021200002F0010E12EC00F0040EF76E2C0EF66EAB
:1021300066EC00F04F5211E1DCC0F4F0E1C0F5F0C4
:1021400001EE5EF04E0EEE6E6F0EEE6EEF6ADEC0CA
:10215000F6F0010EF76F2ADA30D0010E4F5C17E16E
:10216000DCC0F4F0E1C0F5F001EE5EF0500EEE6E72
:10217000750EEE6E6C0EEE6E730EEE6E650EEE6EFE
:10218000EF6ADEC0F6F0010EF76F10DA16D0DCC091
:10219000F4F0E1C0F5F001EE5EF04C0EEE6E610E73
:1021A000EE6E740EEE6E630EEE6E680EEE6EEF6AFD
:1021B000DEC0F6F0010EF76FF9D936D00A0EDD5DFC
:1021C00033E1800E016EDCC002F0010E12EC00F073
:1021D000040EF76E380EF66E66EC00F0010E505CE1
:1021E00013E1DCC0F4F0E1C0F5F001EE5EF0590E51
:1021F000EE6E650EEE6E730EEE6EEF6ADEC0F6F0FA
:10220000010EF76FD3D910D0DCC0F4F0E1C0F5F0C7
:1022100001EE5EF04E0EEE6E6F0EEE6EEF6ADEC0F9
:10222000F6F0010EF76FC2D91200E36BE25306E13C
:10223000400EEC6FC6D8EDC0E3F07AD0010EE25D3F
:1022400006E1410EEF6F26D9F0C0E3F071D0020E27
:10225000E25D0FE1C26B430EC16FC46BC36BC66915
:10226000C569C86B010EC76F29EC0CF0C9C0E3F05B
:102270005FD0030EE25D0FE1C26B450EC16FC46B10
:10228000C36BC669C569C86B010EC76F29EC0CF03A
:10229000C9C0E3F04DD0040EE25D0BE1010E415CDC
:1022A00007E1CD6B470ECC6FC3EC0CF0CEC0E3F072
:1022B0003FD0050EE25D0BE1010E415C07E1CD6B05
:1022C000490ECC6FC3EC0CF0CEC0E3F031D0060E5B
:1022D000E25D0BE1010E415C07E1CD6B4B0ECC6F73
:1022E000C3EC0CF0CEC0E3F023D0070EE25D06E1B4
:1022F0004D0EEF6FCFD8F0C0E3F01AD0080EE25DBC
:1023000006E14E0EEF6FC6D8F0C0E3F011D0090E13
:10231000E25D06E14F0EEF6FBDD8F0C0E3F008D0EC
:102320000A0EE25D05E1500EEC6F4BD8EDC0E3F014
:10233000010EE35D01E13CD81200E7C00AF0E6C0FF
:1023400009F00C6A3C0E0B6EFAEC00F0E86F0AC064
:10235000E9F0E7C00AF0E6C009F00C6A3C0E0B6E2B
:10236000FAEC00F00EC0EBF00DC0EAF0800E016E4A
:10237000E4C002F0E55112EC00F0020E046EE9C078
:102380000EF0E8C00DF03AEC00F03A0E6EEC00F002
:10239000800E016EE4C002F0030EE52512EC00F0A1
:1023A000020E046EEBC00EF0EAC00DF03AEF00F042
:1023B000010EF86F4AD9020EF86F47D9030EF86F75
:1023C00044D1ECC0EEF0168216A232D000EEFBF043
:1023D000040EF76E440EF66E11EC01F0EF6AF4ECA9
:1023E00007F0020E936FE7EC07F0030E936FE7EC34
:1023F00007F0040E936FE7EC07F0010EEE5D0CE1C1
:10240000800E016E940E30EC00F0040EF76E580E44
:10241000F66E66EC00F00BD0800E016E940E30EC80
:1024200000F0040EF76E6E0EF66E66EC00F016927B
:1024300087EC08F01F5208E0010EEE5D02E1EE6B42
:1024400002D0010EEE6F1682B3EC08F0B4EC08F087
:10245000010E9B5D0AE1020E8E6FA7EC07F0EEC045
:10246000ECF0010EED6F15D013D0020E9B5D07E16D
:10247000030E8E6FA7EC07F0ED6B0BD009D0030EA7
:102480009B5D06E1030E8E6FA7EC07F0ED6B01D0AC
:102490009BD71200EFC0F1F0168216A243D000EED7
:1024A000FBF0040EF76E840EF66E11EC01F0EF6A8D
:1024B000F4EC07F0020E936FE7EC07F0030E936F56
:1024C000E7EC07F0040E936FE7EC07F0F1530CE133
:1024D000800E016E940E30EC00F0040EF76E980E34
:1024E000F66E66EC00F01DD0010EF15D0CE1800E81
:1024F000016E940E30EC00F0040EF76EAE0EF66E28
:1025000066EC00F00ED0020EF15D0BE1800E016E64
:10251000940E30EC00F0040EF76EC40EF66E66EC0E
:1025200000F0169287EC08F0010E1F5C06E1020E27
:10253000F15D01E2F12B168206D01F2804E1F15370
:1025400001E0F1071682B3EC08F0B4EC08F0010EDC
:102550009B5D0AE1020E8E6FA7EC07F0F1C0EFF071
:10256000010EF06F15D013D0020E9B5D07E1030E34
:102570008E6FA7EC07F0F06B0BD009D0030E9B5DBC
:1025800006E1030E8E6FA7EC07F0F06B01D085D744
:102590001200800E016EF2C002F0F35112EC00F056
:1025A000040EF76EDA0EF66E66EF00F0F4C0F2F08D
:1025B000F5C0F3F0EEDF010EF65D010ED8A4000EBB
:1025C000156E010EF75D010ED8A4000E151624E05D
:1025D000800E016EF4C002F0F55112EC00F05B0EBB
:1025E0006EEC00F0800E016EF4C002F0F52912ECE2
:1025F00000F001EE5EF0EE5003E06EEC00F0FBD771
:10260000800E016EF4C002F0090EF52512EC00F008
:102610005D0E6EEC00F018D0800E016EF4C002F07A
:10262000F55112EC00F0200E6EEC00F0800E016E01
:10263000F4C002F0F52912EC00F001EE5EF0EE506D
:1026400003E06EEC00F0FBD71200F8C0A5F021EC1F
:102650000AF0A7C0FAF0A6C0F9F0010EF85DD8A400
:102660007AD0FAC0AAFFF9C0A9FF4050CBEC00F025
:10267000010EF925A96E000EFA21AA6E4150CBEC8D
:1026800000F0020EF925A96E000EFA21AA6E425042
:10269000CBEC00F0040EF925856F000EFA21866F51
:1026A00044C088F043C087F01CEC06F0060EF92504
:1026B000856F000EFA21866F46C088F045C087F00E
:1026C0001CEC06F0080EF925856F000EFA21866FC6
:1026D00048C088F047C087F01CEC06F00A0EF925C8
:1026E000856F000EFA21866F4AC088F049C087F0D6
:1026F0001CEC06F00C0EF925856F000EFA21866F92
:102700004CC088F04BC087F01CEC06F00E0EF9258B
:10271000A96E000EFA21AA6E4D50CBEC00F00F0E00
:10272000F925A96E000EFA21AA6E4E50CBEC00F0EE
:10273000100EF925A96E000EFA21AA6E4F50CBECAF
:1027400000F0110EF925A96E000EFA21AA6E505064
:10275000CBEC00F0F7D0020EF85DD8A47AD0FAC026
:10276000AAFFF9C0A9FF5150CBEC00F0010EF925EA
:10277000A96E000EFA21AA6E5250CBEC00F0020EA8
:10278000F925A96E000EFA21AA6E5350CBEC00F089
:10279000040EF925856F000EFA21866F55C088F06A
:1027A00054C087F01CEC06F0060EF925856F000E6C
:1027B000FA21866F57C088F056C087F01CEC06F0EF
:1027C000080EF925856F000EFA21866F59C088F032
:1027D00058C087F01CEC06F00A0EF925856F000E34
:1027E000FA21866F5BC088F05AC087F01CEC06F0B7
:1027F0000C0EF925856F000EFA21866F5DC088F0FA
:102800005CC087F01CEC06F00E0EF925A96E000ED8
:10281000FA21AA6E5E50CBEC00F00F0EF925A96EDE
:10282000000EFA21AA6E5F50CBEC00F0100EF925D5
:10283000A96E000EFA21AA6E6050CBEC00F0110ECA
:10284000F925A96E000EFA21AA6E6150CBEC00F0BA
:1028500079D0FAC0AAFFF9C0A9FF6250CBEC00F012
:10286000010EF925A96E000EFA21AA6E6350CBEC79
:1028700000F0020EF925A96E000EFA21AA6E64502E
:10288000CBEC00F0040EF925856F000EFA21866F5F
:1028900066C088F065C087F01CEC06F0060EF925CE
:1028A000856F000EFA21866F68C088F067C087F0D8
:1028B0001CEC06F0080EF925856F000EFA21866FD4
:1028C0006AC088F069C087F01CEC06F00A0EF92592
:1028D000856F000EFA21866F6CC088F06BC087F0A0
:1028E0001CEC06F00C0EF925856F000EFA21866FA0
:1028F0006EC088F06DC087F01CEC06F00E0EF92556
:10290000A96E000EFA21AA6E6F50CBEC00F00F0EEC
:10291000F925A96E000EFA21AA6E7050CBEC00F0DA
:10292000100EF925A96E000EFA21AA6E7150CBEC9B
:1029300000F0110EF925A96E000EFA21AA6E725050
:06294000CBEC00F01200D8
:020000040030CA
:03000100081F1EB7
:020005008181F7
:060008000FC00FE00F40E5
:00000001FF
