:020000040000FA
:1000000000000000A7EF02F0C1EF02F0800E016EC9
:10001000FE0EBDD8010EBBD8750E0A6E300EE0D0B4
:10002000016A018E126E1252D8A41206FE0EAFD8CB
:10003000025202E0022C02D0800E0ED00250020AC0
:1000400002E1C00E09D00250030A02E1940E04D06E
:100050000250040A02E1D40E026E1250022497D01C
:10006000016A018E126EFE0E92D8125090D0046A70
:100070000D6E0E6A00960450D8B40086050E036E0D
:10008000270E0C6E100E0CD8030E0C6EE80E08D85E
:100090000C6A640E05D80C6A0A0E02D80D5007D0FF
:1000A0000B6E0E500A6E0D50096EA4D80950096EE1
:1000B000034E0096045002E0035C07E20950D8A406
:1000C000009600B602D0300F62D01200A66AA68E4B
:1000D0000900F55002E002D8FBD71200106E899E8D
:1000E000899C929E929CF00E9216105000B21ED0E7
:1000F0003A0E0A6E980E74D8330E0F6E29D8130E6E
:100100000A6E880E6DD824D8640E69D821D8640E82
:1001100066D8220E0F6E1CD8280E07D80C0E05D8F4
:10012000060E03D80082105001D000800F6E00A090
:1001300009D0899C03080AE309D8070E0A6ED00E7D
:100140004FD812000080FE0814E0898C0F3A00A0FE
:100150000090898EF00E80160F500F0B8012000059
:1001600000D0899E0F3A000000D000B0F1D7320EC7
:1001700036D810501200A66AA68E0900F55002E08B
:1001800002D8FBD712009EA8FED7AD6E120001BEAA
:10019000A5D701B4F8D7A86EA66AA684550EA76E97
:1001A000AA0EA76EA682A6B2FED7A694A94AAA2A2C
:1001B000A68E1200A96EA66AA680A850A94AAA2AED
:1001C000A68E12000C6A0B6EFF0E0B260C2200D0BE
:1001D000D8A01200030E0A6EE60E02D8F5D70A6AFE
:1001E000FD0F096E01D00906000000D0E86A0A5A26
:1001F000FAE212000E6A0D6A100EF36E0A340D3622
:100200000E360B500D5C0C500E5805E30B500D5E76
:100210000C500E5AD88009360A36F32EEFD7095003
:100220001200A66AA68E0900F55002E0EE6EFBD71A
:10023000120053746172747570204F4B0000495264
:100240005249535953204D41494E2020202020200F
:10025000202000004F5054494F4E53202020202092
:10026000202020202020202000004D61696E204D9C
:10027000656E75005365747570204D656E75000070
:100280005574696C697479204D656E750000202085
:10029000202020202020202020202020202020205E
:1002A000202000005554494C495459202853545596
:1002B0004229202020202020000053455455502062
:1002C000202020202020202020202020202000006E
:1002D000496E707574203100496E7075742032005B
:1002E000496E707574203300494E505554203200C9
:1002F000494E50555420330020285354554229204C
:10030000202020202000494E50555420312020200C
:10031000202020202020202020200000456E616227
:100320006C65000053656E736F72205479706500C0
:100330004564697420506172616D7300464C4F577B
:1003400020454449540054454D50204544495400EB
:10035000454E41424C4520494E5055542046495245
:1003600053540000454449543A205945532F4E4FA9
:1003700000005B5965735D20204E6F2020202020F7
:1003800020202020202000002059657320205B4E73
:100390006F5D2020202020202020202000005345B9
:1003A0004E534F52205459504520202020202020C9
:1003B00020200000507265737375726500005465EB
:1003C0006D706572617475726500493120505245D7
:1003D000535355524520202020202020202000006B
:1003E0005B5363616C6520346D612020205B0000ED
:1003F0005363616C6520346D612020205B005B538A
:1004000063616C652032306D6120205B00005363B6
:10041000616C652032306D6120205B00486967683F
:1004200020425020202020205B6D6D3A73735D00C8
:10043000504C504250202020202020205B6D6D3AEF
:1004400073735D00534C5042502020202020202008
:100450005B6D6D3A73735D00526C79204869676813
:10046000202020205B4C2F502F4E6F5D0000526CDF
:100470007920504C4220202020205B4C2F502F4EC2
:100480006F5D0000526C7920534C502020202020BA
:100490005B4C2F502F4E6F5D0000446973706C6190
:1004A0007920202020205B5965732F4E6F5D00005E
:1004B000454449543A204F5554505554204D4F44CB
:1004C00045005B4E6F5D202050756C736520204C9D
:1004D00061746368202020200000204E6F20205B84
:1004E00050756C73655D204C61746368202020201A
:1004F0000000204E6F20202050756C7365205B4CEF
:10050000617463685D2020200000454449543A200E
:10051000574F52442056414C554500002056616CBF
:1005200075653A205B005D202020202020202020BF
:100530000000454449543A204455524154494F4ED5
:100540000000202020202020202020200000006A01
:10055000100EAF6E240EAC6E900EAB6E00010F0E3F
:10056000C16E070EB46E700ED36E9B8C0F0EC16EF3
:10057000F19EC40ED56E060ED66EF294F28AF28EFD
:10058000FAD0000113C0E1F014C0E2F0F4CFE3F0C0
:10059000F3CFE4F0F2A4E6D0060ED66EF294162A5B
:1005A000000E172218221922222A0A0E225CD8A035
:1005B0009ED0406A81B2402A416A81B4412A426A8F
:1005C00081BC422A4050235C08E0262A010E2664A2
:1005D00003D040C023F0266A01D0266A4150245C33
:1005E00008E0272A010E276403D041C024F0276ABF
:1005F00001D0276A4250255C10E0282A010E2864A9
:100600000BD042C025F0286A16C01AF017C01BF0A4
:1006100018C01CF019C01DF001D0286A2350020D2B
:10062000F3CF13F0F4CF14F024501324436E295069
:10063000040DF3CF13F0F4CF14F043501324446EA1
:10064000010E445C09E0070E445C06E00E0E445CBB
:1006500003E0080E446202D02A060DD0020E445C6C
:1006600009E00B0E445C06E00D0E445C03E0040E52
:10067000446201D02A2A435237E12ABE1AD0020E20
:100680002A5C17E32EBE03D00A0E2E5C01E22E2A4E
:10069000000116C01AF017C01BF018C01CF019C0DA
:1006A0001DF02150201004E1216A0F0E206E82847B
:1006B0001AD02A50800A7E0816E32EAE03D0F70E19
:1006C0002E5C01E32E06000116C01AF017C01BF0C5
:1006D00018C01CF019C01DF02150201004E1216A3F
:1006E0000F0E206E82842A6A43C029F0226A2052AB
:1006F00002E1215206E082842006000E215A000108
:1007000001D08294255208E1FF0E2B5CFF0E2C587D
:1007100002E22B4A2C2A26D02B5202E12C5222E054
:10072000080E2B5C070E2C58000103E3030E1F6E0E
:100730000FD0840E2B5C030E2C5803E3020E1F6EA9
:1007400007D02C5203E1C70E2B6402D0010E1F6E9E
:1007500016C01AF017C01BF018C01CF019C01DF00D
:100760002C6A2B6AE1C013F0E2C014F0E3C0F4FF7E
:10077000E4C0F3FF110006EC00F0800E016E30ECD7
:1007800000F0020EF76E320EF66E66EC00F0020E0E
:10079000F76E320EF66EBBEC00F00D0EC3EC00F0FF
:1007A000030E0C6EE80EE3EC00F017D87BD91BD8D3
:1007B00042D81582159015941F6A1D6A1C6A1B6A1F
:1007C0001A6A030E305C02E3010E306E27D88BD814
:1007D000B1D846C02DF0FBD7FFD7100E926E460E53
:1007E000936E946A1200236A81B2232A246A81B428
:1007F000242A256A81BC252A2350020DF3CF13F049
:10080000F4CF14F024501324296E266A276A286A2C
:10081000226A2A6A2E6A2C6A2B6A1200456A060E20
:10082000456008D0020E4A6E47D9640EE2EC00F033
:10083000452AF5E31200AA6A0A0EA96EDBEC00F065
:100840002F6EAA6A0B0EA96EDBEC00F0306EAA6A5E
:100850000C0EA96EDBEC00F0316EAA6A0E0EA96ECA
:10086000DBEC00F0326EDBEC00F0336EAA6A100EA7
:10087000A96EDBEC00F0346EDBEC00F0356EAA6A9A
:10088000120EA96EDBEC00F0366EDBEC00F0376E7A
:10089000AA6A140EA96EDBEC00F0386EDBEC00F0F7
:1008A000396EAA6A160EA96EDBEC00F03A6EDBEC2C
:1008B00000F03B6EAA6A180EA96EDBEC00F03C6EED
:1008C000AA6A190EA96EDBEC00F03D6EAA6A1A0E38
:1008D000A96EDBEC00F03E6EAA6A1B0EA96EDBEC83
:1008E00000F03F6E1200159000EE7EF0020EF76EE3
:1008F0003E0EF66E11EC01F0EF6A57D9020E4F6E04
:1009000047D9030E4F6E44D9040E4F6E41D915825C
:10091000A5D9A5D9522C05D0020E4A6ECDD809D042
:1009200007D0020E526201D003D0030E526200D0F3
:10093000EFD71200030E496E476A486A1590158278
:1009400015A26FD000EE7EF0020EF76E540EF66E1A
:1009500011EC01F0EF6A29D9020E4F6E19D9030E7E
:100960004F6E16D9040E4F6E13D947520FE1020E87
:10097000506E00EE9FF0020EF76E6A0EF66E11ECEE
:1009800001F0EF6A010E516E26D90DD0020E506EA5
:1009900000EE9FF0020EF76E6A0EF66E11EC01F09B
:1009A000EF6A516A18D9472C0FD0030E506E00EE33
:1009B0009FF0020EF76E740EF66E11EC01F0EF6A06
:1009C000010E516E08D90DD0030E506E00EE9FF04F
:1009D000020EF76E740EF66E11EC01F0EF6A516ABA
:1009E000FAD8020E47620FD0040E506E00EE9FF050
:1009F000020EF76E800EF66E11EC01F0EF6A010E3A
:100A0000516EE9D80DD0040E506E00EE9FF0020E2C
:100A1000F76E800EF66E11EC01F0EF6A516ADBD8CA
:100A200015920CD91E2C0ED0FF0E4924056E066AB5
:100A3000FF0E0622065203E10550476002D0472A06
:100A4000158206D01E3C04D0475202E047061582AC
:100A500005D905D9522C14D0475204E1010E466E37
:100A600020D00CD0472C06D05AD9555202E1466A04
:100A700018D004D0020E476201D028D915820BD0BD
:100A8000020E526203D0466A0CD005D0030E5262A9
:100A900002D0466A06D0E7D8535202E0466A01D037
:100AA0004FD712004C6A320E4B6E62D806EC00F043
:100AB0004C6A0A0E4B6E5CD04A2C05D05A6A140E52
:100AC000596E0BDA54D0020E4A6205D05A6A320EC1
:100AD000596E03DA4CD0030E4A6205D05A6AC80E2A
:100AE000596EFBD944D0040E4A6206D0030E5A6EEA
:100AF000E80E596EF2D93BD0050E4A6212D05A6AFE
:100B00003C0E596EEAD9205202E1215202E0000166
:100B1000FAD7500EE2EC00F05A6A3C0E596EDDD95D
:100B200026D0060E4A621FD05A6A280E596ED5D9B1
:100B3000205202E1215202E00001FAD73C0EE2EC21
:100B400000F05A6A280E596EC8D9205202E121528B
:100B500002E00001FAD73C0EE2EC00F05A6A280EDF
:100B6000596EBBD904D05A6A140E596EB6D9120008
:100B70004E6A010E4D6E4D504B5C4E504C5807E383
:100B8000010EE2EC00F04D2A000E4E22F4E31200BA
:100B9000800E016E4FC002F0010E12EC00F0020E4A
:100BA000F76E8E0EF66E66EF00F0800E016E30EC82
:100BB00000F0020EF76E8E0EF66E66EC00F0800E00
:100BC000016E30EC00F000EE7EF0EE5003E06EECD3
:100BD00000F0FBD71200800E016E50C002F0010E33
:100BE00012EC00F0020EF76E8E0EF66E66EC00F060
:100BF000512C15D0800E016E50C002F0010E12EC87
:100C000000F05B0E6EEC00F000EE9FF0EE5003E0A3
:100C10006EEC00F0FBD75D0E6EEC00F00ED0800E97
:100C2000016E50C002F0020E12EC00F000EE9FF0D8
:100C3000EE5003E06EEC00F0FBD712002EBE06D0A3
:100C40002E5204E0010E1E6E2E0607D02EAE04D0EA
:100C5000FF0E1E6E2E2A01D01E6A120012001FC047
:100C600052F01F6A1200FBDF52C054F0020E5462B1
:100C700004D01584010E536E28D0030E546204D0A4
:100C80001584010E536E21D01A50165C056E1B5050
:100C90001758066E1C501858076E1D501958086ECC
:100CA000000E085C11E30BE1000E075C0DE307E1A9
:100CB000750E065C09E303E1300E055C05E315845F
:100CC000010E536E000101D0536A1200159000EE20
:100CD0007EF0020EF76EA40EF66E11EC01F0EF6AD4
:100CE00064DF020E4F6E54DF030E4F6E51DF040EB1
:100CF0004F6E4EDFB3DFB3DF522C02D00FD009D0DE
:100D0000020E526202D00AD004D0030E526201D009
:100D100005D0A9DF535201E001D0ECD71200030E39
:100D2000586E566A576A1590158215A285D000EE46
:100D30007EF0020EF76EBA0EF66E11EC01F0EF6A5D
:100D400034DF020E4F6E24DF030E4F6E21DF040EE0
:100D50004F6E1EDF5750566002D056C057F0066ADD
:100D6000020E5724056ED8B0062A065206E15650E8
:100D7000056003D0020E565C576E5752D8A45BD064
:100D800056520FE1020E506E00EE9FF0020EF76E0B
:100D9000D00EF66E11EC01F0EF6A010E516E1BDF02
:100DA0000DD0020E506E00EE9FF0020EF76ED00EC8
:100DB000F66E11EC01F0EF6A516A0DDF562C0FD080
:100DC000030E506E00EE9FF0020EF76ED80EF66E18
:100DD00011EC01F0EF6A010E516EFDDE0DD0030E35
:100DE000506E00EE9FF0020EF76ED80EF66E11EC0C
:100DF00001F0EF6A516AEFDE020E56620FD0040E68
:100E0000506E00EE9FF0020EF76EE00EF66E11ECE3
:100E100001F0EF6A010E516EDEDE0DD0040E506E51
:100E200000EE9FF0020EF76EE00EF66E11EC01F090
:100E3000EF6A516AD0DE159201DF1E2C0ED0FF0E34
:100E40005824056E066AFF0E0622065203E105507D
:100E5000566002D0562A158206D01E3C04D0565247
:100E600002E056061582FADEFADE522C24D05652E3
:100E700006E16CD85B5202E1556A2ED01AD0562C8E
:100E80000BD000EEC0F0020EF76EE80EF66E11EC1D
:100E900001F0EF6A29D80DD0020E56620AD000EE9A
:100EA000C0F0020EF76EF00EF66E11EC01F0EF6A74
:100EB0001BD815820BD0020E526203D0556A0CD09B
:100EC00005D0030E526202D0556A06D0CCDE5352D2
:100ED00002E0556A01D029D71200F29E5AC021F0D3
:100EE00059C020F0F28E1200159000EE7EF010EE48
:100EF000C0F0200EE75204E0E6CFEEFFE82EFAD76E
:100F0000020EF76EF80EF66E11EC01F0EF6A4DDE90
:100F1000020E4F6E3DDE030E4F6E3ADE040E4F6E34
:100F200037DE9CDE9CDE522C02D00FD009D0020EA0
:100F3000526202D00AD004D0030E526201D005D012
:100F400092DE535201E001D0ECD712005C6A15909A
:100F5000158215A271D000EE7EF0030EF76E060E1C
:100F6000F66E11EC01F0EF6A20DE020E4F6E10DE1D
:100F7000030E4F6E0DDE040E4F6E0ADE5C520FE163
:100F8000020E506E00EE9FF0030EF76E1C0EF66E12
:100F900011EC01F0EF6A010E516E1DDE0DD0020E54
:100FA000506E00EE9FF0030EF76E1C0EF66E11EC05
:100FB00001F0EF6A516A0FDE5C2C0FD0030E506E09
:100FC00000EE9FF0030EF76E240EF66E11EC01F0AA
:100FD000EF6A010E516EFFDD0DD0030E506E00EE74
:100FE0009FF0030EF76E240EF66E11EC01F0EF6A1F
:100FF000516AF1DD020E5C6210D0040E506E00EEFC
:101000009FF0030EF76E300EF66E11EC01F0EF6AF2
:10101000010E516EEBEC05F00ED0040E506E00EE9A
:101020009FF0030EF76E300EF66E11EC01F0EF6AD2
:10103000516AEBEC05F0159201DE1E2C06D0020E73
:101040005C6002D05C2A158206D01E3C04D05C5243
:1010500002E05C06158202DE02DE522C45D05C52B4
:1010600007E12F0E5D6EAAD85E2C01D050D83AD081
:101070005C2C06D003D9605202E15B6A47D032D0C3
:10108000020E5C622FD02F2C23D0302C06D0A9D991
:10109000625202E15B6A3AD01AD030520BE100EEA4
:1010A000C0F0030EF76E3C0EF66E11EC01F0EF6A25
:1010B0001BDF0DD0020E30620AD000EEC0F0030E2E
:1010C000F76E460EF66E11EC01F0EF6A0DDF0AD0F6
:1010D00000EEC0F0030EF76E500EF66E11EC01F04C
:1010E000EF6A02DF15820BD0020E526203D05B6AF8
:1010F0000DD005D0030E526202D05B6A07D033ECEC
:1011000006F0535202E05B6A01D023D71200AA6AAC
:101110000A0EA96E2F50CBEC00F0AA6A0B0EA96E36
:101120003050CBEC00F0AA6A0C0EA96E3150CBEC1B
:1011300000F0AA6A0E0EA96E3250CBEC00F03350CC
:10114000CBEC00F0AA6A100EA96E3450CBEC00F084
:101150003550CBEC00F0AA6A120EA96E3650CBECDB
:1011600000F03750CBEC00F0AA6A140EA96E38508C
:10117000CBEC00F03950CBEC00F0AA6A160EA96E49
:101180003A50CBEC00F03B50CBEC00F0AA6A180EC2
:10119000A96E3C50CBEC00F0AA6A190EA96E3D5026
:1011A000CBEC00F0AA6A1A0EA96E3E50CBEC00F010
:1011B000AA6A1B0EA96E3F50CBEF00F05DC05FF036
:1011C000158215A231D000EE7EF0030EF76E640E8C
:1011D000F66E11EC01F0EF6AD5EC05F0020E4F6EE1
:1011E000C8EC05F0030E4F6EC8EC05F0040E4F6E10
:1011F000C8EC05F05F2C0CD0800E016E940E30EC24
:1012000000F0030EF76E720EF66E66EC00F00BD077
:10121000800E016E940E30EC00F0030EF76E880E17
:10122000F66E66EC00F015921EEC06F01E5207E01A
:101230005F2C02D05F6A02D0010E5F6E15822EEC29
:1012400006F02FEC06F0522C06D05FC05DF0010EC8
:101250005E6E13D00BD0020E526203D05E6A0DD0C8
:1012600005D0030E526202D05E6A07D033EC06F05E
:10127000535202E05E6A01D0A4D7120030C061F080
:101280001590158215A27DD000EE7EF0030EF76E4C
:101290009E0EF66E11EC01F0EF6AD5EC05F0020E31
:1012A0004F6EC8EC05F0030E4F6EC8EC05F0040E4F
:1012B0004F6EC8EC05F0615212E1020E506E00EE66
:1012C0009FF0460EEE6E6C0EEE6E6F0EEE6E770EAB
:1012D000EE6EEF6A010E516EEBEC05F010D0020ECF
:1012E000506E00EE9FF0460EEE6E6C0EEE6E6F0EC0
:1012F000EE6E770EEE6EEF6A516AEBEC05F0612C44
:1013000010D0030E506E00EE9FF0030EF76EB40E79
:10131000F66E11EC01F0EF6A010E516EEBEC05F088
:101320000ED0030E506E00EE9FF0030EF76EB40E5B
:10133000F66E11EC01F0EF6A516AEBEC05F0020E6B
:10134000616210D0040E506E00EE9FF0030EF76E37
:10135000BE0EF66E11EC01F0EF6A010E516EEBEC71
:1013600005F00ED0040E506E00EE9FF0030EF76EE7
:10137000BE0EF66E11EC01F0EF6A516AEBEC05F06F
:1013800015921EEC06F01E2C06D0020E616002D0F3
:10139000612A158206D01E3C04D0615202E061062B
:1013A00015822EEC06F02FEC06F0522C07D061C00F
:1013B00030F0ADDE010E606E13D00BD0020E526223
:1013C00003D0606A0DD005D0030E526202D0606A6D
:1013D00007D033EC06F0535202E0606A01D052D7D6
:1013E0001200636A080E646E1590158215A228EF2C
:1013F0000DF000EE7EF0030EF76ECA0EF66E11ECE5
:1014000001F0EF6AD5EC05F0020E4F6EC8EC05F066
:10141000030E4F6EC8EC05F0040E4F6EC8EC05F0DD
:10142000020E636002D0656A21D0020E636203D0AF
:10143000010E656E1BD0030E636203D0020E656E53
:1014400015D0040E636203D0030E656E0FD0050E37
:10145000636203D0040E656E09D0060E636203D08A
:10146000050E656E03D0020E635C656E6552D8A4EE
:101470007DD0635216E1800E016EC00E30EC00F09C
:10148000030EF76EE00EF66E66EC00F0046A33C0F1
:101490000EF032C00DF03AEC00F05D0E6EEC00F094
:1014A00015D0800E016EC10E30EC00F0030EF76E09
:1014B000F00EF66E66EC00F0046A33C00EF032C037
:1014C0000DF03AEC00F05D0E6EEC00F0632C16D0DF
:1014D000800E016E940E30EC00F0030EF76EFE0EDF
:1014E000F66E66EC00F0046A35C00EF034C00DF004
:1014F0003AEC00F05D0E6EEC00F015D0800E016E3F
:10150000950E30EC00F0040EF76E0E0EF66E66ECE3
:1015100000F0046A35C00EF034C00DF03AEC00F073
:101520005D0E6EEC00F0020E636210D0040E506E81
:1015300000EE9FF0040EF76E1C0EF66E11EC01F03B
:10154000EF6A010E516EEBEC05F00ED0040E506EFA
:1015500000EE9FF0040EF76E1C0EF66E11EC01F01B
:10156000EF6A516AEBEC05F027EF0DF0652C70D0B7
:10157000632C16D0800E016EC00E30EC00F0030E0E
:10158000F76EFE0EF66E66EC00F0046A35C00EF0E3
:1015900034C00DF03AEC00F05D0E6EEC00F015D0AA
:1015A000800E016EC10E30EC00F0040EF76E0E0ED0
:1015B000F66E66EC00F0046A35C00EF034C00DF033
:1015C0003AEC00F05D0E6EEC00F0020E636210D09B
:1015D000030E506E00EE9FF0040EF76E1C0EF66EBA
:1015E00011EC01F0EF6A010E516EEBEC05F00ED03C
:1015F000030E506E00EE9FF0040EF76E1C0EF66E9A
:1016000011EC01F0EF6A516AEBEC05F0030E636236
:1016100010D0040E506E00EE9FF0040EF76E300EE8
:10162000F66E11EC01F0EF6A010E516EEBEC05F075
:101630000ED0040E506E00EE9FF0040EF76E300ECA
:10164000F66E11EC01F0EF6A516AEBEC05F0FFD198
:10165000020E656264D0020E636210D0020E506EFC
:1016600000EE9FF0040EF76E1C0EF66E11EC01F00A
:10167000EF6A010E516EEBEC05F00ED0020E506ECB
:1016800000EE9FF0040EF76E1C0EF66E11EC01F0EA
:10169000EF6A516AEBEC05F0030E636210D0030EA3
:1016A000506E00EE9FF0040EF76E300EF66E11ECE9
:1016B00001F0EF6A010E516EEBEC05F00ED0030E57
:1016C000506E00EE9FF0040EF76E300EF66E11ECC9
:1016D00001F0EF6A516AEBEC05F0040E636210D082
:1016E000040E506E00EE9FF0040EF76E440EF66E80
:1016F00011EC01F0EF6A010E516EEBEC05F00ED02B
:10170000040E506E00EE9FF0040EF76E440EF66E5F
:1017100011EC01F0EF6A516AEBEC05F098D1030E81
:10172000656264D0030E636210D0020E506E00EE4C
:101730009FF0040EF76E300EF66E11EC01F0EF6ABA
:10174000010E516EEBEC05F00ED0020E506E00EE65
:101750009FF0040EF76E300EF66E11EC01F0EF6A9A
:10176000516AEBEC05F0040E636210D0030E506E6C
:1017700000EE9FF0040EF76E440EF66E11EC01F0D1
:10178000EF6A010E516EEBEC05F00ED0030E506EB9
:1017900000EE9FF0040EF76E440EF66E11EC01F0B1
:1017A000EF6A516AEBEC05F0050E636210D0040E8F
:1017B000506E00EE9FF0040EF76E580EF66E11ECB0
:1017C00001F0EF6A010E516EEBEC05F00ED0040E45
:1017D000506E00EE9FF0040EF76E580EF66E11EC90
:1017E00001F0EF6A516AEBEC05F031D1040E65624D
:1017F00064D0040E636210D0020E506E00EE9FF0B3
:10180000040EF76E440EF66E11EC01F0EF6A010E55
:10181000516EEBEC05F00ED0020E506E00EE9FF014
:10182000040EF76E440EF66E11EC01F0EF6A516A89
:10183000EBEC05F0050E636210D0030E506E00EE67
:101840009FF0040EF76E580EF66E11EC01F0EF6A81
:10185000010E516EEBEC05F00ED0030E506E00EE53
:101860009FF0040EF76E580EF66E11EC01F0EF6A61
:10187000516AEBEC05F0060E636210D0040E506E58
:1018800000EE9FF0040EF76E6E0EF66E11EC01F096
:10189000EF6A010E516EEBEC05F00ED0040E506EA7
:1018A00000EE9FF0040EF76E6E0EF66E11EC01F076
:1018B000EF6A516AEBEC05F0CAD0050E656264D0A0
:1018C000050E636210D0020E506E00EE9FF0040E03
:1018D000F76E580EF66E11EC01F0EF6A010E516EC4
:1018E000EBEC05F00ED0020E506E00EE9FF0040EF1
:1018F000F76E580EF66E11EC01F0EF6A516AEBECE0
:1019000005F0060E636210D0030E506E00EE9FF0DD
:10191000040EF76E6E0EF66E11EC01F0EF6A010E1A
:10192000516EEBEC05F00ED0030E506E00EE9FF002
:10193000040EF76E6E0EF66E11EC01F0EF6A516A4E
:10194000EBEC05F0070E636210D0040E506E00EE53
:101950009FF0040EF76E840EF66E11EC01F0EF6A44
:10196000010E516EEBEC05F00ED0040E506E00EE41
:101970009FF0040EF76E840EF66E11EC01F0EF6A24
:10198000516AEBEC05F063D0060E636210D0020ED4
:10199000506E00EE9FF0040EF76E6E0EF66E11ECB8
:1019A00001F0EF6A010E516EEBEC05F00ED0020E65
:1019B000506E00EE9FF0040EF76E6E0EF66E11EC98
:1019C00001F0EF6A516AEBEC05F0070E636210D08C
:1019D000030E506E00EE9FF0040EF76E840EF66E4E
:1019E00011EC01F0EF6A010E516EEBEC05F00ED038
:1019F000030E506E00EE9FF0040EF76E840EF66E2E
:101A000011EC01F0EF6A516AEBEC05F0080E63622D
:101A100010D0040E506E00EE9FF0040EF76E9A0E7A
:101A2000F66E11EC01F0EF6A010E516EEBEC05F071
:101A30000ED0040E506E00EE9FF0040EF76E9A0E5C
:101A4000F66E11EC01F0EF6A516AEBEC05F01592BD
:101A50001EEC06F01E2C0ED0FF0E6424056E066AE6
:101A6000FF0E0622065203E10550636002D0632A8E
:101A7000158206D01E3C04D0635202E06306158234
:101A80002EEC06F02FEC06F0522C7FD0635212E1C0
:101A90006A6A320E696E6C6A6B6A6E686D68706A2B
:101AA000010E6F6EFCD8712C04D0ABEC0FF087ECFC
:101AB00008F069D0632C11D06A6A340E696E6C6AC2
:101AC0006B6A6E686D68706A010E6F6EE8D8712C73
:101AD00003D041DA87EC08F056D0020E63620AD0D8
:101AE000756A360E746E6DD9762C03D035DA87ECB4
:101AF00008F049D0030E63620AD0756A380E746E1E
:101B000060D9762C03D028DA87EC08F03CD0040E9C
:101B100063620AD0756A3A0E746E53D9762C03D07C
:101B20001BDA87EC08F02FD0050E636209D03C0E5B
:101B3000666E3FD8672C03D00FDA87EC08F023D00D
:101B4000060E636209D03D0E666E33D8672C03D053
:101B500003DA87EC08F017D0070E636209D03E0E57
:101B6000666E27D8672C03D0F7D987EC08F00BD026
:101B7000080E636208D03F0E5D6EDEEC08F05E2C4E
:101B800002D087EC08F015820BD0020E526203D00F
:101B9000626A0ED005D0030E526202D0626A08D08B
:101BA00033EC06F0535202E0626A02D0F6EF09F01D
:101BB000120066C068F0158215A242D000EE7EF0D9
:101BC000040EF76EB00EF66E11EC01F0EF6AD5EC74
:101BD00005F0020E4F6EC8EC05F0030E4F6EC8EC18
:101BE00005F0040E4F6EC8EC05F068520CE1800E53
:101BF000016E940E30EC00F0040EF76EC20EF66E1D
:101C000066EC00F01CD0682C0CD0800E016E940E97
:101C100030EC00F0040EF76EDA0EF66E66EC00F0B3
:101C20000ED0020E68620BD0800E016E940E30EC66
:101C300000F0040EF76EF20EF66E66EC00F01592F0
:101C40001EEC06F01E2C06D0020E686001D0682A39
:101C5000158206D01E3C04D0685201E06806158249
:101C60002EEC06F02FEC06F0522C06D068C066F081
:101C7000010E676E13D00BD0020E526203D0676A5A
:101C80000DD005D0030E526202D0676A07D033EC44
:101C900006F0535202E0676A01D08ED712006AC084
:101CA00073F069C072F0158215A231D000EE7EF09B
:101CB000050EF76E0A0EF66E11EC01F0EF6AD5EC28
:101CC00005F0020E4F6EC8EC05F0030E4F6EC8EC27
:101CD00005F0040E4F6EC8EC05F0800E016E940EF8
:101CE00030EC00F0050EF76E1C0EF66E66EC00F0A0
:101CF000050E046E73C00EF072C00DF03AEC00F0E9
:101D0000050EF76E260EF66E66EC00F015921EECD0
:101D100006F01E2C11D06F507224056E7050732087
:101D2000066E05506D5C06506E5804E36F507226C7
:101D300070507322158224D01E3C22D06F506B2429
:101D4000056E70506C20066E000E076A0722086A46
:101D5000085211E107500FE10650735C0CE303E1F8
:101D60000550725C08E36F50725C726E705073586D
:101D7000736E000104D06CC073F06BC072F01582FA
:101D80002EEC06F02FEC06F0522C08D073C06AF04F
:101D900072C069F0010E716E13D00BD0020E526248
:101DA00003D0716A0DD005D0030E526202D0716A61
:101DB00007D033EC06F0535202E0716A01D074D7B9
:101DC000120075C00AF074C009F00C6A3C0E0B6E6C
:101DD000FAEC00F0776E75C00AF074C009F00C6A76
:101DE0003C0E0B6EFAEC00F00DC078F0796A1582AB
:101DF00015A268D000EE7EF0050EF76E320EF66E7C
:101E000011EC01F0EF6AD5EC05F0020E4F6EC8EC54
:101E100005F0030E4F6EC8EC05F0040E4F6EC8ECD3
:101E200005F0795228E1800E016E940E30EC00F03E
:101E3000200E6EEC00F05B0E6EEC00F0020E046EF5
:101E4000775038EC00F05D0E6EEC00F0200E6EEC7A
:101E500000F03A0E6EEC00F0200E6EEC00F0020E78
:101E6000046E785038EC00F0050EF76E420EF66EF8
:101E700066EC00F026D0800E016E940E30EC00F07F
:101E8000200E6EEC00F06EEC00F0020E046E775047
:101E900038EC00F0200E6EEC00F03A0E6EEC00F024
:101EA000200E6EEC00F05B0E6EEC00F0020E046E85
:101EB000785038EC00F0050EF76E260EF66E66ECE4
:101EC00000F015921EEC06F01E2C0DD0795205E1A3
:101ED000630E776001D0772A04D03B0E786001D082
:101EE000782A15820CD01E3C0AD0795204E1775230
:101EF00001E0770603D0785201E0780615822EECD7
:101F000006F02FEC06F0522C13D0795204E1010EAA
:101F1000796E15820CD077C07AF078C07BF01DD82E
:101F20007DC075F07CC074F0010E766E13D00BD0BE
:101F3000020E526203D0766A0DD005D0030E5262B3
:101F400002D0766A07D033EC06F0535202E0766A8C
:101F500001D04ED71200120012007A503C0DF3CF80
:101F600013F0F4CF14F07B5013247C6E000E142079
:041F70007D6E120070
:020000040030CA
:03000100081F1EB7
:020005008181F7
:060008000FC00FE00F40E5
:00000001FF
