:020000040000FA
:1000000000000000A9EF02F0C3EF02F0800E016EC5
:10001000FE0EBDD8010EBBD8750E0A6E300EE0D0B4
:10002000016A018E166E1652D8A41606FE0EAFD8BF
:10003000025202E0022C02D0800E0ED00250020AC0
:1000400002E1C00E09D00250030A02E1940E04D06E
:100050000250040A02E1D40E026E1650022497D018
:10006000016A018E166EFE0E92D8165090D0046A68
:100070000F6E106A00960450D8B40086050E036E09
:10008000270E0E6E100E0CD8030E0E6EE80E08D85A
:100090000E6A640E05D80E6A0A0E02D80F5007D0F9
:1000A0000D6E10500A6E0F50096EA7D80950096ED8
:1000B000034E0096045002E0035C07E20950D8A406
:1000C000009600B602D0300F62D01200A66AA68E4B
:1000D0000900F55002E002D8FBD71200146E899E89
:1000E000899C929E929CF00E9216145000B21ED0E3
:1000F0003A0E0A6E980E74D8330E136E29D8130E6A
:100100000A6E880E6DD824D8640E69D821D8640E82
:1001100066D8220E136E1CD8280E07D80C0E05D8F0
:10012000060E03D80082145001D00080136E00A088
:1001300009D0899C03080AE309D8070E0A6ED00E7D
:100140004FD812000080FE0814E0898C133A00A0FA
:100150000090898EF00E801613500F0B8012000055
:1001600000D0899E133A000000D000B0F1D7320EC3
:1001700036D814501200A66AA68E0900F55002E087
:1001800002D8FBD712009EA8FED7AD6E120001BEAA
:10019000A5D701B4F8D7A86EA66AA684550EA76E97
:1001A000AA0EA76EA682A6B2FED7A694A94AAA2A2C
:1001B000A68E1200A96EA66AA680A850A94AAA2AED
:1001C000A68E12000E6A0D6EFF0E0D260E2200D0B6
:1001D000D8A01200030E0A6EE60E02D8F5D70A6AFE
:1001E000FD0F096E01D00906000000D0E86A0A5A26
:1001F000FAE212000A6A0E6A0D6E106A0F6A100E99
:10020000F36E0A340F3610360D500F5C0E50105836
:1002100005E30D500F5E0E50105AD88009360A368D
:10022000F32EEFD7095012000CC01EF00BC01DF0CA
:100230000AC01CF009C01BF01D500F02F3CF0BF0D9
:10024000F4CF0CF01C501002F3500B26F4500C228B
:100250001B501102F3500B26F4500C221E500F02BB
:10026000F3500C261D501002F3500C261C501102A6
:10027000F3500C261B501202F3500C261B500F0299
:10028000F3CF09F0F4CF0AF01C500F02F3500A2606
:10029000F4500B22000E0C221B501002F3500A26C1
:1002A000F4500B22000E0C221200A66AA68E090042
:1002B000F55002E0EE6EFBD7120053746172747554
:1002C00070206F6B000049525249535953204D41E1
:1002D000494E202020202020202000004F5054494B
:1002E0004F4E53202020202020202020202020207E
:1002F00000004D61696E204D656E75005365747523
:1003000070204D656E7500005574696C69747920B4
:100310004D656E7500005554494C495459002020D4
:1003200020202020202020202020202020202020CD
:10033000202000002028535455422920202020202E
:1003400020005345545550202020202020202020DC
:100350002020202020200000496E7075742031007C
:10036000496E707574203200496E707574203300C8
:10037000494E505554203200494E505554203300B8
:10038000494E50555420312020202020202020206C
:10039000202020200000456E61626C652020202016
:1003A0000000456E61626C65640044697361626C53
:1003B0006564000053656E736F722020202000007A
:1003C000507265737375726500005363616C6520CC
:1003D00034206D6100005363616C6532306D6120C3
:1003E00000004869676820425020202000004869CA
:1003F00067682054425020200000504C504250204A
:10040000202020200000534C50425020202020204B
:1004100000004C6F77205442502020200000526C86
:1004200079204869676820200000526C7920504C80
:10043000502020200000526C7920534C5020202066
:100440000000526C79204C6F772020200000446916
:1004500073706C61792020200000434C4F434B2087
:1004600020202020202020202020202020200000CC
:1004700054696D656F7574202020000050756C7391
:100480006520202020200000202020202020202067
:1004900020200000454449543A20594553204E4FEE
:1004A00020202020202020002059657320205B4E32
:1004B0006F5D2020202020202020202000005B597C
:1004C00065735D20204E6F202020202020202020DA
:1004D00020200000454449543A204D4F44452020F7
:1004E00020202020202020005B4E6F5D20205075B2
:1004F0006C736520204C6174636820202000204EBE
:100500006F20205B50756C73655D204C617463686F
:1005100020202000204E6F20202050756C73652015
:100520005B4C617463685D202000454449543A2067
:100530004455524154494F4E202020202000202075
:1005400020202020202020005D202020202020208E
:100550002000006A100EAF6E240EAC6E900EAB6ED3
:1005600000010F0EC16E070EB46E700ED36E9B8C21
:100570000F0EC16EF19EC40ED56E060ED66EF294AD
:10058000F28AF28EF5D0000117C0F2F118C0F3F133
:10059000F4CFF4F1F3CFF5F1F2A4E1D0060ED66E6C
:1005A000F294212A000E222223222422322A0A0E29
:1005B000325CD8A0C9D0806B81B2802B816B81B4B2
:1005C000812B826B81BC822B8051335C10E0362AF8
:1005D000020E365C0BE380C033F0366A21C025F092
:1005E00022C026F023C027F024C028F001D0366AAC
:1005F0008151345C10E0372A020E375C0BE381C076
:1006000034F0376A21C025F022C026F023C027F03D
:1006100024C028F001D0376A8251355C10E0382AB6
:10062000020E385C0BE382C035F0386A21C025F039
:1006300022C026F023C027F024C028F001D0386A59
:100640003350020DF3CF17F0F4CF18F034501724C5
:10065000836F3950040DF3CF17F0F4CF18F08351A6
:100660001724846F010E845D02E13A0622D0070E42
:10067000845D02E13A061DD00E0E845D02E13A0669
:1006800018D0080E845D02E13A0613D0020E845D94
:1006900002E13A2A0ED00B0E845D02E13A2A09D01B
:1006A0000D0E845D02E13A2A04D0040E845D01E15E
:1006B0003A2A835325E13ABE0ED0020E3A5C0BE390
:1006C0003D4A3E2A21C025F022C026F023C027F053
:1006D00024C028F014D03A50800A7E0810E33D521E
:1006E00002E13E5203E03D06000E3E5A000121C0E9
:1006F00025F022C026F023C027F024C028F03A6A53
:1007000083C039F035520DE1FF0E3C5C04E307E194
:10071000F60E3B5C04E20A0E3B26000E3C22000172
:1007200012D03C5203E1C80E3B5C0AE3010E2A6E74
:1007300021C025F022C026F023C027F024C028F0D5
:1007400000013C6A3B6A326A2B5202E12C5206E0FD
:1007500082842B06000E2C5A000101D08294F2C133
:1007600017F0F3C118F0F4C1F4FFF5C1F3FF110065
:100770005CD826D8E6EC05F05ED889D82082209097
:1007800020942A6A286A276A266A256A466A030E1E
:100790004E5C02E3010E4E6E6CD8020EF76EBA0E7E
:1007A000F66EBBEC00F00D0EC3EC00F0C80EE2ECF0
:1007B00000F0466AE9D81ED986C041F0FAD7FFD7C3
:1007C000100E926E460E936E946A896A8A6A8B6ADC
:1007D000899C899E320EE2EC00F0809C030E8D6FA6
:1007E000FFD9050EE2EC00F0030E8D6FF9D9960EDD
:1007F000EFEC00F0030E8D6FF3D9960EEFEC00F0E6
:10080000020E8D6FEDD9960EEFEC00F0280E8E6F74
:10081000EDD9080E8E6FEAD9010E8E6FE7D9060E5C
:100820008E6FE4D90C0E8E6FE1D1100E926E460ED3
:10083000936E946A1200336A81B2332A346A81B4A7
:10084000342A356A81BC352A3350020DF3CF17F0B4
:10085000F4CF18F034501724396E366A376A386A84
:10086000326A3A6A3E6A3D6A406A3F6A3C6A3B6A5B
:100870001200856B060E855D09E2020E9E6FC7ECC5
:1008800007F0640EE2EC00F0852BF4E3120051EC6B
:1008900008F0010E916F2C0E906FCAD993C048F0EA
:1008A00092C047F0010E916F2E0E906FC1D993C088
:1008B0004AF092C049F0010E916F300E906FB8D996
:1008C00093C04CF092C04BF0010E9A6FD8D9020E33
:1008D0009A6FD5D9030E9A6FD2D9AEEC07F0916B0F
:1008E000C80E906FA5D993C043F092C042F0435216
:1008F00003E10A0E425C02E3000E01D0010E1F6EFE
:10090000010E435C000104E305E12D0E425C02E2AE
:10091000000E01D0010E1F1200010BE0436A1E0EF3
:10092000426E956BC80E946F43C097F042C096F02C
:100930008AD9916BCA0E906F7BD993C045F092C053
:1009400044F0455203E10A0E445C02E3000E01D07C
:10095000010E1F6E070E455C000104E305E1D10E98
:10096000445C02E2000E01D0010E1F1200010BE0F8
:10097000456A320E446E956BCA0E946F45C097F06F
:1009800044C096F060D91200209001EE4DF0020EA6
:10099000F76EC60EF66E55EC01F0EF6A07EC08F044
:1009A000020EA36FFAEC07F0030EA36FFAEC07F048
:1009B000040EA36FFAEC07F0208253EC09F054EC1C
:1009C00009F0010EAD5D05E1020E9E6FC7EF07F065
:1009D0000FD0020EAD5D05E1030E9E6FC7EF07F06D
:1009E00007D0030EAD5D04E1030E9E6FC7EC07F068
:1009F000E4D71200040E896F876B886B20902082E9
:100A000020A2A0D0010E9E6FC7EC07F001EE4DF0C2
:100A1000020EF76EDC0EF66E55EC01F0EF6A07EC95
:100A200008F0020EA36FFAEC07F0030EA36FFAECC6
:100A300007F0040EA36FFAEC07F0020E875D02E2E6
:100A4000886B16D0FF0E8925056E066AFF0E0622FA
:100A500006520CE10550875D09E3030E895D04E34E
:100A6000030E895D886F01D0886B02D08705886F7F
:100A7000020E8B6F050E8B5DD8B063D088518B252D
:100A8000176E186A1836020E175C8C6F8C51875DD2
:100A900003E1010E8A6F01D08A6B8C5310E18BC089
:100AA000A4F001EE6EF0020EF76EF20EF66E55EC4B
:100AB00001F0EF6A8AC0A5F01DEC08F03FD0010EEE
:100AC0008C5D10E18BC0A4F001EE6EF0020EF76EAB
:100AD000FC0EF66E55EC01F0EF6A8AC0A5F01DEC35
:100AE00008F02CD0020E8C5D10E18BC0A4F001EE5A
:100AF0006EF0030EF76E080EF66E55EC01F0EF6A1D
:100B00008AC0A5F01DEC08F019D0030E8C5D12E12F
:100B10008BC0A4F001EE6EF0420EEE6E610EEE6E32
:100B2000630EEE6E6B0EEE6EEF6A8AC0A5F01DECE2
:100B300008F004D08BC0A3F0FAEC07F08B2BD8A000
:100B400099D7209227EC09F0295215E0010E295C73
:100B50000EE1FF0E8925056E066AFF0E062206527B
:100B600003E10550875D02E20001872B03D0875324
:100B700001E08707208253EC09F054EC09F0010EE4
:100B8000AD5D22E1020E9E6F02DA875304E1010E91
:100B9000866F120018D0010E875D03E190EC09F01A
:100BA00012D0020E875D0CE101EE8FF0030EF76E9E
:100BB000160EF66E55EC01F0EF6A58EC09F003D012
:100BC000010E866F120020821BD71200A06B050E4B
:100BD0009F6F00DA06EC00F0A06B020E9F6FFAD157
:100BE0008DC0B5F093EC0AF0ABEF0AF0809C8E3923
:100BF0000F0B8F6F8FC08DF0F3DF0F0E8E158F6F81
:100C00008FC08DF0EDDF010E8E5D010ED8A4000EB9
:100C10001F6E020E8E5D010ED8A4000E1F1204E09E
:100C2000020EE2EC00F003D0320EEFEC00F0120006
:100C300091C0AAFF90C0A9FFDBEC00F0926FDBEC43
:100C400000F0936F120095C0AAFF94C0A9FFDBECDF
:100C500000F0986FDBEC00F0996F9751995D03E11C
:100C60009651985D0BE095C0AAFF94C0A9FF0001C2
:100C70009651CBEC00F09751CBEC00F012009AC0EB
:100C8000B6F0B5EC0AF0B8C09CF0B7C09BF0010E0E
:100C90009A5DD8A475D09CC0AAFF9BC0A9FFDBECCD
:100CA00000F04D6E010E9B25A96E000E9C21AA6ED0
:100CB000DBEC00F04E6E020E9B25A96E000E9C210F
:100CC000AA6EDBEC00F04F6E040E9B25906F000EB9
:100CD0009C21916FADDF93C051F092C050F0060E91
:100CE0009B25906F000E9C21916FA2DF93C053F063
:100CF00092C052F0080E9B25906F000E9C21916FC0
:100D000097DF93C055F092C054F00A0E9B25906F68
:100D1000000E9C21916F8CDF93C057F092C056F06B
:100D20000C0E9B25906F000E9C21916F81DF93C06C
:100D300059F092C058F00E0E9B25A96E000E9C2112
:100D4000AA6EDBEC00F05A6E0F0E9B25A96E000E0A
:100D50009C21AA6EDBEC00F05B6E100E9B25A96E49
:100D6000000E9C21AA6EDBEC00F05C6E110E9B2540
:100D7000A96E000E9C21AA6EDBEC00F05D6EEDD03A
:100D8000020E9A5DD8A475D09CC0AAFF9BC0A9FF93
:100D9000DBEC00F05E6E010E9B25A96E000E9C211F
:100DA000AA6EDBEC00F05F6E020E9B25A96E000EB2
:100DB0009C21AA6EDBEC00F0606E040E9B25906F08
:100DC000000E9C21916F34DF93C062F092C061F0FD
:100DD000060E9B25906F000E9C21916F29DF93C01A
:100DE00064F092C063F0080E9B25906F000E9C216A
:100DF000916F1EDF93C066F092C065F00A0E9B25CE
:100E0000906F000E9C21916F13DF93C068F092C029
:100E100067F00C0E9B25906F000E9C21916F08DFF0
:100E200093C06AF092C069F00E0E9B25A96E000E69
:100E30009C21AA6EDBEC00F06B6E0F0E9B25A96E59
:100E4000000E9C21AA6EDBEC00F06C6E100E9B2550
:100E5000A96E000E9C21AA6EDBEC00F06D6E110EE7
:100E60009B25A96E000E9C21AA6EDBEC00F06E6E35
:100E700074D09CC0AAFF9BC0A9FFDBEC00F06F6E92
:100E8000010E9B25A96E000E9C21AA6EDBEC00F0E2
:100E9000706E020E9B25A96E000E9C21AA6EDBECE3
:100EA00000F0716E040E9B25906F000E9C21916FD7
:100EB000BFDE93C073F092C072F0060E9B25906F58
:100EC000000E9C21916FB4DE93C075F092C074F057
:100ED000080E9B25906F000E9C21916FA9DE93C098
:100EE00077F092C076F00A0E9B25906F000E9C2141
:100EF000916F9EDE93C079F092C078F00C0E9B2526
:100F0000906F000E9C21916F93DE93C07BF092C096
:100F10007AF00E0E9B25A96E000E9C21AA6EDBECCA
:100F200000F07C6E0F0E9B25A96E000E9C21AA6E10
:100F3000DBEC00F07D6E100E9B25A96E000E9C214F
:100F4000AA6EDBEC00F07E6E110E9B25A96E000EE2
:100F50009C21AA6EDBEC00F07F6E1200010E4F1494
:100F60009D6F9D5302E1306A02D0010E306E020E79
:100F70004F149D6F9D5302E1316A02D0010E316E14
:100F800059C02EF058C02DF05CC02FF012009E53B7
:100F900004E12C6A0A0E2B6E1CD0010E9E5D04E14A
:100FA0002C6A140E2B6E15D0020E9E5D04E12C6A85
:100FB000320E2B6E0ED0030E9E5D04E12C6AC80E1D
:100FC0002B6E07D0040E9E5D04E1030E2C6EE80E1E
:100FD0002B6E1200A26B010EA16FA1519F5DA25159
:100FE000A05907E3010EE2EC00F0A12B000EA223B2
:100FF000F4E31200800E016EA3C002F0010E12ECA9
:1010000000F0030EF76E1E0EF66E66EF00F0800E17
:10101000016E30EC00F0030EF76E1E0EF66E66ECFD
:1010200000F0800E016E30EC00F001EE4DF0EE505D
:1010300003E06EEC00F0FBD71200800E016EA4C03E
:1010400002F0010E12EC00F0030EF76E1E0EF66EAB
:1010500066EC00F0010EA55D15E1800E016EA4C0E6
:1010600002F0010E12EC00F05B0E6EEC00F001EEEF
:101070006EF0EE5003E06EEC00F0FBD75D0E6EEC10
:1010800000F00ED0800E016EA4C002F0020E12EC31
:1010900000F001EE6EF0EE5003E06EEC00F0FBD7D6
:1010A0001200AA6AA96ADBEC00F0A66F020EA65D28
:1010B000D8B4CCD0BD6B010EBE6FBF6BC06BC16B23
:1010C000020EC26FCCEC0AF0C4C0A8F0C3C0A7F0F7
:1010D000010E956F2C0E946FA8C097F0A7C096F0E4
:1010E00023EC06F0010E956F2E0E946FA8C097F0BA
:1010F000A7C096F023EC06F0010E956F300E946FAA
:10110000A8C097F0A7C096F023EC06F0956BC80E28
:10111000946F976B1E0E966F23EC06F0956BCA0EBC
:10112000946F976B320E966F23EC06F0AA6B0A0E43
:10113000A96FAA53D8A485D02F0EA95DD8B081D0AD
:10114000AAC0AAFFA9C0A9FF010ECBEC00F0010EB6
:10115000A925A96E000EAA21AA6E010ECBEC00F003
:10116000020EA925A96E000EAA21AA6E000ECBECD4
:1011700000F0040EA925946F000EAA21956FBA6B9A
:10118000B96B05DABCC097F0BBC096F023EC06F053
:10119000060EA925946F000EAA21956F010EBA6F55
:1011A0006A0EB96FF4D9BCC097F0BBC096F023ECBF
:1011B00006F0080EA925946F000EAA21956F976B73
:1011C000966B23EC06F00A0EA925946F000EAA2157
:1011D000956F976B966B23EC06F00C0EA925946F18
:1011E000000EAA21956F976B966B23EC06F00E0EFE
:1011F000A925A96E000EAA21AA6E000ECBEC00F064
:101200000F0EA925A96E000EAA21AA6E000ECBEC26
:1012100000F0100EA925A96E000EAA21AA6E000EDC
:10122000CBEC00F0110EA925A96E000EAA21AA6E22
:10123000010ECBEC00F0120EA927000EAA23D8A0B5
:1012400078D7AA6AA96A020ECBEC00F01200F29ECF
:101250003EC0ACF03DC0ABF0F28EAB513F5CAC5148
:1012600040580BE2010E296E21C025F022C026F065
:1012700023C027F024C028F011D03F50AB5D405070
:10128000AC590BE2FF0E296E21C025F022C026F0DA
:1012900023C027F024C028F001D0296AACC040F058
:1012A000ABC03FF0120012002AC0ADF02A6A120053
:1012B000209001EE4DF011EE8FF0200EE75204E089
:1012C000E6CFEEFFE82EFAD7030EF76E340EF66E79
:1012D00055EC01F0EF6A9BDE020EA36F8BDE030E6E
:1012E000A36F88DE040EA36F85DEDDDFDDDF010E78
:1012F000AD5D04E1020E9E6F4AD610D0020EAD5DC8
:1013000004E1030E9E6F43D609D0030EAD5D06E1E6
:10131000030E9E6F3CDE020E466E1200E6D71200F0
:10132000050EB16FAF6BB06B2090208220A2AED0C3
:10133000010E9E6F2CDE01EE4DF0030EF76E420E95
:10134000F66E55EC01F0EF6A62DE020EA36F52DE1C
:10135000030EA36F4FDE040EA36F4CDE020EAF5DD3
:1013600002E2B06B16D0FF0EB125056E066AFF0EC5
:10137000062206520CE10550AF5D09E3030EB15D94
:1013800004E3030EB15DB06F01D0B06B02D0AF05C6
:10139000B06F020EB36F050EB35DD8B076D0FE0EFF
:1013A000B325176E186AFF0E1822B0511724B46FB8
:1013B000B451AF5D03E1010EB26F01D0B26BB45313
:1013C0000FE1B3C0A4F001EE6EF0030EF76E580EFD
:1013D000F66E55EC01F0EF6AB2C0A5F02EDE52D0E9
:1013E000010EB45D0FE1B3C0A4F001EE6EF0030E88
:1013F000F76E600EF66E55EC01F0EF6AB2C0A5F024
:101400001CDE40D0020EB45D0FE1B3C0A4F001EECB
:101410006EF0030EF76E680EF66E55EC01F0EF6A93
:10142000B2C0A5F00ADE2ED0030EB45D13E1B3C046
:10143000A4F001EE6EF0430EEE6E6C0EEE6E6F0ECB
:10144000EE6E630EEE6E6B0EEE6EEF6AB2C0A5F03E
:10145000F4DD18D0040EB45D11E1B3C0A4F001EEC8
:101460006EF0420EEE6E610EEE6E630EEE6E6B0E61
:10147000EE6EEF6AB2C0A5F0E0DD04D0B3C0A3F019
:10148000FAEC07F0B32BD8A086D72092E0DE2952E1
:1014900015E0010E295C0EE1FF0EB125056E066A0E
:1014A000FF0E0622065203E10550AF5D02E2000185
:1014B000AF2B03D0AF5301E0AF072082F4DEF4DEA0
:1014C000010EAD5D2EE1020E9E6FC7EC07F0AF532B
:1014D00002E1BCD825D0010EAF5D0BE101EE8FF02B
:1014E000030EF76E700EF66E55EC01F0EF6AE0DE5B
:1014F00017D0020EAF5D0BE101EE8FF0030EF76E19
:10150000780EF66E55EC01F0EF6AD2DE09D0030ECC
:10151000AF5D03E1E4EC10F003D0010EAE6F1200FA
:10152000208204D71200B53102E3898001D089906E
:10153000B551E8A202D0898201D08992B551E8A4C0
:1015400002D0898401D08994B551E8A602D0898659
:1015500001D089961200898E020EE82EFED7000077
:101560000000899E280EEFEF00F0010EB65D04E149
:10157000B86B0A0EB76F0AD0020EB65D04E1B86B05
:101580001C0EB76F03D0B86B2E0EB76F1200BAC027
:10159000BCF0B9C0BBF01200C66BC56B040EBD5DDC
:1015A00002E3030EBD6F020EBE5D02E3010EBE6FCD
:1015B000040EBF5D02E3030EBF6F040EC05D02E3C5
:1015C000030EC06F040EC15D02E3030EC16F040E73
:1015D000C25D02E3030EC26FBD51C527000EC623D4
:1015E000BE51040DF3CF17F0F4CF18F01750C527F4
:1015F0001850C623BF51080DF3CF17F0F4CF18F0E1
:101600001750C5271850C623C051200DF3CF17F02F
:10161000F4CF18F01750C5271850C623C151800DBC
:10162000F3CF17F0F4CF18F01750C5271850C62382
:10163000C2C018F0176AD89018361750C52718502E
:10164000C623C6C0C4F0C5C0C3F01200C86BC96BC6
:101650002082010E4E5C03E10C0ECA6F08D0020E10
:101660004E5C03E10A0ECA6F02D0050ECA6FCA05AE
:10167000CE6F20A216EF0FF0010E9E6FC7EC07F0A1
:1016800001EE4DF0030EF76E800EF66E55EC01F094
:10169000EF6A07EC08F0020EA36FFAEC07F0030EF6
:1016A000A36FFAEC07F0040EA36FFAEC07F0020E3A
:1016B000C85D02E2C96B16D0FF0ECA25056E066A28
:1016C000FF0E062206520CE10550C85D09E3030E29
:1016D000CA5D04E3030ECA5DC96F01D0C96B02D0B5
:1016E000C805C96F020ECC6F050ECC5DD8B015EFE2
:1016F0000FF0FE0ECC25176E186AFF0E1822C95186
:101700001724CD6FCD51CE5DD8A00DEF0FF0CD5188
:10171000C85D03E1010ECB6F01D0CB6B010E4E5CB7
:10172000D8A442D0CD5302E1CF6B3DD0010ECD5DA8
:1017300003E1010ECF6F37D0020ECD5D03E1020E43
:10174000CF6F31D0030ECD5D03E1030ECF6F2BD0F1
:10175000040ECD5D03E1040ECF6F25D0050ECD5DE7
:1017600003E1050ECF6F1FD0060ECD5D03E1060E1F
:10177000CF6F19D0070ECD5D03E1070ECF6F13D0E9
:10178000080ECD5D03E1080ECF6F0DD0090ECD5DC3
:1017900003E1090ECF6F07D00A0ECD5D03E10A0EFB
:1017A000CF6F01D0CF6950D0020E4E5C36E1CD53E1
:1017B00002E1CF6B31D0010ECD5D03E1010ECF6FA1
:1017C0002BD0020ECD5D03E1020ECF6F25D0030EAC
:1017D000CD5D03E1030ECF6F1FD0040ECD5D03E19D
:1017E000040ECF6F19D0050ECD5D03E1060ECF6F4D
:1017F00013D0060ECD5D03E1070ECF6F0DD0070E9F
:10180000CD5D03E1090ECF6F07D0080ECD5D03E17A
:101810000A0ECF6F01D0CF6917D0CD5302E1CF6B45
:1018200013D0010ECD5D03E1010ECF6F0DD0020E7E
:10183000CD5D03E10A0ECF6F07D0030ECD5D03E14E
:10184000090ECF6F01D0CF69CF2913E1CCC00CF1C5
:1018500001EEB0F0420EEE6E610EEE6E630EEE6EB5
:101860006B0EEE6EEF6ACBC00DF19BEC18F00CEF37
:101870000FF0CF533DE1800E016ECCC002F0010E9F
:1018800012EC00F0030EF76E960EF66E66EC00F0AA
:10189000010E4D5C16E1CCC015F101010B0E166F67
:1018A00001EED1F0030EF76EA20EF66E55EC01F0CC
:1018B000EF6ACBC017F10101186B000121EC19F0A0
:1018C00015D0CCC015F101010B0E166F01EED1F051
:1018D000030EF76EAA0EF66E55EC01F0EF6ACBC060
:1018E00017F10101186B000121EC19F00CEF0FF05A
:1018F000010ECF5DD8A458D0800E016ECCC002F08E
:10190000010E12EC00F0030EF76EB40EF66E66ECEC
:1019100000F0010E4E5C16E1CCC015F101010B0E7A
:10192000166F01EED1F0030EF76EC00EF66E55EC99
:1019300001F0EF6ACBC017F10101186B000121EC37
:1019400019F030D0020E4E5C17E1CCC015F1010148
:101950000B0E166F01EED1F0540EEE6E650EEE6EAC
:101960006D0EEE6E700EEE6EEF6ACBC017F1186B57
:10197000000121EC19F016D0CCC015F101010B0EBD
:10198000166F01EED1F0460EEE6E6C0EEE6E6F0E1F
:10199000EE6E770EEE6EEF6ACBC017F1186B00019A
:1019A00021EC19F00CEF0FF0020ECF5D27E1800E55
:1019B000016ECCC002F0010E12EC00F0030EF76EC7
:1019C000CA0EF66E66EC00F051C003F150C002F191
:1019D0006DEC18F005C1D3F004C1D2F0CCC027F1F2
:1019E00001010B0E286FD3C02AF1D2C029F1CBC060
:1019F0002BF12C6B000119EC1AF00ED2030ECF5D07
:101A000027E1800E016ECCC002F0010E12EC00F056
:101A1000030EF76ED60EF66E66EC00F053C003F1BF
:101A200052C002F16DEC18F005C1D5F004C1D4F03C
:101A3000CCC027F101010B0E286FD5C02AF1D4C00C
:101A400029F1CBC02BF12C6B000119EC1AF0E4D179
:101A5000040ECF5D2DE1010E4E5C0EE1800E016E95
:101A6000CCC002F0010E12EC00F0030EF76EE20E95
:101A7000F66E66EC00F00DD0800E016ECCC002F068
:101A8000010E12EC00F0030EF76EEE0EF66E66EC31
:101A900000F0CCC021F101010B0E226F55C024F1E2
:101AA00054C023F1CBC025F10001DBEC19F0B4D117
:101AB000050ECF5D1CE1800E016ECCC002F0010E60
:101AC00012EC00F0030EF76EFA0EF66E66EC00F004
:101AD000CCC021F101010B0E226F57C024F156C07A
:101AE00023F1CBC025F10001DBEC19F095D1060EF6
:101AF000CF5D2DE1010E4E5C0EE1800E016ECCC07B
:101B000002F0010E12EC00F0040EF76E060EF66EF7
:101B100066EC00F00DD0800E016ECCC002F0010E1C
:101B200012EC00F0040EF76E120EF66E66EC00F08A
:101B3000CCC021F101010B0E226F59C024F158C015
:101B400023F1CBC025F10001DBEC19F065D1070EC4
:101B5000CF5DD8A45AD0800E016ECCC002F0010E29
:101B600012EC00F0040EF76E1E0EF66E66EC00F03E
:101B70005A5213E1CCC015F101010B0E166F01EEA4
:101B8000D1F04E0EEE6E6F0EEE6EEF6ACBC017F117
:101B9000186B000121EC19F037D0010E5A5C19E1E5
:101BA000CCC015F101010B0E166F01EED1F0500EF5
:101BB000EE6E750EEE6E6C0EEE6E730EEE6E650EC4
:101BC000EE6EEF6ACBC017F1186B000121EC19F033
:101BD0001BD0020E5A5C18E1CCC015F101010B0EAE
:101BE000166F01EED1F04C0EEE6E610EEE6E740EBD
:101BF000EE6E630EEE6E680EEE6EEF6ACBC017F1FE
:101C0000186B000121EC19F007D1080ECF5DD8A4A4
:101C10005AD0800E016ECCC002F0010E12EC00F022
:101C2000040EF76E2A0EF66E66EC00F05B5213E1BE
:101C3000CCC015F101010B0E166F01EED1F04E0E66
:101C4000EE6E6F0EEE6EEF6ACBC017F1186B0001EF
:101C500021EC19F037D0010E5B5C19E1CCC015F115
:101C600001010B0E166F01EED1F0500EEE6E750EE7
:101C7000EE6E6C0EEE6E730EEE6E650EEE6EEF6A2D
:101C8000CBC017F1186B000121EC19F01BD0020E2C
:101C90005B5C18E1CCC015F101010B0E166F01EE73
:101CA000D1F04C0EEE6E610EEE6E740EEE6E630EA3
:101CB000EE6E680EEE6EEF6ACBC017F1186B000186
:101CC00021EC19F0A9D0090ECF5DD8A46BD0010E7C
:101CD0004E5C0EE1800E016ECCC002F0010E12ECE3
:101CE00000F0040EF76E360EF66E66EC00F00DD0C6
:101CF000800E016ECCC002F0010E12EC00F0040E5A
:101D0000F76E420EF66E66EC00F05C5213E1CCC04A
:101D100015F101010B0E166F01EED1F04E0EEE6EB5
:101D20006F0EEE6EEF6ACBC017F1186B000121EC5D
:101D300019F037D0010E5C5C19E1CCC015F101013E
:101D40000B0E166F01EED1F0500EEE6E750EEE6EAC
:101D50006C0EEE6E730EEE6E650EEE6EEF6ACBC01D
:101D600017F1186B000121EC19F01BD0020E5C5C1E
:101D700018E1CCC015F101010B0E166F01EED1F088
:101D80004C0EEE6E610EEE6E740EEE6E630EEE6E27
:101D9000680EEE6EEF6ACBC017F1186B000121ECF4
:101DA00019F03AD00A0ECF5D37E1800E016ECCC03B
:101DB00002F0010E12EC00F0040EF76E4E0EF66EFD
:101DC00066EC00F0010E5D5C15E1CCC015F101017F
:101DD0000B0E166F01EED1F0590EEE6E650EEE6E23
:101DE000730EEE6EEF6ACBC017F1186B000121EC99
:101DF00019F012D0CCC015F101010B0E166F01EED7
:101E0000D1F04E0EEE6E6F0EEE6EEF6ACBC017F194
:101E1000186B000121EC19F004D0CCC0A3F0FAEC4F
:101E200007F0CC2BD8A074EF0BF0209227EC09F030
:101E300029520CE0010E295C05E1CE51C85D01E29A
:101E4000C82B03D0C85301E0C807208253EC09F027
:101E500054EC09F0010EAD5DD8A4AAD1C951C85DFA
:101E6000176E186AD8A01806020E1724D06F010E3C
:101E70004E5CD8A442D0C85302E1CF6B3DD0010ED6
:101E8000C85D03E1010ECF6F37D0020EC85D03E1DC
:101E9000020ECF6F31D0030EC85D03E1030ECF6F8A
:101EA0002BD0040EC85D03E1040ECF6F25D0050EC4
:101EB000C85D03E1050ECF6F1FD0060EC85D03E1BC
:101EC000060ECF6F19D0070EC85D03E1070ECF6F66
:101ED00013D0080EC85D03E1080ECF6F0DD0090EB8
:101EE000C85D03E1090ECF6F07D00A0EC85D03E19C
:101EF0000A0ECF6F01D0CF6950D0020E4E5C36E192
:101F0000C85302E1CF6B31D0010EC85D03E1010E71
:101F1000CF6F2BD0020EC85D03E1020ECF6F25D02C
:101F2000030EC85D03E1030ECF6F1FD0040EC85D22
:101F300003E1040ECF6F19D0050EC85D03E1060E54
:101F4000CF6F13D0060EC85D03E1070ECF6F0DD023
:101F5000070EC85D03E1090ECF6F07D0080EC85DFC
:101F600003E10A0ECF6F01D0CF6917D0C85302E149
:101F7000CF6B13D0010EC85D03E1010ECF6F0DD002
:101F8000020EC85D03E10A0ECF6F07D0030EC85DD5
:101F900003E1090ECF6F01D0CF69CF2908E1020E0E
:101FA0009E6FC7EC07F0010EC76F120001D1CF532F
:101FB00011E101014D0E316F0001C0EC1AF032C188
:101FC000D1F0010ED15D04E1010EFF6F9EEC16F021
:101FD0002082EED0010ECF5D11E101014E0E346F73
:101FE000000123EC1BF035C1D1F0010ED15D04E1FD
:101FF000010EFF6F9EEC16F02082DAD0020ECF5D4C
:1020000023E151C003F150C002F16DEC18F005C19D
:10201000D7F004C1D6F0E36BD60EE26FD0C0E4F087
:102020000CDA010EE55D0EE1D7C0BAF0D6C0B9F00A
:10203000C7EC0AF0BCC051F0BBC050F0010EFF6FFE
:102040009EEC16F02082B4D0030ECF5D23E153C086
:1020500003F152C002F16DEC18F005C1D9F004C1D2
:10206000D8F0E36BD80EE26FD0C0E4F0E6D9010EF1
:10207000E55D0EE1D9C0BAF0D8C0B9F0C7EC0AF0FE
:10208000BCC053F0BBC052F0010EFF6F9EEC16F0C7
:1020900020828ED0040ECF5D12E10101386B540E08
:1020A000376F0001A2EC1BF039C1D1F0010ED15DF8
:1020B00004E1010EFF6F9EEC16F0208279D0050E30
:1020C000CF5D12E10101386B560E376F0001A2ECB3
:1020D0001BF039C1D1F0010ED15D04E1010EFF6F9B
:1020E0009EEC16F0208264D0060ECF5D12E1010155
:1020F000386B580E376F0001A2EC1BF039C1D1F0DC
:10210000010ED15D04E1010EFF6F9EEC16F02082FE
:102110004FD0070ECF5D11E101015A0E346F00015F
:1021200023EC1BF035C1D1F0010ED15D04E1010EAD
:10213000FF6F9EEC16F020823BD0080ECF5D11E1C0
:1021400001015B0E346F000123EC1BF035C1D1F0AF
:10215000010ED15D04E1010EFF6F9EEC16F02082AE
:1021600027D0090ECF5D11E101015C0E346F000133
:1021700023EC1BF035C1D1F0010ED15D04E1010E5D
:10218000FF6F9EEC16F0208213D00A0ECF5D10E197
:1021900001015D0E316F0001C0EC1AF032C1D1F0C7
:1021A000010ED15D04E1010EFF6F9EEC16F020825E
:1021B000E2EC18F001011053000103E0010EC76FBB
:1021C000120029EF0BF01200030EDC6FDB6BDE6BED
:1021D000DF69208220A27CD001EE4DF0040EF76E64
:1021E0005A0EF66E55EC01F0EF6A07EC08F0020E9D
:1021F000A36FFAEC07F0030EA36FFAEC07F0040EDE
:10220000A36FFAEC07F0DB5303E1010EDD6F01D0A1
:10221000DD6B800E016EC00E30EC00F0040EF76E28
:10222000700EF66E66EC00F00101020E216F0B0ECF
:10223000226F43C024F142C023F1DDC025F100012B
:10224000DBEC19F0010EDB5D03E1010EDD6F01D067
:10225000DD6B800E016E940E30EC00F0040EF76E14
:102260007C0EF66E66EC00F00101030E1B6F0B0E88
:102270001C6F45C01EF144C01DF1DDC01FF10001FF
:1022800095EC19F0020EDB5D12E1040EA46F01EE75
:102290006EF0420EEE6E610EEE6E630EEE6E6B0E23
:1022A000EE6EEF6A010EA56F1DEC08F010D0040E63
:1022B000A46F01EE6EF0420EEE6E610EEE6E630ED6
:1022C000EE6E6B0EEE6EEF6AA56B1DEC08F02092C1
:1022D00027EC09F02952D8B44BD0DE5317E1010E98
:1022E000295C0FE1FF0EDC25056E066AFF0E062253
:1022F000065203E10550DB5D03E20001DB2B208287
:1023000004D0DB5302E0DB07208232D0DF5317E139
:10231000010E295C09E1010E435C2C0ED8B4425C2D
:1023200002E2424A432A09D0435203E10B0E425CC7
:1023300003E34206000E435A0001208219D0010E29
:10234000DF5D16E1010E295C09E1070E455CD00E48
:10235000D8B4445C02E2444A452A09D0455203E11C
:102360000B0E445C03E34406000E455A0001208234
:1023700053EC09F054EC09F0010EAD5DD8A440D047
:10238000020E9E6FC7EC07F0DE5317E1020EDB5D15
:1023900004E1010EDA6F12000FD0010EDE6FDBC018
:1023A000DFF0DB5305E143C0E1F042C0E0F004D0D0
:1023B00045C0E1F044C0E0F023D0DF530FE101015C
:1023C000076B420E066F096B0A0E086F010E0B6F4A
:1023D0002C0E0A6F000184EC18F00ED00101076B7F
:1023E000440E066F096B0A0E086F070E0B6FD00EB6
:1023F0000A6F000184EC18F072EC18F0DE6BDF69F4
:10240000E2EC18F001011053000115E0010EDE5D51
:102410000FE1DF5305E1E1C043F0E0C042F004D03A
:10242000E1C045F0E0C044F0DE6BDF69208203D0FC
:10243000010EDA6F1200CED612000B0EE66FE351DA
:10244000E8AE09D0010EE86FE2510008E96F000E16
:10245000E355EA6F05D0E86BE3C0EAF0E2C0E9F0CB
:10246000010EEA5D09E303E1F50EE95D05E3000114
:10247000010EEA6FF40EE96FEAC00AF0E9C009F054
:102480000E6A640E0D6EFDEC00F0EB6FEAC00AF010
:10249000E9C009F00E6A640E0D6EFDEC00F010C08C
:1024A000EAF00FC0E9F0EAC00AF0E9C009F00E6AEC
:1024B0000A0E0D6EFDEC00F0EC6FEAC00AF0E9C008
:1024C00009F00E6A0A0E0D6EFDEC00F00FC0EDF083
:1024D000050EEB5D02E1EC6BED6B186AE6C017F0E0
:1024E000174A182A1A6A080E196E040E195E000E91
:1024F0001A5A17501924F46FE4C04BF1E6C04CF19E
:1025000019EC1DF0E4C03FF1F4050101406F00013A
:10251000A2EC1CF00101280E3D6F00018CEC1CF0B8
:10252000E4C03FF1090EE6250101406F0001A2EC75
:102530001CF00101290E3D6F00018CEC1CF0E4C081
:102540003FF1F4C040F1A2EC1CF0010EE85D07E1A0
:1025500001012D0E3D6F00018CEC1CF006D0010135
:102560002B0E3D6F00018CEC1CF0E4C03FF1F42910
:102570000101406F0001A2EC1CF0300EEB250101BF
:102580003D6F00018CEC1CF0E4C03FF1020EF4251D
:102590000101406F0001A2EC1CF0300EEC2501019E
:1025A0003D6F00018CEC1CF0E4C03FF1030EF425FC
:1025B0000101406F0001A2EC1CF0300EED2501017D
:1025C0003D6F00018CEC1CF0E8C0EEF0EBC0EFF0CA
:1025D000ECC0F0F0EDC0F1F0E76BF26BF4C0F5F099
:1025E000020EF36F010EFA6F21C0F6F022C0F7F071
:1025F00023C0F8F024C0F9F0E56BFB6BF651215CC9
:10260000056EF7512258066EF8512358076EF9519E
:102610002458086E000E085C1EE30BE1000E075CF8
:102620001AE307E1000E065C16E303E1FA0E055C0F
:1026300012E3010E0001FA5D02E1FA6B02D0010E15
:10264000FA6F21C0F6F022C0F7F023C0F8F024C0E2
:10265000F9F0010EFB6FE751F25DD8B45AD0F25396
:1026600017E1E4C03FF1F4C040F1A2EC1CF0010E10
:10267000E85D07E101012D0E3D6F00018CEC1CF0BF
:1026800006D001012B0E3D6F00018CEC1CF03AD0FE
:10269000010EF25D10E1E4C03FF1F4290101406F49
:1026A0000001A2EC1CF0300EEB2501013D6F000192
:1026B0008CEC1CF027D0020EF25D11E1E4C03FF17A
:1026C000020EF4250101406F0001A2EC1CF0300E57
:1026D000EC2501013D6F00018CEC1CF013D0030EC2
:1026E000F25D10E1E4C03FF1030EF4250101406FFB
:1026F0000001A2EC1CF0300EED2501013D6F000140
:102700008CEC1CF0E7C0F2F0020EF36FE751F425F9
:10271000F56F010EFB5D010ED8A4000E1F6E020EB8
:10272000F35D010ED8A4000E1F12D8B449D0FA519F
:10273000F35DD8B445D0E4C03FF1F5C040F1A2EC60
:102740001CF0010EFA5D34E1E75311E1010EE85D82
:1027500007E101012D0E3D6F00018CEC1CF006D04D
:1027600001012B0E3D6F00018CEC1CF020D0010EFE
:10277000E75D08E1300EEB2501013D6F00018CECB7
:102780001CF015D0020EE75D08E1300EEC250101CA
:102790003D6F00018CEC1CF00AD0030EE75D07E1F1
:1027A000300EED2501013D6F00018CEC1CF006D0D0
:1027B0000101200E3D6F00018CEC1CF0FAC0F3F01B
:1027C00027EC09F02952D8B40AD2E75334E1E85390
:1027D00003E1010EE86F01D0E86BE851EE5D2AE0FD
:1027E000E4C03FF1F4C040F1A2EC1CF0010EE7534D
:1027F000D8A4000E1F6E010EFA53D8A4000E1F16A7
:1028000007E00101200E3D6F00018CEC1CF010D0A0
:10281000010EE85D07E101012D0E3D6F00018CEC1A
:102820001CF006D001012B0E3D6F00018CEC1CF05A
:10283000E8C0EEF0D4D1010EE75DD8A465D0010E5A
:10284000295C37E1050EEB5D33E2EB2B050EEB5D0A
:102850002FE1000EEC53D8A4010E1F6E000EED53B5
:10286000D8A4010E1F1224E0EC6BED6BE4C03FF125
:10287000020EF4250101406F0001A2EC1CF00101E1
:10288000300E3D6F00018CEC1CF0E4C03FF1030EF4
:10289000F4250101406F0001A2EC1CF00101300E93
:1028A0003D6F00018CEC1CF0ECC0F0F0EDC0F1F0DD
:1028B00003D0EB5301E0EB07EB51EF5D24E0E4C004
:1028C0003FF1F4290101406F0001A2EC1CF0010E60
:1028D000E75D010ED8A4000E1F6E010EFA53D8A4B6
:1028E000000E1F1607E00101200E3D6F00018CEC69
:1028F0001CF007D0300EEB2501013D6F00018CEC80
:102900001CF0EBC0EFF06BD1020EE75DD8A4D6D07F
:10291000050EEB5DD8A443D0000EEC53D8A4010EF5
:102920001F6E000EED53D8A4010E1F1237E0EC6BA2
:10293000ED6BE4C03FF1020EF4250101406F000190
:10294000A2EC1CF0020EE75D010ED8A4000E1F6E73
:10295000010EFA53D8A4000E1F1607E00101200E45
:102960003D6F00018CEC1CF006D00101300E3D6F74
:1029700000018CEC1CF0E4C03FF1030EF4250101D2
:10298000406F0001A2EC1CF00101300E3D6F000110
:102990008CEC1CF0ECC0F0F0EDC0F1F08ED0EB51FF
:1029A000640DF3CF17F0F4CF18F01750F408FC6F54
:1029B000FCC009F00A0EFAEC00F0FD6F0A0EFD5D96
:1029C00002E3090EFD6F010E295C05E1FD51EC5D8E
:1029D00001E2EC2B03D0EC5301E0EC07EC51F05D8D
:1029E000D8B46BD0E4C03FF1020EF4250101406F72
:1029F0000001A2EC1CF0020EE75D010ED8A4000E4F
:102A00001F6E010EFA53D8A4000E1F1607E0010135
:102A1000200E3D6F00018CEC1CF007D0300EEC2531
:102A200001013D6F00018CEC1CF0ECC0F0F0010ED8
:102A3000186EF40E176E1A6AEBC019F01A50640D76
:102A4000F3CF1AF01950640DF3CF19F0F4501A2691
:102A50001950175C176E1A501858186E1A6AECC085
:102A600019F01A500A0DF3CF1AF019500A0DF3CFCE
:102A700019F0F4501A261950175CFC6F0A0EFC5D11
:102A800003E3090EFE6F02D0FCC0FEF0ED51FE5DC7
:102A900014E2FEC0EDF0E4C03FF1030EF4250101A5
:102AA000406F0001A2EC1CF0300EED2501013D6FDE
:102AB00000018CEC1CF0EDC0F1F091D0030EE75D4D
:102AC000D8A48DD0050EEB5D28E1ED5325E0ED6B2C
:102AD000E4C03FF1030EF4250101406F0001A2ECB8
:102AE0001CF0030EE75D010ED8A4000E1F6E010E50
:102AF000FA53D8A4000E1F1607E00101200E3D6F07
:102B000000018CEC1CF006D00101300E3D6F00017D
:102B10008CEC1CF0EDC0F1F062D0010E186EF40EDA
:102B2000176E1A6AEBC019F01A50640DF3CF1AF041
:102B30001950640DF3CF19F0F4501A261950175C90
:102B4000176E1A501858186E1A6AECC019F01A50FD
:102B50000A0DF3CF1AF019500A0DF3CF19F0F45003
:102B60001A261950175CFC6F0A0EFC5D03E3090E70
:102B7000FE6F02D0FCC0FEF0010E295C05E1FE51A3
:102B8000ED5D01E2ED2B03D0ED5301E0ED07ED51DA
:102B9000F15D25E0E4C03FF1030EF4250101406F33
:102BA0000001A2EC1CF0030EE75D010ED8A4000E9C
:102BB0001F6E010EFA53D8A4000E1F1607E0010184
:102BC000200E3D6F00018CEC1CF007D0300EED257F
:102BD00001013D6F00018CEC1CF0EDC0F1F053ECF5
:102BE00009F054EC09F0010EAD5DD8A4A4D0E4C006
:102BF0003FF1E751F4250101406F0001A2EC1CF008
:102C0000E75311E1010EE85D07E101012D0E3D6F73
:102C100000018CEC1CF006D001012B0E3D6F000171
:102C20008CEC1CF020D0010EE75D08E1300EEB25A6
:102C300001013D6F00018CEC1CF015D0020EE75D28
:102C400008E1300EEC2501013D6F00018CEC1CF019
:102C50000AD0030EE75D07E1300EED2501013D6F5F
:102C600000018CEC1CF0010EFA6FF36F21C0F6F03E
:102C700022C0F7F023C0F8F024C0F9F0030EE75D9E
:102C800007E2E72BE751F425F56F020EF36F53D0FF
:102C9000186AEBC017F01850640DF3CF18F01750F6
:102CA000640DF3CF17F0F45018261A6AECC019F02F
:102CB0001A500A0DF3CF1AF019500A0DF3CF19F07C
:102CC000F4501A26195017261A501822ED511724BD
:102CD000E96F000E1820EA6F010EE85D07E1E95187
:102CE0000008E26F000EEA55E36F04D0EAC0E3F09B
:102CF000E9C0E2F0E351E8BE0CD0010EE35D09E368
:102D000003E1F50EE25D05E30001010EE36FF40E51
:102D1000E26FE351E8AE0CD0FE0EE35D04E308E1A0
:102D20000C0EE25D05E20001FE0EE36F0C0EE26F99
:102D3000010EE56F1200FDEF12F01200FFC0B6F0B9
:102D4000B5EC0AF0B8C001F1B7C000F1010EFF5DAB
:102D5000D8A495D001C1AAFF00C1A9FF4D50CBEC6A
:102D600000F0010E01010025A96E000E0121AA6EDE
:102D70004E50CBEC00F0020E01010025A96E000EB2
:102D80000121AA6E4F50CBEC00F0040E010100258A
:102D90000001946F000E010101210001956F51C0E7
:102DA00097F050C096F023EC06F0060E01010025C6
:102DB0000001946F000E010101210001956F53C0C5
:102DC00097F052C096F023EC06F0080E01010025A2
:102DD0000001946F000E010101210001956F55C0A3
:102DE00097F054C096F023EC06F00A0E010100257E
:102DF0000001946F000E010101210001956F57C081
:102E000097F056C096F023EC06F00C0E0101002559
:102E10000001946F000E010101210001956F59C05E
:102E200097F058C096F023EC06F00E0E0101002535
:102E3000A96E000E0121AA6E5A50CBEC00F00F0EC5
:102E400001010025A96E000E0121AA6E5B50CBEC9A
:102E500000F0100E01010025A96E000E0121AA6EDE
:102E60005C50CBEC00F0110E01010025A96E000EA4
:102E70000121AA6E5D50CBEC00F000012DD1020EB5
:102E8000FF5DD8A495D001C1AAFF00C1A9FF5E5083
:102E9000CBEC00F0010E01010025A96E000E01210E
:102EA000AA6E5F50CBEC00F0020E01010025A96E66
:102EB000000E0121AA6E6050CBEC00F0040E01015F
:102EC00000250001946F000E010101210001956FA2
:102ED00062C097F061C096F023EC06F0060E010187
:102EE00000250001946F000E010101210001956F82
:102EF00064C097F063C096F023EC06F0080E010161
:102F000000250001946F000E010101210001956F61
:102F100066C097F065C096F023EC06F00A0E01013A
:102F200000250001946F000E010101210001956F41
:102F300068C097F067C096F023EC06F00C0E010114
:102F400000250001946F000E010101210001956F21
:102F50006AC097F069C096F023EC06F00E0E0101EE
:102F60000025A96E000E0121AA6E6B50CBEC00F07B
:102F70000F0E01010025A96E000E0121AA6E6C50F2
:102F8000CBEC00F0100E01010025A96E000E01210E
:102F9000AA6E6D50CBEC00F0110E01010025A96E58
:102FA000000E0121AA6E6E50CBEC00F0000193D010
:102FB00001C1AAFF00C1A9FF6F50CBEC00F0010EC8
:102FC00001010025A96E000E0121AA6E7050CBEC04
:102FD00000F0020E01010025A96E000E0121AA6E6B
:102FE0007150CBEC00F0040E010100250001946F3C
:102FF000000E010101210001956F73C097F072C0AE
:1030000096F023EC06F0060E010100250001946FF6
:10301000000E010101210001956F75C097F074C089
:1030200096F023EC06F0080E010100250001946FD4
:10303000000E010101210001956F77C097F076C065
:1030400096F023EC06F00A0E010100250001946FB2
:10305000000E010101210001956F79C097F078C041
:1030600096F023EC06F00C0E010100250001946F90
:10307000000E010101210001956F7BC097F07AC01D
:1030800096F023EC06F00E0E01010025A96E000E4D
:103090000121AA6E7C50CBEC00F00F0E010100253F
:1030A000A96E000E0121AA6E7D50CBEC00F0100E2F
:1030B00001010025A96E000E0121AA6E7E50CBEC05
:1030C00000F0110E01010025A96E000E0121AA6E6B
:1030D0007F50CBEC00F00001120003C105F102C1EA
:1030E00004F11200956BC80E946F43C097F042C074
:1030F00096F023EC06F0956BCA0E946F45C097F0DE
:1031000044C096F023EF06F001010851065D095115
:103110000759000104E209C107F108C106F10101E4
:1031200006510A5D07510B59000104E20BC107F17A
:103130000AC106F112000CC1A3F0FAEC07F001EE8F
:10314000B0F0000EEE5202E0E83EFCD701010E6F37
:10315000140E0E5D000103E30101130E0E6F010159
:103160000E5114080F6F800E016E0CC102F00F514A
:1031700012EC00F001EEB0F0EE5003E06EEC00F067
:10318000FBD7010E01010D5D00011BE1020E0101E3
:103190000F5D00010BE3800E016E0CC102F0010116
:1031A0000F0512EC00F05B0E6EEC00F00001800EDB
:1031B000016E0CC102F0140E12EC00F05D0E6EEC0C
:1031C00000F0120042C009F043C00AF00B6A0C6A1A
:1031D000126A116A030E106EE80E0F6E14EC01F005
:1031E00009C011F10AC012F10BC013F10CC014F1A7
:1031F0002550215C056E26502258066E2750235814
:10320000076E28502458086E01011151055C1251B7
:103210000658135107581451085800010EE320B402
:1032200007D02084040E9E6FC7EC07F0020E466E96
:103230000101010E106F000102D00101106B0001AD
:10324000120001EED1F0000EEE5202E0E83EFCD793
:103250000101196F090E195D000103E30101080E58
:10326000196F0001186A16C117F0174A182A1A6A4E
:10327000080E196E01011951195E000E1A5A1750E5
:1032800019241A6F15C14BF116C14CF1000119EC4C
:103290001DF0010E0101175D000136E1010E010173
:1032A000185D000119E1800E016E15C102F00101E7
:1032B0001A0512EC00F0280E6EEC00F0800E016E84
:1032C00015C102F0090E0101162512EC00F0290EBD
:1032D0006EEC00F0000117D0800E016E15C102F0F7
:1032E00001011A0512EC00F05B0E6EEC00F0800E8E
:1032F000016E15C102F0090E0101162512EC00F055
:103300005D0E6EEC00F00001800E016E15C102F042
:1033100001011A5112EC00F001EED1F0EE5003E081
:103320006EEC00F0FBD700011200186A1CC117F008
:10333000174A182A1A6A080E196E050E195E000E31
:103340001A5A175019240101206F1BC14BF11CC1DF
:103350004CF1000119EC1DF0010E01011F5D00018F
:1033600017E1800E016E1BC102F00101200512EC75
:1033700000F05B0E6EEC00F0800E016E1BC102F0DF
:10338000090E01011C2512EC00F05D0E6EEC00F040
:103390000001800E016E1BC102F00101205112ECF0
:1033A00000F0050E046E1EC110F01DC10FF03AECC6
:1033B00000F000011200186A22C117F0174A182AFB
:1033C0001A6A080E196E050E195E000E1A5A175069
:1033D00019240101266F21C14BF122C14CF10001DA
:1033E00019EC1DF0010E0101255D000117E1800EB1
:1033F000016E21C102F00101260512EC00F05B0E06
:103400006EEC00F0800E016E21C102F0090E010188
:10341000222512EC00F05D0E6EEC00F0000121C1DF
:1034200043F126C144F124C146F123C145F1D9EF4E
:103430001CF001012A510001E8AE05D00101050E82
:103440002D6F000103D00101040E2D6F090E010143
:103450002D5D000103E30101080E2D6F0001186AC4
:1034600028C117F0174A182A1A6A080E196E0101A6
:103470002D51195E000E1A5A175019242E6F800E06
:10348000016E27C102F0285112EC00F0040EF76E15
:10349000880EF66E66EC00F0010E01012B5D000156
:1034A00035E1010E01012C5D000119E1800E016E74
:1034B00027C102F001012E0512EC00F0280E6EEC7F
:1034C00000F0800E016E27C102F0090E01012825CF
:1034D00012EC00F0290E6EEC00F0000117D0800E07
:1034E000016E27C102F001012E0512EC00F05B0E07
:1034F0006EEC00F0800E016E27C102F0090E010192
:10350000282512EC00F05D0E6EEC00F001012A514E
:103510000001E8AE23D0800E016E27C102F0010148
:103520002E5112EC00F02D0E6EEC00F0010129512D
:1035300000082F6F000E2A55306F800E016E27C1D4
:1035400002F02E2912EC00F0040E046E30C110F0CF
:103550002FC10FF03AEC00F0000110D0800E016E88
:1035600027C102F001012E5112EC00F0040E046E8E
:103570002AC110F029C10FF03AEC00F0000112004E
:1035800031C133F1208220A238D0010E9E6FC7ECEA
:1035900007F001EE4DF0040EF76E940EF66E55EC4A
:1035A00001F0EF6A07EC08F0020EA36FFAEC07F0E7
:1035B000030EA36FFAEC07F0040EA36FFAEC07F00A
:1035C000010E0101335D00010CE1800E016E940ECD
:1035D00030EC00F0040EF76EA80EF66E66EC00F00C
:1035E0000BD0800E016E940E30EC00F0040EF76EDE
:1035F000BE0EF66E66EC00F0209227EC09F0295220
:103600000EE0010E0101335D000104E10101336BA5
:10361000000103D00101010E336F0001208253EC41
:1036200009F054EC09F0010EAD5D0BE1020E9E6F46
:10363000C7EC07F033C131F10101010E326F000117
:103640001200A1D7120034C136F1208220A24DD041
:10365000010E9E6FC7EC07F001EE4DF0040EF76E01
:10366000D40EF66E55EC01F0EF6A07EC08F0020E8E
:10367000A36FFAEC07F0030EA36FFAEC07F0040E49
:10368000A36FFAEC07F00101365300010CE1800E44
:10369000016E940E30EC00F0040EF76EE80EF66E3C
:1036A00066EC00F021D0010E0101365D00010CE155
:1036B000800E016E940E30EC00F0040EF76EFE0EDC
:1036C000F66E66EC00F010D0020E0101365D0001CE
:1036D0000BE1800E016E940E30EC00F0050EF76EDB
:1036E000140EF66E66EC00F0209227EC09F0010E45
:1036F000295C0AE1020E0101365D000102E20101CE
:10370000362B000120820AD0292808E10101365316
:10371000000102E0010136070001208253EC09F0AC
:1037200054EC09F0010EAD5D0BE1020E9E6FC7EC8B
:1037300007F036C134F10101010E356F00011200AE
:1037400085D7120038C10AF037C109F00E6A3C0E65
:103750000D6EFDEC00F001013A6F38C10AF037C17F
:1037600009F00E6A3C0E0D6EFDEC00F00FC03BF14F
:1037700001013C6B2082000120A274D0010E9E6FDB
:10378000C7EC07F001EE4DF0050EF76E2A0EF66E4F
:1037900055EC01F0EF6A07EC08F0020EA36FFAECAB
:1037A00007F0030EA36FFAEC07F0040EA36FFAEC18
:1037B00007F001013C5300012BE1800E016E940ED5
:1037C00030EC00F0200E6EEC00F05B0E6EEC00F0C2
:1037D000020E046E01013A5138EC00F05D0E6EEC01
:1037E00000F0200E6EEC00F03A0E6EEC00F0200EB1
:1037F0006EEC00F0020E046E01013B5138EC00F05B
:10380000050EF76E3E0EF66E66EC00F0000128D055
:10381000800E016E940E30EC00F0200E6EEC00F085
:103820006EEC00F0020E046E01013A5138EC00F02B
:10383000200E6EEC00F03A0E6EEC00F0200E6EECF6
:1038400000F05B0E6EEC00F0020E046E01013B51C5
:1038500038EC00F0050EF76E480EF66E66EC00F0E0
:103860000001209227EC09F0010E295C17E101010B
:103870003C53000109E1630E01013A5D000102E2DF
:1038800001013A2B000108D03B0E01013B5D000114
:1038900002E201013B2B0001208216D0292814E10D
:1038A00001013C53000108E101013A53000102E02B
:1038B00001013A07000107D001013B53000102E07A
:1038C00001013B070001208253EC09F054EC09F0A0
:1038D000010EAD5D1FE1020E9E6FC7EC07F0010106
:1038E0003C53000106E10101010E3C6F2082000102
:1038F00011D001013A513C0DF3CF17F0F4CF18F07D
:103900003B511724376F000E1820386F010E396FA6
:103910000001120030D71200808C01013D390F0BDD
:103920003E6F3EC18DF00001F0EC05F00F0E01017D
:103930003D153E6F3EC18DF00001F0EC05F0320EFA
:10394000EFEF00F0010E01013F5D000104E1010114
:10395000416B000118D0020E01013F5D000105E13D
:103960000101400E416F00010ED0030E01013F5DC9
:10397000000105E10101140E416F000103D00101B6
:10398000540E416F0001186A800E176E01014151FB
:103990001726000E18221A6A40C119F01906000EE7
:1039A0001A5A17501924426F42C18EF00001F6EFE7
:1039B00005F046C10AF045C109F00E6A3C0E0D6ED5
:1039C000FDEC00F00101476F0AC048F146C10AF062
:1039D00045C109F00E6A3C0E0D6EFDEC00F010C002
:1039E0004AF10FC049F1800E016E43C102F001019E
:1039F000445112EC00F0020E046E48C110F047C1B1
:103A00000FF03AEC00F03A0E6EEC00F0800E016E12
:103A100043C102F0030E0101442512EC00F0020E36
:103A2000046E4AC110F049C10FF03AEC00F00001F9
:103A30001200800E016E4BC102F001014C5112ECDC
:103A400000F0040EF76E880EF66E66EC00F00001D2
:023A5000120062
:020000040030CA
:03000100081F1EB7
:020005008181F7
:060008000FC00FE00F40E5
:00000001FF
