:020000040000FA
:100000000000000092EF06F0ACEF06F0800E016EEB
:10001000FE0EE1D8010EDFD8750E0A6E300E04D147
:10002000016A018E126E1252D8A41206FE0ED3D8A7
:10003000025202E0022C02D0800E0ED00250020AC0
:1000400002E1C00E09D00250030A02E1940E04D06E
:100050000250040A02E1D40E026E12500224BBD0F8
:10006000016A018E126EFE0EB6D81250B4D0046A28
:100070000D6E0E6A00960450D8B40086040E036E0E
:100080000E3805D80E5003D80D3801D80D500F0B7F
:10009000F60FD8B0070F0A0F22D030D803D0046A69
:1000A0000D6E0E6A00960450D8B40086050E036EDD
:1000B000270E0C6E100E0CD8030E0C6EE80E08D82E
:1000C0000C6A640E05D80C6A0A0E02D80D5007D0CF
:1000D0000B6E0E500A6E0D50096EB0D80950096EA5
:1000E000034E0096045002E0035C07E20950D8A4D6
:1000F000009600B602D0300F6ED012000EAE120085
:100100000D500E10D8B412000D1E0E1E0D4A0E2AF0
:100110002D0E61D0A66AA68E0900F55002E002D825
:10012000FBD71200106E899E899C929E929CF00EC5
:100130009216105000B21ED03A0E0A6E980E74D865
:10014000330E0F6E29D8130E0A6E880E6DD824D880
:10015000640E69D821D8640E66D8220E0F6E1CD8A2
:10016000280E07D80C0E05D8060E03D800821050B2
:1001700001D000800F6E00A009D0899C03080AE31B
:1001800009D8070E0A6ED00E4FD812000080FE0864
:1001900014E0898C0F3A00A00090898EF00E801632
:1001A0000F500F0B8012000000D0899E0F3A000004
:1001B00000D000B0F1D7320E36D810501200A66A27
:1001C000A68E0900F55002E002D8FBD712009EA8C7
:1001D000FED7AD6E120001BEA5D701B4F8D7A86E48
:1001E000A66AA684550EA76EAA0EA76EA682A6B210
:1001F000FED7A694A94AAA2AA68E1200A96EA66ABC
:10020000A680A850A94AAA2AA68E12000C6A0B6ED4
:10021000FF0E0B260C2200D0D8A01200030E0A6E8F
:10022000E60E02D8F5D70A6AFD0F096E01D009065D
:10023000000000D0E86A0A5AFAE212000E6A0D6A5B
:10024000100EF36E0A340D360E360B500D5C0C504A
:100250000E5805E30B500D5E0C500E5AD88009362F
:100260000A36F32EEFD709501200A66AA68E0900AF
:10027000F55002E0EE6EFBD7120049525249535935
:1002800053205374617274757020436F6D706C6588
:10029000746500003D3D3D20454550524F4D204383
:1002A0004F4E4649472044554D50203D3D3D0000AE
:1002B00053595354454D20434F4E4649473A000049
:1002C0002020575F55495F54696D656F75745320E1
:1002D0003D200000207365636F6E64730000202072
:1002E000575F55495F50756C73654D7320203D20F5
:1002F00000002020425F45455F466C616773202007
:1003000020203D202400494E505554203120434F99
:100310004E4649473A002020425F49315F456E61B1
:10032000626C656420203D2000002020425F49313E
:100330005F53656E736F725420203D2000002020B3
:10034000425F49315F466C6F774D6F6465203D2099
:1003500000002020575F49315F5363616C65342092
:1003600020203D2000002020575F49315F5363610A
:100370006C65323020203D2000002020575F49313D
:100380005F42505F4869676820203D2000002020C0
:10039000575F49315F42505F504C502020203D2034
:1003A00000002020575F49315F42505F534C50207E
:1003B00020203D2000002020425F49315F526C79AF
:1003C0004869676820203D2000002020425F4931B5
:1003D0005F526C79504C502020203D20000020209E
:1003E000425F49315F526C79534C502020203D20B0
:1003F00000002020425F49315F446973706C61796D
:1004000020203D200000494E505554203220434FBB
:100410004E4649473A002020425F49325F456E61AF
:10042000626C656420203D2000002020425F49323C
:100430005F53656E736F725420203D2000002020B2
:10044000425F49325F466C6F774D6F6465203D2097
:1004500000002020575F49325F5363616C65342090
:1004600020203D2000002020575F49325F53636108
:100470006C65323020203D2000002020575F49323B
:100480005F42505F4869676820203D2000002020BF
:10049000575F49325F42505F504C502020203D2032
:1004A00000002020575F49325F42505F534C50207C
:1004B00020203D2000002020425F49325F526C79AD
:1004C0004869676820203D2000002020425F4932B3
:1004D0005F526C79504C502020203D20000020209D
:1004E000425F49325F526C79534C502020203D20AE
:1004F00000002020425F49325F446973706C61796B
:1005000020203D200000494E505554203320434FB9
:100510004E4649473A002020425F49335F456E61AD
:10052000626C656420203D2000002020425F49333A
:100530005F53656E736F725420203D2000002020B1
:10054000425F49335F466C6F774D6F6465203D2095
:1005500000002020575F49335F5363616C6534208E
:1005600020203D2000002020575F49335F53636106
:100570006C65323020203D2000002020575F493339
:100580005F42505F4869676820203D2000002020BE
:10059000575F49335F42505F504C502020203D2030
:1005A00000002020575F49335F42505F534C50207A
:1005B00020203D2000002020425F49335F526C79AB
:1005C0004869676820203D2000002020425F4933B1
:1005D0005F526C79504C502020203D20000020209C
:1005E000425F49335F526C79534C502020203D20AC
:1005F00000002020425F49335F446973706C617969
:1006000020203D2000003D3D3D20454E4420434FED
:100610004E4649472044554D50203D3D3D004F50EA
:1006200054494F4E532020202020202020202020DD
:10063000202000004D61696E204D656E7500536588
:10064000747570204D656E7500005574696C697421
:1006500079204D656E7500005554494C4954590038
:1006600049525249535953204D41494E2020202090
:1006700020202020000020202020202020202020BA
:1006800020202020202020202020000053455455E9
:10069000502020202020202020202020202020202A
:1006A0000000496E707574203100496E70757420B9
:1006B0003200496E7075742033002028535455421F
:1006C0002920202020202000575F55495F54696D64
:1006D000656F75745300575F55495F50756C73654E
:1006E0004D730000425F45455F466C6167730000D3
:1006F000454550524F4D20534156453A20496E7062
:100700007574200020436F6E666967757261746945
:100710006F6E0000425F49315F456E61626C6564D7
:100720000000425F49315F53656E736F7254000081
:10073000425F49315F466C6F774D6F646500575F6C
:1007400049315F5363616C653400575F49315F53D2
:1007500063616C6532300000575F49315F42505F22
:10076000486967680000575F49315F42505F504CED
:100770005000575F49315F42505F534C5000425F19
:1007800049315F526C79486967680000425F4931BE
:100790005F526C79504C5000425F49315F526C7926
:1007A000534C5000425F49315F446973706C61790A
:1007B0000000425F49325F456E61626C6564000013
:1007C000425F49325F53656E736F72540000425F3F
:1007D00049325F466C6F774D6F646500575F4932F1
:1007E0005F5363616C653400575F49325F536361E7
:1007F0006C6532300000575F49325F42505F486994
:1008000067680000575F49325F42505F504C5000AC
:10081000575F49325F42505F534C5000425F49324C
:100820005F526C79486967680000425F49325F52E5
:100830006C79504C5000425F49325F526C79534C96
:100840005000425F49325F446973706C6179000007
:10085000425F49335F456E61626C65640000425FD0
:1008600049335F53656E736F72540000425F4933C2
:100870005F466C6F774D6F646500575F49335F5318
:1008800063616C653400575F49335F5363616C6526
:1008900032300000575F49335F42505F48696768F4
:1008A0000000575F49335F42505F504C5000575F24
:1008B00049335F42505F534C5000425F49335F52AF
:1008C0006C79486967680000425F49335F526C7910
:1008D000504C5000425F49335F526C79534C50008A
:1008E000425F49335F446973706C61790000206234
:1008F0006C6F636B2066696E616C697A65642073E6
:1009000075636365737366756C6C79004545505209
:100910004F4D204552524F523A20496E7075742007
:10092000000020626C6F636B2066696E616C697A8F
:100930006174696F6E206661696C65640000206394
:100940006F6E66696775726174696F6E2073617628
:1009500065206661696C65640000434C4F434B2021
:1009600020202020202020202020202020200000C7
:1009700054696D656F7574202020000050756C738C
:10098000652020202020000044454255473A205051
:100990005F45455F5772697465426C6B20656E7484
:1009A0007279202D20426C6F636B416464723D004C
:1009B00044454255473A2057726974696E67206D05
:1009C0006167696320627974650044454255473A1E
:1009D000204D61676963207772697465206661697B
:1009E0006C65642C207374617475733D000044451C
:1009F0004255473A2057726974696E67207665726E
:100A000073696F6E20627974650044454255473AB8
:100A10002056657273696F6E2077726974652066FF
:100A200061696C65642C207374617475733D00009A
:100A300044454255473A2043616C63756C61746963
:100A40006E6720636865636B73756D00444542553E
:100A5000473A2043616C63756C6174656420636818
:100A600065636B73756D3D0044454255473A2043BD
:100A70006865636B73756D20777269746520666154
:100A8000696C65642C207374617475733D00444512
:100A90004255473A20426C6F636B2066696E616C09
:100AA000697A6174696F6E207375636365737366C9
:100AB000756C000044454255473A20505F45455FFC
:100AC000436F7079426C6B202D205372633D0000A0
:100AD00044454255473A20436F7079206661696CFE
:100AE00065642061742062797465200020737461EC
:100AF0007475733D000044454255473A20426C6F7F
:100B0000636B20636F707920636F6D706C657465C3
:100B100064207375636365737366756C6C7900002C
:100B2000454550524F4D20534156453A2000494EBD
:100B3000505554200000202020202020202020205C
:100B400020200000456E61626C652020202000009E
:100B5000456E61626C65640044697361626C6564D2
:100B6000000053656E736F722020202000005072C9
:100B700065737375726500005363616C6520342082
:100B80006D6100005363616C6532306D612000005F
:100B90004869676820425020202000004869676843
:100BA0002054425020200000504C50425020202021
:100BB00020200000534C50425020202020200000D4
:100BC0004C6F77205442502020200000526C792036
:100BD0004869676820200000526C7920504C5020F2
:100BE00020200000526C7920534C5020202000001F
:100BF000526C79204C6F772020200000446973707C
:100C00006C6179202020000020202020202020203E
:100C100020200000454449543A204D4F44452020AF
:100C200020202020202020005B4E6F5D202050756A
:100C30006C736520204C6174636820202000204E76
:100C40006F20205B50756C73655D204C6174636828
:100C500020202000204E6F20202050756C736520CE
:100C60005B4C617463685D202000454449543A2020
:100C70004455524154494F4E20202020200020202E
:100C800020202020202020005D2020202020202047
:100C9000200044454255473A20505F4564697453EB
:100CA000335374616E6420656E747279202D20490F
:100CB0005F56616C3D0044454255473A2045787483
:100CC000726163746564202D205369676E3D000076
:100CD00020313030733D000020756E6974733D0023
:100CE00044454255473A204C6F6E672070726573D9
:100CF00073202D20726573746F72696E6720495F6F
:100D00004F72696756616C3D000044454255473A51
:100D100020436F6D6D697474696E6720495F566119
:100D20006C3D0000006A100EAF6E240EAC6E900E8B
:100D3000AB6E00010F0EC16E070EB46E700ED36E57
:100D40009B8C0F0EC16EF19EC40ED56E060ED66E34
:100D5000F294F28AF28EF5D0000113C098F214C01A
:100D600099F2F4CF9AF2F3CF9BF2F2A4E1D0060EFF
:100D7000D66EF2941A2A000E1B221C221D222A2A49
:100D80000A0E2A5CD8A0C9D0766A81B2762A776A20
:100D900081B4772A786A81BC782A76502B5C10E07F
:100DA0002E2A020E2E5C0BE376C02BF02E6A1AC0A0
:100DB0001EF01BC01FF01CC020F01DC021F001D090
:100DC0002E6A77502C5C10E02F2A020E2F5C0BE36A
:100DD00077C02CF02F6A1AC01EF01BC01FF01CC079
:100DE00020F01DC021F001D02F6A78502D5C10E05A
:100DF000302A020E305C0BE378C02DF0306A1AC046
:100E00001EF01BC01FF01CC020F01DC021F001D03F
:100E1000306A2B50020DF3CF13F0F4CF14F02C50A6
:100E20001324796E3150040DF3CF13F0F4CF14F086
:100E3000795013247A6E010E7A5C02E1320622D0D8
:100E4000070E7A5C02E132061DD00E0E7A5C02E1DA
:100E5000320618D0080E7A5C02E1320613D0020E78
:100E60007A5C02E1322A0ED00B0E7A5C02E1322A61
:100E700009D00D0E7A5C02E1322A04D0040E7A5CAD
:100E800001E1322A795225E132BE0ED0020E325CE7
:100E90000BE3354A362A1AC01EF01BC01FF01CC0D7
:100EA00020F01DC021F014D03250800A7E0810E3DB
:100EB000355202E1365203E03506000E365A000183
:100EC0001AC01EF01BC01FF01CC020F01DC021F076
:100ED000326A79C031F02D520DE1FF0E345C04E32B
:100EE00007E1F60E335C04E20A0E3326000E3422CC
:100EF000000112D0345203E1C80E335C0AE3010E44
:100F0000236E1AC01EF01BC01FF01CC020F01DC0B5
:100F100021F00001346A336A2A6A245202E1255220
:100F200006E082842406000E255A000101D0829436
:100F300098C213F099C214F09AC2F4FF9BC2F3FF57
:100F4000110090D895D844D881D8FAD820D906D99C
:100F5000ADD8396A1894236A216A206A1F6A1E6A0A
:100F600018821890256A246A030E3F5C01E33F6AE9
:100F7000030E555C02E3010E556E030E665C02E340
:100F8000020E666E020EF76E7A0EF66EDFEC00F061
:100F90000D0EE7EC00F0C80E06EC01F018A003D02F
:100FA00017D854D818901894C4EC0CF0E3EC0BF05C
:100FB0007DC039F0020E395C09E118941AC01EF0A8
:100FC0001BC01FF01CC020F01DC021F0E7D7FFD7C9
:100FD000100E926E460E936E946A896A8A6A8B6AC4
:100FE000899C899E320E06EC01F0809C030E856F71
:100FF000E6EC0CF0050E06EC01F0030E856FE6EC56
:101000000CF0960E13EC01F0030E856FE6EC0CF07D
:10101000960E13EC01F0020E856FE6EC0CF0960EC6
:1010200013EC01F0280E866FECEC0CF0080E866FC6
:10103000ECEC0CF0010E866FECEC0CF0060E866FFB
:10104000ECEC0CF00C0E866FECEF0CF08D6B050EDB
:101050008C6F68EC0DF006EC00F08D6B020E8C6F5F
:1010600068EF0DF0100E926E460E936E946A1200A9
:101070002B6A81B22B2A2C6A81B42C2A2D6A81BC5E
:101080002D2A2B50020DF3CF13F0F4CF14F02C5077
:101090001324316E2E6A2F6A306A2A6A326A366ADF
:1010A000356A386A376A346A336A120027C088F0B2
:1010B000896B0EEC0DF08A530EE07B6A020E7B5CAE
:1010C00009E2010E8B6F45EC0DF0640E06EC01F0A9
:1010D0007B2AF4E330D027C088F0030E896F0EEC32
:1010E0000DF08A530EE07B6A030E7B5C09E2020E70
:1010F0008B6F45EC0DF0960E06EC01F07B2AF4E3C5
:101100001AD027C088F0020E896F0EEC0DF08A53BA
:101110000EE07B6A040E7B5C09E2010E8B6F45ECEE
:101120000DF0640E06EC01F07B2AF4E304D0030E0C
:101130008B6F45EC0DF0010E0C6EF40E07EF01F015
:1011400000EC0EF0010E9A6F72EC0EF0020E9A6F28
:1011500072EC0EF0030E9A6F72EF0EF0010E401457
:101160007C6E7C5202E1526A02D0010E526E020E77
:1011700040147C6E7C5202E1536A02D0010E536E21
:101180004AC050F049C04FF04DC051F01200020E5D
:10119000F76E940EF66EDFEC00F00D0EE7EC00F04B
:1011A000020EF76EB00EF66EDFEC00F00D0EE7ECFF
:1011B00000F0020EF76EC00EF66EDFEC00F0040ECB
:1011C000016E046A3BC00EF03AC00DF052EC00F024
:1011D000020EF76ED40EF66EDFEC00F00D0EE7ECAB
:1011E00000F0020EF76EDE0EF66EDFEC00F0040E7D
:1011F000016E046A3DC00EF03CC00DF052EC00F0F0
:10120000200EE7EC00F06D0EE7EC00F0730EE7EC5B
:1012100000F00D0EE7EC00F0020EF76EF20EF66E27
:10122000DFEC00F0040E016E020E046E275038EC65
:1012300000F00D0EE7EC00F0030EF76E060EF66EF2
:10124000DFEC00F00D0EE7EC00F0030EF76E160E6B
:10125000F66EDFEC00F0040E016E3E504FEC00F035
:101260000D0EE7EC00F0030EF76E2A0EF66EDFECC3
:1012700000F0040E016E3F504FEC00F00D0EE7EC55
:1012800000F0030EF76E3E0EF66EDFEC00F0040E7B
:10129000016E40504FEC00F00D0EE7EC00F0030E35
:1012A000F76E520EF66EDFEC00F0040E016E046A6B
:1012B00042C00EF041C00DF04DEC00F00D0EE7EC19
:1012C00000F0030EF76E660EF66EDFEC00F0040E13
:1012D000016E046A44C00EF043C00DF04DEC00F006
:1012E0000D0EE7EC00F0030EF76E7A0EF66EDFECF3
:1012F00000F0040E016E046A46C00EF045C00DF009
:1013000052EC00F0200EE7EC00F0730EE7EC00F07A
:10131000650EE7EC00F0630EE7EC00F00D0EE7EC75
:1013200000F0030EF76E8E0EF66EDFEC00F0040E8A
:10133000016E046A48C00EF047C00DF052EC00F098
:10134000200EE7EC00F0730EE7EC00F0650EE7EC22
:1013500000F0630EE7EC00F00D0EE7EC00F0030E7A
:10136000F76EA20EF66EDFEC00F0040E016E046A5A
:101370004AC00EF049C00DF052EC00F0200EE7EC30
:1013800000F0730EE7EC00F0650EE7EC00F0630E82
:10139000E7EC00F00D0EE7EC00F0030EF76EB60E72
:1013A000F66EDFEC00F0040E016E4B504FEC00F0D7
:1013B0000D0EE7EC00F0030EF76ECA0EF66EDFECD2
:1013C00000F0040E016E4C504FEC00F00D0EE7ECF7
:1013D00000F0030EF76EDE0EF66EDFEC00F0040E8A
:1013E000016E4D504FEC00F00D0EE7EC00F0030ED7
:1013F000F76EF20EF66EDFEC00F0040E016E4E504A
:101400004FEC00F00D0EE7EC00F0040EF76E060E48
:10141000F66EDFEC00F00D0EE7EC00F0040EF76E58
:10142000160EF66EDFEC00F0040E016E54504FEC19
:1014300000F00D0EE7EC00F0040EF76E2A0EF66ECB
:10144000DFEC00F0040E016E55504FEC00F00D0E75
:10145000E7EC00F0040EF76E3E0EF66EDFEC00F0E7
:10146000040E016E56504FEC00F00D0EE7EC00F04C
:10147000040EF76E520EF66EDFEC00F0040E016EF5
:10148000046A58C00EF057C00DF04DEC00F00D0E80
:10149000E7EC00F0040EF76E660EF66EDFEC00F07F
:1014A000040E016E046A5AC00EF059C00DF04DECE6
:1014B00000F00D0EE7EC00F0040EF76E7A0EF66EFB
:1014C000DFEC00F0040E016E046A5CC00EF05BC03D
:1014D0000DF052EC00F0200EE7EC00F0730EE7EC9C
:1014E00000F0650EE7EC00F0630EE7EC00F00D0E87
:1014F000E7EC00F0040EF76E8E0EF66EDFEC00F0F7
:10150000040E016E046A5EC00EF05DC00DF052EC78
:1015100000F0200EE7EC00F0730EE7EC00F0650E33
:10152000E7EC00F0630EE7EC00F00D0EE7EC00F0E6
:10153000040EF76EA20EF66EDFEC00F0040E016EE4
:10154000046A60C00EF05FC00DF052EC00F0200E97
:10155000E7EC00F0730EE7EC00F0650EE7EC00F04E
:10156000630EE7EC00F00D0EE7EC00F0040EF76EF2
:10157000B60EF66EDFEC00F0040E016E61504FEC1B
:1015800000F00D0EE7EC00F0040EF76ECA0EF66EDA
:10159000DFEC00F0040E016E62504FEC00F00D0E17
:1015A000E7EC00F0040EF76EDE0EF66EDFEC00F0F6
:1015B000040E016E63504FEC00F00D0EE7EC00F0EE
:1015C000040EF76EF20EF66EDFEC00F0040E016E04
:1015D00064504FEC00F00D0EE7EC00F0050EF76ED6
:1015E000060EF66EDFEC00F00D0EE7EC00F0050ED7
:1015F000F76E160EF66EDFEC00F0040E016E65500D
:101600004FEC00F00D0EE7EC00F0050EF76E2A0E21
:10161000F66EDFEC00F0040E016E66504FEC00F049
:101620000D0EE7EC00F0050EF76E3E0EF66EDFECE9
:1016300000F0040E016E67504FEC00F00D0EE7EC69
:1016400000F0050EF76E520EF66EDFEC00F0040EA1
:10165000016E046A69C00EF068C00DF04DEC00F038
:101660000D0EE7EC00F0050EF76E660EF66EDFEC81
:1016700000F0040E016E046A6BC00EF06AC00DF03B
:101680004DEC00F00D0EE7EC00F0050EF76E7A0E53
:10169000F66EDFEC00F0040E016E046A6DC00EF011
:1016A0006CC00DF052EC00F0200EE7EC00F0730E71
:1016B000E7EC00F0650EE7EC00F0630EE7EC00F0FD
:1016C0000D0EE7EC00F0050EF76E8E0EF66EDFECF9
:1016D00000F0040E016E046A6FC00EF06EC00DF0D3
:1016E00052EC00F0200EE7EC00F0730EE7EC00F097
:1016F000650EE7EC00F0630EE7EC00F00D0EE7EC92
:1017000000F0050EF76EA20EF66EDFEC00F0040E90
:10171000016E046A71C00EF070C00DF052EC00F062
:10172000200EE7EC00F0730EE7EC00F0650EE7EC3E
:1017300000F0630EE7EC00F00D0EE7EC00F0050E94
:10174000F76EB60EF66EDFEC00F0040E016E72500E
:101750004FEC00F00D0EE7EC00F0050EF76ECA0E30
:10176000F66EDFEC00F0040E016E73504FEC00F0EB
:101770000D0EE7EC00F0050EF76EDE0EF66EDFECF8
:1017800000F0040E016E74504FEC00F00D0EE7EC0B
:1017900000F0050EF76EF20EF66EDFEC00F0040EB0
:1017A000016E75504FEC00F00D0EE7EC00F0060EE8
:1017B000F76E060EF66EDFEC00F00D0EE7EC00F0B3
:1017C0000D0EE7EF00F0040E806F7E6A7F6A1890BE
:1017D000188218A296D0010E8B6F57D901EE90F0A7
:1017E000060EF76E1E0EF66E35EC01F0EF6A8DD91F
:1017F000020E906F7DD9030E906F7AD9040E906F10
:1018000077D9020E7E5C02E27F6A16D0FF0E802539
:10181000056E066AFF0E062206520CE105507E5C3C
:1018200009E3030E805D04E3030E805D7F6E01D04B
:101830007F6A02D07E047F6E020E826F050E825D8B
:10184000D8B05ED07F508225136E146A1436020E13
:10185000135C836F83517E5C03E1010E816F01D0C5
:10186000816B83530FE182C091F001EEB1F0060E5F
:10187000F76E340EF66E35EC01F0EF6A81C092F02F
:101880005AD93BD0010E835D0FE182C091F001EE89
:10189000B1F0060EF76E3E0EF66E35EC01F0EF6A13
:1018A00081C092F048D929D0020E835D0FE182C039
:1018B00091F001EEB1F0060EF76E4A0EF66E35ECC1
:1018C00001F0EF6A81C092F036D917D0030E835D24
:1018D00011E182C091F001EEB1F0420EEE6E610EA8
:1018E000EE6E630EEE6E6B0EEE6EEF6A81C092F0DE
:1018F00022D903D082C090F0FBD8822BD8A09ED7EB
:1019000018924DD9225215E0010E225C0EE1FF0E15
:101910008025056E066AFF0E0622065203E1055079
:101920007E5C01E27E2A000103D07E5201E07E0649
:10193000188261D961D9010E955D24E1020E8B6F89
:10194000A4D87E5204E1010E7D6E12001AD0010E61
:101950007E5C05E127EC10F09FC084F012D0020EEF
:101960007E5C0CE101EED2F0060EF76E580EF66EBC
:1019700035EC01F0EF6A28EC11F003D0010E7D6E1A
:101980001200188226D712001890188218A214D0BC
:1019900001EE90F0060EF76E600EF66E35EC01F07B
:1019A000EF6AB3D8020E906FA3D8030E906FA0D841
:1019B000040E906F9DD818921ED91ED9010E955D08
:1019C00003E1020E8B6F61D0E1D7120085C0A6F053
:1019D00057EC11F06FEF11F0809C86390F0B876F79
:1019E00087C085F0F3DF0F0E8615876F87C085F0FF
:1019F000EDDF010E865D010ED8A4000E176E020EFB
:101A0000865D010ED8A4000E171204E0020E06EC4B
:101A100001F003D0320E13EC01F01200895304E1FF
:101A2000010E88158A6F30D0010E895D04E1020E27
:101A300088158A6F29D0020E895D04E1040E88158D
:101A40008A6F22D0030E895D04E1080E88158A6F23
:101A50001BD0040E895D04E1100E88158A6F14D026
:101A6000050E895D04E1200E88158A6F0DD0060EE3
:101A7000895D04E1400E88158A6F06D0070E895DE6
:101A800003E1800E88158A6F12008B5304E1256AEA
:101A90000A0E246E1CD0010E8B5D04E1256A140E23
:101AA000246E15D0020E8B5D04E1256A320E246E81
:101AB0000ED0030E8B5D04E1256AC80E246E07D09C
:101AC000040E8B5D04E1030E256EE80E246E1200F9
:101AD0008F6B010E8E6F8E518C5D8F518D5907E388
:101AE000010E06EC01F08E2B000E8F23F4E31200A2
:101AF000800E016E90C002F0010E12EC00F0060E96
:101B0000F76E760EF66E8AEF00F0800E016E30EC06
:101B100000F0060EF76E760EF66E8AEC00F0800E80
:101B2000016E30EC00F001EE90F0EE5003E092EC2C
:101B300000F0FBD71200800E016E91C002F0010E82
:101B400012EC00F0060EF76E760EF66E8AEC00F0E0
:101B5000010E925D15E1800E016E91C002F0010E42
:101B600012EC00F05B0E92EC00F001EEB1F0EE50E2
:101B700003E092EC00F0FBD75D0E92EC00F00ED08B
:101B8000800E016E91C002F0020E12EC00F001EE28
:101B9000B1F0EE5003E092EC00F0FBD71200F29EA1
:101BA00036C094F035C093F0F28E9351375C945167
:101BB00038580BE2010E226E1AC01EF01BC01FF037
:101BC0001CC020F01DC021F011D03750935D38505B
:101BD00094590BE2FF0E226E1AC01EF01BC01FF0BC
:101BE0001CC020F01DC021F001D0226A94C038F042
:101BF00093C037F01200120023C095F0236A120040
:101C0000986B976B98C0B0F097C0AFF0BAEC11F03A
:101C1000B1C099F099533AE1020E9725A96F000ED1
:101C20009821AA6FA0EC11F0ACC03BF0ABC03AF029
:101C3000040E9725A96F000E9821AA6FA0EC11F051
:101C4000ACC03DF0ABC03CF0080E9725A96E000E6D
:101C50009821AA6EFFEC00F0276EB76B3A0EB66FB4
:101C6000B96B0A0EB86F010EBB6F2C0EBA6FF1EC98
:101C700011F0B76B3C0EB66FB96B0A0EB86F070E5A
:101C8000BB6FD00EBA6FF1EC11F027D026EC17F035
:101C9000C55308E1270EA76F020EA86F79EC11F06B
:101CA000996B1BD086EC17F0D05308E1270EA76F75
:101CB000030EA86F79EC11F0996B0FD03B6A3C0EC4
:101CC0003A6E3D6A320E3C6E276A270EA76FA86BEC
:101CD00079EC11F004EC12F0996B99C026F099C0E0
:101CE00096F01200146A200E136E166A9AC015F050
:101CF0001506000E165A1650200DF3CF16F015508B
:101D0000200DF3CF15F0F4501626155013249C6FB8
:101D1000165014209D6F9DC0B0F09CC0AFF0BAEC7F
:101D200011F0B1C09EF09E53D8A47BD1010E9A5DF4
:101D3000D8A47CD0020E9C25A96E000E9D21AA6E0F
:101D4000FFEC00F03E6E030E9C25A96E000E9D2157
:101D5000AA6EFFEC00F03F6E040E9C25A96E000EEB
:101D60009D21AA6EFFEC00F0406E050E9C25A96F28
:101D7000000E9D21AA6FA0EC11F0ACC042F0ABC0E8
:101D800041F0070E9C25A96F000E9D21AA6FA0ECC3
:101D900011F0ACC044F0ABC043F0090E9C25A96F14
:101DA000000E9D21AA6FA0EC11F0ACC046F0ABC0B4
:101DB00045F00B0E9C25A96F000E9D21AA6FA0EC8B
:101DC00011F0ACC048F0ABC047F00D0E9C25A96FD8
:101DD000000E9D21AA6FA0EC11F0ACC04AF0ABC080
:101DE00049F00F0E9C25A96E000E9D21AA6EFFECF6
:101DF00000F04B6E100E9C25A96E000E9D21AA6E60
:101E0000FFEC00F04C6E110E9C25A96E000E9D217A
:101E1000AA6EFFEC00F04D6E120E9C25A96E000E0E
:101E20009D21AA6EFFEC00F04E6EFAD0020E9A5D74
:101E3000D8A47CD0020E9C25A96E000E9D21AA6E0E
:101E4000FFEC00F0546E030E9C25A96E000E9D2140
:101E5000AA6EFFEC00F0556E040E9C25A96E000ED4
:101E60009D21AA6EFFEC00F0566E050E9C25A96F11
:101E7000000E9D21AA6FA0EC11F0ACC058F0ABC0D1
:101E800057F0070E9C25A96F000E9D21AA6FA0ECAC
:101E900011F0ACC05AF0ABC059F0090E9C25A96FE7
:101EA000000E9D21AA6FA0EC11F0ACC05CF0ABC09D
:101EB0005BF00B0E9C25A96F000E9D21AA6FA0EC74
:101EC00011F0ACC05EF0ABC05DF00D0E9C25A96FAB
:101ED000000E9D21AA6FA0EC11F0ACC060F0ABC069
:101EE0005FF00F0E9C25A96E000E9D21AA6EFFECDF
:101EF00000F0616E100E9C25A96E000E9D21AA6E49
:101F0000FFEC00F0626E110E9C25A96E000E9D2163
:101F1000AA6EFFEC00F0636E120E9C25A96E000EF7
:101F20009D21AA6EFFEC00F0646E7AD0030E9A5DDC
:101F3000D8A476D0020E9C25A96E000E9D21AA6E13
:101F4000FFEC00F0656E030E9C25A96E000E9D212E
:101F5000AA6EFFEC00F0666E040E9C25A96E000EC2
:101F60009D21AA6EFFEC00F0676E050E9C25A96FFF
:101F7000000E9D21AA6FE4D9ACC069F0ABC068F037
:101F8000070E9C25A96F000E9D21AA6FD9D9ACC060
:101F90006BF0ABC06AF0090E9C25A96F000E9D2165
:101FA000AA6FCED9ACC06DF0ABC06CF00B0E9C2507
:101FB000A96F000E9D21AA6FC3D9ACC06FF0ABC052
:101FC0006EF00D0E9C25A96F000E9D21AA6FB8D949
:101FD000ACC071F0ABC070F00F0E9C25A96E000E66
:101FE0009D21AA6EFFEC00F0726E100E9C25A96E6A
:101FF000000E9D21AA6EFFEC00F0736E110E9C2561
:10200000A96E000E9D21AA6EFFEC00F0746E120EF8
:102010009C25A96E000E9D21AA6EFFEC00F0756E46
:1020200011D09AC0C9F046EC17F0CA5302E19E6B7A
:1020300009D09AC0D2F013EC18F09AC0C0F075EC39
:1020400012F09E6B9EC026F09EC09BF01200050E03
:10205000A26FA06BA16B1890188218A2B8D0010EC5
:102060008B6F45EC0DF001EE90F0060EF76E8C0EC6
:10207000F66E35EC01F0EF6A85EC0DF0020E906F14
:1020800078EC0DF0030E906F78EC0DF0040E906F6D
:1020900078EC0DF0020EA05D02E2A16B16D0FF0EEF
:1020A000A225056E066AFF0E062206520CE10550B7
:1020B000A05D09E3030EA25D04E3030EA25DA16F20
:1020C00001D0A16B02D0A005A16F020EA46F050E76
:1020D000A45DD8B07BD0FE0EA425136E146AFF0E4B
:1020E0001422A1511324A56FA551A05D03E1010E97
:1020F000A36F01D0A36BA55310E1A4C091F001EE32
:10210000B1F0060EF76EA20EF66E35EC01F0EF6A36
:10211000A3C092F09BEC0DF056D0010EA55D10E12E
:10212000A4C091F001EEB1F0060EF76EAA0EF66EA5
:1021300035EC01F0EF6AA3C092F09BEC0DF043D0B8
:10214000020EA55D10E1A4C091F001EEB1F0060E03
:10215000F76EB20EF66E35EC01F0EF6AA3C092F0A6
:102160009BEC0DF030D0030EA55D14E1A4C091F0FE
:1021700001EEB1F0430EEE6E6C0EEE6E6F0EEE6E73
:10218000630EEE6E6B0EEE6EEF6AA3C092F09BECE8
:102190000DF019D0040EA55D12E1A4C091F001EE7E
:1021A000B1F0420EEE6E610EEE6E630EEE6E6B0ED1
:1021B000EE6EEF6AA3C092F09BEC0DF004D0A4C0C9
:1021C00090F078EC0DF0A42BD8A081D71892CFEC2A
:1021D0000DF0225215E0010E225C0EE1FF0EA22549
:1021E000056E066AFF0E0622065203E10550A05D49
:1021F00002E20001A02B03D0A05301E0A007188247
:10220000FBEC0DF0FCEC0DF0010E955D1FE1020EF4
:102210008B6F45EC0DF0A05303E15FEC18F015D087
:10222000010EA05D03E168EC18F00FD0020EA05D76
:1022300003E171EC18F009D0030EA05D03E17AEC24
:1022400018F003D0010E9F6F1200188206D71200FB
:10225000189001EE90F011EED2F0200EE75204E05B
:10226000E6CFEEFFE82EFAD7060EF76EBA0EF66E40
:1022700035EC01F0EF6A85EC0DF0020E906F78EC12
:102280000DF0030E906F78EC0DF0040E906F78EC6B
:102290000DF0FBEC0DF0FCEC0DF0010E955D05E191
:1022A000020E8B6F45EC0DF001D0F3D71200A63172
:1022B00002E3898001D08990A651E8A202D08982E8
:1022C00001D08992A651E8A402D0898401D08994D2
:1022D000A651E8A602D0898601D089961200898E7F
:1022E000020EE82EFED700000000899E280E13EF94
:1022F00001F0A85302E1A78122D0010EA85D02E1FE
:10230000A7831DD0020EA85D02E1A78518D0030E99
:10231000A85D02E1A78713D0040EA85D02E1A7899A
:102320000ED0050EA85D02E1A78B09D0060EA85DB0
:1023300002E1A78D04D0070EA85D01E1A78F12006E
:10234000AAC0AAFFA9C0A9FFFFEC00F0AD6F010E63
:10235000A925A96E000EAA21AA6EFFEC00F0AE6FAF
:10236000AEC014F0136AAD511324AB6F000E1420ED
:10237000AC6F1200B0C0AAFFAFC0A9FFFFEC00F025
:10238000B46FA50EB45D03E0010EB16F1200010E33
:10239000AF25A96E000EB021AA6EFFEC00F0B56F5C
:1023A000010EB55D03E0020EB16F12001F0EAF25E6
:1023B000A96E000EB021AA6EFFEC00F0B26FB0C0A3
:1023C000EFF0AFC0EEF01F0EF06FD6EC19F0F1C0D9
:1023D000B3F0B251B35D03E0030EB16F1200B16B05
:1023E0001200B851B65DB951B75904E2B9C0B7F09F
:1023F000B8C0B6F0B651BA5DB751BB5904E2BBC024
:10240000B7F0BAC0B6F01200BE6BBD6B02EE35F08D
:10241000060EF76EC80EF66E35EC01F0EF6A3BC0A3
:1024200012F13AC011F1CCEC1BF0020EBD25E46FA5
:10243000000EBE21E56F3BC0E7F03AC0E6F0B5EC18
:1024400019F0E8C0BFF0BF5303E0BFC0BCF01200FA
:1024500002EE35F0060EF76ED60EF66E35EC01F094
:10246000EF6A3DC012F13CC011F1CCEC1BF0040E40
:10247000BD25E46F000EBE21E56F3DC0E7F03CC016
:10248000E6F0B5EC19F0E8C0BFF0BF5303E0BFC001
:10249000BCF0120002EE14F0060EF76EE40EF66EBB
:1024A00035EC01F0EF6A27C010F1ABEC1BF0080E21
:1024B000BD25DE6F000EBE21DF6F27C0E0F092EC7D
:1024C00019F0E1C0BFF0BF5303E0BFC0BCF0120081
:1024D000BEC0F6F0BDC0F5F0EEEC19F0F7C0BFF0ED
:1024E000BFC026F0BFC0BCF01200146A200E136EED
:1024F000166AC0C015F01506000E165A1650200DAB
:10250000F3CF16F01550200DF3CF15F0F45016262A
:1025100015501324C26F16501420C36F060EF76EA9
:10252000F00EF66EDFEC00F0040E016EC0514FECC1
:1025300000F0070EF76E040EF66EDFEC00F00D0EE5
:10254000E7EC00F0010EC05DD8A464D102EE14F0F7
:10255000070EF76E140EF66E35EC01F0EF6A3EC012
:1025600010F1ABEC1BF0020EC225DE6F000EC32192
:10257000DF6F3EC0E0F092EC19F0E1C0C4F0C4534C
:1025800019E102EE14F0070EF76E220EF66E35EC2E
:1025900001F0EF6A3FC010F1ABEC1BF0030EC22557
:1025A000DE6F000EC321DF6F3FC0E0F092EC19F048
:1025B000E1C0C4F0C45319E102EE14F0070EF76E47
:1025C000300EF66E35EC01F0EF6A40C010F1ABEC66
:1025D0001BF0040EC225DE6F000EC321DF6F40C06A
:1025E000E0F092EC19F0E1C0C4F0C45323E101EE35
:1025F000F3F0070EF76E3E0EF66E35EC01F0EF6A63
:1026000042C0EBF041C0EAF0D1EC19F0EDC00FF19F
:10261000ECC00EF189EC1BF0050EC225E46F000E34
:10262000C321E56F42C0E7F041C0E6F0B5EC19F018
:10263000E8C0C4F0C45323E101EEF3F0070EF76ED7
:102640004A0EF66E35EC01F0EF6A44C0EBF043C081
:10265000EAF0D1EC19F0EDC00FF1ECC00EF189EC0D
:102660001BF0070EC225E46F000EC321E56F44C0C6
:10267000E7F043C0E6F0B5EC19F0E8C0C4F0C4538D
:102680001DE102EE35F0070EF76E580EF66E35ECD2
:1026900001F0EF6A46C012F145C011F1CCEC1BF01D
:1026A000090EC225E46F000EC321E56F46C0E7F0B6
:1026B00045C0E6F0B5EC19F0E8C0C4F0C4531DE124
:1026C00002EE35F0070EF76E660EF66E35EC01F091
:1026D000EF6A48C012F147C011F1CCEC1BF00B0EB1
:1026E000C225E46F000EC321E56F48C0E7F047C084
:1026F000E6F0B5EC19F0E8C0C4F0C4531DE102EEF9
:1027000035F0070EF76E720EF66E35EC01F0EF6ADB
:102710004AC012F149C011F1CCEC1BF00D0EC225DC
:10272000E46F000EC321E56F4AC0E7F049C0E6F050
:10273000B5EC19F0E8C0C4F0C45319E102EE14F08E
:10274000070EF76E7E0EF66E35EC01F0EF6A4BC0A9
:1027500010F1ABEC1BF00F0EC225DE6F000EC32193
:10276000DF6F4BC0E0F092EC19F0E1C0C4F0C4534D
:1027700019E102EE14F0070EF76E8C0EF66E35ECD2
:1027800001F0EF6A4CC010F1ABEC1BF0100EC2254B
:10279000DE6F000EC321DF6F4CC0E0F092EC19F049
:1027A000E1C0C4F0C45319E102EE14F0070EF76E55
:1027B000980EF66E35EC01F0EF6A4DC010F1ABECFF
:1027C0001BF0110EC225DE6F000EC321DF6F4DC05E
:1027D000E0F092EC19F0E1C0C4F0C45319E102EE4C
:1027E00014F0070EF76EA40EF66E35EC01F0EF6AEA
:1027F0004EC010F1ABEC1BF0120EC225DE6F000EC6
:10280000C321DF6F4EC0E0F092EC19F0E1C0C4F0DC
:10281000D7EF16F0020EC05DD8A463D102EE14F01B
:10282000070EF76EB20EF66E35EC01F0EF6A54C08B
:1028300010F1ABEC1BF0020EC225DE6F000EC321BF
:10284000DF6F54C0E0F092EC19F0E1C0C4F0C45363
:1028500019E102EE14F0070EF76EC00EF66E35ECBD
:1028600001F0EF6A55C010F1ABEC1BF0030EC2256E
:10287000DE6F000EC321DF6F55C0E0F092EC19F05F
:10288000E1C0C4F0C45319E102EE14F0070EF76E74
:10289000CE0EF66E35EC01F0EF6A56C010F1ABECDF
:1028A0001BF0040EC225DE6F000EC321DF6F56C081
:1028B000E0F092EC19F0E1C0C4F0C45323E101EE62
:1028C000F3F0070EF76EDC0EF66E35EC01F0EF6AF2
:1028D00058C0EBF057C0EAF0D1EC19F0EDC00FF1A1
:1028E000ECC00EF189EC1BF0050EC225E46F000E62
:1028F000C321E56F58C0E7F057C0E6F0B5EC19F01A
:10290000E8C0C4F0C45323E101EEF3F0070EF76E04
:10291000E80EF66E35EC01F0EF6A5AC0EBF059C0E4
:10292000EAF0D1EC19F0EDC00FF1ECC00EF189EC3A
:102930001BF0070EC225E46F000EC321E56F5AC0DD
:10294000E7F059C0E6F0B5EC19F0E8C0C4F0C453A4
:102950001DE102EE35F0070EF76EF60EF66E35EC61
:1029600001F0EF6A5CC012F15BC011F1CCEC1BF01E
:10297000090EC225E46F000EC321E56F5CC0E7F0CD
:102980005BC0E6F0B5EC19F0E8C0C4F0C4531DE13B
:1029900002EE35F0080EF76E040EF66E35EC01F01F
:1029A000EF6A5EC012F15DC011F1CCEC1BF00B0EB2
:1029B000C225E46F000EC321E56F5EC0E7F05DC085
:1029C000E6F0B5EC19F0E8C0C4F0C4531DE102EE26
:1029D00035F0080EF76E100EF66E35EC01F0EF6A6A
:1029E00060C012F15FC011F1CCEC1BF00D0EC225DE
:1029F000E46F000EC321E56F60C0E7F05FC0E6F052
:102A0000B5EC19F0E8C0C4F0C45319E102EE14F0BB
:102A1000080EF76E1C0EF66E35EC01F0EF6A61C021
:102A200010F1ABEC1BF00F0EC225DE6F000EC321C0
:102A3000DF6F61C0E0F092EC19F0E1C0C4F0C45364
:102A400019E102EE14F0080EF76E2A0EF66E35EC60
:102A500001F0EF6A62C010F1ABEC1BF0100EC22562
:102A6000DE6F000EC321DF6F62C0E0F092EC19F060
:102A7000E1C0C4F0C45319E102EE14F0080EF76E81
:102A8000360EF66E35EC01F0EF6A63C010F1ABEC78
:102A90001BF0110EC225DE6F000EC321DF6F63C075
:102AA000E0F092EC19F0E1C0C4F0C45319E102EE79
:102AB00014F0080EF76E420EF66E35EC01F0EF6A78
:102AC00064C010F1ABEC1BF0120EC225DE6F000EDD
:102AD000C321DF6F64C0E0F092EC19F0E1C0C4F0F4
:102AE00066D1030EC05DD8A462D102EE14F0080EC8
:102AF000F76E500EF66E35EC01F0EF6A65C010F11E
:102B0000ABEC1BF0020EC225DE6F000EC321DF6F9F
:102B100065C0E0F092EC19F0E1C0C4F0C45319E1D3
:102B200002EE14F0080EF76E5E0EF66E35EC01F054
:102B3000EF6A66C010F1ABEC1BF0030EC225DE6F2E
:102B4000000EC321DF6F66C0E0F092EC19F0E1C027
:102B5000C4F0C45319E102EE14F0080EF76E6C0EC7
:102B6000F66E35EC01F0EF6A67C010F1ABEC1BF0CC
:102B7000040EC225DE6F000EC321DF6F67C0E0F0D8
:102B800092EC19F0E1C0C4F0C45323E101EEF3F07C
:102B9000080EF76E7A0EF66E35EC01F0EF6A69C03A
:102BA000EBF068C0EAF0D1EC19F0EDC00FF1ECC029
:102BB0000EF189EC1BF0050EC225E46F000EC32157
:102BC000E56F69C0E7F068C0E6F0B5EC19F0E8C061
:102BD000C4F0C45323E101EEF3F0080EF76E860E45
:102BE000F66E35EC01F0EF6A6BC0EBF06AC0EAF00C
:102BF000D1EC19F0EDC00FF1ECC00EF189EC1BF037
:102C0000070EC225E46F000EC321E56F6BC0E7F02D
:102C10006AC0E6F0B5EC19F0E8C0C4F0C4531DE199
:102C200002EE35F0080EF76E940EF66E35EC01F0FC
:102C3000EF6A6DC012F16CC011F1CCEC1BF0090E03
:102C4000C225E46F000EC321E56F6DC0E7F06CC0D4
:102C5000E6F0B5EC19F0E8C0C4F0C4531DE102EE93
:102C600035F0080EF76EA20EF66E35EC01F0EF6A45
:102C70006FC012F16EC011F1CCEC1BF00B0EC2252F
:102C8000E46F000EC321E56F6FC0E7F06EC0E6F0A1
:102C9000B5EC19F0E8C0C4F0C4531DE102EE35F004
:102CA000080EF76EAE0EF66E35EC01F0EF6A71C0ED
:102CB00012F170C011F1CCEC1BF00D0EC225E46FC7
:102CC000000EC321E56F71C0E7F070C0E6F0B5EC0F
:102CD00019F0E8C0C4F0C45319E102EE14F0080E74
:102CE000F76EBA0EF66E35EC01F0EF6A72C010F1B5
:102CF000ABEC1BF00F0EC225DE6F000EC321DF6FA1
:102D000072C0E0F092EC19F0E1C0C4F0C45319E1D4
:102D100002EE14F0080EF76EC80EF66E35EC01F0F8
:102D2000EF6A73C010F1ABEC1BF0100EC225DE6F22
:102D3000000EC321DF6F73C0E0F092EC19F0E1C028
:102D4000C4F0C45319E102EE14F0080EF76ED40E6D
:102D5000F66E35EC01F0EF6A74C010F1ABEC1BF0CD
:102D6000110EC225DE6F000EC321DF6F74C0E0F0CC
:102D700092EC19F0E1C0C4F0C45319E102EE14F072
:102D8000080EF76EE00EF66E35EC01F0EF6A75C0D6
:102D900010F1ABEC1BF0120EC225DE6F000EC3214A
:102DA000DF6F75C0E0F092EC19F0E1C0C4F0C453DD
:102DB00034E1C3C0F6F0C2C0F5F0EEEC19F0F7C094
:102DC000C4F0C45315E1060EF76EF00EF66EDFEC9C
:102DD00000F0040E016EC0514FEC00F0080EF76ECB
:102DE000EE0EF66EDFEC00F00D0EE7EC00F014D006
:102DF000090EF76E0C0EF66EDFEC00F0040E016E9D
:102E0000C0514FEC00F0090EF76E220EF66EDFECAB
:102E100000F00D0EE7EC00F014D0090EF76E0C0E6A
:102E2000F66EDFEC00F0040E016EC0514FEC00F0C6
:102E3000090EF76E3E0EF66EDFEC00F00D0EE7ECBD
:102E400000F0C4C026F0C4C0C1F01200C76B800EF1
:102E5000C66FC7C0B0F0C6C0AFF0BAEC11F0B1C0D9
:102E6000C8F0C85310E1C7C0FBF0C6C0FAF0FD6B54
:102E7000FC6B96EC1AF0FEC0C8F0C85304E100ECFD
:102E80000EF096C0C8F0C8C0C5F01200146A200E3B
:102E9000136E166AC9C015F01506000E165A1650A4
:102EA000200DF3CF16F01550200DF3CF15F0F45090
:102EB000162615501324CD6F16501420CE6F800E99
:102EC000CD25CB6F000ECE21CC6FCCC0B0F0CBC0E7
:102ED000AFF0BAEC11F0B1C0CFF0CF5314E1CCC0D9
:102EE000FBF0CBC0FAF0CEC0FDF0CDC0FCF096EC0C
:102EF0001AF0FEC0CFF0CF5306E1C9C09AF072ECD1
:102F00000EF09BC0CFF0CFC0CAF01200AA6BFA0E31
:102F1000A96FA0EC11F0ACC03BF0ABC03AF03B5253
:102F200005E10A0E3A5C02E2000E01D0010E176EB6
:102F3000010E3B5C06E303E12D0E3A5C02E3000E5A
:102F400001D0010E17160001D8B46AD0AA6BFC0E8E
:102F5000A96FA0EC11F0ACC03DF0ABC03CF0B76B7A
:102F60003C0EB66FB96B0A0EB86F070EBB6FD00E72
:102F7000BA6FF1EC11F0AA6AC80EA96EFFEC00F06E
:102F80003E6EAA6AC90EA96EFFEC00F03F6EAA6AF7
:102F9000CA0EA96EFFEC00F0406EAA6BCC0EA96FB2
:102FA000A0EC11F0ACC042F0ABC041F0AA6BCE0E69
:102FB000A96FA0EC11F0ACC044F0ABC043F0466A7E
:102FC000456A486A476A4A6A496A020E4B6E4C6E05
:102FD0004D6E010E4E6E020ED26F25D8030ED26FCB
:102FE00022D804EC12F0BCC0D1F0D15306E1010E9E
:102FF000C06F75EC12F0C1C0D1F0D15306E1020EE2
:10300000C06F75EC12F0C1C0D1F0D15306E1030ED0
:10301000C06F75EC12F0C1C0D1F0D1C0D0F002D0B9
:10302000010ED06F1200010ED25D16E1010E3E6E50
:103030003F6A406A426A416A446E6A0E436E466A5B
:10304000456A486A476A4A6A496A020E4B6E4C6E84
:103050004D6E010E4E6E32D0020ED25D17E1010EA2
:10306000546E556E566A5868CE0E576E5A6A640E84
:10307000596E5C6A5B6A5E6A5D6A606A5F6A020ECC
:10308000616E626A636A010E646E18D0030ED25DCF
:1030900015E1656A020E666E676A696A686A6B6A3C
:1030A000640E6A6E6D6A6C6A6F6A6E6A716A706AC3
:1030B000726A020E736E746E010E756E120001015B
:1030C000010E136F0001EEEC1BF014C1D3F01200DF
:1030D0000101020E136F0001EEEC1BF014C1D4F0DD
:1030E00012000101030E136F0001EEEC1BF014C17E
:1030F000D5F01200030ED86FD76BDA6BDB6918823C
:1031000018A27BD001EE90F0090EF76E5A0EF66E03
:1031100035EC01F0EF6A85EC0DF0020E906F78EC63
:103120000DF0030E906F78EC0DF0040E906F78ECBC
:103130000DF0D75303E1010ED96F01D0D96B800E8A
:10314000016EC00E30EC00F0090EF76E700EF66ED8
:103150008AEC00F00101020E086F0B0E096F3BC0F4
:103160000BF13AC00AF1D9C00CF100014BEC1BF095
:10317000010ED75D03E1010ED96F01D0D96B800E2E
:10318000016E940E30EC00F0090EF76E7C0EF66EB8
:103190008AEC00F00101030E026F0B0E036F3DC0BD
:1031A00005F13CC004F1D9C006F100012EDA020E8F
:1031B000D75D12E1040E916F01EEB1F0420EEE6E9A
:1031C000610EEE6E630EEE6E6B0EEE6EEF6A010E2A
:1031D000926F9BEC0DF010D0040E916F01EEB1F0E8
:1031E000420EEE6E610EEE6E630EEE6E6B0EEE6EC6
:1031F000EF6A926B9BEC0DF01892CFEC0DF022521F
:10320000D8B44BD0DA5317E1010E225C0FE1FF0E68
:10321000D825056E066AFF0E0622065203E1055008
:10322000D75D03E20001D72B188204D0D75302E008
:10323000D707188232D0DB5317E1010E225C09E177
:10324000010E3B5C2C0ED8B43A5C02E23A4A3B2AAF
:1032500009D03B5203E10B0E3A5C03E33A06000E41
:103260003B5A0001188219D0010EDB5D16E1010EF8
:10327000225C09E1070E3D5CD00ED8B43C5C02E252
:103280003C4A3D2A09D03D5203E10B0E3C5C03E36E
:103290003C06000E3D5A00011882FBEC0DF0FCECE0
:1032A0000DF0010E955D3CE1020E8B6F45EC0DF0CB
:1032B000DA5317E1020ED75D04E1010ED66F12005A
:1032C0000FD0010EDA6FD7C0DBF0D75305E13BC05A
:1032D000DDF03AC0DCF004D03DC0DDF03CC0DCF0F5
:1032E0001FD0DB530DE1B76B3A0EB66FB96B0A0E08
:1032F000B86F010EBB6F2C0EBA6FF1EC11F00CD051
:10330000B76B3C0EB66FB96B0A0EB86F070EBB6F8A
:10331000D00EBA6FF1EC11F004EC12F0DA6BDB694D
:10332000EFD61200010EE36F040EE35D1BE2DFC077
:10333000AAFFDEC0A9FFE051EFEC00F00A0E06EC98
:1033400001F0DFC0AAFFDEC0A9FFFFEC00F0E26FD2
:10335000E251E05D02E1E16B1200050E06EC01F0C6
:10336000E32BE2E3050EE16F1200E5C0DFF0E4C0FD
:10337000DEF0E6C0E0F0D6DFE1C0E9F0E95303E0BB
:10338000E9C0E8F01200010EE425DE6F000EE52131
:10339000DF6FE7C0E0F0C6DFE1C0E9F0E9C0E8F0C8
:1033A0001200EBC0EDF0EAC0ECF01200F26BF00599
:1033B000196EF36BF351195C0DE3F351EE25A96E11
:1033C000000EEF21AA6EFFEC00F0F46FF451F2272B
:1033D000F32BF0E3F2510008F16F1200090EF76EC3
:1033E000880EF66EDFEC00F0040E016E046AF6C083
:1033F0000EF0F5C00DF052EC00F00D0EE7EC00F011
:10340000090EF76EB00EF66EDFEC00F00D0EE7EC75
:1034100000F0F6C0DFF0F5C0DEF0A50EE06F82DF51
:10342000E1C0F9F0F95311E0090EF76ECA0EF66E1D
:10343000DFEC00F0040E016EF9514FEC00F00D0EC0
:10344000E7EC00F0F9C0F7F01200090EF76EEE0E8F
:10345000F66EDFEC00F00D0EE7EC00F0010EF52546
:10346000DE6F000EF621DF6F010EE06F5BDFE1C063
:10347000F9F0F95311E00A0EF76E0A0EF66EDFEC62
:1034800000F0040E016EF9514FEC00F00D0EE7EC68
:1034900000F0F9C0F7F012000A0EF76E300EF66E6B
:1034A000DFEC00F00D0EE7EC00F0F6C0EFF0F5C039
:1034B000EEF01F0EF06F7ADFF1C0F8F00A0EF76E33
:1034C0004C0EF66EDFEC00F0040E016E020E046E80
:1034D000F85138EC00F00D0EE7EC00F01F0EF5256A
:1034E000DE6F000EF621DF6FF8C0E0F01BDFE1C0F9
:1034F000F9F0F9530FE00A0EF76E680EF66EDFEC86
:1035000000F0040E016EF9514FEC00F00D0EE7ECE7
:1035100000F009D00A0EF76E8E0EF66EDFEC00F0AA
:103520000D0EE7EC00F0F9C0F7F012000A0EF76E8E
:10353000B40EF66EDFEC00F0040E016E046AFBC000
:103540000EF0FAC00DF052EC00F0200EE7EC00F0A7
:10355000440EE7EC00F0730EE7EC00F0740EE7ECBD
:1035600000F03D0EE7EC00F0046AFDC00EF0FCC078
:103570000DF052EC00F00D0EE7EC00F0FF6B200EAA
:10358000FF5D38E2FF51FA25A96E000EFB21AA6EFD
:10359000FFEC00F00101006F0001FF51FC25DE6F20
:1035A000000EFD21DF6F00C1E0F0BCDEE1C001F1E3
:1035B0000101015300011CE00A0EF76ED00EF66EF9
:1035C000DFEC00F0040E016EFF514FEC00F00A0E2C
:1035D000F76EEC0EF66EDFEC00F0010101514FECDE
:1035E00000F00D0EE7EC00F001C1FEF0000112004A
:1035F000FF2BC5E30A0EF76EF60EF66EDFEC00F059
:103600000D0EE7EC00F0FE6B1200146A03C113F01C
:10361000134A142A166A080E156E050E155E000E62
:10362000165A135015240101076F02C14CF103C152
:103630004DF100018DEC27F0010E0101065D000146
:1036400017E1800E016E02C102F00101070512ECC4
:1036500000F05B0E92EC00F0800E016E02C102F0F1
:10366000090E0101032512EC00F05D0E92EC00F052
:103670000001800E016E02C102F00101075112EC3F
:1036800000F0050E046E05C10EF004C10DF052EC01
:1036900000F000011200146A09C113F0134A142A41
:1036A000166A080E156E050E155E000E165A13509A
:1036B000152401010D6F08C14CF109C14DF1000144
:1036C0008DEC27F0010E01010C5D000117E1800E69
:1036D000016E08C102F001010D0512EC00F05B0E55
:1036E00092EC00F0800E016E08C102F0090E01019B
:1036F000092512EC00F05D0E92EC00F0000108C10B
:103700005DF10DC15EF10BC160F10AC15FF1C0EF67
:1037100028F00B0EF76E200EF66EDFEC00F001EED7
:10372000F3F0EE5003E0E7EC00F0FBD7200EE7ECFF
:1037300000F03D0EE7EC00F0200EE7EC00F0040E88
:10374000016E046A0FC10EF00EC10DF04DEC00F0D9
:103750000D0EE7EF00F00B0EF76E200EF66EDFECAD
:1037600000F002EE14F0EE5003E0E7EC00F0FBD7BF
:10377000200EE7EC00F03D0EE7EC00F0200EE7EC49
:1037800000F0040E016E010110514FEC00F00D0E1F
:10379000E7EC00F0000112000B0EF76E200EF66E43
:1037A000DFEC00F002EE35F0EE5003E0E7EC00F065
:1037B000FBD7200EE7EC00F03D0EE7EC00F0200E0A
:1037C000E7EC00F0040E016E046A12C10EF011C1A4
:1037D0000DF052EC00F00D0EE7EF00F0010E0101CC
:1037E000135D000121E13EC015F13FC016F142C05A
:1037F00018F141C017F144C01AF143C019F146C095
:103800001CF145C01BF148C01EF147C01DF14AC064
:1038100020F149C01FF14BC021F14CC022F14DC035
:1038200023F14EC024F14BD0020E0101135D0001C3
:1038300021E154C015F155C016F158C018F157C018
:1038400017F15AC01AF159C019F15CC01CF15BC0E4
:103850001BF15EC01EF15DC01DF160C020F15FC0B4
:103860001FF161C021F162C022F163C023F164C085
:1038700024F125D0030E0101135D000120E165C094
:1038800015F166C016F169C018F168C017F16BC078
:103890001AF16AC019F16DC01CF16CC01BF16FC048
:1038A0001EF16EC01DF171C020F170C01FF172C019
:1038B00021F173C022F174C023F175C024F101011C
:1038C0002E6B2F6B256B26691AC028F11BC029F1BE
:1038D0001CC02AF11DC02BF12C6B1882010E0101B6
:1038E000255D000133E1010128511A5C056E295163
:1038F0001B58066E2A511C58076E2B511D58086E16
:10390000000E085C000122E30BE1000E075C1EE3E1
:1039100007E1000E065C1AE303E1FA0E055C16E30C
:103920001AC028F11BC029F11CC02AF11DC02BF1BF
:1039300001012C53000105E10101010E2C6F000172
:1039400002D001012C6B0101010E2D6F01011653F4
:10395000000105E101010C0E306F00010DD0010ED8
:103960000101165D000105E101010A0E306F000141
:1039700003D00101050E306F01013005346F000ED8
:1039800018B2010E176E010E2D5D010ED8A4000EA7
:1039900017120001D8B409EF23F018A231D0010E9C
:1039A0008B6F45EC0DF0800E016E30EC00F0060ED2
:1039B000F76E760EF66E8AEC00F0800E016E30EC3B
:1039C00000F00B0EF76E2E0EF66E8AEC00F0010E74
:1039D000046E0101135150EC00F00B0EF76E360E21
:1039E000F66E8AEC00F00001020E906F78EC0DF09C
:1039F000030E906F78EC0DF0040E906F78EC0DF0E4
:103A000001012D6B020E2E5D000104E201012F6BFE
:103A1000000121D0FF0E01013025056E066AFF0E60
:103A200006220652000114E1055001012E5D00013D
:103A30000FE3030E0101305D000106E3030E0101F7
:103A4000305D2F6F000102D001012F6B000103D008
:103A500001012E052F6F0101020E326F050E0101CB
:103A6000325D0001D8B008EF23F0FE0E01013225CF
:103A7000136E146AFF0E14222F511324336F335127
:103A8000345D0001D8A0FCEF22F0010133512E5D1E
:103A9000000105E10101010E316F000102D00101B9
:103AA000316B010116530001D8A470D001013353CA
:103AB000000104E10101356B000167D0010E010135
:103AC000335D000105E10101010E356F00015DD09C
:103AD000020E0101335D000105E10101020E356FA7
:103AE000000153D0030E0101335D000105E1010126
:103AF000030E356F000149D0040E0101335D000152
:103B000005E10101040E356F00013FD0050E0101F2
:103B1000335D000105E10101050E356F000135D06F
:103B2000060E0101335D000105E10101060E356F4E
:103B300000012BD0070E0101335D000105E10101F9
:103B4000070E356F000121D0080E0101335D000121
:103B500005E10101080E356F000117D0090E0101C2
:103B6000335D000105E10101090E356F00010DD043
:103B70000A0E0101335D000105E101010A0E356FF6
:103B8000000102D00101356900018AD0010E010156
:103B9000165D0001D8A45CD001013353000104E19B
:103BA0000101356B000153D0010E0101335D0001AD
:103BB00005E10101010E356F000149D0020E01013E
:103BC000335D000105E10101020E356F00013FD0B8
:103BD000030E0101335D000105E10101030E356FA4
:103BE000000135D0040E0101335D000105E1010142
:103BF000040E356F00012BD0050E0101335D00016D
:103C000005E10101060E356F000121D0060E01010C
:103C1000335D000105E10101070E356F000117D08A
:103C2000070E0101335D000105E10101090E356F49
:103C300000010DD0080E0101335D000105E1010115
:103C40000A0E356F000102D001013569000128D04C
:103C500001013353000104E10101356B000120D063
:103C6000010E0101335D000105E10101010E356F17
:103C7000000116D0020E0101335D000105E10101D2
:103C80000A0E356F00010CD0030E0101335D0001F7
:103C900005E10101090E356F000102D0010135690E
:103CA00001013529000113E132C148F102EE56F05D
:103CB000420EEE6E610EEE6E630EEE6E6B0EEE6EEB
:103CC000EF6A31C149F146EC27F0FBEF22F0010128
:103CD00035530001D8A4ADD0800E016E32C102F080
:103CE000010E12EC00F00B0EF76E440EF66E8AEC2D
:103CF00000F0010E0101255D010ED8A4000E176E23
:103D0000010E2653D8A4000E1716010E315D010EC8
:103D1000D8A4000E17160001D8B459D032C14CF106
:103D200001010B0E4D6F00018DEC27F0010E01011A
:103D3000275D000126E1800E016E32C102F00C0EFB
:103D400012EC00F0280E92EC00F0800E016E32C1F1
:103D500002F0140E12EC00F0290E92EC00F00101BA
:103D60002C5300010DE1800E016E32C102F00D0EE8
:103D700012EC00F00B0EF76E500EF66E8AEC00F0AF
:103D800025D0800E016E32C102F00B0E12EC00F055
:103D9000280E92EC00F0800E016E32C102F0140E7B
:103DA00012EC00F0290E92EC00F001012C530001FE
:103DB0000DE1800E016E32C102F00C0E12EC00F02B
:103DC0000B0EF76E580EF66E8AEC00F030D0010E36
:103DD0000101155D000116E132C14EF101010B0E2A
:103DE0004F6F02EE77F00B0EF76E500EF66E35EC5D
:103DF00001F0EF6A31C150F10101516B00019DECFE
:103E000027F015D032C14EF101010B0E4F6F02EEBB
:103E100077F00B0EF76E580EF66E35EC01F0EF6A88
:103E200031C150F10101516B00019DEC27F0FBEF16
:103E300022F0010E0101355D0001D8A405D1800EEC
:103E4000016E32C102F0010E12EC00F00B0EF76EA3
:103E5000620EF66E8AEC00F0010E0101255D010E86
:103E6000D8A4000E176E010E265D010ED8A4000E18
:103E70001716010E315D010ED8A4000E17160001B1
:103E8000D8B494D032C14CF101010B0E4D6F00013A
:103E90008DEC27F001012753000126E1800E016E11
:103EA00032C102F00B0E12EC00F0280E92EC00F082
:103EB000800E016E32C102F0140E12EC00F0290ED9
:103EC00092EC00F001012C5300010DE1800E016E17
:103ED00032C102F00C0E12EC00F00B0EF76E6E0EFB
:103EE000F66E8AEC00F061D0010E0101275D000141
:103EF0002CE1800E016E32C102F00F0E12EC00F0C8
:103F0000280E92EC00F0800E016E32C102F0140E09
:103F100012EC00F0290E92EC00F001012C5300018C
:103F200013E1800E016E32C102F0100E12EC00F0AF
:103F3000540E92EC00F0650E92EC00F06D0E92ECD7
:103F400000F0700E92EC00F030D0020E0101275DFF
:103F500000012BE1800E016E32C102F00F0E12EC57
:103F600000F0280E92EC00F0800E016E32C102F0DB
:103F7000140E12EC00F0290E92EC00F001012C530B
:103F8000000113E1800E016E32C102F0100E12EC3E
:103F900000F0460E92EC00F06C0E92EC00F06F0E0A
:103FA00092EC00F0770E92EC00F04CD00101165329
:103FB000000116E132C14EF101010B0E4F6F02EE0E
:103FC00077F00B0EF76E6E0EF66E35EC01F0EF6AC1
:103FD00031C150F10101516B00019DEC27F032D04D
:103FE000010E0101165D000117E132C14EF1010120
:103FF0000B0E4F6F02EE77F0540EEE6E650EEE6E06
:104000006D0EEE6E700EEE6EEF6A31C150F1516BB7
:1040100000019DEC27F016D032C14EF101010B0ECC
:104020004F6F02EE77F0460EEE6E6C0EEE6E6F0E78
:10403000EE6E770EEE6EEF6A31C150F1516B0001FA
:104040009DEC27F0FBEF22F0020E0101355D00012F
:1040500028E1800E016E32C102F0010E12EC00F078
:104060000B0EF76E780EF66E8AEC00F018C1EBF0CE
:1040700017C1EAF0D1EC19F0EDC039F1ECC038F11C
:1040800032C154F101010B0E556F39C157F138C1DE
:1040900056F131C158F1596B000110EC28F0FBEFDB
:1040A00022F0030E0101355D000128E1800E016E52
:1040B00032C102F0010E12EC00F00B0EF76E840E0E
:1040C000F66E8AEC00F01AC1EBF019C1EAF0D1ECFF
:1040D00019F0EDC03BF1ECC03AF132C154F10101ED
:1040E0000B0E556F3BC157F13AC156F131C158F132
:1040F000596B000110EC28F0FBEF22F0040E0101D7
:10410000355D00012FE10101165300010EE1800E23
:10411000016E32C102F0010E12EC00F00B0EF76ED0
:10412000900EF66E8AEC00F00DD0800E016E32C15A
:1041300002F0010E12EC00F00B0EF76E9C0EF66E04
:104140008AEC00F032C108F101010B0E096F1CC1AD
:104150000BF11BC10AF131C10CF100014BEC1BF05A
:10416000FBEF22F0050E0101355D00011CE1800E20
:10417000016E32C102F0010E12EC00F00B0EF76E70
:10418000A80EF66E8AEC00F032C108F101010B0EA8
:10419000096F1EC10BF11DC10AF131C10CF1000103
:1041A0004BEC1BF028D2060E0101355D00012EE11B
:1041B0000101165300010EE1800E016E32C102F0C2
:1041C000010E12EC00F00B0EF76EB40EF66E8AECD8
:1041D00000F00DD0800E016E32C102F0010E12EC23
:1041E00000F00B0EF76EC00EF66E8AEC00F032C1D6
:1041F00008F101010B0E096F20C10BF11FC10AF17B
:1042000031C10CF100014BEC1BF0F5D1070E01019F
:10421000355D0001D8A460D0800E016E32C102F07D
:10422000010E12EC00F00B0EF76ECC0EF66E8AEC5F
:1042300000F001012153000113E132C14EF10101EF
:104240000B0E4F6F02EE77F04E0EEE6E6F0EEE6EAF
:10425000EF6A31C150F1516B00019DEC27F03BD06A
:10426000010E0101215D000119E132C14EF1010190
:104270000B0E4F6F02EE77F0500EEE6E750EEE6E77
:104280006C0EEE6E730EEE6E650EEE6EEF6A31C161
:1042900050F1516B00019DEC27F01DD0020E010181
:1042A000215D000118E132C14EF101010B0E4F6F8B
:1042B00002EE77F04C0EEE6E610EEE6E740EEE6E48
:1042C000630EEE6E680EEE6EEF6A31C150F1516B07
:1042D00000019DEC27F08FD1080E0101355D000132
:1042E000D8A460D0800E016E32C102F0010E12EC33
:1042F00000F00B0EF76ED80EF66E8AEC00F001019E
:104300002253000113E132C14EF101010B0E4F6F38
:1043100002EE77F04E0EEE6E6F0EEE6EEF6A31C16A
:1043200050F1516B00019DEC27F03BD0010E0101D3
:10433000225D000119E132C14EF101010B0E4F6FF8
:1043400002EE77F0500EEE6E750EEE6E6C0EEE6EA7
:10435000730EEE6E650EEE6EEF6A31C150F1516B69
:1043600000019DEC27F01DD0020E0101225D00012D
:1043700018E132C14EF101010B0E4F6F02EE77F0E2
:104380004C0EEE6E610EEE6E740EEE6E630EEE6E01
:10439000680EEE6EEF6A31C150F1516B00019DEC79
:1043A00027F029D1090E0101355D0001D8A472D092
:1043B0000101165300010EE1800E016E32C102F0C0
:1043C000010E12EC00F00B0EF76EE40EF66E8AECA6
:1043D00000F00DD0800E016E32C102F0010E12EC21
:1043E00000F00B0EF76EF00EF66E8AEC00F0010195
:1043F0002353000113E132C14EF101010B0E4F6F47
:1044000002EE77F04E0EEE6E6F0EEE6EEF6A31C179
:1044100050F1516B00019DEC27F03BD0010E0101E2
:10442000235D000119E132C14EF101010B0E4F6F06
:1044300002EE77F0500EEE6E750EEE6E6C0EEE6EB6
:10444000730EEE6E650EEE6EEF6A31C150F1516B78
:1044500000019DEC27F01DD0020E0101235D00013B
:1044600018E132C14EF101010B0E4F6F02EE77F0F1
:104470004C0EEE6E610EEE6E740EEE6E630EEE6E10
:10448000680EEE6EEF6A31C150F1516B00019DEC88
:1044900027F0B1D00A0E0101355D0001D8A4ABD0E0
:1044A000800E016E32C102F0010E12EC00F00B0E14
:1044B000F76EFC0EF66E8AEC00F0010E0101255D30
:1044C000010ED8A4000E176E0A0E265D010ED8A4A8
:1044D000000E1716010E315D010ED8A4000E17163E
:1044E0000001D8B45CD032C14CF101010B0E4D6F0C
:1044F00000018DEC27F0010E0101275D000129E18B
:10450000800E016E32C102F0100E12EC00F0280E87
:1045100092EC00F0800E016E32C102F0140E12EC2B
:1045200000F0290E92EC00F001012C53000110E183
:10453000800E016E32C102F0110E12EC00F0590E25
:1045400092EC00F0650E92EC00F0730E92EC00F02D
:1045500025D0800E016E32C102F0110E12EC00F077
:10456000280E92EC00F0800E016E32C102F0140EA3
:1045700012EC00F0290E92EC00F001012C53000126
:104580000DE1800E016E32C102F0120E12EC00F04D
:104590004E0E92EC00F06F0E92EC00F02CD0010E5B
:1045A0000101245D000115E132C14EF101010B0E44
:1045B0004F6F02EE77F0590EEE6E650EEE6E730ED3
:1045C000EE6EEF6A31C150F1516B00019DEC27F0A6
:1045D00012D032C14EF101010B0E4F6F02EE77F097
:1045E0004E0EEE6E6F0EEE6EEF6A31C150F1516BF2
:1045F00000019DEC27F006D018A204D032C190F043
:1046000078EC0DF00101322B0001D8A02EEF1DF047
:104610001892CFEC0DF02252D8B46BD00101255383
:10462000000115E1010E225C09E1010134512E5D0A
:10463000000102E201012E2B000107D001012E53DF
:10464000000102E001012E070001188252D0010E84
:104650008B6F45EC0DF001012653000110E10101C3
:104660002753000105E10101010E276F000102D06F
:104670000101276B0101010E2D6F00013AD0010EDF
:104680000101265D000120E1010E225C0DE1020E18
:104690000101275D000104E20101272B000102D086
:1046A0000101276B00010BD001012753000104E039
:1046B00001012707000103D00101020E276F01014C
:1046C000010E2D6F000115D00A0E0101265D0001BB
:1046D0000FE1010E0101275D000104E10101276BDB
:1046E000000103D00101010E276F0101010E2D6FA2
:1046F0000001FBEC0DF0FCEC0DF0010E955DD8A473
:104700003EEF27F0010125530001D8A4CEEF26F09B
:1047100001012F512E5D136E146AD8A01406020EEB
:104720001324366F16530001D8A470D001012E5304
:10473000000104E10101356B000167D0010E0101A8
:104740002E5D000105E10101010E356F00015DD014
:10475000020E01012E5D000105E10101020E356F1F
:10476000000153D0030E01012E5D000105E101019E
:10477000030E356F000149D0040E01012E5D0001CA
:1047800005E10101040E356F00013FD0050E010166
:104790002E5D000105E10101050E356F000135D0E8
:1047A000060E01012E5D000105E10101060E356FC7
:1047B00000012BD0070E01012E5D000105E1010172
:1047C000070E356F000121D0080E01012E5D00019A
:1047D00005E10101080E356F000117D0090E010136
:1047E0002E5D000105E10101090E356F00010DD0BC
:1047F0000A0E01012E5D000105E101010A0E356F6F
:10480000000102D00101356900018AD0010E0101C9
:10481000165D0001D8A45CD001012E53000104E113
:104820000101356B000153D0010E01012E5D000125
:1048300005E10101010E356F000149D0020E0101B1
:104840002E5D000105E10101020E356F00013FD030
:10485000030E01012E5D000105E10101030E356F1C
:10486000000135D0040E01012E5D000105E10101BA
:10487000040E356F00012BD0050E01012E5D0001E5
:1048800005E10101060E356F000121D0060E010180
:104890002E5D000105E10101070E356F000117D003
:1048A000070E01012E5D000105E10101090E356FC2
:1048B00000010DD0080E01012E5D000105E101018E
:1048C0000A0E356F000102D001013569000128D0C0
:1048D00001012E53000104E10101356B000120D0DC
:1048E000010E01012E5D000105E10101010E356F90
:1048F000000116D0020E01012E5D000105E101014B
:104900000A0E356F00010CD0030E01012E5D00016F
:1049100005E10101090E356F000102D00101356981
:104920000101352900010BE1020E8B6F45EC0DF002
:104930000101010E146F00011200CDEF26F00101FC
:104940003553000116E1020E8B6F45EC0DF00101AD
:10495000010E256F266B15C127F11AC028F11BC067
:1049600029F11CC02AF11DC02BF12C6B2D6F000109
:1049700014D2010E0101355D000116E1020E8B6FAC
:1049800045EC0DF00101010E256F266F16C127F1D0
:104990001AC028F11BC029F11CC02AF11DC02BF13F
:1049A0002C6B2D6F0001F9D10A0E0101355D00015C
:1049B00018E1020E8B6F45EC0DF00101010E256F21
:1049C0000A0E266F24C127F11AC028F11BC029F155
:1049D0001CC02AF11DC02BF12C6B010E2D6F0001A4
:1049E000DCD1020E0101355D0001D8A450D018C100
:1049F000EBF017C1EAF0D1EC19F0EDC03DF1ECC0DD
:104A00003CF13DC13FF13CC13EF13DC16FF13CC1C4
:104A10006EF136C170F169EC2AF072C13DF171C1DD
:104A20003CF101013F513D5D04E13E513C5D00011F
:104A30002CE03DC145F13CC144F1000141EC27F0BF
:104A400047C118F146C117F1010E0101135D0001C4
:104A500005E118C142F017C141F013D0020E010167
:104A6000135D000105E118C158F017C157F009D0D6
:104A7000030E0101135D000104E118C169F017C1C3
:104A800068F013C1C0F075EC12F0188286D1030EE5
:104A90000101355D0001D8A44FD01AC1EBF019C156
:104AA000EAF0D1EC19F0EDC041F1ECC040F141C1A8
:104AB00043F140C142F141C16FF140C16EF136C1D5
:104AC00070F169EC2AF072C141F171C140F101014C
:104AD0004351415D04E14251405D00012BE041C181
:104AE00045F140C144F10001CCD947C11AF146C19A
:104AF00019F1010E0101135D000105E11AC144F035
:104B000019C143F013D0020E0101135D000105E14C
:104B10001AC15AF019C159F009D0030E0101135DF1
:104B2000000104E11AC16BF019C16AF013C1C0F0B1
:104B300075EC12F0188231D1040E0101355D0001CF
:104B400032E10101010E696F1B0E686F00017FECFD
:104B500029F06AC137F1010E0101375D000121E141
:104B6000010E0101135D000105E11CC146F01BC1EE
:104B700045F013D0020E0101135D000105E11CC1D7
:104B80005CF01BC15BF009D0030E0101135D000155
:104B900004E11CC16DF01BC16CF013C1C0F075ECD9
:104BA00012F01882FAD0050E0101355D000132E1E4
:104BB0000101010E696F1D0E686F00017FEC29F085
:104BC0006AC137F1010E0101375D000121E1010EDB
:104BD0000101135D000105E11EC148F01DC147F050
:104BE00013D0020E0101135D000105E11EC15EF04C
:104BF0001DC15DF009D0030E0101135D000104E148
:104C00001EC16FF01DC16EF013C1C0F075EC12F043
:104C10001882C3D0060E0101355D000132E10101A9
:104C2000010E696F1F0E686F00017FEC29F06AC1E9
:104C300037F1010E0101375D000121E1010E010193
:104C4000135D000105E120C14AF01FC149F013D0F6
:104C5000020E0101135D000105E120C160F01FC1DA
:104C60005FF009D0030E0101135D000104E120C1D2
:104C700071F01FC170F013C1C0F075EC12F0188212
:104C80008CD0070E0101355D00012AE10101210EE2
:104C9000656F000100EC29F066C137F1010E0101DA
:104CA000375D00011BE1010E0101135D000103E10D
:104CB00021C14BF00FD0020E0101135D000103E191
:104CC00021C161F007D0030E0101135D000102E173
:104CD00021C172F013C1C0F075EC12F018825DD0E2
:104CE000080E0101355D00012AE10101220E656F08
:104CF000000100EC29F066C137F1010E0101375DBA
:104D000000011BE1010E0101135D000103E122C15D
:104D10004CF00FD0020E0101135D000103E122C12E
:104D200062F007D0030E0101135D000102E122C110
:104D300073F013C1C0F075EC12F018822ED0090E7A
:104D40000101355D000129E10101230E656F0001BC
:104D500000EC29F066C137F1010E0101375D000159
:104D60001BE1010E0101135D000103E123C14DF0C0
:104D70000FD0020E0101135D000103E123C163F0B6
:104D800007D0030E0101135D000102E123C174F09D
:104D900013C1C0F075EC12F018826FD0020E8B6F49
:104DA00045EC0DF00101265300011EE127C115F16C
:104DB000010E0101135D000103E115C13EF00FD0AA
:104DC000020E0101135D000103E115C154F007D08B
:104DD000030E0101135D000102E115C165F013C16D
:104DE000C0F075EC12F045D0010E0101265D000106
:104DF0001EE127C116F1010E0101135D000103E15F
:104E000016C13FF00FD0020E0101135D000103E156
:104E100016C155F007D0030E0101135D000102E138
:104E200016C166F013C1C0F075EC12F022D00A0E64
:104E30000101265D00011DE127C124F1010E0101E0
:104E4000135D000103E124C14EF00FD0020E0101F9
:104E5000135D000103E124C164F007D0030E0101DA
:104E6000135D000102E124C175F013C1C0F075ECBF
:104E700012F00101256B2669188200016EEF1CF00B
:104E8000120045C147F144C146F1120048C190F0FB
:104E900078EC0DF002EE56F0000EEE5202E0E83E25
:104EA000FCD701014A6F140E4A5D000103E30101C2
:104EB000130E4A6F01014A5114084B6F800E016EA8
:104EC00048C102F04B5112EC00F002EE56F0EE50E9
:104ED00003E092EC00F0FBD7010E0101495D0001F7
:104EE0001BE1020E01014B5D00010BE3800E016E20
:104EF00048C102F001014B0512EC00F05B0E92EC90
:104F000000F00001800E016E48C102F0140E12EC98
:104F100000F05D0E92EC00F01200800E016E4CC1AC
:104F200002F001014D5112EC00F00C0EF76E080E6C
:104F3000F66E8AEC00F00001120002EE77F0000E2F
:104F4000EE5202E0E83EFCD70101526F090E525DBD
:104F5000000103E30101080E526F0001146A4FC102
:104F600013F0134A142A166A080E156E01015251E5
:104F7000155E000E165A13501524536F4EC14CF196
:104F80004FC14DF10001C9DF010E0101505D00016B
:104F900036E1010E0101515D000119E1800E016E43
:104FA0004EC102F00101530512EC00F0280E92EC04
:104FB00000F0800E016E4EC102F0090E01014F2576
:104FC00012EC00F0290E92EC00F0000117D0800ED8
:104FD000016E4EC102F00101530512EC00F05B0EB0
:104FE00092EC00F0800E016E4EC102F0090E01013C
:104FF0004F2512EC00F05D0E92EC00F00001800EE7
:10500000016E4EC102F00101535112EC00F002EEAC
:1050100077F0EE5003E092EC00F0FBD700011200B5
:10502000146A55C113F0134A142A166A080E156E35
:10503000040E155E000E165A1350152401015A6F06
:10504000800E016E54C102F0555112EC00F00C0EAE
:10505000F76E080EF66E8AEC00F0010E0101585D45
:105060000001D8A453D0010E0101595D000119E1DE
:10507000800E016E54C102F001015A0512EC00F0DD
:10508000280E92EC00F0800E016E54C102F0090E61
:105090000101552512EC00F0290E92EC00F0000100
:1050A00035D0010157510001E8AE19D0800E016ED4
:1050B00054C102F001015A0512EC00F05B0E92ECB3
:1050C00000F0800E016E54C102F0090E0101552559
:1050D00012EC00F05D0E92EC00F0000117D0800E93
:1050E000016E54C102F001015A5112EC00F05B0E46
:1050F00092EC00F0800E016E54C102F0090E010125
:10510000552512EC00F05D0E92EC00F001015751B4
:105110000001E8AE23D0800E016E54C102F00101FF
:105120005A5112EC00F02D0E92EC00F00101565194
:1051300000085B6F000E57555C6F800E016E54C106
:1051400002F05A2912EC00F0030E046E5CC10EF05E
:105150005BC10DF052EC00F0000110D0800E016E2A
:1051600054C102F001015A2912EC00F0030E046E42
:1051700057C10EF056C10DF052EC00F000011200C4
:1051800060C10AF05FC109F00C6A3C0E0B6E1EECA8
:1051900001F00101616F0AC062F160C10AF05FC1F4
:1051A00009F00C6A3C0E0B6E1EEC01F00EC064F1AF
:1051B0000DC063F1800E016E5DC102F001015E5110
:1051C00012EC00F0020E046E62C10EF061C10DF02F
:1051D00052EC00F03A0E92EC00F0800E016E5DC1D0
:1051E00002F0030E01015E2512EC00F0020E046EC7
:1051F00064C10EF063C10DF052EC00F0000112002A
:1052000065C167F1188218A24DD0010E8B6F45EC75
:105210000DF001EE90F00C0EF76E140EF66E35ECFC
:1052200001F0EF6A85EC0DF0020E906F78EC0DF056
:10523000030E906F78EC0DF0040E906F78EC0DF08B
:105240000101675300010CE1800E016E940E30ECF9
:1052500000F00C0EF76E280EF66E8AEC00F021D0EE
:10526000010E0101675D00010CE1800E016E940EDC
:1052700030EC00F00C0EF76E3E0EF66E8AEC00F08D
:1052800010D0020E0101675D00010BE1800E016E7E
:10529000940E30EC00F00C0EF76E540EF66E8AECA5
:1052A00000F01892CFEC0DF0010E225C0AE1020E24
:1052B0000101675D000102E20101672B0001188214
:1052C0000AD0222808E101016753000102E0010130
:1052D000670700011882FBEC0DF0FCEC0DF0010EED
:1052E000955D0BE1020E8B6F45EC0DF067C165F12A
:1052F0000101010E666F0001120085D7120069C11D
:105300000AF068C109F00C6A3C0E0B6E1EEC01F04D
:1053100001016B6F69C10AF068C109F00C6A3C0EAB
:105320000B6E1EEC01F00DC06CF101016D6B18826B
:10533000000118A274D0010E8B6F45EC0DF001EE48
:1053400090F00C0EF76E6A0EF66E35EC01F0EF6A17
:1053500085EC0DF0020E906F78EC0DF0030E906F5F
:1053600078EC0DF0040E906F78EC0DF001016D53A8
:1053700000012BE1800E016E940E30EC00F0200E47
:1053800092EC00F05B0E92EC00F0020E046E010154
:105390006B5150EC00F05D0E92EC00F0200E92ECA0
:1053A00000F03A0E92EC00F0200E92EC00F0020EAB
:1053B000046E01016C5150EC00F00C0EF76E7E0E85
:1053C000F66E8AEC00F0000128D0800E016E940E7B
:1053D00030EC00F0200E92EC00F092EC00F0020EA7
:1053E000046E01016B5150EC00F0200E92EC00F0C5
:1053F0003A0E92EC00F0200E92EC00F05B0E92EC74
:1054000000F0020E046E01016C5150EC00F00C0E25
:10541000F76E880EF66E8AEC00F000011892CFEC61
:105420000DF0010E225C17E101016D53000109E14D
:10543000630E01016B5D000102E201016B2B0001B3
:1054400008D03B0E01016C5D000102E201016C2BF2
:105450000001188216D0222814E101016D530001C9
:1054600008E101016B53000102E001016B0700013B
:1054700007D001016C53000102E001016C0700013B
:105480001882FBEC0DF0FCEC0DF0010E955D1FE1B8
:10549000020E8B6F45EC0DF001016D53000106E12A
:1054A0000101010E6D6F1882000111D001016B51D5
:1054B0003C0DF3CF13F0F4CF14F06C511324686F4C
:1054C000000E1420696F010E6A6F0001120030D7C0
:1054D000120001010B0E7E6F146A7EC113F0134A95
:1054E000142A166A080E156E040E155E000E165A62
:1054F000135015247F6F6FC181F16EC180F10C0EC6
:10550000F76E920EF66EDFEC00F0040E016E046A88
:105510006FC10EF06EC10DF04DEC00F00D0EE7EC1A
:1055200000F001016F510001E8AE0BD00101010E46
:10553000786F6E510008736F000E6F55746F000125
:1055400006D00101786B6FC174F16EC173F1010E69
:105550000101745D00010BE305E1F50E0101735DCE
:10556000000105E30101010E746FF40E736F000179
:1055700074C10AF073C109F00C6A640E0B6E1EEC64
:1055800001F00101756F74C10AF073C109F00C6A72
:10559000640E0B6E1EEC01F00EC074F10DC073F1C1
:1055A00074C10AF073C109F00C6A0A0E0B6E1EEC8E
:1055B00001F00101766F74C10AF073C109F00C6A41
:1055C0000A0E0B6E1EEC01F00DC077F10C0EF76E9B
:1055D000B60EF66EDFEC00F0040E016E010178519C
:1055E0004FEC00F00C0EF76ED00EF66EDFEC00F014
:1055F000010175514FEC00F0200EE7EC00F0310E88
:10560000E7EC00F0300EE7EC00F0730EE7EC00F092
:105610003D0EE7EC00F0010176514FEC00F00C0E6E
:10562000F76ED80EF66EDFEC00F0010177514FEC0B
:1056300000F00D0EE7EC00F00101796B1AC084F167
:105640001BC085F11CC086F11DC087F1886B010E5F
:10565000896F0001010E8B6F45EC0DF070C14CF1AC
:105660007EC14DF18DEC27F070C18CF101017F05F9
:105670008D6F000195EC2EF00101280E8A6F00015C
:105680007FEC2EF070C18CF1090E01017E258D6F2B
:10569000000195EC2EF00101290E8A6F00017FECCC
:1056A0002EF0010184511A5C056E85511B58066E5F
:1056B00086511C58076E87511D58086E000E085CF5
:1056C000000122E30BE1000E075C1EE307E1000E80
:1056D000065C1AE303E1FA0E055C16E31AC084F1D6
:1056E0001BC085F11CC086F11DC087F101018853E4
:1056F000000105E10101010E886F000102D00101E6
:10570000886B0101010E896F010E0101895D0001A5
:10571000D8A4A1D00101896B70C18CF17FC18DF13A
:10572000000195EC2EF0010E01017953D8A4000E72
:10573000176E010E885D010ED8A4000E1716000129
:1057400007E00101200E8A6F00017FEC2EF012D0DD
:10575000010E0101785D000107E101012D0E8A6F44
:1057600000017FEC2EF006D001012B0E8A6F0001A4
:105770007FEC2EF070C18CF101017F298D6F00014B
:1057800095EC2EF0010E0101795D010ED8A4000EFA
:10579000176E010E885D010ED8A4000E17160001C9
:1057A00007E00101200E8A6F00017FEC2EF007D088
:1057B000300E010175258A6F00017FEC2EF070C15B
:1057C0008CF1020E01017F258D6F000195EC2EF00A
:1057D000020E0101795D010ED8A4000E176E010EB4
:1057E000885D010ED8A4000E1716000107E0010124
:1057F000200E8A6F00017FEC2EF007D0300E0101E1
:1058000076258A6F00017FEC2EF070C18CF1030EBB
:1058100001017F258D6F000195EC2EF0030E010133
:10582000795D010ED8A4000E176E010E885D010E81
:10583000D8A4000E1716000107E00101200E8A6FA0
:1058400000017FEC2EF007D0300E010177258A6F22
:1058500000017FEC2EF0F29E34C083F133C082F160
:10586000F28E020E0101835DEE0ED8B4825D00015E
:1058700002E2000E01D0010E176E010E81BC000E77
:10588000171625E0030E8B6F45EC0DF00C0EF76E2E
:10589000E00EF66EDFEC00F0040E016E046A81C1CA
:1058A0000EF080C10DF04DEC00F00D0EE7EC00F0B5
:1058B00081BC04D00A0E06EC01F0FAD7640E06ECA7
:1058C00001F0236A81C172F180C171F11200CFEC45
:1058D0000DF02252D8B471D1010E8B6F45EC0DF052
:1058E0000101010E896F795300010DE10101785327
:1058F000000105E10101010E786F000102D00101F4
:10590000786B00015AD1010E0101795D000125E19A
:10591000010E225C0DE1050E0101755D000104E23E
:105920000101752B000102D00101756B00010BD044
:1059300001017553000104E001017507000103D066
:105940000101050E756F050E0101755D000103E192
:105950000101766B776B000130D1020E0101795D98
:105960000001D8A4CFD0050E0101755D000104E34C
:1059700001017C6B000153D0146A75C113F01450FF
:10598000640DF3CF14F01350640DF3CF13F0F45003
:105990001426166A76C115F016500A0DF3CF16F0CC
:1059A00015500A0DF3CF15F0F45016261550132498
:1059B00001017A6F165014207B6F010E7B5D000190
:1059C0002AE305E1EA0E01017A5D000124E3010EFC
:1059D000146EF40E136E166A75C115F01650640D30
:1059E000F3CF16F01550640DF3CF15F0F4501626D2
:1059F0001550135C136E16501458146E14C00AF030
:105A000013C009F00C6A0A0E0B6E1EEC01F00101C6
:105A10007C6F000103D00101090E7C6F0001010EB3
:105A2000225C0DE101017C51765D000104E201017F
:105A3000762B000102D00101766B00010AD0010132
:105A40007653000104E001017607000102D07CC119
:105A500076F1146A75C113F01450640DF3CF14F08D
:105A60001350640DF3CF13F0F4501426166A76C168
:105A700015F016500A0DF3CF16F015500A0DF3CF9E
:105A800015F0F45016261550132616501422010155
:105A9000775113247A6F000E14207B6F010E7B5D0B
:105AA00000012EE305E1F50E01017A5D000128E316
:105AB000010E146EF40E136E166A75C115F01650B1
:105AC000640DF3CF16F01550640DF3CF15F0F450BC
:105AD00016261550135C136E16501458146E166A61
